{
  "contractName": "AI",
  "abi": [
    {
      "inputs": [],
      "stateMutability": "nonpayable",
      "type": "constructor"
    },
    {
      "anonymous": false,
      "inputs": [
        {
          "indexed": true,
          "internalType": "address",
          "name": "owner",
          "type": "address"
        },
        {
          "indexed": true,
          "internalType": "address",
          "name": "spender",
          "type": "address"
        },
        {
          "indexed": false,
          "internalType": "uint256",
          "name": "value",
          "type": "uint256"
        }
      ],
      "name": "Approval",
      "type": "event"
    },
    {
      "anonymous": false,
      "inputs": [
        {
          "indexed": false,
          "internalType": "address",
          "name": "owner",
          "type": "address"
        }
      ],
      "name": "OwnershipTransferred",
      "type": "event"
    },
    {
      "anonymous": false,
      "inputs": [
        {
          "indexed": false,
          "internalType": "bool",
          "name": "enabledOrNot",
          "type": "bool"
        }
      ],
      "name": "TaxCollectionEnabled",
      "type": "event"
    },
    {
      "anonymous": false,
      "inputs": [
        {
          "indexed": true,
          "internalType": "address",
          "name": "from",
          "type": "address"
        },
        {
          "indexed": true,
          "internalType": "address",
          "name": "to",
          "type": "address"
        },
        {
          "indexed": false,
          "internalType": "uint256",
          "name": "value",
          "type": "uint256"
        }
      ],
      "name": "Transfer",
      "type": "event"
    },
    {
      "inputs": [],
      "name": "INITIAL_ALLOTMENT",
      "outputs": [
        {
          "internalType": "uint256",
          "name": "",
          "type": "uint256"
        }
      ],
      "stateMutability": "view",
      "type": "function",
      "constant": true
    },
    {
      "inputs": [],
      "name": "MAX_EMISSION",
      "outputs": [
        {
          "internalType": "uint256",
          "name": "",
          "type": "uint256"
        }
      ],
      "stateMutability": "view",
      "type": "function",
      "constant": true
    },
    {
      "inputs": [],
      "name": "SECONDS_IN_A_DAY",
      "outputs": [
        {
          "internalType": "uint256",
          "name": "",
          "type": "uint256"
        }
      ],
      "stateMutability": "view",
      "type": "function",
      "constant": true
    },
    {
      "inputs": [],
      "name": "_maxTxAmount",
      "outputs": [
        {
          "internalType": "uint256",
          "name": "",
          "type": "uint256"
        }
      ],
      "stateMutability": "view",
      "type": "function",
      "constant": true
    },
    {
      "inputs": [],
      "name": "_maxWalletAmount",
      "outputs": [
        {
          "internalType": "uint256",
          "name": "",
          "type": "uint256"
        }
      ],
      "stateMutability": "view",
      "type": "function",
      "constant": true
    },
    {
      "inputs": [],
      "name": "ai2bnb",
      "outputs": [
        {
          "internalType": "address",
          "name": "",
          "type": "address"
        }
      ],
      "stateMutability": "view",
      "type": "function",
      "constant": true
    },
    {
      "inputs": [],
      "name": "aiSnapshot",
      "outputs": [
        {
          "internalType": "uint256",
          "name": "",
          "type": "uint256"
        }
      ],
      "stateMutability": "view",
      "type": "function",
      "constant": true
    },
    {
      "inputs": [
        {
          "internalType": "address",
          "name": "adr",
          "type": "address"
        }
      ],
      "name": "authorize",
      "outputs": [],
      "stateMutability": "nonpayable",
      "type": "function"
    },
    {
      "inputs": [],
      "name": "denominator",
      "outputs": [
        {
          "internalType": "uint256",
          "name": "",
          "type": "uint256"
        }
      ],
      "stateMutability": "view",
      "type": "function",
      "constant": true
    },
    {
      "inputs": [],
      "name": "emissionEnd",
      "outputs": [
        {
          "internalType": "uint256",
          "name": "",
          "type": "uint256"
        }
      ],
      "stateMutability": "view",
      "type": "function",
      "constant": true
    },
    {
      "inputs": [],
      "name": "emissionPerDay",
      "outputs": [
        {
          "internalType": "uint256",
          "name": "",
          "type": "uint256"
        }
      ],
      "stateMutability": "view",
      "type": "function",
      "constant": true
    },
    {
      "inputs": [],
      "name": "feeOnNonTrade",
      "outputs": [
        {
          "internalType": "bool",
          "name": "",
          "type": "bool"
        }
      ],
      "stateMutability": "view",
      "type": "function",
      "constant": true
    },
    {
      "inputs": [
        {
          "internalType": "address",
          "name": "adr",
          "type": "address"
        }
      ],
      "name": "isAuthorized",
      "outputs": [
        {
          "internalType": "bool",
          "name": "",
          "type": "bool"
        }
      ],
      "stateMutability": "view",
      "type": "function",
      "constant": true
    },
    {
      "inputs": [
        {
          "internalType": "address",
          "name": "account",
          "type": "address"
        }
      ],
      "name": "isOwner",
      "outputs": [
        {
          "internalType": "bool",
          "name": "",
          "type": "bool"
        }
      ],
      "stateMutability": "view",
      "type": "function",
      "constant": true
    },
    {
      "inputs": [
        {
          "internalType": "uint256",
          "name": "",
          "type": "uint256"
        }
      ],
      "name": "pairs",
      "outputs": [
        {
          "internalType": "address",
          "name": "",
          "type": "address"
        }
      ],
      "stateMutability": "view",
      "type": "function",
      "constant": true
    },
    {
      "inputs": [],
      "name": "router",
      "outputs": [
        {
          "internalType": "contract IDexRouter",
          "name": "",
          "type": "address"
        }
      ],
      "stateMutability": "view",
      "type": "function",
      "constant": true
    },
    {
      "inputs": [],
      "name": "swapEnabled",
      "outputs": [
        {
          "internalType": "bool",
          "name": "",
          "type": "bool"
        }
      ],
      "stateMutability": "view",
      "type": "function",
      "constant": true
    },
    {
      "inputs": [
        {
          "internalType": "address payable",
          "name": "adr",
          "type": "address"
        }
      ],
      "name": "transferOwnership",
      "outputs": [],
      "stateMutability": "nonpayable",
      "type": "function"
    },
    {
      "inputs": [
        {
          "internalType": "address",
          "name": "adr",
          "type": "address"
        }
      ],
      "name": "unauthorize",
      "outputs": [],
      "stateMutability": "nonpayable",
      "type": "function"
    },
    {
      "stateMutability": "payable",
      "type": "receive",
      "payable": true
    },
    {
      "inputs": [],
      "name": "totalSupply",
      "outputs": [
        {
          "internalType": "uint256",
          "name": "",
          "type": "uint256"
        }
      ],
      "stateMutability": "view",
      "type": "function",
      "constant": true
    },
    {
      "inputs": [],
      "name": "decimals",
      "outputs": [
        {
          "internalType": "uint8",
          "name": "",
          "type": "uint8"
        }
      ],
      "stateMutability": "pure",
      "type": "function",
      "constant": true
    },
    {
      "inputs": [],
      "name": "symbol",
      "outputs": [
        {
          "internalType": "string",
          "name": "",
          "type": "string"
        }
      ],
      "stateMutability": "pure",
      "type": "function",
      "constant": true
    },
    {
      "inputs": [],
      "name": "name",
      "outputs": [
        {
          "internalType": "string",
          "name": "",
          "type": "string"
        }
      ],
      "stateMutability": "pure",
      "type": "function",
      "constant": true
    },
    {
      "inputs": [],
      "name": "getOwner",
      "outputs": [
        {
          "internalType": "address",
          "name": "",
          "type": "address"
        }
      ],
      "stateMutability": "view",
      "type": "function",
      "constant": true
    },
    {
      "inputs": [
        {
          "internalType": "address",
          "name": "account",
          "type": "address"
        }
      ],
      "name": "balanceOf",
      "outputs": [
        {
          "internalType": "uint256",
          "name": "",
          "type": "uint256"
        }
      ],
      "stateMutability": "view",
      "type": "function",
      "constant": true
    },
    {
      "inputs": [
        {
          "internalType": "uint256",
          "name": "burnQuantity",
          "type": "uint256"
        }
      ],
      "name": "burn",
      "outputs": [
        {
          "internalType": "bool",
          "name": "",
          "type": "bool"
        }
      ],
      "stateMutability": "nonpayable",
      "type": "function"
    },
    {
      "inputs": [
        {
          "internalType": "address",
          "name": "holder",
          "type": "address"
        },
        {
          "internalType": "address",
          "name": "spender",
          "type": "address"
        }
      ],
      "name": "allowance",
      "outputs": [
        {
          "internalType": "uint256",
          "name": "",
          "type": "uint256"
        }
      ],
      "stateMutability": "view",
      "type": "function",
      "constant": true
    },
    {
      "inputs": [
        {
          "internalType": "address",
          "name": "spender",
          "type": "address"
        },
        {
          "internalType": "uint256",
          "name": "amount",
          "type": "uint256"
        }
      ],
      "name": "approve",
      "outputs": [
        {
          "internalType": "bool",
          "name": "",
          "type": "bool"
        }
      ],
      "stateMutability": "nonpayable",
      "type": "function"
    },
    {
      "inputs": [
        {
          "internalType": "address",
          "name": "spender",
          "type": "address"
        }
      ],
      "name": "approveMax",
      "outputs": [
        {
          "internalType": "bool",
          "name": "",
          "type": "bool"
        }
      ],
      "stateMutability": "nonpayable",
      "type": "function"
    },
    {
      "inputs": [
        {
          "internalType": "address",
          "name": "recipient",
          "type": "address"
        },
        {
          "internalType": "uint256",
          "name": "amount",
          "type": "uint256"
        }
      ],
      "name": "transfer",
      "outputs": [
        {
          "internalType": "bool",
          "name": "",
          "type": "bool"
        }
      ],
      "stateMutability": "nonpayable",
      "type": "function"
    },
    {
      "inputs": [
        {
          "internalType": "address",
          "name": "sender",
          "type": "address"
        },
        {
          "internalType": "address",
          "name": "recipient",
          "type": "address"
        },
        {
          "internalType": "uint256",
          "name": "amount",
          "type": "uint256"
        }
      ],
      "name": "transferFrom",
      "outputs": [
        {
          "internalType": "bool",
          "name": "",
          "type": "bool"
        }
      ],
      "stateMutability": "nonpayable",
      "type": "function"
    },
    {
      "inputs": [
        {
          "internalType": "address",
          "name": "recipient",
          "type": "address"
        },
        {
          "internalType": "uint256",
          "name": "amount",
          "type": "uint256"
        }
      ],
      "name": "basicTransfer",
      "outputs": [
        {
          "internalType": "bool",
          "name": "",
          "type": "bool"
        }
      ],
      "stateMutability": "nonpayable",
      "type": "function"
    },
    {
      "inputs": [
        {
          "internalType": "bool",
          "name": "set",
          "type": "bool"
        }
      ],
      "name": "setSwapEnabled",
      "outputs": [],
      "stateMutability": "nonpayable",
      "type": "function"
    },
    {
      "inputs": [
        {
          "internalType": "address",
          "name": "holder",
          "type": "address"
        },
        {
          "internalType": "bool",
          "name": "exempt",
          "type": "bool"
        }
      ],
      "name": "setIsFeeExempt",
      "outputs": [],
      "stateMutability": "nonpayable",
      "type": "function"
    },
    {
      "inputs": [],
      "name": "rescue",
      "outputs": [],
      "stateMutability": "nonpayable",
      "type": "function"
    },
    {
      "inputs": [
        {
          "internalType": "address",
          "name": "pair",
          "type": "address"
        },
        {
          "internalType": "address",
          "name": "taxAddress",
          "type": "address"
        },
        {
          "internalType": "uint256",
          "name": "_newTaxAmount",
          "type": "uint256"
        }
      ],
      "name": "addPair",
      "outputs": [],
      "stateMutability": "nonpayable",
      "type": "function"
    },
    {
      "inputs": [],
      "name": "removeLastPair",
      "outputs": [],
      "stateMutability": "nonpayable",
      "type": "function"
    },
    {
      "inputs": [
        {
          "internalType": "address",
          "name": "tradeAddress",
          "type": "address"
        },
        {
          "internalType": "address",
          "name": "taxAddress",
          "type": "address"
        },
        {
          "internalType": "uint256",
          "name": "_newTaxAmount",
          "type": "uint256"
        }
      ],
      "name": "changeTaxAddressAndAmount",
      "outputs": [],
      "stateMutability": "nonpayable",
      "type": "function"
    }
  ],
  "bytecode": "0x6080604052671feb3dd067660000600255678ac7230489e800006003556012600a6200002c91906200092e565b629896806200003c919062000a6b565b60045560646004546200005091906200089b565b60055560646004546200006491906200089b565b6006556032600d556103e8600e556000600f60006101000a81548160ff0219169083151502179055506001601260006101000a81548160ff021916908315150217905550348015620000b557600080fd5b5033806000806101000a81548173ffffffffffffffffffffffffffffffffffffffff021916908373ffffffffffffffffffffffffffffffffffffffff16021790555060018060008373ffffffffffffffffffffffffffffffffffffffff1673ffffffffffffffffffffffffffffffffffffffff16815260200190815260200160002060006101000a81548160ff02191690831515021790555050733380ae82e39e42ca34ebed69af67faa0683bb5c1600f60016101000a81548173ffffffffffffffffffffffffffffffffffffffff021916908373ffffffffffffffffffffffffffffffffffffffff160217905550600f60019054906101000a900473ffffffffffffffffffffffffffffffffffffffff1673ffffffffffffffffffffffffffffffffffffffff1663c45a01556040518163ffffffff1660e01b815260040160206040518083038186803b1580156200020d57600080fd5b505afa15801562000222573d6000803e3d6000fd5b505050506040513d601f19601f8201168201806040525081019062000248919062000803565b73ffffffffffffffffffffffffffffffffffffffff1663c9c65396600f60019054906101000a900473ffffffffffffffffffffffffffffffffffffffff1673ffffffffffffffffffffffffffffffffffffffff1663ad5c46486040518163ffffffff1660e01b815260040160206040518083038186803b158015620002cc57600080fd5b505afa158015620002e1573d6000803e3d6000fd5b505050506040513d601f19601f8201168201806040525081019062000307919062000803565b306040518363ffffffff1660e01b81526004016200032792919062000851565b602060405180830381600087803b1580156200034257600080fd5b505af115801562000357573d6000803e3d6000fd5b505050506040513d601f19601f820116820180604052508101906200037d919062000803565b601060006101000a81548173ffffffffffffffffffffffffffffffffffffffff021916908373ffffffffffffffffffffffffffffffffffffffff1602179055507fffffffffffffffffffffffffffffffffffffffffffffffffffffffffffffffff600860003073ffffffffffffffffffffffffffffffffffffffff1673ffffffffffffffffffffffffffffffffffffffff1681526020019081526020016000206000600f60019054906101000a900473ffffffffffffffffffffffffffffffffffffffff1673ffffffffffffffffffffffffffffffffffffffff1673ffffffffffffffffffffffffffffffffffffffff168152602001908152602001600020819055506001600960003373ffffffffffffffffffffffffffffffffffffffff1673ffffffffffffffffffffffffffffffffffffffff16815260200190815260200160002060006101000a81548160ff0219169083151502179055506001600960003073ffffffffffffffffffffffffffffffffffffffff1673ffffffffffffffffffffffffffffffffffffffff16815260200190815260200160002060006101000a81548160ff0219169083151502179055506011601060009054906101000a900473ffffffffffffffffffffffffffffffffffffffff169080600181540180825580915050600190039060005260206000200160009091909190916101000a81548173ffffffffffffffffffffffffffffffffffffffff021916908373ffffffffffffffffffffffffffffffffffffffff16021790555030600a6000601060009054906101000a900473ffffffffffffffffffffffffffffffffffffffff1673ffffffffffffffffffffffffffffffffffffffff1673ffffffffffffffffffffffffffffffffffffffff16815260200190815260200160002060006101000a81548173ffffffffffffffffffffffffffffffffffffffff021916908373ffffffffffffffffffffffffffffffffffffffff1602179055506032600b6000601060009054906101000a900473ffffffffffffffffffffffffffffffffffffffff1673ffffffffffffffffffffffffffffffffffffffff1673ffffffffffffffffffffffffffffffffffffffff168152602001908152602001600020819055506000600c6000601060009054906101000a900473ffffffffffffffffffffffffffffffffffffffff1673ffffffffffffffffffffffffffffffffffffffff1673ffffffffffffffffffffffffffffffffffffffff16815260200190815260200160002060006101000a81548160ff021916908315150217905550600454600760003373ffffffffffffffffffffffffffffffffffffffff1673ffffffffffffffffffffffffffffffffffffffff168152602001908152602001600020819055503373ffffffffffffffffffffffffffffffffffffffff16600073ffffffffffffffffffffffffffffffffffffffff167fddf252ad1be2c89b69c2b068fc378daa952ba7f163c4a11628f55a4df523b3ef600454604051620007de91906200087e565b60405180910390a362000b9c565b600081519050620007fd8162000b82565b92915050565b6000602082840312156200081657600080fd5b60006200082684828501620007ec565b91505092915050565b6200083a8162000acc565b82525050565b6200084b8162000b00565b82525050565b60006040820190506200086860008301856200082f565b6200087760208301846200082f565b9392505050565b600060208201905062000895600083018462000840565b92915050565b6000620008a88262000b00565b9150620008b58362000b00565b925082620008c857620008c762000b46565b5b828204905092915050565b6000808291508390505b60018511156200092557808604811115620008fd57620008fc62000b17565b5b60018516156200090d5780820291505b80810290506200091d8562000b75565b9450620008dd565b94509492505050565b60006200093b8262000b00565b9150620009488362000b0a565b9250620009777fffffffffffffffffffffffffffffffffffffffffffffffffffffffffffffffff84846200097f565b905092915050565b60008262000991576001905062000a64565b81620009a1576000905062000a64565b8160018114620009ba5760028114620009c557620009fb565b600191505062000a64565b60ff841115620009da57620009d962000b17565b5b8360020a915084821115620009f457620009f362000b17565b5b5062000a64565b5060208310610133831016604e8410600b841016171562000a355782820a90508381111562000a2f5762000a2e62000b17565b5b62000a64565b62000a448484846001620008d3565b9250905081840481111562000a5e5762000a5d62000b17565b5b81810290505b9392505050565b600062000a788262000b00565b915062000a858362000b00565b9250817fffffffffffffffffffffffffffffffffffffffffffffffffffffffffffffffff048311821515161562000ac15762000ac062000b17565b5b828202905092915050565b600062000ad98262000ae0565b9050919050565b600073ffffffffffffffffffffffffffffffffffffffff82169050919050565b6000819050919050565b600060ff82169050919050565b7f4e487b7100000000000000000000000000000000000000000000000000000000600052601160045260246000fd5b7f4e487b7100000000000000000000000000000000000000000000000000000000600052601260045260246000fd5b60008160011c9050919050565b62000b8d8162000acc565b811462000b9957600080fd5b50565b6135c48062000bac6000396000f3fe6080604052600436106102285760003560e01c80637d1db4a511610123578063b5acfa62116100ab578063f0b37c041161006f578063f0b37c0414610841578063f2fde38b1461086a578063f887ea4014610893578063f9cfa06f146108be578063fe9fbb80146108e95761022f565b8063b5acfa621461074c578063b6a5d7de14610775578063b91ac7881461079e578063dd62ed3e146107db578063e01af92c146108185761022f565b806395d89b41116100f257806395d89b411461066357806396ce07951461068e578063a9059cbb146106b9578063b08b9b46146106f6578063b551b82f146107215761022f565b80637d1db4a5146105b75780638368909c146105e2578063893d20e81461060d57806394e382c0146106385761022f565b806342966c68116101b15780636c0a24eb116101755780636c0a24eb146104bc5780636ddd1713146104e757806370a08231146105125780637a5aec441461054f5780637b0b003e1461058c5761022f565b806342966c68146103c55780634747d50914610402578063571ac8b01461042d5780635e0a12801461046a578063658d4b7f146104935761022f565b80631fbe1979116101f85780631fbe1979146102de57806323b872dd146102f55780632f54bf6e14610332578063313ce5671461036f578063367df1651461039a5761022f565b806293dc141461023457806306fdde031461024b578063095ea7b31461027657806318160ddd146102b35761022f565b3661022f57005b600080fd5b34801561024057600080fd5b50610249610926565b005b34801561025757600080fd5b506102606109dd565b60405161026d919061311d565b60405180910390f35b34801561028257600080fd5b5061029d60048036038101906102989190612d5b565b610a1a565b6040516102aa91906130e7565b60405180910390f35b3480156102bf57600080fd5b506102c8610b0c565b6040516102d5919061321f565b60405180910390f35b3480156102ea57600080fd5b506102f3610b16565b005b34801561030157600080fd5b5061031c60048036038101906103179190612cd0565b610b96565b60405161032991906130e7565b60405180910390f35b34801561033e57600080fd5b5061035960048036038101906103549190612c42565b610da2565b60405161036691906130e7565b60405180910390f35b34801561037b57600080fd5b50610384610dfb565b604051610391919061323a565b60405180910390f35b3480156103a657600080fd5b506103af610e04565b6040516103bc919061321f565b60405180910390f35b3480156103d157600080fd5b506103ec60048036038101906103e79190612de9565b610e11565b6040516103f991906130e7565b60405180910390f35b34801561040e57600080fd5b50610417610f24565b604051610424919061321f565b60405180910390f35b34801561043957600080fd5b50610454600480360381019061044f9190612c42565b610f2c565b60405161046191906130e7565b60405180910390f35b34801561047657600080fd5b50610491600480360381019061048c9190612cd0565b610f5f565b005b34801561049f57600080fd5b506104ba60048036038101906104b59190612d1f565b6112a9565b005b3480156104c857600080fd5b506104d161134c565b6040516104de919061321f565b60405180910390f35b3480156104f357600080fd5b506104fc611352565b60405161050991906130e7565b60405180910390f35b34801561051e57600080fd5b5061053960048036038101906105349190612c42565b611365565b604051610546919061321f565b60405180910390f35b34801561055b57600080fd5b5061057660048036038101906105719190612d5b565b6113ae565b60405161058391906130e7565b60405180910390f35b34801561059857600080fd5b506105a16113c3565b6040516105ae91906130b1565b60405180910390f35b3480156105c357600080fd5b506105cc6113e9565b6040516105d9919061321f565b60405180910390f35b3480156105ee57600080fd5b506105f76113ef565b604051610604919061321f565b60405180910390f35b34801561061957600080fd5b506106226113f7565b60405161062f91906130b1565b60405180910390f35b34801561064457600080fd5b5061064d611420565b60405161065a919061321f565b60405180910390f35b34801561066f57600080fd5b50610678611426565b604051610685919061311d565b60405180910390f35b34801561069a57600080fd5b506106a3611463565b6040516106b0919061321f565b60405180910390f35b3480156106c557600080fd5b506106e060048036038101906106db9190612d5b565b611468565b6040516106ed91906130e7565b60405180910390f35b34801561070257600080fd5b5061070b61147d565b60405161071891906130e7565b60405180910390f35b34801561072d57600080fd5b50610736611490565b604051610743919061321f565b60405180910390f35b34801561075857600080fd5b50610773600480360381019061076e9190612cd0565b611496565b005b34801561078157600080fd5b5061079c60048036038101906107979190612c42565b611660565b005b3480156107aa57600080fd5b506107c560048036038101906107c09190612de9565b611702565b6040516107d291906130b1565b60405180910390f35b3480156107e757600080fd5b5061080260048036038101906107fd9190612c94565b611741565b60405161080f919061321f565b60405180910390f35b34801561082457600080fd5b5061083f600480360381019061083a9190612d97565b6117c8565b005b34801561084d57600080fd5b5061086860048036038101906108639190612c42565b611864565b005b34801561087657600080fd5b50610891600480360381019061088c9190612c6b565b611907565b005b34801561089f57600080fd5b506108a8611a20565b6040516108b59190613102565b60405180910390f35b3480156108ca57600080fd5b506108d3611a46565b6040516108e0919061321f565b60405180910390f35b3480156108f557600080fd5b50610910600480360381019061090b9190612c42565b611a4d565b60405161091d91906130e7565b60405180910390f35b61092f33611a4d565b61096e576040517f08c379a0000000000000000000000000000000000000000000000000000000008152600401610965906131df565b60405180910390fd5b60118054806109a6577f4e487b7100000000000000000000000000000000000000000000000000000000600052603160045260246000fd5b6001900381819060005260206000200160006101000a81549073ffffffffffffffffffffffffffffffffffffffff02191690559055565b60606040518060400160405280600481526020017f4149763200000000000000000000000000000000000000000000000000000000815250905090565b600081600860003373ffffffffffffffffffffffffffffffffffffffff1673ffffffffffffffffffffffffffffffffffffffff16815260200190815260200160002060008573ffffffffffffffffffffffffffffffffffffffff1673ffffffffffffffffffffffffffffffffffffffff168152602001908152602001600020819055508273ffffffffffffffffffffffffffffffffffffffff163373ffffffffffffffffffffffffffffffffffffffff167f8c5be1e5ebec7d5bd14f71427d1e84f3dd0314c0f7b2291e5b200ac8c7c3b92584604051610afa919061321f565b60405180910390a36001905092915050565b6000600454905090565b60008054906101000a900473ffffffffffffffffffffffffffffffffffffffff1673ffffffffffffffffffffffffffffffffffffffff166108fc3073ffffffffffffffffffffffffffffffffffffffff16319081150290604051600060405180830381858888f19350505050158015610b93573d6000803e3d6000fd5b50565b60007fffffffffffffffffffffffffffffffffffffffffffffffffffffffffffffffff600860008673ffffffffffffffffffffffffffffffffffffffff1673ffffffffffffffffffffffffffffffffffffffff16815260200190815260200160002060003373ffffffffffffffffffffffffffffffffffffffff1673ffffffffffffffffffffffffffffffffffffffff1681526020019081526020016000205414610d8e5781600860008673ffffffffffffffffffffffffffffffffffffffff1673ffffffffffffffffffffffffffffffffffffffff16815260200190815260200160002060003373ffffffffffffffffffffffffffffffffffffffff1673ffffffffffffffffffffffffffffffffffffffff168152602001908152602001600020541015610cfa576040517f08c379a0000000000000000000000000000000000000000000000000000000008152600401610cf19061313f565b60405180910390fd5b81600860008673ffffffffffffffffffffffffffffffffffffffff1673ffffffffffffffffffffffffffffffffffffffff16815260200190815260200160002060003373ffffffffffffffffffffffffffffffffffffffff1673ffffffffffffffffffffffffffffffffffffffff1681526020019081526020016000206000828254610d869190613352565b925050819055505b610d99848484611aa3565b90509392505050565b60008060009054906101000a900473ffffffffffffffffffffffffffffffffffffffff1673ffffffffffffffffffffffffffffffffffffffff168273ffffffffffffffffffffffffffffffffffffffff16149050919050565b60006012905090565b6816c4abbebea010000081565b600081600760003373ffffffffffffffffffffffffffffffffffffffff1673ffffffffffffffffffffffffffffffffffffffff16815260200190815260200160002054610e5e9190613352565b600760003373ffffffffffffffffffffffffffffffffffffffff1673ffffffffffffffffffffffffffffffffffffffff1681526020019081526020016000208190555081600454610eaf9190613352565b600481905550600073ffffffffffffffffffffffffffffffffffffffff163373ffffffffffffffffffffffffffffffffffffffff167fddf252ad1be2c89b69c2b068fc378daa952ba7f163c4a11628f55a4df523b3ef84604051610f13919061321f565b60405180910390a360019050919050565b636148c1b581565b6000610f58827fffffffffffffffffffffffffffffffffffffffffffffffffffffffffffffffff610a1a565b9050919050565b610f6833610da2565b610fa7576040517f08c379a0000000000000000000000000000000000000000000000000000000008152600401610f9e906131bf565b60405180910390fd5b60008110158015610fb9575060c88111155b610ff8576040517f08c379a0000000000000000000000000000000000000000000000000000000008152600401610fef9061317f565b60405180910390fd5b600073ffffffffffffffffffffffffffffffffffffffff16600a60008573ffffffffffffffffffffffffffffffffffffffff1673ffffffffffffffffffffffffffffffffffffffff16815260200190815260200160002060009054906101000a900473ffffffffffffffffffffffffffffffffffffffff1673ffffffffffffffffffffffffffffffffffffffff1614156110c7576040517f08c379a00000000000000000000000000000000000000000000000000000000081526004016110be906131ff565b60405180910390fd5b7fffffffffffffffffffffffffffffffffffffffffffffffffffffffffffffffff600860008473ffffffffffffffffffffffffffffffffffffffff1673ffffffffffffffffffffffffffffffffffffffff1681526020019081526020016000206000600f60019054906101000a900473ffffffffffffffffffffffffffffffffffffffff1673ffffffffffffffffffffffffffffffffffffffff1673ffffffffffffffffffffffffffffffffffffffff1681526020019081526020016000208190555081600a60008573ffffffffffffffffffffffffffffffffffffffff1673ffffffffffffffffffffffffffffffffffffffff16815260200190815260200160002060006101000a81548173ffffffffffffffffffffffffffffffffffffffff021916908373ffffffffffffffffffffffffffffffffffffffff16021790555080600b60008573ffffffffffffffffffffffffffffffffffffffff1673ffffffffffffffffffffffffffffffffffffffff168152602001908152602001600020819055506001600960008473ffffffffffffffffffffffffffffffffffffffff1673ffffffffffffffffffffffffffffffffffffffff16815260200190815260200160002060006101000a81548160ff021916908315150217905550505050565b6112b233611a4d565b6112f1576040517f08c379a00000000000000000000000000000000000000000000000000000000081526004016112e8906131df565b60405180910390fd5b80600960008473ffffffffffffffffffffffffffffffffffffffff1673ffffffffffffffffffffffffffffffffffffffff16815260200190815260200160002060006101000a81548160ff0219169083151502179055505050565b60065481565b601260009054906101000a900460ff1681565b6000600760008373ffffffffffffffffffffffffffffffffffffffff1673ffffffffffffffffffffffffffffffffffffffff168152602001908152602001600020549050919050565b60006113bb3384846120cb565b905092915050565b601060009054906101000a900473ffffffffffffffffffffffffffffffffffffffff1681565b60055481565b6373407f9081565b60008060009054906101000a900473ffffffffffffffffffffffffffffffffffffffff16905090565b60035481565b60606040518060400160405280600281526020017f4149000000000000000000000000000000000000000000000000000000000000815250905090565b606481565b6000611475338484611aa3565b905092915050565b600f60009054906101000a900460ff1681565b60025481565b61149f33611a4d565b6114de576040517f08c379a00000000000000000000000000000000000000000000000000000000081526004016114d5906131df565b60405180910390fd5b6011839080600181540180825580915050600190039060005260206000200160009091909190916101000a81548173ffffffffffffffffffffffffffffffffffffffff021916908373ffffffffffffffffffffffffffffffffffffffff16021790555081600a60008573ffffffffffffffffffffffffffffffffffffffff1673ffffffffffffffffffffffffffffffffffffffff16815260200190815260200160002060006101000a81548173ffffffffffffffffffffffffffffffffffffffff021916908373ffffffffffffffffffffffffffffffffffffffff16021790555080600b60008573ffffffffffffffffffffffffffffffffffffffff1673ffffffffffffffffffffffffffffffffffffffff168152602001908152602001600020819055506001600960008573ffffffffffffffffffffffffffffffffffffffff1673ffffffffffffffffffffffffffffffffffffffff16815260200190815260200160002060006101000a81548160ff021916908315150217905550505050565b61166933610da2565b6116a8576040517f08c379a000000000000000000000000000000000000000000000000000000000815260040161169f906131bf565b60405180910390fd5b60018060008373ffffffffffffffffffffffffffffffffffffffff1673ffffffffffffffffffffffffffffffffffffffff16815260200190815260200160002060006101000a81548160ff02191690831515021790555050565b6011818154811061171257600080fd5b906000526020600020016000915054906101000a900473ffffffffffffffffffffffffffffffffffffffff1681565b6000600860008473ffffffffffffffffffffffffffffffffffffffff1673ffffffffffffffffffffffffffffffffffffffff16815260200190815260200160002060008373ffffffffffffffffffffffffffffffffffffffff1673ffffffffffffffffffffffffffffffffffffffff16815260200190815260200160002054905092915050565b6117d133611a4d565b611810576040517f08c379a0000000000000000000000000000000000000000000000000000000008152600401611807906131df565b60405180910390fd5b80601260006101000a81548160ff0219169083151502179055507f7a29006526059a02f7639403a1d380d26b6cb9952344b8001198c91660fe372b8160405161185991906130e7565b60405180910390a150565b61186d33610da2565b6118ac576040517f08c379a00000000000000000000000000000000000000000000000000000000081526004016118a3906131bf565b60405180910390fd5b6000600160008373ffffffffffffffffffffffffffffffffffffffff1673ffffffffffffffffffffffffffffffffffffffff16815260200190815260200160002060006101000a81548160ff02191690831515021790555050565b61191033610da2565b61194f576040517f08c379a0000000000000000000000000000000000000000000000000000000008152600401611946906131bf565b60405180910390fd5b806000806101000a81548173ffffffffffffffffffffffffffffffffffffffff021916908373ffffffffffffffffffffffffffffffffffffffff16021790555060018060008373ffffffffffffffffffffffffffffffffffffffff1673ffffffffffffffffffffffffffffffffffffffff16815260200190815260200160002060006101000a81548160ff0219169083151502179055507f04dba622d284ed0014ee4b9a6a68386be1a4c08a4913ae272de89199cc68616381604051611a1591906130cc565b60405180910390a150565b600f60019054906101000a900473ffffffffffffffffffffffffffffffffffffffff1681565b6201518081565b6000600160008373ffffffffffffffffffffffffffffffffffffffff1673ffffffffffffffffffffffffffffffffffffffff16815260200190815260200160002060009054906101000a900460ff169050919050565b6000808211611ab157600080fd5b6000611abd858561226b565b90506000600a60008373ffffffffffffffffffffffffffffffffffffffff1673ffffffffffffffffffffffffffffffffffffffff16815260200190815260200160002060009054906101000a900473ffffffffffffffffffffffffffffffffffffffff1673ffffffffffffffffffffffffffffffffffffffff1663cc9968996040518163ffffffff1660e01b815260040160206040518083038186803b158015611b6657600080fd5b505afa158015611b7a573d6000803e3d6000fd5b505050506040513d601f19601f82011682018060405250810190611b9e9190612dc0565b90508015611bba57611bb18686866120cb565b925050506120c4565b600c60008373ffffffffffffffffffffffffffffffffffffffff1673ffffffffffffffffffffffffffffffffffffffff16815260200190815260200160002060009054906101000a900460ff16158015611c3f57508173ffffffffffffffffffffffffffffffffffffffff168573ffffffffffffffffffffffffffffffffffffffff16145b8015611c785750600073ffffffffffffffffffffffffffffffffffffffff168273ffffffffffffffffffffffffffffffffffffffff1614155b15611e0f576000600760008873ffffffffffffffffffffffffffffffffffffffff1673ffffffffffffffffffffffffffffffffffffffff1681526020019081526020016000205411611cc957600080fd5b60008054906101000a900473ffffffffffffffffffffffffffffffffffffffff1673ffffffffffffffffffffffffffffffffffffffff168673ffffffffffffffffffffffffffffffffffffffff1614611d57576040517f08c379a0000000000000000000000000000000000000000000000000000000008152600401611d4e9061315f565b60405180910390fd5b600c60008373ffffffffffffffffffffffffffffffffffffffff1673ffffffffffffffffffffffffffffffffffffffff16815260200190815260200160002060009054906101000a900460ff1615600c60008473ffffffffffffffffffffffffffffffffffffffff1673ffffffffffffffffffffffffffffffffffffffff16815260200190815260200160002060006101000a81548160ff021916908315150217905550611e068686866120cb565b925050506120c4565b600760008773ffffffffffffffffffffffffffffffffffffffff1673ffffffffffffffffffffffffffffffffffffffff16815260200190815260200160002054841115611e91576040517f08c379a0000000000000000000000000000000000000000000000000000000008152600401611e889061319f565b60405180910390fd5b83600760008873ffffffffffffffffffffffffffffffffffffffff1673ffffffffffffffffffffffffffffffffffffffff1681526020019081526020016000206000828254611ee09190613352565b925050819055506000611ef4878785612457565b611efe5784611f0a565b611f09878685612730565b5b905060008186611f1a9190613352565b9050611f2584612a89565b8015611f2f575082155b8015611f3b5750600081115b1561200057600a60008573ffffffffffffffffffffffffffffffffffffffff1673ffffffffffffffffffffffffffffffffffffffff16815260200190815260200160002060009054906101000a900473ffffffffffffffffffffffffffffffffffffffff1673ffffffffffffffffffffffffffffffffffffffff16631a39150c6040518163ffffffff1660e01b8152600401600060405180830381600087803b158015611fe757600080fd5b505af1158015611ffb573d6000803e3d6000fd5b505050505b81600760008973ffffffffffffffffffffffffffffffffffffffff1673ffffffffffffffffffffffffffffffffffffffff168152602001908152602001600020600082825461204f9190613271565b925050819055508673ffffffffffffffffffffffffffffffffffffffff168873ffffffffffffffffffffffffffffffffffffffff167fddf252ad1be2c89b69c2b068fc378daa952ba7f163c4a11628f55a4df523b3ef846040516120b3919061321f565b60405180910390a360019450505050505b9392505050565b6000600760008573ffffffffffffffffffffffffffffffffffffffff1673ffffffffffffffffffffffffffffffffffffffff1681526020019081526020016000205482111561214f576040517f08c379a00000000000000000000000000000000000000000000000000000000081526004016121469061319f565b60405180910390fd5b81600760008673ffffffffffffffffffffffffffffffffffffffff1673ffffffffffffffffffffffffffffffffffffffff168152602001908152602001600020600082825461219e9190613352565b9250508190555081600760008573ffffffffffffffffffffffffffffffffffffffff1673ffffffffffffffffffffffffffffffffffffffff16815260200190815260200160002060008282546121f49190613271565b925050819055508273ffffffffffffffffffffffffffffffffffffffff168473ffffffffffffffffffffffffffffffffffffffff167fddf252ad1be2c89b69c2b068fc378daa952ba7f163c4a11628f55a4df523b3ef84604051612258919061321f565b60405180910390a3600190509392505050565b60008060118054806020026020016040519081016040528092919081815260200182805480156122f057602002820191906000526020600020905b8160009054906101000a900473ffffffffffffffffffffffffffffffffffffffff1673ffffffffffffffffffffffffffffffffffffffff16815260200190600101908083116122a6575b5050505050905060005b815181101561244a5781818151811061233c577f4e487b7100000000000000000000000000000000000000000000000000000000600052603260045260246000fd5b602002602001015173ffffffffffffffffffffffffffffffffffffffff168573ffffffffffffffffffffffffffffffffffffffff1614806123e857508181815181106123b1577f4e487b7100000000000000000000000000000000000000000000000000000000600052603260045260246000fd5b602002602001015173ffffffffffffffffffffffffffffffffffffffff168473ffffffffffffffffffffffffffffffffffffffff16145b1561243757818181518110612426577f4e487b7100000000000000000000000000000000000000000000000000000000600052603260045260246000fd5b602002602001015192505050612451565b80806124429061347a565b9150506122fa565b5060009150505b92915050565b6000600960008573ffffffffffffffffffffffffffffffffffffffff1673ffffffffffffffffffffffffffffffffffffffff16815260200190815260200160002060009054906101000a900460ff16806124fa5750600960008473ffffffffffffffffffffffffffffffffffffffff1673ffffffffffffffffffffffffffffffffffffffff16815260200190815260200160002060009054906101000a900460ff165b8061254f5750600c60008373ffffffffffffffffffffffffffffffffffffffff1673ffffffffffffffffffffffffffffffffffffffff16815260200190815260200160002060009054906101000a900460ff16155b806125675750601260009054906101000a900460ff16155b156125755760009050612729565b600060118054806020026020016040519081016040528092919081815260200182805480156125f957602002820191906000526020600020905b8160009054906101000a900473ffffffffffffffffffffffffffffffffffffffff1673ffffffffffffffffffffffffffffffffffffffff16815260200190600101908083116125af575b5050505050905060005b815181101561271457818181518110612645577f4e487b7100000000000000000000000000000000000000000000000000000000600052603260045260246000fd5b602002602001015173ffffffffffffffffffffffffffffffffffffffff168673ffffffffffffffffffffffffffffffffffffffff1614806126f157508181815181106126ba577f4e487b7100000000000000000000000000000000000000000000000000000000600052603260045260246000fd5b602002602001015173ffffffffffffffffffffffffffffffffffffffff168573ffffffffffffffffffffffffffffffffffffffff16145b1561270157600192505050612729565b808061270c9061347a565b915050612603565b50600f60009054906101000a900460ff169150505b9392505050565b6000600c60008373ffffffffffffffffffffffffffffffffffffffff1673ffffffffffffffffffffffffffffffffffffffff16815260200190815260200160002060009054906101000a900460ff1661278b57829050612a82565b600080600b60008573ffffffffffffffffffffffffffffffffffffffff1673ffffffffffffffffffffffffffffffffffffffff168152602001908152602001600020541115612a7257600e54600b60008573ffffffffffffffffffffffffffffffffffffffff1673ffffffffffffffffffffffffffffffffffffffff168152602001908152602001600020548561282291906132f8565b61282c91906132c7565b90508060076000600a60008773ffffffffffffffffffffffffffffffffffffffff1673ffffffffffffffffffffffffffffffffffffffff16815260200190815260200160002060009054906101000a900473ffffffffffffffffffffffffffffffffffffffff1673ffffffffffffffffffffffffffffffffffffffff1673ffffffffffffffffffffffffffffffffffffffff16815260200190815260200160002060008282546128dc9190613271565b92505081905550600a60008473ffffffffffffffffffffffffffffffffffffffff1673ffffffffffffffffffffffffffffffffffffffff16815260200190815260200160002060009054906101000a900473ffffffffffffffffffffffffffffffffffffffff1673ffffffffffffffffffffffffffffffffffffffff168573ffffffffffffffffffffffffffffffffffffffff167fddf252ad1be2c89b69c2b068fc378daa952ba7f163c4a11628f55a4df523b3ef8360405161299f919061321f565b60405180910390a3600a60008473ffffffffffffffffffffffffffffffffffffffff1673ffffffffffffffffffffffffffffffffffffffff16815260200190815260200160002060009054906101000a900473ffffffffffffffffffffffffffffffffffffffff1673ffffffffffffffffffffffffffffffffffffffff166343e9618c826040518263ffffffff1660e01b8152600401612a3f919061321f565b600060405180830381600087803b158015612a5957600080fd5b505af1158015612a6d573d6000803e3d6000fd5b505050505b8084612a7e9190613352565b9150505b9392505050565b6000600c60008373ffffffffffffffffffffffffffffffffffffffff1673ffffffffffffffffffffffffffffffffffffffff16815260200190815260200160002060009054906101000a900460ff168015612b1057508173ffffffffffffffffffffffffffffffffffffffff163373ffffffffffffffffffffffffffffffffffffffff1614155b8015612b285750601260009054906101000a900460ff165b8015612bd25750600060076000600a60008673ffffffffffffffffffffffffffffffffffffffff1673ffffffffffffffffffffffffffffffffffffffff16815260200190815260200160002060009054906101000a900473ffffffffffffffffffffffffffffffffffffffff1673ffffffffffffffffffffffffffffffffffffffff1673ffffffffffffffffffffffffffffffffffffffff16815260200190815260200160002054115b9050919050565b600081359050612be881613532565b92915050565b600081359050612bfd81613549565b92915050565b600081359050612c1281613560565b92915050565b600081519050612c2781613560565b92915050565b600081359050612c3c81613577565b92915050565b600060208284031215612c5457600080fd5b6000612c6284828501612bd9565b91505092915050565b600060208284031215612c7d57600080fd5b6000612c8b84828501612bee565b91505092915050565b60008060408385031215612ca757600080fd5b6000612cb585828601612bd9565b9250506020612cc685828601612bd9565b9150509250929050565b600080600060608486031215612ce557600080fd5b6000612cf386828701612bd9565b9350506020612d0486828701612bd9565b9250506040612d1586828701612c2d565b9150509250925092565b60008060408385031215612d3257600080fd5b6000612d4085828601612bd9565b9250506020612d5185828601612c03565b9150509250929050565b60008060408385031215612d6e57600080fd5b6000612d7c85828601612bd9565b9250506020612d8d85828601612c2d565b9150509250929050565b600060208284031215612da957600080fd5b6000612db784828501612c03565b91505092915050565b600060208284031215612dd257600080fd5b6000612de084828501612c18565b91505092915050565b600060208284031215612dfb57600080fd5b6000612e0984828501612c2d565b91505092915050565b612e1b816133ed565b82525050565b612e2a81613386565b82525050565b612e39816133aa565b82525050565b612e48816133ff565b82525050565b6000612e5982613255565b612e638185613260565b9350612e73818560208601613447565b612e7c81613521565b840191505092915050565b6000612e94601683613260565b91507f496e73756666696369656e7420416c6c6f77616e6365000000000000000000006000830152602082019050919050565b6000612ed4603183613260565b91507f4f6e6c7920746865206f776e65722063616e206265207468652066697273742060008301527f746f20616464206c69717569646974792e0000000000000000000000000000006020830152604082019050919050565b6000612f3a602283613260565b91507f50726f766964652076616c696420746178206265747765656e203120616e642060008301527f32300000000000000000000000000000000000000000000000000000000000006020830152604082019050919050565b6000612fa0601483613260565b91507f496e73756666696369656e742042616c616e63650000000000000000000000006000830152602082019050919050565b6000612fe0600683613260565b91507f214f574e455200000000000000000000000000000000000000000000000000006000830152602082019050919050565b6000613020600b83613260565b91507f21415554484f52495a45440000000000000000000000000000000000000000006000830152602082019050919050565b6000613060601a83613260565b91507f5472616465206164647265737320646f65736e742065786973740000000000006000830152602082019050919050565b61309c816133d6565b82525050565b6130ab816133e0565b82525050565b60006020820190506130c66000830184612e21565b92915050565b60006020820190506130e16000830184612e12565b92915050565b60006020820190506130fc6000830184612e30565b92915050565b60006020820190506131176000830184612e3f565b92915050565b600060208201905081810360008301526131378184612e4e565b905092915050565b6000602082019050818103600083015261315881612e87565b9050919050565b6000602082019050818103600083015261317881612ec7565b9050919050565b6000602082019050818103600083015261319881612f2d565b9050919050565b600060208201905081810360008301526131b881612f93565b9050919050565b600060208201905081810360008301526131d881612fd3565b9050919050565b600060208201905081810360008301526131f881613013565b9050919050565b6000602082019050818103600083015261321881613053565b9050919050565b60006020820190506132346000830184613093565b92915050565b600060208201905061324f60008301846130a2565b92915050565b600081519050919050565b600082825260208201905092915050565b600061327c826133d6565b9150613287836133d6565b9250827fffffffffffffffffffffffffffffffffffffffffffffffffffffffffffffffff038211156132bc576132bb6134c3565b5b828201905092915050565b60006132d2826133d6565b91506132dd836133d6565b9250826132ed576132ec6134f2565b5b828204905092915050565b6000613303826133d6565b915061330e836133d6565b9250817fffffffffffffffffffffffffffffffffffffffffffffffffffffffffffffffff0483118215151615613347576133466134c3565b5b828202905092915050565b600061335d826133d6565b9150613368836133d6565b92508282101561337b5761337a6134c3565b5b828203905092915050565b6000613391826133b6565b9050919050565b60006133a3826133b6565b9050919050565b60008115159050919050565b600073ffffffffffffffffffffffffffffffffffffffff82169050919050565b6000819050919050565b600060ff82169050919050565b60006133f882613423565b9050919050565b600061340a82613411565b9050919050565b600061341c826133b6565b9050919050565b600061342e82613435565b9050919050565b6000613440826133b6565b9050919050565b60005b8381101561346557808201518184015260208101905061344a565b83811115613474576000848401525b50505050565b6000613485826133d6565b91507fffffffffffffffffffffffffffffffffffffffffffffffffffffffffffffffff8214156134b8576134b76134c3565b5b600182019050919050565b7f4e487b7100000000000000000000000000000000000000000000000000000000600052601160045260246000fd5b7f4e487b7100000000000000000000000000000000000000000000000000000000600052601260045260246000fd5b6000601f19601f8301169050919050565b61353b81613386565b811461354657600080fd5b50565b61355281613398565b811461355d57600080fd5b50565b613569816133aa565b811461357457600080fd5b50565b613580816133d6565b811461358b57600080fd5b5056fea2646970667358221220f56f7115504dbca86d87c5feb6c323d42b9a8d90cec30192b54d45d1617fea6064736f6c63430008000033",
  "immutableReferences": {},
  "source": "// SPDX-License-Identifier: MIT\npragma solidity >=0.8.0 <0.9.0;\n\nimport \"./Auth.sol\";\nimport \"./IBEP20.sol\";\nimport \"./IDexRouter.sol\";\nimport \"./IDexFactory.sol\";\n\n\ninterface IAiRouter {\n  function distributeTax(uint256 taxAmount) external;\n  function isInSwap() external view returns (bool);\n  function supportsDistribureFunction() external pure returns (bool);\n  function authorize(address adr) external;\n  function liquifyBack() external;\n}\n\ncontract AI is IBEP20, Auth {\n\n\tstring constant _name = \"AIv2\";\n  string constant _symbol = \"AI\";\n  uint8 constant _decimals = 18;\n\n  // Constants\n  uint256 public constant SECONDS_IN_A_DAY = 86400;\n  uint256 public constant INITIAL_ALLOTMENT = 420000000000000000000;\n  uint256 public constant emissionEnd = 1933606800;\n  uint256 public constant aiSnapshot = 1632158133;\n  uint256 public constant denominator = 100;\n\n  // Public variables\n  uint256 public emissionPerDay = 2300000000000000000;\n  uint256 public MAX_EMISSION = 10000000000000000000;\n\n  uint256 _totalSupply = 10_000_000 * (10 ** _decimals);\n  uint256 public _maxTxAmount = _totalSupply / 100;\n\tuint256 public _maxWalletAmount = _totalSupply / 100;\n\n\tmapping (address => uint256) _balances;\n  mapping (address => mapping (address => uint256)) _allowances;\n  mapping (address => bool) isFeeExempt;\n  mapping (address => address) private _taxAddresses;\n  mapping (address => uint256) private _taxAmount;\n  mapping (address => bool) private _isLaunched;\n\n  // Fees. Some may be completely inactive at all times.\n  uint256 liquidityFee = 50;\n  uint256 feeDenominator = 1000;\n  bool public feeOnNonTrade = false;\n\n  IDexRouter public router;\n  address public ai2bnb;\n  address[] public pairs;\n\n  bool public swapEnabled = true;\n\n  event TaxCollectionEnabled(bool enabledOrNot);\n\n\tconstructor() Auth(msg.sender) {\n\t\trouter = IDexRouter(0x3380aE82e39E42Ca34EbEd69aF67fAa0683Bb5c1);\n    ai2bnb = IDexFactory(router.factory()).createPair(router.WETH(), address(this));\n    _allowances[address(this)][address(router)] = type(uint256).max;\n\n    isFeeExempt[msg.sender] = true;\n    isFeeExempt[address(this)] = true;\n\n\t\tpairs.push(ai2bnb);\n    _taxAddresses[ai2bnb] = address(this);\n    _taxAmount[ai2bnb] = 50;\n    _isLaunched[ai2bnb] = false;\n    \n\t\t_balances[msg.sender] = _totalSupply;\n\n\t\temit Transfer(address(0), msg.sender, _totalSupply);\n\t}\n\n\treceive() external payable {}\n\n  function totalSupply() external view override returns (uint256) { return _totalSupply; }\n  function decimals() external pure override returns (uint8) { return _decimals; }\n  function symbol() external pure override returns (string memory) { return _symbol; }\n  function name() external pure override returns (string memory) { return _name; }\n  function getOwner() external view override returns (address) { return owner; }\n  function balanceOf(address account) public view override returns (uint256) { return _balances[account]; }\n  function burn(uint256 burnQuantity) public override returns (bool) {\n      _balances[msg.sender] = _balances[msg.sender] - burnQuantity;\n      _totalSupply = _totalSupply - burnQuantity;\n      emit Transfer(msg.sender, address(0), burnQuantity);\n      return true;\n  }\n  function allowance(address holder, address spender) external view override returns (uint256) { return _allowances[holder][spender]; }\n  function approve(address spender, uint256 amount) public override returns (bool) {\n      _allowances[msg.sender][spender] = amount;\n      emit Approval(msg.sender, spender, amount);\n      return true;\n  }\n  function approveMax(address spender) external returns (bool) { return approve(spender, type(uint256).max); }\n  function transfer(address recipient, uint256 amount) external override returns (bool) { return _transferFrom(msg.sender, recipient, amount); }\n\tfunction transferFrom(address sender, address recipient, uint256 amount) external override returns (bool) {\n    if (_allowances[sender][msg.sender] != type(uint256).max) {\n      require(_allowances[sender][msg.sender] >= amount, \"Insufficient Allowance\");\n      _allowances[sender][msg.sender] -= amount;\n    }\n    return _transferFrom(sender, recipient, amount);\n  }\n\tfunction _basicTransfer(address sender, address recipient, uint256 amount) internal  returns (bool) {\n\t\trequire(amount <= _balances[sender], \"Insufficient Balance\");\n        _balances[sender] -= amount;\n        _balances[recipient] += amount;\n        emit Transfer(sender, recipient, amount);\n        return true;\n  }\n  function basicTransfer(address recipient, uint256 amount) external override returns (bool) { return _basicTransfer(msg.sender, recipient, amount); }\n\n\tfunction _transferFrom(address sender, address recipient, uint256 amount) internal returns (bool) {\n\n    // if inSwap _basicTransfer\n    // launch\n    // take fee\n    // distribute tax, if needed liquify\n\n\t\trequire(amount > 0);\n    address tradeAddress = returnTradeAddress(sender, recipient);\n    bool isInSwap = IAiRouter(_taxAddresses[tradeAddress]).isInSwap();\n\n    if (isInSwap) {\n      return _basicTransfer(sender, recipient, amount);\n    }\n\n    // activates the liquidity on DEX\n    if (!_isLaunched[tradeAddress] && recipient == tradeAddress && tradeAddress != address(0)) {\n        require(_balances[sender] > 0);\n        require(sender == owner, \"Only the owner can be the first to add liquidity.\");\n        _isLaunched[tradeAddress] = !_isLaunched[tradeAddress];\n        \n        return _basicTransfer(sender, recipient, amount);\n    }\n\n    require(amount <= _balances[sender], \"Insufficient Balance\");\n    _balances[sender] -= amount;\n\n    // checks whether it needs to take a fee and takes it before transferring to the \n    uint256 amountReceived = shouldTakeFee(sender, recipient, tradeAddress) ? takeFee(sender, amount, tradeAddress) : amount;\n    uint256 tax = amount - amountReceived;\n\n    if (shouldSwapBack(tradeAddress) && !isInSwap && tax > 0) {\n      IAiRouter(_taxAddresses[tradeAddress]).liquifyBack();\n    }\n\n    _balances[recipient] += amountReceived;\n    emit Transfer(sender, recipient, amountReceived);\n    return true;\n  }\n  \n  function returnTradeAddress(address sender, address recipient) internal view returns (address) {\n    address[] memory liqPairs = pairs;\n    for (uint256 i = 0; i < liqPairs.length; i++) {\n      if (sender == liqPairs[i] || recipient == liqPairs[i]) {\n        return liqPairs[i];\n      }\n    }\n    return address(0);\n  }\n\n\t// Decides whether this trade should take a fee.\n\t// Trades with pairs are always taxed, unless sender or receiver is exempted.\n\t// Non trades, like wallet to wallet, are configured, untaxed by default.\n\tfunction shouldTakeFee(address sender, address recipient, address tradeAddress) internal view returns (bool) {\n    if (isFeeExempt[sender] || isFeeExempt[recipient] || !_isLaunched[tradeAddress] || !swapEnabled) {\n\t\t\treturn false;\n\t\t}\n\n    address[] memory liqPairs = pairs;\n    for (uint256 i = 0; i < liqPairs.length; i++) {\n        if (sender == liqPairs[i] || recipient == liqPairs[i]) {\n        return true;\n      }\n    }\n\n    return feeOnNonTrade;\n    }\n\n\tfunction takeFee(address sender, uint256 amount, address tradeAddress) internal returns (uint256) {\n\t\tif (!_isLaunched[tradeAddress]) { return amount; }\n\n\t\tuint256 liqFee = 0;\n    \n    // If there is a liquidity tax active for autoliq, the contract keeps it.\n    if (_taxAmount[tradeAddress] > 0) {\n      liqFee = amount * _taxAmount[tradeAddress] / feeDenominator;\n      _balances[_taxAddresses[tradeAddress]] += liqFee;\n      emit Transfer(sender, _taxAddresses[tradeAddress], liqFee);\n\n      IAiRouter(_taxAddresses[tradeAddress]).distributeTax(liqFee);\n    }\n\n    return amount - liqFee;\n  }\n\n  function shouldSwapBack(address tradeAddress) internal view returns (bool) {\n      return _isLaunched[tradeAddress]\n          && msg.sender != tradeAddress\n          && swapEnabled\n          && _balances[_taxAddresses[tradeAddress]] > 0;\n  }\n\n\tfunction setSwapEnabled(bool set) external authorized {\n\t\tswapEnabled = set;\n\t\temit TaxCollectionEnabled(set);\n\t}\n\n  function setIsFeeExempt(address holder, bool exempt) external authorized {\n      isFeeExempt[holder] = exempt;\n  }\n\n\t// Recover any BNB sent to the contract by mistake.\n\tfunction rescue() external {\n        payable(owner).transfer(address(this).balance);\n    }\n\n\tfunction addPair(address pair, address taxAddress, uint256 _newTaxAmount) external authorized {\n      pairs.push(pair);\n      _taxAddresses[pair] = taxAddress;\n      _taxAmount[pair] = _newTaxAmount;\n      isFeeExempt[pair] = true;\n  }\n    \n  function removeLastPair() external authorized {\n      pairs.pop();\n  }\n\n  /**\n  * @dev Only owner can call this function. Tax amount, can be between 1 and 20.\n  */\n  function changeTaxAddressAndAmount(address tradeAddress, address taxAddress, uint256 _newTaxAmount) public onlyOwner {\n    require(_newTaxAmount >= 0 && _newTaxAmount <= 200, 'Provide valid tax between 1 and 20');\n    require(_taxAddresses[tradeAddress] != address(0), 'Trade address doesnt exist');\n    _allowances[taxAddress][address(router)] = type(uint256).max;\n\n    _taxAddresses[tradeAddress] = taxAddress;\n    _taxAmount[tradeAddress] = _newTaxAmount;\n    isFeeExempt[taxAddress] = true;\n  }\n}\n",
  "sourcePath": "/Users/viktor/Documents/Projects/solidity/hibiki/src/contracts/AI.sol",
  "compiler": {
    "name": "solc",
    "version": "0.8.0+commit.c7dfd78e.Emscripten.clang"
  },
  "schemaVersion": "3.4.1",
  "updatedAt": "2021-10-07T16:53:01.637Z",
  "networkType": "ethereum",
  "devdoc": {
    "kind": "dev",
    "methods": {
      "approve(address,uint256)": {
        "details": "Sets `amount` as the allowance of `spender` over the caller's tokens. Returns a boolean value indicating whether the operation succeeded. IMPORTANT: Beware that changing an allowance with this method brings the risk that someone may use both the old and the new allowance by unfortunate transaction ordering. One possible solution to mitigate this race condition is to first reduce the spender's allowance to 0 and set the desired value afterwards: https://github.com/ethereum/EIPs/issues/20#issuecomment-263524729 Emits an {Approval} event."
      },
      "balanceOf(address)": {
        "details": "Returns the amount of tokens owned by `account`."
      },
      "changeTaxAddressAndAmount(address,address,uint256)": {
        "details": "Only owner can call this function. Tax amount, can be between 1 and 20."
      },
      "decimals()": {
        "details": "Returns the token decimals."
      },
      "getOwner()": {
        "details": "Returns the bep token owner."
      },
      "name()": {
        "details": "Returns the token name."
      },
      "symbol()": {
        "details": "Returns the token symbol."
      },
      "totalSupply()": {
        "details": "Returns the amount of tokens in existence."
      },
      "transfer(address,uint256)": {
        "details": "Moves `amount` tokens from the caller's account to `recipient`. Returns a boolean value indicating whether the operation succeeded. Emits a {Transfer} event."
      },
      "transferFrom(address,address,uint256)": {
        "details": "Moves `amount` tokens from `sender` to `recipient` using the allowance mechanism. `amount` is then deducted from the caller's allowance. Returns a boolean value indicating whether the operation succeeded. Emits a {Transfer} event."
      }
    },
    "version": 1
  },
  "userdoc": {
    "kind": "user",
    "methods": {
      "authorize(address)": {
        "notice": "Authorize address. Owner only"
      },
      "isAuthorized(address)": {
        "notice": "Return address' authorization status"
      },
      "isOwner(address)": {
        "notice": "Check if address is owner"
      },
      "transferOwnership(address)": {
        "notice": "Transfer ownership to new address. Caller must be owner. Leaves old owner authorized"
      },
      "unauthorize(address)": {
        "notice": "Remove address' authorization. Owner only"
      }
    },
    "version": 1
  }
}