{
  "contractName": "AI",
  "abi": [
    {
      "inputs": [],
      "stateMutability": "nonpayable",
      "type": "constructor"
    },
    {
      "anonymous": false,
      "inputs": [
        {
          "indexed": true,
          "internalType": "address",
          "name": "owner",
          "type": "address"
        },
        {
          "indexed": true,
          "internalType": "address",
          "name": "spender",
          "type": "address"
        },
        {
          "indexed": false,
          "internalType": "uint256",
          "name": "value",
          "type": "uint256"
        }
      ],
      "name": "Approval",
      "type": "event"
    },
    {
      "anonymous": false,
      "inputs": [
        {
          "indexed": false,
          "internalType": "uint256",
          "name": "amountBNB",
          "type": "uint256"
        },
        {
          "indexed": false,
          "internalType": "uint256",
          "name": "autoBuybackAmount",
          "type": "uint256"
        }
      ],
      "name": "AutoLiquify",
      "type": "event"
    },
    {
      "anonymous": false,
      "inputs": [
        {
          "indexed": false,
          "internalType": "bool",
          "name": "enabledOrNot",
          "type": "bool"
        }
      ],
      "name": "AutoLiquifyEnabled",
      "type": "event"
    },
    {
      "anonymous": false,
      "inputs": [
        {
          "indexed": false,
          "internalType": "bool",
          "name": "active",
          "type": "bool"
        }
      ],
      "name": "NFTStakingRewards",
      "type": "event"
    },
    {
      "anonymous": false,
      "inputs": [
        {
          "indexed": false,
          "internalType": "address",
          "name": "owner",
          "type": "address"
        }
      ],
      "name": "OwnershipTransferred",
      "type": "event"
    },
    {
      "anonymous": false,
      "inputs": [
        {
          "indexed": false,
          "internalType": "bool",
          "name": "activate",
          "type": "bool"
        }
      ],
      "name": "StakingRewards",
      "type": "event"
    },
    {
      "anonymous": false,
      "inputs": [
        {
          "indexed": true,
          "internalType": "address",
          "name": "from",
          "type": "address"
        },
        {
          "indexed": true,
          "internalType": "address",
          "name": "to",
          "type": "address"
        },
        {
          "indexed": false,
          "internalType": "uint256",
          "name": "value",
          "type": "uint256"
        }
      ],
      "name": "Transfer",
      "type": "event"
    },
    {
      "inputs": [],
      "name": "_maxTxAmount",
      "outputs": [
        {
          "internalType": "uint256",
          "name": "",
          "type": "uint256"
        }
      ],
      "stateMutability": "view",
      "type": "function",
      "constant": true
    },
    {
      "inputs": [],
      "name": "_maxWalletAmount",
      "outputs": [
        {
          "internalType": "uint256",
          "name": "",
          "type": "uint256"
        }
      ],
      "stateMutability": "view",
      "type": "function",
      "constant": true
    },
    {
      "inputs": [
        {
          "internalType": "address",
          "name": "adr",
          "type": "address"
        }
      ],
      "name": "authorize",
      "outputs": [],
      "stateMutability": "nonpayable",
      "type": "function"
    },
    {
      "inputs": [],
      "name": "autoLiquidityReceiver",
      "outputs": [
        {
          "internalType": "address",
          "name": "",
          "type": "address"
        }
      ],
      "stateMutability": "view",
      "type": "function",
      "constant": true
    },
    {
      "inputs": [],
      "name": "feeOnNonTrade",
      "outputs": [
        {
          "internalType": "bool",
          "name": "",
          "type": "bool"
        }
      ],
      "stateMutability": "view",
      "type": "function",
      "constant": true
    },
    {
      "inputs": [
        {
          "internalType": "address",
          "name": "adr",
          "type": "address"
        }
      ],
      "name": "isAuthorized",
      "outputs": [
        {
          "internalType": "bool",
          "name": "",
          "type": "bool"
        }
      ],
      "stateMutability": "view",
      "type": "function",
      "constant": true
    },
    {
      "inputs": [
        {
          "internalType": "address",
          "name": "account",
          "type": "address"
        }
      ],
      "name": "isOwner",
      "outputs": [
        {
          "internalType": "bool",
          "name": "",
          "type": "bool"
        }
      ],
      "stateMutability": "view",
      "type": "function",
      "constant": true
    },
    {
      "inputs": [],
      "name": "launchedAt",
      "outputs": [
        {
          "internalType": "uint256",
          "name": "",
          "type": "uint256"
        }
      ],
      "stateMutability": "view",
      "type": "function",
      "constant": true
    },
    {
      "inputs": [
        {
          "internalType": "uint256",
          "name": "",
          "type": "uint256"
        }
      ],
      "name": "pairs",
      "outputs": [
        {
          "internalType": "address",
          "name": "",
          "type": "address"
        }
      ],
      "stateMutability": "view",
      "type": "function",
      "constant": true
    },
    {
      "inputs": [],
      "name": "router",
      "outputs": [
        {
          "internalType": "contract IDexRouter",
          "name": "",
          "type": "address"
        }
      ],
      "stateMutability": "view",
      "type": "function",
      "constant": true
    },
    {
      "inputs": [],
      "name": "swapEnabled",
      "outputs": [
        {
          "internalType": "bool",
          "name": "",
          "type": "bool"
        }
      ],
      "stateMutability": "view",
      "type": "function",
      "constant": true
    },
    {
      "inputs": [],
      "name": "swapThreshold",
      "outputs": [
        {
          "internalType": "uint256",
          "name": "",
          "type": "uint256"
        }
      ],
      "stateMutability": "view",
      "type": "function",
      "constant": true
    },
    {
      "inputs": [
        {
          "internalType": "address payable",
          "name": "adr",
          "type": "address"
        }
      ],
      "name": "transferOwnership",
      "outputs": [],
      "stateMutability": "nonpayable",
      "type": "function"
    },
    {
      "inputs": [
        {
          "internalType": "address",
          "name": "adr",
          "type": "address"
        }
      ],
      "name": "unauthorize",
      "outputs": [],
      "stateMutability": "nonpayable",
      "type": "function"
    },
    {
      "stateMutability": "payable",
      "type": "receive",
      "payable": true
    },
    {
      "inputs": [],
      "name": "totalSupply",
      "outputs": [
        {
          "internalType": "uint256",
          "name": "",
          "type": "uint256"
        }
      ],
      "stateMutability": "view",
      "type": "function",
      "constant": true
    },
    {
      "inputs": [],
      "name": "decimals",
      "outputs": [
        {
          "internalType": "uint8",
          "name": "",
          "type": "uint8"
        }
      ],
      "stateMutability": "pure",
      "type": "function",
      "constant": true
    },
    {
      "inputs": [],
      "name": "symbol",
      "outputs": [
        {
          "internalType": "string",
          "name": "",
          "type": "string"
        }
      ],
      "stateMutability": "pure",
      "type": "function",
      "constant": true
    },
    {
      "inputs": [],
      "name": "name",
      "outputs": [
        {
          "internalType": "string",
          "name": "",
          "type": "string"
        }
      ],
      "stateMutability": "pure",
      "type": "function",
      "constant": true
    },
    {
      "inputs": [],
      "name": "getOwner",
      "outputs": [
        {
          "internalType": "address",
          "name": "",
          "type": "address"
        }
      ],
      "stateMutability": "view",
      "type": "function",
      "constant": true
    },
    {
      "inputs": [
        {
          "internalType": "address",
          "name": "account",
          "type": "address"
        }
      ],
      "name": "balanceOf",
      "outputs": [
        {
          "internalType": "uint256",
          "name": "",
          "type": "uint256"
        }
      ],
      "stateMutability": "view",
      "type": "function",
      "constant": true
    },
    {
      "inputs": [
        {
          "internalType": "uint256",
          "name": "burnQuantity",
          "type": "uint256"
        }
      ],
      "name": "burn",
      "outputs": [
        {
          "internalType": "bool",
          "name": "",
          "type": "bool"
        }
      ],
      "stateMutability": "nonpayable",
      "type": "function"
    },
    {
      "inputs": [
        {
          "internalType": "address",
          "name": "holder",
          "type": "address"
        },
        {
          "internalType": "address",
          "name": "spender",
          "type": "address"
        }
      ],
      "name": "allowance",
      "outputs": [
        {
          "internalType": "uint256",
          "name": "",
          "type": "uint256"
        }
      ],
      "stateMutability": "view",
      "type": "function",
      "constant": true
    },
    {
      "inputs": [
        {
          "internalType": "address",
          "name": "spender",
          "type": "address"
        },
        {
          "internalType": "uint256",
          "name": "amount",
          "type": "uint256"
        }
      ],
      "name": "approve",
      "outputs": [
        {
          "internalType": "bool",
          "name": "",
          "type": "bool"
        }
      ],
      "stateMutability": "nonpayable",
      "type": "function"
    },
    {
      "inputs": [
        {
          "internalType": "address",
          "name": "spender",
          "type": "address"
        }
      ],
      "name": "approveMax",
      "outputs": [
        {
          "internalType": "bool",
          "name": "",
          "type": "bool"
        }
      ],
      "stateMutability": "nonpayable",
      "type": "function"
    },
    {
      "inputs": [
        {
          "internalType": "address",
          "name": "recipient",
          "type": "address"
        },
        {
          "internalType": "uint256",
          "name": "amount",
          "type": "uint256"
        }
      ],
      "name": "transfer",
      "outputs": [
        {
          "internalType": "bool",
          "name": "",
          "type": "bool"
        }
      ],
      "stateMutability": "nonpayable",
      "type": "function"
    },
    {
      "inputs": [
        {
          "internalType": "address",
          "name": "sender",
          "type": "address"
        },
        {
          "internalType": "address",
          "name": "recipient",
          "type": "address"
        },
        {
          "internalType": "uint256",
          "name": "amount",
          "type": "uint256"
        }
      ],
      "name": "transferFrom",
      "outputs": [
        {
          "internalType": "bool",
          "name": "",
          "type": "bool"
        }
      ],
      "stateMutability": "nonpayable",
      "type": "function"
    },
    {
      "inputs": [
        {
          "internalType": "bool",
          "name": "set",
          "type": "bool"
        }
      ],
      "name": "setSwapEnabled",
      "outputs": [],
      "stateMutability": "nonpayable",
      "type": "function"
    },
    {
      "inputs": [
        {
          "internalType": "address",
          "name": "holder",
          "type": "address"
        },
        {
          "internalType": "bool",
          "name": "exempt",
          "type": "bool"
        }
      ],
      "name": "setIsFeeExempt",
      "outputs": [],
      "stateMutability": "nonpayable",
      "type": "function"
    },
    {
      "inputs": [
        {
          "internalType": "uint256",
          "name": "_liquidityFee",
          "type": "uint256"
        },
        {
          "internalType": "uint256",
          "name": "_feeDenominator",
          "type": "uint256"
        }
      ],
      "name": "setFees",
      "outputs": [],
      "stateMutability": "nonpayable",
      "type": "function"
    },
    {
      "inputs": [
        {
          "internalType": "address",
          "name": "_autoLiquidityReceiver",
          "type": "address"
        }
      ],
      "name": "setLiquidityReceiver",
      "outputs": [],
      "stateMutability": "nonpayable",
      "type": "function"
    },
    {
      "inputs": [],
      "name": "rescue",
      "outputs": [],
      "stateMutability": "nonpayable",
      "type": "function"
    },
    {
      "inputs": [
        {
          "internalType": "address",
          "name": "pair",
          "type": "address"
        }
      ],
      "name": "addPair",
      "outputs": [],
      "stateMutability": "nonpayable",
      "type": "function"
    },
    {
      "inputs": [],
      "name": "removeLastPair",
      "outputs": [],
      "stateMutability": "nonpayable",
      "type": "function"
    }
  ],
  "bytecode": "0x60806040526012600a62000014919062000992565b6298968062000024919062000acf565b6002556064600254620000389190620008ff565b60035560646002546200004c9190620008ff565b6004556032600b556103e8600c556000600d60006101000a81548160ff0219169083151502179055506001601160006101000a81548160ff0219169083151502179055506801158e460913d00000601255600060145560036015556406fc23ac006016556001601760006101000a81548160ff021916908315150217905550348015620000d857600080fd5b5033806000806101000a81548173ffffffffffffffffffffffffffffffffffffffff021916908373ffffffffffffffffffffffffffffffffffffffff16021790555060018060008373ffffffffffffffffffffffffffffffffffffffff1673ffffffffffffffffffffffffffffffffffffffff16815260200190815260200160002060006101000a81548160ff02191690831515021790555050733380ae82e39e42ca34ebed69af67faa0683bb5c1600e60006101000a81548173ffffffffffffffffffffffffffffffffffffffff021916908373ffffffffffffffffffffffffffffffffffffffff160217905550600e60009054906101000a900473ffffffffffffffffffffffffffffffffffffffff1673ffffffffffffffffffffffffffffffffffffffff1663c45a01556040518163ffffffff1660e01b815260040160206040518083038186803b1580156200023057600080fd5b505afa15801562000245573d6000803e3d6000fd5b505050506040513d601f19601f820116820180604052508101906200026b919062000867565b73ffffffffffffffffffffffffffffffffffffffff1663c9c65396600e60009054906101000a900473ffffffffffffffffffffffffffffffffffffffff1673ffffffffffffffffffffffffffffffffffffffff1663ad5c46486040518163ffffffff1660e01b815260040160206040518083038186803b158015620002ef57600080fd5b505afa15801562000304573d6000803e3d6000fd5b505050506040513d601f19601f820116820180604052508101906200032a919062000867565b306040518363ffffffff1660e01b81526004016200034a929190620008b5565b602060405180830381600087803b1580156200036557600080fd5b505af11580156200037a573d6000803e3d6000fd5b505050506040513d601f19601f82011682018060405250810190620003a0919062000867565b600f60006101000a81548173ffffffffffffffffffffffffffffffffffffffff021916908373ffffffffffffffffffffffffffffffffffffffff1602179055507fffffffffffffffffffffffffffffffffffffffffffffffffffffffffffffffff600660003073ffffffffffffffffffffffffffffffffffffffff1673ffffffffffffffffffffffffffffffffffffffff1681526020019081526020016000206000600e60009054906101000a900473ffffffffffffffffffffffffffffffffffffffff1673ffffffffffffffffffffffffffffffffffffffff1673ffffffffffffffffffffffffffffffffffffffff168152602001908152602001600020819055506001600760003373ffffffffffffffffffffffffffffffffffffffff1673ffffffffffffffffffffffffffffffffffffffff16815260200190815260200160002060006101000a81548160ff0219169083151502179055506001600760003073ffffffffffffffffffffffffffffffffffffffff1673ffffffffffffffffffffffffffffffffffffffff16815260200190815260200160002060006101000a81548160ff02191690831515021790555033600d60016101000a81548173ffffffffffffffffffffffffffffffffffffffff021916908373ffffffffffffffffffffffffffffffffffffffff1602179055506010600f60009054906101000a900473ffffffffffffffffffffffffffffffffffffffff169080600181540180825580915050600190039060005260206000200160009091909190916101000a81548173ffffffffffffffffffffffffffffffffffffffff021916908373ffffffffffffffffffffffffffffffffffffffff1602179055503060086000600f60009054906101000a900473ffffffffffffffffffffffffffffffffffffffff1673ffffffffffffffffffffffffffffffffffffffff1673ffffffffffffffffffffffffffffffffffffffff16815260200190815260200160002060006101000a81548173ffffffffffffffffffffffffffffffffffffffff021916908373ffffffffffffffffffffffffffffffffffffffff160217905550603260096000600f60009054906101000a900473ffffffffffffffffffffffffffffffffffffffff1673ffffffffffffffffffffffffffffffffffffffff1673ffffffffffffffffffffffffffffffffffffffff168152602001908152602001600020819055506000600a6000600f60009054906101000a900473ffffffffffffffffffffffffffffffffffffffff1673ffffffffffffffffffffffffffffffffffffffff1673ffffffffffffffffffffffffffffffffffffffff16815260200190815260200160002060006101000a81548160ff021916908315150217905550600254600560003373ffffffffffffffffffffffffffffffffffffffff1673ffffffffffffffffffffffffffffffffffffffff168152602001908152602001600020819055503373ffffffffffffffffffffffffffffffffffffffff16600073ffffffffffffffffffffffffffffffffffffffff167fddf252ad1be2c89b69c2b068fc378daa952ba7f163c4a11628f55a4df523b3ef600254604051620008429190620008e2565b60405180910390a362000c00565b600081519050620008618162000be6565b92915050565b6000602082840312156200087a57600080fd5b60006200088a8482850162000850565b91505092915050565b6200089e8162000b30565b82525050565b620008af8162000b64565b82525050565b6000604082019050620008cc600083018562000893565b620008db602083018462000893565b9392505050565b6000602082019050620008f96000830184620008a4565b92915050565b60006200090c8262000b64565b9150620009198362000b64565b9250826200092c576200092b62000baa565b5b828204905092915050565b6000808291508390505b6001851115620009895780860481111562000961576200096062000b7b565b5b6001851615620009715780820291505b8081029050620009818562000bd9565b945062000941565b94509492505050565b60006200099f8262000b64565b9150620009ac8362000b6e565b9250620009db7fffffffffffffffffffffffffffffffffffffffffffffffffffffffffffffffff8484620009e3565b905092915050565b600082620009f5576001905062000ac8565b8162000a05576000905062000ac8565b816001811462000a1e576002811462000a295762000a5f565b600191505062000ac8565b60ff84111562000a3e5762000a3d62000b7b565b5b8360020a91508482111562000a585762000a5762000b7b565b5b5062000ac8565b5060208310610133831016604e8410600b841016171562000a995782820a90508381111562000a935762000a9262000b7b565b5b62000ac8565b62000aa8848484600162000937565b9250905081840481111562000ac25762000ac162000b7b565b5b81810290505b9392505050565b600062000adc8262000b64565b915062000ae98362000b64565b9250817fffffffffffffffffffffffffffffffffffffffffffffffffffffffffffffffff048311821515161562000b255762000b2462000b7b565b5b828202905092915050565b600062000b3d8262000b44565b9050919050565b600073ffffffffffffffffffffffffffffffffffffffff82169050919050565b6000819050919050565b600060ff82169050919050565b7f4e487b7100000000000000000000000000000000000000000000000000000000600052601160045260246000fd5b7f4e487b7100000000000000000000000000000000000000000000000000000000600052601260045260246000fd5b60008160011c9050919050565b62000bf18162000b30565b811462000bfd57600080fd5b50565b6132348062000c106000396000f3fe6080604052600436106101f15760003560e01c80637d1db4a51161010d578063bf56b371116100a0578063e01af92c1161006f578063e01af92c14610721578063f0b37c041461074a578063f2fde38b14610773578063f887ea401461079c578063fe9fbb80146107c7576101f8565b8063bf56b37114610665578063c2b7bbb614610690578063ca33e64c146106b9578063dd62ed3e146106e4576101f8565b8063b08b9b46116100dc578063b08b9b46146105ab578063b57e3682146105d6578063b6a5d7de146105ff578063b91ac78814610628576101f8565b80637d1db4a5146104ed578063893d20e81461051857806395d89b4114610543578063a9059cbb1461056e576101f8565b80632f54bf6e11610185578063658d4b7f11610154578063658d4b7f146104315780636c0a24eb1461045a5780636ddd17131461048557806370a08231146104b0576101f8565b80632f54bf6e1461034f578063313ce5671461038c57806342966c68146103b7578063571ac8b0146103f4576101f8565b80630b78f9c0116101c15780630b78f9c0146102a757806318160ddd146102d05780631fbe1979146102fb57806323b872dd14610312576101f8565b806293dc14146101fd5780630445b6671461021457806306fdde031461023f578063095ea7b31461026a576101f8565b366101f857005b600080fd5b34801561020957600080fd5b50610212610804565b005b34801561022057600080fd5b506102296108bb565b6040516102369190612dc1565b60405180910390f35b34801561024b57600080fd5b506102546108c1565b6040516102619190612cdf565b60405180910390f35b34801561027657600080fd5b50610291600480360381019061028c91906128b6565b6108fe565b60405161029e9190612ca9565b60405180910390f35b3480156102b357600080fd5b506102ce60048036038101906102c99190612944565b6109f0565b005b3480156102dc57600080fd5b506102e5610a9a565b6040516102f29190612dc1565b60405180910390f35b34801561030757600080fd5b50610310610aa4565b005b34801561031e57600080fd5b506103396004803603810190610334919061282b565b610b24565b6040516103469190612ca9565b60405180910390f35b34801561035b57600080fd5b5061037660048036038101906103719190612774565b610d30565b6040516103839190612ca9565b60405180910390f35b34801561039857600080fd5b506103a1610d89565b6040516103ae9190612e5f565b60405180910390f35b3480156103c357600080fd5b506103de60048036038101906103d9919061291b565b610d92565b6040516103eb9190612ca9565b60405180910390f35b34801561040057600080fd5b5061041b60048036038101906104169190612774565b610ea5565b6040516104289190612ca9565b60405180910390f35b34801561043d57600080fd5b506104586004803603810190610453919061287a565b610ed8565b005b34801561046657600080fd5b5061046f610f7b565b60405161047c9190612dc1565b60405180910390f35b34801561049157600080fd5b5061049a610f81565b6040516104a79190612ca9565b60405180910390f35b3480156104bc57600080fd5b506104d760048036038101906104d29190612774565b610f94565b6040516104e49190612dc1565b60405180910390f35b3480156104f957600080fd5b50610502610fdd565b60405161050f9190612dc1565b60405180910390f35b34801561052457600080fd5b5061052d610fe3565b60405161053a9190612c73565b60405180910390f35b34801561054f57600080fd5b5061055861100c565b6040516105659190612cdf565b60405180910390f35b34801561057a57600080fd5b50610595600480360381019061059091906128b6565b611049565b6040516105a29190612ca9565b60405180910390f35b3480156105b757600080fd5b506105c061105e565b6040516105cd9190612ca9565b60405180910390f35b3480156105e257600080fd5b506105fd60048036038101906105f89190612774565b611071565b005b34801561060b57600080fd5b5061062660048036038101906106219190612774565b6110fd565b005b34801561063457600080fd5b5061064f600480360381019061064a919061291b565b61119f565b60405161065c9190612c73565b60405180910390f35b34801561067157600080fd5b5061067a6111de565b6040516106879190612dc1565b60405180910390f35b34801561069c57600080fd5b506106b760048036038101906106b29190612774565b6111e4565b005b3480156106c557600080fd5b506106ce611292565b6040516106db9190612c73565b60405180910390f35b3480156106f057600080fd5b5061070b600480360381019061070691906127ef565b6112b8565b6040516107189190612dc1565b60405180910390f35b34801561072d57600080fd5b50610748600480360381019061074391906128f2565b61133f565b005b34801561075657600080fd5b50610771600480360381019061076c9190612774565b6113db565b005b34801561077f57600080fd5b5061079a600480360381019061079591906127c6565b61147e565b005b3480156107a857600080fd5b506107b1611597565b6040516107be9190612cc4565b60405180910390f35b3480156107d357600080fd5b506107ee60048036038101906107e99190612774565b6115bd565b6040516107fb9190612ca9565b60405180910390f35b61080d336115bd565b61084c576040517f08c379a000000000000000000000000000000000000000000000000000000000815260040161084390612da1565b60405180910390fd5b6010805480610884577f4e487b7100000000000000000000000000000000000000000000000000000000600052603160045260246000fd5b6001900381819060005260206000200160006101000a81549073ffffffffffffffffffffffffffffffffffffffff02191690559055565b60125481565b60606040518060400160405280600481526020017f4149763200000000000000000000000000000000000000000000000000000000815250905090565b600081600660003373ffffffffffffffffffffffffffffffffffffffff1673ffffffffffffffffffffffffffffffffffffffff16815260200190815260200160002060008573ffffffffffffffffffffffffffffffffffffffff1673ffffffffffffffffffffffffffffffffffffffff168152602001908152602001600020819055508273ffffffffffffffffffffffffffffffffffffffff163373ffffffffffffffffffffffffffffffffffffffff167f8c5be1e5ebec7d5bd14f71427d1e84f3dd0314c0f7b2291e5b200ac8c7c3b925846040516109de9190612dc1565b60405180910390a36001905092915050565b6109f9336115bd565b610a38576040517f08c379a0000000000000000000000000000000000000000000000000000000008152600401610a2f90612da1565b60405180910390fd5b81600b8190555080600c819055506005600c54610a559190612f25565b8210610a96576040517f08c379a0000000000000000000000000000000000000000000000000000000008152600401610a8d90612d81565b60405180910390fd5b5050565b6000600254905090565b60008054906101000a900473ffffffffffffffffffffffffffffffffffffffff1673ffffffffffffffffffffffffffffffffffffffff166108fc3073ffffffffffffffffffffffffffffffffffffffff16319081150290604051600060405180830381858888f19350505050158015610b21573d6000803e3d6000fd5b50565b60007fffffffffffffffffffffffffffffffffffffffffffffffffffffffffffffffff600660008673ffffffffffffffffffffffffffffffffffffffff1673ffffffffffffffffffffffffffffffffffffffff16815260200190815260200160002060003373ffffffffffffffffffffffffffffffffffffffff1673ffffffffffffffffffffffffffffffffffffffff1681526020019081526020016000205414610d1c5781600660008673ffffffffffffffffffffffffffffffffffffffff1673ffffffffffffffffffffffffffffffffffffffff16815260200190815260200160002060003373ffffffffffffffffffffffffffffffffffffffff1673ffffffffffffffffffffffffffffffffffffffff168152602001908152602001600020541015610c88576040517f08c379a0000000000000000000000000000000000000000000000000000000008152600401610c7f90612d01565b60405180910390fd5b81600660008673ffffffffffffffffffffffffffffffffffffffff1673ffffffffffffffffffffffffffffffffffffffff16815260200190815260200160002060003373ffffffffffffffffffffffffffffffffffffffff1673ffffffffffffffffffffffffffffffffffffffff1681526020019081526020016000206000828254610d149190612fb0565b925050819055505b610d27848484611613565b90509392505050565b60008060009054906101000a900473ffffffffffffffffffffffffffffffffffffffff1673ffffffffffffffffffffffffffffffffffffffff168273ffffffffffffffffffffffffffffffffffffffff16149050919050565b60006012905090565b600081600560003373ffffffffffffffffffffffffffffffffffffffff1673ffffffffffffffffffffffffffffffffffffffff16815260200190815260200160002054610ddf9190612fb0565b600560003373ffffffffffffffffffffffffffffffffffffffff1673ffffffffffffffffffffffffffffffffffffffff1681526020019081526020016000208190555081600254610e309190612fb0565b600281905550600073ffffffffffffffffffffffffffffffffffffffff163373ffffffffffffffffffffffffffffffffffffffff167fddf252ad1be2c89b69c2b068fc378daa952ba7f163c4a11628f55a4df523b3ef84604051610e949190612dc1565b60405180910390a360019050919050565b6000610ed1827fffffffffffffffffffffffffffffffffffffffffffffffffffffffffffffffff6108fe565b9050919050565b610ee1336115bd565b610f20576040517f08c379a0000000000000000000000000000000000000000000000000000000008152600401610f1790612da1565b60405180910390fd5b80600760008473ffffffffffffffffffffffffffffffffffffffff1673ffffffffffffffffffffffffffffffffffffffff16815260200190815260200160002060006101000a81548160ff0219169083151502179055505050565b60045481565b601160009054906101000a900460ff1681565b6000600560008373ffffffffffffffffffffffffffffffffffffffff1673ffffffffffffffffffffffffffffffffffffffff168152602001908152602001600020549050919050565b60035481565b60008060009054906101000a900473ffffffffffffffffffffffffffffffffffffffff16905090565b60606040518060400160405280600281526020017f4149000000000000000000000000000000000000000000000000000000000000815250905090565b6000611056338484611613565b905092915050565b600d60009054906101000a900460ff1681565b61107a336115bd565b6110b9576040517f08c379a00000000000000000000000000000000000000000000000000000000081526004016110b090612da1565b60405180910390fd5b80600d60016101000a81548173ffffffffffffffffffffffffffffffffffffffff021916908373ffffffffffffffffffffffffffffffffffffffff16021790555050565b61110633610d30565b611145576040517f08c379a000000000000000000000000000000000000000000000000000000000815260040161113c90612d61565b60405180910390fd5b60018060008373ffffffffffffffffffffffffffffffffffffffff1673ffffffffffffffffffffffffffffffffffffffff16815260200190815260200160002060006101000a81548160ff02191690831515021790555050565b601081815481106111af57600080fd5b906000526020600020016000915054906101000a900473ffffffffffffffffffffffffffffffffffffffff1681565b60145481565b6111ed336115bd565b61122c576040517f08c379a000000000000000000000000000000000000000000000000000000000815260040161122390612da1565b60405180910390fd5b6010819080600181540180825580915050600190039060005260206000200160009091909190916101000a81548173ffffffffffffffffffffffffffffffffffffffff021916908373ffffffffffffffffffffffffffffffffffffffff16021790555050565b600d60019054906101000a900473ffffffffffffffffffffffffffffffffffffffff1681565b6000600660008473ffffffffffffffffffffffffffffffffffffffff1673ffffffffffffffffffffffffffffffffffffffff16815260200190815260200160002060008373ffffffffffffffffffffffffffffffffffffffff1673ffffffffffffffffffffffffffffffffffffffff16815260200190815260200160002054905092915050565b611348336115bd565b611387576040517f08c379a000000000000000000000000000000000000000000000000000000000815260040161137e90612da1565b60405180910390fd5b80601160006101000a81548160ff0219169083151502179055507fdea63b4248e33990c8e14391c5e9e66041e4e9953b1d7d1c75871eb7779bbb79816040516113d09190612ca9565b60405180910390a150565b6113e433610d30565b611423576040517f08c379a000000000000000000000000000000000000000000000000000000000815260040161141a90612d61565b60405180910390fd5b6000600160008373ffffffffffffffffffffffffffffffffffffffff1673ffffffffffffffffffffffffffffffffffffffff16815260200190815260200160002060006101000a81548160ff02191690831515021790555050565b61148733610d30565b6114c6576040517f08c379a00000000000000000000000000000000000000000000000000000000081526004016114bd90612d61565b60405180910390fd5b806000806101000a81548173ffffffffffffffffffffffffffffffffffffffff021916908373ffffffffffffffffffffffffffffffffffffffff16021790555060018060008373ffffffffffffffffffffffffffffffffffffffff1673ffffffffffffffffffffffffffffffffffffffff16815260200190815260200160002060006101000a81548160ff0219169083151502179055507f04dba622d284ed0014ee4b9a6a68386be1a4c08a4913ae272de89199cc6861638160405161158c9190612c8e565b60405180910390a150565b600e60009054906101000a900473ffffffffffffffffffffffffffffffffffffffff1681565b6000600160008373ffffffffffffffffffffffffffffffffffffffff1673ffffffffffffffffffffffffffffffffffffffff16815260200190815260200160002060009054906101000a900460ff169050919050565b600080821161162157600080fd5b600061162d8585611a76565b9050601360009054906101000a900460ff16156116575761164f858585611c62565b915050611a6f565b61166081611e02565b1561166e5761166d611f30565b5b600a60008273ffffffffffffffffffffffffffffffffffffffff1673ffffffffffffffffffffffffffffffffffffffff16815260200190815260200160002060009054906101000a900460ff161580156116f357508073ffffffffffffffffffffffffffffffffffffffff168473ffffffffffffffffffffffffffffffffffffffff16145b801561172c5750600073ffffffffffffffffffffffffffffffffffffffff168173ffffffffffffffffffffffffffffffffffffffff1614155b156118b0576000600560008773ffffffffffffffffffffffffffffffffffffffff1673ffffffffffffffffffffffffffffffffffffffff168152602001908152602001600020541161177d57600080fd5b60008054906101000a900473ffffffffffffffffffffffffffffffffffffffff1673ffffffffffffffffffffffffffffffffffffffff168573ffffffffffffffffffffffffffffffffffffffff161461180b576040517f08c379a000000000000000000000000000000000000000000000000000000000815260040161180290612d21565b60405180910390fd5b600a60008273ffffffffffffffffffffffffffffffffffffffff1673ffffffffffffffffffffffffffffffffffffffff16815260200190815260200160002060009054906101000a900460ff1615600a60008373ffffffffffffffffffffffffffffffffffffffff1673ffffffffffffffffffffffffffffffffffffffff16815260200190815260200160002060006101000a81548160ff0219169083151502179055505b600560008673ffffffffffffffffffffffffffffffffffffffff1673ffffffffffffffffffffffffffffffffffffffff16815260200190815260200160002054831115611932576040517f08c379a000000000000000000000000000000000000000000000000000000000815260040161192990612d41565b60405180910390fd5b82600560008773ffffffffffffffffffffffffffffffffffffffff1673ffffffffffffffffffffffffffffffffffffffff16815260200190815260200160002060008282546119819190612fb0565b925050819055506000611995868684612257565b61199f57836119ab565b6119aa868584612518565b5b905080600560008773ffffffffffffffffffffffffffffffffffffffff1673ffffffffffffffffffffffffffffffffffffffff16815260200190815260200160002060008282546119fc9190612ecf565b925050819055508473ffffffffffffffffffffffffffffffffffffffff168673ffffffffffffffffffffffffffffffffffffffff167fddf252ad1be2c89b69c2b068fc378daa952ba7f163c4a11628f55a4df523b3ef83604051611a609190612dc1565b60405180910390a36001925050505b9392505050565b6000806010805480602002602001604051908101604052809291908181526020018280548015611afb57602002820191906000526020600020905b8160009054906101000a900473ffffffffffffffffffffffffffffffffffffffff1673ffffffffffffffffffffffffffffffffffffffff1681526020019060010190808311611ab1575b5050505050905060005b8151811015611c5557818181518110611b47577f4e487b7100000000000000000000000000000000000000000000000000000000600052603260045260246000fd5b602002602001015173ffffffffffffffffffffffffffffffffffffffff168573ffffffffffffffffffffffffffffffffffffffff161480611bf35750818181518110611bbc577f4e487b7100000000000000000000000000000000000000000000000000000000600052603260045260246000fd5b602002602001015173ffffffffffffffffffffffffffffffffffffffff168473ffffffffffffffffffffffffffffffffffffffff16145b15611c4257818181518110611c31577f4e487b7100000000000000000000000000000000000000000000000000000000600052603260045260246000fd5b602002602001015192505050611c5c565b8080611c4d906130ea565b915050611b05565b5060009150505b92915050565b6000600560008573ffffffffffffffffffffffffffffffffffffffff1673ffffffffffffffffffffffffffffffffffffffff16815260200190815260200160002054821115611ce6576040517f08c379a0000000000000000000000000000000000000000000000000000000008152600401611cdd90612d41565b60405180910390fd5b81600560008673ffffffffffffffffffffffffffffffffffffffff1673ffffffffffffffffffffffffffffffffffffffff1681526020019081526020016000206000828254611d359190612fb0565b9250508190555081600560008573ffffffffffffffffffffffffffffffffffffffff1673ffffffffffffffffffffffffffffffffffffffff1681526020019081526020016000206000828254611d8b9190612ecf565b925050819055508273ffffffffffffffffffffffffffffffffffffffff168473ffffffffffffffffffffffffffffffffffffffff167fddf252ad1be2c89b69c2b068fc378daa952ba7f163c4a11628f55a4df523b3ef84604051611def9190612dc1565b60405180910390a3600190509392505050565b6000600a60008373ffffffffffffffffffffffffffffffffffffffff1673ffffffffffffffffffffffffffffffffffffffff16815260200190815260200160002060009054906101000a900460ff168015611eab5750600f60009054906101000a900473ffffffffffffffffffffffffffffffffffffffff1673ffffffffffffffffffffffffffffffffffffffff163373ffffffffffffffffffffffffffffffffffffffff1614155b8015611ec45750601360009054906101000a900460ff16155b8015611edc5750601160009054906101000a900460ff165b8015611f295750601254600560003073ffffffffffffffffffffffffffffffffffffffff1673ffffffffffffffffffffffffffffffffffffffff1681526020019081526020016000205410155b9050919050565b6001601360006101000a81548160ff02191690831515021790555060006002611f5830610f94565b611f629190612f25565b90506000600267ffffffffffffffff811115611fa7577f4e487b7100000000000000000000000000000000000000000000000000000000600052604160045260246000fd5b604051908082528060200260200182016040528015611fd55781602001602082028036833780820191505090505b5090503081600081518110612013577f4e487b7100000000000000000000000000000000000000000000000000000000600052603260045260246000fd5b602002602001019073ffffffffffffffffffffffffffffffffffffffff16908173ffffffffffffffffffffffffffffffffffffffff1681525050600e60009054906101000a900473ffffffffffffffffffffffffffffffffffffffff1673ffffffffffffffffffffffffffffffffffffffff1663ad5c46486040518163ffffffff1660e01b815260040160206040518083038186803b1580156120b557600080fd5b505afa1580156120c9573d6000803e3d6000fd5b505050506040513d601f19601f820116820180604052508101906120ed919061279d565b81600181518110612127577f4e487b7100000000000000000000000000000000000000000000000000000000600052603260045260246000fd5b602002602001019073ffffffffffffffffffffffffffffffffffffffff16908173ffffffffffffffffffffffffffffffffffffffff1681525050600e60009054906101000a900473ffffffffffffffffffffffffffffffffffffffff1673ffffffffffffffffffffffffffffffffffffffff1663791ac9478360008430426040518663ffffffff1660e01b81526004016121c5959493929190612ddc565b600060405180830381600087803b1580156121df57600080fd5b505af11580156121f3573d6000803e3d6000fd5b505050507f424db2872186fa7e7afa7a5e902ed3b49a2ef19c2f5431e672462495dd6b450661222130610f94565b83604051612230929190612e36565b60405180910390a150506000601360006101000a81548160ff021916908315150217905550565b6000600760008573ffffffffffffffffffffffffffffffffffffffff1673ffffffffffffffffffffffffffffffffffffffff16815260200190815260200160002060009054906101000a900460ff16806122fa5750600760008473ffffffffffffffffffffffffffffffffffffffff1673ffffffffffffffffffffffffffffffffffffffff16815260200190815260200160002060009054906101000a900460ff165b8061234f5750600a60008373ffffffffffffffffffffffffffffffffffffffff1673ffffffffffffffffffffffffffffffffffffffff16815260200190815260200160002060009054906101000a900460ff16155b1561235d5760009050612511565b600060108054806020026020016040519081016040528092919081815260200182805480156123e157602002820191906000526020600020905b8160009054906101000a900473ffffffffffffffffffffffffffffffffffffffff1673ffffffffffffffffffffffffffffffffffffffff1681526020019060010190808311612397575b5050505050905060005b81518110156124fc5781818151811061242d577f4e487b7100000000000000000000000000000000000000000000000000000000600052603260045260246000fd5b602002602001015173ffffffffffffffffffffffffffffffffffffffff168673ffffffffffffffffffffffffffffffffffffffff1614806124d957508181815181106124a2577f4e487b7100000000000000000000000000000000000000000000000000000000600052603260045260246000fd5b602002602001015173ffffffffffffffffffffffffffffffffffffffff168573ffffffffffffffffffffffffffffffffffffffff16145b156124e957600192505050612511565b80806124f4906130ea565b9150506123eb565b50600d60009054906101000a900460ff169150505b9392505050565b6000600a60008373ffffffffffffffffffffffffffffffffffffffff1673ffffffffffffffffffffffffffffffffffffffff16815260200190815260200160002060009054906101000a900460ff1661257357829050612704565b600080600b5411156126f457600c54600960008573ffffffffffffffffffffffffffffffffffffffff1673ffffffffffffffffffffffffffffffffffffffff16815260200190815260200160002054856125cd9190612f56565b6125d79190612f25565b90508060056000600860008773ffffffffffffffffffffffffffffffffffffffff1673ffffffffffffffffffffffffffffffffffffffff16815260200190815260200160002060009054906101000a900473ffffffffffffffffffffffffffffffffffffffff1673ffffffffffffffffffffffffffffffffffffffff1673ffffffffffffffffffffffffffffffffffffffff16815260200190815260200160002060008282546126879190612ecf565b925050819055503073ffffffffffffffffffffffffffffffffffffffff168573ffffffffffffffffffffffffffffffffffffffff167fddf252ad1be2c89b69c2b068fc378daa952ba7f163c4a11628f55a4df523b3ef836040516126eb9190612dc1565b60405180910390a35b80846127009190612fb0565b9150505b9392505050565b60008135905061271a816131a2565b92915050565b60008151905061272f816131a2565b92915050565b600081359050612744816131b9565b92915050565b600081359050612759816131d0565b92915050565b60008135905061276e816131e7565b92915050565b60006020828403121561278657600080fd5b60006127948482850161270b565b91505092915050565b6000602082840312156127af57600080fd5b60006127bd84828501612720565b91505092915050565b6000602082840312156127d857600080fd5b60006127e684828501612735565b91505092915050565b6000806040838503121561280257600080fd5b60006128108582860161270b565b92505060206128218582860161270b565b9150509250929050565b60008060006060848603121561284057600080fd5b600061284e8682870161270b565b935050602061285f8682870161270b565b92505060406128708682870161275f565b9150509250925092565b6000806040838503121561288d57600080fd5b600061289b8582860161270b565b92505060206128ac8582860161274a565b9150509250929050565b600080604083850312156128c957600080fd5b60006128d78582860161270b565b92505060206128e88582860161275f565b9150509250929050565b60006020828403121561290457600080fd5b60006129128482850161274a565b91505092915050565b60006020828403121561292d57600080fd5b600061293b8482850161275f565b91505092915050565b6000806040838503121561295757600080fd5b60006129658582860161275f565b92505060206129768582860161275f565b9150509250929050565b600061298c83836129a7565b60208301905092915050565b6129a18161304b565b82525050565b6129b081612fe4565b82525050565b6129bf81612fe4565b82525050565b60006129d082612e8a565b6129da8185612ead565b93506129e583612e7a565b8060005b83811015612a165781516129fd8882612980565b9750612a0883612ea0565b9250506001810190506129e9565b5085935050505092915050565b612a2c81613008565b82525050565b612a3b8161305d565b82525050565b612a4a81613081565b82525050565b6000612a5b82612e95565b612a658185612ebe565b9350612a758185602086016130b7565b612a7e81613191565b840191505092915050565b6000612a96601683612ebe565b91507f496e73756666696369656e7420416c6c6f77616e6365000000000000000000006000830152602082019050919050565b6000612ad6603183612ebe565b91507f4f6e6c7920746865206f776e65722063616e206265207468652066697273742060008301527f746f20616464206c69717569646974792e0000000000000000000000000000006020830152604082019050919050565b6000612b3c601483612ebe565b91507f496e73756666696369656e742042616c616e63650000000000000000000000006000830152602082019050919050565b6000612b7c600683612ebe565b91507f214f574e455200000000000000000000000000000000000000000000000000006000830152602082019050919050565b6000612bbc603183612ebe565b91507f4d6178696d756d20616c6c6f776564207461786174696f6e206f6e207468697360008301527f20636f6e7472616374206973203230252e0000000000000000000000000000006020830152604082019050919050565b6000612c22600b83612ebe565b91507f21415554484f52495a45440000000000000000000000000000000000000000006000830152602082019050919050565b612c5e81613034565b82525050565b612c6d8161303e565b82525050565b6000602082019050612c8860008301846129b6565b92915050565b6000602082019050612ca36000830184612998565b92915050565b6000602082019050612cbe6000830184612a23565b92915050565b6000602082019050612cd96000830184612a32565b92915050565b60006020820190508181036000830152612cf98184612a50565b905092915050565b60006020820190508181036000830152612d1a81612a89565b9050919050565b60006020820190508181036000830152612d3a81612ac9565b9050919050565b60006020820190508181036000830152612d5a81612b2f565b9050919050565b60006020820190508181036000830152612d7a81612b6f565b9050919050565b60006020820190508181036000830152612d9a81612baf565b9050919050565b60006020820190508181036000830152612dba81612c15565b9050919050565b6000602082019050612dd66000830184612c55565b92915050565b600060a082019050612df16000830188612c55565b612dfe6020830187612a41565b8181036040830152612e1081866129c5565b9050612e1f60608301856129b6565b612e2c6080830184612c55565b9695505050505050565b6000604082019050612e4b6000830185612c55565b612e586020830184612c55565b9392505050565b6000602082019050612e746000830184612c64565b92915050565b6000819050602082019050919050565b600081519050919050565b600081519050919050565b6000602082019050919050565b600082825260208201905092915050565b600082825260208201905092915050565b6000612eda82613034565b9150612ee583613034565b9250827fffffffffffffffffffffffffffffffffffffffffffffffffffffffffffffffff03821115612f1a57612f19613133565b5b828201905092915050565b6000612f3082613034565b9150612f3b83613034565b925082612f4b57612f4a613162565b5b828204905092915050565b6000612f6182613034565b9150612f6c83613034565b9250817fffffffffffffffffffffffffffffffffffffffffffffffffffffffffffffffff0483118215151615612fa557612fa4613133565b5b828202905092915050565b6000612fbb82613034565b9150612fc683613034565b925082821015612fd957612fd8613133565b5b828203905092915050565b6000612fef82613014565b9050919050565b600061300182613014565b9050919050565b60008115159050919050565b600073ffffffffffffffffffffffffffffffffffffffff82169050919050565b6000819050919050565b600060ff82169050919050565b600061305682613093565b9050919050565b60006130688261306f565b9050919050565b600061307a82613014565b9050919050565b600061308c82613034565b9050919050565b600061309e826130a5565b9050919050565b60006130b082613014565b9050919050565b60005b838110156130d55780820151818401526020810190506130ba565b838111156130e4576000848401525b50505050565b60006130f582613034565b91507fffffffffffffffffffffffffffffffffffffffffffffffffffffffffffffffff82141561312857613127613133565b5b600182019050919050565b7f4e487b7100000000000000000000000000000000000000000000000000000000600052601160045260246000fd5b7f4e487b7100000000000000000000000000000000000000000000000000000000600052601260045260246000fd5b6000601f19601f8301169050919050565b6131ab81612fe4565b81146131b657600080fd5b50565b6131c281612ff6565b81146131cd57600080fd5b50565b6131d981613008565b81146131e457600080fd5b50565b6131f081613034565b81146131fb57600080fd5b5056fea2646970667358221220f3e30ccd878f82029d492ae447f65b640988437915ede9cab5d68500666dc18264736f6c63430008000033",
  "immutableReferences": {},
  "source": "// SPDX-License-Identifier: MIT\npragma solidity >=0.8.0 <0.9.0;\n\nimport \"./Auth.sol\";\nimport \"./IBEP20.sol\";\nimport \"./IDexRouter.sol\";\nimport \"./IDexFactory.sol\";\n\ncontract AI is IBEP20, Auth {\n\n\tstring constant _name = \"AIv2\";\n  string constant _symbol = \"AI\";\n  uint8 constant _decimals = 18;\n\n  uint256 _totalSupply = 10_000_000 * (10 ** _decimals);\n  uint256 public _maxTxAmount = _totalSupply / 100;\n\tuint256 public _maxWalletAmount = _totalSupply / 100;\n\n\tmapping (address => uint256) _balances;\n  mapping (address => mapping (address => uint256)) _allowances;\n  mapping (address => bool) isFeeExempt;\n  mapping (address => address) private _taxAddresses;\n  mapping (address => uint256) private _taxAmount;\n  mapping (address => bool) private _isLaunched;\n\n  // Fees. Some may be completely inactive at all times.\n  uint256 liquidityFee = 50;\n  uint256 feeDenominator = 1000;\n  bool public feeOnNonTrade = false;\n\n  address public autoLiquidityReceiver;\n\n  IDexRouter public router;\n  address pcs2BNBPair;\n  address[] public pairs;\n\n  bool public swapEnabled = true;\n  uint256 public swapThreshold = 20000000000000000000; // < 500\n  bool inSwap;\n  modifier swapping() {\n    inSwap = true;\n    _;\n    inSwap = false;\n  }\n\n    uint256 public launchedAt = 0;\n    uint256 private antiSniperBlocks = 3;\n    uint256 private antiSniperGasLimit = 30 gwei;\n    bool private gasLimitActive = true;\n\n    event AutoLiquifyEnabled(bool enabledOrNot);\n    event AutoLiquify(uint256 amountBNB, uint256 autoBuybackAmount);\n    event StakingRewards(bool activate);\n    event NFTStakingRewards(bool active);\n\n\tconstructor() Auth(msg.sender) {\n\t\trouter = IDexRouter(0x3380aE82e39E42Ca34EbEd69aF67fAa0683Bb5c1);\n    pcs2BNBPair = IDexFactory(router.factory()).createPair(router.WETH(), address(this));\n    _allowances[address(this)][address(router)] = type(uint256).max;\n\n    isFeeExempt[msg.sender] = true;\n    isFeeExempt[address(this)] = true;\n\n\t\tautoLiquidityReceiver = msg.sender;\n\t\tpairs.push(pcs2BNBPair);\n    _taxAddresses[pcs2BNBPair] = address(this);\n    _taxAmount[pcs2BNBPair] = 50;\n    _isLaunched[pcs2BNBPair] = false;\n    \n\t\t_balances[msg.sender] = _totalSupply;\n\n\t\temit Transfer(address(0), msg.sender, _totalSupply);\n\t}\n\n\treceive() external payable {}\n\n  function totalSupply() external view override returns (uint256) { return _totalSupply; }\n  function decimals() external pure override returns (uint8) { return _decimals; }\n  function symbol() external pure override returns (string memory) { return _symbol; }\n  function name() external pure override returns (string memory) { return _name; }\n  function getOwner() external view override returns (address) { return owner; }\n  function balanceOf(address account) public view override returns (uint256) { return _balances[account]; }\n  function burn(uint256 burnQuantity) public override returns (bool) {\n      _balances[msg.sender] = _balances[msg.sender] - burnQuantity;\n      _totalSupply = _totalSupply - burnQuantity;\n      emit Transfer(msg.sender, address(0), burnQuantity);\n      return true;\n  }\n  function allowance(address holder, address spender) external view override returns (uint256) { return _allowances[holder][spender]; }\n  function approve(address spender, uint256 amount) public override returns (bool) {\n      _allowances[msg.sender][spender] = amount;\n      emit Approval(msg.sender, spender, amount);\n      return true;\n  }\n  function approveMax(address spender) external returns (bool) { return approve(spender, type(uint256).max); }\n\n\n  function transfer(address recipient, uint256 amount) external override returns (bool) { return _transferFrom(msg.sender, recipient, amount); }\n\n\tfunction transferFrom(address sender, address recipient, uint256 amount) external override returns (bool) {\n    if (_allowances[sender][msg.sender] != type(uint256).max) {\n      require(_allowances[sender][msg.sender] >= amount, \"Insufficient Allowance\");\n      _allowances[sender][msg.sender] -= amount;\n    }\n\n    return _transferFrom(sender, recipient, amount);\n  }\n\n  function returnTradeAddress(address sender, address recipient) internal view returns (address) {\n    address[] memory liqPairs = pairs;\n    for (uint256 i = 0; i < liqPairs.length; i++) {\n      if (sender == liqPairs[i] || recipient == liqPairs[i]) {\n        return liqPairs[i];\n      }\n    }\n    return address(0);\n  }\n\n\tfunction _transferFrom(address sender, address recipient, uint256 amount) internal returns (bool) {\n\t\trequire(amount > 0);\n    address tradeAddress = returnTradeAddress(sender, recipient);\n\n    if (inSwap) {\n      return _basicTransfer(sender, recipient, amount);\n    }\n\n    // checks whether there is enouth tokens on balance to liquify the pair\n    if (shouldSwapBack(tradeAddress)) {\n        liquify();\n    }\n\n    // activates the liquidity on DEX\n    if (!_isLaunched[tradeAddress] && recipient == tradeAddress && tradeAddress != address(0)) {\n        require(_balances[sender] > 0);\n        require(sender == owner, \"Only the owner can be the first to add liquidity.\");\n        _isLaunched[tradeAddress] = !_isLaunched[tradeAddress];\n    }\n\n\t\trequire(amount <= _balances[sender], \"Insufficient Balance\");\n    _balances[sender] -= amount;\n\n    // checks whether it needs to take a fee and takes it before transferring to the \n    uint256 amountReceived = shouldTakeFee(sender, recipient, tradeAddress) ? takeFee(sender, amount, tradeAddress) : amount;\n    _balances[recipient] += amountReceived;\n    \n    emit Transfer(sender, recipient, amountReceived);\n    return true;\n    }\n\n\tfunction _basicTransfer(address sender, address recipient, uint256 amount) internal returns (bool) {\n\t\trequire(amount <= _balances[sender], \"Insufficient Balance\");\n        _balances[sender] -= amount;\n        _balances[recipient] += amount;\n        emit Transfer(sender, recipient, amount);\n        return true;\n  }\n\n\t// Decides whether this trade should take a fee.\n\t// Trades with pairs are always taxed, unless sender or receiver is exempted.\n\t// Non trades, like wallet to wallet, are configured, untaxed by default.\n\tfunction shouldTakeFee(address sender, address recipient, address tradeAddress) internal view returns (bool) {\n    if (isFeeExempt[sender] || isFeeExempt[recipient] || !_isLaunched[tradeAddress]) {\n\t\t\treturn false;\n\t\t}\n\n        address[] memory liqPairs = pairs;\n        for (uint256 i = 0; i < liqPairs.length; i++) {\n            if (sender == liqPairs[i] || recipient == liqPairs[i]) {\n\t\t\t\treturn true;\n\t\t\t}\n        }\n\n        return feeOnNonTrade;\n    }\n\n\tfunction takeFee(address sender, uint256 amount, address tradeAddress) internal returns (uint256) {\n\t\tif (!_isLaunched[tradeAddress]) { return amount; }\n\n\t\tuint256 liqFee = 0;\n    \n    // If there is a liquidity tax active for autoliq, the contract keeps it.\n    if (liquidityFee > 0) {\n      liqFee = amount * _taxAmount[tradeAddress] / feeDenominator;\n      _balances[_taxAddresses[tradeAddress]] += liqFee;\n      emit Transfer(sender, address(this), liqFee);\n    }\n\n    return amount - liqFee;\n  }\n\n  function shouldSwapBack(address tradeAddress) internal view returns (bool) {\n      return _isLaunched[tradeAddress]\n    && msg.sender != pcs2BNBPair\n          && !inSwap\n          && swapEnabled\n          && _balances[address(this)] >= swapThreshold;\n  }\n\n\tfunction setSwapEnabled(bool set) external authorized {\n\t\tswapEnabled = set;\n\t\temit AutoLiquifyEnabled(set);\n\t}\n\n\tfunction liquify() internal swapping {\n    // 500\n    uint256 amountToLiquify = balanceOf(address(this)) / 2;  // 250\n\t\t// uint256 balanceBefore = address(this).balance; // X BNB == 0\n\n    address[] memory path = new address[](2);\n    path[0] = address(this);\n    path[1] = router.WETH();\n\n    router.swapExactTokensForETHSupportingFeeOnTransferTokens(\n        amountToLiquify,\n        0,\n        path,\n        address(this),\n        block.timestamp\n    );\n\n\t\temit AutoLiquify(balanceOf(address(this)), amountToLiquify);\n  }\n\n\tfunction launched() internal view returns (bool) {\n        return launchedAt != 0;\n    }\n\n    function launch() internal {\n        launchedAt = block.number;\n    }\n\n    function setIsFeeExempt(address holder, bool exempt) external authorized {\n        isFeeExempt[holder] = exempt;\n    }\n\n    function setFees(uint256 _liquidityFee, uint256 _feeDenominator) external authorized {\n      liquidityFee = _liquidityFee;\n      feeDenominator = _feeDenominator;\n      require(_liquidityFee < feeDenominator / 5, \"Maximum allowed taxation on this contract is 20%.\");\n    }\n\n    function setLiquidityReceiver(address _autoLiquidityReceiver) external authorized {\n        autoLiquidityReceiver = _autoLiquidityReceiver;\n    }\n\n\t// Recover any BNB sent to the contract by mistake.\n\tfunction rescue() external {\n        payable(owner).transfer(address(this).balance);\n    }\n\n\tfunction addPair(address pair) external authorized {\n        pairs.push(pair);\n    }\n    \n    function removeLastPair() external authorized {\n        pairs.pop();\n    }\n}\n",
  "sourcePath": "/Users/viktor/Documents/Projects/solidity/hibiki/src/contracts/AI.sol",
  "compiler": {
    "name": "solc",
    "version": "0.8.0+commit.c7dfd78e.Emscripten.clang"
  },
  "schemaVersion": "3.4.1",
  "updatedAt": "2021-10-03T19:39:29.583Z",
  "networkType": "ethereum",
  "devdoc": {
    "kind": "dev",
    "methods": {
      "approve(address,uint256)": {
        "details": "Sets `amount` as the allowance of `spender` over the caller's tokens. Returns a boolean value indicating whether the operation succeeded. IMPORTANT: Beware that changing an allowance with this method brings the risk that someone may use both the old and the new allowance by unfortunate transaction ordering. One possible solution to mitigate this race condition is to first reduce the spender's allowance to 0 and set the desired value afterwards: https://github.com/ethereum/EIPs/issues/20#issuecomment-263524729 Emits an {Approval} event."
      },
      "balanceOf(address)": {
        "details": "Returns the amount of tokens owned by `account`."
      },
      "decimals()": {
        "details": "Returns the token decimals."
      },
      "getOwner()": {
        "details": "Returns the bep token owner."
      },
      "name()": {
        "details": "Returns the token name."
      },
      "symbol()": {
        "details": "Returns the token symbol."
      },
      "totalSupply()": {
        "details": "Returns the amount of tokens in existence."
      },
      "transfer(address,uint256)": {
        "details": "Moves `amount` tokens from the caller's account to `recipient`. Returns a boolean value indicating whether the operation succeeded. Emits a {Transfer} event."
      },
      "transferFrom(address,address,uint256)": {
        "details": "Moves `amount` tokens from `sender` to `recipient` using the allowance mechanism. `amount` is then deducted from the caller's allowance. Returns a boolean value indicating whether the operation succeeded. Emits a {Transfer} event."
      }
    },
    "version": 1
  },
  "userdoc": {
    "kind": "user",
    "methods": {
      "authorize(address)": {
        "notice": "Authorize address. Owner only"
      },
      "isAuthorized(address)": {
        "notice": "Return address' authorization status"
      },
      "isOwner(address)": {
        "notice": "Check if address is owner"
      },
      "transferOwnership(address)": {
        "notice": "Transfer ownership to new address. Caller must be owner. Leaves old owner authorized"
      },
      "unauthorize(address)": {
        "notice": "Remove address' authorization. Owner only"
      }
    },
    "version": 1
  }
}