{
  "contractName": "AI",
  "abi": [
    {
      "inputs": [
        {
          "internalType": "uint256",
          "name": "valueToMint",
          "type": "uint256"
        }
      ],
      "stateMutability": "nonpayable",
      "type": "constructor"
    },
    {
      "anonymous": false,
      "inputs": [
        {
          "indexed": true,
          "internalType": "address",
          "name": "owner",
          "type": "address"
        },
        {
          "indexed": true,
          "internalType": "address",
          "name": "spender",
          "type": "address"
        },
        {
          "indexed": false,
          "internalType": "uint256",
          "name": "value",
          "type": "uint256"
        }
      ],
      "name": "Approval",
      "type": "event"
    },
    {
      "anonymous": false,
      "inputs": [
        {
          "indexed": false,
          "internalType": "address",
          "name": "owner",
          "type": "address"
        }
      ],
      "name": "OwnershipTransferred",
      "type": "event"
    },
    {
      "anonymous": false,
      "inputs": [
        {
          "indexed": false,
          "internalType": "bool",
          "name": "enabledOrNot",
          "type": "bool"
        }
      ],
      "name": "TaxCollectionEnabled",
      "type": "event"
    },
    {
      "anonymous": false,
      "inputs": [
        {
          "indexed": true,
          "internalType": "address",
          "name": "from",
          "type": "address"
        },
        {
          "indexed": true,
          "internalType": "address",
          "name": "to",
          "type": "address"
        },
        {
          "indexed": false,
          "internalType": "uint256",
          "name": "value",
          "type": "uint256"
        }
      ],
      "name": "Transfer",
      "type": "event"
    },
    {
      "inputs": [],
      "name": "SECONDS_IN_A_DAY",
      "outputs": [
        {
          "internalType": "uint256",
          "name": "",
          "type": "uint256"
        }
      ],
      "stateMutability": "view",
      "type": "function",
      "constant": true
    },
    {
      "inputs": [],
      "name": "ai2bnb",
      "outputs": [
        {
          "internalType": "address",
          "name": "",
          "type": "address"
        }
      ],
      "stateMutability": "view",
      "type": "function",
      "constant": true
    },
    {
      "inputs": [],
      "name": "aiSnapshot",
      "outputs": [
        {
          "internalType": "uint256",
          "name": "",
          "type": "uint256"
        }
      ],
      "stateMutability": "view",
      "type": "function",
      "constant": true
    },
    {
      "inputs": [
        {
          "internalType": "address",
          "name": "adr",
          "type": "address"
        }
      ],
      "name": "authorize",
      "outputs": [],
      "stateMutability": "nonpayable",
      "type": "function"
    },
    {
      "inputs": [],
      "name": "emissionEnd",
      "outputs": [
        {
          "internalType": "uint256",
          "name": "",
          "type": "uint256"
        }
      ],
      "stateMutability": "view",
      "type": "function",
      "constant": true
    },
    {
      "inputs": [],
      "name": "emissionPerDay",
      "outputs": [
        {
          "internalType": "uint256",
          "name": "",
          "type": "uint256"
        }
      ],
      "stateMutability": "view",
      "type": "function",
      "constant": true
    },
    {
      "inputs": [],
      "name": "feeOnNonTrade",
      "outputs": [
        {
          "internalType": "bool",
          "name": "",
          "type": "bool"
        }
      ],
      "stateMutability": "view",
      "type": "function",
      "constant": true
    },
    {
      "inputs": [
        {
          "internalType": "address",
          "name": "adr",
          "type": "address"
        }
      ],
      "name": "isAuthorized",
      "outputs": [
        {
          "internalType": "bool",
          "name": "",
          "type": "bool"
        }
      ],
      "stateMutability": "view",
      "type": "function",
      "constant": true
    },
    {
      "inputs": [
        {
          "internalType": "address",
          "name": "account",
          "type": "address"
        }
      ],
      "name": "isOwner",
      "outputs": [
        {
          "internalType": "bool",
          "name": "",
          "type": "bool"
        }
      ],
      "stateMutability": "view",
      "type": "function",
      "constant": true
    },
    {
      "inputs": [],
      "name": "swapEnabled",
      "outputs": [
        {
          "internalType": "bool",
          "name": "",
          "type": "bool"
        }
      ],
      "stateMutability": "view",
      "type": "function",
      "constant": true
    },
    {
      "inputs": [
        {
          "internalType": "address payable",
          "name": "adr",
          "type": "address"
        }
      ],
      "name": "transferOwnership",
      "outputs": [],
      "stateMutability": "nonpayable",
      "type": "function"
    },
    {
      "inputs": [
        {
          "internalType": "address",
          "name": "adr",
          "type": "address"
        }
      ],
      "name": "unauthorize",
      "outputs": [],
      "stateMutability": "nonpayable",
      "type": "function"
    },
    {
      "stateMutability": "payable",
      "type": "receive",
      "payable": true
    },
    {
      "inputs": [],
      "name": "totalSupply",
      "outputs": [
        {
          "internalType": "uint256",
          "name": "",
          "type": "uint256"
        }
      ],
      "stateMutability": "view",
      "type": "function",
      "constant": true
    },
    {
      "inputs": [],
      "name": "decimals",
      "outputs": [
        {
          "internalType": "uint8",
          "name": "",
          "type": "uint8"
        }
      ],
      "stateMutability": "pure",
      "type": "function",
      "constant": true
    },
    {
      "inputs": [],
      "name": "symbol",
      "outputs": [
        {
          "internalType": "string",
          "name": "",
          "type": "string"
        }
      ],
      "stateMutability": "pure",
      "type": "function",
      "constant": true
    },
    {
      "inputs": [],
      "name": "name",
      "outputs": [
        {
          "internalType": "string",
          "name": "",
          "type": "string"
        }
      ],
      "stateMutability": "pure",
      "type": "function",
      "constant": true
    },
    {
      "inputs": [],
      "name": "getOwner",
      "outputs": [
        {
          "internalType": "address",
          "name": "",
          "type": "address"
        }
      ],
      "stateMutability": "view",
      "type": "function",
      "constant": true
    },
    {
      "inputs": [
        {
          "internalType": "address",
          "name": "account",
          "type": "address"
        }
      ],
      "name": "balanceOf",
      "outputs": [
        {
          "internalType": "uint256",
          "name": "",
          "type": "uint256"
        }
      ],
      "stateMutability": "view",
      "type": "function",
      "constant": true
    },
    {
      "inputs": [
        {
          "internalType": "uint256",
          "name": "burnQuantity",
          "type": "uint256"
        }
      ],
      "name": "burn",
      "outputs": [
        {
          "internalType": "bool",
          "name": "",
          "type": "bool"
        }
      ],
      "stateMutability": "nonpayable",
      "type": "function"
    },
    {
      "inputs": [
        {
          "internalType": "address",
          "name": "holder",
          "type": "address"
        },
        {
          "internalType": "address",
          "name": "spender",
          "type": "address"
        }
      ],
      "name": "allowance",
      "outputs": [
        {
          "internalType": "uint256",
          "name": "",
          "type": "uint256"
        }
      ],
      "stateMutability": "view",
      "type": "function",
      "constant": true
    },
    {
      "inputs": [
        {
          "internalType": "address",
          "name": "spender",
          "type": "address"
        },
        {
          "internalType": "uint256",
          "name": "amount",
          "type": "uint256"
        }
      ],
      "name": "approve",
      "outputs": [
        {
          "internalType": "bool",
          "name": "",
          "type": "bool"
        }
      ],
      "stateMutability": "nonpayable",
      "type": "function"
    },
    {
      "inputs": [
        {
          "internalType": "address",
          "name": "spender",
          "type": "address"
        }
      ],
      "name": "approveMax",
      "outputs": [
        {
          "internalType": "bool",
          "name": "",
          "type": "bool"
        }
      ],
      "stateMutability": "nonpayable",
      "type": "function"
    },
    {
      "inputs": [
        {
          "internalType": "address",
          "name": "recipient",
          "type": "address"
        },
        {
          "internalType": "uint256",
          "name": "amount",
          "type": "uint256"
        }
      ],
      "name": "transfer",
      "outputs": [
        {
          "internalType": "bool",
          "name": "",
          "type": "bool"
        }
      ],
      "stateMutability": "nonpayable",
      "type": "function"
    },
    {
      "inputs": [
        {
          "internalType": "address",
          "name": "sender",
          "type": "address"
        },
        {
          "internalType": "address",
          "name": "recipient",
          "type": "address"
        },
        {
          "internalType": "uint256",
          "name": "amount",
          "type": "uint256"
        }
      ],
      "name": "transferFrom",
      "outputs": [
        {
          "internalType": "bool",
          "name": "",
          "type": "bool"
        }
      ],
      "stateMutability": "nonpayable",
      "type": "function"
    },
    {
      "inputs": [
        {
          "internalType": "address",
          "name": "recipient",
          "type": "address"
        },
        {
          "internalType": "uint256",
          "name": "amount",
          "type": "uint256"
        }
      ],
      "name": "basicTransfer",
      "outputs": [
        {
          "internalType": "bool",
          "name": "",
          "type": "bool"
        }
      ],
      "stateMutability": "nonpayable",
      "type": "function"
    },
    {
      "inputs": [
        {
          "internalType": "bool",
          "name": "set",
          "type": "bool"
        }
      ],
      "name": "setSwapEnabled",
      "outputs": [],
      "stateMutability": "nonpayable",
      "type": "function"
    },
    {
      "inputs": [
        {
          "internalType": "address",
          "name": "holder",
          "type": "address"
        },
        {
          "internalType": "bool",
          "name": "exempt",
          "type": "bool"
        }
      ],
      "name": "setIsFeeExempt",
      "outputs": [],
      "stateMutability": "nonpayable",
      "type": "function"
    },
    {
      "inputs": [],
      "name": "rescue",
      "outputs": [],
      "stateMutability": "nonpayable",
      "type": "function"
    },
    {
      "inputs": [
        {
          "internalType": "address",
          "name": "pair",
          "type": "address"
        },
        {
          "internalType": "address",
          "name": "taxAddress",
          "type": "address"
        },
        {
          "internalType": "uint256",
          "name": "_newTaxAmount",
          "type": "uint256"
        }
      ],
      "name": "addPair",
      "outputs": [],
      "stateMutability": "nonpayable",
      "type": "function"
    },
    {
      "inputs": [],
      "name": "removeLastPair",
      "outputs": [],
      "stateMutability": "nonpayable",
      "type": "function"
    },
    {
      "inputs": [
        {
          "internalType": "address",
          "name": "pairAddressToRemove",
          "type": "address"
        }
      ],
      "name": "removePair",
      "outputs": [],
      "stateMutability": "nonpayable",
      "type": "function"
    },
    {
      "inputs": [
        {
          "internalType": "uint256",
          "name": "tokenIndex",
          "type": "uint256"
        }
      ],
      "name": "lastClaim",
      "outputs": [
        {
          "internalType": "uint256",
          "name": "",
          "type": "uint256"
        }
      ],
      "stateMutability": "view",
      "type": "function",
      "constant": true
    },
    {
      "inputs": [
        {
          "internalType": "uint256",
          "name": "tokenIndex",
          "type": "uint256"
        }
      ],
      "name": "accumulated",
      "outputs": [
        {
          "internalType": "uint256",
          "name": "",
          "type": "uint256"
        }
      ],
      "stateMutability": "view",
      "type": "function",
      "constant": true
    },
    {
      "inputs": [
        {
          "internalType": "uint256[]",
          "name": "tokenIndices",
          "type": "uint256[]"
        }
      ],
      "name": "claim",
      "outputs": [
        {
          "internalType": "uint256",
          "name": "",
          "type": "uint256"
        }
      ],
      "stateMutability": "nonpayable",
      "type": "function"
    },
    {
      "inputs": [
        {
          "internalType": "uint256",
          "name": "_newEmissionPerDay",
          "type": "uint256"
        }
      ],
      "name": "changeEmissionPerDay",
      "outputs": [],
      "stateMutability": "nonpayable",
      "type": "function"
    },
    {
      "inputs": [
        {
          "internalType": "address",
          "name": "tradeAddress",
          "type": "address"
        },
        {
          "internalType": "address",
          "name": "taxAddress",
          "type": "address"
        },
        {
          "internalType": "uint256",
          "name": "_newTaxAmount",
          "type": "uint256"
        }
      ],
      "name": "changeTaxAddressAndAmount",
      "outputs": [],
      "stateMutability": "nonpayable",
      "type": "function"
    }
  ],
  "bytecode": "0x6080604052671feb3dd067660000600255678ac7230489e800006003556103e8600c556000600d60006101000a81548160ff02191690831515021790555073dda79d8c0998a19eca7fe6aaabfcee980e66f982600e60006101000a81548173ffffffffffffffffffffffffffffffffffffffff021916908373ffffffffffffffffffffffffffffffffffffffff160217905550600e60009054906101000a900473ffffffffffffffffffffffffffffffffffffffff16601160006101000a81548173ffffffffffffffffffffffffffffffffffffffff021916908373ffffffffffffffffffffffffffffffffffffffff1602179055506001601160146101000a81548160ff0219169083151502179055503480156200011d57600080fd5b506040516200587038038062005870833981810160405281019062000143919062000a6f565b33806000806101000a81548173ffffffffffffffffffffffffffffffffffffffff021916908373ffffffffffffffffffffffffffffffffffffffff16021790555060018060008373ffffffffffffffffffffffffffffffffffffffff1673ffffffffffffffffffffffffffffffffffffffff16815260200190815260200160002060006101000a81548160ff02191690831515021790555050733380ae82e39e42ca34ebed69af67faa0683bb5c1601060006101000a81548173ffffffffffffffffffffffffffffffffffffffff021916908373ffffffffffffffffffffffffffffffffffffffff160217905550601060009054906101000a900473ffffffffffffffffffffffffffffffffffffffff1673ffffffffffffffffffffffffffffffffffffffff1663c45a01556040518163ffffffff1660e01b815260040160206040518083038186803b1580156200029a57600080fd5b505afa158015620002af573d6000803e3d6000fd5b505050506040513d601f19601f82011682018060405250810190620002d5919062000a43565b73ffffffffffffffffffffffffffffffffffffffff1663c9c65396601060009054906101000a900473ffffffffffffffffffffffffffffffffffffffff1673ffffffffffffffffffffffffffffffffffffffff1663ad5c46486040518163ffffffff1660e01b815260040160206040518083038186803b1580156200035957600080fd5b505afa1580156200036e573d6000803e3d6000fd5b505050506040513d601f19601f8201168201806040525081019062000394919062000a43565b306040518363ffffffff1660e01b8152600401620003b492919062000b41565b602060405180830381600087803b158015620003cf57600080fd5b505af1158015620003e4573d6000803e3d6000fd5b505050506040513d601f19601f820116820180604052508101906200040a919062000a43565b600d60016101000a81548173ffffffffffffffffffffffffffffffffffffffff021916908373ffffffffffffffffffffffffffffffffffffffff1602179055507fffffffffffffffffffffffffffffffffffffffffffffffffffffffffffffffff600660003073ffffffffffffffffffffffffffffffffffffffff1673ffffffffffffffffffffffffffffffffffffffff1681526020019081526020016000206000601060009054906101000a900473ffffffffffffffffffffffffffffffffffffffff1673ffffffffffffffffffffffffffffffffffffffff1673ffffffffffffffffffffffffffffffffffffffff168152602001908152602001600020819055506001600760003373ffffffffffffffffffffffffffffffffffffffff1673ffffffffffffffffffffffffffffffffffffffff16815260200190815260200160002060006101000a81548160ff0219169083151502179055506001600760003073ffffffffffffffffffffffffffffffffffffffff1673ffffffffffffffffffffffffffffffffffffffff16815260200190815260200160002060006101000a81548160ff021916908315150217905550600f600d60019054906101000a900473ffffffffffffffffffffffffffffffffffffffff169080600181540180825580915050600190039060005260206000200160009091909190916101000a81548173ffffffffffffffffffffffffffffffffffffffff021916908373ffffffffffffffffffffffffffffffffffffffff1602179055503060096000600d60019054906101000a900473ffffffffffffffffffffffffffffffffffffffff1673ffffffffffffffffffffffffffffffffffffffff1673ffffffffffffffffffffffffffffffffffffffff16815260200190815260200160002060006101000a81548173ffffffffffffffffffffffffffffffffffffffff021916908373ffffffffffffffffffffffffffffffffffffffff1602179055506032600a6000600d60019054906101000a900473ffffffffffffffffffffffffffffffffffffffff1673ffffffffffffffffffffffffffffffffffffffff1673ffffffffffffffffffffffffffffffffffffffff168152602001908152602001600020819055506000600b6000600d60019054906101000a900473ffffffffffffffffffffffffffffffffffffffff1673ffffffffffffffffffffffffffffffffffffffff1673ffffffffffffffffffffffffffffffffffffffff16815260200190815260200160002060006101000a81548160ff021916908315150217905550620007f560008054906101000a900473ffffffffffffffffffffffffffffffffffffffff1682620007fc60201b60201c565b5062000cde565b600073ffffffffffffffffffffffffffffffffffffffff168273ffffffffffffffffffffffffffffffffffffffff1614156200086f576040517f08c379a0000000000000000000000000000000000000000000000000000000008152600401620008669062000b90565b60405180910390fd5b6200088360008383620009ad60201b60201c565b6200089f81600454620009b260201b620024e51790919060201c565b600481905550620008fe81600560008573ffffffffffffffffffffffffffffffffffffffff1673ffffffffffffffffffffffffffffffffffffffff16815260200190815260200160002054620009b260201b620024e51790919060201c565b600560008473ffffffffffffffffffffffffffffffffffffffff1673ffffffffffffffffffffffffffffffffffffffff168152602001908152602001600020819055508173ffffffffffffffffffffffffffffffffffffffff16600073ffffffffffffffffffffffffffffffffffffffff167fddf252ad1be2c89b69c2b068fc378daa952ba7f163c4a11628f55a4df523b3ef83604051620009a1919062000bb2565b60405180910390a35050565b505050565b6000808284620009c3919062000be0565b90508381101562000a0b576040517f08c379a000000000000000000000000000000000000000000000000000000000815260040162000a029062000b6e565b60405180910390fd5b8091505092915050565b60008151905062000a268162000caa565b92915050565b60008151905062000a3d8162000cc4565b92915050565b60006020828403121562000a5657600080fd5b600062000a668482850162000a15565b91505092915050565b60006020828403121562000a8257600080fd5b600062000a928482850162000a2c565b91505092915050565b62000aa68162000c3d565b82525050565b600062000abb601b8362000bcf565b91507f536166654d6174683a206164646974696f6e206f766572666c6f7700000000006000830152602082019050919050565b600062000afd601f8362000bcf565b91507f45524332303a206d696e7420746f20746865207a65726f2061646472657373006000830152602082019050919050565b62000b3b8162000c71565b82525050565b600060408201905062000b58600083018562000a9b565b62000b67602083018462000a9b565b9392505050565b6000602082019050818103600083015262000b898162000aac565b9050919050565b6000602082019050818103600083015262000bab8162000aee565b9050919050565b600060208201905062000bc9600083018462000b30565b92915050565b600082825260208201905092915050565b600062000bed8262000c71565b915062000bfa8362000c71565b9250827fffffffffffffffffffffffffffffffffffffffffffffffffffffffffffffffff0382111562000c325762000c3162000c7b565b5b828201905092915050565b600062000c4a8262000c51565b9050919050565b600073ffffffffffffffffffffffffffffffffffffffff82169050919050565b6000819050919050565b7f4e487b7100000000000000000000000000000000000000000000000000000000600052601160045260246000fd5b62000cb58162000c3d565b811462000cc157600080fd5b50565b62000ccf8162000c71565b811462000cdb57600080fd5b50565b614b828062000cee6000396000f3fe6080604052600436106102125760003560e01c80637a5aec4411610118578063b5acfa62116100a0578063e01af92c1161006f578063e01af92c146107f7578063f0b37c0414610820578063f2fde38b14610849578063f9cfa06f14610872578063fe9fbb801461089d57610219565b8063b5acfa621461072b578063b6a5d7de14610754578063c607cde71461077d578063dd62ed3e146107ba57610219565b806395d89b41116100e757806395d89b4114610644578063a9059cbb1461066f578063af6c9c1d146106ac578063b08b9b46146106d5578063b551b82f1461070057610219565b80637a5aec44146105865780637b0b003e146105c35780638368909c146105ee578063893d20e81461061957610219565b806342966c681161019b578063658d4b7f1161016a578063658d4b7f1461048f5780636ba4c138146104b85780636ddd1713146104f557806370a0823114610520578063715702611461055d57610219565b806342966c68146103c15780634747d509146103fe578063571ac8b0146104295780635e0a12801461046657610219565b80631fbe1979116101e25780631fbe1979146102c857806323b872dd146102df5780632f54bf6e1461031c578063313ce567146103595780633d3728b51461038457610219565b806293dc141461021e57806306fdde0314610235578063095ea7b31461026057806318160ddd1461029d57610219565b3661021957005b600080fd5b34801561022a57600080fd5b506102336108da565b005b34801561024157600080fd5b5061024a610991565b6040516102579190614533565b60405180910390f35b34801561026c57600080fd5b5061028760048036038101906102829190613e3f565b6109ce565b6040516102949190614518565b60405180910390f35b3480156102a957600080fd5b506102b2610ac0565b6040516102bf9190614775565b60405180910390f35b3480156102d457600080fd5b506102dd610aca565b005b3480156102eb57600080fd5b5061030660048036038101906103019190613db4565b610b4a565b6040516103139190614518565b60405180910390f35b34801561032857600080fd5b50610343600480360381019061033e9190613cfd565b610d56565b6040516103509190614518565b60405180910390f35b34801561036557600080fd5b5061036e610daf565b60405161037b9190614790565b60405180910390f35b34801561039057600080fd5b506103ab60048036038101906103a69190613f0e565b610db8565b6040516103b89190614775565b60405180910390f35b3480156103cd57600080fd5b506103e860048036038101906103e39190613f0e565b610f1a565b6040516103f59190614518565b60405180910390f35b34801561040a57600080fd5b5061041361103b565b6040516104209190614775565b60405180910390f35b34801561043557600080fd5b50610450600480360381019061044b9190613cfd565b611043565b60405161045d9190614518565b60405180910390f35b34801561047257600080fd5b5061048d60048036038101906104889190613db4565b611076565b005b34801561049b57600080fd5b506104b660048036038101906104b19190613e03565b6113c0565b005b3480156104c457600080fd5b506104df60048036038101906104da9190613e7b565b611463565b6040516104ec9190614775565b60405180910390f35b34801561050157600080fd5b5061050a611896565b6040516105179190614518565b60405180910390f35b34801561052c57600080fd5b5061054760048036038101906105429190613cfd565b6118a9565b6040516105549190614775565b60405180910390f35b34801561056957600080fd5b50610584600480360381019061057f9190613f0e565b6118f2565b005b34801561059257600080fd5b506105ad60048036038101906105a89190613e3f565b611995565b6040516105ba9190614518565b60405180910390f35b3480156105cf57600080fd5b506105d86119aa565b6040516105e591906144e2565b60405180910390f35b3480156105fa57600080fd5b506106036119d0565b6040516106109190614775565b60405180910390f35b34801561062557600080fd5b5061062e6119d8565b60405161063b91906144e2565b60405180910390f35b34801561065057600080fd5b50610659611a01565b6040516106669190614533565b60405180910390f35b34801561067b57600080fd5b5061069660048036038101906106919190613e3f565b611a3e565b6040516106a39190614518565b60405180910390f35b3480156106b857600080fd5b506106d360048036038101906106ce9190613cfd565b611a53565b005b3480156106e157600080fd5b506106ea611c9f565b6040516106f79190614518565b60405180910390f35b34801561070c57600080fd5b50610715611cb2565b6040516107229190614775565b60405180910390f35b34801561073757600080fd5b50610752600480360381019061074d9190613db4565b611cb8565b005b34801561076057600080fd5b5061077b60048036038101906107769190613cfd565b611e82565b005b34801561078957600080fd5b506107a4600480360381019061079f9190613f0e565b611f24565b6040516107b19190614775565b60405180910390f35b3480156107c657600080fd5b506107e160048036038101906107dc9190613d78565b6121a9565b6040516107ee9190614775565b60405180910390f35b34801561080357600080fd5b5061081e60048036038101906108199190613ebc565b612230565b005b34801561082c57600080fd5b5061084760048036038101906108429190613cfd565b6122cc565b005b34801561085557600080fd5b50610870600480360381019061086b9190613d4f565b61236f565b005b34801561087e57600080fd5b50610887612488565b6040516108949190614775565b60405180910390f35b3480156108a957600080fd5b506108c460048036038101906108bf9190613cfd565b61248f565b6040516108d19190614518565b60405180910390f35b6108e33361248f565b610922576040517f08c379a000000000000000000000000000000000000000000000000000000000815260040161091990614715565b60405180910390fd5b600f80548061095a577f4e487b7100000000000000000000000000000000000000000000000000000000600052603160045260246000fd5b6001900381819060005260206000200160006101000a81549073ffffffffffffffffffffffffffffffffffffffff02191690559055565b60606040518060400160405280600481526020017f4149763200000000000000000000000000000000000000000000000000000000815250905090565b600081600660003373ffffffffffffffffffffffffffffffffffffffff1673ffffffffffffffffffffffffffffffffffffffff16815260200190815260200160002060008573ffffffffffffffffffffffffffffffffffffffff1673ffffffffffffffffffffffffffffffffffffffff168152602001908152602001600020819055508273ffffffffffffffffffffffffffffffffffffffff163373ffffffffffffffffffffffffffffffffffffffff167f8c5be1e5ebec7d5bd14f71427d1e84f3dd0314c0f7b2291e5b200ac8c7c3b92584604051610aae9190614775565b60405180910390a36001905092915050565b6000600454905090565b60008054906101000a900473ffffffffffffffffffffffffffffffffffffffff1673ffffffffffffffffffffffffffffffffffffffff166108fc3073ffffffffffffffffffffffffffffffffffffffff16319081150290604051600060405180830381858888f19350505050158015610b47573d6000803e3d6000fd5b50565b60007fffffffffffffffffffffffffffffffffffffffffffffffffffffffffffffffff600660008673ffffffffffffffffffffffffffffffffffffffff1673ffffffffffffffffffffffffffffffffffffffff16815260200190815260200160002060003373ffffffffffffffffffffffffffffffffffffffff1673ffffffffffffffffffffffffffffffffffffffff1681526020019081526020016000205414610d425781600660008673ffffffffffffffffffffffffffffffffffffffff1673ffffffffffffffffffffffffffffffffffffffff16815260200190815260200160002060003373ffffffffffffffffffffffffffffffffffffffff1673ffffffffffffffffffffffffffffffffffffffff168152602001908152602001600020541015610cae576040517f08c379a0000000000000000000000000000000000000000000000000000000008152600401610ca590614575565b60405180910390fd5b81600660008673ffffffffffffffffffffffffffffffffffffffff1673ffffffffffffffffffffffffffffffffffffffff16815260200190815260200160002060003373ffffffffffffffffffffffffffffffffffffffff1673ffffffffffffffffffffffffffffffffffffffff1681526020019081526020016000206000828254610d3a9190614905565b925050819055505b610d4d848484612543565b90509392505050565b60008060009054906101000a900473ffffffffffffffffffffffffffffffffffffffff1673ffffffffffffffffffffffffffffffffffffffff168273ffffffffffffffffffffffffffffffffffffffff16149050919050565b60006012905090565b60008073ffffffffffffffffffffffffffffffffffffffff16601160009054906101000a900473ffffffffffffffffffffffffffffffffffffffff1673ffffffffffffffffffffffffffffffffffffffff16636352211e846040518263ffffffff1660e01b8152600401610e2c9190614775565b60206040518083038186803b158015610e4457600080fd5b505afa158015610e58573d6000803e3d6000fd5b505050506040513d601f19601f82011682018060405250810190610e7c9190613d26565b73ffffffffffffffffffffffffffffffffffffffff161415610ed3576040517f08c379a0000000000000000000000000000000000000000000000000000000008152600401610eca906145f5565b60405180910390fd5b60008060086000858152602001908152602001600020541415610efa57636148c1b5610f0f565b60086000848152602001908152602001600020545b905080915050919050565b6000610f6e82600560003373ffffffffffffffffffffffffffffffffffffffff1673ffffffffffffffffffffffffffffffffffffffff16815260200190815260200160002054612b7590919063ffffffff16565b600560003373ffffffffffffffffffffffffffffffffffffffff1673ffffffffffffffffffffffffffffffffffffffff16815260200190815260200160002081905550610fc682600454612b7590919063ffffffff16565b600481905550600073ffffffffffffffffffffffffffffffffffffffff163373ffffffffffffffffffffffffffffffffffffffff167fddf252ad1be2c89b69c2b068fc378daa952ba7f163c4a11628f55a4df523b3ef8460405161102a9190614775565b60405180910390a360019050919050565b636148c1b581565b600061106f827fffffffffffffffffffffffffffffffffffffffffffffffffffffffffffffffff6109ce565b9050919050565b61107f33610d56565b6110be576040517f08c379a00000000000000000000000000000000000000000000000000000000081526004016110b5906146b5565b60405180910390fd5b600081101580156110d0575060c88111155b61110f576040517f08c379a0000000000000000000000000000000000000000000000000000000008152600401611106906145d5565b60405180910390fd5b600073ffffffffffffffffffffffffffffffffffffffff16600960008573ffffffffffffffffffffffffffffffffffffffff1673ffffffffffffffffffffffffffffffffffffffff16815260200190815260200160002060009054906101000a900473ffffffffffffffffffffffffffffffffffffffff1673ffffffffffffffffffffffffffffffffffffffff1614156111de576040517f08c379a00000000000000000000000000000000000000000000000000000000081526004016111d590614755565b60405180910390fd5b7fffffffffffffffffffffffffffffffffffffffffffffffffffffffffffffffff600660008473ffffffffffffffffffffffffffffffffffffffff1673ffffffffffffffffffffffffffffffffffffffff1681526020019081526020016000206000601060009054906101000a900473ffffffffffffffffffffffffffffffffffffffff1673ffffffffffffffffffffffffffffffffffffffff1673ffffffffffffffffffffffffffffffffffffffff1681526020019081526020016000208190555081600960008573ffffffffffffffffffffffffffffffffffffffff1673ffffffffffffffffffffffffffffffffffffffff16815260200190815260200160002060006101000a81548173ffffffffffffffffffffffffffffffffffffffff021916908373ffffffffffffffffffffffffffffffffffffffff16021790555080600a60008573ffffffffffffffffffffffffffffffffffffffff1673ffffffffffffffffffffffffffffffffffffffff168152602001908152602001600020819055506001600760008473ffffffffffffffffffffffffffffffffffffffff1673ffffffffffffffffffffffffffffffffffffffff16815260200190815260200160002060006101000a81548160ff021916908315150217905550505050565b6113c93361248f565b611408576040517f08c379a00000000000000000000000000000000000000000000000000000000081526004016113ff90614715565b60405180910390fd5b80600760008473ffffffffffffffffffffffffffffffffffffffff1673ffffffffffffffffffffffffffffffffffffffff16815260200190815260200160002060006101000a81548160ff0219169083151502179055505050565b6000806000905060005b835181101561183e57601160009054906101000a900473ffffffffffffffffffffffffffffffffffffffff1673ffffffffffffffffffffffffffffffffffffffff166318160ddd6040518163ffffffff1660e01b815260040160206040518083038186803b1580156114de57600080fd5b505afa1580156114f2573d6000803e3d6000fd5b505050506040513d601f19601f820116820180604052508101906115169190613f37565b84828151811061154f577f4e487b7100000000000000000000000000000000000000000000000000000000600052603260045260246000fd5b602002602001015110611597576040517f08c379a000000000000000000000000000000000000000000000000000000000815260040161158e906146d5565b60405180910390fd5b60006001826115a69190614824565b90505b8451811015611688578481815181106115eb577f4e487b7100000000000000000000000000000000000000000000000000000000600052603260045260246000fd5b602002602001015185838151811061162c577f4e487b7100000000000000000000000000000000000000000000000000000000600052603260045260246000fd5b60200260200101511415611675576040517f08c379a000000000000000000000000000000000000000000000000000000000815260040161166c90614615565b60405180910390fd5b808061168090614a09565b9150506115a9565b5060008482815181106116c4577f4e487b7100000000000000000000000000000000000000000000000000000000600052603260045260246000fd5b602002602001015190503373ffffffffffffffffffffffffffffffffffffffff16601160009054906101000a900473ffffffffffffffffffffffffffffffffffffffff1673ffffffffffffffffffffffffffffffffffffffff16636352211e836040518263ffffffff1660e01b81526004016117409190614775565b60206040518083038186803b15801561175857600080fd5b505afa15801561176c573d6000803e3d6000fd5b505050506040513d601f19601f820116820180604052508101906117909190613d26565b73ffffffffffffffffffffffffffffffffffffffff16146117e6576040517f08c379a00000000000000000000000000000000000000000000000000000000081526004016117dd90614655565b60405180910390fd5b60006117f182611f24565b9050600081146118295761180e81856124e590919063ffffffff16565b93504260086000848152602001908152602001600020819055505b5050808061183690614a09565b91505061146d565b506000811415611883576040517f08c379a000000000000000000000000000000000000000000000000000000000815260040161187a906146f5565b60405180910390fd5b61188d3382612bbf565b80915050919050565b601160149054906101000a900460ff1681565b6000600560008373ffffffffffffffffffffffffffffffffffffffff1673ffffffffffffffffffffffffffffffffffffffff168152602001908152602001600020549050919050565b6118fb33610d56565b61193a576040517f08c379a0000000000000000000000000000000000000000000000000000000008152600401611931906146b5565b60405180910390fd5b60008110158061194c57506003548111155b61198b576040517f08c379a000000000000000000000000000000000000000000000000000000000815260040161198290614675565b60405180910390fd5b8060028190555050565b60006119a2338484612d55565b905092915050565b600d60019054906101000a900473ffffffffffffffffffffffffffffffffffffffff1681565b6373407f9081565b60008060009054906101000a900473ffffffffffffffffffffffffffffffffffffffff16905090565b60606040518060400160405280600281526020017f4149000000000000000000000000000000000000000000000000000000000000815250905090565b6000611a4b338484612543565b905092915050565b611a5c33610d56565b611a9b576040517f08c379a0000000000000000000000000000000000000000000000000000000008152600401611a92906146b5565b60405180910390fd5b611aa481612ef5565b611ae3576040517f08c379a0000000000000000000000000000000000000000000000000000000008152600401611ada90614595565b60405180910390fd5b6000611b016001611af384612fdd565b612b7590919063ffffffff16565b905060008190505b6001600f80549050611b1b9190614905565b811015611c2d57600f6001600f80549050611b369190614905565b81548110611b6d577f4e487b7100000000000000000000000000000000000000000000000000000000600052603260045260246000fd5b9060005260206000200160009054906101000a900473ffffffffffffffffffffffffffffffffffffffff16600f8281548110611bd2577f4e487b7100000000000000000000000000000000000000000000000000000000600052603260045260246000fd5b9060005260206000200160006101000a81548173ffffffffffffffffffffffffffffffffffffffff021916908373ffffffffffffffffffffffffffffffffffffffff1602179055508080611c2590614a09565b915050611b09565b50600f805480611c66577f4e487b7100000000000000000000000000000000000000000000000000000000600052603160045260246000fd5b6001900381819060005260206000200160006101000a81549073ffffffffffffffffffffffffffffffffffffffff021916905590555050565b600d60009054906101000a900460ff1681565b60025481565b611cc13361248f565b611d00576040517f08c379a0000000000000000000000000000000000000000000000000000000008152600401611cf790614715565b60405180910390fd5b600f839080600181540180825580915050600190039060005260206000200160009091909190916101000a81548173ffffffffffffffffffffffffffffffffffffffff021916908373ffffffffffffffffffffffffffffffffffffffff16021790555081600960008573ffffffffffffffffffffffffffffffffffffffff1673ffffffffffffffffffffffffffffffffffffffff16815260200190815260200160002060006101000a81548173ffffffffffffffffffffffffffffffffffffffff021916908373ffffffffffffffffffffffffffffffffffffffff16021790555080600a60008573ffffffffffffffffffffffffffffffffffffffff1673ffffffffffffffffffffffffffffffffffffffff168152602001908152602001600020819055506001600760008573ffffffffffffffffffffffffffffffffffffffff1673ffffffffffffffffffffffffffffffffffffffff16815260200190815260200160002060006101000a81548160ff021916908315150217905550505050565b611e8b33610d56565b611eca576040517f08c379a0000000000000000000000000000000000000000000000000000000008152600401611ec1906146b5565b60405180910390fd5b60018060008373ffffffffffffffffffffffffffffffffffffffff1673ffffffffffffffffffffffffffffffffffffffff16815260200190815260200160002060006101000a81548160ff02191690831515021790555050565b60008073ffffffffffffffffffffffffffffffffffffffff16601160009054906101000a900473ffffffffffffffffffffffffffffffffffffffff1673ffffffffffffffffffffffffffffffffffffffff16636352211e846040518263ffffffff1660e01b8152600401611f989190614775565b60206040518083038186803b158015611fb057600080fd5b505afa158015611fc4573d6000803e3d6000fd5b505050506040513d601f19601f82011682018060405250810190611fe89190613d26565b73ffffffffffffffffffffffffffffffffffffffff16141561203f576040517f08c379a0000000000000000000000000000000000000000000000000000000008152600401612036906145f5565b60405180910390fd5b601160009054906101000a900473ffffffffffffffffffffffffffffffffffffffff1673ffffffffffffffffffffffffffffffffffffffff166318160ddd6040518163ffffffff1660e01b815260040160206040518083038186803b1580156120a757600080fd5b505afa1580156120bb573d6000803e3d6000fd5b505050506040513d601f19601f820116820180604052508101906120df9190613f37565b8210612120576040517f08c379a0000000000000000000000000000000000000000000000000000000008152600401612117906146d5565b60405180910390fd5b600061212b83610db8565b90506373407f9081106121425760009150506121a4565b60006373407f904210612159576373407f9061215b565b425b9050600061219b6201518061218d60025461217f8787612b7590919063ffffffff16565b6130c490919063ffffffff16565b61313f90919063ffffffff16565b90508093505050505b919050565b6000600660008473ffffffffffffffffffffffffffffffffffffffff1673ffffffffffffffffffffffffffffffffffffffff16815260200190815260200160002060008373ffffffffffffffffffffffffffffffffffffffff1673ffffffffffffffffffffffffffffffffffffffff16815260200190815260200160002054905092915050565b6122393361248f565b612278576040517f08c379a000000000000000000000000000000000000000000000000000000000815260040161226f90614715565b60405180910390fd5b80601160146101000a81548160ff0219169083151502179055507f7a29006526059a02f7639403a1d380d26b6cb9952344b8001198c91660fe372b816040516122c19190614518565b60405180910390a150565b6122d533610d56565b612314576040517f08c379a000000000000000000000000000000000000000000000000000000000815260040161230b906146b5565b60405180910390fd5b6000600160008373ffffffffffffffffffffffffffffffffffffffff1673ffffffffffffffffffffffffffffffffffffffff16815260200190815260200160002060006101000a81548160ff02191690831515021790555050565b61237833610d56565b6123b7576040517f08c379a00000000000000000000000000000000000000000000000000000000081526004016123ae906146b5565b60405180910390fd5b806000806101000a81548173ffffffffffffffffffffffffffffffffffffffff021916908373ffffffffffffffffffffffffffffffffffffffff16021790555060018060008373ffffffffffffffffffffffffffffffffffffffff1673ffffffffffffffffffffffffffffffffffffffff16815260200190815260200160002060006101000a81548160ff0219169083151502179055507f04dba622d284ed0014ee4b9a6a68386be1a4c08a4913ae272de89199cc6861638160405161247d91906144fd565b60405180910390a150565b6201518081565b6000600160008373ffffffffffffffffffffffffffffffffffffffff1673ffffffffffffffffffffffffffffffffffffffff16815260200190815260200160002060009054906101000a900460ff169050919050565b60008082846124f49190614824565b905083811015612539576040517f08c379a000000000000000000000000000000000000000000000000000000000815260040161253090614555565b60405180910390fd5b8091505092915050565b600080821161255157600080fd5b600061255d8585613189565b90506000600960008373ffffffffffffffffffffffffffffffffffffffff1673ffffffffffffffffffffffffffffffffffffffff16815260200190815260200160002060009054906101000a900473ffffffffffffffffffffffffffffffffffffffff1673ffffffffffffffffffffffffffffffffffffffff1663cc9968996040518163ffffffff1660e01b815260040160206040518083038186803b15801561260657600080fd5b505afa15801561261a573d6000803e3d6000fd5b505050506040513d601f19601f8201168201806040525081019061263e9190613ee5565b9050801561265a57612651868686612d55565b92505050612b6e565b600b60008373ffffffffffffffffffffffffffffffffffffffff1673ffffffffffffffffffffffffffffffffffffffff16815260200190815260200160002060009054906101000a900460ff161580156126df57508173ffffffffffffffffffffffffffffffffffffffff168573ffffffffffffffffffffffffffffffffffffffff16145b80156127185750600073ffffffffffffffffffffffffffffffffffffffff168273ffffffffffffffffffffffffffffffffffffffff1614155b156128af576000600560008873ffffffffffffffffffffffffffffffffffffffff1673ffffffffffffffffffffffffffffffffffffffff168152602001908152602001600020541161276957600080fd5b60008054906101000a900473ffffffffffffffffffffffffffffffffffffffff1673ffffffffffffffffffffffffffffffffffffffff168673ffffffffffffffffffffffffffffffffffffffff16146127f7576040517f08c379a00000000000000000000000000000000000000000000000000000000081526004016127ee906145b5565b60405180910390fd5b600b60008373ffffffffffffffffffffffffffffffffffffffff1673ffffffffffffffffffffffffffffffffffffffff16815260200190815260200160002060009054906101000a900460ff1615600b60008473ffffffffffffffffffffffffffffffffffffffff1673ffffffffffffffffffffffffffffffffffffffff16815260200190815260200160002060006101000a81548160ff0219169083151502179055506128a6868686612d55565b92505050612b6e565b600560008773ffffffffffffffffffffffffffffffffffffffff1673ffffffffffffffffffffffffffffffffffffffff16815260200190815260200160002054841115612931576040517f08c379a000000000000000000000000000000000000000000000000000000000815260040161292890614695565b60405180910390fd5b83600560008873ffffffffffffffffffffffffffffffffffffffff1673ffffffffffffffffffffffffffffffffffffffff16815260200190815260200160002060008282546129809190614905565b925050819055506000612994878785613375565b61299e57846129aa565b6129a987868561364e565b5b905060006129c18287612b7590919063ffffffff16565b90506129cc846139b8565b80156129d6575082155b80156129e25750600081115b15612aaa57600960008573ffffffffffffffffffffffffffffffffffffffff1673ffffffffffffffffffffffffffffffffffffffff16815260200190815260200160002060009054906101000a900473ffffffffffffffffffffffffffffffffffffffff1673ffffffffffffffffffffffffffffffffffffffff16631a39150c6040518163ffffffff1660e01b8152600401600060405180830381600087803b158015612a8e57600080fd5b505af1925050508015612a9f575060015b612aa857612aa9565b5b5b81600560008973ffffffffffffffffffffffffffffffffffffffff1673ffffffffffffffffffffffffffffffffffffffff1681526020019081526020016000206000828254612af99190614824565b925050819055508673ffffffffffffffffffffffffffffffffffffffff168873ffffffffffffffffffffffffffffffffffffffff167fddf252ad1be2c89b69c2b068fc378daa952ba7f163c4a11628f55a4df523b3ef84604051612b5d9190614775565b60405180910390a360019450505050505b9392505050565b6000612bb783836040518060400160405280601e81526020017f536166654d6174683a207375627472616374696f6e206f766572666c6f770000815250613b08565b905092915050565b600073ffffffffffffffffffffffffffffffffffffffff168273ffffffffffffffffffffffffffffffffffffffff161415612c2f576040517f08c379a0000000000000000000000000000000000000000000000000000000008152600401612c2690614735565b60405180910390fd5b612c3b60008383613b6c565b612c50816004546124e590919063ffffffff16565b600481905550612ca881600560008573ffffffffffffffffffffffffffffffffffffffff1673ffffffffffffffffffffffffffffffffffffffff168152602001908152602001600020546124e590919063ffffffff16565b600560008473ffffffffffffffffffffffffffffffffffffffff1673ffffffffffffffffffffffffffffffffffffffff168152602001908152602001600020819055508173ffffffffffffffffffffffffffffffffffffffff16600073ffffffffffffffffffffffffffffffffffffffff167fddf252ad1be2c89b69c2b068fc378daa952ba7f163c4a11628f55a4df523b3ef83604051612d499190614775565b60405180910390a35050565b6000600560008573ffffffffffffffffffffffffffffffffffffffff1673ffffffffffffffffffffffffffffffffffffffff16815260200190815260200160002054821115612dd9576040517f08c379a0000000000000000000000000000000000000000000000000000000008152600401612dd090614695565b60405180910390fd5b81600560008673ffffffffffffffffffffffffffffffffffffffff1673ffffffffffffffffffffffffffffffffffffffff1681526020019081526020016000206000828254612e289190614905565b9250508190555081600560008573ffffffffffffffffffffffffffffffffffffffff1673ffffffffffffffffffffffffffffffffffffffff1681526020019081526020016000206000828254612e7e9190614824565b925050819055508273ffffffffffffffffffffffffffffffffffffffff168473ffffffffffffffffffffffffffffffffffffffff167fddf252ad1be2c89b69c2b068fc378daa952ba7f163c4a11628f55a4df523b3ef84604051612ee29190614775565b60405180910390a3600190509392505050565b600080600f805490501415612f0d5760009050612fd8565b60005b600f80549050811015612fd2578273ffffffffffffffffffffffffffffffffffffffff16600f8281548110612f6e577f4e487b7100000000000000000000000000000000000000000000000000000000600052603260045260246000fd5b9060005260206000200160009054906101000a900473ffffffffffffffffffffffffffffffffffffffff1673ffffffffffffffffffffffffffffffffffffffff161415612fbf576001915050612fd8565b8080612fca90614a09565b915050612f10565b50600090505b919050565b600080600090505b600f805490508110156130b9578273ffffffffffffffffffffffffffffffffffffffff16600f8281548110613043577f4e487b7100000000000000000000000000000000000000000000000000000000600052603260045260246000fd5b9060005260206000200160009054906101000a900473ffffffffffffffffffffffffffffffffffffffff1673ffffffffffffffffffffffffffffffffffffffff1614156130a65761309e6001826124e590919063ffffffff16565b9150506130bf565b80806130b190614a09565b915050612fe5565b50600090505b919050565b6000808314156130d75760009050613139565b600082846130e591906148ab565b90508284826130f4919061487a565b14613134576040517f08c379a000000000000000000000000000000000000000000000000000000000815260040161312b90614635565b60405180910390fd5b809150505b92915050565b600061318183836040518060400160405280601a81526020017f536166654d6174683a206469766973696f6e206279207a65726f000000000000815250613b71565b905092915050565b600080600f80548060200260200160405190810160405280929190818152602001828054801561320e57602002820191906000526020600020905b8160009054906101000a900473ffffffffffffffffffffffffffffffffffffffff1673ffffffffffffffffffffffffffffffffffffffff16815260200190600101908083116131c4575b5050505050905060005b81518110156133685781818151811061325a577f4e487b7100000000000000000000000000000000000000000000000000000000600052603260045260246000fd5b602002602001015173ffffffffffffffffffffffffffffffffffffffff168573ffffffffffffffffffffffffffffffffffffffff16148061330657508181815181106132cf577f4e487b7100000000000000000000000000000000000000000000000000000000600052603260045260246000fd5b602002602001015173ffffffffffffffffffffffffffffffffffffffff168473ffffffffffffffffffffffffffffffffffffffff16145b1561335557818181518110613344577f4e487b7100000000000000000000000000000000000000000000000000000000600052603260045260246000fd5b60200260200101519250505061336f565b808061336090614a09565b915050613218565b5060009150505b92915050565b6000600760008573ffffffffffffffffffffffffffffffffffffffff1673ffffffffffffffffffffffffffffffffffffffff16815260200190815260200160002060009054906101000a900460ff16806134185750600760008473ffffffffffffffffffffffffffffffffffffffff1673ffffffffffffffffffffffffffffffffffffffff16815260200190815260200160002060009054906101000a900460ff165b8061346d5750600b60008373ffffffffffffffffffffffffffffffffffffffff1673ffffffffffffffffffffffffffffffffffffffff16815260200190815260200160002060009054906101000a900460ff16155b806134855750601160149054906101000a900460ff16155b156134935760009050613647565b6000600f80548060200260200160405190810160405280929190818152602001828054801561351757602002820191906000526020600020905b8160009054906101000a900473ffffffffffffffffffffffffffffffffffffffff1673ffffffffffffffffffffffffffffffffffffffff16815260200190600101908083116134cd575b5050505050905060005b815181101561363257818181518110613563577f4e487b7100000000000000000000000000000000000000000000000000000000600052603260045260246000fd5b602002602001015173ffffffffffffffffffffffffffffffffffffffff168673ffffffffffffffffffffffffffffffffffffffff16148061360f57508181815181106135d8577f4e487b7100000000000000000000000000000000000000000000000000000000600052603260045260246000fd5b602002602001015173ffffffffffffffffffffffffffffffffffffffff168573ffffffffffffffffffffffffffffffffffffffff16145b1561361f57600192505050613647565b808061362a90614a09565b915050613521565b50600d60009054906101000a900460ff169150505b9392505050565b6000600b60008373ffffffffffffffffffffffffffffffffffffffff1673ffffffffffffffffffffffffffffffffffffffff16815260200190815260200160002060009054906101000a900460ff166136a9578290506139b1565b600080600a60008573ffffffffffffffffffffffffffffffffffffffff1673ffffffffffffffffffffffffffffffffffffffff1681526020019081526020016000205411156139a157613758600c5461374a600a60008773ffffffffffffffffffffffffffffffffffffffff1673ffffffffffffffffffffffffffffffffffffffff16815260200190815260200160002054876130c490919063ffffffff16565b61313f90919063ffffffff16565b90508060056000600960008773ffffffffffffffffffffffffffffffffffffffff1673ffffffffffffffffffffffffffffffffffffffff16815260200190815260200160002060009054906101000a900473ffffffffffffffffffffffffffffffffffffffff1673ffffffffffffffffffffffffffffffffffffffff1673ffffffffffffffffffffffffffffffffffffffff16815260200190815260200160002060008282546138089190614824565b92505081905550600960008473ffffffffffffffffffffffffffffffffffffffff1673ffffffffffffffffffffffffffffffffffffffff16815260200190815260200160002060009054906101000a900473ffffffffffffffffffffffffffffffffffffffff1673ffffffffffffffffffffffffffffffffffffffff168573ffffffffffffffffffffffffffffffffffffffff167fddf252ad1be2c89b69c2b068fc378daa952ba7f163c4a11628f55a4df523b3ef836040516138cb9190614775565b60405180910390a3600960008473ffffffffffffffffffffffffffffffffffffffff1673ffffffffffffffffffffffffffffffffffffffff16815260200190815260200160002060009054906101000a900473ffffffffffffffffffffffffffffffffffffffff1673ffffffffffffffffffffffffffffffffffffffff166343e9618c826040518263ffffffff1660e01b815260040161396b9190614775565b600060405180830381600087803b15801561398557600080fd5b505af1925050508015613996575060015b61399f576139a0565b5b5b80846139ad9190614905565b9150505b9392505050565b6000600b60008373ffffffffffffffffffffffffffffffffffffffff1673ffffffffffffffffffffffffffffffffffffffff16815260200190815260200160002060009054906101000a900460ff168015613a3f57508173ffffffffffffffffffffffffffffffffffffffff163373ffffffffffffffffffffffffffffffffffffffff1614155b8015613a575750601160149054906101000a900460ff165b8015613b015750600060056000600960008673ffffffffffffffffffffffffffffffffffffffff1673ffffffffffffffffffffffffffffffffffffffff16815260200190815260200160002060009054906101000a900473ffffffffffffffffffffffffffffffffffffffff1673ffffffffffffffffffffffffffffffffffffffff1673ffffffffffffffffffffffffffffffffffffffff16815260200190815260200160002054115b9050919050565b6000838311158290613b50576040517f08c379a0000000000000000000000000000000000000000000000000000000008152600401613b479190614533565b60405180910390fd5b5060008385613b5f9190614905565b9050809150509392505050565b505050565b60008083118290613bb8576040517f08c379a0000000000000000000000000000000000000000000000000000000008152600401613baf9190614533565b60405180910390fd5b5060008385613bc7919061487a565b9050809150509392505050565b6000613be7613be2846147dc565b6147ab565b90508083825260208201905082856020860282011115613c0657600080fd5b60005b85811015613c365781613c1c8882613cd3565b845260208401935060208301925050600181019050613c09565b5050509392505050565b600081359050613c4f81614af0565b92915050565b600081519050613c6481614af0565b92915050565b600081359050613c7981614b07565b92915050565b600082601f830112613c9057600080fd5b8135613ca0848260208601613bd4565b91505092915050565b600081359050613cb881614b1e565b92915050565b600081519050613ccd81614b1e565b92915050565b600081359050613ce281614b35565b92915050565b600081519050613cf781614b35565b92915050565b600060208284031215613d0f57600080fd5b6000613d1d84828501613c40565b91505092915050565b600060208284031215613d3857600080fd5b6000613d4684828501613c55565b91505092915050565b600060208284031215613d6157600080fd5b6000613d6f84828501613c6a565b91505092915050565b60008060408385031215613d8b57600080fd5b6000613d9985828601613c40565b9250506020613daa85828601613c40565b9150509250929050565b600080600060608486031215613dc957600080fd5b6000613dd786828701613c40565b9350506020613de886828701613c40565b9250506040613df986828701613cd3565b9150509250925092565b60008060408385031215613e1657600080fd5b6000613e2485828601613c40565b9250506020613e3585828601613ca9565b9150509250929050565b60008060408385031215613e5257600080fd5b6000613e6085828601613c40565b9250506020613e7185828601613cd3565b9150509250929050565b600060208284031215613e8d57600080fd5b600082013567ffffffffffffffff811115613ea757600080fd5b613eb384828501613c7f565b91505092915050565b600060208284031215613ece57600080fd5b6000613edc84828501613ca9565b91505092915050565b600060208284031215613ef757600080fd5b6000613f0584828501613cbe565b91505092915050565b600060208284031215613f2057600080fd5b6000613f2e84828501613cd3565b91505092915050565b600060208284031215613f4957600080fd5b6000613f5784828501613ce8565b91505092915050565b613f69816149a0565b82525050565b613f7881614939565b82525050565b613f878161495d565b82525050565b6000613f9882614808565b613fa28185614813565b9350613fb28185602086016149d6565b613fbb81614adf565b840191505092915050565b6000613fd3601b83614813565b91507f536166654d6174683a206164646974696f6e206f766572666c6f7700000000006000830152602082019050919050565b6000614013601683614813565b91507f496e73756666696369656e7420416c6c6f77616e6365000000000000000000006000830152602082019050919050565b6000614053602a83614813565b91507f546865206164647265737320796f752074727920746f2072656d6f766520646f60008301527f65736e74206578697374000000000000000000000000000000000000000000006020830152604082019050919050565b60006140b9603183614813565b91507f4f6e6c7920746865206f776e65722063616e206265207468652066697273742060008301527f746f20616464206c69717569646974792e0000000000000000000000000000006020830152604082019050919050565b600061411f602283614813565b91507f50726f766964652076616c696420746178206265747765656e203120616e642060008301527f32300000000000000000000000000000000000000000000000000000000000006020830152604082019050919050565b6000614185601983614813565b91507f4f776e65722063616e6e6f7420626520302061646472657373000000000000006000830152602082019050919050565b60006141c5601583614813565b91507f4475706c696361746520746f6b656e20696e64657800000000000000000000006000830152602082019050919050565b6000614205602183614813565b91507f536166654d6174683a206d756c7469706c69636174696f6e206f766572666c6f60008301527f77000000000000000000000000000000000000000000000000000000000000006020830152604082019050919050565b600061426b601783614813565b91507f53656e646572206973206e6f7420746865206f776e65720000000000000000006000830152602082019050919050565b60006142ab601883614813565b91507f696e76616c696420656d697373696f6e207065722064617900000000000000006000830152602082019050919050565b60006142eb601483614813565b91507f496e73756666696369656e742042616c616e63650000000000000000000000006000830152602082019050919050565b600061432b600683614813565b91507f214f574e455200000000000000000000000000000000000000000000000000006000830152602082019050919050565b600061436b602383614813565b91507f414920617420696e64657820686173206e6f74206265656e206d696e7465642060008301527f79657400000000000000000000000000000000000000000000000000000000006020830152604082019050919050565b60006143d1601183614813565b91507f4e6f20616363756d756c617465642041490000000000000000000000000000006000830152602082019050919050565b6000614411600b83614813565b91507f21415554484f52495a45440000000000000000000000000000000000000000006000830152602082019050919050565b6000614451601f83614813565b91507f45524332303a206d696e7420746f20746865207a65726f2061646472657373006000830152602082019050919050565b6000614491601a83614813565b91507f5472616465206164647265737320646f65736e742065786973740000000000006000830152602082019050919050565b6144cd81614989565b82525050565b6144dc81614993565b82525050565b60006020820190506144f76000830184613f6f565b92915050565b60006020820190506145126000830184613f60565b92915050565b600060208201905061452d6000830184613f7e565b92915050565b6000602082019050818103600083015261454d8184613f8d565b905092915050565b6000602082019050818103600083015261456e81613fc6565b9050919050565b6000602082019050818103600083015261458e81614006565b9050919050565b600060208201905081810360008301526145ae81614046565b9050919050565b600060208201905081810360008301526145ce816140ac565b9050919050565b600060208201905081810360008301526145ee81614112565b9050919050565b6000602082019050818103600083015261460e81614178565b9050919050565b6000602082019050818103600083015261462e816141b8565b9050919050565b6000602082019050818103600083015261464e816141f8565b9050919050565b6000602082019050818103600083015261466e8161425e565b9050919050565b6000602082019050818103600083015261468e8161429e565b9050919050565b600060208201905081810360008301526146ae816142de565b9050919050565b600060208201905081810360008301526146ce8161431e565b9050919050565b600060208201905081810360008301526146ee8161435e565b9050919050565b6000602082019050818103600083015261470e816143c4565b9050919050565b6000602082019050818103600083015261472e81614404565b9050919050565b6000602082019050818103600083015261474e81614444565b9050919050565b6000602082019050818103600083015261476e81614484565b9050919050565b600060208201905061478a60008301846144c4565b92915050565b60006020820190506147a560008301846144d3565b92915050565b6000604051905081810181811067ffffffffffffffff821117156147d2576147d1614ab0565b5b8060405250919050565b600067ffffffffffffffff8211156147f7576147f6614ab0565b5b602082029050602081019050919050565b600081519050919050565b600082825260208201905092915050565b600061482f82614989565b915061483a83614989565b9250827fffffffffffffffffffffffffffffffffffffffffffffffffffffffffffffffff0382111561486f5761486e614a52565b5b828201905092915050565b600061488582614989565b915061489083614989565b9250826148a05761489f614a81565b5b828204905092915050565b60006148b682614989565b91506148c183614989565b9250817fffffffffffffffffffffffffffffffffffffffffffffffffffffffffffffffff04831182151516156148fa576148f9614a52565b5b828202905092915050565b600061491082614989565b915061491b83614989565b92508282101561492e5761492d614a52565b5b828203905092915050565b600061494482614969565b9050919050565b600061495682614969565b9050919050565b60008115159050919050565b600073ffffffffffffffffffffffffffffffffffffffff82169050919050565b6000819050919050565b600060ff82169050919050565b60006149ab826149b2565b9050919050565b60006149bd826149c4565b9050919050565b60006149cf82614969565b9050919050565b60005b838110156149f45780820151818401526020810190506149d9565b83811115614a03576000848401525b50505050565b6000614a1482614989565b91507fffffffffffffffffffffffffffffffffffffffffffffffffffffffffffffffff821415614a4757614a46614a52565b5b600182019050919050565b7f4e487b7100000000000000000000000000000000000000000000000000000000600052601160045260246000fd5b7f4e487b7100000000000000000000000000000000000000000000000000000000600052601260045260246000fd5b7f4e487b7100000000000000000000000000000000000000000000000000000000600052604160045260246000fd5b6000601f19601f8301169050919050565b614af981614939565b8114614b0457600080fd5b50565b614b108161494b565b8114614b1b57600080fd5b50565b614b278161495d565b8114614b3257600080fd5b50565b614b3e81614989565b8114614b4957600080fd5b5056fea2646970667358221220b646b93bee4b2ad925f3f37ee74249ac8918a63de60bb39b64c9d8633e1eb6ea64736f6c63430008000033",
  "immutableReferences": {},
  "source": "// SPDX-License-Identifier: MIT\npragma solidity >=0.8.0 <0.9.0;\n\nimport \"./Auth.sol\";\nimport \"./IBEP20.sol\";\nimport \"./IDexRouter.sol\";\nimport \"./IDexFactory.sol\";\n\n/**\n * @dev Wrappers over Solidity's arithmetic operations with added overflow\n * checks.\n *\n * Arithmetic operations in Solidity wrap on overflow. This can easily result\n * in bugs, because programmers usually assume that an overflow raises an\n * error, which is the standard behavior in high level programming languages.\n * `SafeMath` restores this intuition by reverting the transaction when an\n * operation overflows.\n *\n * Using this library instead of the unchecked operations eliminates an entire\n * class of bugs, so it's recommended to use it always.\n */\nlibrary SafeMath {\n    /**\n     * @dev Returns the addition of two unsigned integers, reverting on\n     * overflow.\n     *\n     * Counterpart to Solidity's `+` operator.\n     *\n     * Requirements:\n     *\n     * - Addition cannot overflow.\n     */\n    function add(uint256 a, uint256 b) internal pure returns (uint256) {\n        uint256 c = a + b;\n        require(c >= a, \"SafeMath: addition overflow\");\n\n        return c;\n    }\n\n    /**\n     * @dev Returns the subtraction of two unsigned integers, reverting on\n     * overflow (when the result is negative).\n     *\n     * Counterpart to Solidity's `-` operator.\n     *\n     * Requirements:\n     *\n     * - Subtraction cannot overflow.\n     */\n    function sub(uint256 a, uint256 b) internal pure returns (uint256) {\n        return sub(a, b, \"SafeMath: subtraction overflow\");\n    }\n\n    /**\n     * @dev Returns the subtraction of two unsigned integers, reverting with custom message on\n     * overflow (when the result is negative).\n     *\n     * Counterpart to Solidity's `-` operator.\n     *\n     * Requirements:\n     *\n     * - Subtraction cannot overflow.\n     */\n    function sub(uint256 a, uint256 b, string memory errorMessage) internal pure returns (uint256) {\n        require(b <= a, errorMessage);\n        uint256 c = a - b;\n\n        return c;\n    }\n\n    /**\n     * @dev Returns the multiplication of two unsigned integers, reverting on\n     * overflow.\n     *\n     * Counterpart to Solidity's `*` operator.\n     *\n     * Requirements:\n     *\n     * - Multiplication cannot overflow.\n     */\n    function mul(uint256 a, uint256 b) internal pure returns (uint256) {\n        // Gas optimization: this is cheaper than requiring 'a' not being zero, but the\n        // benefit is lost if 'b' is also tested.\n        // See: https://github.com/OpenZeppelin/openzeppelin-contracts/pull/522\n        if (a == 0) {\n            return 0;\n        }\n\n        uint256 c = a * b;\n        require(c / a == b, \"SafeMath: multiplication overflow\");\n\n        return c;\n    }\n\n    /**\n     * @dev Returns the integer division of two unsigned integers. Reverts on\n     * division by zero. The result is rounded towards zero.\n     *\n     * Counterpart to Solidity's `/` operator. Note: this function uses a\n     * `revert` opcode (which leaves remaining gas untouched) while Solidity\n     * uses an invalid opcode to revert (consuming all remaining gas).\n     *\n     * Requirements:\n     *\n     * - The divisor cannot be zero.\n     */\n    function div(uint256 a, uint256 b) internal pure returns (uint256) {\n        return div(a, b, \"SafeMath: division by zero\");\n    }\n\n    /**\n     * @dev Returns the integer division of two unsigned integers. Reverts with custom message on\n     * division by zero. The result is rounded towards zero.\n     *\n     * Counterpart to Solidity's `/` operator. Note: this function uses a\n     * `revert` opcode (which leaves remaining gas untouched) while Solidity\n     * uses an invalid opcode to revert (consuming all remaining gas).\n     *\n     * Requirements:\n     *\n     * - The divisor cannot be zero.\n     */\n    function div(uint256 a, uint256 b, string memory errorMessage) internal pure returns (uint256) {\n        require(b > 0, errorMessage);\n        uint256 c = a / b;\n        // assert(a == b * c + a % b); // There is no case in which this doesn't hold\n\n        return c;\n    }\n\n    /**\n     * @dev Returns the remainder of dividing two unsigned integers. (unsigned integer modulo),\n     * Reverts when dividing by zero.\n     *\n     * Counterpart to Solidity's `%` operator. This function uses a `revert`\n     * opcode (which leaves remaining gas untouched) while Solidity uses an\n     * invalid opcode to revert (consuming all remaining gas).\n     *\n     * Requirements:\n     *\n     * - The divisor cannot be zero.\n     */\n    function mod(uint256 a, uint256 b) internal pure returns (uint256) {\n        return mod(a, b, \"SafeMath: modulo by zero\");\n    }\n\n    /**\n     * @dev Returns the remainder of dividing two unsigned integers. (unsigned integer modulo),\n     * Reverts with custom message when dividing by zero.\n     *\n     * Counterpart to Solidity's `%` operator. This function uses a `revert`\n     * opcode (which leaves remaining gas untouched) while Solidity uses an\n     * invalid opcode to revert (consuming all remaining gas).\n     *\n     * Requirements:\n     *\n     * - The divisor cannot be zero.\n     */\n    function mod(uint256 a, uint256 b, string memory errorMessage) internal pure returns (uint256) {\n        require(b != 0, errorMessage);\n        return a % b;\n    }\n}\n\n/**\n * @dev Interface of the ERC20 standard as defined in the EIP.\n */\ninterface IERC20 {\n    /**\n     * @dev Returns the amount of tokens in existence.\n     */\n    function totalSupply() external view returns (uint256);\n\n    /**\n     * @dev Returns the amount of tokens owned by `account`.\n     */\n    function balanceOf(address account) external view returns (uint256);\n\n    /**\n     * @dev Moves `amount` tokens from the caller's account to `recipient`.\n     *\n     * Returns a boolean value indicating whether the operation succeeded.\n     *\n     * Emits a {Transfer} event.\n     */\n    function transfer(address recipient, uint256 amount) external returns (bool);\n\n    /**\n     * @dev Returns the remaining number of tokens that `spender` will be\n     * allowed to spend on behalf of `owner` through {transferFrom}. This is\n     * zero by default.\n     *\n     * This value changes when {approve} or {transferFrom} are called.\n     */\n    function allowance(address owner, address spender) external view returns (uint256);\n\n    /**\n     * @dev Sets `amount` as the allowance of `spender` over the caller's tokens.\n     *\n     * Returns a boolean value indicating whether the operation succeeded.\n     *\n     * IMPORTANT: Beware that changing an allowance with this method brings the risk\n     * that someone may use both the old and the new allowance by unfortunate\n     * transaction ordering. One possible solution to mitigate this race\n     * condition is to first reduce the spender's allowance to 0 and set the\n     * desired value afterwards:\n     * https://github.com/ethereum/EIPs/issues/20#issuecomment-263524729\n     *\n     * Emits an {Approval} event.\n     */\n    function approve(address spender, uint256 amount) external returns (bool);\n\n    /**\n     * @dev Moves `amount` tokens from `sender` to `recipient` using the\n     * allowance mechanism. `amount` is then deducted from the caller's\n     * allowance.\n     *\n     * Returns a boolean value indicating whether the operation succeeded.\n     *\n     * Emits a {Transfer} event.\n     */\n    function transferFrom(address sender, address recipient, uint256 amount) external returns (bool);\n\n\n    /**\n     * TODO: Add comment\n     */\n    function burn(uint256 burnQuantity) external returns (bool);\n\n    /**\n     * @dev Emitted when `value` tokens are moved from one account (`from`) to\n     * another (`to`).\n     *\n     * Note that `value` may be zero.\n     */\n    event Transfer(address indexed from, address indexed to, uint256 value);\n\n    /**\n     * @dev Emitted when the allowance of a `spender` for an `owner` is set by\n     * a call to {approve}. `value` is the new allowance.\n     */\n    event Approval(address indexed owner, address indexed spender, uint256 value);\n}\n\n/**\n * @dev Interface of the ERC165 standard, as defined in the\n * https://eips.ethereum.org/EIPS/eip-165[EIP].\n *\n * Implementers can declare support of contract interfaces, which can then be\n * queried by others ({ERC165Checker}).\n *\n * For an implementation, see {ERC165}.\n */\ninterface IERC165 {\n    /**\n     * @dev Returns true if this contract implements the interface defined by\n     * `interfaceId`. See the corresponding\n     * https://eips.ethereum.org/EIPS/eip-165#how-interfaces-are-identified[EIP section]\n     * to learn more about how these ids are created.\n     *\n     * This function call must use less than 30 000 gas.\n     */\n    function supportsInterface(bytes4 interfaceId) external view returns (bool);\n}\n\n/**\n * @dev Required interface of an ERC721 compliant contract.\n */\ninterface IERC721 is IERC165 {\n    /**\n     * @dev Emitted when `tokenId` token is transferred from `from` to `to`.\n     */\n    event Transfer(address indexed from, address indexed to, uint256 indexed tokenId);\n\n    /**\n     * @dev Emitted when `owner` enables `approved` to manage the `tokenId` token.\n     */\n    event Approval(address indexed owner, address indexed approved, uint256 indexed tokenId);\n\n    /**\n     * @dev Emitted when `owner` enables or disables (`approved`) `operator` to manage all of its assets.\n     */\n    event ApprovalForAll(address indexed owner, address indexed operator, bool approved);\n\n    /**\n     * @dev Returns the number of tokens in ``owner``'s account.\n     */\n    function balanceOf(address owner) external view returns (uint256 balance);\n\n    /**\n     * @dev Returns the owner of the `tokenId` token.\n     *\n     * Requirements:\n     *\n     * - `tokenId` must exist.\n     */\n    function ownerOf(uint256 tokenId) external view returns (address owner);\n\n    /**\n     * @dev Safely transfers `tokenId` token from `from` to `to`, checking first that contract recipients\n     * are aware of the ERC721 protocol to prevent tokens from being forever locked.\n     *\n     * Requirements:\n     *\n     * - `from` cannot be the zero address.\n     * - `to` cannot be the zero address.\n     * - `tokenId` token must exist and be owned by `from`.\n     * - If the caller is not `from`, it must be have been allowed to move this token by either {approve} or {setApprovalForAll}.\n     * - If `to` refers to a smart contract, it must implement {IERC721Receiver-onERC721Received}, which is called upon a safe transfer.\n     *\n     * Emits a {Transfer} event.\n     */\n    function safeTransferFrom(address from, address to, uint256 tokenId) external;\n\n    /**\n     * @dev Transfers `tokenId` token from `from` to `to`.\n     *\n     * WARNING: Usage of this method is discouraged, use {safeTransferFrom} whenever possible.\n     *\n     * Requirements:\n     *\n     * - `from` cannot be the zero address.\n     * - `to` cannot be the zero address.\n     * - `tokenId` token must be owned by `from`.\n     * - If the caller is not `from`, it must be approved to move this token by either {approve} or {setApprovalForAll}.\n     *\n     * Emits a {Transfer} event.\n     */\n    function transferFrom(address from, address to, uint256 tokenId) external;\n\n    /**\n     * @dev Gives permission to `to` to transfer `tokenId` token to another account.\n     * The approval is cleared when the token is transferred.\n     *\n     * Only a single account can be approved at a time, so approving the zero address clears previous approvals.\n     *\n     * Requirements:\n     *\n     * - The caller must own the token or be an approved operator.\n     * - `tokenId` must exist.\n     *\n     * Emits an {Approval} event.\n     */\n    function approve(address to, uint256 tokenId) external;\n\n    /**\n     * @dev Returns the account approved for `tokenId` token.\n     *\n     * Requirements:\n     *\n     * - `tokenId` must exist.\n     */\n    function getApproved(uint256 tokenId) external view returns (address operator);\n\n    /**\n     * @dev Approve or remove `operator` as an operator for the caller.\n     * Operators can call {transferFrom} or {safeTransferFrom} for any token owned by the caller.\n     *\n     * Requirements:\n     *\n     * - The `operator` cannot be the caller.\n     *\n     * Emits an {ApprovalForAll} event.\n     */\n    function setApprovalForAll(address operator, bool _approved) external;\n\n    /**\n     * @dev Returns if the `operator` is allowed to manage all of the assets of `owner`.\n     *\n     * See {setApprovalForAll}\n     */\n    function isApprovedForAll(address owner, address operator) external view returns (bool);\n\n    /**\n      * @dev Safely transfers `tokenId` token from `from` to `to`.\n      *\n      * Requirements:\n      *\n     * - `from` cannot be the zero address.\n     * - `to` cannot be the zero address.\n      * - `tokenId` token must exist and be owned by `from`.\n      * - If the caller is not `from`, it must be approved to move this token by either {approve} or {setApprovalForAll}.\n      * - If `to` refers to a smart contract, it must implement {IERC721Receiver-onERC721Received}, which is called upon a safe transfer.\n      *\n      * Emits a {Transfer} event.\n      */\n    function safeTransferFrom(address from, address to, uint256 tokenId, bytes calldata data) external;\n}\n\n/**\n * @title ERC-721 Non-Fungible Token Standard, optional enumeration extension\n * @dev See https://eips.ethereum.org/EIPS/eip-721\n */\ninterface IERC721Enumerable is IERC721 {\n\n    /**\n     * @dev Returns the total amount of tokens stored by the contract.\n     */\n    function totalSupply() external view returns (uint256);\n\n    /**\n     * @dev Returns a token ID owned by `owner` at a given `index` of its token list.\n     * Use along with {balanceOf} to enumerate all of ``owner``'s tokens.\n     */\n    function tokenOfOwnerByIndex(address owner, uint256 index) external view returns (uint256 tokenId);\n\n    /**\n     * @dev Returns a token ID at a given `index` of all the tokens stored by the contract.\n     * Use along with {totalSupply} to enumerate all tokens.\n     */\n    function tokenByIndex(uint256 index) external view returns (uint256);\n}\n\ninterface INeuralPepe is IERC721Enumerable {\n    function isMintedBeforeReveal(uint256 index) external view returns (bool);\n}\n\ninterface IAiRouter {\n  function distributeTax(uint256 taxAmount) external;\n  function isInSwap() external view returns (bool);\n  function supportsDistribureFunction() external pure returns (bool);\n  function authorize(address adr) external;\n  function liquifyBack() external;\n}\n\ncontract AI is IBEP20, Auth {\n  using SafeMath for uint256;\n\n\tstring constant _name = \"AIv2\";\n  string constant _symbol = \"AI\";\n  uint8 constant _decimals = 18;\n\n  // Constants\n  uint256 public constant SECONDS_IN_A_DAY = 86400;\n  uint256 public constant emissionEnd = 1933606800;\n  uint256 public constant aiSnapshot = 1632158133;\n\n  // Public variables\n  uint256 public emissionPerDay = 2300000000000000000;\n  uint256 private MAX_EMISSION_PER_DAY = 10000000000000000000;\n  uint256 private _totalSupply;\n\n\tmapping (address => uint256) _balances;\n  mapping (address => mapping (address => uint256)) _allowances;\n  mapping (address => bool) isFeeExempt;\n  mapping(uint256 => uint256) private _lastClaim;\n  mapping (address => address) private _taxAddresses;\n  mapping (address => uint256) private _taxAmount;\n  mapping (address => bool) private _isLaunched;\n\n  // Fees. Some may be completely inactive at all times.\n  uint256 feeDenominator = 1000;\n  bool public feeOnNonTrade = false;\n\n  address public ai2bnb;\n  address private _pepeAddress = 0xdda79D8C0998a19ECa7fe6aAaBfCEe980E66F982;\n  address[] private pairs;\n  IDexRouter private router;\n  INeuralPepe private PEPE = INeuralPepe(_pepeAddress);\n\n  bool public swapEnabled = true;\n\n  event TaxCollectionEnabled(bool enabledOrNot);\n\n\tconstructor(uint256 valueToMint) Auth(msg.sender) {\n\t\trouter = IDexRouter(0x3380aE82e39E42Ca34EbEd69aF67fAa0683Bb5c1);\n    ai2bnb = IDexFactory(router.factory()).createPair(router.WETH(), address(this));\n    _allowances[address(this)][address(router)] = type(uint256).max;\n    isFeeExempt[msg.sender] = true;\n    isFeeExempt[address(this)] = true;\n\n\t\tpairs.push(ai2bnb);\n    _taxAddresses[ai2bnb] = address(this);\n    _taxAmount[ai2bnb] = 50;\n    _isLaunched[ai2bnb] = false;\n    \n\t\t_mint(owner, valueToMint);\n\t}\n\n\treceive() external payable {}\n\n  function totalSupply() external view override returns (uint256) { return _totalSupply; }\n  function decimals() external pure override returns (uint8) { return _decimals; }\n  function symbol() external pure override returns (string memory) { return _symbol; }\n  function name() external pure override returns (string memory) { return _name; }\n  function getOwner() external view override returns (address) { return owner; }\n  function balanceOf(address account) public view override returns (uint256) { return _balances[account]; }\n  function burn(uint256 burnQuantity) public override returns (bool) {\n      _balances[msg.sender] = _balances[msg.sender].sub(burnQuantity);\n      _totalSupply = _totalSupply.sub(burnQuantity);\n      emit Transfer(msg.sender, address(0), burnQuantity);\n      return true;\n  }\n  function _beforeTokenTransfer(address from, address to, uint256 amount) internal virtual { }\n  function _mint(address account, uint256 amount) internal virtual {\n    require(account != address(0), \"ERC20: mint to the zero address\");\n\n    _beforeTokenTransfer(address(0), account, amount);\n\n    _totalSupply = _totalSupply.add(amount);\n    _balances[account] = _balances[account].add(amount);\n    emit Transfer(address(0), account, amount);\n    }\n  function allowance(address holder, address spender) external view override returns (uint256) { return _allowances[holder][spender]; }\n  function approve(address spender, uint256 amount) public override returns (bool) {\n      _allowances[msg.sender][spender] = amount;\n      emit Approval(msg.sender, spender, amount);\n      return true;\n  }\n  function approveMax(address spender) external returns (bool) { return approve(spender, type(uint256).max); }\n  function transfer(address recipient, uint256 amount) external override returns (bool) { return _transferFrom(msg.sender, recipient, amount); }\n\tfunction transferFrom(address sender, address recipient, uint256 amount) external override returns (bool) {\n    if (_allowances[sender][msg.sender] != type(uint256).max) {\n      require(_allowances[sender][msg.sender] >= amount, \"Insufficient Allowance\");\n      _allowances[sender][msg.sender] -= amount;\n    }\n    return _transferFrom(sender, recipient, amount);\n  }\n\tfunction _basicTransfer(address sender, address recipient, uint256 amount) internal  returns (bool) {\n\t\trequire(amount <= _balances[sender], \"Insufficient Balance\");\n        _balances[sender] -= amount;\n        _balances[recipient] += amount;\n        emit Transfer(sender, recipient, amount);\n        return true;\n  }\n  function basicTransfer(address recipient, uint256 amount) external override returns (bool) { return _basicTransfer(msg.sender, recipient, amount); }\n\n\tfunction _transferFrom(address sender, address recipient, uint256 amount) internal returns (bool) {\n\t\trequire(amount > 0);\n    address tradeAddress = returnTradeAddress(sender, recipient);\n    bool isInSwap = IAiRouter(_taxAddresses[tradeAddress]).isInSwap();\n\n    if (isInSwap) {\n      return _basicTransfer(sender, recipient, amount);\n    }\n\n    // activates the liquidity on DEX\n    if (!_isLaunched[tradeAddress] && recipient == tradeAddress && tradeAddress != address(0)) {\n        require(_balances[sender] > 0);\n        require(sender == owner, \"Only the owner can be the first to add liquidity.\");\n        _isLaunched[tradeAddress] = !_isLaunched[tradeAddress];\n        \n        return _basicTransfer(sender, recipient, amount);\n    }\n\n    require(amount <= _balances[sender], \"Insufficient Balance\");\n    _balances[sender] -= amount;\n\n    // checks whether it needs to take a fee and takes it before transferring to the \n    uint256 amountReceived = shouldTakeFee(sender, recipient, tradeAddress) ? takeFee(sender, amount, tradeAddress) : amount;\n    uint256 tax = amount.sub(amountReceived);\n\n    if (shouldSwapBack(tradeAddress) && !isInSwap && tax > 0) {\n      try IAiRouter(_taxAddresses[tradeAddress]).liquifyBack() {} catch {}\n    }\n\n    _balances[recipient] += amountReceived;\n    emit Transfer(sender, recipient, amountReceived);\n    return true;\n  }\n  \n  function returnTradeAddress(address sender, address recipient) internal view returns (address) {\n    address[] memory liqPairs = pairs;\n    for (uint256 i = 0; i < liqPairs.length; i++) {\n      if (sender == liqPairs[i] || recipient == liqPairs[i]) {\n        return liqPairs[i];\n      }\n    }\n    return address(0);\n  }\n\n\t// Decides whether this trade should take a fee.\n\t// Trades with pairs are always taxed, unless sender or receiver is exempted.\n\t// Non trades, like wallet to wallet, are configured, untaxed by default.\n\tfunction shouldTakeFee(address sender, address recipient, address tradeAddress) internal view returns (bool) {\n    if (isFeeExempt[sender] || isFeeExempt[recipient] || !_isLaunched[tradeAddress] || !swapEnabled) {\n\t\t\treturn false;\n\t\t}\n\n    address[] memory liqPairs = pairs;\n    for (uint256 i = 0; i < liqPairs.length; i++) {\n        if (sender == liqPairs[i] || recipient == liqPairs[i]) {\n        return true;\n      }\n    }\n\n    return feeOnNonTrade;\n    }\n\n\tfunction takeFee(address sender, uint256 amount, address tradeAddress) internal returns (uint256) {\n\t\tif (!_isLaunched[tradeAddress]) { return amount; }\n\n\t\tuint256 liqFee = 0;\n    \n    // If there is a liquidity tax active for autoliq, the contract keeps it.\n    if (_taxAmount[tradeAddress] > 0) {\n      liqFee = amount.mul(_taxAmount[tradeAddress]).div(feeDenominator);\n      _balances[_taxAddresses[tradeAddress]] += liqFee;\n      emit Transfer(sender, _taxAddresses[tradeAddress], liqFee);\n\n      try IAiRouter(_taxAddresses[tradeAddress]).distributeTax(liqFee) {} catch {}\n    }\n\n    return amount - liqFee;\n  }\n\n  function shouldSwapBack(address tradeAddress) internal view returns (bool) {\n      return _isLaunched[tradeAddress]\n          && msg.sender != tradeAddress\n          && swapEnabled\n          && _balances[_taxAddresses[tradeAddress]] > 0;\n  }\n\n\tfunction setSwapEnabled(bool set) external authorized {\n\t\tswapEnabled = set;\n\t\temit TaxCollectionEnabled(set);\n\t}\n\n  function setIsFeeExempt(address holder, bool exempt) external authorized {\n      isFeeExempt[holder] = exempt;\n  }\n\n\t// Recover any BNB sent to the contract by mistake.\n\tfunction rescue() external {\n    payable(owner).transfer(address(this).balance);\n  }\n\n\tfunction addPair(address pair, address taxAddress, uint256 _newTaxAmount) external authorized {\n    pairs.push(pair);\n    _taxAddresses[pair] = taxAddress;\n    _taxAmount[pair] = _newTaxAmount;\n    isFeeExempt[pair] = true;\n  }\n    \n  function removeLastPair() external authorized {\n      pairs.pop();\n  }\n\n  /**\n    * @dev Only owner can call this function. Remove taxable address.\n  */\n  function removePair(address pairAddressToRemove) public onlyOwner {\n    require(_isTradeAddressExists(pairAddressToRemove), 'The address you try to remove doesnt exist');\n    uint addressIndex = _getAddressIndex(pairAddressToRemove).sub(1);\n\n    for (uint i = addressIndex; i < pairs.length - 1; i++) {\n      pairs[i] = pairs[pairs.length - 1];\n    }\n    pairs.pop();\n  }\n\n    /**\n    * @dev Internal functions.\n    */\n  function _isTradeAddressExists(address tradeAddress) private view returns (bool) {\n    if (pairs.length == 0) { return false; }\n    for(uint i = 0; i < pairs.length; i++) {\n      if (pairs[i] == tradeAddress) {\n        return true;\n      }\n    }\n    return false;\n  }\n\n  function _getAddressIndex(address tradeAddress) private view returns (uint) {\n    for(uint i = 0; i < pairs.length; i++) {\n      if (pairs[i] == tradeAddress) {\n        return i.add(1);\n      }\n    }\n    return 0;\n  }\n\n\n  /**\n  * @dev When accumulated AIs have last been claimed for a Neural Pepe index\n  */\n  function lastClaim(uint256 tokenIndex) public view returns (uint256) {\n      require(PEPE.ownerOf(tokenIndex) != address(0), \"Owner cannot be 0 address\");\n      \n      uint256 lastClaimed = uint256(_lastClaim[tokenIndex]) != 0 ? uint256(_lastClaim[tokenIndex]) : aiSnapshot;\n      return lastClaimed;\n  }\n\n  /**\n    * @dev Accumulated AI tokens for a Neural Pepe token index.\n    */\n  function accumulated(uint256 tokenIndex) public view returns (uint256) {\n      require(PEPE.ownerOf(tokenIndex) != address(0), \"Owner cannot be 0 address\");\n      require(tokenIndex < PEPE.totalSupply(), \"AI at index has not been minted yet\");\n\n      uint256 lastClaimed = lastClaim(tokenIndex);\n\n      // Sanity check if last claim was on or after emission end\n      if (lastClaimed >= emissionEnd) return 0;\n\n      uint256 accumulationPeriod = block.timestamp < emissionEnd ? block.timestamp : emissionEnd; // Getting the min value of both\n      uint256 totalAccumulated = accumulationPeriod.sub(lastClaimed).mul(emissionPerDay).div(SECONDS_IN_A_DAY);\n\n      return totalAccumulated;\n  }\n\n  /**\n    * @dev Claim mints AIs and supports multiple Neural Pepe token indices at once.\n    */\n  function claim(uint256[] memory tokenIndices) public returns (uint256) {\n      uint256 totalClaimQty = 0;\n      for (uint i = 0; i < tokenIndices.length; i++) {\n          // Sanity check for non-minted index\n          require(tokenIndices[i] < PEPE.totalSupply(), \"AI at index has not been minted yet\");\n          // Duplicate token index check\n          for (uint j = i + 1; j < tokenIndices.length; j++) {\n              require(tokenIndices[i] != tokenIndices[j], \"Duplicate token index\");\n          }\n\n          uint tokenIndex = tokenIndices[i];\n          require(PEPE.ownerOf(tokenIndex) == msg.sender, \"Sender is not the owner\");\n\n          uint256 claimQty = accumulated(tokenIndex);\n          if (claimQty != 0) {\n              totalClaimQty = totalClaimQty.add(claimQty);\n              _lastClaim[tokenIndex] = block.timestamp;\n          }\n      }\n\n      require(totalClaimQty != 0, \"No accumulated AI\");\n      _mint(msg.sender, totalClaimQty);\n      return totalClaimQty;\n  }\n\n  /**\n    * @dev Only owner can call this function. Change AI emission per day.\n    */\n  function changeEmissionPerDay(uint256 _newEmissionPerDay) public onlyOwner {\n    require(_newEmissionPerDay >= 0 || _newEmissionPerDay <= MAX_EMISSION_PER_DAY, 'invalid emission per day');\n    emissionPerDay = _newEmissionPerDay;\n  }\n\n  /**\n  * @dev Only owner can call this function. Tax amount, can be between 1 and 20.\n  */\n  function changeTaxAddressAndAmount(address tradeAddress, address taxAddress, uint256 _newTaxAmount) public onlyOwner {\n    require(_newTaxAmount >= 0 && _newTaxAmount <= 200, 'Provide valid tax between 1 and 20');\n    require(_taxAddresses[tradeAddress] != address(0), 'Trade address doesnt exist');\n    _allowances[taxAddress][address(router)] = type(uint256).max;\n\n    _taxAddresses[tradeAddress] = taxAddress;\n    _taxAmount[tradeAddress] = _newTaxAmount;\n    isFeeExempt[taxAddress] = true;\n  }\n}\n",
  "sourcePath": "/Users/viktor/Documents/Projects/solidity/hibiki/src/contracts/AI.sol",
  "compiler": {
    "name": "solc",
    "version": "0.8.0+commit.c7dfd78e.Emscripten.clang"
  },
  "schemaVersion": "3.4.1",
  "updatedAt": "2021-10-09T08:26:27.058Z",
  "networkType": "ethereum",
  "devdoc": {
    "kind": "dev",
    "methods": {
      "accumulated(uint256)": {
        "details": "Accumulated AI tokens for a Neural Pepe token index."
      },
      "approve(address,uint256)": {
        "details": "Sets `amount` as the allowance of `spender` over the caller's tokens. Returns a boolean value indicating whether the operation succeeded. IMPORTANT: Beware that changing an allowance with this method brings the risk that someone may use both the old and the new allowance by unfortunate transaction ordering. One possible solution to mitigate this race condition is to first reduce the spender's allowance to 0 and set the desired value afterwards: https://github.com/ethereum/EIPs/issues/20#issuecomment-263524729 Emits an {Approval} event."
      },
      "balanceOf(address)": {
        "details": "Returns the amount of tokens owned by `account`."
      },
      "changeEmissionPerDay(uint256)": {
        "details": "Only owner can call this function. Change AI emission per day."
      },
      "changeTaxAddressAndAmount(address,address,uint256)": {
        "details": "Only owner can call this function. Tax amount, can be between 1 and 20."
      },
      "claim(uint256[])": {
        "details": "Claim mints AIs and supports multiple Neural Pepe token indices at once."
      },
      "decimals()": {
        "details": "Returns the token decimals."
      },
      "getOwner()": {
        "details": "Returns the bep token owner."
      },
      "lastClaim(uint256)": {
        "details": "When accumulated AIs have last been claimed for a Neural Pepe index"
      },
      "name()": {
        "details": "Returns the token name."
      },
      "removePair(address)": {
        "details": "Only owner can call this function. Remove taxable address."
      },
      "symbol()": {
        "details": "Returns the token symbol."
      },
      "totalSupply()": {
        "details": "Returns the amount of tokens in existence."
      },
      "transfer(address,uint256)": {
        "details": "Moves `amount` tokens from the caller's account to `recipient`. Returns a boolean value indicating whether the operation succeeded. Emits a {Transfer} event."
      },
      "transferFrom(address,address,uint256)": {
        "details": "Moves `amount` tokens from `sender` to `recipient` using the allowance mechanism. `amount` is then deducted from the caller's allowance. Returns a boolean value indicating whether the operation succeeded. Emits a {Transfer} event."
      }
    },
    "version": 1
  },
  "userdoc": {
    "kind": "user",
    "methods": {
      "authorize(address)": {
        "notice": "Authorize address. Owner only"
      },
      "isAuthorized(address)": {
        "notice": "Return address' authorization status"
      },
      "isOwner(address)": {
        "notice": "Check if address is owner"
      },
      "transferOwnership(address)": {
        "notice": "Transfer ownership to new address. Caller must be owner. Leaves old owner authorized"
      },
      "unauthorize(address)": {
        "notice": "Remove address' authorization. Owner only"
      }
    },
    "version": 1
  }
}