{
  "contractName": "AI",
  "abi": [
    {
      "inputs": [
        {
          "internalType": "uint256",
          "name": "valueToMint",
          "type": "uint256"
        }
      ],
      "stateMutability": "nonpayable",
      "type": "constructor"
    },
    {
      "anonymous": false,
      "inputs": [
        {
          "indexed": true,
          "internalType": "address",
          "name": "owner",
          "type": "address"
        },
        {
          "indexed": true,
          "internalType": "address",
          "name": "spender",
          "type": "address"
        },
        {
          "indexed": false,
          "internalType": "uint256",
          "name": "value",
          "type": "uint256"
        }
      ],
      "name": "Approval",
      "type": "event"
    },
    {
      "anonymous": false,
      "inputs": [
        {
          "indexed": false,
          "internalType": "address",
          "name": "owner",
          "type": "address"
        }
      ],
      "name": "OwnershipTransferred",
      "type": "event"
    },
    {
      "anonymous": false,
      "inputs": [
        {
          "indexed": false,
          "internalType": "bool",
          "name": "enabledOrNot",
          "type": "bool"
        }
      ],
      "name": "TaxCollectionEnabled",
      "type": "event"
    },
    {
      "anonymous": false,
      "inputs": [
        {
          "indexed": true,
          "internalType": "address",
          "name": "from",
          "type": "address"
        },
        {
          "indexed": true,
          "internalType": "address",
          "name": "to",
          "type": "address"
        },
        {
          "indexed": false,
          "internalType": "uint256",
          "name": "value",
          "type": "uint256"
        }
      ],
      "name": "Transfer",
      "type": "event"
    },
    {
      "inputs": [],
      "name": "SECONDS_IN_A_DAY",
      "outputs": [
        {
          "internalType": "uint256",
          "name": "",
          "type": "uint256"
        }
      ],
      "stateMutability": "view",
      "type": "function",
      "constant": true
    },
    {
      "inputs": [],
      "name": "ai2bnb",
      "outputs": [
        {
          "internalType": "address",
          "name": "",
          "type": "address"
        }
      ],
      "stateMutability": "view",
      "type": "function",
      "constant": true
    },
    {
      "inputs": [],
      "name": "aiSnapshot",
      "outputs": [
        {
          "internalType": "uint256",
          "name": "",
          "type": "uint256"
        }
      ],
      "stateMutability": "view",
      "type": "function",
      "constant": true
    },
    {
      "inputs": [
        {
          "internalType": "address",
          "name": "adr",
          "type": "address"
        }
      ],
      "name": "authorize",
      "outputs": [],
      "stateMutability": "nonpayable",
      "type": "function"
    },
    {
      "inputs": [],
      "name": "emissionEnd",
      "outputs": [
        {
          "internalType": "uint256",
          "name": "",
          "type": "uint256"
        }
      ],
      "stateMutability": "view",
      "type": "function",
      "constant": true
    },
    {
      "inputs": [],
      "name": "emissionPerDay",
      "outputs": [
        {
          "internalType": "uint256",
          "name": "",
          "type": "uint256"
        }
      ],
      "stateMutability": "view",
      "type": "function",
      "constant": true
    },
    {
      "inputs": [
        {
          "internalType": "address",
          "name": "adr",
          "type": "address"
        }
      ],
      "name": "isAuthorized",
      "outputs": [
        {
          "internalType": "bool",
          "name": "",
          "type": "bool"
        }
      ],
      "stateMutability": "view",
      "type": "function",
      "constant": true
    },
    {
      "inputs": [
        {
          "internalType": "address",
          "name": "account",
          "type": "address"
        }
      ],
      "name": "isOwner",
      "outputs": [
        {
          "internalType": "bool",
          "name": "",
          "type": "bool"
        }
      ],
      "stateMutability": "view",
      "type": "function",
      "constant": true
    },
    {
      "inputs": [],
      "name": "swapEnabled",
      "outputs": [
        {
          "internalType": "bool",
          "name": "",
          "type": "bool"
        }
      ],
      "stateMutability": "view",
      "type": "function",
      "constant": true
    },
    {
      "inputs": [
        {
          "internalType": "address payable",
          "name": "adr",
          "type": "address"
        }
      ],
      "name": "transferOwnership",
      "outputs": [],
      "stateMutability": "nonpayable",
      "type": "function"
    },
    {
      "inputs": [
        {
          "internalType": "address",
          "name": "adr",
          "type": "address"
        }
      ],
      "name": "unauthorize",
      "outputs": [],
      "stateMutability": "nonpayable",
      "type": "function"
    },
    {
      "stateMutability": "payable",
      "type": "receive",
      "payable": true
    },
    {
      "inputs": [],
      "name": "totalSupply",
      "outputs": [
        {
          "internalType": "uint256",
          "name": "",
          "type": "uint256"
        }
      ],
      "stateMutability": "view",
      "type": "function",
      "constant": true
    },
    {
      "inputs": [],
      "name": "decimals",
      "outputs": [
        {
          "internalType": "uint8",
          "name": "",
          "type": "uint8"
        }
      ],
      "stateMutability": "pure",
      "type": "function",
      "constant": true
    },
    {
      "inputs": [],
      "name": "symbol",
      "outputs": [
        {
          "internalType": "string",
          "name": "",
          "type": "string"
        }
      ],
      "stateMutability": "pure",
      "type": "function",
      "constant": true
    },
    {
      "inputs": [],
      "name": "name",
      "outputs": [
        {
          "internalType": "string",
          "name": "",
          "type": "string"
        }
      ],
      "stateMutability": "pure",
      "type": "function",
      "constant": true
    },
    {
      "inputs": [],
      "name": "getOwner",
      "outputs": [
        {
          "internalType": "address",
          "name": "",
          "type": "address"
        }
      ],
      "stateMutability": "view",
      "type": "function",
      "constant": true
    },
    {
      "inputs": [
        {
          "internalType": "address",
          "name": "account",
          "type": "address"
        }
      ],
      "name": "balanceOf",
      "outputs": [
        {
          "internalType": "uint256",
          "name": "",
          "type": "uint256"
        }
      ],
      "stateMutability": "view",
      "type": "function",
      "constant": true
    },
    {
      "inputs": [
        {
          "internalType": "uint256",
          "name": "burnQuantity",
          "type": "uint256"
        }
      ],
      "name": "burn",
      "outputs": [
        {
          "internalType": "bool",
          "name": "",
          "type": "bool"
        }
      ],
      "stateMutability": "nonpayable",
      "type": "function"
    },
    {
      "inputs": [
        {
          "internalType": "address",
          "name": "holder",
          "type": "address"
        },
        {
          "internalType": "address",
          "name": "spender",
          "type": "address"
        }
      ],
      "name": "allowance",
      "outputs": [
        {
          "internalType": "uint256",
          "name": "",
          "type": "uint256"
        }
      ],
      "stateMutability": "view",
      "type": "function",
      "constant": true
    },
    {
      "inputs": [
        {
          "internalType": "address",
          "name": "spender",
          "type": "address"
        },
        {
          "internalType": "uint256",
          "name": "amount",
          "type": "uint256"
        }
      ],
      "name": "approve",
      "outputs": [
        {
          "internalType": "bool",
          "name": "",
          "type": "bool"
        }
      ],
      "stateMutability": "nonpayable",
      "type": "function"
    },
    {
      "inputs": [
        {
          "internalType": "address",
          "name": "spender",
          "type": "address"
        }
      ],
      "name": "approveMax",
      "outputs": [
        {
          "internalType": "bool",
          "name": "",
          "type": "bool"
        }
      ],
      "stateMutability": "nonpayable",
      "type": "function"
    },
    {
      "inputs": [
        {
          "internalType": "address",
          "name": "recipient",
          "type": "address"
        },
        {
          "internalType": "uint256",
          "name": "amount",
          "type": "uint256"
        }
      ],
      "name": "transfer",
      "outputs": [
        {
          "internalType": "bool",
          "name": "",
          "type": "bool"
        }
      ],
      "stateMutability": "nonpayable",
      "type": "function"
    },
    {
      "inputs": [
        {
          "internalType": "address",
          "name": "sender",
          "type": "address"
        },
        {
          "internalType": "address",
          "name": "recipient",
          "type": "address"
        },
        {
          "internalType": "uint256",
          "name": "amount",
          "type": "uint256"
        }
      ],
      "name": "transferFrom",
      "outputs": [
        {
          "internalType": "bool",
          "name": "",
          "type": "bool"
        }
      ],
      "stateMutability": "nonpayable",
      "type": "function"
    },
    {
      "inputs": [
        {
          "internalType": "bool",
          "name": "set",
          "type": "bool"
        }
      ],
      "name": "setSwapEnabled",
      "outputs": [],
      "stateMutability": "nonpayable",
      "type": "function"
    },
    {
      "inputs": [
        {
          "internalType": "address",
          "name": "holder",
          "type": "address"
        },
        {
          "internalType": "bool",
          "name": "exempt",
          "type": "bool"
        }
      ],
      "name": "setIsFeeExempt",
      "outputs": [],
      "stateMutability": "nonpayable",
      "type": "function"
    },
    {
      "inputs": [],
      "name": "rescue",
      "outputs": [],
      "stateMutability": "nonpayable",
      "type": "function"
    },
    {
      "inputs": [
        {
          "internalType": "address",
          "name": "pair",
          "type": "address"
        },
        {
          "internalType": "address",
          "name": "taxAddress",
          "type": "address"
        },
        {
          "internalType": "uint256",
          "name": "_newTaxAmount",
          "type": "uint256"
        }
      ],
      "name": "addPair",
      "outputs": [],
      "stateMutability": "nonpayable",
      "type": "function"
    },
    {
      "inputs": [],
      "name": "removeLastPair",
      "outputs": [],
      "stateMutability": "nonpayable",
      "type": "function"
    },
    {
      "inputs": [
        {
          "internalType": "address",
          "name": "pairAddressToRemove",
          "type": "address"
        }
      ],
      "name": "removePair",
      "outputs": [],
      "stateMutability": "nonpayable",
      "type": "function"
    },
    {
      "inputs": [
        {
          "internalType": "uint256",
          "name": "tokenIndex",
          "type": "uint256"
        }
      ],
      "name": "lastClaim",
      "outputs": [
        {
          "internalType": "uint256",
          "name": "",
          "type": "uint256"
        }
      ],
      "stateMutability": "view",
      "type": "function",
      "constant": true
    },
    {
      "inputs": [
        {
          "internalType": "uint256",
          "name": "tokenIndex",
          "type": "uint256"
        }
      ],
      "name": "accumulated",
      "outputs": [
        {
          "internalType": "uint256",
          "name": "",
          "type": "uint256"
        }
      ],
      "stateMutability": "view",
      "type": "function",
      "constant": true
    },
    {
      "inputs": [
        {
          "internalType": "uint256[]",
          "name": "tokenIndices",
          "type": "uint256[]"
        }
      ],
      "name": "claim",
      "outputs": [
        {
          "internalType": "uint256",
          "name": "",
          "type": "uint256"
        }
      ],
      "stateMutability": "nonpayable",
      "type": "function"
    },
    {
      "inputs": [
        {
          "internalType": "uint256",
          "name": "_newEmissionPerDay",
          "type": "uint256"
        }
      ],
      "name": "changeEmissionPerDay",
      "outputs": [],
      "stateMutability": "nonpayable",
      "type": "function"
    },
    {
      "inputs": [
        {
          "internalType": "address",
          "name": "tradeAddress",
          "type": "address"
        },
        {
          "internalType": "address",
          "name": "taxAddress",
          "type": "address"
        },
        {
          "internalType": "uint256",
          "name": "_newTaxAmount",
          "type": "uint256"
        }
      ],
      "name": "changeTaxAddressAndAmount",
      "outputs": [],
      "stateMutability": "nonpayable",
      "type": "function"
    }
  ],
  "bytecode": "0x6080604052671feb3dd067660000600255678ac7230489e800006003556103e8600c5573a16b13cdfee9a134d17957bef09dc3b5a4fddc1b600e60006101000a81548173ffffffffffffffffffffffffffffffffffffffff021916908373ffffffffffffffffffffffffffffffffffffffff160217905550600e60009054906101000a900473ffffffffffffffffffffffffffffffffffffffff16601160006101000a81548173ffffffffffffffffffffffffffffffffffffffff021916908373ffffffffffffffffffffffffffffffffffffffff1602179055506001601160146101000a81548160ff0219169083151502179055503480156200010257600080fd5b50604051620054a3380380620054a3833981810160405281019062000128919062000a09565b33806000806101000a81548173ffffffffffffffffffffffffffffffffffffffff021916908373ffffffffffffffffffffffffffffffffffffffff16021790555060018060008373ffffffffffffffffffffffffffffffffffffffff1673ffffffffffffffffffffffffffffffffffffffff16815260200190815260200160002060006101000a81548160ff02191690831515021790555050733380ae82e39e42ca34ebed69af67faa0683bb5c1601060006101000a81548173ffffffffffffffffffffffffffffffffffffffff021916908373ffffffffffffffffffffffffffffffffffffffff160217905550601060009054906101000a900473ffffffffffffffffffffffffffffffffffffffff1673ffffffffffffffffffffffffffffffffffffffff1663c45a01556040518163ffffffff1660e01b815260040160206040518083038186803b1580156200027f57600080fd5b505afa15801562000294573d6000803e3d6000fd5b505050506040513d601f19601f82011682018060405250810190620002ba9190620009dd565b73ffffffffffffffffffffffffffffffffffffffff1663c9c65396601060009054906101000a900473ffffffffffffffffffffffffffffffffffffffff1673ffffffffffffffffffffffffffffffffffffffff1663ad5c46486040518163ffffffff1660e01b815260040160206040518083038186803b1580156200033e57600080fd5b505afa15801562000353573d6000803e3d6000fd5b505050506040513d601f19601f82011682018060405250810190620003799190620009dd565b306040518363ffffffff1660e01b81526004016200039992919062000a99565b602060405180830381600087803b158015620003b457600080fd5b505af1158015620003c9573d6000803e3d6000fd5b505050506040513d601f19601f82011682018060405250810190620003ef9190620009dd565b600d60006101000a81548173ffffffffffffffffffffffffffffffffffffffff021916908373ffffffffffffffffffffffffffffffffffffffff1602179055507fffffffffffffffffffffffffffffffffffffffffffffffffffffffffffffffff600660003073ffffffffffffffffffffffffffffffffffffffff1673ffffffffffffffffffffffffffffffffffffffff1681526020019081526020016000206000601060009054906101000a900473ffffffffffffffffffffffffffffffffffffffff1673ffffffffffffffffffffffffffffffffffffffff1673ffffffffffffffffffffffffffffffffffffffff168152602001908152602001600020819055506001600760003373ffffffffffffffffffffffffffffffffffffffff1673ffffffffffffffffffffffffffffffffffffffff16815260200190815260200160002060006101000a81548160ff0219169083151502179055506001600760003073ffffffffffffffffffffffffffffffffffffffff1673ffffffffffffffffffffffffffffffffffffffff16815260200190815260200160002060006101000a81548160ff021916908315150217905550600f600d60009054906101000a900473ffffffffffffffffffffffffffffffffffffffff169080600181540180825580915050600190039060005260206000200160009091909190916101000a81548173ffffffffffffffffffffffffffffffffffffffff021916908373ffffffffffffffffffffffffffffffffffffffff1602179055503060096000600d60009054906101000a900473ffffffffffffffffffffffffffffffffffffffff1673ffffffffffffffffffffffffffffffffffffffff1673ffffffffffffffffffffffffffffffffffffffff16815260200190815260200160002060006101000a81548173ffffffffffffffffffffffffffffffffffffffff021916908373ffffffffffffffffffffffffffffffffffffffff1602179055506032600a6000600d60009054906101000a900473ffffffffffffffffffffffffffffffffffffffff1673ffffffffffffffffffffffffffffffffffffffff1673ffffffffffffffffffffffffffffffffffffffff168152602001908152602001600020819055506000600b6000600d60009054906101000a900473ffffffffffffffffffffffffffffffffffffffff1673ffffffffffffffffffffffffffffffffffffffff1673ffffffffffffffffffffffffffffffffffffffff16815260200190815260200160002060006101000a81548160ff021916908315150217905550620007da60008054906101000a900473ffffffffffffffffffffffffffffffffffffffff1682620007e160201b60201c565b5062000c14565b600073ffffffffffffffffffffffffffffffffffffffff168273ffffffffffffffffffffffffffffffffffffffff16141562000854576040517f08c379a00000000000000000000000000000000000000000000000000000000081526004016200084b9062000ac6565b60405180910390fd5b62000868600083836200099260201b60201c565b62000884816004546200099760201b6200243f1790919060201c565b600481905550620008e381600560008573ffffffffffffffffffffffffffffffffffffffff1673ffffffffffffffffffffffffffffffffffffffff168152602001908152602001600020546200099760201b6200243f1790919060201c565b600560008473ffffffffffffffffffffffffffffffffffffffff1673ffffffffffffffffffffffffffffffffffffffff168152602001908152602001600020819055508173ffffffffffffffffffffffffffffffffffffffff16600073ffffffffffffffffffffffffffffffffffffffff167fddf252ad1be2c89b69c2b068fc378daa952ba7f163c4a11628f55a4df523b3ef8360405162000986919062000ae8565b60405180910390a35050565b505050565b60008183620009a7919062000b16565b905092915050565b600081519050620009c08162000be0565b92915050565b600081519050620009d78162000bfa565b92915050565b600060208284031215620009f057600080fd5b600062000a0084828501620009af565b91505092915050565b60006020828403121562000a1c57600080fd5b600062000a2c84828501620009c6565b91505092915050565b62000a408162000b73565b82525050565b600062000a55601f8362000b05565b91507f45524332303a206d696e7420746f20746865207a65726f2061646472657373006000830152602082019050919050565b62000a938162000ba7565b82525050565b600060408201905062000ab0600083018562000a35565b62000abf602083018462000a35565b9392505050565b6000602082019050818103600083015262000ae18162000a46565b9050919050565b600060208201905062000aff600083018462000a88565b92915050565b600082825260208201905092915050565b600062000b238262000ba7565b915062000b308362000ba7565b9250827fffffffffffffffffffffffffffffffffffffffffffffffffffffffffffffffff0382111562000b685762000b6762000bb1565b5b828201905092915050565b600062000b808262000b87565b9050919050565b600073ffffffffffffffffffffffffffffffffffffffff82169050919050565b6000819050919050565b7f4e487b7100000000000000000000000000000000000000000000000000000000600052601160045260246000fd5b62000beb8162000b73565b811462000bf757600080fd5b50565b62000c058162000ba7565b811462000c1157600080fd5b50565b61487f8062000c246000396000f3fe6080604052600436106101fc5760003560e01c8063715702611161010d578063b5acfa62116100a0578063e01af92c1161006f578063e01af92c14610779578063f0b37c04146107a2578063f2fde38b146107cb578063f9cfa06f146107f4578063fe9fbb801461081f57610203565b8063b5acfa62146106ad578063b6a5d7de146106d6578063c607cde7146106ff578063dd62ed3e1461073c57610203565b806395d89b41116100dc57806395d89b41146105f1578063a9059cbb1461061c578063af6c9c1d14610659578063b551b82f1461068257610203565b806371570261146105475780637b0b003e146105705780638368909c1461059b578063893d20e8146105c657610203565b80633d3728b5116101905780635e0a12801161015f5780635e0a128014610450578063658d4b7f146104795780636ba4c138146104a25780636ddd1713146104df57806370a082311461050a57610203565b80633d3728b51461036e57806342966c68146103ab5780634747d509146103e8578063571ac8b01461041357610203565b80631fbe1979116101cc5780631fbe1979146102b257806323b872dd146102c95780632f54bf6e14610306578063313ce5671461034357610203565b806293dc141461020857806306fdde031461021f578063095ea7b31461024a57806318160ddd1461028757610203565b3661020357005b600080fd5b34801561021457600080fd5b5061021d61085c565b005b34801561022b57600080fd5b50610234610913565b6040516102419190614270565b60405180910390f35b34801561025657600080fd5b50610271600480360381019061026c9190613c22565b610950565b60405161027e9190614255565b60405180910390f35b34801561029357600080fd5b5061029c610a42565b6040516102a99190614472565b60405180910390f35b3480156102be57600080fd5b506102c7610a4c565b005b3480156102d557600080fd5b506102f060048036038101906102eb9190613b97565b610acc565b6040516102fd9190614255565b60405180910390f35b34801561031257600080fd5b5061032d60048036038101906103289190613ae0565b610cd8565b60405161033a9190614255565b60405180910390f35b34801561034f57600080fd5b50610358610d31565b604051610365919061448d565b60405180910390f35b34801561037a57600080fd5b5061039560048036038101906103909190613cf1565b610d3a565b6040516103a29190614472565b60405180910390f35b3480156103b757600080fd5b506103d260048036038101906103cd9190613cf1565b610e9c565b6040516103df9190614255565b60405180910390f35b3480156103f457600080fd5b506103fd610fbd565b60405161040a9190614472565b60405180910390f35b34801561041f57600080fd5b5061043a60048036038101906104359190613ae0565b610fc5565b6040516104479190614255565b60405180910390f35b34801561045c57600080fd5b5061047760048036038101906104729190613b97565b610ff8565b005b34801561048557600080fd5b506104a0600480360381019061049b9190613be6565b611342565b005b3480156104ae57600080fd5b506104c960048036038101906104c49190613c5e565b6113e5565b6040516104d69190614472565b60405180910390f35b3480156104eb57600080fd5b506104f4611818565b6040516105019190614255565b60405180910390f35b34801561051657600080fd5b50610531600480360381019061052c9190613ae0565b61182b565b60405161053e9190614472565b60405180910390f35b34801561055357600080fd5b5061056e60048036038101906105699190613cf1565b611874565b005b34801561057c57600080fd5b50610585611917565b604051610592919061421f565b60405180910390f35b3480156105a757600080fd5b506105b061193d565b6040516105bd9190614472565b60405180910390f35b3480156105d257600080fd5b506105db611945565b6040516105e8919061421f565b60405180910390f35b3480156105fd57600080fd5b5061060661196e565b6040516106139190614270565b60405180910390f35b34801561062857600080fd5b50610643600480360381019061063e9190613c22565b6119ab565b6040516106509190614255565b60405180910390f35b34801561066557600080fd5b50610680600480360381019061067b9190613ae0565b6119c0565b005b34801561068e57600080fd5b50610697611c0c565b6040516106a49190614472565b60405180910390f35b3480156106b957600080fd5b506106d460048036038101906106cf9190613b97565b611c12565b005b3480156106e257600080fd5b506106fd60048036038101906106f89190613ae0565b611ddc565b005b34801561070b57600080fd5b5061072660048036038101906107219190613cf1565b611e7e565b6040516107339190614472565b60405180910390f35b34801561074857600080fd5b50610763600480360381019061075e9190613b5b565b612103565b6040516107709190614472565b60405180910390f35b34801561078557600080fd5b506107a0600480360381019061079b9190613c9f565b61218a565b005b3480156107ae57600080fd5b506107c960048036038101906107c49190613ae0565b612226565b005b3480156107d757600080fd5b506107f260048036038101906107ed9190613b32565b6122c9565b005b34801561080057600080fd5b506108096123e2565b6040516108169190614472565b60405180910390f35b34801561082b57600080fd5b5061084660048036038101906108419190613ae0565b6123e9565b6040516108539190614255565b60405180910390f35b610865336123e9565b6108a4576040517f08c379a000000000000000000000000000000000000000000000000000000000815260040161089b90614412565b60405180910390fd5b600f8054806108dc577f4e487b7100000000000000000000000000000000000000000000000000000000600052603160045260246000fd5b6001900381819060005260206000200160006101000a81549073ffffffffffffffffffffffffffffffffffffffff02191690559055565b60606040518060400160405280600481526020017f4149763200000000000000000000000000000000000000000000000000000000815250905090565b600081600660003373ffffffffffffffffffffffffffffffffffffffff1673ffffffffffffffffffffffffffffffffffffffff16815260200190815260200160002060008573ffffffffffffffffffffffffffffffffffffffff1673ffffffffffffffffffffffffffffffffffffffff168152602001908152602001600020819055508273ffffffffffffffffffffffffffffffffffffffff163373ffffffffffffffffffffffffffffffffffffffff167f8c5be1e5ebec7d5bd14f71427d1e84f3dd0314c0f7b2291e5b200ac8c7c3b92584604051610a309190614472565b60405180910390a36001905092915050565b6000600454905090565b60008054906101000a900473ffffffffffffffffffffffffffffffffffffffff1673ffffffffffffffffffffffffffffffffffffffff166108fc3073ffffffffffffffffffffffffffffffffffffffff16319081150290604051600060405180830381858888f19350505050158015610ac9573d6000803e3d6000fd5b50565b60007fffffffffffffffffffffffffffffffffffffffffffffffffffffffffffffffff600660008673ffffffffffffffffffffffffffffffffffffffff1673ffffffffffffffffffffffffffffffffffffffff16815260200190815260200160002060003373ffffffffffffffffffffffffffffffffffffffff1673ffffffffffffffffffffffffffffffffffffffff1681526020019081526020016000205414610cc45781600660008673ffffffffffffffffffffffffffffffffffffffff1673ffffffffffffffffffffffffffffffffffffffff16815260200190815260200160002060003373ffffffffffffffffffffffffffffffffffffffff1673ffffffffffffffffffffffffffffffffffffffff168152602001908152602001600020541015610c30576040517f08c379a0000000000000000000000000000000000000000000000000000000008152600401610c2790614292565b60405180910390fd5b81600660008673ffffffffffffffffffffffffffffffffffffffff1673ffffffffffffffffffffffffffffffffffffffff16815260200190815260200160002060003373ffffffffffffffffffffffffffffffffffffffff1673ffffffffffffffffffffffffffffffffffffffff1681526020019081526020016000206000828254610cbc9190614602565b925050819055505b610ccf848484612455565b90509392505050565b60008060009054906101000a900473ffffffffffffffffffffffffffffffffffffffff1673ffffffffffffffffffffffffffffffffffffffff168273ffffffffffffffffffffffffffffffffffffffff16149050919050565b60006012905090565b60008073ffffffffffffffffffffffffffffffffffffffff16601160009054906101000a900473ffffffffffffffffffffffffffffffffffffffff1673ffffffffffffffffffffffffffffffffffffffff16636352211e846040518263ffffffff1660e01b8152600401610dae9190614472565b60206040518083038186803b158015610dc657600080fd5b505afa158015610dda573d6000803e3d6000fd5b505050506040513d601f19601f82011682018060405250810190610dfe9190613b09565b73ffffffffffffffffffffffffffffffffffffffff161415610e55576040517f08c379a0000000000000000000000000000000000000000000000000000000008152600401610e4c90614312565b60405180910390fd5b60008060086000858152602001908152602001600020541415610e7c57636148c1b5610e91565b60086000848152602001908152602001600020545b905080915050919050565b6000610ef082600560003373ffffffffffffffffffffffffffffffffffffffff1673ffffffffffffffffffffffffffffffffffffffff16815260200190815260200160002054612afa90919063ffffffff16565b600560003373ffffffffffffffffffffffffffffffffffffffff1673ffffffffffffffffffffffffffffffffffffffff16815260200190815260200160002081905550610f4882600454612afa90919063ffffffff16565b600481905550600073ffffffffffffffffffffffffffffffffffffffff163373ffffffffffffffffffffffffffffffffffffffff167fddf252ad1be2c89b69c2b068fc378daa952ba7f163c4a11628f55a4df523b3ef84604051610fac9190614472565b60405180910390a360019050919050565b636148c1b581565b6000610ff1827fffffffffffffffffffffffffffffffffffffffffffffffffffffffffffffffff610950565b9050919050565b61100133610cd8565b611040576040517f08c379a0000000000000000000000000000000000000000000000000000000008152600401611037906143b2565b60405180910390fd5b60008110158015611052575060c88111155b611091576040517f08c379a0000000000000000000000000000000000000000000000000000000008152600401611088906142f2565b60405180910390fd5b600073ffffffffffffffffffffffffffffffffffffffff16600960008573ffffffffffffffffffffffffffffffffffffffff1673ffffffffffffffffffffffffffffffffffffffff16815260200190815260200160002060009054906101000a900473ffffffffffffffffffffffffffffffffffffffff1673ffffffffffffffffffffffffffffffffffffffff161415611160576040517f08c379a000000000000000000000000000000000000000000000000000000000815260040161115790614452565b60405180910390fd5b7fffffffffffffffffffffffffffffffffffffffffffffffffffffffffffffffff600660008473ffffffffffffffffffffffffffffffffffffffff1673ffffffffffffffffffffffffffffffffffffffff1681526020019081526020016000206000601060009054906101000a900473ffffffffffffffffffffffffffffffffffffffff1673ffffffffffffffffffffffffffffffffffffffff1673ffffffffffffffffffffffffffffffffffffffff1681526020019081526020016000208190555081600960008573ffffffffffffffffffffffffffffffffffffffff1673ffffffffffffffffffffffffffffffffffffffff16815260200190815260200160002060006101000a81548173ffffffffffffffffffffffffffffffffffffffff021916908373ffffffffffffffffffffffffffffffffffffffff16021790555080600a60008573ffffffffffffffffffffffffffffffffffffffff1673ffffffffffffffffffffffffffffffffffffffff168152602001908152602001600020819055506001600760008473ffffffffffffffffffffffffffffffffffffffff1673ffffffffffffffffffffffffffffffffffffffff16815260200190815260200160002060006101000a81548160ff021916908315150217905550505050565b61134b336123e9565b61138a576040517f08c379a000000000000000000000000000000000000000000000000000000000815260040161138190614412565b60405180910390fd5b80600760008473ffffffffffffffffffffffffffffffffffffffff1673ffffffffffffffffffffffffffffffffffffffff16815260200190815260200160002060006101000a81548160ff0219169083151502179055505050565b6000806000905060005b83518110156117c057601160009054906101000a900473ffffffffffffffffffffffffffffffffffffffff1673ffffffffffffffffffffffffffffffffffffffff166318160ddd6040518163ffffffff1660e01b815260040160206040518083038186803b15801561146057600080fd5b505afa158015611474573d6000803e3d6000fd5b505050506040513d601f19601f820116820180604052508101906114989190613d1a565b8482815181106114d1577f4e487b7100000000000000000000000000000000000000000000000000000000600052603260045260246000fd5b602002602001015110611519576040517f08c379a0000000000000000000000000000000000000000000000000000000008152600401611510906143d2565b60405180910390fd5b60006001826115289190614521565b90505b845181101561160a5784818151811061156d577f4e487b7100000000000000000000000000000000000000000000000000000000600052603260045260246000fd5b60200260200101518583815181106115ae577f4e487b7100000000000000000000000000000000000000000000000000000000600052603260045260246000fd5b602002602001015114156115f7576040517f08c379a00000000000000000000000000000000000000000000000000000000081526004016115ee90614332565b60405180910390fd5b808061160290614706565b91505061152b565b506000848281518110611646577f4e487b7100000000000000000000000000000000000000000000000000000000600052603260045260246000fd5b602002602001015190503373ffffffffffffffffffffffffffffffffffffffff16601160009054906101000a900473ffffffffffffffffffffffffffffffffffffffff1673ffffffffffffffffffffffffffffffffffffffff16636352211e836040518263ffffffff1660e01b81526004016116c29190614472565b60206040518083038186803b1580156116da57600080fd5b505afa1580156116ee573d6000803e3d6000fd5b505050506040513d601f19601f820116820180604052508101906117129190613b09565b73ffffffffffffffffffffffffffffffffffffffff1614611768576040517f08c379a000000000000000000000000000000000000000000000000000000000815260040161175f90614352565b60405180910390fd5b600061177382611e7e565b9050600081146117ab57611790818561243f90919063ffffffff16565b93504260086000848152602001908152602001600020819055505b505080806117b890614706565b9150506113ef565b506000811415611805576040517f08c379a00000000000000000000000000000000000000000000000000000000081526004016117fc906143f2565b60405180910390fd5b61180f3382612b10565b80915050919050565b601160149054906101000a900460ff1681565b6000600560008373ffffffffffffffffffffffffffffffffffffffff1673ffffffffffffffffffffffffffffffffffffffff168152602001908152602001600020549050919050565b61187d33610cd8565b6118bc576040517f08c379a00000000000000000000000000000000000000000000000000000000081526004016118b3906143b2565b60405180910390fd5b6000811015806118ce57506003548111155b61190d576040517f08c379a000000000000000000000000000000000000000000000000000000000815260040161190490614372565b60405180910390fd5b8060028190555050565b600d60009054906101000a900473ffffffffffffffffffffffffffffffffffffffff1681565b6373407f9081565b60008060009054906101000a900473ffffffffffffffffffffffffffffffffffffffff16905090565b60606040518060400160405280600281526020017f4149000000000000000000000000000000000000000000000000000000000000815250905090565b60006119b8338484612455565b905092915050565b6119c933610cd8565b611a08576040517f08c379a00000000000000000000000000000000000000000000000000000000081526004016119ff906143b2565b60405180910390fd5b611a1181612ca6565b611a50576040517f08c379a0000000000000000000000000000000000000000000000000000000008152600401611a47906142b2565b60405180910390fd5b6000611a6e6001611a6084612d8e565b612afa90919063ffffffff16565b905060008190505b6001600f80549050611a889190614602565b811015611b9a57600f6001600f80549050611aa39190614602565b81548110611ada577f4e487b7100000000000000000000000000000000000000000000000000000000600052603260045260246000fd5b9060005260206000200160009054906101000a900473ffffffffffffffffffffffffffffffffffffffff16600f8281548110611b3f577f4e487b7100000000000000000000000000000000000000000000000000000000600052603260045260246000fd5b9060005260206000200160006101000a81548173ffffffffffffffffffffffffffffffffffffffff021916908373ffffffffffffffffffffffffffffffffffffffff1602179055508080611b9290614706565b915050611a76565b50600f805480611bd3577f4e487b7100000000000000000000000000000000000000000000000000000000600052603160045260246000fd5b6001900381819060005260206000200160006101000a81549073ffffffffffffffffffffffffffffffffffffffff021916905590555050565b60025481565b611c1b336123e9565b611c5a576040517f08c379a0000000000000000000000000000000000000000000000000000000008152600401611c5190614412565b60405180910390fd5b600f839080600181540180825580915050600190039060005260206000200160009091909190916101000a81548173ffffffffffffffffffffffffffffffffffffffff021916908373ffffffffffffffffffffffffffffffffffffffff16021790555081600960008573ffffffffffffffffffffffffffffffffffffffff1673ffffffffffffffffffffffffffffffffffffffff16815260200190815260200160002060006101000a81548173ffffffffffffffffffffffffffffffffffffffff021916908373ffffffffffffffffffffffffffffffffffffffff16021790555080600a60008573ffffffffffffffffffffffffffffffffffffffff1673ffffffffffffffffffffffffffffffffffffffff168152602001908152602001600020819055506001600760008573ffffffffffffffffffffffffffffffffffffffff1673ffffffffffffffffffffffffffffffffffffffff16815260200190815260200160002060006101000a81548160ff021916908315150217905550505050565b611de533610cd8565b611e24576040517f08c379a0000000000000000000000000000000000000000000000000000000008152600401611e1b906143b2565b60405180910390fd5b60018060008373ffffffffffffffffffffffffffffffffffffffff1673ffffffffffffffffffffffffffffffffffffffff16815260200190815260200160002060006101000a81548160ff02191690831515021790555050565b60008073ffffffffffffffffffffffffffffffffffffffff16601160009054906101000a900473ffffffffffffffffffffffffffffffffffffffff1673ffffffffffffffffffffffffffffffffffffffff16636352211e846040518263ffffffff1660e01b8152600401611ef29190614472565b60206040518083038186803b158015611f0a57600080fd5b505afa158015611f1e573d6000803e3d6000fd5b505050506040513d601f19601f82011682018060405250810190611f429190613b09565b73ffffffffffffffffffffffffffffffffffffffff161415611f99576040517f08c379a0000000000000000000000000000000000000000000000000000000008152600401611f9090614312565b60405180910390fd5b601160009054906101000a900473ffffffffffffffffffffffffffffffffffffffff1673ffffffffffffffffffffffffffffffffffffffff166318160ddd6040518163ffffffff1660e01b815260040160206040518083038186803b15801561200157600080fd5b505afa158015612015573d6000803e3d6000fd5b505050506040513d601f19601f820116820180604052508101906120399190613d1a565b821061207a576040517f08c379a0000000000000000000000000000000000000000000000000000000008152600401612071906143d2565b60405180910390fd5b600061208583610d3a565b90506373407f90811061209c5760009150506120fe565b60006373407f9042106120b3576373407f906120b5565b425b905060006120f5620151806120e76002546120d98787612afa90919063ffffffff16565b612e7590919063ffffffff16565b612e8b90919063ffffffff16565b90508093505050505b919050565b6000600660008473ffffffffffffffffffffffffffffffffffffffff1673ffffffffffffffffffffffffffffffffffffffff16815260200190815260200160002060008373ffffffffffffffffffffffffffffffffffffffff1673ffffffffffffffffffffffffffffffffffffffff16815260200190815260200160002054905092915050565b612193336123e9565b6121d2576040517f08c379a00000000000000000000000000000000000000000000000000000000081526004016121c990614412565b60405180910390fd5b80601160146101000a81548160ff0219169083151502179055507f7a29006526059a02f7639403a1d380d26b6cb9952344b8001198c91660fe372b8160405161221b9190614255565b60405180910390a150565b61222f33610cd8565b61226e576040517f08c379a0000000000000000000000000000000000000000000000000000000008152600401612265906143b2565b60405180910390fd5b6000600160008373ffffffffffffffffffffffffffffffffffffffff1673ffffffffffffffffffffffffffffffffffffffff16815260200190815260200160002060006101000a81548160ff02191690831515021790555050565b6122d233610cd8565b612311576040517f08c379a0000000000000000000000000000000000000000000000000000000008152600401612308906143b2565b60405180910390fd5b806000806101000a81548173ffffffffffffffffffffffffffffffffffffffff021916908373ffffffffffffffffffffffffffffffffffffffff16021790555060018060008373ffffffffffffffffffffffffffffffffffffffff1673ffffffffffffffffffffffffffffffffffffffff16815260200190815260200160002060006101000a81548160ff0219169083151502179055507f04dba622d284ed0014ee4b9a6a68386be1a4c08a4913ae272de89199cc686163816040516123d7919061423a565b60405180910390a150565b6201518081565b6000600160008373ffffffffffffffffffffffffffffffffffffffff1673ffffffffffffffffffffffffffffffffffffffff16815260200190815260200160002060009054906101000a900460ff169050919050565b6000818361244d9190614521565b905092915050565b600080821161246357600080fd5b600061246f8585612ea1565b905060008073ffffffffffffffffffffffffffffffffffffffff168273ffffffffffffffffffffffffffffffffffffffff1614156124ae57600161258c565b600960008373ffffffffffffffffffffffffffffffffffffffff1673ffffffffffffffffffffffffffffffffffffffff16815260200190815260200160002060009054906101000a900473ffffffffffffffffffffffffffffffffffffffff1673ffffffffffffffffffffffffffffffffffffffff1663cc9968996040518163ffffffff1660e01b815260040160206040518083038186803b15801561255357600080fd5b505afa158015612567573d6000803e3d6000fd5b505050506040513d601f19601f8201168201806040525081019061258b9190613cc8565b5b905080806125c65750600073ffffffffffffffffffffffffffffffffffffffff168273ffffffffffffffffffffffffffffffffffffffff16145b156125df576125d686868661308d565b92505050612af3565b600b60008373ffffffffffffffffffffffffffffffffffffffff1673ffffffffffffffffffffffffffffffffffffffff16815260200190815260200160002060009054906101000a900460ff1615801561266457508173ffffffffffffffffffffffffffffffffffffffff168573ffffffffffffffffffffffffffffffffffffffff16145b801561269d5750600073ffffffffffffffffffffffffffffffffffffffff168273ffffffffffffffffffffffffffffffffffffffff1614155b15612834576000600560008873ffffffffffffffffffffffffffffffffffffffff1673ffffffffffffffffffffffffffffffffffffffff16815260200190815260200160002054116126ee57600080fd5b60008054906101000a900473ffffffffffffffffffffffffffffffffffffffff1673ffffffffffffffffffffffffffffffffffffffff168673ffffffffffffffffffffffffffffffffffffffff161461277c576040517f08c379a0000000000000000000000000000000000000000000000000000000008152600401612773906142d2565b60405180910390fd5b600b60008373ffffffffffffffffffffffffffffffffffffffff1673ffffffffffffffffffffffffffffffffffffffff16815260200190815260200160002060009054906101000a900460ff1615600b60008473ffffffffffffffffffffffffffffffffffffffff1673ffffffffffffffffffffffffffffffffffffffff16815260200190815260200160002060006101000a81548160ff02191690831515021790555061282b86868661308d565b92505050612af3565b600560008773ffffffffffffffffffffffffffffffffffffffff1673ffffffffffffffffffffffffffffffffffffffff168152602001908152602001600020548411156128b6576040517f08c379a00000000000000000000000000000000000000000000000000000000081526004016128ad90614392565b60405180910390fd5b83600560008873ffffffffffffffffffffffffffffffffffffffff1673ffffffffffffffffffffffffffffffffffffffff16815260200190815260200160002060008282546129059190614602565b92505081905550600061291987878561322d565b612923578461292f565b61292e8786856134f8565b5b905060006129468287612afa90919063ffffffff16565b905061295184613862565b801561295b575082155b80156129675750600081115b15612a2f57600960008573ffffffffffffffffffffffffffffffffffffffff1673ffffffffffffffffffffffffffffffffffffffff16815260200190815260200160002060009054906101000a900473ffffffffffffffffffffffffffffffffffffffff1673ffffffffffffffffffffffffffffffffffffffff16631a39150c6040518163ffffffff1660e01b8152600401600060405180830381600087803b158015612a1357600080fd5b505af1925050508015612a24575060015b612a2d57612a2e565b5b5b81600560008973ffffffffffffffffffffffffffffffffffffffff1673ffffffffffffffffffffffffffffffffffffffff1681526020019081526020016000206000828254612a7e9190614521565b925050819055508673ffffffffffffffffffffffffffffffffffffffff168873ffffffffffffffffffffffffffffffffffffffff167fddf252ad1be2c89b69c2b068fc378daa952ba7f163c4a11628f55a4df523b3ef84604051612ae29190614472565b60405180910390a360019450505050505b9392505050565b60008183612b089190614602565b905092915050565b600073ffffffffffffffffffffffffffffffffffffffff168273ffffffffffffffffffffffffffffffffffffffff161415612b80576040517f08c379a0000000000000000000000000000000000000000000000000000000008152600401612b7790614432565b60405180910390fd5b612b8c600083836139b2565b612ba18160045461243f90919063ffffffff16565b600481905550612bf981600560008573ffffffffffffffffffffffffffffffffffffffff1673ffffffffffffffffffffffffffffffffffffffff1681526020019081526020016000205461243f90919063ffffffff16565b600560008473ffffffffffffffffffffffffffffffffffffffff1673ffffffffffffffffffffffffffffffffffffffff168152602001908152602001600020819055508173ffffffffffffffffffffffffffffffffffffffff16600073ffffffffffffffffffffffffffffffffffffffff167fddf252ad1be2c89b69c2b068fc378daa952ba7f163c4a11628f55a4df523b3ef83604051612c9a9190614472565b60405180910390a35050565b600080600f805490501415612cbe5760009050612d89565b60005b600f80549050811015612d83578273ffffffffffffffffffffffffffffffffffffffff16600f8281548110612d1f577f4e487b7100000000000000000000000000000000000000000000000000000000600052603260045260246000fd5b9060005260206000200160009054906101000a900473ffffffffffffffffffffffffffffffffffffffff1673ffffffffffffffffffffffffffffffffffffffff161415612d70576001915050612d89565b8080612d7b90614706565b915050612cc1565b50600090505b919050565b600080600090505b600f80549050811015612e6a578273ffffffffffffffffffffffffffffffffffffffff16600f8281548110612df4577f4e487b7100000000000000000000000000000000000000000000000000000000600052603260045260246000fd5b9060005260206000200160009054906101000a900473ffffffffffffffffffffffffffffffffffffffff1673ffffffffffffffffffffffffffffffffffffffff161415612e5757612e4f60018261243f90919063ffffffff16565b915050612e70565b8080612e6290614706565b915050612d96565b50600090505b919050565b60008183612e8391906145a8565b905092915050565b60008183612e999190614577565b905092915050565b600080600f805480602002602001604051908101604052809291908181526020018280548015612f2657602002820191906000526020600020905b8160009054906101000a900473ffffffffffffffffffffffffffffffffffffffff1673ffffffffffffffffffffffffffffffffffffffff1681526020019060010190808311612edc575b5050505050905060005b815181101561308057818181518110612f72577f4e487b7100000000000000000000000000000000000000000000000000000000600052603260045260246000fd5b602002602001015173ffffffffffffffffffffffffffffffffffffffff168573ffffffffffffffffffffffffffffffffffffffff16148061301e5750818181518110612fe7577f4e487b7100000000000000000000000000000000000000000000000000000000600052603260045260246000fd5b602002602001015173ffffffffffffffffffffffffffffffffffffffff168473ffffffffffffffffffffffffffffffffffffffff16145b1561306d5781818151811061305c577f4e487b7100000000000000000000000000000000000000000000000000000000600052603260045260246000fd5b602002602001015192505050613087565b808061307890614706565b915050612f30565b5060009150505b92915050565b6000600560008573ffffffffffffffffffffffffffffffffffffffff1673ffffffffffffffffffffffffffffffffffffffff16815260200190815260200160002054821115613111576040517f08c379a000000000000000000000000000000000000000000000000000000000815260040161310890614392565b60405180910390fd5b81600560008673ffffffffffffffffffffffffffffffffffffffff1673ffffffffffffffffffffffffffffffffffffffff16815260200190815260200160002060008282546131609190614602565b9250508190555081600560008573ffffffffffffffffffffffffffffffffffffffff1673ffffffffffffffffffffffffffffffffffffffff16815260200190815260200160002060008282546131b69190614521565b925050819055508273ffffffffffffffffffffffffffffffffffffffff168473ffffffffffffffffffffffffffffffffffffffff167fddf252ad1be2c89b69c2b068fc378daa952ba7f163c4a11628f55a4df523b3ef8460405161321a9190614472565b60405180910390a3600190509392505050565b6000600760008573ffffffffffffffffffffffffffffffffffffffff1673ffffffffffffffffffffffffffffffffffffffff16815260200190815260200160002060009054906101000a900460ff16806132d05750600760008473ffffffffffffffffffffffffffffffffffffffff1673ffffffffffffffffffffffffffffffffffffffff16815260200190815260200160002060009054906101000a900460ff165b806133255750600b60008373ffffffffffffffffffffffffffffffffffffffff1673ffffffffffffffffffffffffffffffffffffffff16815260200190815260200160002060009054906101000a900460ff16155b8061333d5750601160149054906101000a900460ff16155b1561334b57600090506134f1565b6000600f8054806020026020016040519081016040528092919081815260200182805480156133cf57602002820191906000526020600020905b8160009054906101000a900473ffffffffffffffffffffffffffffffffffffffff1673ffffffffffffffffffffffffffffffffffffffff1681526020019060010190808311613385575b5050505050905060005b81518110156134ea5781818151811061341b577f4e487b7100000000000000000000000000000000000000000000000000000000600052603260045260246000fd5b602002602001015173ffffffffffffffffffffffffffffffffffffffff168673ffffffffffffffffffffffffffffffffffffffff1614806134c75750818181518110613490577f4e487b7100000000000000000000000000000000000000000000000000000000600052603260045260246000fd5b602002602001015173ffffffffffffffffffffffffffffffffffffffff168573ffffffffffffffffffffffffffffffffffffffff16145b156134d7576001925050506134f1565b80806134e290614706565b9150506133d9565b5060009150505b9392505050565b6000600b60008373ffffffffffffffffffffffffffffffffffffffff1673ffffffffffffffffffffffffffffffffffffffff16815260200190815260200160002060009054906101000a900460ff166135535782905061385b565b600080600a60008573ffffffffffffffffffffffffffffffffffffffff1673ffffffffffffffffffffffffffffffffffffffff16815260200190815260200160002054111561384b57613602600c546135f4600a60008773ffffffffffffffffffffffffffffffffffffffff1673ffffffffffffffffffffffffffffffffffffffff1681526020019081526020016000205487612e7590919063ffffffff16565b612e8b90919063ffffffff16565b90508060056000600960008773ffffffffffffffffffffffffffffffffffffffff1673ffffffffffffffffffffffffffffffffffffffff16815260200190815260200160002060009054906101000a900473ffffffffffffffffffffffffffffffffffffffff1673ffffffffffffffffffffffffffffffffffffffff1673ffffffffffffffffffffffffffffffffffffffff16815260200190815260200160002060008282546136b29190614521565b92505081905550600960008473ffffffffffffffffffffffffffffffffffffffff1673ffffffffffffffffffffffffffffffffffffffff16815260200190815260200160002060009054906101000a900473ffffffffffffffffffffffffffffffffffffffff1673ffffffffffffffffffffffffffffffffffffffff168573ffffffffffffffffffffffffffffffffffffffff167fddf252ad1be2c89b69c2b068fc378daa952ba7f163c4a11628f55a4df523b3ef836040516137759190614472565b60405180910390a3600960008473ffffffffffffffffffffffffffffffffffffffff1673ffffffffffffffffffffffffffffffffffffffff16815260200190815260200160002060009054906101000a900473ffffffffffffffffffffffffffffffffffffffff1673ffffffffffffffffffffffffffffffffffffffff166343e9618c826040518263ffffffff1660e01b81526004016138159190614472565b600060405180830381600087803b15801561382f57600080fd5b505af1925050508015613840575060015b6138495761384a565b5b5b80846138579190614602565b9150505b9392505050565b6000600b60008373ffffffffffffffffffffffffffffffffffffffff1673ffffffffffffffffffffffffffffffffffffffff16815260200190815260200160002060009054906101000a900460ff1680156138e957508173ffffffffffffffffffffffffffffffffffffffff163373ffffffffffffffffffffffffffffffffffffffff1614155b80156139015750601160149054906101000a900460ff165b80156139ab5750600060056000600960008673ffffffffffffffffffffffffffffffffffffffff1673ffffffffffffffffffffffffffffffffffffffff16815260200190815260200160002060009054906101000a900473ffffffffffffffffffffffffffffffffffffffff1673ffffffffffffffffffffffffffffffffffffffff1673ffffffffffffffffffffffffffffffffffffffff16815260200190815260200160002054115b9050919050565b505050565b60006139ca6139c5846144d9565b6144a8565b905080838252602082019050828560208602820111156139e957600080fd5b60005b85811015613a1957816139ff8882613ab6565b8452602084019350602083019250506001810190506139ec565b5050509392505050565b600081359050613a32816147ed565b92915050565b600081519050613a47816147ed565b92915050565b600081359050613a5c81614804565b92915050565b600082601f830112613a7357600080fd5b8135613a838482602086016139b7565b91505092915050565b600081359050613a9b8161481b565b92915050565b600081519050613ab08161481b565b92915050565b600081359050613ac581614832565b92915050565b600081519050613ada81614832565b92915050565b600060208284031215613af257600080fd5b6000613b0084828501613a23565b91505092915050565b600060208284031215613b1b57600080fd5b6000613b2984828501613a38565b91505092915050565b600060208284031215613b4457600080fd5b6000613b5284828501613a4d565b91505092915050565b60008060408385031215613b6e57600080fd5b6000613b7c85828601613a23565b9250506020613b8d85828601613a23565b9150509250929050565b600080600060608486031215613bac57600080fd5b6000613bba86828701613a23565b9350506020613bcb86828701613a23565b9250506040613bdc86828701613ab6565b9150509250925092565b60008060408385031215613bf957600080fd5b6000613c0785828601613a23565b9250506020613c1885828601613a8c565b9150509250929050565b60008060408385031215613c3557600080fd5b6000613c4385828601613a23565b9250506020613c5485828601613ab6565b9150509250929050565b600060208284031215613c7057600080fd5b600082013567ffffffffffffffff811115613c8a57600080fd5b613c9684828501613a62565b91505092915050565b600060208284031215613cb157600080fd5b6000613cbf84828501613a8c565b91505092915050565b600060208284031215613cda57600080fd5b6000613ce884828501613aa1565b91505092915050565b600060208284031215613d0357600080fd5b6000613d1184828501613ab6565b91505092915050565b600060208284031215613d2c57600080fd5b6000613d3a84828501613acb565b91505092915050565b613d4c8161469d565b82525050565b613d5b81614636565b82525050565b613d6a8161465a565b82525050565b6000613d7b82614505565b613d858185614510565b9350613d958185602086016146d3565b613d9e816147dc565b840191505092915050565b6000613db6601683614510565b91507f496e73756666696369656e7420416c6c6f77616e6365000000000000000000006000830152602082019050919050565b6000613df6602a83614510565b91507f546865206164647265737320796f752074727920746f2072656d6f766520646f60008301527f65736e74206578697374000000000000000000000000000000000000000000006020830152604082019050919050565b6000613e5c603183614510565b91507f4f6e6c7920746865206f776e65722063616e206265207468652066697273742060008301527f746f20616464206c69717569646974792e0000000000000000000000000000006020830152604082019050919050565b6000613ec2602283614510565b91507f50726f766964652076616c696420746178206265747765656e203120616e642060008301527f32300000000000000000000000000000000000000000000000000000000000006020830152604082019050919050565b6000613f28601983614510565b91507f4f776e65722063616e6e6f7420626520302061646472657373000000000000006000830152602082019050919050565b6000613f68601583614510565b91507f4475706c696361746520746f6b656e20696e64657800000000000000000000006000830152602082019050919050565b6000613fa8601783614510565b91507f53656e646572206973206e6f7420746865206f776e65720000000000000000006000830152602082019050919050565b6000613fe8601883614510565b91507f696e76616c696420656d697373696f6e207065722064617900000000000000006000830152602082019050919050565b6000614028601483614510565b91507f496e73756666696369656e742042616c616e63650000000000000000000000006000830152602082019050919050565b6000614068600683614510565b91507f214f574e455200000000000000000000000000000000000000000000000000006000830152602082019050919050565b60006140a8602383614510565b91507f414920617420696e64657820686173206e6f74206265656e206d696e7465642060008301527f79657400000000000000000000000000000000000000000000000000000000006020830152604082019050919050565b600061410e601183614510565b91507f4e6f20616363756d756c617465642041490000000000000000000000000000006000830152602082019050919050565b600061414e600b83614510565b91507f21415554484f52495a45440000000000000000000000000000000000000000006000830152602082019050919050565b600061418e601f83614510565b91507f45524332303a206d696e7420746f20746865207a65726f2061646472657373006000830152602082019050919050565b60006141ce601a83614510565b91507f5472616465206164647265737320646f65736e742065786973740000000000006000830152602082019050919050565b61420a81614686565b82525050565b61421981614690565b82525050565b60006020820190506142346000830184613d52565b92915050565b600060208201905061424f6000830184613d43565b92915050565b600060208201905061426a6000830184613d61565b92915050565b6000602082019050818103600083015261428a8184613d70565b905092915050565b600060208201905081810360008301526142ab81613da9565b9050919050565b600060208201905081810360008301526142cb81613de9565b9050919050565b600060208201905081810360008301526142eb81613e4f565b9050919050565b6000602082019050818103600083015261430b81613eb5565b9050919050565b6000602082019050818103600083015261432b81613f1b565b9050919050565b6000602082019050818103600083015261434b81613f5b565b9050919050565b6000602082019050818103600083015261436b81613f9b565b9050919050565b6000602082019050818103600083015261438b81613fdb565b9050919050565b600060208201905081810360008301526143ab8161401b565b9050919050565b600060208201905081810360008301526143cb8161405b565b9050919050565b600060208201905081810360008301526143eb8161409b565b9050919050565b6000602082019050818103600083015261440b81614101565b9050919050565b6000602082019050818103600083015261442b81614141565b9050919050565b6000602082019050818103600083015261444b81614181565b9050919050565b6000602082019050818103600083015261446b816141c1565b9050919050565b60006020820190506144876000830184614201565b92915050565b60006020820190506144a26000830184614210565b92915050565b6000604051905081810181811067ffffffffffffffff821117156144cf576144ce6147ad565b5b8060405250919050565b600067ffffffffffffffff8211156144f4576144f36147ad565b5b602082029050602081019050919050565b600081519050919050565b600082825260208201905092915050565b600061452c82614686565b915061453783614686565b9250827fffffffffffffffffffffffffffffffffffffffffffffffffffffffffffffffff0382111561456c5761456b61474f565b5b828201905092915050565b600061458282614686565b915061458d83614686565b92508261459d5761459c61477e565b5b828204905092915050565b60006145b382614686565b91506145be83614686565b9250817fffffffffffffffffffffffffffffffffffffffffffffffffffffffffffffffff04831182151516156145f7576145f661474f565b5b828202905092915050565b600061460d82614686565b915061461883614686565b92508282101561462b5761462a61474f565b5b828203905092915050565b600061464182614666565b9050919050565b600061465382614666565b9050919050565b60008115159050919050565b600073ffffffffffffffffffffffffffffffffffffffff82169050919050565b6000819050919050565b600060ff82169050919050565b60006146a8826146af565b9050919050565b60006146ba826146c1565b9050919050565b60006146cc82614666565b9050919050565b60005b838110156146f15780820151818401526020810190506146d6565b83811115614700576000848401525b50505050565b600061471182614686565b91507fffffffffffffffffffffffffffffffffffffffffffffffffffffffffffffffff8214156147445761474361474f565b5b600182019050919050565b7f4e487b7100000000000000000000000000000000000000000000000000000000600052601160045260246000fd5b7f4e487b7100000000000000000000000000000000000000000000000000000000600052601260045260246000fd5b7f4e487b7100000000000000000000000000000000000000000000000000000000600052604160045260246000fd5b6000601f19601f8301169050919050565b6147f681614636565b811461480157600080fd5b50565b61480d81614648565b811461481857600080fd5b50565b6148248161465a565b811461482f57600080fd5b50565b61483b81614686565b811461484657600080fd5b5056fea2646970667358221220261c8b85f0a1652b4fd058eb50d5069200d779ad2e3a3ca3c2cae91aab1a6be264736f6c63430008000033",
  "immutableReferences": {},
  "source": "// SPDX-License-Identifier: MIT\npragma solidity >=0.8.0 <0.9.0;\n\nimport \"./Auth.sol\";\nimport \"./IBEP20.sol\";\nimport \"./IDexRouter.sol\";\nimport \"./IDexFactory.sol\";\nimport \"./SafeMath.sol\";\nimport \"./IERC721Enumerable.sol\";\n\ninterface INeuralPepe is IERC721Enumerable {\n    function isMintedBeforeReveal(uint256 index) external view returns (bool);\n}\n\ninterface IAiRouter {\n  function distributeTax(uint256 taxAmount) external;\n  function isInSwap() external view returns (bool);\n  function supportsDistribureFunction() external pure returns (bool);\n  function authorize(address adr) external;\n  function liquifyBack() external;\n}\n\ncontract AI is IBEP20, Auth {\n  using SafeMath for uint256;\n\n\tstring constant _name = \"AIv2\";\n  string constant _symbol = \"AI\";\n  uint8 constant _decimals = 18;\n\n  // Constants\n  uint256 public constant SECONDS_IN_A_DAY = 86400;\n  uint256 public constant emissionEnd = 1933606800;\n  uint256 public constant aiSnapshot = 1632158133;\n\n  // Public variables\n  uint256 public emissionPerDay = 2300000000000000000;\n  uint256 private MAX_EMISSION_PER_DAY = 10000000000000000000;\n  uint256 private _totalSupply;\n\n\tmapping (address => uint256) _balances;\n  mapping (address => mapping (address => uint256)) _allowances;\n  mapping (address => bool) isFeeExempt;\n  mapping(uint256 => uint256) private _lastClaim;\n  mapping (address => address) private _taxAddresses;\n  mapping (address => uint256) private _taxAmount;\n  mapping (address => bool) private _isLaunched;\n\n  // Fees. Some may be completely inactive at all times.\n  uint256 feeDenominator = 1000;\n\n  address public ai2bnb;\n  address private _pepeAddress = 0xa16b13cdFee9a134d17957Bef09dC3B5a4FddC1B;\n  address[] private pairs;\n  IDexRouter private router;\n  INeuralPepe private PEPE = INeuralPepe(_pepeAddress);\n\n  bool public swapEnabled = true;\n\n  event TaxCollectionEnabled(bool enabledOrNot);\n\n\tconstructor(uint256 valueToMint) Auth(msg.sender) {\n\t\trouter = IDexRouter(0x3380aE82e39E42Ca34EbEd69aF67fAa0683Bb5c1);\n    ai2bnb = IDexFactory(router.factory()).createPair(router.WETH(), address(this));\n    _allowances[address(this)][address(router)] = type(uint256).max;\n    isFeeExempt[msg.sender] = true;\n    isFeeExempt[address(this)] = true;\n\n\t\tpairs.push(ai2bnb);\n    _taxAddresses[ai2bnb] = address(this);\n    _taxAmount[ai2bnb] = 50;\n    _isLaunched[ai2bnb] = false;\n    \n\t\t_mint(owner, valueToMint);\n\t}\n\n\treceive() external payable {}\n\n  function totalSupply() external view override returns (uint256) { return _totalSupply; }\n  function decimals() external pure override returns (uint8) { return _decimals; }\n  function symbol() external pure override returns (string memory) { return _symbol; }\n  function name() external pure override returns (string memory) { return _name; }\n  function getOwner() external view override returns (address) { return owner; }\n  function balanceOf(address account) public view override returns (uint256) { return _balances[account]; }\n  function burn(uint256 burnQuantity) public override returns (bool) {\n      _balances[msg.sender] = _balances[msg.sender].sub(burnQuantity);\n      _totalSupply = _totalSupply.sub(burnQuantity);\n      emit Transfer(msg.sender, address(0), burnQuantity);\n      return true;\n  }\n  function _beforeTokenTransfer(address from, address to, uint256 amount) internal virtual { }\n  function _mint(address account, uint256 amount) internal virtual {\n    require(account != address(0), \"ERC20: mint to the zero address\");\n\n    _beforeTokenTransfer(address(0), account, amount);\n\n    _totalSupply = _totalSupply.add(amount);\n    _balances[account] = _balances[account].add(amount);\n    emit Transfer(address(0), account, amount);\n    }\n  function allowance(address holder, address spender) external view override returns (uint256) { return _allowances[holder][spender]; }\n  function approve(address spender, uint256 amount) public override returns (bool) {\n      _allowances[msg.sender][spender] = amount;\n      emit Approval(msg.sender, spender, amount);\n      return true;\n  }\n  function approveMax(address spender) external returns (bool) { return approve(spender, type(uint256).max); }\n  function transfer(address recipient, uint256 amount) external override returns (bool) { return _transferFrom(msg.sender, recipient, amount); }\n\tfunction transferFrom(address sender, address recipient, uint256 amount) external override returns (bool) {\n    if (_allowances[sender][msg.sender] != type(uint256).max) {\n      require(_allowances[sender][msg.sender] >= amount, \"Insufficient Allowance\");\n      _allowances[sender][msg.sender] -= amount;\n    }\n    return _transferFrom(sender, recipient, amount);\n  }\n\tfunction _basicTransfer(address sender, address recipient, uint256 amount) internal  returns (bool) {\n\t\trequire(amount <= _balances[sender], \"Insufficient Balance\");\n        _balances[sender] -= amount;\n        _balances[recipient] += amount;\n        emit Transfer(sender, recipient, amount);\n        return true;\n  }\n  // function basicTransfer(address recipient, uint256 amount) external override returns (bool) { return _basicTransfer(msg.sender, recipient, amount); }\n\n\tfunction _transferFrom(address sender, address recipient, uint256 amount) internal returns (bool) {\n\t\trequire(amount > 0);\n    address tradeAddress = returnTradeAddress(sender, recipient);\n    bool isInSwap = tradeAddress != address(0) ? IAiRouter(_taxAddresses[tradeAddress]).isInSwap() : true;\n\n    if (isInSwap || tradeAddress == address(0)) {\n      return _basicTransfer(sender, recipient, amount);\n    }\n\n    // activates the liquidity on DEX\n    if (!_isLaunched[tradeAddress] && recipient == tradeAddress && tradeAddress != address(0)) {\n        require(_balances[sender] > 0);\n        require(sender == owner, \"Only the owner can be the first to add liquidity.\");\n        _isLaunched[tradeAddress] = !_isLaunched[tradeAddress];\n        \n        return _basicTransfer(sender, recipient, amount);\n    }\n\n    require(amount <= _balances[sender], \"Insufficient Balance\");\n    _balances[sender] -= amount;\n\n    // checks whether it needs to take a fee and takes it before transferring to the \n    uint256 amountReceived = shouldTakeFee(sender, recipient, tradeAddress) ? takeFee(sender, amount, tradeAddress) : amount;\n    uint256 tax = amount.sub(amountReceived);\n\n    if (shouldSwapBack(tradeAddress) && !isInSwap && tax > 0) {\n      try IAiRouter(_taxAddresses[tradeAddress]).liquifyBack() {} catch {}\n    }\n\n    _balances[recipient] += amountReceived;\n    emit Transfer(sender, recipient, amountReceived);\n    return true;\n  }\n  \n  function returnTradeAddress(address sender, address recipient) internal view returns (address) {\n    address[] memory liqPairs = pairs;\n    for (uint256 i = 0; i < liqPairs.length; i++) {\n      if (sender == liqPairs[i] || recipient == liqPairs[i]) {\n        return liqPairs[i];\n      }\n    }\n    return address(0);\n  }\n\n\t// Decides whether this trade should take a fee.\n\t// Trades with pairs are always taxed, unless sender or receiver is exempted.\n\t// Non trades, like wallet to wallet, are configured, untaxed by default.\n\tfunction shouldTakeFee(address sender, address recipient, address tradeAddress) internal view returns (bool) {\n    if (isFeeExempt[sender] || isFeeExempt[recipient] || !_isLaunched[tradeAddress] || !swapEnabled) {\n\t\t\treturn false;\n\t\t}\n\n    address[] memory liqPairs = pairs;\n    for (uint256 i = 0; i < liqPairs.length; i++) {\n        if (sender == liqPairs[i] || recipient == liqPairs[i]) {\n        return true;\n      }\n    }\n\n    return false;\n    }\n\n\tfunction takeFee(address sender, uint256 amount, address tradeAddress) internal returns (uint256) {\n\t\tif (!_isLaunched[tradeAddress]) { return amount; }\n\n\t\tuint256 liqFee = 0;\n    \n    // If there is a liquidity tax active for autoliq, the contract keeps it.\n    if (_taxAmount[tradeAddress] > 0) {\n      liqFee = amount.mul(_taxAmount[tradeAddress]).div(feeDenominator);\n      _balances[_taxAddresses[tradeAddress]] += liqFee;\n      emit Transfer(sender, _taxAddresses[tradeAddress], liqFee);\n\n      try IAiRouter(_taxAddresses[tradeAddress]).distributeTax(liqFee) {} catch {}\n    }\n\n    return amount - liqFee;\n  }\n\n  function shouldSwapBack(address tradeAddress) internal view returns (bool) {\n      return _isLaunched[tradeAddress]\n          && msg.sender != tradeAddress\n          && swapEnabled\n          && _balances[_taxAddresses[tradeAddress]] > 0;\n  }\n\n\tfunction setSwapEnabled(bool set) external authorized {\n\t\tswapEnabled = set;\n\t\temit TaxCollectionEnabled(set);\n\t}\n\n  function setIsFeeExempt(address holder, bool exempt) external authorized {\n      isFeeExempt[holder] = exempt;\n  }\n\n\t// Recover any BNB sent to the contract by mistake.\n\tfunction rescue() external {\n    payable(owner).transfer(address(this).balance);\n  }\n\n\tfunction addPair(address pair, address taxAddress, uint256 _newTaxAmount) external authorized {\n    pairs.push(pair);\n    _taxAddresses[pair] = taxAddress;\n    _taxAmount[pair] = _newTaxAmount;\n    isFeeExempt[pair] = true;\n  }\n    \n  function removeLastPair() external authorized {\n      pairs.pop();\n  }\n\n  /**\n    * @dev Only owner can call this function. Remove taxable address.\n  */\n  function removePair(address pairAddressToRemove) public onlyOwner {\n    require(_isTradeAddressExists(pairAddressToRemove), 'The address you try to remove doesnt exist');\n    uint addressIndex = _getAddressIndex(pairAddressToRemove).sub(1);\n\n    for (uint i = addressIndex; i < pairs.length - 1; i++) {\n      pairs[i] = pairs[pairs.length - 1];\n    }\n    pairs.pop();\n  }\n\n    /**\n    * @dev Internal functions.\n    */\n  function _isTradeAddressExists(address tradeAddress) private view returns (bool) {\n    if (pairs.length == 0) { return false; }\n    for(uint i = 0; i < pairs.length; i++) {\n      if (pairs[i] == tradeAddress) {\n        return true;\n      }\n    }\n    return false;\n  }\n\n  function _getAddressIndex(address tradeAddress) private view returns (uint) {\n    for(uint i = 0; i < pairs.length; i++) {\n      if (pairs[i] == tradeAddress) {\n        return i.add(1);\n      }\n    }\n    return 0;\n  }\n\n\n  /**\n  * @dev When accumulated AIs have last been claimed for a Neural Pepe index\n  */\n  function lastClaim(uint256 tokenIndex) public view returns (uint256) {\n      require(PEPE.ownerOf(tokenIndex) != address(0), \"Owner cannot be 0 address\");\n      \n      uint256 lastClaimed = uint256(_lastClaim[tokenIndex]) != 0 ? uint256(_lastClaim[tokenIndex]) : aiSnapshot;\n      return lastClaimed;\n  }\n\n  /**\n    * @dev Accumulated AI tokens for a Neural Pepe token index.\n    */\n  function accumulated(uint256 tokenIndex) public view returns (uint256) {\n      require(PEPE.ownerOf(tokenIndex) != address(0), \"Owner cannot be 0 address\");\n      require(tokenIndex < PEPE.totalSupply(), \"AI at index has not been minted yet\");\n\n      uint256 lastClaimed = lastClaim(tokenIndex);\n\n      // Sanity check if last claim was on or after emission end\n      if (lastClaimed >= emissionEnd) return 0;\n\n      uint256 accumulationPeriod = block.timestamp < emissionEnd ? block.timestamp : emissionEnd; // Getting the min value of both\n      uint256 totalAccumulated = accumulationPeriod.sub(lastClaimed).mul(emissionPerDay).div(SECONDS_IN_A_DAY);\n\n      return totalAccumulated;\n  }\n\n  /**\n    * @dev Claim mints AIs and supports multiple Neural Pepe token indices at once.\n    */\n  function claim(uint256[] memory tokenIndices) public returns (uint256) {\n      uint256 totalClaimQty = 0;\n      for (uint i = 0; i < tokenIndices.length; i++) {\n          // Sanity check for non-minted index\n          require(tokenIndices[i] < PEPE.totalSupply(), \"AI at index has not been minted yet\");\n          // Duplicate token index check\n          for (uint j = i + 1; j < tokenIndices.length; j++) {\n              require(tokenIndices[i] != tokenIndices[j], \"Duplicate token index\");\n          }\n\n          uint tokenIndex = tokenIndices[i];\n          require(PEPE.ownerOf(tokenIndex) == msg.sender, \"Sender is not the owner\");\n\n          uint256 claimQty = accumulated(tokenIndex);\n          if (claimQty != 0) {\n              totalClaimQty = totalClaimQty.add(claimQty);\n              _lastClaim[tokenIndex] = block.timestamp;\n          }\n      }\n\n      require(totalClaimQty != 0, \"No accumulated AI\");\n      _mint(msg.sender, totalClaimQty);\n      return totalClaimQty;\n  }\n\n  /**\n    * @dev Only owner can call this function. Change AI emission per day.\n    */\n  function changeEmissionPerDay(uint256 _newEmissionPerDay) public onlyOwner {\n    require(_newEmissionPerDay >= 0 || _newEmissionPerDay <= MAX_EMISSION_PER_DAY, 'invalid emission per day');\n    emissionPerDay = _newEmissionPerDay;\n  }\n\n\n  /**\n  * @dev Only owner can call this function. Tax amount, can be between 1 and 20.\n  */\n  function changeTaxAddressAndAmount(address tradeAddress, address taxAddress, uint256 _newTaxAmount) public onlyOwner {\n    require(_newTaxAmount >= 0 && _newTaxAmount <= 200, 'Provide valid tax between 1 and 20');\n    require(_taxAddresses[tradeAddress] != address(0), 'Trade address doesnt exist');\n    _allowances[taxAddress][address(router)] = type(uint256).max;\n\n    _taxAddresses[tradeAddress] = taxAddress;\n    _taxAmount[tradeAddress] = _newTaxAmount;\n    isFeeExempt[taxAddress] = true;\n  }\n}",
  "sourcePath": "/Users/viktor/Documents/Projects/solidity/hibiki/src/contracts/AI.sol",
  "compiler": {
    "name": "solc",
    "version": "0.8.0+commit.c7dfd78e.Emscripten.clang"
  },
  "schemaVersion": "3.4.1",
  "updatedAt": "2021-10-16T12:35:40.609Z",
  "networkType": "ethereum",
  "devdoc": {
    "kind": "dev",
    "methods": {
      "accumulated(uint256)": {
        "details": "Accumulated AI tokens for a Neural Pepe token index."
      },
      "approve(address,uint256)": {
        "details": "Sets `amount` as the allowance of `spender` over the caller's tokens. Returns a boolean value indicating whether the operation succeeded. IMPORTANT: Beware that changing an allowance with this method brings the risk that someone may use both the old and the new allowance by unfortunate transaction ordering. One possible solution to mitigate this race condition is to first reduce the spender's allowance to 0 and set the desired value afterwards: https://github.com/ethereum/EIPs/issues/20#issuecomment-263524729 Emits an {Approval} event."
      },
      "balanceOf(address)": {
        "details": "Returns the amount of tokens owned by `account`."
      },
      "changeEmissionPerDay(uint256)": {
        "details": "Only owner can call this function. Change AI emission per day."
      },
      "changeTaxAddressAndAmount(address,address,uint256)": {
        "details": "Only owner can call this function. Tax amount, can be between 1 and 20."
      },
      "claim(uint256[])": {
        "details": "Claim mints AIs and supports multiple Neural Pepe token indices at once."
      },
      "decimals()": {
        "details": "Returns the token decimals."
      },
      "getOwner()": {
        "details": "Returns the bep token owner."
      },
      "lastClaim(uint256)": {
        "details": "When accumulated AIs have last been claimed for a Neural Pepe index"
      },
      "name()": {
        "details": "Returns the token name."
      },
      "removePair(address)": {
        "details": "Only owner can call this function. Remove taxable address."
      },
      "symbol()": {
        "details": "Returns the token symbol."
      },
      "totalSupply()": {
        "details": "Returns the amount of tokens in existence."
      },
      "transfer(address,uint256)": {
        "details": "Moves `amount` tokens from the caller's account to `recipient`. Returns a boolean value indicating whether the operation succeeded. Emits a {Transfer} event."
      },
      "transferFrom(address,address,uint256)": {
        "details": "Moves `amount` tokens from `sender` to `recipient` using the allowance mechanism. `amount` is then deducted from the caller's allowance. Returns a boolean value indicating whether the operation succeeded. Emits a {Transfer} event."
      }
    },
    "version": 1
  },
  "userdoc": {
    "kind": "user",
    "methods": {
      "authorize(address)": {
        "notice": "Authorize address. Owner only"
      },
      "isAuthorized(address)": {
        "notice": "Return address' authorization status"
      },
      "isOwner(address)": {
        "notice": "Check if address is owner"
      },
      "transferOwnership(address)": {
        "notice": "Transfer ownership to new address. Caller must be owner. Leaves old owner authorized"
      },
      "unauthorize(address)": {
        "notice": "Remove address' authorization. Owner only"
      }
    },
    "version": 1
  }
}