{
  "contractName": "AI",
  "abi": [
    {
      "inputs": [],
      "stateMutability": "nonpayable",
      "type": "constructor"
    },
    {
      "anonymous": false,
      "inputs": [
        {
          "indexed": true,
          "internalType": "address",
          "name": "owner",
          "type": "address"
        },
        {
          "indexed": true,
          "internalType": "address",
          "name": "spender",
          "type": "address"
        },
        {
          "indexed": false,
          "internalType": "uint256",
          "name": "value",
          "type": "uint256"
        }
      ],
      "name": "Approval",
      "type": "event"
    },
    {
      "anonymous": false,
      "inputs": [
        {
          "indexed": false,
          "internalType": "bool",
          "name": "enabledOrNot",
          "type": "bool"
        }
      ],
      "name": "AutoLiquifyEnabled",
      "type": "event"
    },
    {
      "anonymous": false,
      "inputs": [
        {
          "indexed": false,
          "internalType": "address",
          "name": "owner",
          "type": "address"
        }
      ],
      "name": "OwnershipTransferred",
      "type": "event"
    },
    {
      "anonymous": false,
      "inputs": [
        {
          "indexed": true,
          "internalType": "address",
          "name": "from",
          "type": "address"
        },
        {
          "indexed": true,
          "internalType": "address",
          "name": "to",
          "type": "address"
        },
        {
          "indexed": false,
          "internalType": "uint256",
          "name": "value",
          "type": "uint256"
        }
      ],
      "name": "Transfer",
      "type": "event"
    },
    {
      "inputs": [],
      "name": "_maxTxAmount",
      "outputs": [
        {
          "internalType": "uint256",
          "name": "",
          "type": "uint256"
        }
      ],
      "stateMutability": "view",
      "type": "function",
      "constant": true
    },
    {
      "inputs": [],
      "name": "_maxWalletAmount",
      "outputs": [
        {
          "internalType": "uint256",
          "name": "",
          "type": "uint256"
        }
      ],
      "stateMutability": "view",
      "type": "function",
      "constant": true
    },
    {
      "inputs": [],
      "name": "ai2bnb",
      "outputs": [
        {
          "internalType": "address",
          "name": "",
          "type": "address"
        }
      ],
      "stateMutability": "view",
      "type": "function",
      "constant": true
    },
    {
      "inputs": [
        {
          "internalType": "address",
          "name": "adr",
          "type": "address"
        }
      ],
      "name": "authorize",
      "outputs": [],
      "stateMutability": "nonpayable",
      "type": "function"
    },
    {
      "inputs": [],
      "name": "autoLiquidityReceiver",
      "outputs": [
        {
          "internalType": "address",
          "name": "",
          "type": "address"
        }
      ],
      "stateMutability": "view",
      "type": "function",
      "constant": true
    },
    {
      "inputs": [],
      "name": "feeOnNonTrade",
      "outputs": [
        {
          "internalType": "bool",
          "name": "",
          "type": "bool"
        }
      ],
      "stateMutability": "view",
      "type": "function",
      "constant": true
    },
    {
      "inputs": [
        {
          "internalType": "address",
          "name": "adr",
          "type": "address"
        }
      ],
      "name": "isAuthorized",
      "outputs": [
        {
          "internalType": "bool",
          "name": "",
          "type": "bool"
        }
      ],
      "stateMutability": "view",
      "type": "function",
      "constant": true
    },
    {
      "inputs": [
        {
          "internalType": "address",
          "name": "account",
          "type": "address"
        }
      ],
      "name": "isOwner",
      "outputs": [
        {
          "internalType": "bool",
          "name": "",
          "type": "bool"
        }
      ],
      "stateMutability": "view",
      "type": "function",
      "constant": true
    },
    {
      "inputs": [
        {
          "internalType": "uint256",
          "name": "",
          "type": "uint256"
        }
      ],
      "name": "pairs",
      "outputs": [
        {
          "internalType": "address",
          "name": "",
          "type": "address"
        }
      ],
      "stateMutability": "view",
      "type": "function",
      "constant": true
    },
    {
      "inputs": [],
      "name": "router",
      "outputs": [
        {
          "internalType": "contract IDexRouter",
          "name": "",
          "type": "address"
        }
      ],
      "stateMutability": "view",
      "type": "function",
      "constant": true
    },
    {
      "inputs": [],
      "name": "swapEnabled",
      "outputs": [
        {
          "internalType": "bool",
          "name": "",
          "type": "bool"
        }
      ],
      "stateMutability": "view",
      "type": "function",
      "constant": true
    },
    {
      "inputs": [],
      "name": "swapThreshold",
      "outputs": [
        {
          "internalType": "uint256",
          "name": "",
          "type": "uint256"
        }
      ],
      "stateMutability": "view",
      "type": "function",
      "constant": true
    },
    {
      "inputs": [
        {
          "internalType": "address payable",
          "name": "adr",
          "type": "address"
        }
      ],
      "name": "transferOwnership",
      "outputs": [],
      "stateMutability": "nonpayable",
      "type": "function"
    },
    {
      "inputs": [
        {
          "internalType": "address",
          "name": "adr",
          "type": "address"
        }
      ],
      "name": "unauthorize",
      "outputs": [],
      "stateMutability": "nonpayable",
      "type": "function"
    },
    {
      "stateMutability": "payable",
      "type": "receive",
      "payable": true
    },
    {
      "inputs": [
        {
          "internalType": "bool",
          "name": "_inSwap",
          "type": "bool"
        }
      ],
      "name": "changeIsSwap",
      "outputs": [],
      "stateMutability": "nonpayable",
      "type": "function"
    },
    {
      "inputs": [],
      "name": "totalSupply",
      "outputs": [
        {
          "internalType": "uint256",
          "name": "",
          "type": "uint256"
        }
      ],
      "stateMutability": "view",
      "type": "function",
      "constant": true
    },
    {
      "inputs": [],
      "name": "decimals",
      "outputs": [
        {
          "internalType": "uint8",
          "name": "",
          "type": "uint8"
        }
      ],
      "stateMutability": "pure",
      "type": "function",
      "constant": true
    },
    {
      "inputs": [],
      "name": "symbol",
      "outputs": [
        {
          "internalType": "string",
          "name": "",
          "type": "string"
        }
      ],
      "stateMutability": "pure",
      "type": "function",
      "constant": true
    },
    {
      "inputs": [],
      "name": "name",
      "outputs": [
        {
          "internalType": "string",
          "name": "",
          "type": "string"
        }
      ],
      "stateMutability": "pure",
      "type": "function",
      "constant": true
    },
    {
      "inputs": [],
      "name": "getOwner",
      "outputs": [
        {
          "internalType": "address",
          "name": "",
          "type": "address"
        }
      ],
      "stateMutability": "view",
      "type": "function",
      "constant": true
    },
    {
      "inputs": [
        {
          "internalType": "address",
          "name": "account",
          "type": "address"
        }
      ],
      "name": "balanceOf",
      "outputs": [
        {
          "internalType": "uint256",
          "name": "",
          "type": "uint256"
        }
      ],
      "stateMutability": "view",
      "type": "function",
      "constant": true
    },
    {
      "inputs": [
        {
          "internalType": "uint256",
          "name": "burnQuantity",
          "type": "uint256"
        }
      ],
      "name": "burn",
      "outputs": [
        {
          "internalType": "bool",
          "name": "",
          "type": "bool"
        }
      ],
      "stateMutability": "nonpayable",
      "type": "function"
    },
    {
      "inputs": [
        {
          "internalType": "address",
          "name": "holder",
          "type": "address"
        },
        {
          "internalType": "address",
          "name": "spender",
          "type": "address"
        }
      ],
      "name": "allowance",
      "outputs": [
        {
          "internalType": "uint256",
          "name": "",
          "type": "uint256"
        }
      ],
      "stateMutability": "view",
      "type": "function",
      "constant": true
    },
    {
      "inputs": [
        {
          "internalType": "address",
          "name": "spender",
          "type": "address"
        },
        {
          "internalType": "uint256",
          "name": "amount",
          "type": "uint256"
        }
      ],
      "name": "approve",
      "outputs": [
        {
          "internalType": "bool",
          "name": "",
          "type": "bool"
        }
      ],
      "stateMutability": "nonpayable",
      "type": "function"
    },
    {
      "inputs": [
        {
          "internalType": "address",
          "name": "spender",
          "type": "address"
        }
      ],
      "name": "approveMax",
      "outputs": [
        {
          "internalType": "bool",
          "name": "",
          "type": "bool"
        }
      ],
      "stateMutability": "nonpayable",
      "type": "function"
    },
    {
      "inputs": [
        {
          "internalType": "address",
          "name": "recipient",
          "type": "address"
        },
        {
          "internalType": "uint256",
          "name": "amount",
          "type": "uint256"
        }
      ],
      "name": "transfer",
      "outputs": [
        {
          "internalType": "bool",
          "name": "",
          "type": "bool"
        }
      ],
      "stateMutability": "nonpayable",
      "type": "function"
    },
    {
      "inputs": [
        {
          "internalType": "address",
          "name": "sender",
          "type": "address"
        },
        {
          "internalType": "address",
          "name": "recipient",
          "type": "address"
        },
        {
          "internalType": "uint256",
          "name": "amount",
          "type": "uint256"
        }
      ],
      "name": "transferFrom",
      "outputs": [
        {
          "internalType": "bool",
          "name": "",
          "type": "bool"
        }
      ],
      "stateMutability": "nonpayable",
      "type": "function"
    },
    {
      "inputs": [
        {
          "internalType": "address",
          "name": "recipient",
          "type": "address"
        },
        {
          "internalType": "uint256",
          "name": "amount",
          "type": "uint256"
        }
      ],
      "name": "basicTransfer",
      "outputs": [
        {
          "internalType": "bool",
          "name": "",
          "type": "bool"
        }
      ],
      "stateMutability": "nonpayable",
      "type": "function"
    },
    {
      "inputs": [
        {
          "internalType": "bool",
          "name": "set",
          "type": "bool"
        }
      ],
      "name": "setSwapEnabled",
      "outputs": [],
      "stateMutability": "nonpayable",
      "type": "function"
    },
    {
      "inputs": [
        {
          "internalType": "address",
          "name": "holder",
          "type": "address"
        },
        {
          "internalType": "bool",
          "name": "exempt",
          "type": "bool"
        }
      ],
      "name": "setIsFeeExempt",
      "outputs": [],
      "stateMutability": "nonpayable",
      "type": "function"
    },
    {
      "inputs": [
        {
          "internalType": "uint256",
          "name": "_liquidityFee",
          "type": "uint256"
        },
        {
          "internalType": "uint256",
          "name": "_feeDenominator",
          "type": "uint256"
        }
      ],
      "name": "setFees",
      "outputs": [],
      "stateMutability": "nonpayable",
      "type": "function"
    },
    {
      "inputs": [
        {
          "internalType": "address",
          "name": "_autoLiquidityReceiver",
          "type": "address"
        }
      ],
      "name": "setLiquidityReceiver",
      "outputs": [],
      "stateMutability": "nonpayable",
      "type": "function"
    },
    {
      "inputs": [],
      "name": "rescue",
      "outputs": [],
      "stateMutability": "nonpayable",
      "type": "function"
    },
    {
      "inputs": [
        {
          "internalType": "address",
          "name": "pair",
          "type": "address"
        }
      ],
      "name": "addPair",
      "outputs": [],
      "stateMutability": "nonpayable",
      "type": "function"
    },
    {
      "inputs": [],
      "name": "removeLastPair",
      "outputs": [],
      "stateMutability": "nonpayable",
      "type": "function"
    },
    {
      "inputs": [
        {
          "internalType": "address",
          "name": "tradeAddress",
          "type": "address"
        },
        {
          "internalType": "address",
          "name": "taxAddress",
          "type": "address"
        },
        {
          "internalType": "uint256",
          "name": "_newTaxAmount",
          "type": "uint256"
        }
      ],
      "name": "changeTaxAddressAndAmount",
      "outputs": [],
      "stateMutability": "nonpayable",
      "type": "function"
    }
  ],
  "bytecode": "0x60806040526012600a62000014919062000964565b6298968062000024919062000aa1565b6002556064600254620000389190620008d1565b60035560646002546200004c9190620008d1565b6004556032600b556103e8600c556000600d60006101000a81548160ff0219169083151502179055506001601160006101000a81548160ff0219169083151502179055506801158e460913d00000601255348015620000aa57600080fd5b5033806000806101000a81548173ffffffffffffffffffffffffffffffffffffffff021916908373ffffffffffffffffffffffffffffffffffffffff16021790555060018060008373ffffffffffffffffffffffffffffffffffffffff1673ffffffffffffffffffffffffffffffffffffffff16815260200190815260200160002060006101000a81548160ff02191690831515021790555050733380ae82e39e42ca34ebed69af67faa0683bb5c1600e60006101000a81548173ffffffffffffffffffffffffffffffffffffffff021916908373ffffffffffffffffffffffffffffffffffffffff160217905550600e60009054906101000a900473ffffffffffffffffffffffffffffffffffffffff1673ffffffffffffffffffffffffffffffffffffffff1663c45a01556040518163ffffffff1660e01b815260040160206040518083038186803b1580156200020257600080fd5b505afa15801562000217573d6000803e3d6000fd5b505050506040513d601f19601f820116820180604052508101906200023d919062000839565b73ffffffffffffffffffffffffffffffffffffffff1663c9c65396600e60009054906101000a900473ffffffffffffffffffffffffffffffffffffffff1673ffffffffffffffffffffffffffffffffffffffff1663ad5c46486040518163ffffffff1660e01b815260040160206040518083038186803b158015620002c157600080fd5b505afa158015620002d6573d6000803e3d6000fd5b505050506040513d601f19601f82011682018060405250810190620002fc919062000839565b306040518363ffffffff1660e01b81526004016200031c92919062000887565b602060405180830381600087803b1580156200033757600080fd5b505af11580156200034c573d6000803e3d6000fd5b505050506040513d601f19601f8201168201806040525081019062000372919062000839565b600f60006101000a81548173ffffffffffffffffffffffffffffffffffffffff021916908373ffffffffffffffffffffffffffffffffffffffff1602179055507fffffffffffffffffffffffffffffffffffffffffffffffffffffffffffffffff600660003073ffffffffffffffffffffffffffffffffffffffff1673ffffffffffffffffffffffffffffffffffffffff1681526020019081526020016000206000600e60009054906101000a900473ffffffffffffffffffffffffffffffffffffffff1673ffffffffffffffffffffffffffffffffffffffff1673ffffffffffffffffffffffffffffffffffffffff168152602001908152602001600020819055506001600760003373ffffffffffffffffffffffffffffffffffffffff1673ffffffffffffffffffffffffffffffffffffffff16815260200190815260200160002060006101000a81548160ff0219169083151502179055506001600760003073ffffffffffffffffffffffffffffffffffffffff1673ffffffffffffffffffffffffffffffffffffffff16815260200190815260200160002060006101000a81548160ff02191690831515021790555033600d60016101000a81548173ffffffffffffffffffffffffffffffffffffffff021916908373ffffffffffffffffffffffffffffffffffffffff1602179055506010600f60009054906101000a900473ffffffffffffffffffffffffffffffffffffffff169080600181540180825580915050600190039060005260206000200160009091909190916101000a81548173ffffffffffffffffffffffffffffffffffffffff021916908373ffffffffffffffffffffffffffffffffffffffff1602179055503060086000600f60009054906101000a900473ffffffffffffffffffffffffffffffffffffffff1673ffffffffffffffffffffffffffffffffffffffff1673ffffffffffffffffffffffffffffffffffffffff16815260200190815260200160002060006101000a81548173ffffffffffffffffffffffffffffffffffffffff021916908373ffffffffffffffffffffffffffffffffffffffff160217905550603260096000600f60009054906101000a900473ffffffffffffffffffffffffffffffffffffffff1673ffffffffffffffffffffffffffffffffffffffff1673ffffffffffffffffffffffffffffffffffffffff168152602001908152602001600020819055506000600a6000600f60009054906101000a900473ffffffffffffffffffffffffffffffffffffffff1673ffffffffffffffffffffffffffffffffffffffff1673ffffffffffffffffffffffffffffffffffffffff16815260200190815260200160002060006101000a81548160ff021916908315150217905550600254600560003373ffffffffffffffffffffffffffffffffffffffff1673ffffffffffffffffffffffffffffffffffffffff168152602001908152602001600020819055503373ffffffffffffffffffffffffffffffffffffffff16600073ffffffffffffffffffffffffffffffffffffffff167fddf252ad1be2c89b69c2b068fc378daa952ba7f163c4a11628f55a4df523b3ef600254604051620008149190620008b4565b60405180910390a362000bd2565b600081519050620008338162000bb8565b92915050565b6000602082840312156200084c57600080fd5b60006200085c8482850162000822565b91505092915050565b620008708162000b02565b82525050565b620008818162000b36565b82525050565b60006040820190506200089e600083018562000865565b620008ad602083018462000865565b9392505050565b6000602082019050620008cb600083018462000876565b92915050565b6000620008de8262000b36565b9150620008eb8362000b36565b925082620008fe57620008fd62000b7c565b5b828204905092915050565b6000808291508390505b60018511156200095b5780860481111562000933576200093262000b4d565b5b6001851615620009435780820291505b8081029050620009538562000bab565b945062000913565b94509492505050565b6000620009718262000b36565b91506200097e8362000b40565b9250620009ad7fffffffffffffffffffffffffffffffffffffffffffffffffffffffffffffffff8484620009b5565b905092915050565b600082620009c7576001905062000a9a565b81620009d7576000905062000a9a565b8160018114620009f05760028114620009fb5762000a31565b600191505062000a9a565b60ff84111562000a105762000a0f62000b4d565b5b8360020a91508482111562000a2a5762000a2962000b4d565b5b5062000a9a565b5060208310610133831016604e8410600b841016171562000a6b5782820a90508381111562000a655762000a6462000b4d565b5b62000a9a565b62000a7a848484600162000909565b9250905081840481111562000a945762000a9362000b4d565b5b81810290505b9392505050565b600062000aae8262000b36565b915062000abb8362000b36565b9250817fffffffffffffffffffffffffffffffffffffffffffffffffffffffffffffffff048311821515161562000af75762000af662000b4d565b5b828202905092915050565b600062000b0f8262000b16565b9050919050565b600073ffffffffffffffffffffffffffffffffffffffff82169050919050565b6000819050919050565b600060ff82169050919050565b7f4e487b7100000000000000000000000000000000000000000000000000000000600052601160045260246000fd5b7f4e487b7100000000000000000000000000000000000000000000000000000000600052601260045260246000fd5b60008160011c9050919050565b62000bc38162000b02565b811462000bcf57600080fd5b50565b6135ed8062000be26000396000f3fe6080604052600436106102125760003560e01c80637b0b003e11610118578063b91ac788116100a0578063e01af92c1161006f578063e01af92c146107d1578063f0b37c04146107fa578063f2fde38b14610823578063f887ea401461084c578063fe9fbb801461087757610219565b8063b91ac78814610703578063c2b7bbb614610740578063ca33e64c14610769578063dd62ed3e1461079457610219565b806395d89b41116100e757806395d89b411461061e578063a9059cbb14610649578063b08b9b4614610686578063b57e3682146106b1578063b6a5d7de146106da57610219565b80637b0b003e146105745780637d1db4a51461059f57806381bdcc76146105ca578063893d20e8146105f357610219565b8063313ce5671161019b578063658d4b7f1161016a578063658d4b7f1461047b5780636c0a24eb146104a45780636ddd1713146104cf57806370a08231146104fa5780637a5aec441461053757610219565b8063313ce567146103ad57806342966c68146103d8578063571ac8b0146104155780635e0a12801461045257610219565b80630b78f9c0116101e25780630b78f9c0146102c857806318160ddd146102f15780631fbe19791461031c57806323b872dd146103335780632f54bf6e1461037057610219565b806293dc141461021e5780630445b6671461023557806306fdde0314610260578063095ea7b31461028b57610219565b3661021957005b600080fd5b34801561022a57600080fd5b506102336108b4565b005b34801561024157600080fd5b5061024a61096b565b6040516102579190613248565b60405180910390f35b34801561026c57600080fd5b50610275610971565b6040516102829190613126565b60405180910390f35b34801561029757600080fd5b506102b260048036038101906102ad9190612cc2565b6109ae565b6040516102bf91906130f0565b60405180910390f35b3480156102d457600080fd5b506102ef60048036038101906102ea9190612d79565b610aa0565b005b3480156102fd57600080fd5b50610306610b4a565b6040516103139190613248565b60405180910390f35b34801561032857600080fd5b50610331610b54565b005b34801561033f57600080fd5b5061035a60048036038101906103559190612c37565b610bd4565b60405161036791906130f0565b60405180910390f35b34801561037c57600080fd5b5061039760048036038101906103929190612ba9565b610de0565b6040516103a491906130f0565b60405180910390f35b3480156103b957600080fd5b506103c2610e39565b6040516103cf9190613263565b60405180910390f35b3480156103e457600080fd5b506103ff60048036038101906103fa9190612d50565b610e42565b60405161040c91906130f0565b60405180910390f35b34801561042157600080fd5b5061043c60048036038101906104379190612ba9565b610f55565b60405161044991906130f0565b60405180910390f35b34801561045e57600080fd5b5061047960048036038101906104749190612c37565b610f88565b005b34801561048757600080fd5b506104a2600480360381019061049d9190612c86565b6112d2565b005b3480156104b057600080fd5b506104b9611375565b6040516104c69190613248565b60405180910390f35b3480156104db57600080fd5b506104e461137b565b6040516104f191906130f0565b60405180910390f35b34801561050657600080fd5b50610521600480360381019061051c9190612ba9565b61138e565b60405161052e9190613248565b60405180910390f35b34801561054357600080fd5b5061055e60048036038101906105599190612cc2565b6113d7565b60405161056b91906130f0565b60405180910390f35b34801561058057600080fd5b506105896113ec565b60405161059691906130ba565b60405180910390f35b3480156105ab57600080fd5b506105b4611412565b6040516105c19190613248565b60405180910390f35b3480156105d657600080fd5b506105f160048036038101906105ec9190612cfe565b611418565b005b3480156105ff57600080fd5b50610608611435565b60405161061591906130ba565b60405180910390f35b34801561062a57600080fd5b5061063361145e565b6040516106409190613126565b60405180910390f35b34801561065557600080fd5b50610670600480360381019061066b9190612cc2565b61149b565b60405161067d91906130f0565b60405180910390f35b34801561069257600080fd5b5061069b6114b0565b6040516106a891906130f0565b60405180910390f35b3480156106bd57600080fd5b506106d860048036038101906106d39190612ba9565b6114c3565b005b3480156106e657600080fd5b5061070160048036038101906106fc9190612ba9565b61154f565b005b34801561070f57600080fd5b5061072a60048036038101906107259190612d50565b6115f1565b60405161073791906130ba565b60405180910390f35b34801561074c57600080fd5b5061076760048036038101906107629190612ba9565b611630565b005b34801561077557600080fd5b5061077e6116de565b60405161078b91906130ba565b60405180910390f35b3480156107a057600080fd5b506107bb60048036038101906107b69190612bfb565b611704565b6040516107c89190613248565b60405180910390f35b3480156107dd57600080fd5b506107f860048036038101906107f39190612cfe565b61178b565b005b34801561080657600080fd5b50610821600480360381019061081c9190612ba9565b611827565b005b34801561082f57600080fd5b5061084a60048036038101906108459190612bd2565b6118ca565b005b34801561085857600080fd5b506108616119e3565b60405161086e919061310b565b60405180910390f35b34801561088357600080fd5b5061089e60048036038101906108999190612ba9565b611a09565b6040516108ab91906130f0565b60405180910390f35b6108bd33611a09565b6108fc576040517f08c379a00000000000000000000000000000000000000000000000000000000081526004016108f390613208565b60405180910390fd5b6010805480610934577f4e487b7100000000000000000000000000000000000000000000000000000000600052603160045260246000fd5b6001900381819060005260206000200160006101000a81549073ffffffffffffffffffffffffffffffffffffffff02191690559055565b60125481565b60606040518060400160405280600481526020017f4149763200000000000000000000000000000000000000000000000000000000815250905090565b600081600660003373ffffffffffffffffffffffffffffffffffffffff1673ffffffffffffffffffffffffffffffffffffffff16815260200190815260200160002060008573ffffffffffffffffffffffffffffffffffffffff1673ffffffffffffffffffffffffffffffffffffffff168152602001908152602001600020819055508273ffffffffffffffffffffffffffffffffffffffff163373ffffffffffffffffffffffffffffffffffffffff167f8c5be1e5ebec7d5bd14f71427d1e84f3dd0314c0f7b2291e5b200ac8c7c3b92584604051610a8e9190613248565b60405180910390a36001905092915050565b610aa933611a09565b610ae8576040517f08c379a0000000000000000000000000000000000000000000000000000000008152600401610adf90613208565b60405180910390fd5b81600b8190555080600c819055506005600c54610b0591906132f0565b8210610b46576040517f08c379a0000000000000000000000000000000000000000000000000000000008152600401610b3d906131e8565b60405180910390fd5b5050565b6000600254905090565b60008054906101000a900473ffffffffffffffffffffffffffffffffffffffff1673ffffffffffffffffffffffffffffffffffffffff166108fc3073ffffffffffffffffffffffffffffffffffffffff16319081150290604051600060405180830381858888f19350505050158015610bd1573d6000803e3d6000fd5b50565b60007fffffffffffffffffffffffffffffffffffffffffffffffffffffffffffffffff600660008673ffffffffffffffffffffffffffffffffffffffff1673ffffffffffffffffffffffffffffffffffffffff16815260200190815260200160002060003373ffffffffffffffffffffffffffffffffffffffff1673ffffffffffffffffffffffffffffffffffffffff1681526020019081526020016000205414610dcc5781600660008673ffffffffffffffffffffffffffffffffffffffff1673ffffffffffffffffffffffffffffffffffffffff16815260200190815260200160002060003373ffffffffffffffffffffffffffffffffffffffff1673ffffffffffffffffffffffffffffffffffffffff168152602001908152602001600020541015610d38576040517f08c379a0000000000000000000000000000000000000000000000000000000008152600401610d2f90613148565b60405180910390fd5b81600660008673ffffffffffffffffffffffffffffffffffffffff1673ffffffffffffffffffffffffffffffffffffffff16815260200190815260200160002060003373ffffffffffffffffffffffffffffffffffffffff1673ffffffffffffffffffffffffffffffffffffffff1681526020019081526020016000206000828254610dc4919061337b565b925050819055505b610dd7848484611a5f565b90509392505050565b60008060009054906101000a900473ffffffffffffffffffffffffffffffffffffffff1673ffffffffffffffffffffffffffffffffffffffff168273ffffffffffffffffffffffffffffffffffffffff16149050919050565b60006012905090565b600081600560003373ffffffffffffffffffffffffffffffffffffffff1673ffffffffffffffffffffffffffffffffffffffff16815260200190815260200160002054610e8f919061337b565b600560003373ffffffffffffffffffffffffffffffffffffffff1673ffffffffffffffffffffffffffffffffffffffff1681526020019081526020016000208190555081600254610ee0919061337b565b600281905550600073ffffffffffffffffffffffffffffffffffffffff163373ffffffffffffffffffffffffffffffffffffffff167fddf252ad1be2c89b69c2b068fc378daa952ba7f163c4a11628f55a4df523b3ef84604051610f449190613248565b60405180910390a360019050919050565b6000610f81827fffffffffffffffffffffffffffffffffffffffffffffffffffffffffffffffff6109ae565b9050919050565b610f9133610de0565b610fd0576040517f08c379a0000000000000000000000000000000000000000000000000000000008152600401610fc7906131c8565b60405180910390fd5b60008110158015610fe2575060c88111155b611021576040517f08c379a000000000000000000000000000000000000000000000000000000000815260040161101890613188565b60405180910390fd5b600073ffffffffffffffffffffffffffffffffffffffff16600860008573ffffffffffffffffffffffffffffffffffffffff1673ffffffffffffffffffffffffffffffffffffffff16815260200190815260200160002060009054906101000a900473ffffffffffffffffffffffffffffffffffffffff1673ffffffffffffffffffffffffffffffffffffffff1614156110f0576040517f08c379a00000000000000000000000000000000000000000000000000000000081526004016110e790613228565b60405180910390fd5b7fffffffffffffffffffffffffffffffffffffffffffffffffffffffffffffffff600660008473ffffffffffffffffffffffffffffffffffffffff1673ffffffffffffffffffffffffffffffffffffffff1681526020019081526020016000206000600e60009054906101000a900473ffffffffffffffffffffffffffffffffffffffff1673ffffffffffffffffffffffffffffffffffffffff1673ffffffffffffffffffffffffffffffffffffffff1681526020019081526020016000208190555081600860008573ffffffffffffffffffffffffffffffffffffffff1673ffffffffffffffffffffffffffffffffffffffff16815260200190815260200160002060006101000a81548173ffffffffffffffffffffffffffffffffffffffff021916908373ffffffffffffffffffffffffffffffffffffffff16021790555080600960008573ffffffffffffffffffffffffffffffffffffffff1673ffffffffffffffffffffffffffffffffffffffff168152602001908152602001600020819055506001600760008473ffffffffffffffffffffffffffffffffffffffff1673ffffffffffffffffffffffffffffffffffffffff16815260200190815260200160002060006101000a81548160ff021916908315150217905550505050565b6112db33611a09565b61131a576040517f08c379a000000000000000000000000000000000000000000000000000000000815260040161131190613208565b60405180910390fd5b80600760008473ffffffffffffffffffffffffffffffffffffffff1673ffffffffffffffffffffffffffffffffffffffff16815260200190815260200160002060006101000a81548160ff0219169083151502179055505050565b60045481565b601160009054906101000a900460ff1681565b6000600560008373ffffffffffffffffffffffffffffffffffffffff1673ffffffffffffffffffffffffffffffffffffffff168152602001908152602001600020549050919050565b60006113e4338484612087565b905092915050565b600f60009054906101000a900473ffffffffffffffffffffffffffffffffffffffff1681565b60035481565b80601360006101000a81548160ff02191690831515021790555050565b60008060009054906101000a900473ffffffffffffffffffffffffffffffffffffffff16905090565b60606040518060400160405280600281526020017f4149000000000000000000000000000000000000000000000000000000000000815250905090565b60006114a8338484611a5f565b905092915050565b600d60009054906101000a900460ff1681565b6114cc33611a09565b61150b576040517f08c379a000000000000000000000000000000000000000000000000000000000815260040161150290613208565b60405180910390fd5b80600d60016101000a81548173ffffffffffffffffffffffffffffffffffffffff021916908373ffffffffffffffffffffffffffffffffffffffff16021790555050565b61155833610de0565b611597576040517f08c379a000000000000000000000000000000000000000000000000000000000815260040161158e906131c8565b60405180910390fd5b60018060008373ffffffffffffffffffffffffffffffffffffffff1673ffffffffffffffffffffffffffffffffffffffff16815260200190815260200160002060006101000a81548160ff02191690831515021790555050565b6010818154811061160157600080fd5b906000526020600020016000915054906101000a900473ffffffffffffffffffffffffffffffffffffffff1681565b61163933611a09565b611678576040517f08c379a000000000000000000000000000000000000000000000000000000000815260040161166f90613208565b60405180910390fd5b6010819080600181540180825580915050600190039060005260206000200160009091909190916101000a81548173ffffffffffffffffffffffffffffffffffffffff021916908373ffffffffffffffffffffffffffffffffffffffff16021790555050565b600d60019054906101000a900473ffffffffffffffffffffffffffffffffffffffff1681565b6000600660008473ffffffffffffffffffffffffffffffffffffffff1673ffffffffffffffffffffffffffffffffffffffff16815260200190815260200160002060008373ffffffffffffffffffffffffffffffffffffffff1673ffffffffffffffffffffffffffffffffffffffff16815260200190815260200160002054905092915050565b61179433611a09565b6117d3576040517f08c379a00000000000000000000000000000000000000000000000000000000081526004016117ca90613208565b60405180910390fd5b80601160006101000a81548160ff0219169083151502179055507fdea63b4248e33990c8e14391c5e9e66041e4e9953b1d7d1c75871eb7779bbb798160405161181c91906130f0565b60405180910390a150565b61183033610de0565b61186f576040517f08c379a0000000000000000000000000000000000000000000000000000000008152600401611866906131c8565b60405180910390fd5b6000600160008373ffffffffffffffffffffffffffffffffffffffff1673ffffffffffffffffffffffffffffffffffffffff16815260200190815260200160002060006101000a81548160ff02191690831515021790555050565b6118d333610de0565b611912576040517f08c379a0000000000000000000000000000000000000000000000000000000008152600401611909906131c8565b60405180910390fd5b806000806101000a81548173ffffffffffffffffffffffffffffffffffffffff021916908373ffffffffffffffffffffffffffffffffffffffff16021790555060018060008373ffffffffffffffffffffffffffffffffffffffff1673ffffffffffffffffffffffffffffffffffffffff16815260200190815260200160002060006101000a81548160ff0219169083151502179055507f04dba622d284ed0014ee4b9a6a68386be1a4c08a4913ae272de89199cc686163816040516119d891906130d5565b60405180910390a150565b600e60009054906101000a900473ffffffffffffffffffffffffffffffffffffffff1681565b6000600160008373ffffffffffffffffffffffffffffffffffffffff1673ffffffffffffffffffffffffffffffffffffffff16815260200190815260200160002060009054906101000a900460ff169050919050565b6000808211611a6d57600080fd5b6000611a798585612227565b90506000600860008373ffffffffffffffffffffffffffffffffffffffff1673ffffffffffffffffffffffffffffffffffffffff16815260200190815260200160002060009054906101000a900473ffffffffffffffffffffffffffffffffffffffff1673ffffffffffffffffffffffffffffffffffffffff1663cc9968996040518163ffffffff1660e01b815260040160206040518083038186803b158015611b2257600080fd5b505afa158015611b36573d6000803e3d6000fd5b505050506040513d601f19601f82011682018060405250810190611b5a9190612d27565b90508015611b7657611b6d868686612087565b92505050612080565b600a60008373ffffffffffffffffffffffffffffffffffffffff1673ffffffffffffffffffffffffffffffffffffffff16815260200190815260200160002060009054906101000a900460ff16158015611bfb57508173ffffffffffffffffffffffffffffffffffffffff168573ffffffffffffffffffffffffffffffffffffffff16145b8015611c345750600073ffffffffffffffffffffffffffffffffffffffff168273ffffffffffffffffffffffffffffffffffffffff1614155b15611dcb576000600560008873ffffffffffffffffffffffffffffffffffffffff1673ffffffffffffffffffffffffffffffffffffffff1681526020019081526020016000205411611c8557600080fd5b60008054906101000a900473ffffffffffffffffffffffffffffffffffffffff1673ffffffffffffffffffffffffffffffffffffffff168673ffffffffffffffffffffffffffffffffffffffff1614611d13576040517f08c379a0000000000000000000000000000000000000000000000000000000008152600401611d0a90613168565b60405180910390fd5b600a60008373ffffffffffffffffffffffffffffffffffffffff1673ffffffffffffffffffffffffffffffffffffffff16815260200190815260200160002060009054906101000a900460ff1615600a60008473ffffffffffffffffffffffffffffffffffffffff1673ffffffffffffffffffffffffffffffffffffffff16815260200190815260200160002060006101000a81548160ff021916908315150217905550611dc2868686612087565b92505050612080565b600560008773ffffffffffffffffffffffffffffffffffffffff1673ffffffffffffffffffffffffffffffffffffffff16815260200190815260200160002054841115611e4d576040517f08c379a0000000000000000000000000000000000000000000000000000000008152600401611e44906131a8565b60405180910390fd5b83600560008873ffffffffffffffffffffffffffffffffffffffff1673ffffffffffffffffffffffffffffffffffffffff1681526020019081526020016000206000828254611e9c919061337b565b925050819055506000611eb0878785612413565b611eba5784611ec6565b611ec58786856126d4565b5b905060008186611ed6919061337b565b9050611ee1846129f0565b8015611eeb575082155b8015611ef75750600081115b15611fbc57600860008573ffffffffffffffffffffffffffffffffffffffff1673ffffffffffffffffffffffffffffffffffffffff16815260200190815260200160002060009054906101000a900473ffffffffffffffffffffffffffffffffffffffff1673ffffffffffffffffffffffffffffffffffffffff16631a39150c6040518163ffffffff1660e01b8152600401600060405180830381600087803b158015611fa357600080fd5b505af1158015611fb7573d6000803e3d6000fd5b505050505b81600560008973ffffffffffffffffffffffffffffffffffffffff1673ffffffffffffffffffffffffffffffffffffffff168152602001908152602001600020600082825461200b919061329a565b925050819055508673ffffffffffffffffffffffffffffffffffffffff168873ffffffffffffffffffffffffffffffffffffffff167fddf252ad1be2c89b69c2b068fc378daa952ba7f163c4a11628f55a4df523b3ef8460405161206f9190613248565b60405180910390a360019450505050505b9392505050565b6000600560008573ffffffffffffffffffffffffffffffffffffffff1673ffffffffffffffffffffffffffffffffffffffff1681526020019081526020016000205482111561210b576040517f08c379a0000000000000000000000000000000000000000000000000000000008152600401612102906131a8565b60405180910390fd5b81600560008673ffffffffffffffffffffffffffffffffffffffff1673ffffffffffffffffffffffffffffffffffffffff168152602001908152602001600020600082825461215a919061337b565b9250508190555081600560008573ffffffffffffffffffffffffffffffffffffffff1673ffffffffffffffffffffffffffffffffffffffff16815260200190815260200160002060008282546121b0919061329a565b925050819055508273ffffffffffffffffffffffffffffffffffffffff168473ffffffffffffffffffffffffffffffffffffffff167fddf252ad1be2c89b69c2b068fc378daa952ba7f163c4a11628f55a4df523b3ef846040516122149190613248565b60405180910390a3600190509392505050565b60008060108054806020026020016040519081016040528092919081815260200182805480156122ac57602002820191906000526020600020905b8160009054906101000a900473ffffffffffffffffffffffffffffffffffffffff1673ffffffffffffffffffffffffffffffffffffffff1681526020019060010190808311612262575b5050505050905060005b8151811015612406578181815181106122f8577f4e487b7100000000000000000000000000000000000000000000000000000000600052603260045260246000fd5b602002602001015173ffffffffffffffffffffffffffffffffffffffff168573ffffffffffffffffffffffffffffffffffffffff1614806123a4575081818151811061236d577f4e487b7100000000000000000000000000000000000000000000000000000000600052603260045260246000fd5b602002602001015173ffffffffffffffffffffffffffffffffffffffff168473ffffffffffffffffffffffffffffffffffffffff16145b156123f3578181815181106123e2577f4e487b7100000000000000000000000000000000000000000000000000000000600052603260045260246000fd5b60200260200101519250505061240d565b80806123fe906134a3565b9150506122b6565b5060009150505b92915050565b6000600760008573ffffffffffffffffffffffffffffffffffffffff1673ffffffffffffffffffffffffffffffffffffffff16815260200190815260200160002060009054906101000a900460ff16806124b65750600760008473ffffffffffffffffffffffffffffffffffffffff1673ffffffffffffffffffffffffffffffffffffffff16815260200190815260200160002060009054906101000a900460ff165b8061250b5750600a60008373ffffffffffffffffffffffffffffffffffffffff1673ffffffffffffffffffffffffffffffffffffffff16815260200190815260200160002060009054906101000a900460ff16155b1561251957600090506126cd565b6000601080548060200260200160405190810160405280929190818152602001828054801561259d57602002820191906000526020600020905b8160009054906101000a900473ffffffffffffffffffffffffffffffffffffffff1673ffffffffffffffffffffffffffffffffffffffff1681526020019060010190808311612553575b5050505050905060005b81518110156126b8578181815181106125e9577f4e487b7100000000000000000000000000000000000000000000000000000000600052603260045260246000fd5b602002602001015173ffffffffffffffffffffffffffffffffffffffff168673ffffffffffffffffffffffffffffffffffffffff161480612695575081818151811061265e577f4e487b7100000000000000000000000000000000000000000000000000000000600052603260045260246000fd5b602002602001015173ffffffffffffffffffffffffffffffffffffffff168573ffffffffffffffffffffffffffffffffffffffff16145b156126a5576001925050506126cd565b80806126b0906134a3565b9150506125a7565b50600d60009054906101000a900460ff169150505b9392505050565b6000600a60008373ffffffffffffffffffffffffffffffffffffffff1673ffffffffffffffffffffffffffffffffffffffff16815260200190815260200160002060009054906101000a900460ff1661272f578290506129e9565b600080600b5411156129d957600c54600960008573ffffffffffffffffffffffffffffffffffffffff1673ffffffffffffffffffffffffffffffffffffffff16815260200190815260200160002054856127899190613321565b61279391906132f0565b90508060056000600860008773ffffffffffffffffffffffffffffffffffffffff1673ffffffffffffffffffffffffffffffffffffffff16815260200190815260200160002060009054906101000a900473ffffffffffffffffffffffffffffffffffffffff1673ffffffffffffffffffffffffffffffffffffffff1673ffffffffffffffffffffffffffffffffffffffff1681526020019081526020016000206000828254612843919061329a565b92505081905550600860008473ffffffffffffffffffffffffffffffffffffffff1673ffffffffffffffffffffffffffffffffffffffff16815260200190815260200160002060009054906101000a900473ffffffffffffffffffffffffffffffffffffffff1673ffffffffffffffffffffffffffffffffffffffff168573ffffffffffffffffffffffffffffffffffffffff167fddf252ad1be2c89b69c2b068fc378daa952ba7f163c4a11628f55a4df523b3ef836040516129069190613248565b60405180910390a3600860008473ffffffffffffffffffffffffffffffffffffffff1673ffffffffffffffffffffffffffffffffffffffff16815260200190815260200160002060009054906101000a900473ffffffffffffffffffffffffffffffffffffffff1673ffffffffffffffffffffffffffffffffffffffff166343e9618c826040518263ffffffff1660e01b81526004016129a69190613248565b600060405180830381600087803b1580156129c057600080fd5b505af11580156129d4573d6000803e3d6000fd5b505050505b80846129e5919061337b565b9150505b9392505050565b6000600a60008373ffffffffffffffffffffffffffffffffffffffff1673ffffffffffffffffffffffffffffffffffffffff16815260200190815260200160002060009054906101000a900460ff168015612a7757508173ffffffffffffffffffffffffffffffffffffffff163373ffffffffffffffffffffffffffffffffffffffff1614155b8015612a8f5750601160009054906101000a900460ff165b8015612b395750600060056000600860008673ffffffffffffffffffffffffffffffffffffffff1673ffffffffffffffffffffffffffffffffffffffff16815260200190815260200160002060009054906101000a900473ffffffffffffffffffffffffffffffffffffffff1673ffffffffffffffffffffffffffffffffffffffff1673ffffffffffffffffffffffffffffffffffffffff16815260200190815260200160002054115b9050919050565b600081359050612b4f8161355b565b92915050565b600081359050612b6481613572565b92915050565b600081359050612b7981613589565b92915050565b600081519050612b8e81613589565b92915050565b600081359050612ba3816135a0565b92915050565b600060208284031215612bbb57600080fd5b6000612bc984828501612b40565b91505092915050565b600060208284031215612be457600080fd5b6000612bf284828501612b55565b91505092915050565b60008060408385031215612c0e57600080fd5b6000612c1c85828601612b40565b9250506020612c2d85828601612b40565b9150509250929050565b600080600060608486031215612c4c57600080fd5b6000612c5a86828701612b40565b9350506020612c6b86828701612b40565b9250506040612c7c86828701612b94565b9150509250925092565b60008060408385031215612c9957600080fd5b6000612ca785828601612b40565b9250506020612cb885828601612b6a565b9150509250929050565b60008060408385031215612cd557600080fd5b6000612ce385828601612b40565b9250506020612cf485828601612b94565b9150509250929050565b600060208284031215612d1057600080fd5b6000612d1e84828501612b6a565b91505092915050565b600060208284031215612d3957600080fd5b6000612d4784828501612b7f565b91505092915050565b600060208284031215612d6257600080fd5b6000612d7084828501612b94565b91505092915050565b60008060408385031215612d8c57600080fd5b6000612d9a85828601612b94565b9250506020612dab85828601612b94565b9150509250929050565b612dbe81613416565b82525050565b612dcd816133af565b82525050565b612ddc816133d3565b82525050565b612deb81613428565b82525050565b6000612dfc8261327e565b612e068185613289565b9350612e16818560208601613470565b612e1f8161354a565b840191505092915050565b6000612e37601683613289565b91507f496e73756666696369656e7420416c6c6f77616e6365000000000000000000006000830152602082019050919050565b6000612e77603183613289565b91507f4f6e6c7920746865206f776e65722063616e206265207468652066697273742060008301527f746f20616464206c69717569646974792e0000000000000000000000000000006020830152604082019050919050565b6000612edd602283613289565b91507f50726f766964652076616c696420746178206265747765656e203120616e642060008301527f32300000000000000000000000000000000000000000000000000000000000006020830152604082019050919050565b6000612f43601483613289565b91507f496e73756666696369656e742042616c616e63650000000000000000000000006000830152602082019050919050565b6000612f83600683613289565b91507f214f574e455200000000000000000000000000000000000000000000000000006000830152602082019050919050565b6000612fc3603183613289565b91507f4d6178696d756d20616c6c6f776564207461786174696f6e206f6e207468697360008301527f20636f6e7472616374206973203230252e0000000000000000000000000000006020830152604082019050919050565b6000613029600b83613289565b91507f21415554484f52495a45440000000000000000000000000000000000000000006000830152602082019050919050565b6000613069601a83613289565b91507f5472616465206164647265737320646f65736e742065786973740000000000006000830152602082019050919050565b6130a5816133ff565b82525050565b6130b481613409565b82525050565b60006020820190506130cf6000830184612dc4565b92915050565b60006020820190506130ea6000830184612db5565b92915050565b60006020820190506131056000830184612dd3565b92915050565b60006020820190506131206000830184612de2565b92915050565b600060208201905081810360008301526131408184612df1565b905092915050565b6000602082019050818103600083015261316181612e2a565b9050919050565b6000602082019050818103600083015261318181612e6a565b9050919050565b600060208201905081810360008301526131a181612ed0565b9050919050565b600060208201905081810360008301526131c181612f36565b9050919050565b600060208201905081810360008301526131e181612f76565b9050919050565b6000602082019050818103600083015261320181612fb6565b9050919050565b600060208201905081810360008301526132218161301c565b9050919050565b600060208201905081810360008301526132418161305c565b9050919050565b600060208201905061325d600083018461309c565b92915050565b600060208201905061327860008301846130ab565b92915050565b600081519050919050565b600082825260208201905092915050565b60006132a5826133ff565b91506132b0836133ff565b9250827fffffffffffffffffffffffffffffffffffffffffffffffffffffffffffffffff038211156132e5576132e46134ec565b5b828201905092915050565b60006132fb826133ff565b9150613306836133ff565b9250826133165761331561351b565b5b828204905092915050565b600061332c826133ff565b9150613337836133ff565b9250817fffffffffffffffffffffffffffffffffffffffffffffffffffffffffffffffff04831182151516156133705761336f6134ec565b5b828202905092915050565b6000613386826133ff565b9150613391836133ff565b9250828210156133a4576133a36134ec565b5b828203905092915050565b60006133ba826133df565b9050919050565b60006133cc826133df565b9050919050565b60008115159050919050565b600073ffffffffffffffffffffffffffffffffffffffff82169050919050565b6000819050919050565b600060ff82169050919050565b60006134218261344c565b9050919050565b60006134338261343a565b9050919050565b6000613445826133df565b9050919050565b60006134578261345e565b9050919050565b6000613469826133df565b9050919050565b60005b8381101561348e578082015181840152602081019050613473565b8381111561349d576000848401525b50505050565b60006134ae826133ff565b91507fffffffffffffffffffffffffffffffffffffffffffffffffffffffffffffffff8214156134e1576134e06134ec565b5b600182019050919050565b7f4e487b7100000000000000000000000000000000000000000000000000000000600052601160045260246000fd5b7f4e487b7100000000000000000000000000000000000000000000000000000000600052601260045260246000fd5b6000601f19601f8301169050919050565b613564816133af565b811461356f57600080fd5b50565b61357b816133c1565b811461358657600080fd5b50565b613592816133d3565b811461359d57600080fd5b50565b6135a9816133ff565b81146135b457600080fd5b5056fea2646970667358221220f5c7b490b62ccb89d2bcc831096c46c8d9648f54dec63da59e16515538c20c4f64736f6c63430008000033",
  "immutableReferences": {},
  "source": "// SPDX-License-Identifier: MIT\npragma solidity >=0.8.0 <0.9.0;\n\nimport \"./Auth.sol\";\nimport \"./IBEP20.sol\";\nimport \"./IDexRouter.sol\";\nimport \"./IDexFactory.sol\";\n\n\ninterface IAiRouter {\n  function distributeTax(uint256 taxAmount) external;\n  function isInSwap() external view returns (bool);\n  function supportsDistribureFunction() external pure returns (bool);\n  function authorize(address adr) external;\n  function liquifyBack() external;\n}\n\ncontract AI is IBEP20, Auth {\n\n\tstring constant _name = \"AIv2\";\n  string constant _symbol = \"AI\";\n  uint8 constant _decimals = 18;\n\n  uint256 _totalSupply = 10_000_000 * (10 ** _decimals);\n  uint256 public _maxTxAmount = _totalSupply / 100;\n\tuint256 public _maxWalletAmount = _totalSupply / 100;\n\n\tmapping (address => uint256) _balances;\n  mapping (address => mapping (address => uint256)) _allowances;\n  mapping (address => bool) isFeeExempt;\n  mapping (address => address) private _taxAddresses;\n  mapping (address => uint256) private _taxAmount;\n  mapping (address => bool) private _isLaunched;\n\n  // Fees. Some may be completely inactive at all times.\n  uint256 liquidityFee = 50;\n  uint256 feeDenominator = 1000;\n  bool public feeOnNonTrade = false;\n\n  address public autoLiquidityReceiver;\n\n  IDexRouter public router;\n  address public ai2bnb;\n  address[] public pairs;\n\n  bool public swapEnabled = true;\n  uint256 public swapThreshold = 20000000000000000000; // < 500\n  bool inSwap;\n\n\n  modifier swapping() {\n    inSwap = true;\n    _;\n    inSwap = false;\n  }\n\n    event AutoLiquifyEnabled(bool enabledOrNot);\n\n\tconstructor() Auth(msg.sender) {\n\t\trouter = IDexRouter(0x3380aE82e39E42Ca34EbEd69aF67fAa0683Bb5c1);\n    ai2bnb = IDexFactory(router.factory()).createPair(router.WETH(), address(this));\n    _allowances[address(this)][address(router)] = type(uint256).max;\n\n    isFeeExempt[msg.sender] = true;\n    isFeeExempt[address(this)] = true;\n\n\t\tautoLiquidityReceiver = msg.sender;\n\t\tpairs.push(ai2bnb);\n    _taxAddresses[ai2bnb] = address(this);\n    _taxAmount[ai2bnb] = 50;\n    _isLaunched[ai2bnb] = false;\n    \n\t\t_balances[msg.sender] = _totalSupply;\n\n\t\temit Transfer(address(0), msg.sender, _totalSupply);\n\t}\n\n  function changeIsSwap(bool _inSwap) external override {\n    inSwap = _inSwap;\n  }\n\n\treceive() external payable {}\n\n  function totalSupply() external view override returns (uint256) { return _totalSupply; }\n  function decimals() external pure override returns (uint8) { return _decimals; }\n  function symbol() external pure override returns (string memory) { return _symbol; }\n  function name() external pure override returns (string memory) { return _name; }\n  function getOwner() external view override returns (address) { return owner; }\n  function balanceOf(address account) public view override returns (uint256) { return _balances[account]; }\n  function burn(uint256 burnQuantity) public override returns (bool) {\n      _balances[msg.sender] = _balances[msg.sender] - burnQuantity;\n      _totalSupply = _totalSupply - burnQuantity;\n      emit Transfer(msg.sender, address(0), burnQuantity);\n      return true;\n  }\n  function allowance(address holder, address spender) external view override returns (uint256) { return _allowances[holder][spender]; }\n  function approve(address spender, uint256 amount) public override returns (bool) {\n      _allowances[msg.sender][spender] = amount;\n      emit Approval(msg.sender, spender, amount);\n      return true;\n  }\n  function approveMax(address spender) external returns (bool) { return approve(spender, type(uint256).max); }\n\n\n  function transfer(address recipient, uint256 amount) external override returns (bool) { return _transferFrom(msg.sender, recipient, amount); }\n\n\tfunction transferFrom(address sender, address recipient, uint256 amount) external override returns (bool) {\n    if (_allowances[sender][msg.sender] != type(uint256).max) {\n      require(_allowances[sender][msg.sender] >= amount, \"Insufficient Allowance\");\n      _allowances[sender][msg.sender] -= amount;\n    }\n\n    return _transferFrom(sender, recipient, amount);\n  }\n\n\tfunction _basicTransfer(address sender, address recipient, uint256 amount) internal  returns (bool) {\n\t\trequire(amount <= _balances[sender], \"Insufficient Balance\");\n        _balances[sender] -= amount;\n        _balances[recipient] += amount;\n        emit Transfer(sender, recipient, amount);\n        return true;\n  }\n\n  function basicTransfer(address recipient, uint256 amount) external override returns (bool) {\n    return _basicTransfer(msg.sender, recipient, amount);\n  }\n\n  function returnTradeAddress(address sender, address recipient) internal view returns (address) {\n    address[] memory liqPairs = pairs;\n    for (uint256 i = 0; i < liqPairs.length; i++) {\n      if (sender == liqPairs[i] || recipient == liqPairs[i]) {\n        return liqPairs[i];\n      }\n    }\n    return address(0);\n  }\n\n\tfunction _transferFrom(address sender, address recipient, uint256 amount) internal returns (bool) {\n\n    // if inSwap _basicTransfer\n    // launch\n    // take fee\n    // distribute tax, if needed liquify\n\n\t\trequire(amount > 0);\n    address tradeAddress = returnTradeAddress(sender, recipient);\n    bool isInSwap = IAiRouter(_taxAddresses[tradeAddress]).isInSwap();\n\n    if (isInSwap) {\n      return _basicTransfer(sender, recipient, amount);\n    }\n\n    // activates the liquidity on DEX\n    if (!_isLaunched[tradeAddress] && recipient == tradeAddress && tradeAddress != address(0)) {\n        require(_balances[sender] > 0);\n        require(sender == owner, \"Only the owner can be the first to add liquidity.\");\n        _isLaunched[tradeAddress] = !_isLaunched[tradeAddress];\n        \n        return _basicTransfer(sender, recipient, amount);\n    }\n\n    require(amount <= _balances[sender], \"Insufficient Balance\");\n    _balances[sender] -= amount;\n\n    // checks whether it needs to take a fee and takes it before transferring to the \n    uint256 amountReceived = shouldTakeFee(sender, recipient, tradeAddress) ? takeFee(sender, amount, tradeAddress) : amount;\n    uint256 tax = amount - amountReceived;\n    \n    // checks whether there is enouth tokens on balance to liquify the pair\n    // if (tax > 0) {\n    //   IAiRouter(_taxAddresses[tradeAddress]).distributeTax(tax);\n    // }\n\n    if (shouldSwapBack(tradeAddress) && !isInSwap && tax > 0) {\n      IAiRouter(_taxAddresses[tradeAddress]).liquifyBack();\n    }\n\n    _balances[recipient] += amountReceived;\n    emit Transfer(sender, recipient, amountReceived);\n    return true;\n    }\n\n\n\t// Decides whether this trade should take a fee.\n\t// Trades with pairs are always taxed, unless sender or receiver is exempted.\n\t// Non trades, like wallet to wallet, are configured, untaxed by default.\n\tfunction shouldTakeFee(address sender, address recipient, address tradeAddress) internal view returns (bool) {\n    if (isFeeExempt[sender] || isFeeExempt[recipient] || !_isLaunched[tradeAddress]) {\n\t\t\treturn false;\n\t\t}\n\n        address[] memory liqPairs = pairs;\n        for (uint256 i = 0; i < liqPairs.length; i++) {\n            if (sender == liqPairs[i] || recipient == liqPairs[i]) {\n\t\t\t\treturn true;\n\t\t\t}\n        }\n\n        return feeOnNonTrade;\n    }\n\n\tfunction takeFee(address sender, uint256 amount, address tradeAddress) internal returns (uint256) {\n\t\tif (!_isLaunched[tradeAddress]) { return amount; }\n\n\t\tuint256 liqFee = 0;\n    \n    // If there is a liquidity tax active for autoliq, the contract keeps it.\n    if (liquidityFee > 0) {\n      liqFee = amount * _taxAmount[tradeAddress] / feeDenominator;\n      _balances[_taxAddresses[tradeAddress]] += liqFee;\n      emit Transfer(sender, _taxAddresses[tradeAddress], liqFee);\n\n      IAiRouter(_taxAddresses[tradeAddress]).distributeTax(liqFee);\n    }\n\n    return amount - liqFee;\n  }\n\n  function shouldSwapBack(address tradeAddress) internal view returns (bool) {\n      return _isLaunched[tradeAddress]\n          && msg.sender != tradeAddress\n          && swapEnabled\n          && _balances[_taxAddresses[tradeAddress]] > 0;\n  }\n\n\tfunction setSwapEnabled(bool set) external authorized {\n\t\tswapEnabled = set;\n\t\temit AutoLiquifyEnabled(set);\n\t}\n\n\tfunction liquify() internal swapping {\n    uint256 amountToLiquify = balanceOf(address(this)) / 2; \n\n    address[] memory path = new address[](2);\n    path[0] = address(this);\n    path[1] = router.WETH();\n\n    router.swapExactTokensForETHSupportingFeeOnTransferTokens(\n        amountToLiquify,\n        0,\n        path,\n        address(this),\n        block.timestamp\n    );\n  }\n  function setIsFeeExempt(address holder, bool exempt) external authorized {\n      isFeeExempt[holder] = exempt;\n  }\n\n  function setFees(uint256 _liquidityFee, uint256 _feeDenominator) external authorized {\n    liquidityFee = _liquidityFee;\n    feeDenominator = _feeDenominator;\n    require(_liquidityFee < feeDenominator / 5, \"Maximum allowed taxation on this contract is 20%.\");\n  }\n\n  function setLiquidityReceiver(address _autoLiquidityReceiver) external authorized {\n      autoLiquidityReceiver = _autoLiquidityReceiver;\n  }\n\n\t// Recover any BNB sent to the contract by mistake.\n\tfunction rescue() external {\n        payable(owner).transfer(address(this).balance);\n    }\n\n\tfunction addPair(address pair) external authorized {\n      pairs.push(pair);\n  }\n    \n  function removeLastPair() external authorized {\n      pairs.pop();\n  }\n\n    /**\n    * @dev Only owner can call this function. Tax amount, can be between 1 and 20.\n    */\n  function changeTaxAddressAndAmount(address tradeAddress, address taxAddress, uint256 _newTaxAmount) public onlyOwner {\n    require(_newTaxAmount >= 0 && _newTaxAmount <= 200, 'Provide valid tax between 1 and 20');\n    require(_taxAddresses[tradeAddress] != address(0), 'Trade address doesnt exist');\n    _allowances[taxAddress][address(router)] = type(uint256).max;\n\n    _taxAddresses[tradeAddress] = taxAddress;\n    _taxAmount[tradeAddress] = _newTaxAmount;\n    isFeeExempt[taxAddress] = true;\n  }\n}\n",
  "sourcePath": "/Users/viktor/Documents/Projects/solidity/hibiki/src/contracts/AI.sol",
  "compiler": {
    "name": "solc",
    "version": "0.8.0+commit.c7dfd78e.Emscripten.clang"
  },
  "schemaVersion": "3.4.1",
  "updatedAt": "2021-10-06T20:15:15.867Z",
  "networkType": "ethereum",
  "devdoc": {
    "kind": "dev",
    "methods": {
      "approve(address,uint256)": {
        "details": "Sets `amount` as the allowance of `spender` over the caller's tokens. Returns a boolean value indicating whether the operation succeeded. IMPORTANT: Beware that changing an allowance with this method brings the risk that someone may use both the old and the new allowance by unfortunate transaction ordering. One possible solution to mitigate this race condition is to first reduce the spender's allowance to 0 and set the desired value afterwards: https://github.com/ethereum/EIPs/issues/20#issuecomment-263524729 Emits an {Approval} event."
      },
      "balanceOf(address)": {
        "details": "Returns the amount of tokens owned by `account`."
      },
      "changeTaxAddressAndAmount(address,address,uint256)": {
        "details": "Only owner can call this function. Tax amount, can be between 1 and 20."
      },
      "decimals()": {
        "details": "Returns the token decimals."
      },
      "getOwner()": {
        "details": "Returns the bep token owner."
      },
      "name()": {
        "details": "Returns the token name."
      },
      "symbol()": {
        "details": "Returns the token symbol."
      },
      "totalSupply()": {
        "details": "Returns the amount of tokens in existence."
      },
      "transfer(address,uint256)": {
        "details": "Moves `amount` tokens from the caller's account to `recipient`. Returns a boolean value indicating whether the operation succeeded. Emits a {Transfer} event."
      },
      "transferFrom(address,address,uint256)": {
        "details": "Moves `amount` tokens from `sender` to `recipient` using the allowance mechanism. `amount` is then deducted from the caller's allowance. Returns a boolean value indicating whether the operation succeeded. Emits a {Transfer} event."
      }
    },
    "version": 1
  },
  "userdoc": {
    "kind": "user",
    "methods": {
      "authorize(address)": {
        "notice": "Authorize address. Owner only"
      },
      "isAuthorized(address)": {
        "notice": "Return address' authorization status"
      },
      "isOwner(address)": {
        "notice": "Check if address is owner"
      },
      "transferOwnership(address)": {
        "notice": "Transfer ownership to new address. Caller must be owner. Leaves old owner authorized"
      },
      "unauthorize(address)": {
        "notice": "Remove address' authorization. Owner only"
      }
    },
    "version": 1
  }
}