{
  "contractName": "AI",
  "abi": [
    {
      "inputs": [
        {
          "internalType": "uint256",
          "name": "valueToMint",
          "type": "uint256"
        }
      ],
      "stateMutability": "nonpayable",
      "type": "constructor"
    },
    {
      "anonymous": false,
      "inputs": [
        {
          "indexed": true,
          "internalType": "address",
          "name": "owner",
          "type": "address"
        },
        {
          "indexed": true,
          "internalType": "address",
          "name": "spender",
          "type": "address"
        },
        {
          "indexed": false,
          "internalType": "uint256",
          "name": "value",
          "type": "uint256"
        }
      ],
      "name": "Approval",
      "type": "event"
    },
    {
      "anonymous": false,
      "inputs": [
        {
          "indexed": false,
          "internalType": "address",
          "name": "owner",
          "type": "address"
        }
      ],
      "name": "OwnershipTransferred",
      "type": "event"
    },
    {
      "anonymous": false,
      "inputs": [
        {
          "indexed": false,
          "internalType": "bool",
          "name": "enabledOrNot",
          "type": "bool"
        }
      ],
      "name": "TaxCollectionEnabled",
      "type": "event"
    },
    {
      "anonymous": false,
      "inputs": [
        {
          "indexed": true,
          "internalType": "address",
          "name": "from",
          "type": "address"
        },
        {
          "indexed": true,
          "internalType": "address",
          "name": "to",
          "type": "address"
        },
        {
          "indexed": false,
          "internalType": "uint256",
          "name": "value",
          "type": "uint256"
        }
      ],
      "name": "Transfer",
      "type": "event"
    },
    {
      "inputs": [],
      "name": "SECONDS_IN_A_DAY",
      "outputs": [
        {
          "internalType": "uint256",
          "name": "",
          "type": "uint256"
        }
      ],
      "stateMutability": "view",
      "type": "function",
      "constant": true
    },
    {
      "inputs": [],
      "name": "aiSnapshot",
      "outputs": [
        {
          "internalType": "uint256",
          "name": "",
          "type": "uint256"
        }
      ],
      "stateMutability": "view",
      "type": "function",
      "constant": true
    },
    {
      "inputs": [
        {
          "internalType": "address",
          "name": "adr",
          "type": "address"
        }
      ],
      "name": "authorize",
      "outputs": [],
      "stateMutability": "nonpayable",
      "type": "function"
    },
    {
      "inputs": [],
      "name": "emissionEnd",
      "outputs": [
        {
          "internalType": "uint256",
          "name": "",
          "type": "uint256"
        }
      ],
      "stateMutability": "view",
      "type": "function",
      "constant": true
    },
    {
      "inputs": [],
      "name": "emissionPerDay",
      "outputs": [
        {
          "internalType": "uint256",
          "name": "",
          "type": "uint256"
        }
      ],
      "stateMutability": "view",
      "type": "function",
      "constant": true
    },
    {
      "inputs": [
        {
          "internalType": "address",
          "name": "adr",
          "type": "address"
        }
      ],
      "name": "isAuthorized",
      "outputs": [
        {
          "internalType": "bool",
          "name": "",
          "type": "bool"
        }
      ],
      "stateMutability": "view",
      "type": "function",
      "constant": true
    },
    {
      "inputs": [
        {
          "internalType": "address",
          "name": "account",
          "type": "address"
        }
      ],
      "name": "isOwner",
      "outputs": [
        {
          "internalType": "bool",
          "name": "",
          "type": "bool"
        }
      ],
      "stateMutability": "view",
      "type": "function",
      "constant": true
    },
    {
      "inputs": [],
      "name": "swapEnabled",
      "outputs": [
        {
          "internalType": "bool",
          "name": "",
          "type": "bool"
        }
      ],
      "stateMutability": "view",
      "type": "function",
      "constant": true
    },
    {
      "inputs": [
        {
          "internalType": "address payable",
          "name": "adr",
          "type": "address"
        }
      ],
      "name": "transferOwnership",
      "outputs": [],
      "stateMutability": "nonpayable",
      "type": "function"
    },
    {
      "inputs": [
        {
          "internalType": "address",
          "name": "adr",
          "type": "address"
        }
      ],
      "name": "unauthorize",
      "outputs": [],
      "stateMutability": "nonpayable",
      "type": "function"
    },
    {
      "stateMutability": "payable",
      "type": "receive",
      "payable": true
    },
    {
      "inputs": [],
      "name": "totalSupply",
      "outputs": [
        {
          "internalType": "uint256",
          "name": "",
          "type": "uint256"
        }
      ],
      "stateMutability": "view",
      "type": "function",
      "constant": true
    },
    {
      "inputs": [],
      "name": "decimals",
      "outputs": [
        {
          "internalType": "uint8",
          "name": "",
          "type": "uint8"
        }
      ],
      "stateMutability": "pure",
      "type": "function",
      "constant": true
    },
    {
      "inputs": [],
      "name": "symbol",
      "outputs": [
        {
          "internalType": "string",
          "name": "",
          "type": "string"
        }
      ],
      "stateMutability": "pure",
      "type": "function",
      "constant": true
    },
    {
      "inputs": [],
      "name": "name",
      "outputs": [
        {
          "internalType": "string",
          "name": "",
          "type": "string"
        }
      ],
      "stateMutability": "pure",
      "type": "function",
      "constant": true
    },
    {
      "inputs": [],
      "name": "getOwner",
      "outputs": [
        {
          "internalType": "address",
          "name": "",
          "type": "address"
        }
      ],
      "stateMutability": "view",
      "type": "function",
      "constant": true
    },
    {
      "inputs": [
        {
          "internalType": "address",
          "name": "account",
          "type": "address"
        }
      ],
      "name": "balanceOf",
      "outputs": [
        {
          "internalType": "uint256",
          "name": "",
          "type": "uint256"
        }
      ],
      "stateMutability": "view",
      "type": "function",
      "constant": true
    },
    {
      "inputs": [
        {
          "internalType": "uint256",
          "name": "burnQuantity",
          "type": "uint256"
        }
      ],
      "name": "burn",
      "outputs": [
        {
          "internalType": "bool",
          "name": "",
          "type": "bool"
        }
      ],
      "stateMutability": "nonpayable",
      "type": "function"
    },
    {
      "inputs": [
        {
          "internalType": "address",
          "name": "holder",
          "type": "address"
        },
        {
          "internalType": "address",
          "name": "spender",
          "type": "address"
        }
      ],
      "name": "allowance",
      "outputs": [
        {
          "internalType": "uint256",
          "name": "",
          "type": "uint256"
        }
      ],
      "stateMutability": "view",
      "type": "function",
      "constant": true
    },
    {
      "inputs": [
        {
          "internalType": "address",
          "name": "spender",
          "type": "address"
        },
        {
          "internalType": "uint256",
          "name": "amount",
          "type": "uint256"
        }
      ],
      "name": "approve",
      "outputs": [
        {
          "internalType": "bool",
          "name": "",
          "type": "bool"
        }
      ],
      "stateMutability": "nonpayable",
      "type": "function"
    },
    {
      "inputs": [
        {
          "internalType": "address",
          "name": "spender",
          "type": "address"
        }
      ],
      "name": "approveMax",
      "outputs": [
        {
          "internalType": "bool",
          "name": "",
          "type": "bool"
        }
      ],
      "stateMutability": "nonpayable",
      "type": "function"
    },
    {
      "inputs": [
        {
          "internalType": "address",
          "name": "recipient",
          "type": "address"
        },
        {
          "internalType": "uint256",
          "name": "amount",
          "type": "uint256"
        }
      ],
      "name": "transfer",
      "outputs": [
        {
          "internalType": "bool",
          "name": "",
          "type": "bool"
        }
      ],
      "stateMutability": "nonpayable",
      "type": "function"
    },
    {
      "inputs": [
        {
          "internalType": "address",
          "name": "sender",
          "type": "address"
        },
        {
          "internalType": "address",
          "name": "recipient",
          "type": "address"
        },
        {
          "internalType": "uint256",
          "name": "amount",
          "type": "uint256"
        }
      ],
      "name": "transferFrom",
      "outputs": [
        {
          "internalType": "bool",
          "name": "",
          "type": "bool"
        }
      ],
      "stateMutability": "nonpayable",
      "type": "function"
    },
    {
      "inputs": [
        {
          "internalType": "bool",
          "name": "set",
          "type": "bool"
        }
      ],
      "name": "setSwapEnabled",
      "outputs": [],
      "stateMutability": "nonpayable",
      "type": "function"
    },
    {
      "inputs": [
        {
          "internalType": "address",
          "name": "holder",
          "type": "address"
        },
        {
          "internalType": "bool",
          "name": "exempt",
          "type": "bool"
        }
      ],
      "name": "setIsFeeExempt",
      "outputs": [],
      "stateMutability": "nonpayable",
      "type": "function"
    },
    {
      "inputs": [],
      "name": "rescue",
      "outputs": [],
      "stateMutability": "nonpayable",
      "type": "function"
    },
    {
      "inputs": [
        {
          "internalType": "address",
          "name": "pair",
          "type": "address"
        },
        {
          "internalType": "address",
          "name": "taxAddress",
          "type": "address"
        },
        {
          "internalType": "uint256",
          "name": "_newTaxAmount",
          "type": "uint256"
        }
      ],
      "name": "addPair",
      "outputs": [],
      "stateMutability": "nonpayable",
      "type": "function"
    },
    {
      "inputs": [],
      "name": "removeLastPair",
      "outputs": [],
      "stateMutability": "nonpayable",
      "type": "function"
    },
    {
      "inputs": [
        {
          "internalType": "address",
          "name": "pairAddressToRemove",
          "type": "address"
        }
      ],
      "name": "removePair",
      "outputs": [],
      "stateMutability": "nonpayable",
      "type": "function"
    },
    {
      "inputs": [
        {
          "internalType": "uint256",
          "name": "tokenIndex",
          "type": "uint256"
        }
      ],
      "name": "lastClaim",
      "outputs": [
        {
          "internalType": "uint256",
          "name": "",
          "type": "uint256"
        }
      ],
      "stateMutability": "view",
      "type": "function",
      "constant": true
    },
    {
      "inputs": [
        {
          "internalType": "uint256",
          "name": "tokenIndex",
          "type": "uint256"
        }
      ],
      "name": "accumulated",
      "outputs": [
        {
          "internalType": "uint256",
          "name": "",
          "type": "uint256"
        }
      ],
      "stateMutability": "view",
      "type": "function",
      "constant": true
    },
    {
      "inputs": [
        {
          "internalType": "uint256[]",
          "name": "tokenIndices",
          "type": "uint256[]"
        }
      ],
      "name": "claim",
      "outputs": [
        {
          "internalType": "uint256",
          "name": "",
          "type": "uint256"
        }
      ],
      "stateMutability": "nonpayable",
      "type": "function"
    },
    {
      "inputs": [
        {
          "internalType": "uint256",
          "name": "_newEmissionPerDay",
          "type": "uint256"
        }
      ],
      "name": "changeEmissionPerDay",
      "outputs": [],
      "stateMutability": "nonpayable",
      "type": "function"
    },
    {
      "inputs": [
        {
          "internalType": "address",
          "name": "tradeAddress",
          "type": "address"
        },
        {
          "internalType": "address",
          "name": "taxAddress",
          "type": "address"
        },
        {
          "internalType": "uint256",
          "name": "_newTaxAmount",
          "type": "uint256"
        }
      ],
      "name": "changeTaxAddressAndAmount",
      "outputs": [],
      "stateMutability": "nonpayable",
      "type": "function"
    }
  ],
  "bytecode": "0x6080604052671feb3dd067660000600255678ac7230489e800006003556103e8600c5573a16b13cdfee9a134d17957bef09dc3b5a4fddc1b600d60006101000a81548173ffffffffffffffffffffffffffffffffffffffff021916908373ffffffffffffffffffffffffffffffffffffffff160217905550600d60009054906101000a900473ffffffffffffffffffffffffffffffffffffffff16600f60006101000a81548173ffffffffffffffffffffffffffffffffffffffff021916908373ffffffffffffffffffffffffffffffffffffffff1602179055506001600f60146101000a81548160ff0219169083151502179055503480156200010257600080fd5b5060405162004d7e38038062004d7e83398181016040528101906200012891906200048f565b33806000806101000a81548173ffffffffffffffffffffffffffffffffffffffff021916908373ffffffffffffffffffffffffffffffffffffffff16021790555060018060008373ffffffffffffffffffffffffffffffffffffffff1673ffffffffffffffffffffffffffffffffffffffff16815260200190815260200160002060006101000a81548160ff021916908315150217905550506001600760003373ffffffffffffffffffffffffffffffffffffffff1673ffffffffffffffffffffffffffffffffffffffff16815260200190815260200160002060006101000a81548160ff0219169083151502179055506001600760003073ffffffffffffffffffffffffffffffffffffffff1673ffffffffffffffffffffffffffffffffffffffff16815260200190815260200160002060006101000a81548160ff021916908315150217905550620002a360008054906101000a900473ffffffffffffffffffffffffffffffffffffffff1682620002aa60201b60201c565b506200060e565b600073ffffffffffffffffffffffffffffffffffffffff168273ffffffffffffffffffffffffffffffffffffffff1614156200031d576040517f08c379a000000000000000000000000000000000000000000000000000000000815260040162000314906200050e565b60405180910390fd5b62000331600083836200045b60201b60201c565b6200034d816004546200046060201b620023201790919060201c565b600481905550620003ac81600560008573ffffffffffffffffffffffffffffffffffffffff1673ffffffffffffffffffffffffffffffffffffffff168152602001908152602001600020546200046060201b620023201790919060201c565b600560008473ffffffffffffffffffffffffffffffffffffffff1673ffffffffffffffffffffffffffffffffffffffff168152602001908152602001600020819055508173ffffffffffffffffffffffffffffffffffffffff16600073ffffffffffffffffffffffffffffffffffffffff167fddf252ad1be2c89b69c2b068fc378daa952ba7f163c4a11628f55a4df523b3ef836040516200044f919062000530565b60405180910390a35050565b505050565b600081836200047091906200055e565b905092915050565b6000815190506200048981620005f4565b92915050565b600060208284031215620004a257600080fd5b6000620004b28482850162000478565b91505092915050565b6000620004ca601f836200054d565b91507f45524332303a206d696e7420746f20746865207a65726f2061646472657373006000830152602082019050919050565b6200050881620005bb565b82525050565b600060208201905081810360008301526200052981620004bb565b9050919050565b6000602082019050620005476000830184620004fd565b92915050565b600082825260208201905092915050565b60006200056b82620005bb565b91506200057883620005bb565b9250827fffffffffffffffffffffffffffffffffffffffffffffffffffffffffffffffff03821115620005b057620005af620005c5565b5b828201905092915050565b6000819050919050565b7f4e487b7100000000000000000000000000000000000000000000000000000000600052601160045260246000fd5b620005ff81620005bb565b81146200060b57600080fd5b50565b614760806200061e6000396000f3fe6080604052600436106101f15760003560e01c806370a082311161010d578063b5acfa62116100a0578063e01af92c1161006f578063e01af92c14610743578063f0b37c041461076c578063f2fde38b14610795578063f9cfa06f146107be578063fe9fbb80146107e9576101f8565b8063b5acfa6214610677578063b6a5d7de146106a0578063c607cde7146106c9578063dd62ed3e14610706576101f8565b806395d89b41116100dc57806395d89b41146105bb578063a9059cbb146105e6578063af6c9c1d14610623578063b551b82f1461064c576101f8565b806370a08231146104ff578063715702611461053c5780638368909c14610565578063893d20e814610590576101f8565b80633d3728b5116101855780635e0a1280116101545780635e0a128014610445578063658d4b7f1461046e5780636ba4c138146104975780636ddd1713146104d4576101f8565b80633d3728b51461036357806342966c68146103a05780634747d509146103dd578063571ac8b014610408576101f8565b80631fbe1979116101c15780631fbe1979146102a757806323b872dd146102be5780632f54bf6e146102fb578063313ce56714610338576101f8565b806293dc14146101fd57806306fdde0314610214578063095ea7b31461023f57806318160ddd1461027c576101f8565b366101f857005b600080fd5b34801561020957600080fd5b50610212610826565b005b34801561022057600080fd5b506102296108dd565b6040516102369190614151565b60405180910390f35b34801561024b57600080fd5b5061026660048036038101906102619190613b03565b61091a565b6040516102739190614136565b60405180910390f35b34801561028857600080fd5b50610291610a0c565b60405161029e9190614353565b60405180910390f35b3480156102b357600080fd5b506102bc610a16565b005b3480156102ca57600080fd5b506102e560048036038101906102e09190613a78565b610a96565b6040516102f29190614136565b60405180910390f35b34801561030757600080fd5b50610322600480360381019061031d91906139c1565b610ca2565b60405161032f9190614136565b60405180910390f35b34801561034457600080fd5b5061034d610cfb565b60405161035a919061436e565b60405180910390f35b34801561036f57600080fd5b5061038a60048036038101906103859190613bd2565b610d04565b6040516103979190614353565b60405180910390f35b3480156103ac57600080fd5b506103c760048036038101906103c29190613bd2565b610e66565b6040516103d49190614136565b60405180910390f35b3480156103e957600080fd5b506103f2610f87565b6040516103ff9190614353565b60405180910390f35b34801561041457600080fd5b5061042f600480360381019061042a91906139c1565b610f8f565b60405161043c9190614136565b60405180910390f35b34801561045157600080fd5b5061046c60048036038101906104679190613a78565b610fc2565b005b34801561047a57600080fd5b5061049560048036038101906104909190613ac7565b611249565b005b3480156104a357600080fd5b506104be60048036038101906104b99190613b3f565b6112ec565b6040516104cb9190614353565b60405180910390f35b3480156104e057600080fd5b506104e961171f565b6040516104f69190614136565b60405180910390f35b34801561050b57600080fd5b50610526600480360381019061052191906139c1565b611732565b6040516105339190614353565b60405180910390f35b34801561054857600080fd5b50610563600480360381019061055e9190613bd2565b61177b565b005b34801561057157600080fd5b5061057a61181e565b6040516105879190614353565b60405180910390f35b34801561059c57600080fd5b506105a5611826565b6040516105b29190614100565b60405180910390f35b3480156105c757600080fd5b506105d061184f565b6040516105dd9190614151565b60405180910390f35b3480156105f257600080fd5b5061060d60048036038101906106089190613b03565b61188c565b60405161061a9190614136565b60405180910390f35b34801561062f57600080fd5b5061064a600480360381019061064591906139c1565b6118a1565b005b34801561065857600080fd5b50610661611aed565b60405161066e9190614353565b60405180910390f35b34801561068357600080fd5b5061069e60048036038101906106999190613a78565b611af3565b005b3480156106ac57600080fd5b506106c760048036038101906106c291906139c1565b611cbd565b005b3480156106d557600080fd5b506106f060048036038101906106eb9190613bd2565b611d5f565b6040516106fd9190614353565b60405180910390f35b34801561071257600080fd5b5061072d60048036038101906107289190613a3c565b611fe4565b60405161073a9190614353565b60405180910390f35b34801561074f57600080fd5b5061076a60048036038101906107659190613b80565b61206b565b005b34801561077857600080fd5b50610793600480360381019061078e91906139c1565b612107565b005b3480156107a157600080fd5b506107bc60048036038101906107b79190613a13565b6121aa565b005b3480156107ca57600080fd5b506107d36122c3565b6040516107e09190614353565b60405180910390f35b3480156107f557600080fd5b50610810600480360381019061080b91906139c1565b6122ca565b60405161081d9190614136565b60405180910390f35b61082f336122ca565b61086e576040517f08c379a0000000000000000000000000000000000000000000000000000000008152600401610865906142f3565b60405180910390fd5b600e8054806108a6577f4e487b7100000000000000000000000000000000000000000000000000000000600052603160045260246000fd5b6001900381819060005260206000200160006101000a81549073ffffffffffffffffffffffffffffffffffffffff02191690559055565b60606040518060400160405280600481526020017f4149763200000000000000000000000000000000000000000000000000000000815250905090565b600081600660003373ffffffffffffffffffffffffffffffffffffffff1673ffffffffffffffffffffffffffffffffffffffff16815260200190815260200160002060008573ffffffffffffffffffffffffffffffffffffffff1673ffffffffffffffffffffffffffffffffffffffff168152602001908152602001600020819055508273ffffffffffffffffffffffffffffffffffffffff163373ffffffffffffffffffffffffffffffffffffffff167f8c5be1e5ebec7d5bd14f71427d1e84f3dd0314c0f7b2291e5b200ac8c7c3b925846040516109fa9190614353565b60405180910390a36001905092915050565b6000600454905090565b60008054906101000a900473ffffffffffffffffffffffffffffffffffffffff1673ffffffffffffffffffffffffffffffffffffffff166108fc3073ffffffffffffffffffffffffffffffffffffffff16319081150290604051600060405180830381858888f19350505050158015610a93573d6000803e3d6000fd5b50565b60007fffffffffffffffffffffffffffffffffffffffffffffffffffffffffffffffff600660008673ffffffffffffffffffffffffffffffffffffffff1673ffffffffffffffffffffffffffffffffffffffff16815260200190815260200160002060003373ffffffffffffffffffffffffffffffffffffffff1673ffffffffffffffffffffffffffffffffffffffff1681526020019081526020016000205414610c8e5781600660008673ffffffffffffffffffffffffffffffffffffffff1673ffffffffffffffffffffffffffffffffffffffff16815260200190815260200160002060003373ffffffffffffffffffffffffffffffffffffffff1673ffffffffffffffffffffffffffffffffffffffff168152602001908152602001600020541015610bfa576040517f08c379a0000000000000000000000000000000000000000000000000000000008152600401610bf190614173565b60405180910390fd5b81600660008673ffffffffffffffffffffffffffffffffffffffff1673ffffffffffffffffffffffffffffffffffffffff16815260200190815260200160002060003373ffffffffffffffffffffffffffffffffffffffff1673ffffffffffffffffffffffffffffffffffffffff1681526020019081526020016000206000828254610c8691906144e3565b925050819055505b610c99848484612336565b90509392505050565b60008060009054906101000a900473ffffffffffffffffffffffffffffffffffffffff1673ffffffffffffffffffffffffffffffffffffffff168273ffffffffffffffffffffffffffffffffffffffff16149050919050565b60006012905090565b60008073ffffffffffffffffffffffffffffffffffffffff16600f60009054906101000a900473ffffffffffffffffffffffffffffffffffffffff1673ffffffffffffffffffffffffffffffffffffffff16636352211e846040518263ffffffff1660e01b8152600401610d789190614353565b60206040518083038186803b158015610d9057600080fd5b505afa158015610da4573d6000803e3d6000fd5b505050506040513d601f19601f82011682018060405250810190610dc891906139ea565b73ffffffffffffffffffffffffffffffffffffffff161415610e1f576040517f08c379a0000000000000000000000000000000000000000000000000000000008152600401610e16906141f3565b60405180910390fd5b60008060086000858152602001908152602001600020541415610e4657636148c1b5610e5b565b60086000848152602001908152602001600020545b905080915050919050565b6000610eba82600560003373ffffffffffffffffffffffffffffffffffffffff1673ffffffffffffffffffffffffffffffffffffffff168152602001908152602001600020546129db90919063ffffffff16565b600560003373ffffffffffffffffffffffffffffffffffffffff1673ffffffffffffffffffffffffffffffffffffffff16815260200190815260200160002081905550610f12826004546129db90919063ffffffff16565b600481905550600073ffffffffffffffffffffffffffffffffffffffff163373ffffffffffffffffffffffffffffffffffffffff167fddf252ad1be2c89b69c2b068fc378daa952ba7f163c4a11628f55a4df523b3ef84604051610f769190614353565b60405180910390a360019050919050565b636148c1b581565b6000610fbb827fffffffffffffffffffffffffffffffffffffffffffffffffffffffffffffffff61091a565b9050919050565b610fcb33610ca2565b61100a576040517f08c379a000000000000000000000000000000000000000000000000000000000815260040161100190614293565b60405180910390fd5b6000811015801561101c575060c88111155b61105b576040517f08c379a0000000000000000000000000000000000000000000000000000000008152600401611052906141d3565b60405180910390fd5b600073ffffffffffffffffffffffffffffffffffffffff16600960008573ffffffffffffffffffffffffffffffffffffffff1673ffffffffffffffffffffffffffffffffffffffff16815260200190815260200160002060009054906101000a900473ffffffffffffffffffffffffffffffffffffffff1673ffffffffffffffffffffffffffffffffffffffff16141561112a576040517f08c379a000000000000000000000000000000000000000000000000000000000815260040161112190614333565b60405180910390fd5b81600960008573ffffffffffffffffffffffffffffffffffffffff1673ffffffffffffffffffffffffffffffffffffffff16815260200190815260200160002060006101000a81548173ffffffffffffffffffffffffffffffffffffffff021916908373ffffffffffffffffffffffffffffffffffffffff16021790555080600a60008573ffffffffffffffffffffffffffffffffffffffff1673ffffffffffffffffffffffffffffffffffffffff168152602001908152602001600020819055506001600760008473ffffffffffffffffffffffffffffffffffffffff1673ffffffffffffffffffffffffffffffffffffffff16815260200190815260200160002060006101000a81548160ff021916908315150217905550505050565b611252336122ca565b611291576040517f08c379a0000000000000000000000000000000000000000000000000000000008152600401611288906142f3565b60405180910390fd5b80600760008473ffffffffffffffffffffffffffffffffffffffff1673ffffffffffffffffffffffffffffffffffffffff16815260200190815260200160002060006101000a81548160ff0219169083151502179055505050565b6000806000905060005b83518110156116c757600f60009054906101000a900473ffffffffffffffffffffffffffffffffffffffff1673ffffffffffffffffffffffffffffffffffffffff166318160ddd6040518163ffffffff1660e01b815260040160206040518083038186803b15801561136757600080fd5b505afa15801561137b573d6000803e3d6000fd5b505050506040513d601f19601f8201168201806040525081019061139f9190613bfb565b8482815181106113d8577f4e487b7100000000000000000000000000000000000000000000000000000000600052603260045260246000fd5b602002602001015110611420576040517f08c379a0000000000000000000000000000000000000000000000000000000008152600401611417906142b3565b60405180910390fd5b600060018261142f9190614402565b90505b845181101561151157848181518110611474577f4e487b7100000000000000000000000000000000000000000000000000000000600052603260045260246000fd5b60200260200101518583815181106114b5577f4e487b7100000000000000000000000000000000000000000000000000000000600052603260045260246000fd5b602002602001015114156114fe576040517f08c379a00000000000000000000000000000000000000000000000000000000081526004016114f590614213565b60405180910390fd5b8080611509906145e7565b915050611432565b50600084828151811061154d577f4e487b7100000000000000000000000000000000000000000000000000000000600052603260045260246000fd5b602002602001015190503373ffffffffffffffffffffffffffffffffffffffff16600f60009054906101000a900473ffffffffffffffffffffffffffffffffffffffff1673ffffffffffffffffffffffffffffffffffffffff16636352211e836040518263ffffffff1660e01b81526004016115c99190614353565b60206040518083038186803b1580156115e157600080fd5b505afa1580156115f5573d6000803e3d6000fd5b505050506040513d601f19601f8201168201806040525081019061161991906139ea565b73ffffffffffffffffffffffffffffffffffffffff161461166f576040517f08c379a000000000000000000000000000000000000000000000000000000000815260040161166690614233565b60405180910390fd5b600061167a82611d5f565b9050600081146116b257611697818561232090919063ffffffff16565b93504260086000848152602001908152602001600020819055505b505080806116bf906145e7565b9150506112f6565b50600081141561170c576040517f08c379a0000000000000000000000000000000000000000000000000000000008152600401611703906142d3565b60405180910390fd5b61171633826129f1565b80915050919050565b600f60149054906101000a900460ff1681565b6000600560008373ffffffffffffffffffffffffffffffffffffffff1673ffffffffffffffffffffffffffffffffffffffff168152602001908152602001600020549050919050565b61178433610ca2565b6117c3576040517f08c379a00000000000000000000000000000000000000000000000000000000081526004016117ba90614293565b60405180910390fd5b6000811015806117d557506003548111155b611814576040517f08c379a000000000000000000000000000000000000000000000000000000000815260040161180b90614253565b60405180910390fd5b8060028190555050565b6373407f9081565b60008060009054906101000a900473ffffffffffffffffffffffffffffffffffffffff16905090565b60606040518060400160405280600281526020017f4149000000000000000000000000000000000000000000000000000000000000815250905090565b6000611899338484612336565b905092915050565b6118aa33610ca2565b6118e9576040517f08c379a00000000000000000000000000000000000000000000000000000000081526004016118e090614293565b60405180910390fd5b6118f281612b87565b611931576040517f08c379a000000000000000000000000000000000000000000000000000000000815260040161192890614193565b60405180910390fd5b600061194f600161194184612c6f565b6129db90919063ffffffff16565b905060008190505b6001600e8054905061196991906144e3565b811015611a7b57600e6001600e8054905061198491906144e3565b815481106119bb577f4e487b7100000000000000000000000000000000000000000000000000000000600052603260045260246000fd5b9060005260206000200160009054906101000a900473ffffffffffffffffffffffffffffffffffffffff16600e8281548110611a20577f4e487b7100000000000000000000000000000000000000000000000000000000600052603260045260246000fd5b9060005260206000200160006101000a81548173ffffffffffffffffffffffffffffffffffffffff021916908373ffffffffffffffffffffffffffffffffffffffff1602179055508080611a73906145e7565b915050611957565b50600e805480611ab4577f4e487b7100000000000000000000000000000000000000000000000000000000600052603160045260246000fd5b6001900381819060005260206000200160006101000a81549073ffffffffffffffffffffffffffffffffffffffff021916905590555050565b60025481565b611afc336122ca565b611b3b576040517f08c379a0000000000000000000000000000000000000000000000000000000008152600401611b32906142f3565b60405180910390fd5b600e839080600181540180825580915050600190039060005260206000200160009091909190916101000a81548173ffffffffffffffffffffffffffffffffffffffff021916908373ffffffffffffffffffffffffffffffffffffffff16021790555081600960008573ffffffffffffffffffffffffffffffffffffffff1673ffffffffffffffffffffffffffffffffffffffff16815260200190815260200160002060006101000a81548173ffffffffffffffffffffffffffffffffffffffff021916908373ffffffffffffffffffffffffffffffffffffffff16021790555080600a60008573ffffffffffffffffffffffffffffffffffffffff1673ffffffffffffffffffffffffffffffffffffffff168152602001908152602001600020819055506001600760008573ffffffffffffffffffffffffffffffffffffffff1673ffffffffffffffffffffffffffffffffffffffff16815260200190815260200160002060006101000a81548160ff021916908315150217905550505050565b611cc633610ca2565b611d05576040517f08c379a0000000000000000000000000000000000000000000000000000000008152600401611cfc90614293565b60405180910390fd5b60018060008373ffffffffffffffffffffffffffffffffffffffff1673ffffffffffffffffffffffffffffffffffffffff16815260200190815260200160002060006101000a81548160ff02191690831515021790555050565b60008073ffffffffffffffffffffffffffffffffffffffff16600f60009054906101000a900473ffffffffffffffffffffffffffffffffffffffff1673ffffffffffffffffffffffffffffffffffffffff16636352211e846040518263ffffffff1660e01b8152600401611dd39190614353565b60206040518083038186803b158015611deb57600080fd5b505afa158015611dff573d6000803e3d6000fd5b505050506040513d601f19601f82011682018060405250810190611e2391906139ea565b73ffffffffffffffffffffffffffffffffffffffff161415611e7a576040517f08c379a0000000000000000000000000000000000000000000000000000000008152600401611e71906141f3565b60405180910390fd5b600f60009054906101000a900473ffffffffffffffffffffffffffffffffffffffff1673ffffffffffffffffffffffffffffffffffffffff166318160ddd6040518163ffffffff1660e01b815260040160206040518083038186803b158015611ee257600080fd5b505afa158015611ef6573d6000803e3d6000fd5b505050506040513d601f19601f82011682018060405250810190611f1a9190613bfb565b8210611f5b576040517f08c379a0000000000000000000000000000000000000000000000000000000008152600401611f52906142b3565b60405180910390fd5b6000611f6683610d04565b90506373407f908110611f7d576000915050611fdf565b60006373407f904210611f94576373407f90611f96565b425b90506000611fd662015180611fc8600254611fba87876129db90919063ffffffff16565b612d5690919063ffffffff16565b612d6c90919063ffffffff16565b90508093505050505b919050565b6000600660008473ffffffffffffffffffffffffffffffffffffffff1673ffffffffffffffffffffffffffffffffffffffff16815260200190815260200160002060008373ffffffffffffffffffffffffffffffffffffffff1673ffffffffffffffffffffffffffffffffffffffff16815260200190815260200160002054905092915050565b612074336122ca565b6120b3576040517f08c379a00000000000000000000000000000000000000000000000000000000081526004016120aa906142f3565b60405180910390fd5b80600f60146101000a81548160ff0219169083151502179055507f7a29006526059a02f7639403a1d380d26b6cb9952344b8001198c91660fe372b816040516120fc9190614136565b60405180910390a150565b61211033610ca2565b61214f576040517f08c379a000000000000000000000000000000000000000000000000000000000815260040161214690614293565b60405180910390fd5b6000600160008373ffffffffffffffffffffffffffffffffffffffff1673ffffffffffffffffffffffffffffffffffffffff16815260200190815260200160002060006101000a81548160ff02191690831515021790555050565b6121b333610ca2565b6121f2576040517f08c379a00000000000000000000000000000000000000000000000000000000081526004016121e990614293565b60405180910390fd5b806000806101000a81548173ffffffffffffffffffffffffffffffffffffffff021916908373ffffffffffffffffffffffffffffffffffffffff16021790555060018060008373ffffffffffffffffffffffffffffffffffffffff1673ffffffffffffffffffffffffffffffffffffffff16815260200190815260200160002060006101000a81548160ff0219169083151502179055507f04dba622d284ed0014ee4b9a6a68386be1a4c08a4913ae272de89199cc686163816040516122b8919061411b565b60405180910390a150565b6201518081565b6000600160008373ffffffffffffffffffffffffffffffffffffffff1673ffffffffffffffffffffffffffffffffffffffff16815260200190815260200160002060009054906101000a900460ff169050919050565b6000818361232e9190614402565b905092915050565b600080821161234457600080fd5b60006123508585612d82565b905060008073ffffffffffffffffffffffffffffffffffffffff168273ffffffffffffffffffffffffffffffffffffffff16141561238f57600161246d565b600960008373ffffffffffffffffffffffffffffffffffffffff1673ffffffffffffffffffffffffffffffffffffffff16815260200190815260200160002060009054906101000a900473ffffffffffffffffffffffffffffffffffffffff1673ffffffffffffffffffffffffffffffffffffffff1663cc9968996040518163ffffffff1660e01b815260040160206040518083038186803b15801561243457600080fd5b505afa158015612448573d6000803e3d6000fd5b505050506040513d601f19601f8201168201806040525081019061246c9190613ba9565b5b905080806124a75750600073ffffffffffffffffffffffffffffffffffffffff168273ffffffffffffffffffffffffffffffffffffffff16145b156124c0576124b7868686612f6e565b925050506129d4565b600b60008373ffffffffffffffffffffffffffffffffffffffff1673ffffffffffffffffffffffffffffffffffffffff16815260200190815260200160002060009054906101000a900460ff1615801561254557508173ffffffffffffffffffffffffffffffffffffffff168573ffffffffffffffffffffffffffffffffffffffff16145b801561257e5750600073ffffffffffffffffffffffffffffffffffffffff168273ffffffffffffffffffffffffffffffffffffffff1614155b15612715576000600560008873ffffffffffffffffffffffffffffffffffffffff1673ffffffffffffffffffffffffffffffffffffffff16815260200190815260200160002054116125cf57600080fd5b60008054906101000a900473ffffffffffffffffffffffffffffffffffffffff1673ffffffffffffffffffffffffffffffffffffffff168673ffffffffffffffffffffffffffffffffffffffff161461265d576040517f08c379a0000000000000000000000000000000000000000000000000000000008152600401612654906141b3565b60405180910390fd5b600b60008373ffffffffffffffffffffffffffffffffffffffff1673ffffffffffffffffffffffffffffffffffffffff16815260200190815260200160002060009054906101000a900460ff1615600b60008473ffffffffffffffffffffffffffffffffffffffff1673ffffffffffffffffffffffffffffffffffffffff16815260200190815260200160002060006101000a81548160ff02191690831515021790555061270c868686612f6e565b925050506129d4565b600560008773ffffffffffffffffffffffffffffffffffffffff1673ffffffffffffffffffffffffffffffffffffffff16815260200190815260200160002054841115612797576040517f08c379a000000000000000000000000000000000000000000000000000000000815260040161278e90614273565b60405180910390fd5b83600560008873ffffffffffffffffffffffffffffffffffffffff1673ffffffffffffffffffffffffffffffffffffffff16815260200190815260200160002060008282546127e691906144e3565b9250508190555060006127fa87878561310e565b6128045784612810565b61280f8786856133d9565b5b9050600061282782876129db90919063ffffffff16565b905061283284613743565b801561283c575082155b80156128485750600081115b1561291057600960008573ffffffffffffffffffffffffffffffffffffffff1673ffffffffffffffffffffffffffffffffffffffff16815260200190815260200160002060009054906101000a900473ffffffffffffffffffffffffffffffffffffffff1673ffffffffffffffffffffffffffffffffffffffff16631a39150c6040518163ffffffff1660e01b8152600401600060405180830381600087803b1580156128f457600080fd5b505af1925050508015612905575060015b61290e5761290f565b5b5b81600560008973ffffffffffffffffffffffffffffffffffffffff1673ffffffffffffffffffffffffffffffffffffffff168152602001908152602001600020600082825461295f9190614402565b925050819055508673ffffffffffffffffffffffffffffffffffffffff168873ffffffffffffffffffffffffffffffffffffffff167fddf252ad1be2c89b69c2b068fc378daa952ba7f163c4a11628f55a4df523b3ef846040516129c39190614353565b60405180910390a360019450505050505b9392505050565b600081836129e991906144e3565b905092915050565b600073ffffffffffffffffffffffffffffffffffffffff168273ffffffffffffffffffffffffffffffffffffffff161415612a61576040517f08c379a0000000000000000000000000000000000000000000000000000000008152600401612a5890614313565b60405180910390fd5b612a6d60008383613893565b612a828160045461232090919063ffffffff16565b600481905550612ada81600560008573ffffffffffffffffffffffffffffffffffffffff1673ffffffffffffffffffffffffffffffffffffffff1681526020019081526020016000205461232090919063ffffffff16565b600560008473ffffffffffffffffffffffffffffffffffffffff1673ffffffffffffffffffffffffffffffffffffffff168152602001908152602001600020819055508173ffffffffffffffffffffffffffffffffffffffff16600073ffffffffffffffffffffffffffffffffffffffff167fddf252ad1be2c89b69c2b068fc378daa952ba7f163c4a11628f55a4df523b3ef83604051612b7b9190614353565b60405180910390a35050565b600080600e805490501415612b9f5760009050612c6a565b60005b600e80549050811015612c64578273ffffffffffffffffffffffffffffffffffffffff16600e8281548110612c00577f4e487b7100000000000000000000000000000000000000000000000000000000600052603260045260246000fd5b9060005260206000200160009054906101000a900473ffffffffffffffffffffffffffffffffffffffff1673ffffffffffffffffffffffffffffffffffffffff161415612c51576001915050612c6a565b8080612c5c906145e7565b915050612ba2565b50600090505b919050565b600080600090505b600e80549050811015612d4b578273ffffffffffffffffffffffffffffffffffffffff16600e8281548110612cd5577f4e487b7100000000000000000000000000000000000000000000000000000000600052603260045260246000fd5b9060005260206000200160009054906101000a900473ffffffffffffffffffffffffffffffffffffffff1673ffffffffffffffffffffffffffffffffffffffff161415612d3857612d3060018261232090919063ffffffff16565b915050612d51565b8080612d43906145e7565b915050612c77565b50600090505b919050565b60008183612d649190614489565b905092915050565b60008183612d7a9190614458565b905092915050565b600080600e805480602002602001604051908101604052809291908181526020018280548015612e0757602002820191906000526020600020905b8160009054906101000a900473ffffffffffffffffffffffffffffffffffffffff1673ffffffffffffffffffffffffffffffffffffffff1681526020019060010190808311612dbd575b5050505050905060005b8151811015612f6157818181518110612e53577f4e487b7100000000000000000000000000000000000000000000000000000000600052603260045260246000fd5b602002602001015173ffffffffffffffffffffffffffffffffffffffff168573ffffffffffffffffffffffffffffffffffffffff161480612eff5750818181518110612ec8577f4e487b7100000000000000000000000000000000000000000000000000000000600052603260045260246000fd5b602002602001015173ffffffffffffffffffffffffffffffffffffffff168473ffffffffffffffffffffffffffffffffffffffff16145b15612f4e57818181518110612f3d577f4e487b7100000000000000000000000000000000000000000000000000000000600052603260045260246000fd5b602002602001015192505050612f68565b8080612f59906145e7565b915050612e11565b5060009150505b92915050565b6000600560008573ffffffffffffffffffffffffffffffffffffffff1673ffffffffffffffffffffffffffffffffffffffff16815260200190815260200160002054821115612ff2576040517f08c379a0000000000000000000000000000000000000000000000000000000008152600401612fe990614273565b60405180910390fd5b81600560008673ffffffffffffffffffffffffffffffffffffffff1673ffffffffffffffffffffffffffffffffffffffff168152602001908152602001600020600082825461304191906144e3565b9250508190555081600560008573ffffffffffffffffffffffffffffffffffffffff1673ffffffffffffffffffffffffffffffffffffffff16815260200190815260200160002060008282546130979190614402565b925050819055508273ffffffffffffffffffffffffffffffffffffffff168473ffffffffffffffffffffffffffffffffffffffff167fddf252ad1be2c89b69c2b068fc378daa952ba7f163c4a11628f55a4df523b3ef846040516130fb9190614353565b60405180910390a3600190509392505050565b6000600760008573ffffffffffffffffffffffffffffffffffffffff1673ffffffffffffffffffffffffffffffffffffffff16815260200190815260200160002060009054906101000a900460ff16806131b15750600760008473ffffffffffffffffffffffffffffffffffffffff1673ffffffffffffffffffffffffffffffffffffffff16815260200190815260200160002060009054906101000a900460ff165b806132065750600b60008373ffffffffffffffffffffffffffffffffffffffff1673ffffffffffffffffffffffffffffffffffffffff16815260200190815260200160002060009054906101000a900460ff16155b8061321e5750600f60149054906101000a900460ff16155b1561322c57600090506133d2565b6000600e8054806020026020016040519081016040528092919081815260200182805480156132b057602002820191906000526020600020905b8160009054906101000a900473ffffffffffffffffffffffffffffffffffffffff1673ffffffffffffffffffffffffffffffffffffffff1681526020019060010190808311613266575b5050505050905060005b81518110156133cb578181815181106132fc577f4e487b7100000000000000000000000000000000000000000000000000000000600052603260045260246000fd5b602002602001015173ffffffffffffffffffffffffffffffffffffffff168673ffffffffffffffffffffffffffffffffffffffff1614806133a85750818181518110613371577f4e487b7100000000000000000000000000000000000000000000000000000000600052603260045260246000fd5b602002602001015173ffffffffffffffffffffffffffffffffffffffff168573ffffffffffffffffffffffffffffffffffffffff16145b156133b8576001925050506133d2565b80806133c3906145e7565b9150506132ba565b5060009150505b9392505050565b6000600b60008373ffffffffffffffffffffffffffffffffffffffff1673ffffffffffffffffffffffffffffffffffffffff16815260200190815260200160002060009054906101000a900460ff166134345782905061373c565b600080600a60008573ffffffffffffffffffffffffffffffffffffffff1673ffffffffffffffffffffffffffffffffffffffff16815260200190815260200160002054111561372c576134e3600c546134d5600a60008773ffffffffffffffffffffffffffffffffffffffff1673ffffffffffffffffffffffffffffffffffffffff1681526020019081526020016000205487612d5690919063ffffffff16565b612d6c90919063ffffffff16565b90508060056000600960008773ffffffffffffffffffffffffffffffffffffffff1673ffffffffffffffffffffffffffffffffffffffff16815260200190815260200160002060009054906101000a900473ffffffffffffffffffffffffffffffffffffffff1673ffffffffffffffffffffffffffffffffffffffff1673ffffffffffffffffffffffffffffffffffffffff16815260200190815260200160002060008282546135939190614402565b92505081905550600960008473ffffffffffffffffffffffffffffffffffffffff1673ffffffffffffffffffffffffffffffffffffffff16815260200190815260200160002060009054906101000a900473ffffffffffffffffffffffffffffffffffffffff1673ffffffffffffffffffffffffffffffffffffffff168573ffffffffffffffffffffffffffffffffffffffff167fddf252ad1be2c89b69c2b068fc378daa952ba7f163c4a11628f55a4df523b3ef836040516136569190614353565b60405180910390a3600960008473ffffffffffffffffffffffffffffffffffffffff1673ffffffffffffffffffffffffffffffffffffffff16815260200190815260200160002060009054906101000a900473ffffffffffffffffffffffffffffffffffffffff1673ffffffffffffffffffffffffffffffffffffffff166343e9618c826040518263ffffffff1660e01b81526004016136f69190614353565b600060405180830381600087803b15801561371057600080fd5b505af1925050508015613721575060015b61372a5761372b565b5b5b808461373891906144e3565b9150505b9392505050565b6000600b60008373ffffffffffffffffffffffffffffffffffffffff1673ffffffffffffffffffffffffffffffffffffffff16815260200190815260200160002060009054906101000a900460ff1680156137ca57508173ffffffffffffffffffffffffffffffffffffffff163373ffffffffffffffffffffffffffffffffffffffff1614155b80156137e25750600f60149054906101000a900460ff165b801561388c5750600060056000600960008673ffffffffffffffffffffffffffffffffffffffff1673ffffffffffffffffffffffffffffffffffffffff16815260200190815260200160002060009054906101000a900473ffffffffffffffffffffffffffffffffffffffff1673ffffffffffffffffffffffffffffffffffffffff1673ffffffffffffffffffffffffffffffffffffffff16815260200190815260200160002054115b9050919050565b505050565b60006138ab6138a6846143ba565b614389565b905080838252602082019050828560208602820111156138ca57600080fd5b60005b858110156138fa57816138e08882613997565b8452602084019350602083019250506001810190506138cd565b5050509392505050565b600081359050613913816146ce565b92915050565b600081519050613928816146ce565b92915050565b60008135905061393d816146e5565b92915050565b600082601f83011261395457600080fd5b8135613964848260208601613898565b91505092915050565b60008135905061397c816146fc565b92915050565b600081519050613991816146fc565b92915050565b6000813590506139a681614713565b92915050565b6000815190506139bb81614713565b92915050565b6000602082840312156139d357600080fd5b60006139e184828501613904565b91505092915050565b6000602082840312156139fc57600080fd5b6000613a0a84828501613919565b91505092915050565b600060208284031215613a2557600080fd5b6000613a338482850161392e565b91505092915050565b60008060408385031215613a4f57600080fd5b6000613a5d85828601613904565b9250506020613a6e85828601613904565b9150509250929050565b600080600060608486031215613a8d57600080fd5b6000613a9b86828701613904565b9350506020613aac86828701613904565b9250506040613abd86828701613997565b9150509250925092565b60008060408385031215613ada57600080fd5b6000613ae885828601613904565b9250506020613af98582860161396d565b9150509250929050565b60008060408385031215613b1657600080fd5b6000613b2485828601613904565b9250506020613b3585828601613997565b9150509250929050565b600060208284031215613b5157600080fd5b600082013567ffffffffffffffff811115613b6b57600080fd5b613b7784828501613943565b91505092915050565b600060208284031215613b9257600080fd5b6000613ba08482850161396d565b91505092915050565b600060208284031215613bbb57600080fd5b6000613bc984828501613982565b91505092915050565b600060208284031215613be457600080fd5b6000613bf284828501613997565b91505092915050565b600060208284031215613c0d57600080fd5b6000613c1b848285016139ac565b91505092915050565b613c2d8161457e565b82525050565b613c3c81614517565b82525050565b613c4b8161453b565b82525050565b6000613c5c826143e6565b613c6681856143f1565b9350613c768185602086016145b4565b613c7f816146bd565b840191505092915050565b6000613c976016836143f1565b91507f496e73756666696369656e7420416c6c6f77616e6365000000000000000000006000830152602082019050919050565b6000613cd7602a836143f1565b91507f546865206164647265737320796f752074727920746f2072656d6f766520646f60008301527f65736e74206578697374000000000000000000000000000000000000000000006020830152604082019050919050565b6000613d3d6031836143f1565b91507f4f6e6c7920746865206f776e65722063616e206265207468652066697273742060008301527f746f20616464206c69717569646974792e0000000000000000000000000000006020830152604082019050919050565b6000613da36022836143f1565b91507f50726f766964652076616c696420746178206265747765656e203120616e642060008301527f32300000000000000000000000000000000000000000000000000000000000006020830152604082019050919050565b6000613e096019836143f1565b91507f4f776e65722063616e6e6f7420626520302061646472657373000000000000006000830152602082019050919050565b6000613e496015836143f1565b91507f4475706c696361746520746f6b656e20696e64657800000000000000000000006000830152602082019050919050565b6000613e896017836143f1565b91507f53656e646572206973206e6f7420746865206f776e65720000000000000000006000830152602082019050919050565b6000613ec96018836143f1565b91507f696e76616c696420656d697373696f6e207065722064617900000000000000006000830152602082019050919050565b6000613f096014836143f1565b91507f496e73756666696369656e742042616c616e63650000000000000000000000006000830152602082019050919050565b6000613f496006836143f1565b91507f214f574e455200000000000000000000000000000000000000000000000000006000830152602082019050919050565b6000613f896023836143f1565b91507f414920617420696e64657820686173206e6f74206265656e206d696e7465642060008301527f79657400000000000000000000000000000000000000000000000000000000006020830152604082019050919050565b6000613fef6011836143f1565b91507f4e6f20616363756d756c617465642041490000000000000000000000000000006000830152602082019050919050565b600061402f600b836143f1565b91507f21415554484f52495a45440000000000000000000000000000000000000000006000830152602082019050919050565b600061406f601f836143f1565b91507f45524332303a206d696e7420746f20746865207a65726f2061646472657373006000830152602082019050919050565b60006140af601a836143f1565b91507f5472616465206164647265737320646f65736e742065786973740000000000006000830152602082019050919050565b6140eb81614567565b82525050565b6140fa81614571565b82525050565b60006020820190506141156000830184613c33565b92915050565b60006020820190506141306000830184613c24565b92915050565b600060208201905061414b6000830184613c42565b92915050565b6000602082019050818103600083015261416b8184613c51565b905092915050565b6000602082019050818103600083015261418c81613c8a565b9050919050565b600060208201905081810360008301526141ac81613cca565b9050919050565b600060208201905081810360008301526141cc81613d30565b9050919050565b600060208201905081810360008301526141ec81613d96565b9050919050565b6000602082019050818103600083015261420c81613dfc565b9050919050565b6000602082019050818103600083015261422c81613e3c565b9050919050565b6000602082019050818103600083015261424c81613e7c565b9050919050565b6000602082019050818103600083015261426c81613ebc565b9050919050565b6000602082019050818103600083015261428c81613efc565b9050919050565b600060208201905081810360008301526142ac81613f3c565b9050919050565b600060208201905081810360008301526142cc81613f7c565b9050919050565b600060208201905081810360008301526142ec81613fe2565b9050919050565b6000602082019050818103600083015261430c81614022565b9050919050565b6000602082019050818103600083015261432c81614062565b9050919050565b6000602082019050818103600083015261434c816140a2565b9050919050565b600060208201905061436860008301846140e2565b92915050565b600060208201905061438360008301846140f1565b92915050565b6000604051905081810181811067ffffffffffffffff821117156143b0576143af61468e565b5b8060405250919050565b600067ffffffffffffffff8211156143d5576143d461468e565b5b602082029050602081019050919050565b600081519050919050565b600082825260208201905092915050565b600061440d82614567565b915061441883614567565b9250827fffffffffffffffffffffffffffffffffffffffffffffffffffffffffffffffff0382111561444d5761444c614630565b5b828201905092915050565b600061446382614567565b915061446e83614567565b92508261447e5761447d61465f565b5b828204905092915050565b600061449482614567565b915061449f83614567565b9250817fffffffffffffffffffffffffffffffffffffffffffffffffffffffffffffffff04831182151516156144d8576144d7614630565b5b828202905092915050565b60006144ee82614567565b91506144f983614567565b92508282101561450c5761450b614630565b5b828203905092915050565b600061452282614547565b9050919050565b600061453482614547565b9050919050565b60008115159050919050565b600073ffffffffffffffffffffffffffffffffffffffff82169050919050565b6000819050919050565b600060ff82169050919050565b600061458982614590565b9050919050565b600061459b826145a2565b9050919050565b60006145ad82614547565b9050919050565b60005b838110156145d25780820151818401526020810190506145b7565b838111156145e1576000848401525b50505050565b60006145f282614567565b91507fffffffffffffffffffffffffffffffffffffffffffffffffffffffffffffffff82141561462557614624614630565b5b600182019050919050565b7f4e487b7100000000000000000000000000000000000000000000000000000000600052601160045260246000fd5b7f4e487b7100000000000000000000000000000000000000000000000000000000600052601260045260246000fd5b7f4e487b7100000000000000000000000000000000000000000000000000000000600052604160045260246000fd5b6000601f19601f8301169050919050565b6146d781614517565b81146146e257600080fd5b50565b6146ee81614529565b81146146f957600080fd5b50565b6147058161453b565b811461471057600080fd5b50565b61471c81614567565b811461472757600080fd5b5056fea264697066735822122072b43ebfa4d0e658a9dfccb101eb50b356c86b0df38690ceabc7097db6b36df864736f6c63430008000033",
  "immutableReferences": {},
  "source": "// SPDX-License-Identifier: MIT\npragma solidity >=0.8.0 <0.9.0;\n\nimport \"./Auth.sol\";\nimport \"./IBEP20.sol\";\nimport \"./SafeMath.sol\";\nimport \"./IERC721Enumerable.sol\";\n\ninterface INeuralPepe is IERC721Enumerable {\n    function isMintedBeforeReveal(uint256 index) external view returns (bool);\n}\n\ninterface IAiRouter {\n  function distributeTax(uint256 taxAmount) external;\n  function isInSwap() external view returns (bool);\n  function supportsDistribureFunction() external pure returns (bool);\n  function authorize(address adr) external;\n  function liquifyBack() external;\n}\n\ncontract AI is IBEP20, Auth {\n  using SafeMath for uint256;\n\n\tstring constant _name = \"AIv2\";\n  string constant _symbol = \"AI\";\n  uint8 constant _decimals = 18;\n\n  // Constants\n  uint256 public constant SECONDS_IN_A_DAY = 86400;\n  uint256 public constant emissionEnd = 1933606800;\n  uint256 public constant aiSnapshot = 1632158133;\n\n  // Public variables\n  uint256 public emissionPerDay = 2300000000000000000;\n  uint256 private MAX_EMISSION_PER_DAY = 10000000000000000000;\n  uint256 private _totalSupply;\n\n\tmapping (address => uint256) _balances;\n  mapping (address => mapping (address => uint256)) _allowances;\n  mapping (address => bool) isFeeExempt;\n  mapping(uint256 => uint256) private _lastClaim;\n  mapping (address => address) private _taxAddresses;\n  mapping (address => uint256) private _taxAmount;\n  mapping (address => bool) private _isLaunched;\n\n  // Fees. Some may be completely inactive at all times.\n  uint256 feeDenominator = 1000;\n\n  address private _pepeAddress = 0xa16b13cdFee9a134d17957Bef09dC3B5a4FddC1B;\n  address[] private pairs; \n  INeuralPepe private PEPE = INeuralPepe(_pepeAddress);\n\n  bool public swapEnabled = true;\n\n  event TaxCollectionEnabled(bool enabledOrNot);\n\n\tconstructor(uint256 valueToMint) Auth(msg.sender) {\n    isFeeExempt[msg.sender] = true;\n    isFeeExempt[address(this)] = true;\n    \n\t\t_mint(owner, valueToMint);\n\t}\n\n\treceive() external payable {}\n\n  function totalSupply() external view override returns (uint256) { return _totalSupply; }\n  function decimals() external pure override returns (uint8) { return _decimals; }\n  function symbol() external pure override returns (string memory) { return _symbol; }\n  function name() external pure override returns (string memory) { return _name; }\n  function getOwner() external view override returns (address) { return owner; }\n  function balanceOf(address account) public view override returns (uint256) { return _balances[account]; }\n  function burn(uint256 burnQuantity) public override returns (bool) {\n      _balances[msg.sender] = _balances[msg.sender].sub(burnQuantity);\n      _totalSupply = _totalSupply.sub(burnQuantity);\n      emit Transfer(msg.sender, address(0), burnQuantity);\n      return true;\n  }\n  function _beforeTokenTransfer(address from, address to, uint256 amount) internal virtual { }\n  function _mint(address account, uint256 amount) internal virtual {\n    require(account != address(0), \"ERC20: mint to the zero address\");\n\n    _beforeTokenTransfer(address(0), account, amount);\n\n    _totalSupply = _totalSupply.add(amount);\n    _balances[account] = _balances[account].add(amount);\n    emit Transfer(address(0), account, amount);\n    }\n  function allowance(address holder, address spender) external view override returns (uint256) { return _allowances[holder][spender]; }\n  function approve(address spender, uint256 amount) public override returns (bool) {\n      _allowances[msg.sender][spender] = amount;\n      emit Approval(msg.sender, spender, amount);\n      return true;\n  }\n  function approveMax(address spender) external returns (bool) { return approve(spender, type(uint256).max); }\n  function transfer(address recipient, uint256 amount) external override returns (bool) { return _transferFrom(msg.sender, recipient, amount); }\n\tfunction transferFrom(address sender, address recipient, uint256 amount) external override returns (bool) {\n    if (_allowances[sender][msg.sender] != type(uint256).max) {\n      require(_allowances[sender][msg.sender] >= amount, \"Insufficient Allowance\");\n      _allowances[sender][msg.sender] -= amount;\n    }\n    return _transferFrom(sender, recipient, amount);\n  }\n\tfunction _basicTransfer(address sender, address recipient, uint256 amount) internal  returns (bool) {\n\t\trequire(amount <= _balances[sender], \"Insufficient Balance\");\n        _balances[sender] -= amount;\n        _balances[recipient] += amount;\n        emit Transfer(sender, recipient, amount);\n        return true;\n  }\n  // function basicTransfer(address recipient, uint256 amount) external override returns (bool) { return _basicTransfer(msg.sender, recipient, amount); }\n\n\tfunction _transferFrom(address sender, address recipient, uint256 amount) internal returns (bool) {\n\t\trequire(amount > 0);\n    address tradeAddress = returnTradeAddress(sender, recipient);\n    bool isInSwap = tradeAddress != address(0) ? IAiRouter(_taxAddresses[tradeAddress]).isInSwap() : true;\n\n    if (isInSwap || tradeAddress == address(0)) {\n      return _basicTransfer(sender, recipient, amount);\n    }\n\n    // activates the liquidity on DEX\n    if (!_isLaunched[tradeAddress] && recipient == tradeAddress && tradeAddress != address(0)) {\n        require(_balances[sender] > 0);\n        require(sender == owner, \"Only the owner can be the first to add liquidity.\");\n        _isLaunched[tradeAddress] = !_isLaunched[tradeAddress];\n        \n        return _basicTransfer(sender, recipient, amount);\n    }\n\n    require(amount <= _balances[sender], \"Insufficient Balance\");\n    _balances[sender] -= amount;\n\n    // checks whether it needs to take a fee and takes it before transferring to the \n    uint256 amountReceived = shouldTakeFee(sender, recipient, tradeAddress) ? takeFee(sender, amount, tradeAddress) : amount;\n    uint256 tax = amount.sub(amountReceived);\n\n    if (shouldSwapBack(tradeAddress) && !isInSwap && tax > 0) {\n      try IAiRouter(_taxAddresses[tradeAddress]).liquifyBack() {} catch {}\n    }\n\n    _balances[recipient] += amountReceived;\n    emit Transfer(sender, recipient, amountReceived);\n    return true;\n  }\n  \n  function returnTradeAddress(address sender, address recipient) internal view returns (address) {\n    address[] memory liqPairs = pairs;\n    for (uint256 i = 0; i < liqPairs.length; i++) {\n      if (sender == liqPairs[i] || recipient == liqPairs[i]) {\n        return liqPairs[i];\n      }\n    }\n    return address(0);\n  }\n\n\t// Decides whether this trade should take a fee.\n\t// Trades with pairs are always taxed, unless sender or receiver is exempted.\n\t// Non trades, like wallet to wallet, are configured, untaxed by default.\n\tfunction shouldTakeFee(address sender, address recipient, address tradeAddress) internal view returns (bool) {\n    if (isFeeExempt[sender] || isFeeExempt[recipient] || !_isLaunched[tradeAddress] || !swapEnabled) {\n\t\t\treturn false;\n\t\t}\n\n    address[] memory liqPairs = pairs;\n    for (uint256 i = 0; i < liqPairs.length; i++) {\n        if (sender == liqPairs[i] || recipient == liqPairs[i]) {\n        return true;\n      }\n    }\n\n    return false;\n    }\n\n\tfunction takeFee(address sender, uint256 amount, address tradeAddress) internal returns (uint256) {\n\t\tif (!_isLaunched[tradeAddress]) { return amount; }\n\n\t\tuint256 liqFee = 0;\n    \n    // If there is a liquidity tax active for autoliq, the contract keeps it.\n    if (_taxAmount[tradeAddress] > 0) {\n      liqFee = amount.mul(_taxAmount[tradeAddress]).div(feeDenominator);\n      _balances[_taxAddresses[tradeAddress]] += liqFee;\n      emit Transfer(sender, _taxAddresses[tradeAddress], liqFee);\n\n      try IAiRouter(_taxAddresses[tradeAddress]).distributeTax(liqFee) {} catch {}\n    }\n\n    return amount - liqFee;\n  }\n\n  function shouldSwapBack(address tradeAddress) internal view returns (bool) {\n      return _isLaunched[tradeAddress]\n          && msg.sender != tradeAddress\n          && swapEnabled\n          && _balances[_taxAddresses[tradeAddress]] > 0;\n  }\n\n\tfunction setSwapEnabled(bool set) external authorized {\n\t\tswapEnabled = set;\n\t\temit TaxCollectionEnabled(set);\n\t}\n\n  function setIsFeeExempt(address holder, bool exempt) external authorized {\n      isFeeExempt[holder] = exempt;\n  }\n\n\t// Recover any BNB sent to the contract by mistake.\n\tfunction rescue() external {\n    payable(owner).transfer(address(this).balance);\n  }\n\n\tfunction addPair(address pair, address taxAddress, uint256 _newTaxAmount) external authorized {\n    pairs.push(pair);\n    _taxAddresses[pair] = taxAddress;\n    _taxAmount[pair] = _newTaxAmount;\n    isFeeExempt[pair] = true;\n  }\n    \n  function removeLastPair() external authorized {\n      pairs.pop();\n  }\n\n  /**\n    * @dev Only owner can call this function. Remove taxable address.\n  */\n  function removePair(address pairAddressToRemove) public onlyOwner {\n    require(_isTradeAddressExists(pairAddressToRemove), 'The address you try to remove doesnt exist');\n    uint addressIndex = _getAddressIndex(pairAddressToRemove).sub(1);\n\n    for (uint i = addressIndex; i < pairs.length - 1; i++) {\n      pairs[i] = pairs[pairs.length - 1];\n    }\n    pairs.pop();\n  }\n\n    /**\n    * @dev Internal functions.\n    */\n  function _isTradeAddressExists(address tradeAddress) private view returns (bool) {\n    if (pairs.length == 0) { return false; }\n    for(uint i = 0; i < pairs.length; i++) {\n      if (pairs[i] == tradeAddress) {\n        return true;\n      }\n    }\n    return false;\n  }\n\n  function _getAddressIndex(address tradeAddress) private view returns (uint) {\n    for(uint i = 0; i < pairs.length; i++) {\n      if (pairs[i] == tradeAddress) {\n        return i.add(1);\n      }\n    }\n    return 0;\n  }\n\n\n  /**\n  * @dev When accumulated AIs have last been claimed for a Neural Pepe index\n  */\n  function lastClaim(uint256 tokenIndex) public view returns (uint256) {\n      require(PEPE.ownerOf(tokenIndex) != address(0), \"Owner cannot be 0 address\");\n      \n      uint256 lastClaimed = uint256(_lastClaim[tokenIndex]) != 0 ? uint256(_lastClaim[tokenIndex]) : aiSnapshot;\n      return lastClaimed;\n  }\n\n  /**\n    * @dev Accumulated AI tokens for a Neural Pepe token index.\n    */\n  function accumulated(uint256 tokenIndex) public view returns (uint256) {\n      require(PEPE.ownerOf(tokenIndex) != address(0), \"Owner cannot be 0 address\");\n      require(tokenIndex < PEPE.totalSupply(), \"AI at index has not been minted yet\");\n\n      uint256 lastClaimed = lastClaim(tokenIndex);\n\n      // Sanity check if last claim was on or after emission end\n      if (lastClaimed >= emissionEnd) return 0;\n\n      uint256 accumulationPeriod = block.timestamp < emissionEnd ? block.timestamp : emissionEnd; // Getting the min value of both\n      uint256 totalAccumulated = accumulationPeriod.sub(lastClaimed).mul(emissionPerDay).div(SECONDS_IN_A_DAY);\n\n      return totalAccumulated;\n  }\n\n  /**\n    * @dev Claim mints AIs and supports multiple Neural Pepe token indices at once.\n    */\n  function claim(uint256[] memory tokenIndices) public returns (uint256) {\n      uint256 totalClaimQty = 0;\n      for (uint i = 0; i < tokenIndices.length; i++) {\n          // Sanity check for non-minted index\n          require(tokenIndices[i] < PEPE.totalSupply(), \"AI at index has not been minted yet\");\n          // Duplicate token index check\n          for (uint j = i + 1; j < tokenIndices.length; j++) {\n              require(tokenIndices[i] != tokenIndices[j], \"Duplicate token index\");\n          }\n\n          uint tokenIndex = tokenIndices[i];\n          require(PEPE.ownerOf(tokenIndex) == msg.sender, \"Sender is not the owner\");\n\n          uint256 claimQty = accumulated(tokenIndex);\n          if (claimQty != 0) {\n              totalClaimQty = totalClaimQty.add(claimQty);\n              _lastClaim[tokenIndex] = block.timestamp;\n          }\n      }\n\n      require(totalClaimQty != 0, \"No accumulated AI\");\n      _mint(msg.sender, totalClaimQty);\n      return totalClaimQty;\n  }\n\n  /**\n    * @dev Only owner can call this function. Change AI emission per day.\n    */\n  function changeEmissionPerDay(uint256 _newEmissionPerDay) public onlyOwner {\n    require(_newEmissionPerDay >= 0 || _newEmissionPerDay <= MAX_EMISSION_PER_DAY, 'invalid emission per day');\n    emissionPerDay = _newEmissionPerDay;\n  }\n\n\n  /**\n  * @dev Only owner can call this function. Tax amount, can be between 1 and 20.\n  */\n  function changeTaxAddressAndAmount(address tradeAddress, address taxAddress, uint256 _newTaxAmount) public onlyOwner {\n    require(_newTaxAmount >= 0 && _newTaxAmount <= 200, 'Provide valid tax between 1 and 20');\n    require(_taxAddresses[tradeAddress] != address(0), 'Trade address doesnt exist');\n\n    _taxAddresses[tradeAddress] = taxAddress;\n    _taxAmount[tradeAddress] = _newTaxAmount;\n    isFeeExempt[taxAddress] = true;\n  }\n\n}",
  "sourcePath": "/Users/viktor/Documents/Projects/solidity/hibiki/src/contracts/AI.sol",
  "compiler": {
    "name": "solc",
    "version": "0.8.0+commit.c7dfd78e.Emscripten.clang"
  },
  "schemaVersion": "3.4.1",
  "updatedAt": "2021-10-19T10:43:39.976Z",
  "networkType": "ethereum",
  "devdoc": {
    "kind": "dev",
    "methods": {
      "accumulated(uint256)": {
        "details": "Accumulated AI tokens for a Neural Pepe token index."
      },
      "approve(address,uint256)": {
        "details": "Sets `amount` as the allowance of `spender` over the caller's tokens. Returns a boolean value indicating whether the operation succeeded. IMPORTANT: Beware that changing an allowance with this method brings the risk that someone may use both the old and the new allowance by unfortunate transaction ordering. One possible solution to mitigate this race condition is to first reduce the spender's allowance to 0 and set the desired value afterwards: https://github.com/ethereum/EIPs/issues/20#issuecomment-263524729 Emits an {Approval} event."
      },
      "balanceOf(address)": {
        "details": "Returns the amount of tokens owned by `account`."
      },
      "changeEmissionPerDay(uint256)": {
        "details": "Only owner can call this function. Change AI emission per day."
      },
      "changeTaxAddressAndAmount(address,address,uint256)": {
        "details": "Only owner can call this function. Tax amount, can be between 1 and 20."
      },
      "claim(uint256[])": {
        "details": "Claim mints AIs and supports multiple Neural Pepe token indices at once."
      },
      "decimals()": {
        "details": "Returns the token decimals."
      },
      "getOwner()": {
        "details": "Returns the bep token owner."
      },
      "lastClaim(uint256)": {
        "details": "When accumulated AIs have last been claimed for a Neural Pepe index"
      },
      "name()": {
        "details": "Returns the token name."
      },
      "removePair(address)": {
        "details": "Only owner can call this function. Remove taxable address."
      },
      "symbol()": {
        "details": "Returns the token symbol."
      },
      "totalSupply()": {
        "details": "Returns the amount of tokens in existence."
      },
      "transfer(address,uint256)": {
        "details": "Moves `amount` tokens from the caller's account to `recipient`. Returns a boolean value indicating whether the operation succeeded. Emits a {Transfer} event."
      },
      "transferFrom(address,address,uint256)": {
        "details": "Moves `amount` tokens from `sender` to `recipient` using the allowance mechanism. `amount` is then deducted from the caller's allowance. Returns a boolean value indicating whether the operation succeeded. Emits a {Transfer} event."
      }
    },
    "version": 1
  },
  "userdoc": {
    "kind": "user",
    "methods": {
      "authorize(address)": {
        "notice": "Authorize address. Owner only"
      },
      "isAuthorized(address)": {
        "notice": "Return address' authorization status"
      },
      "isOwner(address)": {
        "notice": "Check if address is owner"
      },
      "transferOwnership(address)": {
        "notice": "Transfer ownership to new address. Caller must be owner. Leaves old owner authorized"
      },
      "unauthorize(address)": {
        "notice": "Remove address' authorization. Owner only"
      }
    },
    "version": 1
  }
}