{
  "contractName": "AI",
  "abi": [
    {
      "inputs": [],
      "stateMutability": "nonpayable",
      "type": "constructor"
    },
    {
      "anonymous": false,
      "inputs": [
        {
          "indexed": true,
          "internalType": "address",
          "name": "owner",
          "type": "address"
        },
        {
          "indexed": true,
          "internalType": "address",
          "name": "spender",
          "type": "address"
        },
        {
          "indexed": false,
          "internalType": "uint256",
          "name": "value",
          "type": "uint256"
        }
      ],
      "name": "Approval",
      "type": "event"
    },
    {
      "anonymous": false,
      "inputs": [
        {
          "indexed": false,
          "internalType": "bool",
          "name": "enabledOrNot",
          "type": "bool"
        }
      ],
      "name": "AutoLiquifyEnabled",
      "type": "event"
    },
    {
      "anonymous": false,
      "inputs": [
        {
          "indexed": false,
          "internalType": "address",
          "name": "owner",
          "type": "address"
        }
      ],
      "name": "OwnershipTransferred",
      "type": "event"
    },
    {
      "anonymous": false,
      "inputs": [
        {
          "indexed": true,
          "internalType": "address",
          "name": "from",
          "type": "address"
        },
        {
          "indexed": true,
          "internalType": "address",
          "name": "to",
          "type": "address"
        },
        {
          "indexed": false,
          "internalType": "uint256",
          "name": "value",
          "type": "uint256"
        }
      ],
      "name": "Transfer",
      "type": "event"
    },
    {
      "inputs": [],
      "name": "_maxTxAmount",
      "outputs": [
        {
          "internalType": "uint256",
          "name": "",
          "type": "uint256"
        }
      ],
      "stateMutability": "view",
      "type": "function",
      "constant": true
    },
    {
      "inputs": [],
      "name": "_maxWalletAmount",
      "outputs": [
        {
          "internalType": "uint256",
          "name": "",
          "type": "uint256"
        }
      ],
      "stateMutability": "view",
      "type": "function",
      "constant": true
    },
    {
      "inputs": [
        {
          "internalType": "address",
          "name": "adr",
          "type": "address"
        }
      ],
      "name": "authorize",
      "outputs": [],
      "stateMutability": "nonpayable",
      "type": "function"
    },
    {
      "inputs": [],
      "name": "autoLiquidityReceiver",
      "outputs": [
        {
          "internalType": "address",
          "name": "",
          "type": "address"
        }
      ],
      "stateMutability": "view",
      "type": "function",
      "constant": true
    },
    {
      "inputs": [],
      "name": "feeOnNonTrade",
      "outputs": [
        {
          "internalType": "bool",
          "name": "",
          "type": "bool"
        }
      ],
      "stateMutability": "view",
      "type": "function",
      "constant": true
    },
    {
      "inputs": [
        {
          "internalType": "address",
          "name": "adr",
          "type": "address"
        }
      ],
      "name": "isAuthorized",
      "outputs": [
        {
          "internalType": "bool",
          "name": "",
          "type": "bool"
        }
      ],
      "stateMutability": "view",
      "type": "function",
      "constant": true
    },
    {
      "inputs": [
        {
          "internalType": "address",
          "name": "account",
          "type": "address"
        }
      ],
      "name": "isOwner",
      "outputs": [
        {
          "internalType": "bool",
          "name": "",
          "type": "bool"
        }
      ],
      "stateMutability": "view",
      "type": "function",
      "constant": true
    },
    {
      "inputs": [
        {
          "internalType": "uint256",
          "name": "",
          "type": "uint256"
        }
      ],
      "name": "pairs",
      "outputs": [
        {
          "internalType": "address",
          "name": "",
          "type": "address"
        }
      ],
      "stateMutability": "view",
      "type": "function",
      "constant": true
    },
    {
      "inputs": [],
      "name": "router",
      "outputs": [
        {
          "internalType": "contract IDexRouter",
          "name": "",
          "type": "address"
        }
      ],
      "stateMutability": "view",
      "type": "function",
      "constant": true
    },
    {
      "inputs": [],
      "name": "swapEnabled",
      "outputs": [
        {
          "internalType": "bool",
          "name": "",
          "type": "bool"
        }
      ],
      "stateMutability": "view",
      "type": "function",
      "constant": true
    },
    {
      "inputs": [],
      "name": "swapThreshold",
      "outputs": [
        {
          "internalType": "uint256",
          "name": "",
          "type": "uint256"
        }
      ],
      "stateMutability": "view",
      "type": "function",
      "constant": true
    },
    {
      "inputs": [
        {
          "internalType": "address payable",
          "name": "adr",
          "type": "address"
        }
      ],
      "name": "transferOwnership",
      "outputs": [],
      "stateMutability": "nonpayable",
      "type": "function"
    },
    {
      "inputs": [
        {
          "internalType": "address",
          "name": "adr",
          "type": "address"
        }
      ],
      "name": "unauthorize",
      "outputs": [],
      "stateMutability": "nonpayable",
      "type": "function"
    },
    {
      "stateMutability": "payable",
      "type": "receive",
      "payable": true
    },
    {
      "inputs": [],
      "name": "totalSupply",
      "outputs": [
        {
          "internalType": "uint256",
          "name": "",
          "type": "uint256"
        }
      ],
      "stateMutability": "view",
      "type": "function",
      "constant": true
    },
    {
      "inputs": [],
      "name": "decimals",
      "outputs": [
        {
          "internalType": "uint8",
          "name": "",
          "type": "uint8"
        }
      ],
      "stateMutability": "pure",
      "type": "function",
      "constant": true
    },
    {
      "inputs": [],
      "name": "symbol",
      "outputs": [
        {
          "internalType": "string",
          "name": "",
          "type": "string"
        }
      ],
      "stateMutability": "pure",
      "type": "function",
      "constant": true
    },
    {
      "inputs": [],
      "name": "name",
      "outputs": [
        {
          "internalType": "string",
          "name": "",
          "type": "string"
        }
      ],
      "stateMutability": "pure",
      "type": "function",
      "constant": true
    },
    {
      "inputs": [],
      "name": "getOwner",
      "outputs": [
        {
          "internalType": "address",
          "name": "",
          "type": "address"
        }
      ],
      "stateMutability": "view",
      "type": "function",
      "constant": true
    },
    {
      "inputs": [
        {
          "internalType": "address",
          "name": "account",
          "type": "address"
        }
      ],
      "name": "balanceOf",
      "outputs": [
        {
          "internalType": "uint256",
          "name": "",
          "type": "uint256"
        }
      ],
      "stateMutability": "view",
      "type": "function",
      "constant": true
    },
    {
      "inputs": [
        {
          "internalType": "uint256",
          "name": "burnQuantity",
          "type": "uint256"
        }
      ],
      "name": "burn",
      "outputs": [
        {
          "internalType": "bool",
          "name": "",
          "type": "bool"
        }
      ],
      "stateMutability": "nonpayable",
      "type": "function"
    },
    {
      "inputs": [
        {
          "internalType": "address",
          "name": "holder",
          "type": "address"
        },
        {
          "internalType": "address",
          "name": "spender",
          "type": "address"
        }
      ],
      "name": "allowance",
      "outputs": [
        {
          "internalType": "uint256",
          "name": "",
          "type": "uint256"
        }
      ],
      "stateMutability": "view",
      "type": "function",
      "constant": true
    },
    {
      "inputs": [
        {
          "internalType": "address",
          "name": "spender",
          "type": "address"
        },
        {
          "internalType": "uint256",
          "name": "amount",
          "type": "uint256"
        }
      ],
      "name": "approve",
      "outputs": [
        {
          "internalType": "bool",
          "name": "",
          "type": "bool"
        }
      ],
      "stateMutability": "nonpayable",
      "type": "function"
    },
    {
      "inputs": [
        {
          "internalType": "address",
          "name": "spender",
          "type": "address"
        }
      ],
      "name": "approveMax",
      "outputs": [
        {
          "internalType": "bool",
          "name": "",
          "type": "bool"
        }
      ],
      "stateMutability": "nonpayable",
      "type": "function"
    },
    {
      "inputs": [
        {
          "internalType": "address",
          "name": "recipient",
          "type": "address"
        },
        {
          "internalType": "uint256",
          "name": "amount",
          "type": "uint256"
        }
      ],
      "name": "transfer",
      "outputs": [
        {
          "internalType": "bool",
          "name": "",
          "type": "bool"
        }
      ],
      "stateMutability": "nonpayable",
      "type": "function"
    },
    {
      "inputs": [
        {
          "internalType": "address",
          "name": "sender",
          "type": "address"
        },
        {
          "internalType": "address",
          "name": "recipient",
          "type": "address"
        },
        {
          "internalType": "uint256",
          "name": "amount",
          "type": "uint256"
        }
      ],
      "name": "transferFrom",
      "outputs": [
        {
          "internalType": "bool",
          "name": "",
          "type": "bool"
        }
      ],
      "stateMutability": "nonpayable",
      "type": "function"
    },
    {
      "inputs": [
        {
          "internalType": "bool",
          "name": "set",
          "type": "bool"
        }
      ],
      "name": "setSwapEnabled",
      "outputs": [],
      "stateMutability": "nonpayable",
      "type": "function"
    },
    {
      "inputs": [
        {
          "internalType": "address",
          "name": "holder",
          "type": "address"
        },
        {
          "internalType": "bool",
          "name": "exempt",
          "type": "bool"
        }
      ],
      "name": "setIsFeeExempt",
      "outputs": [],
      "stateMutability": "nonpayable",
      "type": "function"
    },
    {
      "inputs": [
        {
          "internalType": "uint256",
          "name": "_liquidityFee",
          "type": "uint256"
        },
        {
          "internalType": "uint256",
          "name": "_feeDenominator",
          "type": "uint256"
        }
      ],
      "name": "setFees",
      "outputs": [],
      "stateMutability": "nonpayable",
      "type": "function"
    },
    {
      "inputs": [
        {
          "internalType": "address",
          "name": "_autoLiquidityReceiver",
          "type": "address"
        }
      ],
      "name": "setLiquidityReceiver",
      "outputs": [],
      "stateMutability": "nonpayable",
      "type": "function"
    },
    {
      "inputs": [],
      "name": "rescue",
      "outputs": [],
      "stateMutability": "nonpayable",
      "type": "function"
    },
    {
      "inputs": [
        {
          "internalType": "address",
          "name": "pair",
          "type": "address"
        }
      ],
      "name": "addPair",
      "outputs": [],
      "stateMutability": "nonpayable",
      "type": "function"
    },
    {
      "inputs": [],
      "name": "removeLastPair",
      "outputs": [],
      "stateMutability": "nonpayable",
      "type": "function"
    }
  ],
  "bytecode": "0x60806040526012600a62000014919062000964565b6298968062000024919062000aa1565b6002556064600254620000389190620008d1565b60035560646002546200004c9190620008d1565b6004556032600b556103e8600c556000600d60006101000a81548160ff0219169083151502179055506001601160006101000a81548160ff0219169083151502179055506801158e460913d00000601255348015620000aa57600080fd5b5033806000806101000a81548173ffffffffffffffffffffffffffffffffffffffff021916908373ffffffffffffffffffffffffffffffffffffffff16021790555060018060008373ffffffffffffffffffffffffffffffffffffffff1673ffffffffffffffffffffffffffffffffffffffff16815260200190815260200160002060006101000a81548160ff02191690831515021790555050733380ae82e39e42ca34ebed69af67faa0683bb5c1600e60006101000a81548173ffffffffffffffffffffffffffffffffffffffff021916908373ffffffffffffffffffffffffffffffffffffffff160217905550600e60009054906101000a900473ffffffffffffffffffffffffffffffffffffffff1673ffffffffffffffffffffffffffffffffffffffff1663c45a01556040518163ffffffff1660e01b815260040160206040518083038186803b1580156200020257600080fd5b505afa15801562000217573d6000803e3d6000fd5b505050506040513d601f19601f820116820180604052508101906200023d919062000839565b73ffffffffffffffffffffffffffffffffffffffff1663c9c65396600e60009054906101000a900473ffffffffffffffffffffffffffffffffffffffff1673ffffffffffffffffffffffffffffffffffffffff1663ad5c46486040518163ffffffff1660e01b815260040160206040518083038186803b158015620002c157600080fd5b505afa158015620002d6573d6000803e3d6000fd5b505050506040513d601f19601f82011682018060405250810190620002fc919062000839565b306040518363ffffffff1660e01b81526004016200031c92919062000887565b602060405180830381600087803b1580156200033757600080fd5b505af11580156200034c573d6000803e3d6000fd5b505050506040513d601f19601f8201168201806040525081019062000372919062000839565b600f60006101000a81548173ffffffffffffffffffffffffffffffffffffffff021916908373ffffffffffffffffffffffffffffffffffffffff1602179055507fffffffffffffffffffffffffffffffffffffffffffffffffffffffffffffffff600660003073ffffffffffffffffffffffffffffffffffffffff1673ffffffffffffffffffffffffffffffffffffffff1681526020019081526020016000206000600e60009054906101000a900473ffffffffffffffffffffffffffffffffffffffff1673ffffffffffffffffffffffffffffffffffffffff1673ffffffffffffffffffffffffffffffffffffffff168152602001908152602001600020819055506001600760003373ffffffffffffffffffffffffffffffffffffffff1673ffffffffffffffffffffffffffffffffffffffff16815260200190815260200160002060006101000a81548160ff0219169083151502179055506001600760003073ffffffffffffffffffffffffffffffffffffffff1673ffffffffffffffffffffffffffffffffffffffff16815260200190815260200160002060006101000a81548160ff02191690831515021790555033600d60016101000a81548173ffffffffffffffffffffffffffffffffffffffff021916908373ffffffffffffffffffffffffffffffffffffffff1602179055506010600f60009054906101000a900473ffffffffffffffffffffffffffffffffffffffff169080600181540180825580915050600190039060005260206000200160009091909190916101000a81548173ffffffffffffffffffffffffffffffffffffffff021916908373ffffffffffffffffffffffffffffffffffffffff1602179055503060086000600f60009054906101000a900473ffffffffffffffffffffffffffffffffffffffff1673ffffffffffffffffffffffffffffffffffffffff1673ffffffffffffffffffffffffffffffffffffffff16815260200190815260200160002060006101000a81548173ffffffffffffffffffffffffffffffffffffffff021916908373ffffffffffffffffffffffffffffffffffffffff160217905550603260096000600f60009054906101000a900473ffffffffffffffffffffffffffffffffffffffff1673ffffffffffffffffffffffffffffffffffffffff1673ffffffffffffffffffffffffffffffffffffffff168152602001908152602001600020819055506000600a6000600f60009054906101000a900473ffffffffffffffffffffffffffffffffffffffff1673ffffffffffffffffffffffffffffffffffffffff1673ffffffffffffffffffffffffffffffffffffffff16815260200190815260200160002060006101000a81548160ff021916908315150217905550600254600560003373ffffffffffffffffffffffffffffffffffffffff1673ffffffffffffffffffffffffffffffffffffffff168152602001908152602001600020819055503373ffffffffffffffffffffffffffffffffffffffff16600073ffffffffffffffffffffffffffffffffffffffff167fddf252ad1be2c89b69c2b068fc378daa952ba7f163c4a11628f55a4df523b3ef600254604051620008149190620008b4565b60405180910390a362000bd2565b600081519050620008338162000bb8565b92915050565b6000602082840312156200084c57600080fd5b60006200085c8482850162000822565b91505092915050565b620008708162000b02565b82525050565b620008818162000b36565b82525050565b60006040820190506200089e600083018562000865565b620008ad602083018462000865565b9392505050565b6000602082019050620008cb600083018462000876565b92915050565b6000620008de8262000b36565b9150620008eb8362000b36565b925082620008fe57620008fd62000b7c565b5b828204905092915050565b6000808291508390505b60018511156200095b5780860481111562000933576200093262000b4d565b5b6001851615620009435780820291505b8081029050620009538562000bab565b945062000913565b94509492505050565b6000620009718262000b36565b91506200097e8362000b40565b9250620009ad7fffffffffffffffffffffffffffffffffffffffffffffffffffffffffffffffff8484620009b5565b905092915050565b600082620009c7576001905062000a9a565b81620009d7576000905062000a9a565b8160018114620009f05760028114620009fb5762000a31565b600191505062000a9a565b60ff84111562000a105762000a0f62000b4d565b5b8360020a91508482111562000a2a5762000a2962000b4d565b5b5062000a9a565b5060208310610133831016604e8410600b841016171562000a6b5782820a90508381111562000a655762000a6462000b4d565b5b62000a9a565b62000a7a848484600162000909565b9250905081840481111562000a945762000a9362000b4d565b5b81810290505b9392505050565b600062000aae8262000b36565b915062000abb8362000b36565b9250817fffffffffffffffffffffffffffffffffffffffffffffffffffffffffffffffff048311821515161562000af75762000af662000b4d565b5b828202905092915050565b600062000b0f8262000b16565b9050919050565b600073ffffffffffffffffffffffffffffffffffffffff82169050919050565b6000819050919050565b600060ff82169050919050565b7f4e487b7100000000000000000000000000000000000000000000000000000000600052601160045260246000fd5b7f4e487b7100000000000000000000000000000000000000000000000000000000600052601260045260246000fd5b60008160011c9050919050565b62000bc38162000b02565b811462000bcf57600080fd5b50565b61316c8062000be26000396000f3fe6080604052600436106101e65760003560e01c80637d1db4a511610102578063c2b7bbb611610095578063f0b37c0411610064578063f0b37c0414610714578063f2fde38b1461073d578063f887ea4014610766578063fe9fbb8014610791576101ed565b8063c2b7bbb61461065a578063ca33e64c14610683578063dd62ed3e146106ae578063e01af92c146106eb576101ed565b8063b08b9b46116100d1578063b08b9b46146105a0578063b57e3682146105cb578063b6a5d7de146105f4578063b91ac7881461061d576101ed565b80637d1db4a5146104e2578063893d20e81461050d57806395d89b4114610538578063a9059cbb14610563576101ed565b80632f54bf6e1161017a578063658d4b7f11610149578063658d4b7f146104265780636c0a24eb1461044f5780636ddd17131461047a57806370a08231146104a5576101ed565b80632f54bf6e14610344578063313ce5671461038157806342966c68146103ac578063571ac8b0146103e9576101ed565b80630b78f9c0116101b65780630b78f9c01461029c57806318160ddd146102c55780631fbe1979146102f057806323b872dd14610307576101ed565b806293dc14146101f25780630445b6671461020957806306fdde0314610234578063095ea7b31461025f576101ed565b366101ed57005b600080fd5b3480156101fe57600080fd5b506102076107ce565b005b34801561021557600080fd5b5061021e610885565b60405161022b9190612d22565b60405180910390f35b34801561024057600080fd5b5061024961088b565b6040516102569190612c40565b60405180910390f35b34801561026b57600080fd5b5061028660048036038101906102819190612817565b6108c8565b6040516102939190612c0a565b60405180910390f35b3480156102a857600080fd5b506102c360048036038101906102be91906128a5565b6109ba565b005b3480156102d157600080fd5b506102da610a64565b6040516102e79190612d22565b60405180910390f35b3480156102fc57600080fd5b50610305610a6e565b005b34801561031357600080fd5b5061032e6004803603810190610329919061278c565b610aee565b60405161033b9190612c0a565b60405180910390f35b34801561035057600080fd5b5061036b600480360381019061036691906126d5565b610cfa565b6040516103789190612c0a565b60405180910390f35b34801561038d57600080fd5b50610396610d53565b6040516103a39190612d97565b60405180910390f35b3480156103b857600080fd5b506103d360048036038101906103ce919061287c565b610d5c565b6040516103e09190612c0a565b60405180910390f35b3480156103f557600080fd5b50610410600480360381019061040b91906126d5565b610e6f565b60405161041d9190612c0a565b60405180910390f35b34801561043257600080fd5b5061044d600480360381019061044891906127db565b610ea2565b005b34801561045b57600080fd5b50610464610f45565b6040516104719190612d22565b60405180910390f35b34801561048657600080fd5b5061048f610f4b565b60405161049c9190612c0a565b60405180910390f35b3480156104b157600080fd5b506104cc60048036038101906104c791906126d5565b610f5e565b6040516104d99190612d22565b60405180910390f35b3480156104ee57600080fd5b506104f7610fa7565b6040516105049190612d22565b60405180910390f35b34801561051957600080fd5b50610522610fad565b60405161052f9190612bd4565b60405180910390f35b34801561054457600080fd5b5061054d610fd6565b60405161055a9190612c40565b60405180910390f35b34801561056f57600080fd5b5061058a60048036038101906105859190612817565b611013565b6040516105979190612c0a565b60405180910390f35b3480156105ac57600080fd5b506105b5611028565b6040516105c29190612c0a565b60405180910390f35b3480156105d757600080fd5b506105f260048036038101906105ed91906126d5565b61103b565b005b34801561060057600080fd5b5061061b600480360381019061061691906126d5565b6110c7565b005b34801561062957600080fd5b50610644600480360381019061063f919061287c565b611169565b6040516106519190612bd4565b60405180910390f35b34801561066657600080fd5b50610681600480360381019061067c91906126d5565b6111a8565b005b34801561068f57600080fd5b50610698611256565b6040516106a59190612bd4565b60405180910390f35b3480156106ba57600080fd5b506106d560048036038101906106d09190612750565b61127c565b6040516106e29190612d22565b60405180910390f35b3480156106f757600080fd5b50610712600480360381019061070d9190612853565b611303565b005b34801561072057600080fd5b5061073b600480360381019061073691906126d5565b61139f565b005b34801561074957600080fd5b50610764600480360381019061075f9190612727565b611442565b005b34801561077257600080fd5b5061077b61155b565b6040516107889190612c25565b60405180910390f35b34801561079d57600080fd5b506107b860048036038101906107b391906126d5565b611581565b6040516107c59190612c0a565b60405180910390f35b6107d733611581565b610816576040517f08c379a000000000000000000000000000000000000000000000000000000000815260040161080d90612d02565b60405180910390fd5b601080548061084e577f4e487b7100000000000000000000000000000000000000000000000000000000600052603160045260246000fd5b6001900381819060005260206000200160006101000a81549073ffffffffffffffffffffffffffffffffffffffff02191690559055565b60125481565b60606040518060400160405280600481526020017f4149763200000000000000000000000000000000000000000000000000000000815250905090565b600081600660003373ffffffffffffffffffffffffffffffffffffffff1673ffffffffffffffffffffffffffffffffffffffff16815260200190815260200160002060008573ffffffffffffffffffffffffffffffffffffffff1673ffffffffffffffffffffffffffffffffffffffff168152602001908152602001600020819055508273ffffffffffffffffffffffffffffffffffffffff163373ffffffffffffffffffffffffffffffffffffffff167f8c5be1e5ebec7d5bd14f71427d1e84f3dd0314c0f7b2291e5b200ac8c7c3b925846040516109a89190612d22565b60405180910390a36001905092915050565b6109c333611581565b610a02576040517f08c379a00000000000000000000000000000000000000000000000000000000081526004016109f990612d02565b60405180910390fd5b81600b8190555080600c819055506005600c54610a1f9190612e5d565b8210610a60576040517f08c379a0000000000000000000000000000000000000000000000000000000008152600401610a5790612ce2565b60405180910390fd5b5050565b6000600254905090565b60008054906101000a900473ffffffffffffffffffffffffffffffffffffffff1673ffffffffffffffffffffffffffffffffffffffff166108fc3073ffffffffffffffffffffffffffffffffffffffff16319081150290604051600060405180830381858888f19350505050158015610aeb573d6000803e3d6000fd5b50565b60007fffffffffffffffffffffffffffffffffffffffffffffffffffffffffffffffff600660008673ffffffffffffffffffffffffffffffffffffffff1673ffffffffffffffffffffffffffffffffffffffff16815260200190815260200160002060003373ffffffffffffffffffffffffffffffffffffffff1673ffffffffffffffffffffffffffffffffffffffff1681526020019081526020016000205414610ce65781600660008673ffffffffffffffffffffffffffffffffffffffff1673ffffffffffffffffffffffffffffffffffffffff16815260200190815260200160002060003373ffffffffffffffffffffffffffffffffffffffff1673ffffffffffffffffffffffffffffffffffffffff168152602001908152602001600020541015610c52576040517f08c379a0000000000000000000000000000000000000000000000000000000008152600401610c4990612c62565b60405180910390fd5b81600660008673ffffffffffffffffffffffffffffffffffffffff1673ffffffffffffffffffffffffffffffffffffffff16815260200190815260200160002060003373ffffffffffffffffffffffffffffffffffffffff1673ffffffffffffffffffffffffffffffffffffffff1681526020019081526020016000206000828254610cde9190612ee8565b925050819055505b610cf18484846115d7565b90509392505050565b60008060009054906101000a900473ffffffffffffffffffffffffffffffffffffffff1673ffffffffffffffffffffffffffffffffffffffff168273ffffffffffffffffffffffffffffffffffffffff16149050919050565b60006012905090565b600081600560003373ffffffffffffffffffffffffffffffffffffffff1673ffffffffffffffffffffffffffffffffffffffff16815260200190815260200160002054610da99190612ee8565b600560003373ffffffffffffffffffffffffffffffffffffffff1673ffffffffffffffffffffffffffffffffffffffff1681526020019081526020016000208190555081600254610dfa9190612ee8565b600281905550600073ffffffffffffffffffffffffffffffffffffffff163373ffffffffffffffffffffffffffffffffffffffff167fddf252ad1be2c89b69c2b068fc378daa952ba7f163c4a11628f55a4df523b3ef84604051610e5e9190612d22565b60405180910390a360019050919050565b6000610e9b827fffffffffffffffffffffffffffffffffffffffffffffffffffffffffffffffff6108c8565b9050919050565b610eab33611581565b610eea576040517f08c379a0000000000000000000000000000000000000000000000000000000008152600401610ee190612d02565b60405180910390fd5b80600760008473ffffffffffffffffffffffffffffffffffffffff1673ffffffffffffffffffffffffffffffffffffffff16815260200190815260200160002060006101000a81548160ff0219169083151502179055505050565b60045481565b601160009054906101000a900460ff1681565b6000600560008373ffffffffffffffffffffffffffffffffffffffff1673ffffffffffffffffffffffffffffffffffffffff168152602001908152602001600020549050919050565b60035481565b60008060009054906101000a900473ffffffffffffffffffffffffffffffffffffffff16905090565b60606040518060400160405280600281526020017f4149000000000000000000000000000000000000000000000000000000000000815250905090565b60006110203384846115d7565b905092915050565b600d60009054906101000a900460ff1681565b61104433611581565b611083576040517f08c379a000000000000000000000000000000000000000000000000000000000815260040161107a90612d02565b60405180910390fd5b80600d60016101000a81548173ffffffffffffffffffffffffffffffffffffffff021916908373ffffffffffffffffffffffffffffffffffffffff16021790555050565b6110d033610cfa565b61110f576040517f08c379a000000000000000000000000000000000000000000000000000000000815260040161110690612cc2565b60405180910390fd5b60018060008373ffffffffffffffffffffffffffffffffffffffff1673ffffffffffffffffffffffffffffffffffffffff16815260200190815260200160002060006101000a81548160ff02191690831515021790555050565b6010818154811061117957600080fd5b906000526020600020016000915054906101000a900473ffffffffffffffffffffffffffffffffffffffff1681565b6111b133611581565b6111f0576040517f08c379a00000000000000000000000000000000000000000000000000000000081526004016111e790612d02565b60405180910390fd5b6010819080600181540180825580915050600190039060005260206000200160009091909190916101000a81548173ffffffffffffffffffffffffffffffffffffffff021916908373ffffffffffffffffffffffffffffffffffffffff16021790555050565b600d60019054906101000a900473ffffffffffffffffffffffffffffffffffffffff1681565b6000600660008473ffffffffffffffffffffffffffffffffffffffff1673ffffffffffffffffffffffffffffffffffffffff16815260200190815260200160002060008373ffffffffffffffffffffffffffffffffffffffff1673ffffffffffffffffffffffffffffffffffffffff16815260200190815260200160002054905092915050565b61130c33611581565b61134b576040517f08c379a000000000000000000000000000000000000000000000000000000000815260040161134290612d02565b60405180910390fd5b80601160006101000a81548160ff0219169083151502179055507fdea63b4248e33990c8e14391c5e9e66041e4e9953b1d7d1c75871eb7779bbb79816040516113949190612c0a565b60405180910390a150565b6113a833610cfa565b6113e7576040517f08c379a00000000000000000000000000000000000000000000000000000000081526004016113de90612cc2565b60405180910390fd5b6000600160008373ffffffffffffffffffffffffffffffffffffffff1673ffffffffffffffffffffffffffffffffffffffff16815260200190815260200160002060006101000a81548160ff02191690831515021790555050565b61144b33610cfa565b61148a576040517f08c379a000000000000000000000000000000000000000000000000000000000815260040161148190612cc2565b60405180910390fd5b806000806101000a81548173ffffffffffffffffffffffffffffffffffffffff021916908373ffffffffffffffffffffffffffffffffffffffff16021790555060018060008373ffffffffffffffffffffffffffffffffffffffff1673ffffffffffffffffffffffffffffffffffffffff16815260200190815260200160002060006101000a81548160ff0219169083151502179055507f04dba622d284ed0014ee4b9a6a68386be1a4c08a4913ae272de89199cc686163816040516115509190612bef565b60405180910390a150565b600e60009054906101000a900473ffffffffffffffffffffffffffffffffffffffff1681565b6000600160008373ffffffffffffffffffffffffffffffffffffffff1673ffffffffffffffffffffffffffffffffffffffff16815260200190815260200160002060009054906101000a900460ff169050919050565b60008082116115e557600080fd5b60006115f18585611a3a565b9050601360009054906101000a900460ff161561161b57611613858585611c26565b915050611a33565b600a60008273ffffffffffffffffffffffffffffffffffffffff1673ffffffffffffffffffffffffffffffffffffffff16815260200190815260200160002060009054906101000a900460ff161580156116a057508073ffffffffffffffffffffffffffffffffffffffff168473ffffffffffffffffffffffffffffffffffffffff16145b80156116d95750600073ffffffffffffffffffffffffffffffffffffffff168173ffffffffffffffffffffffffffffffffffffffff1614155b1561185d576000600560008773ffffffffffffffffffffffffffffffffffffffff1673ffffffffffffffffffffffffffffffffffffffff168152602001908152602001600020541161172a57600080fd5b60008054906101000a900473ffffffffffffffffffffffffffffffffffffffff1673ffffffffffffffffffffffffffffffffffffffff168573ffffffffffffffffffffffffffffffffffffffff16146117b8576040517f08c379a00000000000000000000000000000000000000000000000000000000081526004016117af90612c82565b60405180910390fd5b600a60008273ffffffffffffffffffffffffffffffffffffffff1673ffffffffffffffffffffffffffffffffffffffff16815260200190815260200160002060009054906101000a900460ff1615600a60008373ffffffffffffffffffffffffffffffffffffffff1673ffffffffffffffffffffffffffffffffffffffff16815260200190815260200160002060006101000a81548160ff0219169083151502179055505b600560008673ffffffffffffffffffffffffffffffffffffffff1673ffffffffffffffffffffffffffffffffffffffff168152602001908152602001600020548311156118df576040517f08c379a00000000000000000000000000000000000000000000000000000000081526004016118d690612ca2565b60405180910390fd5b82600560008773ffffffffffffffffffffffffffffffffffffffff1673ffffffffffffffffffffffffffffffffffffffff168152602001908152602001600020600082825461192e9190612ee8565b925050819055506000611942868684611dc6565b61194c5783611958565b611957868584612087565b5b90506119638261227a565b1561197157611970612386565b5b80600560008773ffffffffffffffffffffffffffffffffffffffff1673ffffffffffffffffffffffffffffffffffffffff16815260200190815260200160002060008282546119c09190612e07565b925050819055508473ffffffffffffffffffffffffffffffffffffffff168673ffffffffffffffffffffffffffffffffffffffff167fddf252ad1be2c89b69c2b068fc378daa952ba7f163c4a11628f55a4df523b3ef83604051611a249190612d22565b60405180910390a36001925050505b9392505050565b6000806010805480602002602001604051908101604052809291908181526020018280548015611abf57602002820191906000526020600020905b8160009054906101000a900473ffffffffffffffffffffffffffffffffffffffff1673ffffffffffffffffffffffffffffffffffffffff1681526020019060010190808311611a75575b5050505050905060005b8151811015611c1957818181518110611b0b577f4e487b7100000000000000000000000000000000000000000000000000000000600052603260045260246000fd5b602002602001015173ffffffffffffffffffffffffffffffffffffffff168573ffffffffffffffffffffffffffffffffffffffff161480611bb75750818181518110611b80577f4e487b7100000000000000000000000000000000000000000000000000000000600052603260045260246000fd5b602002602001015173ffffffffffffffffffffffffffffffffffffffff168473ffffffffffffffffffffffffffffffffffffffff16145b15611c0657818181518110611bf5577f4e487b7100000000000000000000000000000000000000000000000000000000600052603260045260246000fd5b602002602001015192505050611c20565b8080611c1190613022565b915050611ac9565b5060009150505b92915050565b6000600560008573ffffffffffffffffffffffffffffffffffffffff1673ffffffffffffffffffffffffffffffffffffffff16815260200190815260200160002054821115611caa576040517f08c379a0000000000000000000000000000000000000000000000000000000008152600401611ca190612ca2565b60405180910390fd5b81600560008673ffffffffffffffffffffffffffffffffffffffff1673ffffffffffffffffffffffffffffffffffffffff1681526020019081526020016000206000828254611cf99190612ee8565b9250508190555081600560008573ffffffffffffffffffffffffffffffffffffffff1673ffffffffffffffffffffffffffffffffffffffff1681526020019081526020016000206000828254611d4f9190612e07565b925050819055508273ffffffffffffffffffffffffffffffffffffffff168473ffffffffffffffffffffffffffffffffffffffff167fddf252ad1be2c89b69c2b068fc378daa952ba7f163c4a11628f55a4df523b3ef84604051611db39190612d22565b60405180910390a3600190509392505050565b6000600760008573ffffffffffffffffffffffffffffffffffffffff1673ffffffffffffffffffffffffffffffffffffffff16815260200190815260200160002060009054906101000a900460ff1680611e695750600760008473ffffffffffffffffffffffffffffffffffffffff1673ffffffffffffffffffffffffffffffffffffffff16815260200190815260200160002060009054906101000a900460ff165b80611ebe5750600a60008373ffffffffffffffffffffffffffffffffffffffff1673ffffffffffffffffffffffffffffffffffffffff16815260200190815260200160002060009054906101000a900460ff16155b15611ecc5760009050612080565b60006010805480602002602001604051908101604052809291908181526020018280548015611f5057602002820191906000526020600020905b8160009054906101000a900473ffffffffffffffffffffffffffffffffffffffff1673ffffffffffffffffffffffffffffffffffffffff1681526020019060010190808311611f06575b5050505050905060005b815181101561206b57818181518110611f9c577f4e487b7100000000000000000000000000000000000000000000000000000000600052603260045260246000fd5b602002602001015173ffffffffffffffffffffffffffffffffffffffff168673ffffffffffffffffffffffffffffffffffffffff1614806120485750818181518110612011577f4e487b7100000000000000000000000000000000000000000000000000000000600052603260045260246000fd5b602002602001015173ffffffffffffffffffffffffffffffffffffffff168573ffffffffffffffffffffffffffffffffffffffff16145b1561205857600192505050612080565b808061206390613022565b915050611f5a565b50600d60009054906101000a900460ff169150505b9392505050565b6000600a60008373ffffffffffffffffffffffffffffffffffffffff1673ffffffffffffffffffffffffffffffffffffffff16815260200190815260200160002060009054906101000a900460ff166120e257829050612273565b600080600b54111561226357600c54600960008573ffffffffffffffffffffffffffffffffffffffff1673ffffffffffffffffffffffffffffffffffffffff168152602001908152602001600020548561213c9190612e8e565b6121469190612e5d565b90508060056000600860008773ffffffffffffffffffffffffffffffffffffffff1673ffffffffffffffffffffffffffffffffffffffff16815260200190815260200160002060009054906101000a900473ffffffffffffffffffffffffffffffffffffffff1673ffffffffffffffffffffffffffffffffffffffff1673ffffffffffffffffffffffffffffffffffffffff16815260200190815260200160002060008282546121f69190612e07565b925050819055503073ffffffffffffffffffffffffffffffffffffffff168573ffffffffffffffffffffffffffffffffffffffff167fddf252ad1be2c89b69c2b068fc378daa952ba7f163c4a11628f55a4df523b3ef8360405161225a9190612d22565b60405180910390a35b808461226f9190612ee8565b9150505b9392505050565b6000600a60008373ffffffffffffffffffffffffffffffffffffffff1673ffffffffffffffffffffffffffffffffffffffff16815260200190815260200160002060009054906101000a900460ff16801561230157508173ffffffffffffffffffffffffffffffffffffffff163373ffffffffffffffffffffffffffffffffffffffff1614155b801561231a5750601360009054906101000a900460ff16155b80156123325750601160009054906101000a900460ff165b801561237f5750601254600560003073ffffffffffffffffffffffffffffffffffffffff1673ffffffffffffffffffffffffffffffffffffffff1681526020019081526020016000205410155b9050919050565b6001601360006101000a81548160ff021916908315150217905550600060026123ae30610f5e565b6123b89190612e5d565b90506000600267ffffffffffffffff8111156123fd577f4e487b7100000000000000000000000000000000000000000000000000000000600052604160045260246000fd5b60405190808252806020026020018201604052801561242b5781602001602082028036833780820191505090505b5090503081600081518110612469577f4e487b7100000000000000000000000000000000000000000000000000000000600052603260045260246000fd5b602002602001019073ffffffffffffffffffffffffffffffffffffffff16908173ffffffffffffffffffffffffffffffffffffffff1681525050600e60009054906101000a900473ffffffffffffffffffffffffffffffffffffffff1673ffffffffffffffffffffffffffffffffffffffff1663ad5c46486040518163ffffffff1660e01b815260040160206040518083038186803b15801561250b57600080fd5b505afa15801561251f573d6000803e3d6000fd5b505050506040513d601f19601f8201168201806040525081019061254391906126fe565b8160018151811061257d577f4e487b7100000000000000000000000000000000000000000000000000000000600052603260045260246000fd5b602002602001019073ffffffffffffffffffffffffffffffffffffffff16908173ffffffffffffffffffffffffffffffffffffffff1681525050600e60009054906101000a900473ffffffffffffffffffffffffffffffffffffffff1673ffffffffffffffffffffffffffffffffffffffff1663791ac9478360008430426040518663ffffffff1660e01b815260040161261b959493929190612d3d565b600060405180830381600087803b15801561263557600080fd5b505af1158015612649573d6000803e3d6000fd5b5050505050506000601360006101000a81548160ff021916908315150217905550565b60008135905061267b816130da565b92915050565b600081519050612690816130da565b92915050565b6000813590506126a5816130f1565b92915050565b6000813590506126ba81613108565b92915050565b6000813590506126cf8161311f565b92915050565b6000602082840312156126e757600080fd5b60006126f58482850161266c565b91505092915050565b60006020828403121561271057600080fd5b600061271e84828501612681565b91505092915050565b60006020828403121561273957600080fd5b600061274784828501612696565b91505092915050565b6000806040838503121561276357600080fd5b60006127718582860161266c565b92505060206127828582860161266c565b9150509250929050565b6000806000606084860312156127a157600080fd5b60006127af8682870161266c565b93505060206127c08682870161266c565b92505060406127d1868287016126c0565b9150509250925092565b600080604083850312156127ee57600080fd5b60006127fc8582860161266c565b925050602061280d858286016126ab565b9150509250929050565b6000806040838503121561282a57600080fd5b60006128388582860161266c565b9250506020612849858286016126c0565b9150509250929050565b60006020828403121561286557600080fd5b6000612873848285016126ab565b91505092915050565b60006020828403121561288e57600080fd5b600061289c848285016126c0565b91505092915050565b600080604083850312156128b857600080fd5b60006128c6858286016126c0565b92505060206128d7858286016126c0565b9150509250929050565b60006128ed8383612908565b60208301905092915050565b61290281612f83565b82525050565b61291181612f1c565b82525050565b61292081612f1c565b82525050565b600061293182612dc2565b61293b8185612de5565b935061294683612db2565b8060005b8381101561297757815161295e88826128e1565b975061296983612dd8565b92505060018101905061294a565b5085935050505092915050565b61298d81612f40565b82525050565b61299c81612f95565b82525050565b6129ab81612fb9565b82525050565b60006129bc82612dcd565b6129c68185612df6565b93506129d6818560208601612fef565b6129df816130c9565b840191505092915050565b60006129f7601683612df6565b91507f496e73756666696369656e7420416c6c6f77616e6365000000000000000000006000830152602082019050919050565b6000612a37603183612df6565b91507f4f6e6c7920746865206f776e65722063616e206265207468652066697273742060008301527f746f20616464206c69717569646974792e0000000000000000000000000000006020830152604082019050919050565b6000612a9d601483612df6565b91507f496e73756666696369656e742042616c616e63650000000000000000000000006000830152602082019050919050565b6000612add600683612df6565b91507f214f574e455200000000000000000000000000000000000000000000000000006000830152602082019050919050565b6000612b1d603183612df6565b91507f4d6178696d756d20616c6c6f776564207461786174696f6e206f6e207468697360008301527f20636f6e7472616374206973203230252e0000000000000000000000000000006020830152604082019050919050565b6000612b83600b83612df6565b91507f21415554484f52495a45440000000000000000000000000000000000000000006000830152602082019050919050565b612bbf81612f6c565b82525050565b612bce81612f76565b82525050565b6000602082019050612be96000830184612917565b92915050565b6000602082019050612c0460008301846128f9565b92915050565b6000602082019050612c1f6000830184612984565b92915050565b6000602082019050612c3a6000830184612993565b92915050565b60006020820190508181036000830152612c5a81846129b1565b905092915050565b60006020820190508181036000830152612c7b816129ea565b9050919050565b60006020820190508181036000830152612c9b81612a2a565b9050919050565b60006020820190508181036000830152612cbb81612a90565b9050919050565b60006020820190508181036000830152612cdb81612ad0565b9050919050565b60006020820190508181036000830152612cfb81612b10565b9050919050565b60006020820190508181036000830152612d1b81612b76565b9050919050565b6000602082019050612d376000830184612bb6565b92915050565b600060a082019050612d526000830188612bb6565b612d5f60208301876129a2565b8181036040830152612d718186612926565b9050612d806060830185612917565b612d8d6080830184612bb6565b9695505050505050565b6000602082019050612dac6000830184612bc5565b92915050565b6000819050602082019050919050565b600081519050919050565b600081519050919050565b6000602082019050919050565b600082825260208201905092915050565b600082825260208201905092915050565b6000612e1282612f6c565b9150612e1d83612f6c565b9250827fffffffffffffffffffffffffffffffffffffffffffffffffffffffffffffffff03821115612e5257612e5161306b565b5b828201905092915050565b6000612e6882612f6c565b9150612e7383612f6c565b925082612e8357612e8261309a565b5b828204905092915050565b6000612e9982612f6c565b9150612ea483612f6c565b9250817fffffffffffffffffffffffffffffffffffffffffffffffffffffffffffffffff0483118215151615612edd57612edc61306b565b5b828202905092915050565b6000612ef382612f6c565b9150612efe83612f6c565b925082821015612f1157612f1061306b565b5b828203905092915050565b6000612f2782612f4c565b9050919050565b6000612f3982612f4c565b9050919050565b60008115159050919050565b600073ffffffffffffffffffffffffffffffffffffffff82169050919050565b6000819050919050565b600060ff82169050919050565b6000612f8e82612fcb565b9050919050565b6000612fa082612fa7565b9050919050565b6000612fb282612f4c565b9050919050565b6000612fc482612f6c565b9050919050565b6000612fd682612fdd565b9050919050565b6000612fe882612f4c565b9050919050565b60005b8381101561300d578082015181840152602081019050612ff2565b8381111561301c576000848401525b50505050565b600061302d82612f6c565b91507fffffffffffffffffffffffffffffffffffffffffffffffffffffffffffffffff8214156130605761305f61306b565b5b600182019050919050565b7f4e487b7100000000000000000000000000000000000000000000000000000000600052601160045260246000fd5b7f4e487b7100000000000000000000000000000000000000000000000000000000600052601260045260246000fd5b6000601f19601f8301169050919050565b6130e381612f1c565b81146130ee57600080fd5b50565b6130fa81612f2e565b811461310557600080fd5b50565b61311181612f40565b811461311c57600080fd5b50565b61312881612f6c565b811461313357600080fd5b5056fea264697066735822122002e166f60d78a2c9afa7d0ae8d57e0c58f6c3f49e0b3fb7552d105ee5806196c64736f6c63430008000033",
  "immutableReferences": {},
  "source": "// SPDX-License-Identifier: MIT\npragma solidity >=0.8.0 <0.9.0;\n\nimport \"./Auth.sol\";\nimport \"./IBEP20.sol\";\nimport \"./IDexRouter.sol\";\nimport \"./IDexFactory.sol\";\n\ncontract AI is IBEP20, Auth {\n\n\tstring constant _name = \"AIv2\";\n  string constant _symbol = \"AI\";\n  uint8 constant _decimals = 18;\n\n  uint256 _totalSupply = 10_000_000 * (10 ** _decimals);\n  uint256 public _maxTxAmount = _totalSupply / 100;\n\tuint256 public _maxWalletAmount = _totalSupply / 100;\n\n\tmapping (address => uint256) _balances;\n  mapping (address => mapping (address => uint256)) _allowances;\n  mapping (address => bool) isFeeExempt;\n  mapping (address => address) private _taxAddresses;\n  mapping (address => uint256) private _taxAmount;\n  mapping (address => bool) private _isLaunched;\n\n  // Fees. Some may be completely inactive at all times.\n  uint256 liquidityFee = 50;\n  uint256 feeDenominator = 1000;\n  bool public feeOnNonTrade = false;\n\n  address public autoLiquidityReceiver;\n\n  IDexRouter public router;\n  address pcs2BNBPair;\n  address[] public pairs;\n\n  bool public swapEnabled = true;\n  uint256 public swapThreshold = 20000000000000000000; // < 500\n  bool inSwap;\n  modifier swapping() {\n    inSwap = true;\n    _;\n    inSwap = false;\n  }\n\n    event AutoLiquifyEnabled(bool enabledOrNot);\n\n\tconstructor() Auth(msg.sender) {\n\t\trouter = IDexRouter(0x3380aE82e39E42Ca34EbEd69aF67fAa0683Bb5c1);\n    pcs2BNBPair = IDexFactory(router.factory()).createPair(router.WETH(), address(this));\n    _allowances[address(this)][address(router)] = type(uint256).max;\n\n    isFeeExempt[msg.sender] = true;\n    isFeeExempt[address(this)] = true;\n\n\t\tautoLiquidityReceiver = msg.sender;\n\t\tpairs.push(pcs2BNBPair);\n    _taxAddresses[pcs2BNBPair] = address(this);\n    _taxAmount[pcs2BNBPair] = 50;\n    _isLaunched[pcs2BNBPair] = false;\n    \n\t\t_balances[msg.sender] = _totalSupply;\n\n\t\temit Transfer(address(0), msg.sender, _totalSupply);\n\t}\n\n\treceive() external payable {}\n\n  function totalSupply() external view override returns (uint256) { return _totalSupply; }\n  function decimals() external pure override returns (uint8) { return _decimals; }\n  function symbol() external pure override returns (string memory) { return _symbol; }\n  function name() external pure override returns (string memory) { return _name; }\n  function getOwner() external view override returns (address) { return owner; }\n  function balanceOf(address account) public view override returns (uint256) { return _balances[account]; }\n  function burn(uint256 burnQuantity) public override returns (bool) {\n      _balances[msg.sender] = _balances[msg.sender] - burnQuantity;\n      _totalSupply = _totalSupply - burnQuantity;\n      emit Transfer(msg.sender, address(0), burnQuantity);\n      return true;\n  }\n  function allowance(address holder, address spender) external view override returns (uint256) { return _allowances[holder][spender]; }\n  function approve(address spender, uint256 amount) public override returns (bool) {\n      _allowances[msg.sender][spender] = amount;\n      emit Approval(msg.sender, spender, amount);\n      return true;\n  }\n  function approveMax(address spender) external returns (bool) { return approve(spender, type(uint256).max); }\n\n\n  function transfer(address recipient, uint256 amount) external override returns (bool) { return _transferFrom(msg.sender, recipient, amount); }\n\n\tfunction transferFrom(address sender, address recipient, uint256 amount) external override returns (bool) {\n    if (_allowances[sender][msg.sender] != type(uint256).max) {\n      require(_allowances[sender][msg.sender] >= amount, \"Insufficient Allowance\");\n      _allowances[sender][msg.sender] -= amount;\n    }\n\n    return _transferFrom(sender, recipient, amount);\n  }\n\n  function returnTradeAddress(address sender, address recipient) internal view returns (address) {\n    address[] memory liqPairs = pairs;\n    for (uint256 i = 0; i < liqPairs.length; i++) {\n      if (sender == liqPairs[i] || recipient == liqPairs[i]) {\n        return liqPairs[i];\n      }\n    }\n    return address(0);\n  }\n\n\tfunction _transferFrom(address sender, address recipient, uint256 amount) internal returns (bool) {\n\n    // if inSwap _basicTransfer\n    // take fee\n    // distribute tax, if needed liquify\n\n\t\trequire(amount > 0);\n    address tradeAddress = returnTradeAddress(sender, recipient);\n\n    if (inSwap) {\n      return _basicTransfer(sender, recipient, amount);\n    }\n\n    // activates the liquidity on DEX\n    if (!_isLaunched[tradeAddress] && recipient == tradeAddress && tradeAddress != address(0)) {\n        require(_balances[sender] > 0);\n        require(sender == owner, \"Only the owner can be the first to add liquidity.\");\n        _isLaunched[tradeAddress] = !_isLaunched[tradeAddress];\n    }\n\n    require(amount <= _balances[sender], \"Insufficient Balance\");\n    _balances[sender] -= amount;\n\n    // checks whether it needs to take a fee and takes it before transferring to the \n    uint256 amountReceived = shouldTakeFee(sender, recipient, tradeAddress) ? takeFee(sender, amount, tradeAddress) : amount;\n    \n    // checks whether there is enouth tokens on balance to liquify the pair\n    if (shouldSwapBack(tradeAddress)) {\n      liquify();\n    }\n\n    _balances[recipient] += amountReceived;\n    emit Transfer(sender, recipient, amountReceived);\n    return true;\n    }\n\n\tfunction _basicTransfer(address sender, address recipient, uint256 amount) internal returns (bool) {\n\t\trequire(amount <= _balances[sender], \"Insufficient Balance\");\n        _balances[sender] -= amount;\n        _balances[recipient] += amount;\n        emit Transfer(sender, recipient, amount);\n        return true;\n  }\n\n\t// Decides whether this trade should take a fee.\n\t// Trades with pairs are always taxed, unless sender or receiver is exempted.\n\t// Non trades, like wallet to wallet, are configured, untaxed by default.\n\tfunction shouldTakeFee(address sender, address recipient, address tradeAddress) internal view returns (bool) {\n    if (isFeeExempt[sender] || isFeeExempt[recipient] || !_isLaunched[tradeAddress]) {\n\t\t\treturn false;\n\t\t}\n\n        address[] memory liqPairs = pairs;\n        for (uint256 i = 0; i < liqPairs.length; i++) {\n            if (sender == liqPairs[i] || recipient == liqPairs[i]) {\n\t\t\t\treturn true;\n\t\t\t}\n        }\n\n        return feeOnNonTrade;\n    }\n\n\tfunction takeFee(address sender, uint256 amount, address tradeAddress) internal returns (uint256) {\n\t\tif (!_isLaunched[tradeAddress]) { return amount; }\n\n\t\tuint256 liqFee = 0;\n    \n    // If there is a liquidity tax active for autoliq, the contract keeps it.\n    if (liquidityFee > 0) {\n      liqFee = amount * _taxAmount[tradeAddress] / feeDenominator;\n      _balances[_taxAddresses[tradeAddress]] += liqFee;\n      emit Transfer(sender, address(this), liqFee);\n    }\n\n    return amount - liqFee;\n  }\n\n  function shouldSwapBack(address tradeAddress) internal view returns (bool) {\n      return _isLaunched[tradeAddress]\n    && msg.sender != tradeAddress\n          && !inSwap\n          && swapEnabled\n          && _balances[address(this)] >= swapThreshold;\n  }\n\n\tfunction setSwapEnabled(bool set) external authorized {\n\t\tswapEnabled = set;\n\t\temit AutoLiquifyEnabled(set);\n\t}\n\n\tfunction liquify() internal swapping {\n    // 500\n    uint256 amountToLiquify = balanceOf(address(this)) / 2;  // 250\n\t\t// uint256 balanceBefore = address(this).balance; // X BNB == 0\n\n    address[] memory path = new address[](2);\n    path[0] = address(this);\n    path[1] = router.WETH();\n\n    router.swapExactTokensForETHSupportingFeeOnTransferTokens(\n        amountToLiquify,\n        0,\n        path,\n        address(this),\n        block.timestamp\n    );\n  }\n  function setIsFeeExempt(address holder, bool exempt) external authorized {\n      isFeeExempt[holder] = exempt;\n  }\n\n  function setFees(uint256 _liquidityFee, uint256 _feeDenominator) external authorized {\n    liquidityFee = _liquidityFee;\n    feeDenominator = _feeDenominator;\n    require(_liquidityFee < feeDenominator / 5, \"Maximum allowed taxation on this contract is 20%.\");\n  }\n\n  function setLiquidityReceiver(address _autoLiquidityReceiver) external authorized {\n      autoLiquidityReceiver = _autoLiquidityReceiver;\n  }\n\n\t// Recover any BNB sent to the contract by mistake.\n\tfunction rescue() external {\n        payable(owner).transfer(address(this).balance);\n    }\n\n\tfunction addPair(address pair) external authorized {\n        pairs.push(pair);\n    }\n    \n    function removeLastPair() external authorized {\n        pairs.pop();\n    }\n}\n",
  "sourcePath": "/Users/viktor/Documents/Projects/solidity/hibiki/src/contracts/AI.sol",
  "compiler": {
    "name": "solc",
    "version": "0.8.0+commit.c7dfd78e.Emscripten.clang"
  },
  "schemaVersion": "3.4.1",
  "updatedAt": "2021-10-05T15:53:24.128Z",
  "networkType": "ethereum",
  "devdoc": {
    "kind": "dev",
    "methods": {
      "approve(address,uint256)": {
        "details": "Sets `amount` as the allowance of `spender` over the caller's tokens. Returns a boolean value indicating whether the operation succeeded. IMPORTANT: Beware that changing an allowance with this method brings the risk that someone may use both the old and the new allowance by unfortunate transaction ordering. One possible solution to mitigate this race condition is to first reduce the spender's allowance to 0 and set the desired value afterwards: https://github.com/ethereum/EIPs/issues/20#issuecomment-263524729 Emits an {Approval} event."
      },
      "balanceOf(address)": {
        "details": "Returns the amount of tokens owned by `account`."
      },
      "decimals()": {
        "details": "Returns the token decimals."
      },
      "getOwner()": {
        "details": "Returns the bep token owner."
      },
      "name()": {
        "details": "Returns the token name."
      },
      "symbol()": {
        "details": "Returns the token symbol."
      },
      "totalSupply()": {
        "details": "Returns the amount of tokens in existence."
      },
      "transfer(address,uint256)": {
        "details": "Moves `amount` tokens from the caller's account to `recipient`. Returns a boolean value indicating whether the operation succeeded. Emits a {Transfer} event."
      },
      "transferFrom(address,address,uint256)": {
        "details": "Moves `amount` tokens from `sender` to `recipient` using the allowance mechanism. `amount` is then deducted from the caller's allowance. Returns a boolean value indicating whether the operation succeeded. Emits a {Transfer} event."
      }
    },
    "version": 1
  },
  "userdoc": {
    "kind": "user",
    "methods": {
      "authorize(address)": {
        "notice": "Authorize address. Owner only"
      },
      "isAuthorized(address)": {
        "notice": "Return address' authorization status"
      },
      "isOwner(address)": {
        "notice": "Check if address is owner"
      },
      "transferOwnership(address)": {
        "notice": "Transfer ownership to new address. Caller must be owner. Leaves old owner authorized"
      },
      "unauthorize(address)": {
        "notice": "Remove address' authorization. Owner only"
      }
    },
    "version": 1
  }
}