{
  "contractName": "AIRouter",
  "abi": [
    {
      "inputs": [
        {
          "internalType": "address",
          "name": "ai",
          "type": "address"
        },
        {
          "internalType": "address",
          "name": "_pair",
          "type": "address"
        }
      ],
      "stateMutability": "nonpayable",
      "type": "constructor"
    },
    {
      "inputs": [],
      "name": "devBNBPool",
      "outputs": [
        {
          "internalType": "address",
          "name": "",
          "type": "address"
        }
      ],
      "stateMutability": "view",
      "type": "function",
      "constant": true
    },
    {
      "inputs": [],
      "name": "devBalance",
      "outputs": [
        {
          "internalType": "uint256",
          "name": "",
          "type": "uint256"
        }
      ],
      "stateMutability": "view",
      "type": "function",
      "constant": true
    },
    {
      "inputs": [],
      "name": "liqBalance",
      "outputs": [
        {
          "internalType": "uint256",
          "name": "",
          "type": "uint256"
        }
      ],
      "stateMutability": "view",
      "type": "function",
      "constant": true
    },
    {
      "inputs": [],
      "name": "rewardBalance",
      "outputs": [
        {
          "internalType": "uint256",
          "name": "",
          "type": "uint256"
        }
      ],
      "stateMutability": "view",
      "type": "function",
      "constant": true
    },
    {
      "inputs": [],
      "name": "rewardsBNBPool",
      "outputs": [
        {
          "internalType": "address",
          "name": "",
          "type": "address"
        }
      ],
      "stateMutability": "view",
      "type": "function",
      "constant": true
    },
    {
      "inputs": [],
      "name": "swapThreshold",
      "outputs": [
        {
          "internalType": "uint256",
          "name": "",
          "type": "uint256"
        }
      ],
      "stateMutability": "view",
      "type": "function",
      "constant": true
    },
    {
      "inputs": [],
      "name": "treasuryAddress",
      "outputs": [
        {
          "internalType": "address",
          "name": "",
          "type": "address"
        }
      ],
      "stateMutability": "view",
      "type": "function",
      "constant": true
    },
    {
      "inputs": [],
      "name": "treasuryBalance",
      "outputs": [
        {
          "internalType": "uint256",
          "name": "",
          "type": "uint256"
        }
      ],
      "stateMutability": "view",
      "type": "function",
      "constant": true
    },
    {
      "stateMutability": "payable",
      "type": "receive",
      "payable": true
    },
    {
      "inputs": [],
      "name": "isInSwap",
      "outputs": [
        {
          "internalType": "bool",
          "name": "",
          "type": "bool"
        }
      ],
      "stateMutability": "view",
      "type": "function",
      "constant": true
    },
    {
      "inputs": [],
      "name": "supportsDistribureFunction",
      "outputs": [
        {
          "internalType": "bool",
          "name": "",
          "type": "bool"
        }
      ],
      "stateMutability": "pure",
      "type": "function",
      "constant": true
    },
    {
      "inputs": [
        {
          "internalType": "uint256",
          "name": "amount",
          "type": "uint256"
        }
      ],
      "name": "distributeTax",
      "outputs": [],
      "stateMutability": "nonpayable",
      "type": "function"
    },
    {
      "inputs": [],
      "name": "liquifyBack",
      "outputs": [],
      "stateMutability": "nonpayable",
      "type": "function"
    },
    {
      "inputs": [
        {
          "internalType": "uint256[]",
          "name": "shares",
          "type": "uint256[]"
        }
      ],
      "name": "changeTaxShares",
      "outputs": [],
      "stateMutability": "nonpayable",
      "type": "function"
    },
    {
      "inputs": [
        {
          "internalType": "uint256[]",
          "name": "shares",
          "type": "uint256[]"
        }
      ],
      "name": "changeRoyaltyShares",
      "outputs": [],
      "stateMutability": "nonpayable",
      "type": "function"
    },
    {
      "inputs": [
        {
          "internalType": "address[]",
          "name": "addreses",
          "type": "address[]"
        }
      ],
      "name": "changeDistributionAddresses",
      "outputs": [],
      "stateMutability": "nonpayable",
      "type": "function"
    },
    {
      "inputs": [
        {
          "internalType": "uint256",
          "name": "newValue",
          "type": "uint256"
        }
      ],
      "name": "changeSwapThresholdAmount",
      "outputs": [],
      "stateMutability": "nonpayable",
      "type": "function"
    },
    {
      "inputs": [
        {
          "internalType": "address",
          "name": "newRouterAddress",
          "type": "address"
        }
      ],
      "name": "changeRouterAddress",
      "outputs": [],
      "stateMutability": "nonpayable",
      "type": "function"
    },
    {
      "inputs": [
        {
          "internalType": "address",
          "name": "newLpAddress",
          "type": "address"
        }
      ],
      "name": "changeLpLockAddress",
      "outputs": [],
      "stateMutability": "nonpayable",
      "type": "function"
    },
    {
      "inputs": [
        {
          "internalType": "address",
          "name": "ai",
          "type": "address"
        }
      ],
      "name": "changeAiAddress",
      "outputs": [],
      "stateMutability": "nonpayable",
      "type": "function"
    },
    {
      "inputs": [
        {
          "internalType": "address payable",
          "name": "adr",
          "type": "address"
        }
      ],
      "name": "transferOwnership",
      "outputs": [],
      "stateMutability": "nonpayable",
      "type": "function"
    },
    {
      "inputs": [
        {
          "internalType": "address",
          "name": "adr",
          "type": "address"
        }
      ],
      "name": "authorize",
      "outputs": [],
      "stateMutability": "nonpayable",
      "type": "function"
    },
    {
      "inputs": [
        {
          "internalType": "address",
          "name": "adr",
          "type": "address"
        }
      ],
      "name": "unauthorize",
      "outputs": [],
      "stateMutability": "nonpayable",
      "type": "function"
    }
  ],
  "bytecode": "0x6080604052733380ae82e39e42ca34ebed69af67faa0683bb5c1600160006101000a81548173ffffffffffffffffffffffffffffffffffffffff021916908373ffffffffffffffffffffffffffffffffffffffff16021790555030600260006101000a81548173ffffffffffffffffffffffffffffffffffffffff021916908373ffffffffffffffffffffffffffffffffffffffff1602179055506001600460156101000a81548160ff0219169083151502179055506064600555601e6006556801158e460913d00000600755603260085560146009556014600a55600a600b556014600c55601e600d556028600e55600a600f556000601055600060115560006012556000601355739423bbab02a50541c3ecf9f4c659ed6ea332af42601460006101000a81548173ffffffffffffffffffffffffffffffffffffffff021916908373ffffffffffffffffffffffffffffffffffffffff160217905550739423bbab02a50541c3ecf9f4c659ed6ea332af42601560006101000a81548173ffffffffffffffffffffffffffffffffffffffff021916908373ffffffffffffffffffffffffffffffffffffffff160217905550735f55507507c8754b80c08a9791c46ffc15482f99601660006101000a81548173ffffffffffffffffffffffffffffffffffffffff021916908373ffffffffffffffffffffffffffffffffffffffff160217905550600160009054906101000a900473ffffffffffffffffffffffffffffffffffffffff16601860006101000a81548173ffffffffffffffffffffffffffffffffffffffff021916908373ffffffffffffffffffffffffffffffffffffffff1602179055503480156200027757600080fd5b50604051620041363803806200413683398181016040528101906200029d919062000846565b33600360006101000a81548173ffffffffffffffffffffffffffffffffffffffff021916908373ffffffffffffffffffffffffffffffffffffffff16021790555062000311600360009054906101000a900473ffffffffffffffffffffffffffffffffffffffff166200046360201b60201c565b62000322826200055160201b60201c565b601760009054906101000a900473ffffffffffffffffffffffffffffffffffffffff1673ffffffffffffffffffffffffffffffffffffffff1663095ea7b3601860009054906101000a900473ffffffffffffffffffffffffffffffffffffffff167fffffffffffffffffffffffffffffffffffffffffffffffffffffffffffffffff6040518363ffffffff1660e01b8152600401620003c3929190620009e4565b602060405180830381600087803b158015620003de57600080fd5b505af1158015620003f3573d6000803e3d6000fd5b505050506040513d601f19601f8201168201806040525081019062000419919062000887565b5080600460006101000a81548173ffffffffffffffffffffffffffffffffffffffff021916908373ffffffffffffffffffffffffffffffffffffffff160217905550505062000b20565b600360009054906101000a900473ffffffffffffffffffffffffffffffffffffffff1673ffffffffffffffffffffffffffffffffffffffff163373ffffffffffffffffffffffffffffffffffffffff1614620004f6576040517f08c379a0000000000000000000000000000000000000000000000000000000008152600401620004ed9062000a55565b60405180910390fd5b6001601960008373ffffffffffffffffffffffffffffffffffffffff1673ffffffffffffffffffffffffffffffffffffffff16815260200190815260200160002060006101000a81548160ff02191690831515021790555050565b600360009054906101000a900473ffffffffffffffffffffffffffffffffffffffff1673ffffffffffffffffffffffffffffffffffffffff163373ffffffffffffffffffffffffffffffffffffffff1614620005e4576040517f08c379a0000000000000000000000000000000000000000000000000000000008152600401620005db9062000a55565b60405180910390fd5b600073ffffffffffffffffffffffffffffffffffffffff168173ffffffffffffffffffffffffffffffffffffffff16141562000657576040517f08c379a00000000000000000000000000000000000000000000000000000000081526004016200064e9062000a11565b60405180910390fd5b60008173ffffffffffffffffffffffffffffffffffffffff166370a0823160006040518263ffffffff1660e01b8152600401620006959190620009c7565b60206040518083038186803b158015620006ae57600080fd5b505afa158015620006c3573d6000803e3d6000fd5b505050506040513d601f19601f82011682018060405250810190620006e99190620008b3565b146200072c576040517f08c379a0000000000000000000000000000000000000000000000000000000008152600401620007239062000a33565b60405180910390fd5b806000806101000a81548173ffffffffffffffffffffffffffffffffffffffff021916908373ffffffffffffffffffffffffffffffffffffffff16021790555060008054906101000a900473ffffffffffffffffffffffffffffffffffffffff16601760006101000a81548173ffffffffffffffffffffffffffffffffffffffff021916908373ffffffffffffffffffffffffffffffffffffffff160217905550620007fe60008054906101000a900473ffffffffffffffffffffffffffffffffffffffff166200046360201b60201c565b50565b600081519050620008128162000ad2565b92915050565b600081519050620008298162000aec565b92915050565b600081519050620008408162000b06565b92915050565b600080604083850312156200085a57600080fd5b60006200086a8582860162000801565b92505060206200087d8582860162000801565b9150509250929050565b6000602082840312156200089a57600080fd5b6000620008aa8482850162000818565b91505092915050565b600060208284031215620008c657600080fd5b6000620008d6848285016200082f565b91505092915050565b620008ea8162000a88565b82525050565b6000620008ff60198362000a77565b91507f53686f756c64206e6f74206265206120302061646472657373000000000000006000830152602082019050919050565b60006200094160108362000a77565b91507f4e6f742076616c696420726f75746572000000000000000000000000000000006000830152602082019050919050565b60006200098360068362000a77565b91507f214f574e455200000000000000000000000000000000000000000000000000006000830152602082019050919050565b620009c18162000ac8565b82525050565b6000602082019050620009de6000830184620008df565b92915050565b6000604082019050620009fb6000830185620008df565b62000a0a6020830184620009b6565b9392505050565b6000602082019050818103600083015262000a2c81620008f0565b9050919050565b6000602082019050818103600083015262000a4e8162000932565b9050919050565b6000602082019050818103600083015262000a708162000974565b9050919050565b600082825260208201905092915050565b600062000a958262000aa8565b9050919050565b60008115159050919050565b600073ffffffffffffffffffffffffffffffffffffffff82169050919050565b6000819050919050565b62000add8162000a88565b811462000ae957600080fd5b50565b62000af78162000a9c565b811462000b0357600080fd5b50565b62000b118162000ac8565b811462000b1d57600080fd5b50565b6136068062000b306000396000f3fe6080604052600436106101395760003560e01c8063b2c2c5c7116100ab578063cd9a1b631161006f578063cd9a1b63146103f0578063d3bb8e141461041b578063d5f8f88114610446578063f0b37c041461046f578063f2fde38b14610498578063fef68c3c146104c15761015d565b8063b2c2c5c71461031f578063b4de0b2c14610348578063b6a5d7de14610371578063c5f956af1461039a578063cc996899146103c55761015d565b806333a069e3116100fd57806333a069e3146102215780633f79ba521461024c57806343e9618c146102775780637503d78a146102a05780639051cb65146102c9578063aa5c3ab4146102f45761015d565b80630445b6671461016257806304db6e681461018d5780631a39150c146101b65780631c7e1927146101cd578063313dab20146101f65761015d565b3661015d57600460149054906101000a900460ff1661015b5761015a6104ea565b5b005b600080fd5b34801561016e57600080fd5b50610177610688565b60405161018491906131d5565b60405180910390f35b34801561019957600080fd5b506101b460048036038101906101af9190612a95565b61068e565b005b3480156101c257600080fd5b506101cb6108b2565b005b3480156101d957600080fd5b506101f460048036038101906101ef9190612bbb565b6109a6565b005b34801561020257600080fd5b5061020b610a8b565b60405161021891906131d5565b60405180910390f35b34801561022d57600080fd5b50610236610a91565b6040516102439190612fa9565b60405180910390f35b34801561025857600080fd5b50610261610ab7565b60405161026e9190612fa9565b60405180910390f35b34801561028357600080fd5b5061029e60048036038101906102999190612bbb565b610add565b005b3480156102ac57600080fd5b506102c760048036038101906102c29190612a95565b610b92565b005b3480156102d557600080fd5b506102de610e2b565b6040516102eb91906131d5565b60405180910390f35b34801561030057600080fd5b50610309610e31565b60405161031691906131d5565b60405180910390f35b34801561032b57600080fd5b5061034660048036038101906103419190612b51565b610e37565b005b34801561035457600080fd5b5061036f600480360381019061036a9190612b51565b611037565b005b34801561037d57600080fd5b5061039860048036038101906103939190612a95565b611237565b005b3480156103a657600080fd5b506103af611322565b6040516103bc9190612fa9565b60405180910390f35b3480156103d157600080fd5b506103da611348565b6040516103e7919061304e565b60405180910390f35b3480156103fc57600080fd5b5061040561135f565b60405161041291906131d5565b60405180910390f35b34801561042757600080fd5b50610430611365565b60405161043d919061304e565b60405180910390f35b34801561045257600080fd5b5061046d60048036038101906104689190612b10565b61136e565b005b34801561047b57600080fd5b5061049660048036038101906104919190612a95565b6115cb565b005b3480156104a457600080fd5b506104bf60048036038101906104ba9190612ae7565b6116b6565b005b3480156104cd57600080fd5b506104e860048036038101906104e39190612a95565b611874565b005b6000349050600061050d6105086002846119b890919063ffffffff16565b6119ce565b90506000610530610528600284611dfc90919063ffffffff16565b600c54611e12565b9050600061055361054b600285611dfc90919063ffffffff16565b600d54611e12565b9050600061056385600e54611e12565b9050600061057386600f54611e12565b90508360106000828254610587919061331d565b92505081905550601760009054906101000a900473ffffffffffffffffffffffffffffffffffffffff1673ffffffffffffffffffffffffffffffffffffffff16637a5aec44601660009054906101000a900473ffffffffffffffffffffffffffffffffffffffff16856040518363ffffffff1660e01b815260040161060d929190612fc4565b602060405180830381600087803b15801561062757600080fd5b505af115801561063b573d6000803e3d6000fd5b505050506040513d601f19601f8201168201806040525081019061065f9190612b92565b5061066a8282611e42565b610672611f2c565b156106805761067f611fc6565b5b505050505050565b60075481565b600360009054906101000a900473ffffffffffffffffffffffffffffffffffffffff1673ffffffffffffffffffffffffffffffffffffffff163373ffffffffffffffffffffffffffffffffffffffff161461071e576040517f08c379a000000000000000000000000000000000000000000000000000000000815260040161071590613155565b60405180910390fd5b600073ffffffffffffffffffffffffffffffffffffffff168173ffffffffffffffffffffffffffffffffffffffff1663ad5c46486040518163ffffffff1660e01b815260040160206040518083038186803b15801561077c57600080fd5b505afa158015610790573d6000803e3d6000fd5b505050506040513d601f19601f820116820180604052508101906107b49190612abe565b73ffffffffffffffffffffffffffffffffffffffff16141561080b576040517f08c379a000000000000000000000000000000000000000000000000000000000815260040161080290613195565b60405180910390fd5b80600160006101000a81548173ffffffffffffffffffffffffffffffffffffffff021916908373ffffffffffffffffffffffffffffffffffffffff160217905550600160009054906101000a900473ffffffffffffffffffffffffffffffffffffffff16601860006101000a81548173ffffffffffffffffffffffffffffffffffffffff021916908373ffffffffffffffffffffffffffffffffffffffff16021790555050565b601760009054906101000a900473ffffffffffffffffffffffffffffffffffffffff1673ffffffffffffffffffffffffffffffffffffffff16637a5aec44601660009054906101000a900473ffffffffffffffffffffffffffffffffffffffff166013546040518363ffffffff1660e01b8152600401610933929190612fc4565b602060405180830381600087803b15801561094d57600080fd5b505af1158015610961573d6000803e3d6000fd5b505050506040513d601f19601f820116820180604052508101906109859190612b92565b506000601381905550610996611f2c565b156109a4576109a3611fc6565b5b565b600360009054906101000a900473ffffffffffffffffffffffffffffffffffffffff1673ffffffffffffffffffffffffffffffffffffffff163373ffffffffffffffffffffffffffffffffffffffff1614610a36576040517f08c379a0000000000000000000000000000000000000000000000000000000008152600401610a2d90613155565b60405180910390fd5b670de0b6b3a7640000811015610a81576040517f08c379a0000000000000000000000000000000000000000000000000000000008152600401610a78906131b5565b60405180910390fd5b8060078190555050565b60135481565b601560009054906101000a900473ffffffffffffffffffffffffffffffffffffffff1681565b601460009054906101000a900473ffffffffffffffffffffffffffffffffffffffff1681565b6000811115610b8f576000610af482600854611e12565b90506000610b0483600a54611e12565b90506000610b1484600b54611e12565b90506000610b2485600954611e12565b90508360106000828254610b38919061331d565b925050819055508260116000828254610b51919061331d565b925050819055508160126000828254610b6a919061331d565b925050819055508060136000828254610b83919061331d565b92505081905550505050505b50565b600360009054906101000a900473ffffffffffffffffffffffffffffffffffffffff1673ffffffffffffffffffffffffffffffffffffffff163373ffffffffffffffffffffffffffffffffffffffff1614610c22576040517f08c379a0000000000000000000000000000000000000000000000000000000008152600401610c1990613155565b60405180910390fd5b600073ffffffffffffffffffffffffffffffffffffffff168173ffffffffffffffffffffffffffffffffffffffff161415610c92576040517f08c379a0000000000000000000000000000000000000000000000000000000008152600401610c89906130d5565b60405180910390fd5b60008173ffffffffffffffffffffffffffffffffffffffff166370a0823160006040518263ffffffff1660e01b8152600401610cce9190612fa9565b60206040518083038186803b158015610ce657600080fd5b505afa158015610cfa573d6000803e3d6000fd5b505050506040513d601f19601f82011682018060405250810190610d1e9190612be4565b14610d5e576040517f08c379a0000000000000000000000000000000000000000000000000000000008152600401610d5590613115565b60405180910390fd5b806000806101000a81548173ffffffffffffffffffffffffffffffffffffffff021916908373ffffffffffffffffffffffffffffffffffffffff16021790555060008054906101000a900473ffffffffffffffffffffffffffffffffffffffff16601760006101000a81548173ffffffffffffffffffffffffffffffffffffffff021916908373ffffffffffffffffffffffffffffffffffffffff160217905550610e2860008054906101000a900473ffffffffffffffffffffffffffffffffffffffff16611237565b50565b60105481565b60115481565b600360009054906101000a900473ffffffffffffffffffffffffffffffffffffffff1673ffffffffffffffffffffffffffffffffffffffff163373ffffffffffffffffffffffffffffffffffffffff1614610ec7576040517f08c379a0000000000000000000000000000000000000000000000000000000008152600401610ebe90613155565b60405180910390fd5b6004815114610f0b576040517f08c379a0000000000000000000000000000000000000000000000000000000008152600401610f02906130b5565b60405180910390fd5b610f148161223e565b80600081518110610f4e577f4e487b7100000000000000000000000000000000000000000000000000000000600052603260045260246000fd5b6020026020010151600c8190555080600181518110610f96577f4e487b7100000000000000000000000000000000000000000000000000000000600052603260045260246000fd5b6020026020010151600d8190555080600281518110610fde577f4e487b7100000000000000000000000000000000000000000000000000000000600052603260045260246000fd5b6020026020010151600e8190555080600381518110611026577f4e487b7100000000000000000000000000000000000000000000000000000000600052603260045260246000fd5b6020026020010151600f8190555050565b600360009054906101000a900473ffffffffffffffffffffffffffffffffffffffff1673ffffffffffffffffffffffffffffffffffffffff163373ffffffffffffffffffffffffffffffffffffffff16146110c7576040517f08c379a00000000000000000000000000000000000000000000000000000000081526004016110be90613155565b60405180910390fd5b600481511461110b576040517f08c379a0000000000000000000000000000000000000000000000000000000008152600401611102906130b5565b60405180910390fd5b6111148161223e565b8060008151811061114e577f4e487b7100000000000000000000000000000000000000000000000000000000600052603260045260246000fd5b602002602001015160088190555080600181518110611196577f4e487b7100000000000000000000000000000000000000000000000000000000600052603260045260246000fd5b6020026020010151600981905550806002815181106111de577f4e487b7100000000000000000000000000000000000000000000000000000000600052603260045260246000fd5b6020026020010151600a8190555080600381518110611226577f4e487b7100000000000000000000000000000000000000000000000000000000600052603260045260246000fd5b6020026020010151600b8190555050565b600360009054906101000a900473ffffffffffffffffffffffffffffffffffffffff1673ffffffffffffffffffffffffffffffffffffffff163373ffffffffffffffffffffffffffffffffffffffff16146112c7576040517f08c379a00000000000000000000000000000000000000000000000000000000081526004016112be90613155565b60405180910390fd5b6001601960008373ffffffffffffffffffffffffffffffffffffffff1673ffffffffffffffffffffffffffffffffffffffff16815260200190815260200160002060006101000a81548160ff02191690831515021790555050565b601660009054906101000a900473ffffffffffffffffffffffffffffffffffffffff1681565b6000600460149054906101000a900460ff16905090565b60125481565b60006001905090565b600360009054906101000a900473ffffffffffffffffffffffffffffffffffffffff1673ffffffffffffffffffffffffffffffffffffffff163373ffffffffffffffffffffffffffffffffffffffff16146113fe576040517f08c379a00000000000000000000000000000000000000000000000000000000081526004016113f590613155565b60405180910390fd5b6003815114611442576040517f08c379a000000000000000000000000000000000000000000000000000000000815260040161143990613135565b60405180910390fd5b8060008151811061147c577f4e487b7100000000000000000000000000000000000000000000000000000000600052603260045260246000fd5b6020026020010151601460006101000a81548173ffffffffffffffffffffffffffffffffffffffff021916908373ffffffffffffffffffffffffffffffffffffffff160217905550806001815181106114fe577f4e487b7100000000000000000000000000000000000000000000000000000000600052603260045260246000fd5b6020026020010151601560006101000a81548173ffffffffffffffffffffffffffffffffffffffff021916908373ffffffffffffffffffffffffffffffffffffffff16021790555080600281518110611580577f4e487b7100000000000000000000000000000000000000000000000000000000600052603260045260246000fd5b6020026020010151601660006101000a81548173ffffffffffffffffffffffffffffffffffffffff021916908373ffffffffffffffffffffffffffffffffffffffff16021790555050565b600360009054906101000a900473ffffffffffffffffffffffffffffffffffffffff1673ffffffffffffffffffffffffffffffffffffffff163373ffffffffffffffffffffffffffffffffffffffff161461165b576040517f08c379a000000000000000000000000000000000000000000000000000000000815260040161165290613155565b60405180910390fd5b6000601960008373ffffffffffffffffffffffffffffffffffffffff1673ffffffffffffffffffffffffffffffffffffffff16815260200190815260200160002060006101000a81548160ff02191690831515021790555050565b600360009054906101000a900473ffffffffffffffffffffffffffffffffffffffff1673ffffffffffffffffffffffffffffffffffffffff163373ffffffffffffffffffffffffffffffffffffffff1614611746576040517f08c379a000000000000000000000000000000000000000000000000000000000815260040161173d90613155565b60405180910390fd5b600073ffffffffffffffffffffffffffffffffffffffff168173ffffffffffffffffffffffffffffffffffffffff1614156117b6576040517f08c379a00000000000000000000000000000000000000000000000000000000081526004016117ad906130d5565b60405180910390fd5b80600360006101000a81548173ffffffffffffffffffffffffffffffffffffffff021916908373ffffffffffffffffffffffffffffffffffffffff160217905550600160196000600360009054906101000a900473ffffffffffffffffffffffffffffffffffffffff1673ffffffffffffffffffffffffffffffffffffffff1673ffffffffffffffffffffffffffffffffffffffff16815260200190815260200160002060006101000a81548160ff02191690831515021790555050565b600360009054906101000a900473ffffffffffffffffffffffffffffffffffffffff1673ffffffffffffffffffffffffffffffffffffffff163373ffffffffffffffffffffffffffffffffffffffff1614611904576040517f08c379a00000000000000000000000000000000000000000000000000000000081526004016118fb90613155565b60405180910390fd5b600073ffffffffffffffffffffffffffffffffffffffff168173ffffffffffffffffffffffffffffffffffffffff161415611974576040517f08c379a000000000000000000000000000000000000000000000000000000000815260040161196b90613175565b60405180910390fd5b80600260006101000a81548173ffffffffffffffffffffffffffffffffffffffff021916908373ffffffffffffffffffffffffffffffffffffffff16021790555050565b600081836119c69190613373565b905092915050565b600080601760009054906101000a900473ffffffffffffffffffffffffffffffffffffffff1673ffffffffffffffffffffffffffffffffffffffff166370a08231306040518263ffffffff1660e01b8152600401611a2c9190612fa9565b60206040518083038186803b158015611a4457600080fd5b505afa158015611a58573d6000803e3d6000fd5b505050506040513d601f19601f82011682018060405250810190611a7c9190612be4565b90506000600267ffffffffffffffff811115611ac1577f4e487b7100000000000000000000000000000000000000000000000000000000600052604160045260246000fd5b604051908082528060200260200182016040528015611aef5781602001602082028036833780820191505090505b509050601860009054906101000a900473ffffffffffffffffffffffffffffffffffffffff1673ffffffffffffffffffffffffffffffffffffffff1663ad5c46486040518163ffffffff1660e01b815260040160206040518083038186803b158015611b5a57600080fd5b505afa158015611b6e573d6000803e3d6000fd5b505050506040513d601f19601f82011682018060405250810190611b929190612abe565b81600081518110611bcc577f4e487b7100000000000000000000000000000000000000000000000000000000600052603260045260246000fd5b602002602001019073ffffffffffffffffffffffffffffffffffffffff16908173ffffffffffffffffffffffffffffffffffffffff168152505060008054906101000a900473ffffffffffffffffffffffffffffffffffffffff1681600181518110611c61577f4e487b7100000000000000000000000000000000000000000000000000000000600052603260045260246000fd5b602002602001019073ffffffffffffffffffffffffffffffffffffffff16908173ffffffffffffffffffffffffffffffffffffffff1681525050601860009054906101000a900473ffffffffffffffffffffffffffffffffffffffff1673ffffffffffffffffffffffffffffffffffffffff1663b6f9de958560008430426040518663ffffffff1660e01b8152600401611cfe9493929190613069565b6000604051808303818588803b158015611d1757600080fd5b505af1158015611d2b573d6000803e3d6000fd5b50505050506000611def83601760009054906101000a900473ffffffffffffffffffffffffffffffffffffffff1673ffffffffffffffffffffffffffffffffffffffff166370a08231306040518263ffffffff1660e01b8152600401611d919190612fa9565b60206040518083038186803b158015611da957600080fd5b505afa158015611dbd573d6000803e3d6000fd5b505050506040513d601f19601f82011682018060405250810190611de19190612be4565b6122f490919063ffffffff16565b9050809350505050919050565b60008183611e0a91906133a4565b905092915050565b6000611e3a6064611e2c8486611dfc90919063ffffffff16565b6119b890919063ffffffff16565b905092915050565b6000821115611eb557601460009054906101000a900473ffffffffffffffffffffffffffffffffffffffff1673ffffffffffffffffffffffffffffffffffffffff166108fc839081150290604051600060405180830381858888f19350505050158015611eb3573d6000803e3d6000fd5b505b6000811115611f2857601560009054906101000a900473ffffffffffffffffffffffffffffffffffffffff1673ffffffffffffffffffffffffffffffffffffffff166108fc829081150290604051600060405180830381858888f19350505050158015611f26573d6000803e3d6000fd5b505b5050565b600060075460105410158015611f4e5750600460159054906101000a900460ff165b8015611fa85750600460009054906101000a900473ffffffffffffffffffffffffffffffffffffffff1673ffffffffffffffffffffffffffffffffffffffff163373ffffffffffffffffffffffffffffffffffffffff1614155b8015611fc15750600460149054906101000a900460ff16155b905090565b6001600460146101000a81548160ff0219169083151502179055506000611feb61230a565b61200a5761200560026010546119b890919063ffffffff16565b61200e565b6010545b9050600061203b60125461202d6011548561231d90919063ffffffff16565b61231d90919063ffffffff16565b905060006120498230612333565b90506000612072836120648685611dfc90919063ffffffff16565b6119b890919063ffffffff16565b9050600061209d8461208f60115486611dfc90919063ffffffff16565b6119b890919063ffffffff16565b905060006120c8856120ba60125487611dfc90919063ffffffff16565b6119b890919063ffffffff16565b90506120d261230a565b1561214557601460009054906101000a900473ffffffffffffffffffffffffffffffffffffffff1673ffffffffffffffffffffffffffffffffffffffff166108fc849081150290604051600060405180830381858888f1935050505015801561213f573d6000803e3d6000fd5b50612150565b61214f868461263d565b5b61215a8282611e42565b601760009054906101000a900473ffffffffffffffffffffffffffffffffffffffff1673ffffffffffffffffffffffffffffffffffffffff166370a08231306040518263ffffffff1660e01b81526004016121b59190612fa9565b60206040518083038186803b1580156121cd57600080fd5b505afa1580156121e1573d6000803e3d6000fd5b505050506040513d601f19601f820116820180604052508101906122059190612be4565b601081905550600060118190555060006012819055505050505050506000600460146101000a81548160ff021916908315150217905550565b6000805b82518110156122ac57828181518110612284577f4e487b7100000000000000000000000000000000000000000000000000000000600052603260045260246000fd5b602002602001015182612297919061331d565b915080806122a49061349e565b915050612242565b50606481146122f0576040517f08c379a00000000000000000000000000000000000000000000000000000000081526004016122e7906130f5565b60405180910390fd5b5050565b6000818361230291906133fe565b905092915050565b600060065461231761273f565b11905090565b6000818361232b919061331d565b905092915050565b6000803073ffffffffffffffffffffffffffffffffffffffff163190506000600267ffffffffffffffff811115612393577f4e487b7100000000000000000000000000000000000000000000000000000000600052604160045260246000fd5b6040519080825280602002602001820160405280156123c15781602001602082028036833780820191505090505b50905060008054906101000a900473ffffffffffffffffffffffffffffffffffffffff168160008151811061241f577f4e487b7100000000000000000000000000000000000000000000000000000000600052603260045260246000fd5b602002602001019073ffffffffffffffffffffffffffffffffffffffff16908173ffffffffffffffffffffffffffffffffffffffff1681525050601860009054906101000a900473ffffffffffffffffffffffffffffffffffffffff1673ffffffffffffffffffffffffffffffffffffffff1663ad5c46486040518163ffffffff1660e01b815260040160206040518083038186803b1580156124c157600080fd5b505afa1580156124d5573d6000803e3d6000fd5b505050506040513d601f19601f820116820180604052508101906124f99190612abe565b81600181518110612533577f4e487b7100000000000000000000000000000000000000000000000000000000600052603260045260246000fd5b602002602001019073ffffffffffffffffffffffffffffffffffffffff16908173ffffffffffffffffffffffffffffffffffffffff1681525050601860009054906101000a900473ffffffffffffffffffffffffffffffffffffffff1673ffffffffffffffffffffffffffffffffffffffff1663791ac9478660008488426040518663ffffffff1660e01b81526004016125d19594939291906131f0565b600060405180830381600087803b1580156125eb57600080fd5b505af11580156125ff573d6000803e3d6000fd5b50505050600061262f833073ffffffffffffffffffffffffffffffffffffffff16316122f490919063ffffffff16565b905080935050505092915050565b601860009054906101000a900473ffffffffffffffffffffffffffffffffffffffff1673ffffffffffffffffffffffffffffffffffffffff1663f305d7198260008054906101000a900473ffffffffffffffffffffffffffffffffffffffff1685600080600260009054906101000a900473ffffffffffffffffffffffffffffffffffffffff16426040518863ffffffff1660e01b81526004016126e696959493929190612fed565b6060604051808303818588803b1580156126ff57600080fd5b505af1158015612713573d6000803e3d6000fd5b50505050506040513d601f19601f820116820180604052508101906127389190612c0d565b5050505050565b60006128e6601760009054906101000a900473ffffffffffffffffffffffffffffffffffffffff1673ffffffffffffffffffffffffffffffffffffffff166318160ddd6040518163ffffffff1660e01b815260040160206040518083038186803b1580156127ac57600080fd5b505afa1580156127c0573d6000803e3d6000fd5b505050506040513d601f19601f820116820180604052508101906127e49190612be4565b6128d86128c76002601760009054906101000a900473ffffffffffffffffffffffffffffffffffffffff1673ffffffffffffffffffffffffffffffffffffffff166370a08231600460009054906101000a900473ffffffffffffffffffffffffffffffffffffffff166040518263ffffffff1660e01b81526004016128699190612fa9565b60206040518083038186803b15801561288157600080fd5b505afa158015612895573d6000803e3d6000fd5b505050506040513d601f19601f820116820180604052508101906128b99190612be4565b611dfc90919063ffffffff16565b600554611dfc90919063ffffffff16565b6119b890919063ffffffff16565b905090565b60006128fe6128f98461327b565b61324a565b9050808382526020820190508285602086028201111561291d57600080fd5b60005b8581101561294d578161293388826129c3565b845260208401935060208301925050600181019050612920565b5050509392505050565b600061296a612965846132a7565b61324a565b9050808382526020820190508285602086028201111561298957600080fd5b60005b858110156129b9578161299f8882612a6b565b84526020840193506020830192505060018101905061298c565b5050509392505050565b6000813590506129d281613574565b92915050565b6000815190506129e781613574565b92915050565b6000813590506129fc8161358b565b92915050565b600082601f830112612a1357600080fd5b8135612a238482602086016128eb565b91505092915050565b600082601f830112612a3d57600080fd5b8135612a4d848260208601612957565b91505092915050565b600081519050612a65816135a2565b92915050565b600081359050612a7a816135b9565b92915050565b600081519050612a8f816135b9565b92915050565b600060208284031215612aa757600080fd5b6000612ab5848285016129c3565b91505092915050565b600060208284031215612ad057600080fd5b6000612ade848285016129d8565b91505092915050565b600060208284031215612af957600080fd5b6000612b07848285016129ed565b91505092915050565b600060208284031215612b2257600080fd5b600082013567ffffffffffffffff811115612b3c57600080fd5b612b4884828501612a02565b91505092915050565b600060208284031215612b6357600080fd5b600082013567ffffffffffffffff811115612b7d57600080fd5b612b8984828501612a2c565b91505092915050565b600060208284031215612ba457600080fd5b6000612bb284828501612a56565b91505092915050565b600060208284031215612bcd57600080fd5b6000612bdb84828501612a6b565b91505092915050565b600060208284031215612bf657600080fd5b6000612c0484828501612a80565b91505092915050565b600080600060608486031215612c2257600080fd5b6000612c3086828701612a80565b9350506020612c4186828701612a80565b9250506040612c5286828701612a80565b9150509250925092565b6000612c688383612c74565b60208301905092915050565b612c7d81613432565b82525050565b612c8c81613432565b82525050565b6000612c9d826132e3565b612ca781856132fb565b9350612cb2836132d3565b8060005b83811015612ce3578151612cca8882612c5c565b9750612cd5836132ee565b925050600181019050612cb6565b5085935050505092915050565b612cf981613456565b82525050565b612d088161348c565b82525050565b6000612d1b601f8361330c565b91507f57726f6e67206e756d626572206f66207368617265732070726f7669646564006000830152602082019050919050565b6000612d5b60198361330c565b91507f53686f756c64206e6f74206265206120302061646472657373000000000000006000830152602082019050919050565b6000612d9b60218361330c565b91507f546f74616c2073686172657320616d6f756e742073686f756c6420626520313060008301527f30000000000000000000000000000000000000000000000000000000000000006020830152604082019050919050565b6000612e0160108361330c565b91507f4e6f742076616c696420726f75746572000000000000000000000000000000006000830152602082019050919050565b6000612e4160208361330c565b91507f57726f6e67206e756d626572206f662077616c6c6574732070726f76696465646000830152602082019050919050565b6000612e8160068361330c565b91507f214f574e455200000000000000000000000000000000000000000000000000006000830152602082019050919050565b6000612ec160178361330c565b91507f73686f756c64206e6f74206265203020616464726573730000000000000000006000830152602082019050919050565b6000612f01601c8361330c565b91507f70726f766964652076616c696420726f757465722061646472657373000000006000830152602082019050919050565b6000612f4160298361330c565b91507f737761705468726573686f6c642063616e6e6f74206265206c6573732074686560008301527f6e203120746f6b656e00000000000000000000000000000000000000000000006020830152604082019050919050565b612fa381613482565b82525050565b6000602082019050612fbe6000830184612c83565b92915050565b6000604082019050612fd96000830185612c83565b612fe66020830184612f9a565b9392505050565b600060c0820190506130026000830189612c83565b61300f6020830188612f9a565b61301c6040830187612cff565b6130296060830186612cff565b6130366080830185612c83565b61304360a0830184612f9a565b979650505050505050565b60006020820190506130636000830184612cf0565b92915050565b600060808201905061307e6000830187612cff565b81810360208301526130908186612c92565b905061309f6040830185612c83565b6130ac6060830184612f9a565b95945050505050565b600060208201905081810360008301526130ce81612d0e565b9050919050565b600060208201905081810360008301526130ee81612d4e565b9050919050565b6000602082019050818103600083015261310e81612d8e565b9050919050565b6000602082019050818103600083015261312e81612df4565b9050919050565b6000602082019050818103600083015261314e81612e34565b9050919050565b6000602082019050818103600083015261316e81612e74565b9050919050565b6000602082019050818103600083015261318e81612eb4565b9050919050565b600060208201905081810360008301526131ae81612ef4565b9050919050565b600060208201905081810360008301526131ce81612f34565b9050919050565b60006020820190506131ea6000830184612f9a565b92915050565b600060a0820190506132056000830188612f9a565b6132126020830187612cff565b81810360408301526132248186612c92565b90506132336060830185612c83565b6132406080830184612f9a565b9695505050505050565b6000604051905081810181811067ffffffffffffffff8211171561327157613270613545565b5b8060405250919050565b600067ffffffffffffffff82111561329657613295613545565b5b602082029050602081019050919050565b600067ffffffffffffffff8211156132c2576132c1613545565b5b602082029050602081019050919050565b6000819050602082019050919050565b600081519050919050565b6000602082019050919050565b600082825260208201905092915050565b600082825260208201905092915050565b600061332882613482565b915061333383613482565b9250827fffffffffffffffffffffffffffffffffffffffffffffffffffffffffffffffff03821115613368576133676134e7565b5b828201905092915050565b600061337e82613482565b915061338983613482565b92508261339957613398613516565b5b828204905092915050565b60006133af82613482565b91506133ba83613482565b9250817fffffffffffffffffffffffffffffffffffffffffffffffffffffffffffffffff04831182151516156133f3576133f26134e7565b5b828202905092915050565b600061340982613482565b915061341483613482565b925082821015613427576134266134e7565b5b828203905092915050565b600061343d82613462565b9050919050565b600061344f82613462565b9050919050565b60008115159050919050565b600073ffffffffffffffffffffffffffffffffffffffff82169050919050565b6000819050919050565b600061349782613482565b9050919050565b60006134a982613482565b91507fffffffffffffffffffffffffffffffffffffffffffffffffffffffffffffffff8214156134dc576134db6134e7565b5b600182019050919050565b7f4e487b7100000000000000000000000000000000000000000000000000000000600052601160045260246000fd5b7f4e487b7100000000000000000000000000000000000000000000000000000000600052601260045260246000fd5b7f4e487b7100000000000000000000000000000000000000000000000000000000600052604160045260246000fd5b61357d81613432565b811461358857600080fd5b50565b61359481613444565b811461359f57600080fd5b50565b6135ab81613456565b81146135b657600080fd5b50565b6135c281613482565b81146135cd57600080fd5b5056fea2646970667358221220f1d4d1a93e8c47e6bb06301c7ef7b922e6d73ecbe3fde00e54b1f6ca8fcf8f6b64736f6c63430008000033",
  "immutableReferences": {},
  "source": "// SPDX-License-Identifier: MIT\n\npragma solidity ^0.8.0;\n\nimport \"./IDexRouter.sol\";\nimport \"./IBEP20.sol\";\nimport \"./SafeMath.sol\";\n\ncontract AIRouter {\n  using SafeMath for uint256;\n\n  address private _aiTokenAddress;\n  address private _routerAddress = 0x3380aE82e39E42Ca34EbEd69aF67fAa0683Bb5c1;\n  address private _lpLockAddress = address(this);\n  address private contractOwner;\n  address private pair;\n\n  bool private inSwap;\n  bool private swapEnabled = true;\n\n  uint256 private accuracy = 100;\n  uint256 private target = 30;\n  uint256 public swapThreshold = 20 * (10 ** 18); // 100 TOKENS\n  \n  uint256 private liqTaxShare = 50;\n  uint256 private treasuryTaxShare = 20;\n  uint256 private rewardTaxShare = 20;\n  uint256 private devTaxShare = 10;\n\n  uint256 private liqRoyaltyShare = 20;\n  uint256 private treasuryRoyaltyShare = 30;\n  uint256 private rewardRoyaltyShare = 40;\n  uint256 private devRoyaltyShare = 10;\n\n  uint256 public liqBalance = 0;\n  uint256 public rewardBalance = 0;\n  uint256 public devBalance = 0;\n  uint256 public treasuryBalance = 0;\n\n  address public rewardsBNBPool = 0x9423BbAb02a50541C3ecF9F4c659ED6EA332AF42;\n  address public devBNBPool = 0x9423BbAb02a50541C3ecF9F4c659ED6EA332AF42;\n  address public treasuryAddress = 0x5F55507507c8754b80c08A9791C46FfC15482F99;\n\n  IBEP20 private aiContract;\n  IDexRouter private router = IDexRouter(_routerAddress);\n\n  mapping (address => bool) internal authorizations;\n\n  constructor(address ai, address _pair) {\n    contractOwner = msg.sender;\n    authorize(contractOwner);\n    changeAiAddress(ai);\n\n    aiContract.approve(address(router), type(uint256).max);\n    pair = _pair;\n  }\n\n  receive() external payable {\n    if (!inSwap) {\n      _distributeRoyalties();\n    }\n  }\n  \n  /**\n  * Function modifier to require caller to be authorized\n  */\n  modifier authorized() {\n      require(authorizations[msg.sender], \"!AUTHORIZED\"); _;\n  }\n\n  /**\n  * Function modifier to require caller to be contract owner\n  */\n  modifier onlyOwner() {\n    require(msg.sender == contractOwner, \"!OWNER\"); _;\n  }\n\n  /**\n  * Function modifier to set inSwap to true while swapping\n  */\n  modifier swapping() {\n\t\tinSwap = true;\n\t\t_;\n\t  inSwap = false;\n\t}\n\n  function isInSwap() external view returns (bool) {\n    return inSwap;\n  }\n\n  function supportsDistribureFunction() external pure returns (bool) {\n    return true;\n  }\n\n  function _shouldSwapBack() private view returns (bool) {\n    return liqBalance >= swapThreshold\n      && swapEnabled\n      && msg.sender != pair\n      && !inSwap;\n  }\n\n  function addLiquidity(uint256 AI, uint256 BNB) private {\n    router.addLiquidityETH{value: BNB}(\n\t\t\t_aiTokenAddress,\n\t\t\tAI,\n\t\t\t0,\n\t\t\t0,\n\t\t\t_lpLockAddress,\n\t\t\tblock.timestamp\n\t\t);\n  }\n\n  function _swapAI(uint256 swapAmount, address sendBnbTo) private returns (uint256) {\n    uint256 balanceBeforeSwap = address(this).balance;\n    \n    address[] memory path = new address[](2);\n    path[0] = _aiTokenAddress;\n    path[1] = router.WETH();\n    \n    router.swapExactTokensForETHSupportingFeeOnTransferTokens(\n        swapAmount,\n        0,\n        path,\n        sendBnbTo,\n        block.timestamp\n    );\n\n    uint256 bnbReceived = address(this).balance.sub(balanceBeforeSwap);\n    return bnbReceived;\n  }\n\n  function _swapBNB(uint256 swapAmount) private returns (uint256) {\n    uint256 balanceBeforeSwap = aiContract.balanceOf(address(this));\n    \n    address[] memory path = new address[](2);\n    path[0] = router.WETH();\n    path[1] = _aiTokenAddress;\n    router.swapExactETHForTokensSupportingFeeOnTransferTokens{value: swapAmount}(0, path, address(this), block.timestamp);\n\n    uint256 aiReceived = aiContract.balanceOf(address(this)).sub(balanceBeforeSwap);\n    return aiReceived;\n  }\n\n  function _distributeFees(uint256 shareA, uint256 shareB) internal {\n    if (shareA > 0) { payable(rewardsBNBPool).transfer(shareA); }\n    if (shareB > 0) { payable(devBNBPool).transfer(shareB); }\n  }\n\n  function liquify() internal swapping {\n    uint256 aiForLiqToSwap = isOverLiquified() ? liqBalance : liqBalance.div(2);\n    uint256 aiToSwap = aiForLiqToSwap.add(rewardBalance).add(devBalance);\n\n    uint256 bnbReceived = _swapAI(aiToSwap, address(this));\n    uint256 bnbForLiq = bnbReceived.mul(aiForLiqToSwap).div(aiToSwap);\n    uint256 bnbForRewards = bnbReceived.mul(rewardBalance).div(aiToSwap);\n    uint256 bnbForDev = bnbReceived.mul(devBalance).div(aiToSwap);\n\n    if (isOverLiquified()) {\n      payable(rewardsBNBPool).transfer(bnbForLiq);\n    } else {\n      addLiquidity(aiForLiqToSwap, bnbForLiq);\n    }\n\n    _distributeFees(\n      bnbForRewards,\n      bnbForDev\n    );\n    \n    liqBalance = aiContract.balanceOf(address(this));\n    rewardBalance = 0;\n    devBalance = 0;\n  }\n\n  function _distributeRoyalties() internal {\n    uint256 receivedAmount = msg.value;\n    uint256 aiReceived = _swapBNB(receivedAmount.div(2));\n\n    uint256 aiForLiq = _calculateShare(aiReceived.mul(2), liqRoyaltyShare);\n    uint256 toAiTreasury = _calculateShare(aiReceived.mul(2), treasuryRoyaltyShare);\n    uint256 bnbToReward = _calculateShare(receivedAmount, rewardRoyaltyShare);\n    uint256 bnbToDev = _calculateShare(receivedAmount, devRoyaltyShare);\n\n    liqBalance += aiForLiq;\n    aiContract.basicTransfer(treasuryAddress, toAiTreasury);\n\n    _distributeFees(bnbToReward, bnbToDev);\n\n    if (_shouldSwapBack()) { liquify(); }\n  }\n  \n  // not finalised, waiting for the final calculations schema\n  function distributeTax(uint256 amount) external {\n    if (amount > 0) {\n      uint256 aiForLiq = _calculateShare(amount, liqTaxShare);\n      uint256 aiForRewards = _calculateShare(amount, rewardTaxShare);\n      uint256 aiForDev = _calculateShare(amount, devTaxShare);\n      uint256 toAiTreasury = _calculateShare(amount, treasuryTaxShare);\n\n      liqBalance += aiForLiq;\n      rewardBalance += aiForRewards;\n      devBalance += aiForDev;\n      treasuryBalance += toAiTreasury;\n    }\n  }\n  \n  function liquifyBack() external {\n    aiContract.basicTransfer(treasuryAddress, treasuryBalance);\n    treasuryBalance = 0;\n      \n    if (_shouldSwapBack()) { liquify(); }\n  }\n\n  function getLiquidityBacking() private view returns (uint256) {\n    return accuracy.mul(aiContract.balanceOf(pair).mul(2)).div(aiContract.totalSupply());\n  }\n  function isOverLiquified() private view returns (bool) {\n    return getLiquidityBacking() > target;\n  }\n\n  function _calculateShare(uint256 amount, uint256 share) private pure returns (uint256) {\n    return amount.mul(share).div(100);\n  }\n\n  function _validateShares(uint256[] memory shares) private pure {\n    uint256 shareSum = 0;\n    for (uint256 i = 0; i < shares.length; i++) {\n      shareSum += shares[i];\n    }\n    require(shareSum == 100, \"Total shares amount should be 100\");\n  }\n\n  function changeTaxShares(uint256[] memory shares) public onlyOwner {\n    require(shares.length == 4, 'Wrong number of shares provided');\n    _validateShares(shares);\n\n    liqTaxShare = shares[0];\n    treasuryTaxShare = shares[1];\n    rewardTaxShare = shares[2];\n    devTaxShare = shares[3];\n  }\n\n  function changeRoyaltyShares(uint256[] memory shares) public onlyOwner {\n    require(shares.length == 4, 'Wrong number of shares provided');\n    _validateShares(shares);\n\n    liqRoyaltyShare = shares[0];\n    treasuryRoyaltyShare = shares[1];\n    rewardRoyaltyShare = shares[2];\n    devRoyaltyShare = shares[3];\n  }\n\n  function changeDistributionAddresses(address[] memory addreses) public onlyOwner {\n    require(addreses.length == 3, 'Wrong number of wallets provided');\n\n    rewardsBNBPool = addreses[0];\n    devBNBPool = addreses[1];\n    treasuryAddress = addreses[2];\n  }\n\n  function changeSwapThresholdAmount(uint256 newValue) public onlyOwner {\n    require(newValue >= 1 * 10**18, 'swapThreshold cannot be less then 1 token');\n    swapThreshold = newValue;\n  }\n\n  function changeRouterAddress(address newRouterAddress) public onlyOwner {\n    require(IDexRouter(newRouterAddress).WETH() != address(0), 'provide valid router address');\n    _routerAddress = newRouterAddress;\n    router = IDexRouter(_routerAddress);\n  }\n\n  function changeLpLockAddress(address newLpAddress) public onlyOwner {\n    require(newLpAddress != address(0), 'should not be 0 address');\n    _lpLockAddress = newLpAddress;\n  }\n\n  /**\n  * @dev Only owner can call this function. Activates tax collection.\n  */\n  function changeAiAddress(address ai) public onlyOwner {\n    require(ai != address(0), 'Should not be a 0 address');\n    require(IBEP20(ai).balanceOf(address(0)) == 0, 'Not valid router'); // check the balanceOf method\n\n    _aiTokenAddress = ai;\n    aiContract = IBEP20(_aiTokenAddress);\n    authorize(_aiTokenAddress);\n  }\n\n  /**\n  * @dev Only owner can call this function. Transfer ownership to new address. Caller must be owner.\n  */\n  function transferOwnership(address payable adr) public onlyOwner {\n      require(adr != address(0), 'Should not be a 0 address');\n      contractOwner = adr;\n      authorizations[contractOwner] = true;\n  }\n  /**\n    * Authorize address. Owner only\n  */\n  function authorize(address adr) public onlyOwner {\n      authorizations[adr] = true;\n  }\n\n  /**\n    * Remove address' authorization. Owner only\n    */\n  function unauthorize(address adr) public onlyOwner {\n      authorizations[adr] = false;\n  }\n}",
  "sourcePath": "/Users/viktor/Documents/Projects/solidity/hibiki/src/contracts/AIRouter.sol",
  "compiler": {
    "name": "solc",
    "version": "0.8.0+commit.c7dfd78e.Emscripten.clang"
  },
  "schemaVersion": "3.4.1",
  "updatedAt": "2021-10-07T18:01:41.554Z",
  "networkType": "ethereum",
  "devdoc": {
    "kind": "dev",
    "methods": {
      "changeAiAddress(address)": {
        "details": "Only owner can call this function. Activates tax collection."
      },
      "transferOwnership(address)": {
        "details": "Only owner can call this function. Transfer ownership to new address. Caller must be owner."
      }
    },
    "version": 1
  },
  "userdoc": {
    "kind": "user",
    "methods": {
      "authorize(address)": {
        "notice": "Authorize address. Owner only"
      },
      "unauthorize(address)": {
        "notice": "Remove address' authorization. Owner only"
      }
    },
    "version": 1
  }
}