{
  "contractName": "AIRouter",
  "abi": [
    {
      "inputs": [
        {
          "internalType": "address",
          "name": "ai",
          "type": "address"
        }
      ],
      "stateMutability": "nonpayable",
      "type": "constructor"
    },
    {
      "inputs": [],
      "name": "devBNBPool",
      "outputs": [
        {
          "internalType": "address",
          "name": "",
          "type": "address"
        }
      ],
      "stateMutability": "view",
      "type": "function",
      "constant": true
    },
    {
      "inputs": [],
      "name": "devBalance",
      "outputs": [
        {
          "internalType": "uint256",
          "name": "",
          "type": "uint256"
        }
      ],
      "stateMutability": "view",
      "type": "function",
      "constant": true
    },
    {
      "inputs": [],
      "name": "devRoyaltyShare",
      "outputs": [
        {
          "internalType": "uint256",
          "name": "",
          "type": "uint256"
        }
      ],
      "stateMutability": "view",
      "type": "function",
      "constant": true
    },
    {
      "inputs": [],
      "name": "devTaxShare",
      "outputs": [
        {
          "internalType": "uint256",
          "name": "",
          "type": "uint256"
        }
      ],
      "stateMutability": "view",
      "type": "function",
      "constant": true
    },
    {
      "inputs": [],
      "name": "liqBalance",
      "outputs": [
        {
          "internalType": "uint256",
          "name": "",
          "type": "uint256"
        }
      ],
      "stateMutability": "view",
      "type": "function",
      "constant": true
    },
    {
      "inputs": [],
      "name": "liqRoyaltyShare",
      "outputs": [
        {
          "internalType": "uint256",
          "name": "",
          "type": "uint256"
        }
      ],
      "stateMutability": "view",
      "type": "function",
      "constant": true
    },
    {
      "inputs": [],
      "name": "liqTaxShare",
      "outputs": [
        {
          "internalType": "uint256",
          "name": "",
          "type": "uint256"
        }
      ],
      "stateMutability": "view",
      "type": "function",
      "constant": true
    },
    {
      "inputs": [],
      "name": "rewardBalance",
      "outputs": [
        {
          "internalType": "uint256",
          "name": "",
          "type": "uint256"
        }
      ],
      "stateMutability": "view",
      "type": "function",
      "constant": true
    },
    {
      "inputs": [],
      "name": "rewardRoyaltyShare",
      "outputs": [
        {
          "internalType": "uint256",
          "name": "",
          "type": "uint256"
        }
      ],
      "stateMutability": "view",
      "type": "function",
      "constant": true
    },
    {
      "inputs": [],
      "name": "rewardTaxShare",
      "outputs": [
        {
          "internalType": "uint256",
          "name": "",
          "type": "uint256"
        }
      ],
      "stateMutability": "view",
      "type": "function",
      "constant": true
    },
    {
      "inputs": [],
      "name": "rewardsBNBPool",
      "outputs": [
        {
          "internalType": "address",
          "name": "",
          "type": "address"
        }
      ],
      "stateMutability": "view",
      "type": "function",
      "constant": true
    },
    {
      "inputs": [],
      "name": "swapThreshold",
      "outputs": [
        {
          "internalType": "uint256",
          "name": "",
          "type": "uint256"
        }
      ],
      "stateMutability": "view",
      "type": "function",
      "constant": true
    },
    {
      "inputs": [],
      "name": "treasuryAddress",
      "outputs": [
        {
          "internalType": "address",
          "name": "",
          "type": "address"
        }
      ],
      "stateMutability": "view",
      "type": "function",
      "constant": true
    },
    {
      "inputs": [],
      "name": "treasuryBalance",
      "outputs": [
        {
          "internalType": "uint256",
          "name": "",
          "type": "uint256"
        }
      ],
      "stateMutability": "view",
      "type": "function",
      "constant": true
    },
    {
      "inputs": [],
      "name": "treasuryRoyaltyShare",
      "outputs": [
        {
          "internalType": "uint256",
          "name": "",
          "type": "uint256"
        }
      ],
      "stateMutability": "view",
      "type": "function",
      "constant": true
    },
    {
      "inputs": [],
      "name": "treasuryTaxShare",
      "outputs": [
        {
          "internalType": "uint256",
          "name": "",
          "type": "uint256"
        }
      ],
      "stateMutability": "view",
      "type": "function",
      "constant": true
    },
    {
      "stateMutability": "payable",
      "type": "receive",
      "payable": true
    },
    {
      "inputs": [],
      "name": "isInSwap",
      "outputs": [
        {
          "internalType": "bool",
          "name": "",
          "type": "bool"
        }
      ],
      "stateMutability": "view",
      "type": "function",
      "constant": true
    },
    {
      "inputs": [],
      "name": "supportsDistribureFunction",
      "outputs": [
        {
          "internalType": "bool",
          "name": "",
          "type": "bool"
        }
      ],
      "stateMutability": "pure",
      "type": "function",
      "constant": true
    },
    {
      "inputs": [
        {
          "internalType": "uint256",
          "name": "amount",
          "type": "uint256"
        }
      ],
      "name": "distributeTax",
      "outputs": [],
      "stateMutability": "nonpayable",
      "type": "function"
    },
    {
      "inputs": [],
      "name": "liquifyBack",
      "outputs": [],
      "stateMutability": "nonpayable",
      "type": "function"
    },
    {
      "inputs": [
        {
          "internalType": "uint256[]",
          "name": "shares",
          "type": "uint256[]"
        }
      ],
      "name": "changeTaxShares",
      "outputs": [],
      "stateMutability": "nonpayable",
      "type": "function"
    },
    {
      "inputs": [
        {
          "internalType": "uint256[]",
          "name": "shares",
          "type": "uint256[]"
        }
      ],
      "name": "changeRoyaltyShares",
      "outputs": [],
      "stateMutability": "nonpayable",
      "type": "function"
    },
    {
      "inputs": [
        {
          "internalType": "address",
          "name": "addr",
          "type": "address"
        }
      ],
      "name": "changeRewardAddress",
      "outputs": [],
      "stateMutability": "nonpayable",
      "type": "function"
    },
    {
      "inputs": [
        {
          "internalType": "address",
          "name": "addr",
          "type": "address"
        }
      ],
      "name": "changeDevAddress",
      "outputs": [],
      "stateMutability": "nonpayable",
      "type": "function"
    },
    {
      "inputs": [
        {
          "internalType": "address",
          "name": "addr",
          "type": "address"
        }
      ],
      "name": "changeTreasuryAddress",
      "outputs": [],
      "stateMutability": "nonpayable",
      "type": "function"
    },
    {
      "inputs": [
        {
          "internalType": "uint256",
          "name": "newValue",
          "type": "uint256"
        }
      ],
      "name": "changeSwapThresholdAmount",
      "outputs": [],
      "stateMutability": "nonpayable",
      "type": "function"
    },
    {
      "inputs": [
        {
          "internalType": "address",
          "name": "newRouterAddress",
          "type": "address"
        }
      ],
      "name": "changeRouterAddress",
      "outputs": [],
      "stateMutability": "nonpayable",
      "type": "function"
    },
    {
      "inputs": [
        {
          "internalType": "address",
          "name": "newLpAddress",
          "type": "address"
        }
      ],
      "name": "changeLpLockAddress",
      "outputs": [],
      "stateMutability": "nonpayable",
      "type": "function"
    },
    {
      "inputs": [
        {
          "internalType": "address",
          "name": "newPairAddress",
          "type": "address"
        }
      ],
      "name": "changePairAddress",
      "outputs": [],
      "stateMutability": "nonpayable",
      "type": "function"
    },
    {
      "inputs": [
        {
          "internalType": "address",
          "name": "ai",
          "type": "address"
        }
      ],
      "name": "changeAiAddress",
      "outputs": [],
      "stateMutability": "nonpayable",
      "type": "function"
    },
    {
      "inputs": [
        {
          "internalType": "address payable",
          "name": "adr",
          "type": "address"
        }
      ],
      "name": "transferOwnership",
      "outputs": [],
      "stateMutability": "nonpayable",
      "type": "function"
    },
    {
      "inputs": [
        {
          "internalType": "address",
          "name": "adr",
          "type": "address"
        }
      ],
      "name": "authorize",
      "outputs": [],
      "stateMutability": "nonpayable",
      "type": "function"
    },
    {
      "inputs": [
        {
          "internalType": "address",
          "name": "adr",
          "type": "address"
        }
      ],
      "name": "unauthorize",
      "outputs": [],
      "stateMutability": "nonpayable",
      "type": "function"
    },
    {
      "inputs": [],
      "name": "rescue",
      "outputs": [],
      "stateMutability": "nonpayable",
      "type": "function"
    }
  ],
  "bytecode": "0x6080604052733380ae82e39e42ca34ebed69af67faa0683bb5c1600160006101000a81548173ffffffffffffffffffffffffffffffffffffffff021916908373ffffffffffffffffffffffffffffffffffffffff16021790555030600260006101000a81548173ffffffffffffffffffffffffffffffffffffffff021916908373ffffffffffffffffffffffffffffffffffffffff1602179055506001600460156101000a81548160ff0219169083151502179055506064600555601e6006556802b5e3af16b1880000600755603260085560146009556014600a55600a600b556014600c55601e600d556028600e55600a600f556000601055600060115560006012556000601355739423bbab02a50541c3ecf9f4c659ed6ea332af42601460006101000a81548173ffffffffffffffffffffffffffffffffffffffff021916908373ffffffffffffffffffffffffffffffffffffffff160217905550739423bbab02a50541c3ecf9f4c659ed6ea332af42601560006101000a81548173ffffffffffffffffffffffffffffffffffffffff021916908373ffffffffffffffffffffffffffffffffffffffff160217905550735f55507507c8754b80c08a9791c46ffc15482f99601660006101000a81548173ffffffffffffffffffffffffffffffffffffffff021916908373ffffffffffffffffffffffffffffffffffffffff160217905550600160009054906101000a900473ffffffffffffffffffffffffffffffffffffffff16601860006101000a81548173ffffffffffffffffffffffffffffffffffffffff021916908373ffffffffffffffffffffffffffffffffffffffff1602179055503480156200027757600080fd5b506040516200480e3803806200480e83398181016040528101906200029d919062000804565b33600360006101000a81548173ffffffffffffffffffffffffffffffffffffffff021916908373ffffffffffffffffffffffffffffffffffffffff16021790555062000311600360009054906101000a900473ffffffffffffffffffffffffffffffffffffffff166200042160201b60201c565b62000322816200050f60201b60201c565b601760009054906101000a900473ffffffffffffffffffffffffffffffffffffffff1673ffffffffffffffffffffffffffffffffffffffff1663095ea7b3601860009054906101000a900473ffffffffffffffffffffffffffffffffffffffff167fffffffffffffffffffffffffffffffffffffffffffffffffffffffffffffffff6040518363ffffffff1660e01b8152600401620003c39291906200098d565b602060405180830381600087803b158015620003de57600080fd5b505af1158015620003f3573d6000803e3d6000fd5b505050506040513d601f19601f8201168201806040525081019062000419919062000830565b505062000ac9565b600360009054906101000a900473ffffffffffffffffffffffffffffffffffffffff1673ffffffffffffffffffffffffffffffffffffffff163373ffffffffffffffffffffffffffffffffffffffff1614620004b4576040517f08c379a0000000000000000000000000000000000000000000000000000000008152600401620004ab90620009fe565b60405180910390fd5b6001601960008373ffffffffffffffffffffffffffffffffffffffff1673ffffffffffffffffffffffffffffffffffffffff16815260200190815260200160002060006101000a81548160ff02191690831515021790555050565b600360009054906101000a900473ffffffffffffffffffffffffffffffffffffffff1673ffffffffffffffffffffffffffffffffffffffff163373ffffffffffffffffffffffffffffffffffffffff1614620005a2576040517f08c379a00000000000000000000000000000000000000000000000000000000081526004016200059990620009fe565b60405180910390fd5b600073ffffffffffffffffffffffffffffffffffffffff168173ffffffffffffffffffffffffffffffffffffffff16141562000615576040517f08c379a00000000000000000000000000000000000000000000000000000000081526004016200060c90620009ba565b60405180910390fd5b60008173ffffffffffffffffffffffffffffffffffffffff166370a0823160006040518263ffffffff1660e01b815260040162000653919062000970565b60206040518083038186803b1580156200066c57600080fd5b505afa15801562000681573d6000803e3d6000fd5b505050506040513d601f19601f82011682018060405250810190620006a791906200085c565b14620006ea576040517f08c379a0000000000000000000000000000000000000000000000000000000008152600401620006e190620009dc565b60405180910390fd5b806000806101000a81548173ffffffffffffffffffffffffffffffffffffffff021916908373ffffffffffffffffffffffffffffffffffffffff16021790555060008054906101000a900473ffffffffffffffffffffffffffffffffffffffff16601760006101000a81548173ffffffffffffffffffffffffffffffffffffffff021916908373ffffffffffffffffffffffffffffffffffffffff160217905550620007bc60008054906101000a900473ffffffffffffffffffffffffffffffffffffffff166200042160201b60201c565b50565b600081519050620007d08162000a7b565b92915050565b600081519050620007e78162000a95565b92915050565b600081519050620007fe8162000aaf565b92915050565b6000602082840312156200081757600080fd5b60006200082784828501620007bf565b91505092915050565b6000602082840312156200084357600080fd5b60006200085384828501620007d6565b91505092915050565b6000602082840312156200086f57600080fd5b60006200087f84828501620007ed565b91505092915050565b620008938162000a31565b82525050565b6000620008a860198362000a20565b91507f53686f756c64206e6f74206265206120302061646472657373000000000000006000830152602082019050919050565b6000620008ea60108362000a20565b91507f4e6f742076616c696420726f75746572000000000000000000000000000000006000830152602082019050919050565b60006200092c60068362000a20565b91507f214f574e455200000000000000000000000000000000000000000000000000006000830152602082019050919050565b6200096a8162000a71565b82525050565b600060208201905062000987600083018462000888565b92915050565b6000604082019050620009a4600083018562000888565b620009b360208301846200095f565b9392505050565b60006020820190508181036000830152620009d58162000899565b9050919050565b60006020820190508181036000830152620009f781620008db565b9050919050565b6000602082019050818103600083015262000a19816200091d565b9050919050565b600082825260208201905092915050565b600062000a3e8262000a51565b9050919050565b60008115159050919050565b600073ffffffffffffffffffffffffffffffffffffffff82169050919050565b6000819050919050565b62000a868162000a31565b811462000a9257600080fd5b50565b62000aa08162000a45565b811462000aac57600080fd5b50565b62000aba8162000a71565b811462000ac657600080fd5b50565b613d358062000ad96000396000f3fe6080604052600436106101fd5760003560e01c80639051cb651161010d578063ba857c93116100a0578063cd9a1b631161006f578063cd9a1b63146106c7578063d3bb8e14146106f2578063f0b37c041461071d578063f2fde38b14610746578063fef68c3c1461076f57610221565b8063ba857c931461061b578063c5f956af14610646578063cb78799b14610671578063cc9968991461069c57610221565b8063aa5c3ab4116100dc578063aa5c3ab414610575578063b2c2c5c7146105a0578063b4de0b2c146105c9578063b6a5d7de146105f257610221565b80639051cb65146104cd57806392b46390146104f8578063a31cd82214610521578063a6f353f01461054c57610221565b80632de34c30116101905780633f79ba521161015f5780633f79ba52146103fe57806343e9618c146104295780634d2aab9a146104525780637503d78a1461047b5780638873b15f146104a457610221565b80632de34c3014610352578063313dab201461037d57806333a069e3146103a85780633601388f146103d357610221565b80631c65ac3e116101cc5780631c65ac3e146102bc5780631c7e1927146102e75780631fbe1979146103105780632633cc501461032757610221565b80630445b6671461022657806304db6e68146102515780630c8b97451461027a5780631a39150c146102a557610221565b3661022157600460149054906101000a900460ff1661021f5761021e610798565b5b005b600080fd5b34801561023257600080fd5b5061023b610936565b6040516102489190613930565b60405180910390f35b34801561025d57600080fd5b5061027860048036038101906102739190613257565b61093c565b005b34801561028657600080fd5b5061028f610b60565b60405161029c9190613930565b60405180910390f35b3480156102b157600080fd5b506102ba610b66565b005b3480156102c857600080fd5b506102d1610ce8565b6040516102de9190613930565b60405180910390f35b3480156102f357600080fd5b5061030e6004803603810190610309919061333c565b610cee565b005b34801561031c57600080fd5b50610325610dd3565b005b34801561033357600080fd5b5061033c611087565b6040516103499190613930565b60405180910390f35b34801561035e57600080fd5b5061036761108d565b6040516103749190613930565b60405180910390f35b34801561038957600080fd5b50610392611093565b60405161039f9190613930565b60405180910390f35b3480156103b457600080fd5b506103bd611099565b6040516103ca9190613704565b60405180910390f35b3480156103df57600080fd5b506103e86110bf565b6040516103f59190613930565b60405180910390f35b34801561040a57600080fd5b506104136110c5565b6040516104209190613704565b60405180910390f35b34801561043557600080fd5b50610450600480360381019061044b919061333c565b6110eb565b005b34801561045e57600080fd5b5061047960048036038101906104749190613257565b61122e565b005b34801561048757600080fd5b506104a2600480360381019061049d9190613257565b611302565b005b3480156104b057600080fd5b506104cb60048036038101906104c69190613257565b61159b565b005b3480156104d957600080fd5b506104e26116df565b6040516104ef9190613930565b60405180910390f35b34801561050457600080fd5b5061051f600480360381019061051a9190613257565b6116e5565b005b34801561052d57600080fd5b506105366117b9565b6040516105439190613930565b60405180910390f35b34801561055857600080fd5b50610573600480360381019061056e9190613257565b6117bf565b005b34801561058157600080fd5b5061058a611893565b6040516105979190613930565b60405180910390f35b3480156105ac57600080fd5b506105c760048036038101906105c291906132d2565b611899565b005b3480156105d557600080fd5b506105f060048036038101906105eb91906132d2565b611ad9565b005b3480156105fe57600080fd5b5061061960048036038101906106149190613257565b611d19565b005b34801561062757600080fd5b50610630611e04565b60405161063d9190613930565b60405180910390f35b34801561065257600080fd5b5061065b611e0a565b6040516106689190613704565b60405180910390f35b34801561067d57600080fd5b50610686611e30565b6040516106939190613930565b60405180910390f35b3480156106a857600080fd5b506106b1611e36565b6040516106be91906137a9565b60405180910390f35b3480156106d357600080fd5b506106dc611e4d565b6040516106e99190613930565b60405180910390f35b3480156106fe57600080fd5b50610707611e53565b60405161071491906137a9565b60405180910390f35b34801561072957600080fd5b50610744600480360381019061073f9190613257565b611e5c565b005b34801561075257600080fd5b5061076d600480360381019061076891906132a9565b611f47565b005b34801561077b57600080fd5b5061079660048036038101906107919190613257565b612105565b005b600034905060006107bb6107b660028461224990919063ffffffff16565b61225f565b905060006107de6107d660028461268d90919063ffffffff16565b600c546126a3565b905060006108016107f960028561268d90919063ffffffff16565b600d546126a3565b9050600061081185600e546126a3565b9050600061082186600f546126a3565b905083601060008282546108359190613a4c565b92505081905550601760009054906101000a900473ffffffffffffffffffffffffffffffffffffffff1673ffffffffffffffffffffffffffffffffffffffff1663a9059cbb601660009054906101000a900473ffffffffffffffffffffffffffffffffffffffff16856040518363ffffffff1660e01b81526004016108bb92919061371f565b602060405180830381600087803b1580156108d557600080fd5b505af11580156108e9573d6000803e3d6000fd5b505050506040513d601f19601f8201168201806040525081019061090d9190613313565b5061091882826126d3565b6109206127bd565b1561092e5761092d612857565b5b505050505050565b60075481565b600360009054906101000a900473ffffffffffffffffffffffffffffffffffffffff1673ffffffffffffffffffffffffffffffffffffffff163373ffffffffffffffffffffffffffffffffffffffff16146109cc576040517f08c379a00000000000000000000000000000000000000000000000000000000081526004016109c390613890565b60405180910390fd5b600073ffffffffffffffffffffffffffffffffffffffff168173ffffffffffffffffffffffffffffffffffffffff1663ad5c46486040518163ffffffff1660e01b815260040160206040518083038186803b158015610a2a57600080fd5b505afa158015610a3e573d6000803e3d6000fd5b505050506040513d601f19601f82011682018060405250810190610a629190613280565b73ffffffffffffffffffffffffffffffffffffffff161415610ab9576040517f08c379a0000000000000000000000000000000000000000000000000000000008152600401610ab0906138f0565b60405180910390fd5b80600160006101000a81548173ffffffffffffffffffffffffffffffffffffffff021916908373ffffffffffffffffffffffffffffffffffffffff160217905550600160009054906101000a900473ffffffffffffffffffffffffffffffffffffffff16601860006101000a81548173ffffffffffffffffffffffffffffffffffffffff021916908373ffffffffffffffffffffffffffffffffffffffff16021790555050565b600b5481565b60008054906101000a900473ffffffffffffffffffffffffffffffffffffffff1673ffffffffffffffffffffffffffffffffffffffff163373ffffffffffffffffffffffffffffffffffffffff1614610bf4576040517f08c379a0000000000000000000000000000000000000000000000000000000008152600401610beb90613870565b60405180910390fd5b601760009054906101000a900473ffffffffffffffffffffffffffffffffffffffff1673ffffffffffffffffffffffffffffffffffffffff1663a9059cbb601660009054906101000a900473ffffffffffffffffffffffffffffffffffffffff166013546040518363ffffffff1660e01b8152600401610c7592919061371f565b602060405180830381600087803b158015610c8f57600080fd5b505af1158015610ca3573d6000803e3d6000fd5b505050506040513d601f19601f82011682018060405250810190610cc79190613313565b506000601381905550610cd86127bd565b15610ce657610ce5612857565b5b565b600d5481565b600360009054906101000a900473ffffffffffffffffffffffffffffffffffffffff1673ffffffffffffffffffffffffffffffffffffffff163373ffffffffffffffffffffffffffffffffffffffff1614610d7e576040517f08c379a0000000000000000000000000000000000000000000000000000000008152600401610d7590613890565b60405180910390fd5b670de0b6b3a7640000811015610dc9576040517f08c379a0000000000000000000000000000000000000000000000000000000008152600401610dc090613910565b60405180910390fd5b8060078190555050565b600360009054906101000a900473ffffffffffffffffffffffffffffffffffffffff1673ffffffffffffffffffffffffffffffffffffffff163373ffffffffffffffffffffffffffffffffffffffff1614610e63576040517f08c379a0000000000000000000000000000000000000000000000000000000008152600401610e5a90613890565b60405180910390fd5b60006010819055506000601181905550600060128190555060006013819055506000601760009054906101000a900473ffffffffffffffffffffffffffffffffffffffff1673ffffffffffffffffffffffffffffffffffffffff166370a08231306040518263ffffffff1660e01b8152600401610ee09190613704565b60206040518083038186803b158015610ef857600080fd5b505afa158015610f0c573d6000803e3d6000fd5b505050506040513d601f19601f82011682018060405250810190610f309190613365565b9050601760009054906101000a900473ffffffffffffffffffffffffffffffffffffffff1673ffffffffffffffffffffffffffffffffffffffff1663a9059cbb600360009054906101000a900473ffffffffffffffffffffffffffffffffffffffff16836040518363ffffffff1660e01b8152600401610fb192919061371f565b602060405180830381600087803b158015610fcb57600080fd5b505af1158015610fdf573d6000803e3d6000fd5b505050506040513d601f19601f820116820180604052508101906110039190613313565b50600360009054906101000a900473ffffffffffffffffffffffffffffffffffffffff1673ffffffffffffffffffffffffffffffffffffffff166108fc3073ffffffffffffffffffffffffffffffffffffffff16319081150290604051600060405180830381858888f19350505050158015611083573d6000803e3d6000fd5b5050565b60095481565b600c5481565b60135481565b601560009054906101000a900473ffffffffffffffffffffffffffffffffffffffff1681565b600a5481565b601460009054906101000a900473ffffffffffffffffffffffffffffffffffffffff1681565b60008054906101000a900473ffffffffffffffffffffffffffffffffffffffff1673ffffffffffffffffffffffffffffffffffffffff163373ffffffffffffffffffffffffffffffffffffffff1614611179576040517f08c379a000000000000000000000000000000000000000000000000000000000815260040161117090613870565b60405180910390fd5b600081111561122b576000611190826008546126a3565b905060006111a083600a546126a3565b905060006111b084600b546126a3565b905060006111c0856009546126a3565b905083601060008282546111d49190613a4c565b9250508190555082601160008282546111ed9190613a4c565b9250508190555081601260008282546112069190613a4c565b92505081905550806013600082825461121f9190613a4c565b92505081905550505050505b50565b600360009054906101000a900473ffffffffffffffffffffffffffffffffffffffff1673ffffffffffffffffffffffffffffffffffffffff163373ffffffffffffffffffffffffffffffffffffffff16146112be576040517f08c379a00000000000000000000000000000000000000000000000000000000081526004016112b590613890565b60405180910390fd5b80601460006101000a81548173ffffffffffffffffffffffffffffffffffffffff021916908373ffffffffffffffffffffffffffffffffffffffff16021790555050565b600360009054906101000a900473ffffffffffffffffffffffffffffffffffffffff1673ffffffffffffffffffffffffffffffffffffffff163373ffffffffffffffffffffffffffffffffffffffff1614611392576040517f08c379a000000000000000000000000000000000000000000000000000000000815260040161138990613890565b60405180910390fd5b600073ffffffffffffffffffffffffffffffffffffffff168173ffffffffffffffffffffffffffffffffffffffff161415611402576040517f08c379a00000000000000000000000000000000000000000000000000000000081526004016113f990613810565b60405180910390fd5b60008173ffffffffffffffffffffffffffffffffffffffff166370a0823160006040518263ffffffff1660e01b815260040161143e9190613704565b60206040518083038186803b15801561145657600080fd5b505afa15801561146a573d6000803e3d6000fd5b505050506040513d601f19601f8201168201806040525081019061148e9190613365565b146114ce576040517f08c379a00000000000000000000000000000000000000000000000000000000081526004016114c590613830565b60405180910390fd5b806000806101000a81548173ffffffffffffffffffffffffffffffffffffffff021916908373ffffffffffffffffffffffffffffffffffffffff16021790555060008054906101000a900473ffffffffffffffffffffffffffffffffffffffff16601760006101000a81548173ffffffffffffffffffffffffffffffffffffffff021916908373ffffffffffffffffffffffffffffffffffffffff16021790555061159860008054906101000a900473ffffffffffffffffffffffffffffffffffffffff16611d19565b50565b600360009054906101000a900473ffffffffffffffffffffffffffffffffffffffff1673ffffffffffffffffffffffffffffffffffffffff163373ffffffffffffffffffffffffffffffffffffffff161461162b576040517f08c379a000000000000000000000000000000000000000000000000000000000815260040161162290613890565b60405180910390fd5b600073ffffffffffffffffffffffffffffffffffffffff168173ffffffffffffffffffffffffffffffffffffffff16141561169b576040517f08c379a0000000000000000000000000000000000000000000000000000000008152600401611692906138b0565b60405180910390fd5b80600460006101000a81548173ffffffffffffffffffffffffffffffffffffffff021916908373ffffffffffffffffffffffffffffffffffffffff16021790555050565b60105481565b600360009054906101000a900473ffffffffffffffffffffffffffffffffffffffff1673ffffffffffffffffffffffffffffffffffffffff163373ffffffffffffffffffffffffffffffffffffffff1614611775576040517f08c379a000000000000000000000000000000000000000000000000000000000815260040161176c90613890565b60405180910390fd5b80601560006101000a81548173ffffffffffffffffffffffffffffffffffffffff021916908373ffffffffffffffffffffffffffffffffffffffff16021790555050565b600f5481565b600360009054906101000a900473ffffffffffffffffffffffffffffffffffffffff1673ffffffffffffffffffffffffffffffffffffffff163373ffffffffffffffffffffffffffffffffffffffff161461184f576040517f08c379a000000000000000000000000000000000000000000000000000000000815260040161184690613890565b60405180910390fd5b80601660006101000a81548173ffffffffffffffffffffffffffffffffffffffff021916908373ffffffffffffffffffffffffffffffffffffffff16021790555050565b60115481565b600360009054906101000a900473ffffffffffffffffffffffffffffffffffffffff1673ffffffffffffffffffffffffffffffffffffffff163373ffffffffffffffffffffffffffffffffffffffff1614611929576040517f08c379a000000000000000000000000000000000000000000000000000000000815260040161192090613890565b60405180910390fd5b60048151141561196e576040517f08c379a0000000000000000000000000000000000000000000000000000000008152600401611965906138d0565b60405180910390fd5b61197781612ab9565b6119b6576040517f08c379a00000000000000000000000000000000000000000000000000000000081526004016119ad90613850565b60405180910390fd5b806000815181106119f0577f4e487b7100000000000000000000000000000000000000000000000000000000600052603260045260246000fd5b6020026020010151600c8190555080600181518110611a38577f4e487b7100000000000000000000000000000000000000000000000000000000600052603260045260246000fd5b6020026020010151600d8190555080600281518110611a80577f4e487b7100000000000000000000000000000000000000000000000000000000600052603260045260246000fd5b6020026020010151600e8190555080600381518110611ac8577f4e487b7100000000000000000000000000000000000000000000000000000000600052603260045260246000fd5b6020026020010151600f8190555050565b600360009054906101000a900473ffffffffffffffffffffffffffffffffffffffff1673ffffffffffffffffffffffffffffffffffffffff163373ffffffffffffffffffffffffffffffffffffffff1614611b69576040517f08c379a0000000000000000000000000000000000000000000000000000000008152600401611b6090613890565b60405180910390fd5b600481511415611bae576040517f08c379a0000000000000000000000000000000000000000000000000000000008152600401611ba5906138d0565b60405180910390fd5b611bb781612ab9565b611bf6576040517f08c379a0000000000000000000000000000000000000000000000000000000008152600401611bed90613850565b60405180910390fd5b80600081518110611c30577f4e487b7100000000000000000000000000000000000000000000000000000000600052603260045260246000fd5b602002602001015160088190555080600181518110611c78577f4e487b7100000000000000000000000000000000000000000000000000000000600052603260045260246000fd5b602002602001015160098190555080600281518110611cc0577f4e487b7100000000000000000000000000000000000000000000000000000000600052603260045260246000fd5b6020026020010151600a8190555080600381518110611d08577f4e487b7100000000000000000000000000000000000000000000000000000000600052603260045260246000fd5b6020026020010151600b8190555050565b600360009054906101000a900473ffffffffffffffffffffffffffffffffffffffff1673ffffffffffffffffffffffffffffffffffffffff163373ffffffffffffffffffffffffffffffffffffffff1614611da9576040517f08c379a0000000000000000000000000000000000000000000000000000000008152600401611da090613890565b60405180910390fd5b6001601960008373ffffffffffffffffffffffffffffffffffffffff1673ffffffffffffffffffffffffffffffffffffffff16815260200190815260200160002060006101000a81548160ff02191690831515021790555050565b60085481565b601660009054906101000a900473ffffffffffffffffffffffffffffffffffffffff1681565b600e5481565b6000600460149054906101000a900460ff16905090565b60125481565b60006001905090565b600360009054906101000a900473ffffffffffffffffffffffffffffffffffffffff1673ffffffffffffffffffffffffffffffffffffffff163373ffffffffffffffffffffffffffffffffffffffff1614611eec576040517f08c379a0000000000000000000000000000000000000000000000000000000008152600401611ee390613890565b60405180910390fd5b6000601960008373ffffffffffffffffffffffffffffffffffffffff1673ffffffffffffffffffffffffffffffffffffffff16815260200190815260200160002060006101000a81548160ff02191690831515021790555050565b600360009054906101000a900473ffffffffffffffffffffffffffffffffffffffff1673ffffffffffffffffffffffffffffffffffffffff163373ffffffffffffffffffffffffffffffffffffffff1614611fd7576040517f08c379a0000000000000000000000000000000000000000000000000000000008152600401611fce90613890565b60405180910390fd5b600073ffffffffffffffffffffffffffffffffffffffff168173ffffffffffffffffffffffffffffffffffffffff161415612047576040517f08c379a000000000000000000000000000000000000000000000000000000000815260040161203e90613810565b60405180910390fd5b80600360006101000a81548173ffffffffffffffffffffffffffffffffffffffff021916908373ffffffffffffffffffffffffffffffffffffffff160217905550600160196000600360009054906101000a900473ffffffffffffffffffffffffffffffffffffffff1673ffffffffffffffffffffffffffffffffffffffff1673ffffffffffffffffffffffffffffffffffffffff16815260200190815260200160002060006101000a81548160ff02191690831515021790555050565b600360009054906101000a900473ffffffffffffffffffffffffffffffffffffffff1673ffffffffffffffffffffffffffffffffffffffff163373ffffffffffffffffffffffffffffffffffffffff1614612195576040517f08c379a000000000000000000000000000000000000000000000000000000000815260040161218c90613890565b60405180910390fd5b600073ffffffffffffffffffffffffffffffffffffffff168173ffffffffffffffffffffffffffffffffffffffff161415612205576040517f08c379a00000000000000000000000000000000000000000000000000000000081526004016121fc906138b0565b60405180910390fd5b80600260006101000a81548173ffffffffffffffffffffffffffffffffffffffff021916908373ffffffffffffffffffffffffffffffffffffffff16021790555050565b600081836122579190613aa2565b905092915050565b600080601760009054906101000a900473ffffffffffffffffffffffffffffffffffffffff1673ffffffffffffffffffffffffffffffffffffffff166370a08231306040518263ffffffff1660e01b81526004016122bd9190613704565b60206040518083038186803b1580156122d557600080fd5b505afa1580156122e9573d6000803e3d6000fd5b505050506040513d601f19601f8201168201806040525081019061230d9190613365565b90506000600267ffffffffffffffff811115612352577f4e487b7100000000000000000000000000000000000000000000000000000000600052604160045260246000fd5b6040519080825280602002602001820160405280156123805781602001602082028036833780820191505090505b509050601860009054906101000a900473ffffffffffffffffffffffffffffffffffffffff1673ffffffffffffffffffffffffffffffffffffffff1663ad5c46486040518163ffffffff1660e01b815260040160206040518083038186803b1580156123eb57600080fd5b505afa1580156123ff573d6000803e3d6000fd5b505050506040513d601f19601f820116820180604052508101906124239190613280565b8160008151811061245d577f4e487b7100000000000000000000000000000000000000000000000000000000600052603260045260246000fd5b602002602001019073ffffffffffffffffffffffffffffffffffffffff16908173ffffffffffffffffffffffffffffffffffffffff168152505060008054906101000a900473ffffffffffffffffffffffffffffffffffffffff16816001815181106124f2577f4e487b7100000000000000000000000000000000000000000000000000000000600052603260045260246000fd5b602002602001019073ffffffffffffffffffffffffffffffffffffffff16908173ffffffffffffffffffffffffffffffffffffffff1681525050601860009054906101000a900473ffffffffffffffffffffffffffffffffffffffff1673ffffffffffffffffffffffffffffffffffffffff1663b6f9de958560008430426040518663ffffffff1660e01b815260040161258f94939291906137c4565b6000604051808303818588803b1580156125a857600080fd5b505af11580156125bc573d6000803e3d6000fd5b5050505050600061268083601760009054906101000a900473ffffffffffffffffffffffffffffffffffffffff1673ffffffffffffffffffffffffffffffffffffffff166370a08231306040518263ffffffff1660e01b81526004016126229190613704565b60206040518083038186803b15801561263a57600080fd5b505afa15801561264e573d6000803e3d6000fd5b505050506040513d601f19601f820116820180604052508101906126729190613365565b612b4c90919063ffffffff16565b9050809350505050919050565b6000818361269b9190613ad3565b905092915050565b60006126cb60646126bd848661268d90919063ffffffff16565b61224990919063ffffffff16565b905092915050565b600082111561274657601460009054906101000a900473ffffffffffffffffffffffffffffffffffffffff1673ffffffffffffffffffffffffffffffffffffffff166108fc839081150290604051600060405180830381858888f19350505050158015612744573d6000803e3d6000fd5b505b60008111156127b957601560009054906101000a900473ffffffffffffffffffffffffffffffffffffffff1673ffffffffffffffffffffffffffffffffffffffff166108fc829081150290604051600060405180830381858888f193505050501580156127b7573d6000803e3d6000fd5b505b5050565b6000600754601054101580156127df5750600460159054906101000a900460ff165b80156128395750600460009054906101000a900473ffffffffffffffffffffffffffffffffffffffff1673ffffffffffffffffffffffffffffffffffffffff163373ffffffffffffffffffffffffffffffffffffffff1614155b80156128525750600460149054906101000a900460ff16155b905090565b6001600460146101000a81548160ff021916908315150217905550600061287c612b62565b61289b57612896600260075461224990919063ffffffff16565b61289f565b6007545b905060006128ce6010546128c060075460115461268d90919063ffffffff16565b61224990919063ffffffff16565b905060006128fd6010546128ef60075460125461268d90919063ffffffff16565b61224990919063ffffffff16565b90506000612926826129188587612b7590919063ffffffff16565b612b7590919063ffffffff16565b905060006129348230612b8b565b9050600061295d8361294f888561268d90919063ffffffff16565b61224990919063ffffffff16565b9050600061298684612978888661268d90919063ffffffff16565b61224990919063ffffffff16565b905060006129af856129a1888761268d90919063ffffffff16565b61224990919063ffffffff16565b90506129b9612b62565b15612a2c57601460009054906101000a900473ffffffffffffffffffffffffffffffffffffffff1673ffffffffffffffffffffffffffffffffffffffff166108fc849081150290604051600060405180830381858888f19350505050158015612a26573d6000803e3d6000fd5b50612a37565b612a368884612e95565b5b612a4182826126d3565b612a58600754601054612b4c90919063ffffffff16565b601081905550612a7387601154612b4c90919063ffffffff16565b601181905550612a8e86601254612b4c90919063ffffffff16565b60128190555050505050505050506000600460146101000a81548160ff021916908315150217905550565b6000806000905060005b8351811015612b2d57838181518110612b05577f4e487b7100000000000000000000000000000000000000000000000000000000600052603260045260246000fd5b602002602001015182612b189190613a4c565b91508080612b2590613bcd565b915050612ac3565b506064811415612b41576001915050612b47565b60009150505b919050565b60008183612b5a9190613b2d565b905092915050565b6000600654612b6f612f97565b11905090565b60008183612b839190613a4c565b905092915050565b6000803073ffffffffffffffffffffffffffffffffffffffff163190506000600267ffffffffffffffff811115612beb577f4e487b7100000000000000000000000000000000000000000000000000000000600052604160045260246000fd5b604051908082528060200260200182016040528015612c195781602001602082028036833780820191505090505b50905060008054906101000a900473ffffffffffffffffffffffffffffffffffffffff1681600081518110612c77577f4e487b7100000000000000000000000000000000000000000000000000000000600052603260045260246000fd5b602002602001019073ffffffffffffffffffffffffffffffffffffffff16908173ffffffffffffffffffffffffffffffffffffffff1681525050601860009054906101000a900473ffffffffffffffffffffffffffffffffffffffff1673ffffffffffffffffffffffffffffffffffffffff1663ad5c46486040518163ffffffff1660e01b815260040160206040518083038186803b158015612d1957600080fd5b505afa158015612d2d573d6000803e3d6000fd5b505050506040513d601f19601f82011682018060405250810190612d519190613280565b81600181518110612d8b577f4e487b7100000000000000000000000000000000000000000000000000000000600052603260045260246000fd5b602002602001019073ffffffffffffffffffffffffffffffffffffffff16908173ffffffffffffffffffffffffffffffffffffffff1681525050601860009054906101000a900473ffffffffffffffffffffffffffffffffffffffff1673ffffffffffffffffffffffffffffffffffffffff1663791ac9478660008488426040518663ffffffff1660e01b8152600401612e2995949392919061394b565b600060405180830381600087803b158015612e4357600080fd5b505af1158015612e57573d6000803e3d6000fd5b505050506000612e87833073ffffffffffffffffffffffffffffffffffffffff1631612b4c90919063ffffffff16565b905080935050505092915050565b601860009054906101000a900473ffffffffffffffffffffffffffffffffffffffff1673ffffffffffffffffffffffffffffffffffffffff1663f305d7198260008054906101000a900473ffffffffffffffffffffffffffffffffffffffff1685600080600260009054906101000a900473ffffffffffffffffffffffffffffffffffffffff16426040518863ffffffff1660e01b8152600401612f3e96959493929190613748565b6060604051808303818588803b158015612f5757600080fd5b505af1158015612f6b573d6000803e3d6000fd5b50505050506040513d601f19601f82011682018060405250810190612f90919061338e565b5050505050565b600061313e601760009054906101000a900473ffffffffffffffffffffffffffffffffffffffff1673ffffffffffffffffffffffffffffffffffffffff166318160ddd6040518163ffffffff1660e01b815260040160206040518083038186803b15801561300457600080fd5b505afa158015613018573d6000803e3d6000fd5b505050506040513d601f19601f8201168201806040525081019061303c9190613365565b61313061311f6002601760009054906101000a900473ffffffffffffffffffffffffffffffffffffffff1673ffffffffffffffffffffffffffffffffffffffff166370a08231600460009054906101000a900473ffffffffffffffffffffffffffffffffffffffff166040518263ffffffff1660e01b81526004016130c19190613704565b60206040518083038186803b1580156130d957600080fd5b505afa1580156130ed573d6000803e3d6000fd5b505050506040513d601f19601f820116820180604052508101906131119190613365565b61268d90919063ffffffff16565b60055461268d90919063ffffffff16565b61224990919063ffffffff16565b905090565b6000613156613151846139d6565b6139a5565b9050808382526020820190508285602086028201111561317557600080fd5b60005b858110156131a5578161318b888261322d565b845260208401935060208301925050600181019050613178565b5050509392505050565b6000813590506131be81613ca3565b92915050565b6000815190506131d381613ca3565b92915050565b6000813590506131e881613cba565b92915050565b600082601f8301126131ff57600080fd5b813561320f848260208601613143565b91505092915050565b60008151905061322781613cd1565b92915050565b60008135905061323c81613ce8565b92915050565b60008151905061325181613ce8565b92915050565b60006020828403121561326957600080fd5b6000613277848285016131af565b91505092915050565b60006020828403121561329257600080fd5b60006132a0848285016131c4565b91505092915050565b6000602082840312156132bb57600080fd5b60006132c9848285016131d9565b91505092915050565b6000602082840312156132e457600080fd5b600082013567ffffffffffffffff8111156132fe57600080fd5b61330a848285016131ee565b91505092915050565b60006020828403121561332557600080fd5b600061333384828501613218565b91505092915050565b60006020828403121561334e57600080fd5b600061335c8482850161322d565b91505092915050565b60006020828403121561337757600080fd5b600061338584828501613242565b91505092915050565b6000806000606084860312156133a357600080fd5b60006133b186828701613242565b93505060206133c286828701613242565b92505060406133d386828701613242565b9150509250925092565b60006133e983836133f5565b60208301905092915050565b6133fe81613b61565b82525050565b61340d81613b61565b82525050565b600061341e82613a12565b6134288185613a2a565b935061343383613a02565b8060005b8381101561346457815161344b88826133dd565b975061345683613a1d565b925050600181019050613437565b5085935050505092915050565b61347a81613b85565b82525050565b61348981613bbb565b82525050565b600061349c601983613a3b565b91507f53686f756c64206e6f74206265206120302061646472657373000000000000006000830152602082019050919050565b60006134dc601083613a3b565b91507f4e6f742076616c696420726f75746572000000000000000000000000000000006000830152602082019050919050565b600061351c600e83613a3b565b91507f73756d206973206e6f74203130300000000000000000000000000000000000006000830152602082019050919050565b600061355c600383613a3b565b91507f21414900000000000000000000000000000000000000000000000000000000006000830152602082019050919050565b600061359c600683613a3b565b91507f214f574e455200000000000000000000000000000000000000000000000000006000830152602082019050919050565b60006135dc601783613a3b565b91507f73686f756c64206e6f74206265203020616464726573730000000000000000006000830152602082019050919050565b600061361c601f83613a3b565b91507f77726f6e67206e756d626572206f66207368617265732070726f7669646564006000830152602082019050919050565b600061365c601c83613a3b565b91507f70726f766964652076616c696420726f757465722061646472657373000000006000830152602082019050919050565b600061369c602983613a3b565b91507f737761705468726573686f6c642063616e6e6f74206265206c6573732074686560008301527f6e203120746f6b656e00000000000000000000000000000000000000000000006020830152604082019050919050565b6136fe81613bb1565b82525050565b60006020820190506137196000830184613404565b92915050565b60006040820190506137346000830185613404565b61374160208301846136f5565b9392505050565b600060c08201905061375d6000830189613404565b61376a60208301886136f5565b6137776040830187613480565b6137846060830186613480565b6137916080830185613404565b61379e60a08301846136f5565b979650505050505050565b60006020820190506137be6000830184613471565b92915050565b60006080820190506137d96000830187613480565b81810360208301526137eb8186613413565b90506137fa6040830185613404565b61380760608301846136f5565b95945050505050565b600060208201905081810360008301526138298161348f565b9050919050565b60006020820190508181036000830152613849816134cf565b9050919050565b600060208201905081810360008301526138698161350f565b9050919050565b600060208201905081810360008301526138898161354f565b9050919050565b600060208201905081810360008301526138a98161358f565b9050919050565b600060208201905081810360008301526138c9816135cf565b9050919050565b600060208201905081810360008301526138e98161360f565b9050919050565b600060208201905081810360008301526139098161364f565b9050919050565b600060208201905081810360008301526139298161368f565b9050919050565b600060208201905061394560008301846136f5565b92915050565b600060a08201905061396060008301886136f5565b61396d6020830187613480565b818103604083015261397f8186613413565b905061398e6060830185613404565b61399b60808301846136f5565b9695505050505050565b6000604051905081810181811067ffffffffffffffff821117156139cc576139cb613c74565b5b8060405250919050565b600067ffffffffffffffff8211156139f1576139f0613c74565b5b602082029050602081019050919050565b6000819050602082019050919050565b600081519050919050565b6000602082019050919050565b600082825260208201905092915050565b600082825260208201905092915050565b6000613a5782613bb1565b9150613a6283613bb1565b9250827fffffffffffffffffffffffffffffffffffffffffffffffffffffffffffffffff03821115613a9757613a96613c16565b5b828201905092915050565b6000613aad82613bb1565b9150613ab883613bb1565b925082613ac857613ac7613c45565b5b828204905092915050565b6000613ade82613bb1565b9150613ae983613bb1565b9250817fffffffffffffffffffffffffffffffffffffffffffffffffffffffffffffffff0483118215151615613b2257613b21613c16565b5b828202905092915050565b6000613b3882613bb1565b9150613b4383613bb1565b925082821015613b5657613b55613c16565b5b828203905092915050565b6000613b6c82613b91565b9050919050565b6000613b7e82613b91565b9050919050565b60008115159050919050565b600073ffffffffffffffffffffffffffffffffffffffff82169050919050565b6000819050919050565b6000613bc682613bb1565b9050919050565b6000613bd882613bb1565b91507fffffffffffffffffffffffffffffffffffffffffffffffffffffffffffffffff821415613c0b57613c0a613c16565b5b600182019050919050565b7f4e487b7100000000000000000000000000000000000000000000000000000000600052601160045260246000fd5b7f4e487b7100000000000000000000000000000000000000000000000000000000600052601260045260246000fd5b7f4e487b7100000000000000000000000000000000000000000000000000000000600052604160045260246000fd5b613cac81613b61565b8114613cb757600080fd5b50565b613cc381613b73565b8114613cce57600080fd5b50565b613cda81613b85565b8114613ce557600080fd5b50565b613cf181613bb1565b8114613cfc57600080fd5b5056fea2646970667358221220a6609cda2339b9ec0aaf5ceb179cccd4366f191198463632fe911a456c3eafd464736f6c63430008000033",
  "immutableReferences": {},
  "source": "// SPDX-License-Identifier: MIT\n\npragma solidity ^0.8.0;\n\nimport \"./IDexRouter.sol\";\nimport \"./IBEP20.sol\";\nimport \"./SafeMath.sol\";\n\ncontract AIRouter {\n  using SafeMath for uint256;\n\n  address private _aiTokenAddress;\n  address private _routerAddress = 0x3380aE82e39E42Ca34EbEd69aF67fAa0683Bb5c1;\n  address private _lpLockAddress = address(this);\n  address private contractOwner;\n  address private pair;\n\n  bool private inSwap;\n  bool private swapEnabled = true;\n\n  uint256 private accuracy = 100;\n  uint256 private target = 30;\n  uint256 public swapThreshold = 50 * (10 ** 18); // 50 TOKENS\n  \n  uint256 public liqTaxShare = 50;\n  uint256 public treasuryTaxShare = 20;\n  uint256 public rewardTaxShare = 20;\n  uint256 public devTaxShare = 10;\n\n  uint256 public liqRoyaltyShare = 20;\n  uint256 public treasuryRoyaltyShare = 30;\n  uint256 public rewardRoyaltyShare = 40;\n  uint256 public devRoyaltyShare = 10;\n\n  uint256 public liqBalance = 0;\n  uint256 public rewardBalance = 0;\n  uint256 public devBalance = 0;\n  uint256 public treasuryBalance = 0;\n\n  address public rewardsBNBPool = 0x9423BbAb02a50541C3ecF9F4c659ED6EA332AF42;\n  address public devBNBPool = 0x9423BbAb02a50541C3ecF9F4c659ED6EA332AF42;\n  address public treasuryAddress = 0x5F55507507c8754b80c08A9791C46FfC15482F99;\n\n  IBEP20 private aiContract;\n  IDexRouter private router = IDexRouter(_routerAddress);\n\n  mapping (address => bool) internal authorizations;\n\n  constructor(address ai) {\n    contractOwner = msg.sender;\n    authorize(contractOwner);\n    changeAiAddress(ai);\n\n    aiContract.approve(address(router), type(uint256).max);\n  }\n\n  receive() external payable {\n    if (!inSwap) {\n      _distributeRoyalties(); \n    }\n  }\n  \n  /**\n  * Function modifier to require caller to be authorized\n  */\n  modifier authorized() {\n    require(authorizations[msg.sender], \"!AUTHORIZED\"); _;\n  }\n\n  /**\n  * Function modifier to require caller to be contract owner\n  */\n  modifier onlyOwner() {\n    require(msg.sender == contractOwner, \"!OWNER\"); _;\n  }\n\n  /**\n  * Function modifier to require caller to be AI contract\n  */\n  modifier onlyAi() {\n    require(msg.sender == _aiTokenAddress, \"!AI\"); _;\n  }\n\n  /**\n  * Function modifier to set inSwap to true while swapping\n  */\n  modifier swapping() {\n\t\tinSwap = true;\n\t\t_;\n\t  inSwap = false;\n\t}\n\n  function isInSwap() external view returns (bool) {\n    return inSwap;\n  }\n\n  function supportsDistribureFunction() external pure returns (bool) {\n    return true;\n  }\n\n  function _shouldSwapBack() private view returns (bool) {\n    return liqBalance >= swapThreshold\n      && swapEnabled\n      && msg.sender != pair\n      && !inSwap;\n  }\n\n  function addLiquidity(uint256 AI, uint256 BNB) private {\n    router.addLiquidityETH{value: BNB}(\n\t\t\t_aiTokenAddress,\n\t\t\tAI,\n\t\t\t0,\n\t\t\t0,\n\t\t\t_lpLockAddress,\n\t\t\tblock.timestamp\n\t\t);\n  }\n\n  function _swapAI(uint256 swapAmount, address sendBnbTo) private returns (uint256) {\n    uint256 balanceBeforeSwap = address(this).balance;\n    \n    address[] memory path = new address[](2);\n    path[0] = _aiTokenAddress;\n    path[1] = router.WETH();\n    \n    router.swapExactTokensForETHSupportingFeeOnTransferTokens(\n        swapAmount,\n        0,\n        path,\n        sendBnbTo,\n        block.timestamp\n    );\n\n    uint256 bnbReceived = address(this).balance.sub(balanceBeforeSwap);\n    return bnbReceived;\n  }\n\n  function _swapBNB(uint256 swapAmount) private returns (uint256) {\n    uint256 balanceBeforeSwap = aiContract.balanceOf(address(this));\n    \n    address[] memory path = new address[](2);\n    path[0] = router.WETH();\n    path[1] = _aiTokenAddress;\n    router.swapExactETHForTokensSupportingFeeOnTransferTokens{value: swapAmount}(0, path, address(this), block.timestamp);\n\n    uint256 aiReceived = aiContract.balanceOf(address(this)).sub(balanceBeforeSwap);\n    return aiReceived;\n  }\n\n  function _distributeFees(uint256 shareA, uint256 shareB) internal {\n    if (shareA > 0) { payable(rewardsBNBPool).transfer(shareA); }\n    if (shareB > 0) { payable(devBNBPool).transfer(shareB); }\n  }\n\n  function liquify() internal swapping {\n    uint256 aiForLiqToSwap = isOverLiquified() ? swapThreshold : swapThreshold.div(2);\n    uint256 rewardToSwap = rewardBalance.mul(swapThreshold).div(liqBalance);\n    uint256 devToSwap = devBalance.mul(swapThreshold).div(liqBalance);\n    uint256 aiToSwap = aiForLiqToSwap.add(rewardToSwap).add(devToSwap);\n\n    uint256 bnbReceived = _swapAI(aiToSwap, address(this));\n    uint256 bnbForLiq = bnbReceived.mul(aiForLiqToSwap).div(aiToSwap);\n    uint256 bnbForRewards = bnbReceived.mul(rewardToSwap).div(aiToSwap);\n    uint256 bnbForDev = bnbReceived.mul(devToSwap).div(aiToSwap);\n\n    if (isOverLiquified()) {\n      payable(rewardsBNBPool).transfer(bnbForLiq);\n    } else {\n      addLiquidity(aiForLiqToSwap, bnbForLiq);\n    }\n\n    _distributeFees(\n      bnbForRewards,\n      bnbForDev\n    );\n    \n    liqBalance = liqBalance.sub(swapThreshold);\n    rewardBalance = rewardBalance.sub(rewardToSwap);\n    devBalance = devBalance.sub(devToSwap);\n  }\n\n  function _distributeRoyalties() internal {\n    uint256 receivedAmount = msg.value;\n    uint256 aiReceived = _swapBNB(receivedAmount.div(2));\n\n    uint256 aiForLiq = _calculateShare(aiReceived.mul(2), liqRoyaltyShare);\n    uint256 toAiTreasury = _calculateShare(aiReceived.mul(2), treasuryRoyaltyShare);\n    uint256 bnbToReward = _calculateShare(receivedAmount, rewardRoyaltyShare);\n    uint256 bnbToDev = _calculateShare(receivedAmount, devRoyaltyShare);\n\n    liqBalance += aiForLiq;\n    aiContract.transfer(treasuryAddress, toAiTreasury);\n\n    _distributeFees(bnbToReward, bnbToDev);\n\n    if (_shouldSwapBack()) { liquify(); }\n  }\n  \n  function distributeTax(uint256 amount) external onlyAi {\n    if (amount > 0) {\n      uint256 aiForLiq = _calculateShare(amount, liqTaxShare);\n      uint256 aiForRewards = _calculateShare(amount, rewardTaxShare);\n      uint256 aiForDev = _calculateShare(amount, devTaxShare);\n      uint256 toAiTreasury = _calculateShare(amount, treasuryTaxShare);\n\n      liqBalance += aiForLiq;\n      rewardBalance += aiForRewards;\n      devBalance += aiForDev;\n      treasuryBalance += toAiTreasury;\n    }\n  }\n  \n  function liquifyBack() external onlyAi {\n    aiContract.transfer(treasuryAddress, treasuryBalance);\n    treasuryBalance = 0;\n      \n    if (_shouldSwapBack()) { liquify(); }\n  }\n\n  function getLiquidityBacking() private view returns (uint256) {\n    return accuracy.mul(aiContract.balanceOf(pair).mul(2)).div(aiContract.totalSupply());\n  }\n  function isOverLiquified() private view returns (bool) {\n    return getLiquidityBacking() > target;\n  }\n\n  function _calculateShare(uint256 amount, uint256 share) private pure returns (uint256) {\n    return amount.mul(share).div(100);\n  }\n\n  function _validateShares(uint256[] memory shares) private pure returns (bool) {\n    uint256 shareSum = 0;\n    for (uint256 i = 0; i < shares.length; i++) {\n      shareSum += shares[i];\n    }\n\n    if (shareSum == 100) { return true; }\n    return false;\n  }\n\n  function changeTaxShares(uint256[] memory shares) public onlyOwner {\n    require(shares.length != 4, 'wrong number of shares provided');\n    require(_validateShares(shares), 'sum is not 100');\n\n    liqTaxShare = shares[0];\n    treasuryTaxShare = shares[1];\n    rewardTaxShare = shares[2];\n    devTaxShare = shares[3];\n  }\n\n  function changeRoyaltyShares(uint256[] memory shares) public onlyOwner {\n    require(shares.length != 4, 'wrong number of shares provided');\n    require(_validateShares(shares), 'sum is not 100');\n\n    liqRoyaltyShare = shares[0];\n    treasuryRoyaltyShare = shares[1];\n    rewardRoyaltyShare = shares[2];\n    devRoyaltyShare = shares[3];\n  }\n\n  function changeRewardAddress(address addr) public onlyOwner {\n    rewardsBNBPool = addr;\n  }\n\n  function changeDevAddress(address addr) public onlyOwner {\n    devBNBPool = addr;\n  }\n\n  function changeTreasuryAddress(address addr) public onlyOwner {\n    treasuryAddress = addr;\n  }\n\n  function changeSwapThresholdAmount(uint256 newValue) public onlyOwner {\n    require(newValue >= 1 * 10**18, 'swapThreshold cannot be less then 1 token');\n    swapThreshold = newValue;\n  }\n\n  function changeRouterAddress(address newRouterAddress) public onlyOwner {\n    require(IDexRouter(newRouterAddress).WETH() != address(0), 'provide valid router address');\n    _routerAddress = newRouterAddress;\n    router = IDexRouter(_routerAddress);\n  }\n\n  function changeLpLockAddress(address newLpAddress) public onlyOwner {\n    require(newLpAddress != address(0), 'should not be 0 address');\n    _lpLockAddress = newLpAddress;\n  }\n\n  function changePairAddress(address newPairAddress) public onlyOwner {\n    require(newPairAddress != address(0), 'should not be 0 address');\n    pair = newPairAddress;\n  }\n\n  /**\n  * @dev Only owner can call this function. Activates tax collection.\n  */\n  function changeAiAddress(address ai) public onlyOwner {\n    require(ai != address(0), 'Should not be a 0 address');\n    require(IBEP20(ai).balanceOf(address(0)) == 0, 'Not valid router'); // check the balanceOf method\n\n    _aiTokenAddress = ai;\n    aiContract = IBEP20(_aiTokenAddress);\n    authorize(_aiTokenAddress);\n  }\n\n  /**\n  * @dev Only owner can call this function. Transfer ownership to new address. Caller must be owner.\n  */\n  function transferOwnership(address payable adr) public onlyOwner {\n      require(adr != address(0), 'Should not be a 0 address');\n      contractOwner = adr;\n      authorizations[contractOwner] = true;\n  }\n  /**\n    * Authorize address. Owner only\n  */\n  function authorize(address adr) public onlyOwner {\n      authorizations[adr] = true;\n  }\n  \n  /**\n    * Remove address' authorization. Owner only\n    */\n  function unauthorize(address adr) public onlyOwner {\n      authorizations[adr] = false;\n  }\n\n\t// Recover any BNB and AI sent to the contract is case of migration.\n\tfunction rescue() external onlyOwner {\n    liqBalance = 0;\n    rewardBalance = 0;\n    devBalance = 0;\n    treasuryBalance = 0;\n\n    uint256 aiBalance = aiContract.balanceOf(address(this));\n    aiContract.transfer(contractOwner, aiBalance);\n    payable(contractOwner).transfer(address(this).balance);\n  }\n}\n",
  "sourcePath": "/Users/viktor/Documents/Projects/solidity/hibiki/src/contracts/AIRouter.sol",
  "compiler": {
    "name": "solc",
    "version": "0.8.0+commit.c7dfd78e.Emscripten.clang"
  },
  "schemaVersion": "3.4.1",
  "updatedAt": "2021-10-19T10:43:39.996Z",
  "networkType": "ethereum",
  "devdoc": {
    "kind": "dev",
    "methods": {
      "changeAiAddress(address)": {
        "details": "Only owner can call this function. Activates tax collection."
      },
      "transferOwnership(address)": {
        "details": "Only owner can call this function. Transfer ownership to new address. Caller must be owner."
      }
    },
    "version": 1
  },
  "userdoc": {
    "kind": "user",
    "methods": {
      "authorize(address)": {
        "notice": "Authorize address. Owner only"
      },
      "unauthorize(address)": {
        "notice": "Remove address' authorization. Owner only"
      }
    },
    "version": 1
  }
}