{
  "contractName": "AIRouter",
  "abi": [
    {
      "inputs": [
        {
          "internalType": "address",
          "name": "ai",
          "type": "address"
        },
        {
          "internalType": "address",
          "name": "_pair",
          "type": "address"
        }
      ],
      "stateMutability": "nonpayable",
      "type": "constructor"
    },
    {
      "inputs": [],
      "name": "devBNBPool",
      "outputs": [
        {
          "internalType": "address",
          "name": "",
          "type": "address"
        }
      ],
      "stateMutability": "view",
      "type": "function",
      "constant": true
    },
    {
      "inputs": [],
      "name": "devBalance",
      "outputs": [
        {
          "internalType": "uint256",
          "name": "",
          "type": "uint256"
        }
      ],
      "stateMutability": "view",
      "type": "function",
      "constant": true
    },
    {
      "inputs": [],
      "name": "liqBalance",
      "outputs": [
        {
          "internalType": "uint256",
          "name": "",
          "type": "uint256"
        }
      ],
      "stateMutability": "view",
      "type": "function",
      "constant": true
    },
    {
      "inputs": [],
      "name": "rewardBalance",
      "outputs": [
        {
          "internalType": "uint256",
          "name": "",
          "type": "uint256"
        }
      ],
      "stateMutability": "view",
      "type": "function",
      "constant": true
    },
    {
      "inputs": [],
      "name": "rewardsBNBPool",
      "outputs": [
        {
          "internalType": "address",
          "name": "",
          "type": "address"
        }
      ],
      "stateMutability": "view",
      "type": "function",
      "constant": true
    },
    {
      "inputs": [],
      "name": "swapThreshold",
      "outputs": [
        {
          "internalType": "uint256",
          "name": "",
          "type": "uint256"
        }
      ],
      "stateMutability": "view",
      "type": "function",
      "constant": true
    },
    {
      "inputs": [],
      "name": "treasuryAddress",
      "outputs": [
        {
          "internalType": "address",
          "name": "",
          "type": "address"
        }
      ],
      "stateMutability": "view",
      "type": "function",
      "constant": true
    },
    {
      "stateMutability": "payable",
      "type": "receive",
      "payable": true
    },
    {
      "inputs": [],
      "name": "isInSwap",
      "outputs": [
        {
          "internalType": "bool",
          "name": "",
          "type": "bool"
        }
      ],
      "stateMutability": "view",
      "type": "function",
      "constant": true
    },
    {
      "inputs": [],
      "name": "supportsDistribureFunction",
      "outputs": [
        {
          "internalType": "bool",
          "name": "",
          "type": "bool"
        }
      ],
      "stateMutability": "pure",
      "type": "function",
      "constant": true
    },
    {
      "inputs": [
        {
          "internalType": "uint256",
          "name": "amount",
          "type": "uint256"
        }
      ],
      "name": "distributeTax",
      "outputs": [],
      "stateMutability": "nonpayable",
      "type": "function"
    },
    {
      "inputs": [
        {
          "internalType": "uint256[]",
          "name": "shares",
          "type": "uint256[]"
        }
      ],
      "name": "changeTaxShares",
      "outputs": [],
      "stateMutability": "nonpayable",
      "type": "function"
    },
    {
      "inputs": [
        {
          "internalType": "uint256[]",
          "name": "shares",
          "type": "uint256[]"
        }
      ],
      "name": "changeRoyaltyShares",
      "outputs": [],
      "stateMutability": "nonpayable",
      "type": "function"
    },
    {
      "inputs": [
        {
          "internalType": "address[]",
          "name": "addreses",
          "type": "address[]"
        }
      ],
      "name": "changeDistributionAddresses",
      "outputs": [],
      "stateMutability": "nonpayable",
      "type": "function"
    },
    {
      "inputs": [
        {
          "internalType": "uint256",
          "name": "newValue",
          "type": "uint256"
        }
      ],
      "name": "changeSwapThresholdAmount",
      "outputs": [],
      "stateMutability": "nonpayable",
      "type": "function"
    },
    {
      "inputs": [
        {
          "internalType": "address",
          "name": "newRouterAddress",
          "type": "address"
        }
      ],
      "name": "changeRouterAddress",
      "outputs": [],
      "stateMutability": "nonpayable",
      "type": "function"
    },
    {
      "inputs": [
        {
          "internalType": "address",
          "name": "newLpAddress",
          "type": "address"
        }
      ],
      "name": "changeLpLockAddress",
      "outputs": [],
      "stateMutability": "nonpayable",
      "type": "function"
    },
    {
      "inputs": [
        {
          "internalType": "address",
          "name": "ai",
          "type": "address"
        }
      ],
      "name": "changeAiAddress",
      "outputs": [],
      "stateMutability": "nonpayable",
      "type": "function"
    },
    {
      "inputs": [
        {
          "internalType": "address payable",
          "name": "adr",
          "type": "address"
        }
      ],
      "name": "transferOwnership",
      "outputs": [],
      "stateMutability": "nonpayable",
      "type": "function"
    },
    {
      "inputs": [
        {
          "internalType": "address",
          "name": "adr",
          "type": "address"
        }
      ],
      "name": "authorize",
      "outputs": [],
      "stateMutability": "nonpayable",
      "type": "function"
    },
    {
      "inputs": [
        {
          "internalType": "address",
          "name": "adr",
          "type": "address"
        }
      ],
      "name": "unauthorize",
      "outputs": [],
      "stateMutability": "nonpayable",
      "type": "function"
    }
  ],
  "bytecode": "0x6080604052733380ae82e39e42ca34ebed69af67faa0683bb5c1600160006101000a81548173ffffffffffffffffffffffffffffffffffffffff021916908373ffffffffffffffffffffffffffffffffffffffff1602179055507351228d1fa3dcd52cce7d08a1f3db51c53f5fb3ff600260006101000a81548173ffffffffffffffffffffffffffffffffffffffff021916908373ffffffffffffffffffffffffffffffffffffffff1602179055506001600460156101000a81548160ff0219169083151502179055506064600555601e60065568056bc75e2d63100000600755603260085560146009556014600a55600a600b556014600c55601e600d556028600e55600a600f556000601055600060115560006012557351228d1fa3dcd52cce7d08a1f3db51c53f5fb3ff601360006101000a81548173ffffffffffffffffffffffffffffffffffffffff021916908373ffffffffffffffffffffffffffffffffffffffff1602179055507351228d1fa3dcd52cce7d08a1f3db51c53f5fb3ff601460006101000a81548173ffffffffffffffffffffffffffffffffffffffff021916908373ffffffffffffffffffffffffffffffffffffffff1602179055507351228d1fa3dcd52cce7d08a1f3db51c53f5fb3ff601560006101000a81548173ffffffffffffffffffffffffffffffffffffffff021916908373ffffffffffffffffffffffffffffffffffffffff160217905550600160009054906101000a900473ffffffffffffffffffffffffffffffffffffffff16601760006101000a81548173ffffffffffffffffffffffffffffffffffffffff021916908373ffffffffffffffffffffffffffffffffffffffff1602179055503480156200028657600080fd5b50604051620030a9380380620030a98339818101604052810190620002ac919062000855565b33600360006101000a81548173ffffffffffffffffffffffffffffffffffffffff021916908373ffffffffffffffffffffffffffffffffffffffff16021790555062000320600360009054906101000a900473ffffffffffffffffffffffffffffffffffffffff166200047260201b60201c565b62000331826200056060201b60201c565b601660009054906101000a900473ffffffffffffffffffffffffffffffffffffffff1673ffffffffffffffffffffffffffffffffffffffff1663095ea7b3601760009054906101000a900473ffffffffffffffffffffffffffffffffffffffff167fffffffffffffffffffffffffffffffffffffffffffffffffffffffffffffffff6040518363ffffffff1660e01b8152600401620003d2929190620009f3565b602060405180830381600087803b158015620003ed57600080fd5b505af115801562000402573d6000803e3d6000fd5b505050506040513d601f19601f8201168201806040525081019062000428919062000896565b5080600460006101000a81548173ffffffffffffffffffffffffffffffffffffffff021916908373ffffffffffffffffffffffffffffffffffffffff160217905550505062000b2f565b600360009054906101000a900473ffffffffffffffffffffffffffffffffffffffff1673ffffffffffffffffffffffffffffffffffffffff163373ffffffffffffffffffffffffffffffffffffffff161462000505576040517f08c379a0000000000000000000000000000000000000000000000000000000008152600401620004fc9062000a64565b60405180910390fd5b6001601860008373ffffffffffffffffffffffffffffffffffffffff1673ffffffffffffffffffffffffffffffffffffffff16815260200190815260200160002060006101000a81548160ff02191690831515021790555050565b600360009054906101000a900473ffffffffffffffffffffffffffffffffffffffff1673ffffffffffffffffffffffffffffffffffffffff163373ffffffffffffffffffffffffffffffffffffffff1614620005f3576040517f08c379a0000000000000000000000000000000000000000000000000000000008152600401620005ea9062000a64565b60405180910390fd5b600073ffffffffffffffffffffffffffffffffffffffff168173ffffffffffffffffffffffffffffffffffffffff16141562000666576040517f08c379a00000000000000000000000000000000000000000000000000000000081526004016200065d9062000a20565b60405180910390fd5b60008173ffffffffffffffffffffffffffffffffffffffff166370a0823160006040518263ffffffff1660e01b8152600401620006a49190620009d6565b60206040518083038186803b158015620006bd57600080fd5b505afa158015620006d2573d6000803e3d6000fd5b505050506040513d601f19601f82011682018060405250810190620006f89190620008c2565b146200073b576040517f08c379a0000000000000000000000000000000000000000000000000000000008152600401620007329062000a42565b60405180910390fd5b806000806101000a81548173ffffffffffffffffffffffffffffffffffffffff021916908373ffffffffffffffffffffffffffffffffffffffff16021790555060008054906101000a900473ffffffffffffffffffffffffffffffffffffffff16601660006101000a81548173ffffffffffffffffffffffffffffffffffffffff021916908373ffffffffffffffffffffffffffffffffffffffff1602179055506200080d60008054906101000a900473ffffffffffffffffffffffffffffffffffffffff166200047260201b60201c565b50565b600081519050620008218162000ae1565b92915050565b600081519050620008388162000afb565b92915050565b6000815190506200084f8162000b15565b92915050565b600080604083850312156200086957600080fd5b6000620008798582860162000810565b92505060206200088c8582860162000810565b9150509250929050565b600060208284031215620008a957600080fd5b6000620008b98482850162000827565b91505092915050565b600060208284031215620008d557600080fd5b6000620008e5848285016200083e565b91505092915050565b620008f98162000a97565b82525050565b60006200090e60198362000a86565b91507f53686f756c64206e6f74206265206120302061646472657373000000000000006000830152602082019050919050565b60006200095060108362000a86565b91507f4e6f742076616c696420726f75746572000000000000000000000000000000006000830152602082019050919050565b60006200099260068362000a86565b91507f214f574e455200000000000000000000000000000000000000000000000000006000830152602082019050919050565b620009d08162000ad7565b82525050565b6000602082019050620009ed6000830184620008ee565b92915050565b600060408201905062000a0a6000830185620008ee565b62000a196020830184620009c5565b9392505050565b6000602082019050818103600083015262000a3b81620008ff565b9050919050565b6000602082019050818103600083015262000a5d8162000941565b9050919050565b6000602082019050818103600083015262000a7f8162000983565b9050919050565b600082825260208201905092915050565b600062000aa48262000ab7565b9050919050565b60008115159050919050565b600073ffffffffffffffffffffffffffffffffffffffff82169050919050565b6000819050919050565b62000aec8162000a97565b811462000af857600080fd5b50565b62000b068162000aab565b811462000b1257600080fd5b50565b62000b208162000ad7565b811462000b2c57600080fd5b50565b61256a8062000b3f6000396000f3fe6080604052600436106101235760003560e01c8063b4de0b2c116100a0578063d3bb8e1411610064578063d3bb8e14146103a6578063d5f8f881146103d1578063f0b37c04146103fa578063f2fde38b14610423578063fef68c3c1461044c5761012a565b8063b4de0b2c146102d3578063b6a5d7de146102fc578063c5f956af14610325578063cc99689914610350578063cd9a1b631461037b5761012a565b806343e9618c116100e757806343e9618c146102025780637503d78a1461022b5780639051cb6514610254578063aa5c3ab41461027f578063b2c2c5c7146102aa5761012a565b80630445b6671461012f57806304db6e681461015a5780631c7e19271461018357806333a069e3146101ac5780633f79ba52146101d75761012a565b3661012a57005b600080fd5b34801561013b57600080fd5b50610144610475565b60405161015191906121de565b60405180910390f35b34801561016657600080fd5b50610181600480360381019061017c9190611bec565b61047b565b005b34801561018f57600080fd5b506101aa60048036038101906101a59190611ce9565b61069f565b005b3480156101b857600080fd5b506101c1610784565b6040516101ce9190612088565b60405180910390f35b3480156101e357600080fd5b506101ec6107aa565b6040516101f99190612088565b60405180910390f35b34801561020e57600080fd5b5061022960048036038101906102249190611ce9565b6107d0565b005b34801561023757600080fd5b50610252600480360381019061024d9190611bec565b610b7b565b005b34801561026057600080fd5b50610269610e14565b60405161027691906121de565b60405180910390f35b34801561028b57600080fd5b50610294610e1a565b6040516102a191906121de565b60405180910390f35b3480156102b657600080fd5b506102d160048036038101906102cc9190611ca8565b610e20565b005b3480156102df57600080fd5b506102fa60048036038101906102f59190611ca8565b611020565b005b34801561030857600080fd5b50610323600480360381019061031e9190611bec565b611220565b005b34801561033157600080fd5b5061033a61130b565b6040516103479190612088565b60405180910390f35b34801561035c57600080fd5b50610365611331565b60405161037291906120a3565b60405180910390f35b34801561038757600080fd5b50610390611348565b60405161039d91906121de565b60405180910390f35b3480156103b257600080fd5b506103bb61134e565b6040516103c891906120a3565b60405180910390f35b3480156103dd57600080fd5b506103f860048036038101906103f39190611c67565b611357565b005b34801561040657600080fd5b50610421600480360381019061041c9190611bec565b6115b4565b005b34801561042f57600080fd5b5061044a60048036038101906104459190611c3e565b61169f565b005b34801561045857600080fd5b50610473600480360381019061046e9190611bec565b61185d565b005b60075481565b600360009054906101000a900473ffffffffffffffffffffffffffffffffffffffff1673ffffffffffffffffffffffffffffffffffffffff163373ffffffffffffffffffffffffffffffffffffffff161461050b576040517f08c379a00000000000000000000000000000000000000000000000000000000081526004016105029061215e565b60405180910390fd5b600073ffffffffffffffffffffffffffffffffffffffff168173ffffffffffffffffffffffffffffffffffffffff1663ad5c46486040518163ffffffff1660e01b815260040160206040518083038186803b15801561056957600080fd5b505afa15801561057d573d6000803e3d6000fd5b505050506040513d601f19601f820116820180604052508101906105a19190611c15565b73ffffffffffffffffffffffffffffffffffffffff1614156105f8576040517f08c379a00000000000000000000000000000000000000000000000000000000081526004016105ef9061219e565b60405180910390fd5b80600160006101000a81548173ffffffffffffffffffffffffffffffffffffffff021916908373ffffffffffffffffffffffffffffffffffffffff160217905550600160009054906101000a900473ffffffffffffffffffffffffffffffffffffffff16601760006101000a81548173ffffffffffffffffffffffffffffffffffffffff021916908373ffffffffffffffffffffffffffffffffffffffff16021790555050565b600360009054906101000a900473ffffffffffffffffffffffffffffffffffffffff1673ffffffffffffffffffffffffffffffffffffffff163373ffffffffffffffffffffffffffffffffffffffff161461072f576040517f08c379a00000000000000000000000000000000000000000000000000000000081526004016107269061215e565b60405180910390fd5b670de0b6b3a764000081101561077a576040517f08c379a0000000000000000000000000000000000000000000000000000000008152600401610771906121be565b60405180910390fd5b8060078190555050565b601460009054906101000a900473ffffffffffffffffffffffffffffffffffffffff1681565b601360009054906101000a900473ffffffffffffffffffffffffffffffffffffffff1681565b6001600460146101000a81548160ff02191690831515021790555060006002601660009054906101000a900473ffffffffffffffffffffffffffffffffffffffff1673ffffffffffffffffffffffffffffffffffffffff166370a08231306040518263ffffffff1660e01b815260040161084a9190612088565b60206040518083038186803b15801561086257600080fd5b505afa158015610876573d6000803e3d6000fd5b505050506040513d601f19601f8201168201806040525081019061089a9190611d12565b6108a4919061237c565b90506000600267ffffffffffffffff8111156108e9577f4e487b7100000000000000000000000000000000000000000000000000000000600052604160045260246000fd5b6040519080825280602002602001820160405280156109175781602001602082028036833780820191505090505b509050601660009054906101000a900473ffffffffffffffffffffffffffffffffffffffff1681600081518110610977577f4e487b7100000000000000000000000000000000000000000000000000000000600052603260045260246000fd5b602002602001019073ffffffffffffffffffffffffffffffffffffffff16908173ffffffffffffffffffffffffffffffffffffffff1681525050601760009054906101000a900473ffffffffffffffffffffffffffffffffffffffff1673ffffffffffffffffffffffffffffffffffffffff1663ad5c46486040518163ffffffff1660e01b815260040160206040518083038186803b158015610a1957600080fd5b505afa158015610a2d573d6000803e3d6000fd5b505050506040513d601f19601f82011682018060405250810190610a519190611c15565b81600181518110610a8b577f4e487b7100000000000000000000000000000000000000000000000000000000600052603260045260246000fd5b602002602001019073ffffffffffffffffffffffffffffffffffffffff16908173ffffffffffffffffffffffffffffffffffffffff1681525050601760009054906101000a900473ffffffffffffffffffffffffffffffffffffffff1673ffffffffffffffffffffffffffffffffffffffff1663791ac9478360008430426040518663ffffffff1660e01b8152600401610b299594939291906121f9565b600060405180830381600087803b158015610b4357600080fd5b505af1158015610b57573d6000803e3d6000fd5b5050505050506000600460146101000a81548160ff02191690831515021790555050565b600360009054906101000a900473ffffffffffffffffffffffffffffffffffffffff1673ffffffffffffffffffffffffffffffffffffffff163373ffffffffffffffffffffffffffffffffffffffff1614610c0b576040517f08c379a0000000000000000000000000000000000000000000000000000000008152600401610c029061215e565b60405180910390fd5b600073ffffffffffffffffffffffffffffffffffffffff168173ffffffffffffffffffffffffffffffffffffffff161415610c7b576040517f08c379a0000000000000000000000000000000000000000000000000000000008152600401610c72906120de565b60405180910390fd5b60008173ffffffffffffffffffffffffffffffffffffffff166370a0823160006040518263ffffffff1660e01b8152600401610cb79190612088565b60206040518083038186803b158015610ccf57600080fd5b505afa158015610ce3573d6000803e3d6000fd5b505050506040513d601f19601f82011682018060405250810190610d079190611d12565b14610d47576040517f08c379a0000000000000000000000000000000000000000000000000000000008152600401610d3e9061211e565b60405180910390fd5b806000806101000a81548173ffffffffffffffffffffffffffffffffffffffff021916908373ffffffffffffffffffffffffffffffffffffffff16021790555060008054906101000a900473ffffffffffffffffffffffffffffffffffffffff16601660006101000a81548173ffffffffffffffffffffffffffffffffffffffff021916908373ffffffffffffffffffffffffffffffffffffffff160217905550610e1160008054906101000a900473ffffffffffffffffffffffffffffffffffffffff16611220565b50565b60105481565b60115481565b600360009054906101000a900473ffffffffffffffffffffffffffffffffffffffff1673ffffffffffffffffffffffffffffffffffffffff163373ffffffffffffffffffffffffffffffffffffffff1614610eb0576040517f08c379a0000000000000000000000000000000000000000000000000000000008152600401610ea79061215e565b60405180910390fd5b6004815114610ef4576040517f08c379a0000000000000000000000000000000000000000000000000000000008152600401610eeb906120be565b60405180910390fd5b610efd816119a1565b80600081518110610f37577f4e487b7100000000000000000000000000000000000000000000000000000000600052603260045260246000fd5b6020026020010151600c8190555080600181518110610f7f577f4e487b7100000000000000000000000000000000000000000000000000000000600052603260045260246000fd5b6020026020010151600d8190555080600281518110610fc7577f4e487b7100000000000000000000000000000000000000000000000000000000600052603260045260246000fd5b6020026020010151600e819055508060038151811061100f577f4e487b7100000000000000000000000000000000000000000000000000000000600052603260045260246000fd5b6020026020010151600f8190555050565b600360009054906101000a900473ffffffffffffffffffffffffffffffffffffffff1673ffffffffffffffffffffffffffffffffffffffff163373ffffffffffffffffffffffffffffffffffffffff16146110b0576040517f08c379a00000000000000000000000000000000000000000000000000000000081526004016110a79061215e565b60405180910390fd5b60048151146110f4576040517f08c379a00000000000000000000000000000000000000000000000000000000081526004016110eb906120be565b60405180910390fd5b6110fd816119a1565b80600081518110611137577f4e487b7100000000000000000000000000000000000000000000000000000000600052603260045260246000fd5b60200260200101516008819055508060018151811061117f577f4e487b7100000000000000000000000000000000000000000000000000000000600052603260045260246000fd5b6020026020010151600981905550806002815181106111c7577f4e487b7100000000000000000000000000000000000000000000000000000000600052603260045260246000fd5b6020026020010151600a819055508060038151811061120f577f4e487b7100000000000000000000000000000000000000000000000000000000600052603260045260246000fd5b6020026020010151600b8190555050565b600360009054906101000a900473ffffffffffffffffffffffffffffffffffffffff1673ffffffffffffffffffffffffffffffffffffffff163373ffffffffffffffffffffffffffffffffffffffff16146112b0576040517f08c379a00000000000000000000000000000000000000000000000000000000081526004016112a79061215e565b60405180910390fd5b6001601860008373ffffffffffffffffffffffffffffffffffffffff1673ffffffffffffffffffffffffffffffffffffffff16815260200190815260200160002060006101000a81548160ff02191690831515021790555050565b601560009054906101000a900473ffffffffffffffffffffffffffffffffffffffff1681565b6000600460149054906101000a900460ff16905090565b60125481565b60006001905090565b600360009054906101000a900473ffffffffffffffffffffffffffffffffffffffff1673ffffffffffffffffffffffffffffffffffffffff163373ffffffffffffffffffffffffffffffffffffffff16146113e7576040517f08c379a00000000000000000000000000000000000000000000000000000000081526004016113de9061215e565b60405180910390fd5b600381511461142b576040517f08c379a00000000000000000000000000000000000000000000000000000000081526004016114229061213e565b60405180910390fd5b80600081518110611465577f4e487b7100000000000000000000000000000000000000000000000000000000600052603260045260246000fd5b6020026020010151601360006101000a81548173ffffffffffffffffffffffffffffffffffffffff021916908373ffffffffffffffffffffffffffffffffffffffff160217905550806001815181106114e7577f4e487b7100000000000000000000000000000000000000000000000000000000600052603260045260246000fd5b6020026020010151601460006101000a81548173ffffffffffffffffffffffffffffffffffffffff021916908373ffffffffffffffffffffffffffffffffffffffff16021790555080600281518110611569577f4e487b7100000000000000000000000000000000000000000000000000000000600052603260045260246000fd5b6020026020010151601560006101000a81548173ffffffffffffffffffffffffffffffffffffffff021916908373ffffffffffffffffffffffffffffffffffffffff16021790555050565b600360009054906101000a900473ffffffffffffffffffffffffffffffffffffffff1673ffffffffffffffffffffffffffffffffffffffff163373ffffffffffffffffffffffffffffffffffffffff1614611644576040517f08c379a000000000000000000000000000000000000000000000000000000000815260040161163b9061215e565b60405180910390fd5b6000601860008373ffffffffffffffffffffffffffffffffffffffff1673ffffffffffffffffffffffffffffffffffffffff16815260200190815260200160002060006101000a81548160ff02191690831515021790555050565b600360009054906101000a900473ffffffffffffffffffffffffffffffffffffffff1673ffffffffffffffffffffffffffffffffffffffff163373ffffffffffffffffffffffffffffffffffffffff161461172f576040517f08c379a00000000000000000000000000000000000000000000000000000000081526004016117269061215e565b60405180910390fd5b600073ffffffffffffffffffffffffffffffffffffffff168173ffffffffffffffffffffffffffffffffffffffff16141561179f576040517f08c379a0000000000000000000000000000000000000000000000000000000008152600401611796906120de565b60405180910390fd5b80600360006101000a81548173ffffffffffffffffffffffffffffffffffffffff021916908373ffffffffffffffffffffffffffffffffffffffff160217905550600160186000600360009054906101000a900473ffffffffffffffffffffffffffffffffffffffff1673ffffffffffffffffffffffffffffffffffffffff1673ffffffffffffffffffffffffffffffffffffffff16815260200190815260200160002060006101000a81548160ff02191690831515021790555050565b600360009054906101000a900473ffffffffffffffffffffffffffffffffffffffff1673ffffffffffffffffffffffffffffffffffffffff163373ffffffffffffffffffffffffffffffffffffffff16146118ed576040517f08c379a00000000000000000000000000000000000000000000000000000000081526004016118e49061215e565b60405180910390fd5b600073ffffffffffffffffffffffffffffffffffffffff168173ffffffffffffffffffffffffffffffffffffffff16141561195d576040517f08c379a00000000000000000000000000000000000000000000000000000000081526004016119549061217e565b60405180910390fd5b80600260006101000a81548173ffffffffffffffffffffffffffffffffffffffff021916908373ffffffffffffffffffffffffffffffffffffffff16021790555050565b6000805b8251811015611a0f578281815181106119e7577f4e487b7100000000000000000000000000000000000000000000000000000000600052603260045260246000fd5b6020026020010151826119fa9190612326565b91508080611a0790612419565b9150506119a5565b5060648114611a53576040517f08c379a0000000000000000000000000000000000000000000000000000000008152600401611a4a906120fe565b60405180910390fd5b5050565b6000611a6a611a6584612284565b612253565b90508083825260208201905082856020860282011115611a8957600080fd5b60005b85811015611ab95781611a9f8882611b2f565b845260208401935060208301925050600181019050611a8c565b5050509392505050565b6000611ad6611ad1846122b0565b612253565b90508083825260208201905082856020860282011115611af557600080fd5b60005b85811015611b255781611b0b8882611bc2565b845260208401935060208301925050600181019050611af8565b5050509392505050565b600081359050611b3e816124ef565b92915050565b600081519050611b53816124ef565b92915050565b600081359050611b6881612506565b92915050565b600082601f830112611b7f57600080fd5b8135611b8f848260208601611a57565b91505092915050565b600082601f830112611ba957600080fd5b8135611bb9848260208601611ac3565b91505092915050565b600081359050611bd18161251d565b92915050565b600081519050611be68161251d565b92915050565b600060208284031215611bfe57600080fd5b6000611c0c84828501611b2f565b91505092915050565b600060208284031215611c2757600080fd5b6000611c3584828501611b44565b91505092915050565b600060208284031215611c5057600080fd5b6000611c5e84828501611b59565b91505092915050565b600060208284031215611c7957600080fd5b600082013567ffffffffffffffff811115611c9357600080fd5b611c9f84828501611b6e565b91505092915050565b600060208284031215611cba57600080fd5b600082013567ffffffffffffffff811115611cd457600080fd5b611ce084828501611b98565b91505092915050565b600060208284031215611cfb57600080fd5b6000611d0984828501611bc2565b91505092915050565b600060208284031215611d2457600080fd5b6000611d3284828501611bd7565b91505092915050565b6000611d478383611d53565b60208301905092915050565b611d5c816123ad565b82525050565b611d6b816123ad565b82525050565b6000611d7c826122ec565b611d868185612304565b9350611d91836122dc565b8060005b83811015611dc2578151611da98882611d3b565b9750611db4836122f7565b925050600181019050611d95565b5085935050505092915050565b611dd8816123d1565b82525050565b611de781612407565b82525050565b6000611dfa601f83612315565b91507f57726f6e67206e756d626572206f66207368617265732070726f7669646564006000830152602082019050919050565b6000611e3a601983612315565b91507f53686f756c64206e6f74206265206120302061646472657373000000000000006000830152602082019050919050565b6000611e7a602183612315565b91507f546f74616c2073686172657320616d6f756e742073686f756c6420626520313060008301527f30000000000000000000000000000000000000000000000000000000000000006020830152604082019050919050565b6000611ee0601083612315565b91507f4e6f742076616c696420726f75746572000000000000000000000000000000006000830152602082019050919050565b6000611f20602083612315565b91507f57726f6e67206e756d626572206f662077616c6c6574732070726f76696465646000830152602082019050919050565b6000611f60600683612315565b91507f214f574e455200000000000000000000000000000000000000000000000000006000830152602082019050919050565b6000611fa0601783612315565b91507f73686f756c64206e6f74206265203020616464726573730000000000000000006000830152602082019050919050565b6000611fe0601c83612315565b91507f70726f766964652076616c696420726f757465722061646472657373000000006000830152602082019050919050565b6000612020602983612315565b91507f737761705468726573686f6c642063616e6e6f74206265206c6573732074686560008301527f6e203120746f6b656e00000000000000000000000000000000000000000000006020830152604082019050919050565b612082816123fd565b82525050565b600060208201905061209d6000830184611d62565b92915050565b60006020820190506120b86000830184611dcf565b92915050565b600060208201905081810360008301526120d781611ded565b9050919050565b600060208201905081810360008301526120f781611e2d565b9050919050565b6000602082019050818103600083015261211781611e6d565b9050919050565b6000602082019050818103600083015261213781611ed3565b9050919050565b6000602082019050818103600083015261215781611f13565b9050919050565b6000602082019050818103600083015261217781611f53565b9050919050565b6000602082019050818103600083015261219781611f93565b9050919050565b600060208201905081810360008301526121b781611fd3565b9050919050565b600060208201905081810360008301526121d781612013565b9050919050565b60006020820190506121f36000830184612079565b92915050565b600060a08201905061220e6000830188612079565b61221b6020830187611dde565b818103604083015261222d8186611d71565b905061223c6060830185611d62565b6122496080830184612079565b9695505050505050565b6000604051905081810181811067ffffffffffffffff8211171561227a576122796124c0565b5b8060405250919050565b600067ffffffffffffffff82111561229f5761229e6124c0565b5b602082029050602081019050919050565b600067ffffffffffffffff8211156122cb576122ca6124c0565b5b602082029050602081019050919050565b6000819050602082019050919050565b600081519050919050565b6000602082019050919050565b600082825260208201905092915050565b600082825260208201905092915050565b6000612331826123fd565b915061233c836123fd565b9250827fffffffffffffffffffffffffffffffffffffffffffffffffffffffffffffffff0382111561237157612370612462565b5b828201905092915050565b6000612387826123fd565b9150612392836123fd565b9250826123a2576123a1612491565b5b828204905092915050565b60006123b8826123dd565b9050919050565b60006123ca826123dd565b9050919050565b60008115159050919050565b600073ffffffffffffffffffffffffffffffffffffffff82169050919050565b6000819050919050565b6000612412826123fd565b9050919050565b6000612424826123fd565b91507fffffffffffffffffffffffffffffffffffffffffffffffffffffffffffffffff82141561245757612456612462565b5b600182019050919050565b7f4e487b7100000000000000000000000000000000000000000000000000000000600052601160045260246000fd5b7f4e487b7100000000000000000000000000000000000000000000000000000000600052601260045260246000fd5b7f4e487b7100000000000000000000000000000000000000000000000000000000600052604160045260246000fd5b6124f8816123ad565b811461250357600080fd5b50565b61250f816123bf565b811461251a57600080fd5b50565b612526816123fd565b811461253157600080fd5b5056fea26469706673582212205e868bc31db126fa79287ca6d2bf10c1c67126e70bf8ff20ac01e1d994946c2a64736f6c63430008000033",
  "immutableReferences": {},
  "source": "// SPDX-License-Identifier: MIT\n\npragma solidity ^0.8.0;\n\nimport \"./IDexRouter.sol\";\nimport \"./IBEP20.sol\";\nimport \"./SafeMath.sol\";\n\ncontract AIRouter {\n  using SafeMath for uint256;\n\n  address private _aiTokenAddress;\n  address private _routerAddress = 0x3380aE82e39E42Ca34EbEd69aF67fAa0683Bb5c1;\n  address private _lpLockAddress = 0x51228d1FA3dCD52CCE7D08A1F3Db51c53F5Fb3fF;\n  address private contractOwner;\n  address private pair;\n\n  bool private inSwap;\n  bool private swapEnabled = true;\n\n  uint256 private accuracy = 100;\n  uint256 private target = 30;\n  uint256 public swapThreshold = 100 * (10 ** 18); // 100 TOKENS\n  \n  uint256 private liqTaxShare = 50;\n  uint256 private treasuryTaxShare = 20;\n  uint256 private rewardTaxShare = 20;\n  uint256 private devTaxShare = 10;\n\n  uint256 private liqRoyaltyShare = 20;\n  uint256 private treasuryRoyaltyShare = 30;\n  uint256 private rewardRoyaltyShare = 40;\n  uint256 private devRoyaltyShare = 10;\n\n  uint256 public liqBalance = 0;\n  uint256 public rewardBalance = 0;\n  uint256 public devBalance = 0;\n\n  address public rewardsBNBPool = 0x51228d1FA3dCD52CCE7D08A1F3Db51c53F5Fb3fF;\n  address public devBNBPool = 0x51228d1FA3dCD52CCE7D08A1F3Db51c53F5Fb3fF;\n  address public treasuryAddress = 0x51228d1FA3dCD52CCE7D08A1F3Db51c53F5Fb3fF;\n\n  IBEP20 private aiContract;\n  IDexRouter private router = IDexRouter(_routerAddress);\n\n  mapping (address => bool) internal authorizations;\n\n  constructor(address ai, address _pair) {\n    contractOwner = msg.sender;\n    authorize(contractOwner);\n    changeAiAddress(ai);\n\n    aiContract.approve(address(router), type(uint256).max);\n    pair = _pair;\n  }\n\n  receive() external payable {\n    // if (!inSwap) {\n    //   _distributeRoyalties();\n    // }\n  }\n  \n  /**\n  * Function modifier to require caller to be authorized\n  */\n  modifier authorized() {\n      require(authorizations[msg.sender], \"!AUTHORIZED\"); _;\n  }\n\n  /**\n  * Function modifier to require caller to be contract owner\n  */\n  modifier onlyOwner() {\n    require(msg.sender == contractOwner, \"!OWNER\"); _;\n  }\n\n  /**\n  * Function modifier to set inSwap to true while swapping\n  */\n  // modifier swapping() {\n\t// \taiContract.changeIsSwap(true);\n\t// \t_;\n\t// \taiContract.changeIsSwap(false);\n\t// }\n\n  modifier swapping() {\n\t\tinSwap = true;\n\t\t_;\n\t  inSwap = false;\n\t}\n\n  function isInSwap() external view returns (bool) {\n    return inSwap;\n  }\n\n  function supportsDistribureFunction() external pure returns (bool) {\n    return true;\n  }\n\n  function _shouldSwapBack() private view returns (bool) {\n    return liqBalance >= swapThreshold\n      && swapEnabled\n      && msg.sender != pair\n      && !inSwap;\n  }\n\n  function addLiquidity(uint256 AI, uint256 BNB) private swapping {\n    router.addLiquidityETH{value: BNB}(\n\t\t\t_aiTokenAddress,\n\t\t\tAI,\n\t\t\t0,\n\t\t\t0,\n\t\t\t_lpLockAddress,\n\t\t\tblock.timestamp\n\t\t);\n  }\n\n  function _swapAI(uint256 swapAmount) private swapping returns (uint256) {\n    uint256 balanceBeforeSwap = address(this).balance;\n    \n    address[] memory path = new address[](2);\n    path[0] = _aiTokenAddress;\n    path[1] = router.WETH();\n    router.swapExactTokensForETHSupportingFeeOnTransferTokens(swapAmount, 0, path, address(this), block.timestamp);\n\n    uint256 bnbReceived = address(this).balance.sub(balanceBeforeSwap);\n    return bnbReceived;\n  }\n\n  function _swapBNB(uint256 swapAmount) private swapping returns (uint256) {\n    uint256 balanceBeforeSwap = aiContract.balanceOf(address(this));\n    \n    address[] memory path = new address[](2);\n    path[0] = router.WETH();\n    path[1] = _aiTokenAddress;\n    router.swapExactETHForTokensSupportingFeeOnTransferTokens{value: swapAmount}(0, path, address(this), block.timestamp);\n\n    uint256 aiReceived = aiContract.balanceOf(address(this)).sub(balanceBeforeSwap);\n    return aiReceived;\n  }\n\n  function _distributeFees(uint256 shareA, uint256 shareB) internal {\n    if (shareA > 0) { payable(rewardsBNBPool).transfer(shareA); }\n    if (shareB > 0) { payable(devBNBPool).transfer(shareB); }\n  }\n\n  function liquify() internal {\n    // uint256 aiForLiqToSwap = isOverLiquified() ? liqBalance : liqBalance.div(2);\n    // uint256 aiToSwap = aiForLiqToSwap.add(rewardBalance).add(devBalance);\n\n    // uint256 bnbReceived = _swapAI(aiToSwap);\n    // uint256 bnbForLiq = bnbReceived.mul(aiForLiqToSwap).div(aiToSwap);\n    // uint256 bnbForRewards = bnbReceived.mul(rewardTaxShare).div(aiToSwap);\n    // uint256 bnbForDev = bnbReceived.mul(devTaxShare).div(aiToSwap);\n\n    // if (isOverLiquified()) {\n    //   payable(rewardsBNBPool).transfer(bnbForLiq);\n    // } else {\n    //   addLiquidity(aiForLiqToSwap, bnbForLiq);\n    // }\n\n    // _distributeFees(\n    //   bnbForRewards,\n    //   bnbForDev\n    // );\n    \n    // liqBalance = aiContract.balanceOf(address(this));\n    // rewardBalance = 0;\n    // devBalance = 0;\n\n    uint256 amountToLiquify = IBEP20(_aiTokenAddress).balanceOf(address(this)) / 2; \n\n    address[] memory path = new address[](2);\n    path[0] = _aiTokenAddress;\n    path[1] = router.WETH();\n\n    router.swapExactTokensForETHSupportingFeeOnTransferTokens(\n        amountToLiquify,\n        0,\n        path,\n        address(this),\n        block.timestamp\n    );\n  }\n\n  function _distributeRoyalties() internal {\n    uint256 receivedAmount = msg.value;\n    uint256 aiReceived = _swapBNB(receivedAmount.div(2));\n\n    uint256 aiForLiq = _calculateShare(aiReceived.mul(2), liqRoyaltyShare);\n    uint256 toAiTreasury = _calculateShare(aiReceived.mul(2), treasuryRoyaltyShare);\n    uint256 bnbToReward = _calculateShare(receivedAmount, rewardRoyaltyShare);\n    uint256 bnbToDev = _calculateShare(receivedAmount, devRoyaltyShare);\n\n    liqBalance += aiForLiq;\n    aiContract.transfer(treasuryAddress, toAiTreasury);\n\n    _distributeFees(bnbToReward, bnbToDev);\n\n    if (_shouldSwapBack()) { liquify(); }\n  }\n  \n  // not finalised, waiting for the final calculations schema\n  function distributeTax(uint256 amount) external swapping {\n    // if (amount > 0) {\n    //   uint256 aiForLiq = _calculateShare(amount, liqTaxShare);\n    //   uint256 aiForRewards = _calculateShare(amount, rewardTaxShare);\n    //   uint256 aiForDev = _calculateShare(amount, devTaxShare);\n    //   uint256 toAiTreasury = _calculateShare(amount, treasuryTaxShare);\n\n    //   liqBalance += aiForLiq;\n    //   rewardBalance += aiForRewards;\n    //   devBalance += aiForDev;\n\n    //   aiContract.transfer(treasuryAddress, toAiTreasury);\n      \n    //   if (_shouldSwapBack()) { liquify(); }\n    // }\n    uint256 amountToLiquify = aiContract.balanceOf(address(this)) / 2; \n\n    address[] memory path = new address[](2);\n    path[0] = address(aiContract);\n    path[1] = router.WETH();\n\n    router.swapExactTokensForETHSupportingFeeOnTransferTokens(\n        amountToLiquify,\n        0,\n        path,\n        address(this),\n        block.timestamp\n    );\n  }\n\n  function getLiquidityBacking() private view returns (uint256) {\n    return accuracy.mul(aiContract.balanceOf(pair).mul(2)).div(aiContract.totalSupply());\n  }\n  function isOverLiquified() private view returns (bool) {\n    return getLiquidityBacking() > target;\n  }\n\n  function _calculateShare(uint256 amount, uint256 share) private pure returns (uint256) {\n    return amount.mul(share).div(100);\n  }\n\n  function _validateShares(uint256[] memory shares) private pure {\n    uint256 shareSum = 0;\n    for (uint256 i = 0; i < shares.length; i++) {\n      shareSum += shares[i];\n    }\n    require(shareSum == 100, \"Total shares amount should be 100\");\n  }\n\n  function changeTaxShares(uint256[] memory shares) public onlyOwner {\n    require(shares.length == 4, 'Wrong number of shares provided');\n    _validateShares(shares);\n\n    liqTaxShare = shares[0];\n    treasuryTaxShare = shares[1];\n    rewardTaxShare = shares[2];\n    devTaxShare = shares[3];\n  }\n\n  function changeRoyaltyShares(uint256[] memory shares) public onlyOwner {\n    require(shares.length == 4, 'Wrong number of shares provided');\n    _validateShares(shares);\n\n    liqRoyaltyShare = shares[0];\n    treasuryRoyaltyShare = shares[1];\n    rewardRoyaltyShare = shares[2];\n    devRoyaltyShare = shares[3];\n  }\n\n  function changeDistributionAddresses(address[] memory addreses) public onlyOwner {\n    require(addreses.length == 3, 'Wrong number of wallets provided');\n\n    rewardsBNBPool = addreses[0];\n    devBNBPool = addreses[1];\n    treasuryAddress = addreses[2];\n  }\n\n  function changeSwapThresholdAmount(uint256 newValue) public onlyOwner {\n    require(newValue >= 1 * 10**18, 'swapThreshold cannot be less then 1 token');\n    swapThreshold = newValue;\n  }\n\n  function changeRouterAddress(address newRouterAddress) public onlyOwner {\n    require(IDexRouter(newRouterAddress).WETH() != address(0), 'provide valid router address');\n    _routerAddress = newRouterAddress;\n    router = IDexRouter(_routerAddress);\n  }\n\n  function changeLpLockAddress(address newLpAddress) public onlyOwner {\n    require(newLpAddress != address(0), 'should not be 0 address');\n    _lpLockAddress = newLpAddress;\n  }\n\n  /**\n  * @dev Only owner can call this function. Activates tax collection.\n  */\n  function changeAiAddress(address ai) public onlyOwner {\n    require(ai != address(0), 'Should not be a 0 address');\n    require(IBEP20(ai).balanceOf(address(0)) == 0, 'Not valid router'); // check the balanceOf method\n\n    _aiTokenAddress = ai;\n    aiContract = IBEP20(_aiTokenAddress);\n    authorize(_aiTokenAddress);\n  }\n\n  /**\n  * @dev Only owner can call this function. Transfer ownership to new address. Caller must be owner.\n  */\n  function transferOwnership(address payable adr) public onlyOwner {\n      require(adr != address(0), 'Should not be a 0 address');\n      contractOwner = adr;\n      authorizations[contractOwner] = true;\n  }\n  /**\n    * Authorize address. Owner only\n  */\n  function authorize(address adr) public onlyOwner {\n      authorizations[adr] = true;\n  }\n\n  /**\n    * Remove address' authorization. Owner only\n    */\n  function unauthorize(address adr) public onlyOwner {\n      authorizations[adr] = false;\n  }\n}",
  "sourcePath": "/Users/viktor/Documents/Projects/solidity/hibiki/src/contracts/AIRouter.sol",
  "compiler": {
    "name": "solc",
    "version": "0.8.0+commit.c7dfd78e.Emscripten.clang"
  },
  "schemaVersion": "3.4.1",
  "updatedAt": "2021-10-05T17:43:58.689Z",
  "networkType": "ethereum",
  "devdoc": {
    "kind": "dev",
    "methods": {
      "changeAiAddress(address)": {
        "details": "Only owner can call this function. Activates tax collection."
      },
      "transferOwnership(address)": {
        "details": "Only owner can call this function. Transfer ownership to new address. Caller must be owner."
      }
    },
    "version": 1
  },
  "userdoc": {
    "kind": "user",
    "methods": {
      "authorize(address)": {
        "notice": "Authorize address. Owner only"
      },
      "unauthorize(address)": {
        "notice": "Remove address' authorization. Owner only"
      }
    },
    "version": 1
  }
}