{
  "contractName": "AIRouter",
  "abi": [
    {
      "inputs": [
        {
          "internalType": "address",
          "name": "ai",
          "type": "address"
        },
        {
          "internalType": "address",
          "name": "_pair",
          "type": "address"
        }
      ],
      "stateMutability": "nonpayable",
      "type": "constructor"
    },
    {
      "inputs": [],
      "name": "devBNBPool",
      "outputs": [
        {
          "internalType": "address",
          "name": "",
          "type": "address"
        }
      ],
      "stateMutability": "view",
      "type": "function",
      "constant": true
    },
    {
      "inputs": [],
      "name": "devBalance",
      "outputs": [
        {
          "internalType": "uint256",
          "name": "",
          "type": "uint256"
        }
      ],
      "stateMutability": "view",
      "type": "function",
      "constant": true
    },
    {
      "inputs": [],
      "name": "devRoyaltyShare",
      "outputs": [
        {
          "internalType": "uint256",
          "name": "",
          "type": "uint256"
        }
      ],
      "stateMutability": "view",
      "type": "function",
      "constant": true
    },
    {
      "inputs": [],
      "name": "devTaxShare",
      "outputs": [
        {
          "internalType": "uint256",
          "name": "",
          "type": "uint256"
        }
      ],
      "stateMutability": "view",
      "type": "function",
      "constant": true
    },
    {
      "inputs": [],
      "name": "liqBalance",
      "outputs": [
        {
          "internalType": "uint256",
          "name": "",
          "type": "uint256"
        }
      ],
      "stateMutability": "view",
      "type": "function",
      "constant": true
    },
    {
      "inputs": [],
      "name": "liqRoyaltyShare",
      "outputs": [
        {
          "internalType": "uint256",
          "name": "",
          "type": "uint256"
        }
      ],
      "stateMutability": "view",
      "type": "function",
      "constant": true
    },
    {
      "inputs": [],
      "name": "liqTaxShare",
      "outputs": [
        {
          "internalType": "uint256",
          "name": "",
          "type": "uint256"
        }
      ],
      "stateMutability": "view",
      "type": "function",
      "constant": true
    },
    {
      "inputs": [],
      "name": "rewardBalance",
      "outputs": [
        {
          "internalType": "uint256",
          "name": "",
          "type": "uint256"
        }
      ],
      "stateMutability": "view",
      "type": "function",
      "constant": true
    },
    {
      "inputs": [],
      "name": "rewardRoyaltyShare",
      "outputs": [
        {
          "internalType": "uint256",
          "name": "",
          "type": "uint256"
        }
      ],
      "stateMutability": "view",
      "type": "function",
      "constant": true
    },
    {
      "inputs": [],
      "name": "rewardTaxShare",
      "outputs": [
        {
          "internalType": "uint256",
          "name": "",
          "type": "uint256"
        }
      ],
      "stateMutability": "view",
      "type": "function",
      "constant": true
    },
    {
      "inputs": [],
      "name": "rewardsBNBPool",
      "outputs": [
        {
          "internalType": "address",
          "name": "",
          "type": "address"
        }
      ],
      "stateMutability": "view",
      "type": "function",
      "constant": true
    },
    {
      "inputs": [],
      "name": "swapThreshold",
      "outputs": [
        {
          "internalType": "uint256",
          "name": "",
          "type": "uint256"
        }
      ],
      "stateMutability": "view",
      "type": "function",
      "constant": true
    },
    {
      "inputs": [],
      "name": "treasuryAddress",
      "outputs": [
        {
          "internalType": "address",
          "name": "",
          "type": "address"
        }
      ],
      "stateMutability": "view",
      "type": "function",
      "constant": true
    },
    {
      "inputs": [],
      "name": "treasuryBalance",
      "outputs": [
        {
          "internalType": "uint256",
          "name": "",
          "type": "uint256"
        }
      ],
      "stateMutability": "view",
      "type": "function",
      "constant": true
    },
    {
      "inputs": [],
      "name": "treasuryRoyaltyShare",
      "outputs": [
        {
          "internalType": "uint256",
          "name": "",
          "type": "uint256"
        }
      ],
      "stateMutability": "view",
      "type": "function",
      "constant": true
    },
    {
      "inputs": [],
      "name": "treasuryTaxShare",
      "outputs": [
        {
          "internalType": "uint256",
          "name": "",
          "type": "uint256"
        }
      ],
      "stateMutability": "view",
      "type": "function",
      "constant": true
    },
    {
      "stateMutability": "payable",
      "type": "receive",
      "payable": true
    },
    {
      "inputs": [],
      "name": "isInSwap",
      "outputs": [
        {
          "internalType": "bool",
          "name": "",
          "type": "bool"
        }
      ],
      "stateMutability": "view",
      "type": "function",
      "constant": true
    },
    {
      "inputs": [],
      "name": "supportsDistribureFunction",
      "outputs": [
        {
          "internalType": "bool",
          "name": "",
          "type": "bool"
        }
      ],
      "stateMutability": "pure",
      "type": "function",
      "constant": true
    },
    {
      "inputs": [
        {
          "internalType": "uint256",
          "name": "amount",
          "type": "uint256"
        }
      ],
      "name": "distributeTax",
      "outputs": [],
      "stateMutability": "nonpayable",
      "type": "function"
    },
    {
      "inputs": [],
      "name": "liquifyBack",
      "outputs": [],
      "stateMutability": "nonpayable",
      "type": "function"
    },
    {
      "inputs": [
        {
          "internalType": "uint256",
          "name": "share",
          "type": "uint256"
        }
      ],
      "name": "changeLiqTaxShare",
      "outputs": [],
      "stateMutability": "nonpayable",
      "type": "function"
    },
    {
      "inputs": [
        {
          "internalType": "uint256",
          "name": "share",
          "type": "uint256"
        }
      ],
      "name": "changeTreasuryTaxShare",
      "outputs": [],
      "stateMutability": "nonpayable",
      "type": "function"
    },
    {
      "inputs": [
        {
          "internalType": "uint256",
          "name": "share",
          "type": "uint256"
        }
      ],
      "name": "changeRewardTaxShare",
      "outputs": [],
      "stateMutability": "nonpayable",
      "type": "function"
    },
    {
      "inputs": [
        {
          "internalType": "uint256",
          "name": "share",
          "type": "uint256"
        }
      ],
      "name": "changeDevTaxShare",
      "outputs": [],
      "stateMutability": "nonpayable",
      "type": "function"
    },
    {
      "inputs": [
        {
          "internalType": "uint256",
          "name": "share",
          "type": "uint256"
        }
      ],
      "name": "changeLiqRoyaltyShare",
      "outputs": [],
      "stateMutability": "nonpayable",
      "type": "function"
    },
    {
      "inputs": [
        {
          "internalType": "uint256",
          "name": "share",
          "type": "uint256"
        }
      ],
      "name": "changeTreasuryRoyaltyShare",
      "outputs": [],
      "stateMutability": "nonpayable",
      "type": "function"
    },
    {
      "inputs": [
        {
          "internalType": "uint256",
          "name": "share",
          "type": "uint256"
        }
      ],
      "name": "changeRewardRoyaltyShare",
      "outputs": [],
      "stateMutability": "nonpayable",
      "type": "function"
    },
    {
      "inputs": [
        {
          "internalType": "uint256",
          "name": "share",
          "type": "uint256"
        }
      ],
      "name": "changeDevRoyaltyShare",
      "outputs": [],
      "stateMutability": "nonpayable",
      "type": "function"
    },
    {
      "inputs": [
        {
          "internalType": "address",
          "name": "addr",
          "type": "address"
        }
      ],
      "name": "changeRewardAddress",
      "outputs": [],
      "stateMutability": "nonpayable",
      "type": "function"
    },
    {
      "inputs": [
        {
          "internalType": "address",
          "name": "addr",
          "type": "address"
        }
      ],
      "name": "changeDevAddress",
      "outputs": [],
      "stateMutability": "nonpayable",
      "type": "function"
    },
    {
      "inputs": [
        {
          "internalType": "address",
          "name": "addr",
          "type": "address"
        }
      ],
      "name": "changeTreasuryAddress",
      "outputs": [],
      "stateMutability": "nonpayable",
      "type": "function"
    },
    {
      "inputs": [
        {
          "internalType": "uint256",
          "name": "newValue",
          "type": "uint256"
        }
      ],
      "name": "changeSwapThresholdAmount",
      "outputs": [],
      "stateMutability": "nonpayable",
      "type": "function"
    },
    {
      "inputs": [
        {
          "internalType": "address",
          "name": "newRouterAddress",
          "type": "address"
        }
      ],
      "name": "changeRouterAddress",
      "outputs": [],
      "stateMutability": "nonpayable",
      "type": "function"
    },
    {
      "inputs": [
        {
          "internalType": "address",
          "name": "newLpAddress",
          "type": "address"
        }
      ],
      "name": "changeLpLockAddress",
      "outputs": [],
      "stateMutability": "nonpayable",
      "type": "function"
    },
    {
      "inputs": [
        {
          "internalType": "address",
          "name": "ai",
          "type": "address"
        }
      ],
      "name": "changeAiAddress",
      "outputs": [],
      "stateMutability": "nonpayable",
      "type": "function"
    },
    {
      "inputs": [
        {
          "internalType": "address payable",
          "name": "adr",
          "type": "address"
        }
      ],
      "name": "transferOwnership",
      "outputs": [],
      "stateMutability": "nonpayable",
      "type": "function"
    },
    {
      "inputs": [
        {
          "internalType": "address",
          "name": "adr",
          "type": "address"
        }
      ],
      "name": "authorize",
      "outputs": [],
      "stateMutability": "nonpayable",
      "type": "function"
    },
    {
      "inputs": [
        {
          "internalType": "address",
          "name": "adr",
          "type": "address"
        }
      ],
      "name": "unauthorize",
      "outputs": [],
      "stateMutability": "nonpayable",
      "type": "function"
    }
  ],
  "bytecode": "0x6080604052733380ae82e39e42ca34ebed69af67faa0683bb5c1600160006101000a81548173ffffffffffffffffffffffffffffffffffffffff021916908373ffffffffffffffffffffffffffffffffffffffff16021790555030600260006101000a81548173ffffffffffffffffffffffffffffffffffffffff021916908373ffffffffffffffffffffffffffffffffffffffff1602179055506001600460156101000a81548160ff0219169083151502179055506064600555601e6006556801158e460913d00000600755603260085560146009556014600a55600a600b556014600c55601e600d556028600e55600a600f556000601055600060115560006012556000601355739423bbab02a50541c3ecf9f4c659ed6ea332af42601460006101000a81548173ffffffffffffffffffffffffffffffffffffffff021916908373ffffffffffffffffffffffffffffffffffffffff160217905550739423bbab02a50541c3ecf9f4c659ed6ea332af42601560006101000a81548173ffffffffffffffffffffffffffffffffffffffff021916908373ffffffffffffffffffffffffffffffffffffffff160217905550735f55507507c8754b80c08a9791c46ffc15482f99601660006101000a81548173ffffffffffffffffffffffffffffffffffffffff021916908373ffffffffffffffffffffffffffffffffffffffff160217905550600160009054906101000a900473ffffffffffffffffffffffffffffffffffffffff16601860006101000a81548173ffffffffffffffffffffffffffffffffffffffff021916908373ffffffffffffffffffffffffffffffffffffffff1602179055503480156200027757600080fd5b50604051620045363803806200453683398181016040528101906200029d919062000846565b33600360006101000a81548173ffffffffffffffffffffffffffffffffffffffff021916908373ffffffffffffffffffffffffffffffffffffffff16021790555062000311600360009054906101000a900473ffffffffffffffffffffffffffffffffffffffff166200046360201b60201c565b62000322826200055160201b60201c565b601760009054906101000a900473ffffffffffffffffffffffffffffffffffffffff1673ffffffffffffffffffffffffffffffffffffffff1663095ea7b3601860009054906101000a900473ffffffffffffffffffffffffffffffffffffffff167fffffffffffffffffffffffffffffffffffffffffffffffffffffffffffffffff6040518363ffffffff1660e01b8152600401620003c3929190620009e4565b602060405180830381600087803b158015620003de57600080fd5b505af1158015620003f3573d6000803e3d6000fd5b505050506040513d601f19601f8201168201806040525081019062000419919062000887565b5080600460006101000a81548173ffffffffffffffffffffffffffffffffffffffff021916908373ffffffffffffffffffffffffffffffffffffffff160217905550505062000b20565b600360009054906101000a900473ffffffffffffffffffffffffffffffffffffffff1673ffffffffffffffffffffffffffffffffffffffff163373ffffffffffffffffffffffffffffffffffffffff1614620004f6576040517f08c379a0000000000000000000000000000000000000000000000000000000008152600401620004ed9062000a55565b60405180910390fd5b6001601960008373ffffffffffffffffffffffffffffffffffffffff1673ffffffffffffffffffffffffffffffffffffffff16815260200190815260200160002060006101000a81548160ff02191690831515021790555050565b600360009054906101000a900473ffffffffffffffffffffffffffffffffffffffff1673ffffffffffffffffffffffffffffffffffffffff163373ffffffffffffffffffffffffffffffffffffffff1614620005e4576040517f08c379a0000000000000000000000000000000000000000000000000000000008152600401620005db9062000a55565b60405180910390fd5b600073ffffffffffffffffffffffffffffffffffffffff168173ffffffffffffffffffffffffffffffffffffffff16141562000657576040517f08c379a00000000000000000000000000000000000000000000000000000000081526004016200064e9062000a11565b60405180910390fd5b60008173ffffffffffffffffffffffffffffffffffffffff166370a0823160006040518263ffffffff1660e01b8152600401620006959190620009c7565b60206040518083038186803b158015620006ae57600080fd5b505afa158015620006c3573d6000803e3d6000fd5b505050506040513d601f19601f82011682018060405250810190620006e99190620008b3565b146200072c576040517f08c379a0000000000000000000000000000000000000000000000000000000008152600401620007239062000a33565b60405180910390fd5b806000806101000a81548173ffffffffffffffffffffffffffffffffffffffff021916908373ffffffffffffffffffffffffffffffffffffffff16021790555060008054906101000a900473ffffffffffffffffffffffffffffffffffffffff16601760006101000a81548173ffffffffffffffffffffffffffffffffffffffff021916908373ffffffffffffffffffffffffffffffffffffffff160217905550620007fe60008054906101000a900473ffffffffffffffffffffffffffffffffffffffff166200046360201b60201c565b50565b600081519050620008128162000ad2565b92915050565b600081519050620008298162000aec565b92915050565b600081519050620008408162000b06565b92915050565b600080604083850312156200085a57600080fd5b60006200086a8582860162000801565b92505060206200087d8582860162000801565b9150509250929050565b6000602082840312156200089a57600080fd5b6000620008aa8482850162000818565b91505092915050565b600060208284031215620008c657600080fd5b6000620008d6848285016200082f565b91505092915050565b620008ea8162000a88565b82525050565b6000620008ff60198362000a77565b91507f53686f756c64206e6f74206265206120302061646472657373000000000000006000830152602082019050919050565b60006200094160108362000a77565b91507f4e6f742076616c696420726f75746572000000000000000000000000000000006000830152602082019050919050565b60006200098360068362000a77565b91507f214f574e455200000000000000000000000000000000000000000000000000006000830152602082019050919050565b620009c18162000ac8565b82525050565b6000602082019050620009de6000830184620008df565b92915050565b6000604082019050620009fb6000830185620008df565b62000a0a6020830184620009b6565b9392505050565b6000602082019050818103600083015262000a2c81620008f0565b9050919050565b6000602082019050818103600083015262000a4e8162000932565b9050919050565b6000602082019050818103600083015262000a708162000974565b9050919050565b600082825260208201905092915050565b600062000a958262000aa8565b9050919050565b60008115159050919050565b600073ffffffffffffffffffffffffffffffffffffffff82169050919050565b6000819050919050565b62000add8162000a88565b811462000ae957600080fd5b50565b62000af78162000a9c565b811462000b0357600080fd5b50565b62000b118162000ac8565b811462000b1d57600080fd5b50565b613a068062000b306000396000f3fe6080604052600436106102295760003560e01c806392b4639011610123578063c5f956af116100ab578063d43bcb151161006f578063d43bcb15146107ad578063e7f7ca63146107d6578063f0b37c04146107ff578063f2fde38b14610828578063fef68c3c146108515761024d565b8063c5f956af146106d6578063cb78799b14610701578063cc9968991461072c578063cd9a1b6314610757578063d3bb8e14146107825761024d565b8063a6f353f0116100f2578063a6f353f014610605578063aa5c3ab41461062e578063b6a5d7de14610659578063ba857c9314610682578063c58bda31146106ad5761024d565b806392b463901461055f5780639e5fbbfe14610588578063a0add0d7146105b1578063a31cd822146105da5761024d565b806333a069e3116101b15780634d2aab9a116101755780634d2aab9a146104905780637503d78a146104b957806378de511a146104e25780637d5618ad1461050b5780639051cb65146105345761024d565b806333a069e3146103bd57806334951692146103e85780633601388f146104115780633f79ba521461043c57806343e9618c146104675761024d565b80631c65ac3e116101f85780631c65ac3e146102e85780631c7e1927146103135780632633cc501461033c5780632de34c3014610367578063313dab20146103925761024d565b80630445b6671461025257806304db6e681461027d5780630c8b9745146102a65780631a39150c146102d15761024d565b3661024d57600460149054906101000a900460ff1661024b5761024a61087a565b5b005b600080fd5b34801561025e57600080fd5b50610267610a18565b60405161027491906136d6565b60405180910390f35b34801561028957600080fd5b506102a4600480360381019061029f919061309e565b610a1e565b005b3480156102b257600080fd5b506102bb610c42565b6040516102c891906136d6565b60405180910390f35b3480156102dd57600080fd5b506102e6610c48565b005b3480156102f457600080fd5b506102fd610dca565b60405161030a91906136d6565b60405180910390f35b34801561031f57600080fd5b5061033a60048036038101906103359190613142565b610dd0565b005b34801561034857600080fd5b50610351610eb5565b60405161035e91906136d6565b60405180910390f35b34801561037357600080fd5b5061037c610ebb565b60405161038991906136d6565b60405180910390f35b34801561039e57600080fd5b506103a7610ec1565b6040516103b491906136d6565b60405180910390f35b3480156103c957600080fd5b506103d2610ec7565b6040516103df91906134ca565b60405180910390f35b3480156103f457600080fd5b5061040f600480360381019061040a9190613142565b610eed565b005b34801561041d57600080fd5b50610426610fcb565b60405161043391906136d6565b60405180910390f35b34801561044857600080fd5b50610451610fd1565b60405161045e91906134ca565b60405180910390f35b34801561047357600080fd5b5061048e60048036038101906104899190613142565b610ff7565b005b34801561049c57600080fd5b506104b760048036038101906104b2919061309e565b61113a565b005b3480156104c557600080fd5b506104e060048036038101906104db919061309e565b61120e565b005b3480156104ee57600080fd5b5061050960048036038101906105049190613142565b6114a7565b005b34801561051757600080fd5b50610532600480360381019061052d9190613142565b611585565b005b34801561054057600080fd5b50610549611663565b60405161055691906136d6565b60405180910390f35b34801561056b57600080fd5b506105866004803603810190610581919061309e565b611669565b005b34801561059457600080fd5b506105af60048036038101906105aa9190613142565b61173d565b005b3480156105bd57600080fd5b506105d860048036038101906105d39190613142565b61181b565b005b3480156105e657600080fd5b506105ef6118f9565b6040516105fc91906136d6565b60405180910390f35b34801561061157600080fd5b5061062c6004803603810190610627919061309e565b6118ff565b005b34801561063a57600080fd5b506106436119d3565b60405161065091906136d6565b60405180910390f35b34801561066557600080fd5b50610680600480360381019061067b919061309e565b6119d9565b005b34801561068e57600080fd5b50610697611ac4565b6040516106a491906136d6565b60405180910390f35b3480156106b957600080fd5b506106d460048036038101906106cf9190613142565b611aca565b005b3480156106e257600080fd5b506106eb611ba8565b6040516106f891906134ca565b60405180910390f35b34801561070d57600080fd5b50610716611bce565b60405161072391906136d6565b60405180910390f35b34801561073857600080fd5b50610741611bd4565b60405161074e919061356f565b60405180910390f35b34801561076357600080fd5b5061076c611beb565b60405161077991906136d6565b60405180910390f35b34801561078e57600080fd5b50610797611bf1565b6040516107a4919061356f565b60405180910390f35b3480156107b957600080fd5b506107d460048036038101906107cf9190613142565b611bfa565b005b3480156107e257600080fd5b506107fd60048036038101906107f89190613142565b611cd8565b005b34801561080b57600080fd5b506108266004803603810190610821919061309e565b611db6565b005b34801561083457600080fd5b5061084f600480360381019061084a91906130f0565b611ea1565b005b34801561085d57600080fd5b506108786004803603810190610873919061309e565b61205f565b005b6000349050600061089d6108986002846121a390919063ffffffff16565b6121b9565b905060006108c06108b86002846125e790919063ffffffff16565b600c546125fd565b905060006108e36108db6002856125e790919063ffffffff16565b600d546125fd565b905060006108f385600e546125fd565b9050600061090386600f546125fd565b905083601060008282546109179190613795565b92505081905550601760009054906101000a900473ffffffffffffffffffffffffffffffffffffffff1673ffffffffffffffffffffffffffffffffffffffff1663a9059cbb601660009054906101000a900473ffffffffffffffffffffffffffffffffffffffff16856040518363ffffffff1660e01b815260040161099d9291906134e5565b602060405180830381600087803b1580156109b757600080fd5b505af11580156109cb573d6000803e3d6000fd5b505050506040513d601f19601f820116820180604052508101906109ef9190613119565b506109fa828261262d565b610a02612717565b15610a1057610a0f6127b1565b5b505050505050565b60075481565b600360009054906101000a900473ffffffffffffffffffffffffffffffffffffffff1673ffffffffffffffffffffffffffffffffffffffff163373ffffffffffffffffffffffffffffffffffffffff1614610aae576040517f08c379a0000000000000000000000000000000000000000000000000000000008152600401610aa590613656565b60405180910390fd5b600073ffffffffffffffffffffffffffffffffffffffff168173ffffffffffffffffffffffffffffffffffffffff1663ad5c46486040518163ffffffff1660e01b815260040160206040518083038186803b158015610b0c57600080fd5b505afa158015610b20573d6000803e3d6000fd5b505050506040513d601f19601f82011682018060405250810190610b4491906130c7565b73ffffffffffffffffffffffffffffffffffffffff161415610b9b576040517f08c379a0000000000000000000000000000000000000000000000000000000008152600401610b9290613696565b60405180910390fd5b80600160006101000a81548173ffffffffffffffffffffffffffffffffffffffff021916908373ffffffffffffffffffffffffffffffffffffffff160217905550600160009054906101000a900473ffffffffffffffffffffffffffffffffffffffff16601860006101000a81548173ffffffffffffffffffffffffffffffffffffffff021916908373ffffffffffffffffffffffffffffffffffffffff16021790555050565b600b5481565b60008054906101000a900473ffffffffffffffffffffffffffffffffffffffff1673ffffffffffffffffffffffffffffffffffffffff163373ffffffffffffffffffffffffffffffffffffffff1614610cd6576040517f08c379a0000000000000000000000000000000000000000000000000000000008152600401610ccd90613636565b60405180910390fd5b601760009054906101000a900473ffffffffffffffffffffffffffffffffffffffff1673ffffffffffffffffffffffffffffffffffffffff1663a9059cbb601660009054906101000a900473ffffffffffffffffffffffffffffffffffffffff166013546040518363ffffffff1660e01b8152600401610d579291906134e5565b602060405180830381600087803b158015610d7157600080fd5b505af1158015610d85573d6000803e3d6000fd5b505050506040513d601f19601f82011682018060405250810190610da99190613119565b506000601381905550610dba612717565b15610dc857610dc76127b1565b5b565b600d5481565b600360009054906101000a900473ffffffffffffffffffffffffffffffffffffffff1673ffffffffffffffffffffffffffffffffffffffff163373ffffffffffffffffffffffffffffffffffffffff1614610e60576040517f08c379a0000000000000000000000000000000000000000000000000000000008152600401610e5790613656565b60405180910390fd5b670de0b6b3a7640000811015610eab576040517f08c379a0000000000000000000000000000000000000000000000000000000008152600401610ea2906136b6565b60405180910390fd5b8060078190555050565b60095481565b600c5481565b60135481565b601560009054906101000a900473ffffffffffffffffffffffffffffffffffffffff1681565b600360009054906101000a900473ffffffffffffffffffffffffffffffffffffffff1673ffffffffffffffffffffffffffffffffffffffff163373ffffffffffffffffffffffffffffffffffffffff1614610f7d576040517f08c379a0000000000000000000000000000000000000000000000000000000008152600401610f7490613656565b60405180910390fd5b6064811115610fc1576040517f08c379a0000000000000000000000000000000000000000000000000000000008152600401610fb890613616565b60405180910390fd5b8060098190555050565b600a5481565b601460009054906101000a900473ffffffffffffffffffffffffffffffffffffffff1681565b60008054906101000a900473ffffffffffffffffffffffffffffffffffffffff1673ffffffffffffffffffffffffffffffffffffffff163373ffffffffffffffffffffffffffffffffffffffff1614611085576040517f08c379a000000000000000000000000000000000000000000000000000000000815260040161107c90613636565b60405180910390fd5b600081111561113757600061109c826008546125fd565b905060006110ac83600a546125fd565b905060006110bc84600b546125fd565b905060006110cc856009546125fd565b905083601060008282546110e09190613795565b9250508190555082601160008282546110f99190613795565b9250508190555081601260008282546111129190613795565b92505081905550806013600082825461112b9190613795565b92505081905550505050505b50565b600360009054906101000a900473ffffffffffffffffffffffffffffffffffffffff1673ffffffffffffffffffffffffffffffffffffffff163373ffffffffffffffffffffffffffffffffffffffff16146111ca576040517f08c379a00000000000000000000000000000000000000000000000000000000081526004016111c190613656565b60405180910390fd5b80601460006101000a81548173ffffffffffffffffffffffffffffffffffffffff021916908373ffffffffffffffffffffffffffffffffffffffff16021790555050565b600360009054906101000a900473ffffffffffffffffffffffffffffffffffffffff1673ffffffffffffffffffffffffffffffffffffffff163373ffffffffffffffffffffffffffffffffffffffff161461129e576040517f08c379a000000000000000000000000000000000000000000000000000000000815260040161129590613656565b60405180910390fd5b600073ffffffffffffffffffffffffffffffffffffffff168173ffffffffffffffffffffffffffffffffffffffff16141561130e576040517f08c379a0000000000000000000000000000000000000000000000000000000008152600401611305906135d6565b60405180910390fd5b60008173ffffffffffffffffffffffffffffffffffffffff166370a0823160006040518263ffffffff1660e01b815260040161134a91906134ca565b60206040518083038186803b15801561136257600080fd5b505afa158015611376573d6000803e3d6000fd5b505050506040513d601f19601f8201168201806040525081019061139a919061316b565b146113da576040517f08c379a00000000000000000000000000000000000000000000000000000000081526004016113d1906135f6565b60405180910390fd5b806000806101000a81548173ffffffffffffffffffffffffffffffffffffffff021916908373ffffffffffffffffffffffffffffffffffffffff16021790555060008054906101000a900473ffffffffffffffffffffffffffffffffffffffff16601760006101000a81548173ffffffffffffffffffffffffffffffffffffffff021916908373ffffffffffffffffffffffffffffffffffffffff1602179055506114a460008054906101000a900473ffffffffffffffffffffffffffffffffffffffff166119d9565b50565b600360009054906101000a900473ffffffffffffffffffffffffffffffffffffffff1673ffffffffffffffffffffffffffffffffffffffff163373ffffffffffffffffffffffffffffffffffffffff1614611537576040517f08c379a000000000000000000000000000000000000000000000000000000000815260040161152e90613656565b60405180910390fd5b606481111561157b576040517f08c379a000000000000000000000000000000000000000000000000000000000815260040161157290613616565b60405180910390fd5b80600d8190555050565b600360009054906101000a900473ffffffffffffffffffffffffffffffffffffffff1673ffffffffffffffffffffffffffffffffffffffff163373ffffffffffffffffffffffffffffffffffffffff1614611615576040517f08c379a000000000000000000000000000000000000000000000000000000000815260040161160c90613656565b60405180910390fd5b6064811115611659576040517f08c379a000000000000000000000000000000000000000000000000000000000815260040161165090613616565b60405180910390fd5b80600f8190555050565b60105481565b600360009054906101000a900473ffffffffffffffffffffffffffffffffffffffff1673ffffffffffffffffffffffffffffffffffffffff163373ffffffffffffffffffffffffffffffffffffffff16146116f9576040517f08c379a00000000000000000000000000000000000000000000000000000000081526004016116f090613656565b60405180910390fd5b80601560006101000a81548173ffffffffffffffffffffffffffffffffffffffff021916908373ffffffffffffffffffffffffffffffffffffffff16021790555050565b600360009054906101000a900473ffffffffffffffffffffffffffffffffffffffff1673ffffffffffffffffffffffffffffffffffffffff163373ffffffffffffffffffffffffffffffffffffffff16146117cd576040517f08c379a00000000000000000000000000000000000000000000000000000000081526004016117c490613656565b60405180910390fd5b6064811115611811576040517f08c379a000000000000000000000000000000000000000000000000000000000815260040161180890613616565b60405180910390fd5b80600a8190555050565b600360009054906101000a900473ffffffffffffffffffffffffffffffffffffffff1673ffffffffffffffffffffffffffffffffffffffff163373ffffffffffffffffffffffffffffffffffffffff16146118ab576040517f08c379a00000000000000000000000000000000000000000000000000000000081526004016118a290613656565b60405180910390fd5b60648111156118ef576040517f08c379a00000000000000000000000000000000000000000000000000000000081526004016118e690613616565b60405180910390fd5b8060088190555050565b600f5481565b600360009054906101000a900473ffffffffffffffffffffffffffffffffffffffff1673ffffffffffffffffffffffffffffffffffffffff163373ffffffffffffffffffffffffffffffffffffffff161461198f576040517f08c379a000000000000000000000000000000000000000000000000000000000815260040161198690613656565b60405180910390fd5b80601660006101000a81548173ffffffffffffffffffffffffffffffffffffffff021916908373ffffffffffffffffffffffffffffffffffffffff16021790555050565b60115481565b600360009054906101000a900473ffffffffffffffffffffffffffffffffffffffff1673ffffffffffffffffffffffffffffffffffffffff163373ffffffffffffffffffffffffffffffffffffffff1614611a69576040517f08c379a0000000000000000000000000000000000000000000000000000000008152600401611a6090613656565b60405180910390fd5b6001601960008373ffffffffffffffffffffffffffffffffffffffff1673ffffffffffffffffffffffffffffffffffffffff16815260200190815260200160002060006101000a81548160ff02191690831515021790555050565b60085481565b600360009054906101000a900473ffffffffffffffffffffffffffffffffffffffff1673ffffffffffffffffffffffffffffffffffffffff163373ffffffffffffffffffffffffffffffffffffffff1614611b5a576040517f08c379a0000000000000000000000000000000000000000000000000000000008152600401611b5190613656565b60405180910390fd5b6064811115611b9e576040517f08c379a0000000000000000000000000000000000000000000000000000000008152600401611b9590613616565b60405180910390fd5b80600e8190555050565b601660009054906101000a900473ffffffffffffffffffffffffffffffffffffffff1681565b600e5481565b6000600460149054906101000a900460ff16905090565b60125481565b60006001905090565b600360009054906101000a900473ffffffffffffffffffffffffffffffffffffffff1673ffffffffffffffffffffffffffffffffffffffff163373ffffffffffffffffffffffffffffffffffffffff1614611c8a576040517f08c379a0000000000000000000000000000000000000000000000000000000008152600401611c8190613656565b60405180910390fd5b6064811115611cce576040517f08c379a0000000000000000000000000000000000000000000000000000000008152600401611cc590613616565b60405180910390fd5b80600c8190555050565b600360009054906101000a900473ffffffffffffffffffffffffffffffffffffffff1673ffffffffffffffffffffffffffffffffffffffff163373ffffffffffffffffffffffffffffffffffffffff1614611d68576040517f08c379a0000000000000000000000000000000000000000000000000000000008152600401611d5f90613656565b60405180910390fd5b6064811115611dac576040517f08c379a0000000000000000000000000000000000000000000000000000000008152600401611da390613616565b60405180910390fd5b80600b8190555050565b600360009054906101000a900473ffffffffffffffffffffffffffffffffffffffff1673ffffffffffffffffffffffffffffffffffffffff163373ffffffffffffffffffffffffffffffffffffffff1614611e46576040517f08c379a0000000000000000000000000000000000000000000000000000000008152600401611e3d90613656565b60405180910390fd5b6000601960008373ffffffffffffffffffffffffffffffffffffffff1673ffffffffffffffffffffffffffffffffffffffff16815260200190815260200160002060006101000a81548160ff02191690831515021790555050565b600360009054906101000a900473ffffffffffffffffffffffffffffffffffffffff1673ffffffffffffffffffffffffffffffffffffffff163373ffffffffffffffffffffffffffffffffffffffff1614611f31576040517f08c379a0000000000000000000000000000000000000000000000000000000008152600401611f2890613656565b60405180910390fd5b600073ffffffffffffffffffffffffffffffffffffffff168173ffffffffffffffffffffffffffffffffffffffff161415611fa1576040517f08c379a0000000000000000000000000000000000000000000000000000000008152600401611f98906135d6565b60405180910390fd5b80600360006101000a81548173ffffffffffffffffffffffffffffffffffffffff021916908373ffffffffffffffffffffffffffffffffffffffff160217905550600160196000600360009054906101000a900473ffffffffffffffffffffffffffffffffffffffff1673ffffffffffffffffffffffffffffffffffffffff1673ffffffffffffffffffffffffffffffffffffffff16815260200190815260200160002060006101000a81548160ff02191690831515021790555050565b600360009054906101000a900473ffffffffffffffffffffffffffffffffffffffff1673ffffffffffffffffffffffffffffffffffffffff163373ffffffffffffffffffffffffffffffffffffffff16146120ef576040517f08c379a00000000000000000000000000000000000000000000000000000000081526004016120e690613656565b60405180910390fd5b600073ffffffffffffffffffffffffffffffffffffffff168173ffffffffffffffffffffffffffffffffffffffff16141561215f576040517f08c379a000000000000000000000000000000000000000000000000000000000815260040161215690613676565b60405180910390fd5b80600260006101000a81548173ffffffffffffffffffffffffffffffffffffffff021916908373ffffffffffffffffffffffffffffffffffffffff16021790555050565b600081836121b191906137eb565b905092915050565b600080601760009054906101000a900473ffffffffffffffffffffffffffffffffffffffff1673ffffffffffffffffffffffffffffffffffffffff166370a08231306040518263ffffffff1660e01b815260040161221791906134ca565b60206040518083038186803b15801561222f57600080fd5b505afa158015612243573d6000803e3d6000fd5b505050506040513d601f19601f82011682018060405250810190612267919061316b565b90506000600267ffffffffffffffff8111156122ac577f4e487b7100000000000000000000000000000000000000000000000000000000600052604160045260246000fd5b6040519080825280602002602001820160405280156122da5781602001602082028036833780820191505090505b509050601860009054906101000a900473ffffffffffffffffffffffffffffffffffffffff1673ffffffffffffffffffffffffffffffffffffffff1663ad5c46486040518163ffffffff1660e01b815260040160206040518083038186803b15801561234557600080fd5b505afa158015612359573d6000803e3d6000fd5b505050506040513d601f19601f8201168201806040525081019061237d91906130c7565b816000815181106123b7577f4e487b7100000000000000000000000000000000000000000000000000000000600052603260045260246000fd5b602002602001019073ffffffffffffffffffffffffffffffffffffffff16908173ffffffffffffffffffffffffffffffffffffffff168152505060008054906101000a900473ffffffffffffffffffffffffffffffffffffffff168160018151811061244c577f4e487b7100000000000000000000000000000000000000000000000000000000600052603260045260246000fd5b602002602001019073ffffffffffffffffffffffffffffffffffffffff16908173ffffffffffffffffffffffffffffffffffffffff1681525050601860009054906101000a900473ffffffffffffffffffffffffffffffffffffffff1673ffffffffffffffffffffffffffffffffffffffff1663b6f9de958560008430426040518663ffffffff1660e01b81526004016124e9949392919061358a565b6000604051808303818588803b15801561250257600080fd5b505af1158015612516573d6000803e3d6000fd5b505050505060006125da83601760009054906101000a900473ffffffffffffffffffffffffffffffffffffffff1673ffffffffffffffffffffffffffffffffffffffff166370a08231306040518263ffffffff1660e01b815260040161257c91906134ca565b60206040518083038186803b15801561259457600080fd5b505afa1580156125a8573d6000803e3d6000fd5b505050506040513d601f19601f820116820180604052508101906125cc919061316b565b612a2990919063ffffffff16565b9050809350505050919050565b600081836125f5919061381c565b905092915050565b6000612625606461261784866125e790919063ffffffff16565b6121a390919063ffffffff16565b905092915050565b60008211156126a057601460009054906101000a900473ffffffffffffffffffffffffffffffffffffffff1673ffffffffffffffffffffffffffffffffffffffff166108fc839081150290604051600060405180830381858888f1935050505015801561269e573d6000803e3d6000fd5b505b600081111561271357601560009054906101000a900473ffffffffffffffffffffffffffffffffffffffff1673ffffffffffffffffffffffffffffffffffffffff166108fc829081150290604051600060405180830381858888f19350505050158015612711573d6000803e3d6000fd5b505b5050565b6000600754601054101580156127395750600460159054906101000a900460ff165b80156127935750600460009054906101000a900473ffffffffffffffffffffffffffffffffffffffff1673ffffffffffffffffffffffffffffffffffffffff163373ffffffffffffffffffffffffffffffffffffffff1614155b80156127ac5750600460149054906101000a900460ff16155b905090565b6001600460146101000a81548160ff02191690831515021790555060006127d6612a3f565b6127f5576127f060026010546121a390919063ffffffff16565b6127f9565b6010545b9050600061282660125461281860115485612a5290919063ffffffff16565b612a5290919063ffffffff16565b905060006128348230612a68565b9050600061285d8361284f86856125e790919063ffffffff16565b6121a390919063ffffffff16565b905060006128888461287a601154866125e790919063ffffffff16565b6121a390919063ffffffff16565b905060006128b3856128a5601254876125e790919063ffffffff16565b6121a390919063ffffffff16565b90506128bd612a3f565b1561293057601460009054906101000a900473ffffffffffffffffffffffffffffffffffffffff1673ffffffffffffffffffffffffffffffffffffffff166108fc849081150290604051600060405180830381858888f1935050505015801561292a573d6000803e3d6000fd5b5061293b565b61293a8684612d72565b5b612945828261262d565b601760009054906101000a900473ffffffffffffffffffffffffffffffffffffffff1673ffffffffffffffffffffffffffffffffffffffff166370a08231306040518263ffffffff1660e01b81526004016129a091906134ca565b60206040518083038186803b1580156129b857600080fd5b505afa1580156129cc573d6000803e3d6000fd5b505050506040513d601f19601f820116820180604052508101906129f0919061316b565b601081905550600060118190555060006012819055505050505050506000600460146101000a81548160ff021916908315150217905550565b60008183612a379190613876565b905092915050565b6000600654612a4c612e74565b11905090565b60008183612a609190613795565b905092915050565b6000803073ffffffffffffffffffffffffffffffffffffffff163190506000600267ffffffffffffffff811115612ac8577f4e487b7100000000000000000000000000000000000000000000000000000000600052604160045260246000fd5b604051908082528060200260200182016040528015612af65781602001602082028036833780820191505090505b50905060008054906101000a900473ffffffffffffffffffffffffffffffffffffffff1681600081518110612b54577f4e487b7100000000000000000000000000000000000000000000000000000000600052603260045260246000fd5b602002602001019073ffffffffffffffffffffffffffffffffffffffff16908173ffffffffffffffffffffffffffffffffffffffff1681525050601860009054906101000a900473ffffffffffffffffffffffffffffffffffffffff1673ffffffffffffffffffffffffffffffffffffffff1663ad5c46486040518163ffffffff1660e01b815260040160206040518083038186803b158015612bf657600080fd5b505afa158015612c0a573d6000803e3d6000fd5b505050506040513d601f19601f82011682018060405250810190612c2e91906130c7565b81600181518110612c68577f4e487b7100000000000000000000000000000000000000000000000000000000600052603260045260246000fd5b602002602001019073ffffffffffffffffffffffffffffffffffffffff16908173ffffffffffffffffffffffffffffffffffffffff1681525050601860009054906101000a900473ffffffffffffffffffffffffffffffffffffffff1673ffffffffffffffffffffffffffffffffffffffff1663791ac9478660008488426040518663ffffffff1660e01b8152600401612d069594939291906136f1565b600060405180830381600087803b158015612d2057600080fd5b505af1158015612d34573d6000803e3d6000fd5b505050506000612d64833073ffffffffffffffffffffffffffffffffffffffff1631612a2990919063ffffffff16565b905080935050505092915050565b601860009054906101000a900473ffffffffffffffffffffffffffffffffffffffff1673ffffffffffffffffffffffffffffffffffffffff1663f305d7198260008054906101000a900473ffffffffffffffffffffffffffffffffffffffff1685600080600260009054906101000a900473ffffffffffffffffffffffffffffffffffffffff16426040518863ffffffff1660e01b8152600401612e1b9695949392919061350e565b6060604051808303818588803b158015612e3457600080fd5b505af1158015612e48573d6000803e3d6000fd5b50505050506040513d601f19601f82011682018060405250810190612e6d9190613194565b5050505050565b600061301b601760009054906101000a900473ffffffffffffffffffffffffffffffffffffffff1673ffffffffffffffffffffffffffffffffffffffff166318160ddd6040518163ffffffff1660e01b815260040160206040518083038186803b158015612ee157600080fd5b505afa158015612ef5573d6000803e3d6000fd5b505050506040513d601f19601f82011682018060405250810190612f19919061316b565b61300d612ffc6002601760009054906101000a900473ffffffffffffffffffffffffffffffffffffffff1673ffffffffffffffffffffffffffffffffffffffff166370a08231600460009054906101000a900473ffffffffffffffffffffffffffffffffffffffff166040518263ffffffff1660e01b8152600401612f9e91906134ca565b60206040518083038186803b158015612fb657600080fd5b505afa158015612fca573d6000803e3d6000fd5b505050506040513d601f19601f82011682018060405250810190612fee919061316b565b6125e790919063ffffffff16565b6005546125e790919063ffffffff16565b6121a390919063ffffffff16565b905090565b60008135905061302f81613974565b92915050565b60008151905061304481613974565b92915050565b6000813590506130598161398b565b92915050565b60008151905061306e816139a2565b92915050565b600081359050613083816139b9565b92915050565b600081519050613098816139b9565b92915050565b6000602082840312156130b057600080fd5b60006130be84828501613020565b91505092915050565b6000602082840312156130d957600080fd5b60006130e784828501613035565b91505092915050565b60006020828403121561310257600080fd5b60006131108482850161304a565b91505092915050565b60006020828403121561312b57600080fd5b60006131398482850161305f565b91505092915050565b60006020828403121561315457600080fd5b600061316284828501613074565b91505092915050565b60006020828403121561317d57600080fd5b600061318b84828501613089565b91505092915050565b6000806000606084860312156131a957600080fd5b60006131b786828701613089565b93505060206131c886828701613089565b92505060406131d986828701613089565b9150509250925092565b60006131ef83836131fb565b60208301905092915050565b613204816138aa565b82525050565b613213816138aa565b82525050565b60006132248261375b565b61322e8185613773565b93506132398361374b565b8060005b8381101561326a57815161325188826131e3565b975061325c83613766565b92505060018101905061323d565b5085935050505092915050565b613280816138ce565b82525050565b61328f81613904565b82525050565b60006132a2601983613784565b91507f53686f756c64206e6f74206265206120302061646472657373000000000000006000830152602082019050919050565b60006132e2601083613784565b91507f4e6f742076616c696420726f75746572000000000000000000000000000000006000830152602082019050919050565b6000613322601783613784565b91507f63616e6e6f74206265206d6f7265207468616e203130300000000000000000006000830152602082019050919050565b6000613362600383613784565b91507f21414900000000000000000000000000000000000000000000000000000000006000830152602082019050919050565b60006133a2600683613784565b91507f214f574e455200000000000000000000000000000000000000000000000000006000830152602082019050919050565b60006133e2601783613784565b91507f73686f756c64206e6f74206265203020616464726573730000000000000000006000830152602082019050919050565b6000613422601c83613784565b91507f70726f766964652076616c696420726f757465722061646472657373000000006000830152602082019050919050565b6000613462602983613784565b91507f737761705468726573686f6c642063616e6e6f74206265206c6573732074686560008301527f6e203120746f6b656e00000000000000000000000000000000000000000000006020830152604082019050919050565b6134c4816138fa565b82525050565b60006020820190506134df600083018461320a565b92915050565b60006040820190506134fa600083018561320a565b61350760208301846134bb565b9392505050565b600060c082019050613523600083018961320a565b61353060208301886134bb565b61353d6040830187613286565b61354a6060830186613286565b613557608083018561320a565b61356460a08301846134bb565b979650505050505050565b60006020820190506135846000830184613277565b92915050565b600060808201905061359f6000830187613286565b81810360208301526135b18186613219565b90506135c0604083018561320a565b6135cd60608301846134bb565b95945050505050565b600060208201905081810360008301526135ef81613295565b9050919050565b6000602082019050818103600083015261360f816132d5565b9050919050565b6000602082019050818103600083015261362f81613315565b9050919050565b6000602082019050818103600083015261364f81613355565b9050919050565b6000602082019050818103600083015261366f81613395565b9050919050565b6000602082019050818103600083015261368f816133d5565b9050919050565b600060208201905081810360008301526136af81613415565b9050919050565b600060208201905081810360008301526136cf81613455565b9050919050565b60006020820190506136eb60008301846134bb565b92915050565b600060a08201905061370660008301886134bb565b6137136020830187613286565b81810360408301526137258186613219565b9050613734606083018561320a565b61374160808301846134bb565b9695505050505050565b6000819050602082019050919050565b600081519050919050565b6000602082019050919050565b600082825260208201905092915050565b600082825260208201905092915050565b60006137a0826138fa565b91506137ab836138fa565b9250827fffffffffffffffffffffffffffffffffffffffffffffffffffffffffffffffff038211156137e0576137df613916565b5b828201905092915050565b60006137f6826138fa565b9150613801836138fa565b92508261381157613810613945565b5b828204905092915050565b6000613827826138fa565b9150613832836138fa565b9250817fffffffffffffffffffffffffffffffffffffffffffffffffffffffffffffffff048311821515161561386b5761386a613916565b5b828202905092915050565b6000613881826138fa565b915061388c836138fa565b92508282101561389f5761389e613916565b5b828203905092915050565b60006138b5826138da565b9050919050565b60006138c7826138da565b9050919050565b60008115159050919050565b600073ffffffffffffffffffffffffffffffffffffffff82169050919050565b6000819050919050565b600061390f826138fa565b9050919050565b7f4e487b7100000000000000000000000000000000000000000000000000000000600052601160045260246000fd5b7f4e487b7100000000000000000000000000000000000000000000000000000000600052601260045260246000fd5b61397d816138aa565b811461398857600080fd5b50565b613994816138bc565b811461399f57600080fd5b50565b6139ab816138ce565b81146139b657600080fd5b50565b6139c2816138fa565b81146139cd57600080fd5b5056fea264697066735822122099e145fe4077489953590b3603dbe24674af1553d67c0b350ba3fb68465994f664736f6c63430008000033",
  "immutableReferences": {},
  "source": "// SPDX-License-Identifier: MIT\n\npragma solidity ^0.8.0;\n\nimport \"./IDexRouter.sol\";\nimport \"./IBEP20.sol\";\nimport \"./SafeMath.sol\";\n\ncontract AIRouter {\n  using SafeMath for uint256;\n\n  address private _aiTokenAddress;\n  address private _routerAddress = 0x3380aE82e39E42Ca34EbEd69aF67fAa0683Bb5c1;\n  address private _lpLockAddress = address(this);\n  address private contractOwner;\n  address private pair;\n\n  bool private inSwap;\n  bool private swapEnabled = true;\n\n  uint256 private accuracy = 100;\n  uint256 private target = 30;\n  uint256 public swapThreshold = 20 * (10 ** 18); // 100 TOKENS\n  \n  uint256 public liqTaxShare = 50;\n  uint256 public treasuryTaxShare = 20;\n  uint256 public rewardTaxShare = 20;\n  uint256 public devTaxShare = 10;\n\n  uint256 public liqRoyaltyShare = 20;\n  uint256 public treasuryRoyaltyShare = 30;\n  uint256 public rewardRoyaltyShare = 40;\n  uint256 public devRoyaltyShare = 10;\n\n  uint256 public liqBalance = 0;\n  uint256 public rewardBalance = 0;\n  uint256 public devBalance = 0;\n  uint256 public treasuryBalance = 0;\n\n  address public rewardsBNBPool = 0x9423BbAb02a50541C3ecF9F4c659ED6EA332AF42;\n  address public devBNBPool = 0x9423BbAb02a50541C3ecF9F4c659ED6EA332AF42;\n  address public treasuryAddress = 0x5F55507507c8754b80c08A9791C46FfC15482F99;\n\n  IBEP20 private aiContract;\n  IDexRouter private router = IDexRouter(_routerAddress);\n\n  mapping (address => bool) internal authorizations;\n\n  constructor(address ai, address _pair) {\n    contractOwner = msg.sender;\n    authorize(contractOwner);\n    changeAiAddress(ai);\n\n    aiContract.approve(address(router), type(uint256).max);\n    pair = _pair;\n  }\n\n  receive() external payable {\n    if (!inSwap) {\n      _distributeRoyalties();\n    }\n  }\n  \n  /**\n  * Function modifier to require caller to be authorized\n  */\n  modifier authorized() {\n      require(authorizations[msg.sender], \"!AUTHORIZED\"); _;\n  }\n\n  /**\n  * Function modifier to require caller to be contract owner\n  */\n  modifier onlyOwner() {\n    require(msg.sender == contractOwner, \"!OWNER\"); _;\n  }\n\n  /**\n  * Function modifier to require caller to be AI contract\n  */\n  modifier onlyAi() {\n    require(msg.sender == _aiTokenAddress, \"!AI\"); _;\n  }\n\n  /**\n  * Function modifier to set inSwap to true while swapping\n  */\n  modifier swapping() {\n\t\tinSwap = true;\n\t\t_;\n\t  inSwap = false;\n\t}\n\n  function isInSwap() external view returns (bool) {\n    return inSwap;\n  }\n\n  function supportsDistribureFunction() external pure returns (bool) {\n    return true;\n  }\n\n  function _shouldSwapBack() private view returns (bool) {\n    return liqBalance >= swapThreshold\n      && swapEnabled\n      && msg.sender != pair\n      && !inSwap;\n  }\n\n  function addLiquidity(uint256 AI, uint256 BNB) private {\n    router.addLiquidityETH{value: BNB}(\n\t\t\t_aiTokenAddress,\n\t\t\tAI,\n\t\t\t0,\n\t\t\t0,\n\t\t\t_lpLockAddress,\n\t\t\tblock.timestamp\n\t\t);\n  }\n\n  function _swapAI(uint256 swapAmount, address sendBnbTo) private returns (uint256) {\n    uint256 balanceBeforeSwap = address(this).balance;\n    \n    address[] memory path = new address[](2);\n    path[0] = _aiTokenAddress;\n    path[1] = router.WETH();\n    \n    router.swapExactTokensForETHSupportingFeeOnTransferTokens(\n        swapAmount,\n        0,\n        path,\n        sendBnbTo,\n        block.timestamp\n    );\n\n    uint256 bnbReceived = address(this).balance.sub(balanceBeforeSwap);\n    return bnbReceived;\n  }\n\n  function _swapBNB(uint256 swapAmount) private returns (uint256) {\n    uint256 balanceBeforeSwap = aiContract.balanceOf(address(this));\n    \n    address[] memory path = new address[](2);\n    path[0] = router.WETH();\n    path[1] = _aiTokenAddress;\n    router.swapExactETHForTokensSupportingFeeOnTransferTokens{value: swapAmount}(0, path, address(this), block.timestamp);\n\n    uint256 aiReceived = aiContract.balanceOf(address(this)).sub(balanceBeforeSwap);\n    return aiReceived;\n  }\n\n  function _distributeFees(uint256 shareA, uint256 shareB) internal {\n    if (shareA > 0) { payable(rewardsBNBPool).transfer(shareA); }\n    if (shareB > 0) { payable(devBNBPool).transfer(shareB); }\n  }\n\n  function liquify() internal swapping {\n    uint256 aiForLiqToSwap = isOverLiquified() ? liqBalance : liqBalance.div(2);\n    uint256 aiToSwap = aiForLiqToSwap.add(rewardBalance).add(devBalance);\n\n    uint256 bnbReceived = _swapAI(aiToSwap, address(this));\n    uint256 bnbForLiq = bnbReceived.mul(aiForLiqToSwap).div(aiToSwap);\n    uint256 bnbForRewards = bnbReceived.mul(rewardBalance).div(aiToSwap);\n    uint256 bnbForDev = bnbReceived.mul(devBalance).div(aiToSwap);\n\n    if (isOverLiquified()) {\n      payable(rewardsBNBPool).transfer(bnbForLiq);\n    } else {\n      addLiquidity(aiForLiqToSwap, bnbForLiq);\n    }\n\n    _distributeFees(\n      bnbForRewards,\n      bnbForDev\n    );\n    \n    liqBalance = aiContract.balanceOf(address(this));\n    rewardBalance = 0;\n    devBalance = 0;\n  }\n\n  function _distributeRoyalties() internal {\n    uint256 receivedAmount = msg.value;\n    uint256 aiReceived = _swapBNB(receivedAmount.div(2));\n\n    uint256 aiForLiq = _calculateShare(aiReceived.mul(2), liqRoyaltyShare);\n    uint256 toAiTreasury = _calculateShare(aiReceived.mul(2), treasuryRoyaltyShare);\n    uint256 bnbToReward = _calculateShare(receivedAmount, rewardRoyaltyShare);\n    uint256 bnbToDev = _calculateShare(receivedAmount, devRoyaltyShare);\n\n    liqBalance += aiForLiq;\n    aiContract.transfer(treasuryAddress, toAiTreasury);\n\n    _distributeFees(bnbToReward, bnbToDev);\n\n    if (_shouldSwapBack()) { liquify(); }\n  }\n  \n  // not finalised, waiting for the final calculations schema\n  function distributeTax(uint256 amount) external onlyAi {\n    if (amount > 0) {\n      uint256 aiForLiq = _calculateShare(amount, liqTaxShare);\n      uint256 aiForRewards = _calculateShare(amount, rewardTaxShare);\n      uint256 aiForDev = _calculateShare(amount, devTaxShare);\n      uint256 toAiTreasury = _calculateShare(amount, treasuryTaxShare);\n\n      liqBalance += aiForLiq;\n      rewardBalance += aiForRewards;\n      devBalance += aiForDev;\n      treasuryBalance += toAiTreasury;\n    }\n  }\n  \n  function liquifyBack() external onlyAi {\n    aiContract.transfer(treasuryAddress, treasuryBalance);\n    treasuryBalance = 0;\n      \n    if (_shouldSwapBack()) { liquify(); }\n  }\n\n  function getLiquidityBacking() private view returns (uint256) {\n    return accuracy.mul(aiContract.balanceOf(pair).mul(2)).div(aiContract.totalSupply());\n  }\n  function isOverLiquified() private view returns (bool) {\n    return getLiquidityBacking() > target;\n  }\n\n  function _calculateShare(uint256 amount, uint256 share) private pure returns (uint256) {\n    return amount.mul(share).div(100);\n  }\n\n  function _validateShares(uint256[] memory shares) private pure {\n    uint256 shareSum = 0;\n    for (uint256 i = 0; i < shares.length; i++) {\n      shareSum += shares[i];\n    }\n    require(shareSum == 100, \"Total shares amount should be 100\");\n  }\n\n  function changeLiqTaxShare(uint256 share) public onlyOwner {\n    require(share <= 100, 'cannot be more than 100');\n    liqTaxShare = share;\n  }\n  function changeTreasuryTaxShare(uint256 share) public onlyOwner {\n    require(share <= 100, 'cannot be more than 100');\n    treasuryTaxShare = share;\n  }\n  function changeRewardTaxShare(uint256 share) public onlyOwner {\n    require(share <= 100, 'cannot be more than 100');\n    rewardTaxShare = share;\n  }\n  function changeDevTaxShare(uint256 share) public onlyOwner {\n    require(share <= 100, 'cannot be more than 100');\n    devTaxShare = share;\n  }\n\n  function changeLiqRoyaltyShare(uint256 share) public onlyOwner {\n    require(share <= 100, 'cannot be more than 100');\n    liqRoyaltyShare = share;\n  }\n  function changeTreasuryRoyaltyShare(uint256 share) public onlyOwner {\n    require(share <= 100, 'cannot be more than 100');\n    treasuryRoyaltyShare = share;\n  }\n  function changeRewardRoyaltyShare(uint256 share) public onlyOwner {\n    require(share <= 100, 'cannot be more than 100');\n    rewardRoyaltyShare = share;\n  }\n  function changeDevRoyaltyShare(uint256 share) public onlyOwner {\n    require(share <= 100, 'cannot be more than 100');\n    devRoyaltyShare = share;\n  }\n\n  function changeRewardAddress(address addr) public onlyOwner {\n    rewardsBNBPool = addr;\n  }\n\n  function changeDevAddress(address addr) public onlyOwner {\n    devBNBPool = addr;\n  }\n\n  function changeTreasuryAddress(address addr) public onlyOwner {\n    treasuryAddress = addr;\n  }\n\n  function changeSwapThresholdAmount(uint256 newValue) public onlyOwner {\n    require(newValue >= 1 * 10**18, 'swapThreshold cannot be less then 1 token');\n    swapThreshold = newValue;\n  }\n\n  function changeRouterAddress(address newRouterAddress) public onlyOwner {\n    require(IDexRouter(newRouterAddress).WETH() != address(0), 'provide valid router address');\n    _routerAddress = newRouterAddress;\n    router = IDexRouter(_routerAddress);\n  }\n\n  function changeLpLockAddress(address newLpAddress) public onlyOwner {\n    require(newLpAddress != address(0), 'should not be 0 address');\n    _lpLockAddress = newLpAddress;\n  }\n\n  /**\n  * @dev Only owner can call this function. Activates tax collection.\n  */\n  function changeAiAddress(address ai) public onlyOwner {\n    require(ai != address(0), 'Should not be a 0 address');\n    require(IBEP20(ai).balanceOf(address(0)) == 0, 'Not valid router'); // check the balanceOf method\n\n    _aiTokenAddress = ai;\n    aiContract = IBEP20(_aiTokenAddress);\n    authorize(_aiTokenAddress);\n  }\n\n  /**\n  * @dev Only owner can call this function. Transfer ownership to new address. Caller must be owner.\n  */\n  function transferOwnership(address payable adr) public onlyOwner {\n      require(adr != address(0), 'Should not be a 0 address');\n      contractOwner = adr;\n      authorizations[contractOwner] = true;\n  }\n  /**\n    * Authorize address. Owner only\n  */\n  function authorize(address adr) public onlyOwner {\n      authorizations[adr] = true;\n  }\n  \n  /**\n    * Remove address' authorization. Owner only\n    */\n  function unauthorize(address adr) public onlyOwner {\n      authorizations[adr] = false;\n  }\n}",
  "sourcePath": "/Users/viktor/Documents/Projects/solidity/hibiki/src/contracts/AIRouter.sol",
  "compiler": {
    "name": "solc",
    "version": "0.8.0+commit.c7dfd78e.Emscripten.clang"
  },
  "schemaVersion": "3.4.1",
  "updatedAt": "2021-10-13T15:34:37.574Z",
  "networkType": "ethereum",
  "devdoc": {
    "kind": "dev",
    "methods": {
      "changeAiAddress(address)": {
        "details": "Only owner can call this function. Activates tax collection."
      },
      "transferOwnership(address)": {
        "details": "Only owner can call this function. Transfer ownership to new address. Caller must be owner."
      }
    },
    "version": 1
  },
  "userdoc": {
    "kind": "user",
    "methods": {
      "authorize(address)": {
        "notice": "Authorize address. Owner only"
      },
      "unauthorize(address)": {
        "notice": "Remove address' authorization. Owner only"
      }
    },
    "version": 1
  }
}