{
  "contractName": "AIRouter",
  "abi": [
    {
      "inputs": [
        {
          "internalType": "address",
          "name": "ai",
          "type": "address"
        },
        {
          "internalType": "address",
          "name": "_pair",
          "type": "address"
        }
      ],
      "stateMutability": "nonpayable",
      "type": "constructor"
    },
    {
      "inputs": [],
      "name": "devBNBPool",
      "outputs": [
        {
          "internalType": "address",
          "name": "",
          "type": "address"
        }
      ],
      "stateMutability": "view",
      "type": "function",
      "constant": true
    },
    {
      "inputs": [],
      "name": "devBalance",
      "outputs": [
        {
          "internalType": "uint256",
          "name": "",
          "type": "uint256"
        }
      ],
      "stateMutability": "view",
      "type": "function",
      "constant": true
    },
    {
      "inputs": [],
      "name": "devRoyaltyShare",
      "outputs": [
        {
          "internalType": "uint256",
          "name": "",
          "type": "uint256"
        }
      ],
      "stateMutability": "view",
      "type": "function",
      "constant": true
    },
    {
      "inputs": [],
      "name": "devTaxShare",
      "outputs": [
        {
          "internalType": "uint256",
          "name": "",
          "type": "uint256"
        }
      ],
      "stateMutability": "view",
      "type": "function",
      "constant": true
    },
    {
      "inputs": [],
      "name": "liqBalance",
      "outputs": [
        {
          "internalType": "uint256",
          "name": "",
          "type": "uint256"
        }
      ],
      "stateMutability": "view",
      "type": "function",
      "constant": true
    },
    {
      "inputs": [],
      "name": "liqRoyaltyShare",
      "outputs": [
        {
          "internalType": "uint256",
          "name": "",
          "type": "uint256"
        }
      ],
      "stateMutability": "view",
      "type": "function",
      "constant": true
    },
    {
      "inputs": [],
      "name": "liqTaxShare",
      "outputs": [
        {
          "internalType": "uint256",
          "name": "",
          "type": "uint256"
        }
      ],
      "stateMutability": "view",
      "type": "function",
      "constant": true
    },
    {
      "inputs": [],
      "name": "rewardBalance",
      "outputs": [
        {
          "internalType": "uint256",
          "name": "",
          "type": "uint256"
        }
      ],
      "stateMutability": "view",
      "type": "function",
      "constant": true
    },
    {
      "inputs": [],
      "name": "rewardRoyaltyShare",
      "outputs": [
        {
          "internalType": "uint256",
          "name": "",
          "type": "uint256"
        }
      ],
      "stateMutability": "view",
      "type": "function",
      "constant": true
    },
    {
      "inputs": [],
      "name": "rewardTaxShare",
      "outputs": [
        {
          "internalType": "uint256",
          "name": "",
          "type": "uint256"
        }
      ],
      "stateMutability": "view",
      "type": "function",
      "constant": true
    },
    {
      "inputs": [],
      "name": "rewardsBNBPool",
      "outputs": [
        {
          "internalType": "address",
          "name": "",
          "type": "address"
        }
      ],
      "stateMutability": "view",
      "type": "function",
      "constant": true
    },
    {
      "inputs": [],
      "name": "swapThreshold",
      "outputs": [
        {
          "internalType": "uint256",
          "name": "",
          "type": "uint256"
        }
      ],
      "stateMutability": "view",
      "type": "function",
      "constant": true
    },
    {
      "inputs": [],
      "name": "treasuryAddress",
      "outputs": [
        {
          "internalType": "address",
          "name": "",
          "type": "address"
        }
      ],
      "stateMutability": "view",
      "type": "function",
      "constant": true
    },
    {
      "inputs": [],
      "name": "treasuryBalance",
      "outputs": [
        {
          "internalType": "uint256",
          "name": "",
          "type": "uint256"
        }
      ],
      "stateMutability": "view",
      "type": "function",
      "constant": true
    },
    {
      "inputs": [],
      "name": "treasuryRoyaltyShare",
      "outputs": [
        {
          "internalType": "uint256",
          "name": "",
          "type": "uint256"
        }
      ],
      "stateMutability": "view",
      "type": "function",
      "constant": true
    },
    {
      "inputs": [],
      "name": "treasuryTaxShare",
      "outputs": [
        {
          "internalType": "uint256",
          "name": "",
          "type": "uint256"
        }
      ],
      "stateMutability": "view",
      "type": "function",
      "constant": true
    },
    {
      "stateMutability": "payable",
      "type": "receive",
      "payable": true
    },
    {
      "inputs": [],
      "name": "isInSwap",
      "outputs": [
        {
          "internalType": "bool",
          "name": "",
          "type": "bool"
        }
      ],
      "stateMutability": "view",
      "type": "function",
      "constant": true
    },
    {
      "inputs": [],
      "name": "supportsDistribureFunction",
      "outputs": [
        {
          "internalType": "bool",
          "name": "",
          "type": "bool"
        }
      ],
      "stateMutability": "pure",
      "type": "function",
      "constant": true
    },
    {
      "inputs": [
        {
          "internalType": "uint256",
          "name": "amount",
          "type": "uint256"
        }
      ],
      "name": "distributeTax",
      "outputs": [],
      "stateMutability": "nonpayable",
      "type": "function"
    },
    {
      "inputs": [],
      "name": "liquifyBack",
      "outputs": [],
      "stateMutability": "nonpayable",
      "type": "function"
    },
    {
      "inputs": [
        {
          "internalType": "uint256",
          "name": "share",
          "type": "uint256"
        }
      ],
      "name": "changeLiqTaxShare",
      "outputs": [],
      "stateMutability": "nonpayable",
      "type": "function"
    },
    {
      "inputs": [
        {
          "internalType": "uint256",
          "name": "share",
          "type": "uint256"
        }
      ],
      "name": "changeTreasuryTaxShare",
      "outputs": [],
      "stateMutability": "nonpayable",
      "type": "function"
    },
    {
      "inputs": [
        {
          "internalType": "uint256",
          "name": "share",
          "type": "uint256"
        }
      ],
      "name": "changeRewardTaxShare",
      "outputs": [],
      "stateMutability": "nonpayable",
      "type": "function"
    },
    {
      "inputs": [
        {
          "internalType": "uint256",
          "name": "share",
          "type": "uint256"
        }
      ],
      "name": "changeDevTaxShare",
      "outputs": [],
      "stateMutability": "nonpayable",
      "type": "function"
    },
    {
      "inputs": [
        {
          "internalType": "uint256",
          "name": "share",
          "type": "uint256"
        }
      ],
      "name": "changeLiqRoyaltyShare",
      "outputs": [],
      "stateMutability": "nonpayable",
      "type": "function"
    },
    {
      "inputs": [
        {
          "internalType": "uint256",
          "name": "share",
          "type": "uint256"
        }
      ],
      "name": "changeTreasuryRoyaltyShare",
      "outputs": [],
      "stateMutability": "nonpayable",
      "type": "function"
    },
    {
      "inputs": [
        {
          "internalType": "uint256",
          "name": "share",
          "type": "uint256"
        }
      ],
      "name": "changeRewardRoyaltyShare",
      "outputs": [],
      "stateMutability": "nonpayable",
      "type": "function"
    },
    {
      "inputs": [
        {
          "internalType": "uint256",
          "name": "share",
          "type": "uint256"
        }
      ],
      "name": "changeDevRoyaltyShare",
      "outputs": [],
      "stateMutability": "nonpayable",
      "type": "function"
    },
    {
      "inputs": [
        {
          "internalType": "address",
          "name": "addr",
          "type": "address"
        }
      ],
      "name": "changeRewardAddress",
      "outputs": [],
      "stateMutability": "nonpayable",
      "type": "function"
    },
    {
      "inputs": [
        {
          "internalType": "address",
          "name": "addr",
          "type": "address"
        }
      ],
      "name": "changeDevAddress",
      "outputs": [],
      "stateMutability": "nonpayable",
      "type": "function"
    },
    {
      "inputs": [
        {
          "internalType": "address",
          "name": "addr",
          "type": "address"
        }
      ],
      "name": "changeTreasuryAddress",
      "outputs": [],
      "stateMutability": "nonpayable",
      "type": "function"
    },
    {
      "inputs": [
        {
          "internalType": "uint256",
          "name": "newValue",
          "type": "uint256"
        }
      ],
      "name": "changeSwapThresholdAmount",
      "outputs": [],
      "stateMutability": "nonpayable",
      "type": "function"
    },
    {
      "inputs": [
        {
          "internalType": "address",
          "name": "newRouterAddress",
          "type": "address"
        }
      ],
      "name": "changeRouterAddress",
      "outputs": [],
      "stateMutability": "nonpayable",
      "type": "function"
    },
    {
      "inputs": [
        {
          "internalType": "address",
          "name": "newLpAddress",
          "type": "address"
        }
      ],
      "name": "changeLpLockAddress",
      "outputs": [],
      "stateMutability": "nonpayable",
      "type": "function"
    },
    {
      "inputs": [
        {
          "internalType": "address",
          "name": "ai",
          "type": "address"
        }
      ],
      "name": "changeAiAddress",
      "outputs": [],
      "stateMutability": "nonpayable",
      "type": "function"
    },
    {
      "inputs": [
        {
          "internalType": "address payable",
          "name": "adr",
          "type": "address"
        }
      ],
      "name": "transferOwnership",
      "outputs": [],
      "stateMutability": "nonpayable",
      "type": "function"
    },
    {
      "inputs": [
        {
          "internalType": "address",
          "name": "adr",
          "type": "address"
        }
      ],
      "name": "authorize",
      "outputs": [],
      "stateMutability": "nonpayable",
      "type": "function"
    },
    {
      "inputs": [
        {
          "internalType": "address",
          "name": "adr",
          "type": "address"
        }
      ],
      "name": "unauthorize",
      "outputs": [],
      "stateMutability": "nonpayable",
      "type": "function"
    },
    {
      "inputs": [],
      "name": "rescue",
      "outputs": [],
      "stateMutability": "nonpayable",
      "type": "function"
    }
  ],
  "bytecode": "0x6080604052733380ae82e39e42ca34ebed69af67faa0683bb5c1600160006101000a81548173ffffffffffffffffffffffffffffffffffffffff021916908373ffffffffffffffffffffffffffffffffffffffff16021790555030600260006101000a81548173ffffffffffffffffffffffffffffffffffffffff021916908373ffffffffffffffffffffffffffffffffffffffff1602179055506001600460156101000a81548160ff0219169083151502179055506064600555601e600655681b1ae4d6e2ef500000600755603260085560146009556014600a55600a600b556014600c55601e600d556028600e55600a600f556000601055600060115560006012556000601355739423bbab02a50541c3ecf9f4c659ed6ea332af42601460006101000a81548173ffffffffffffffffffffffffffffffffffffffff021916908373ffffffffffffffffffffffffffffffffffffffff160217905550739423bbab02a50541c3ecf9f4c659ed6ea332af42601560006101000a81548173ffffffffffffffffffffffffffffffffffffffff021916908373ffffffffffffffffffffffffffffffffffffffff160217905550735f55507507c8754b80c08a9791c46ffc15482f99601660006101000a81548173ffffffffffffffffffffffffffffffffffffffff021916908373ffffffffffffffffffffffffffffffffffffffff160217905550600160009054906101000a900473ffffffffffffffffffffffffffffffffffffffff16601860006101000a81548173ffffffffffffffffffffffffffffffffffffffff021916908373ffffffffffffffffffffffffffffffffffffffff1602179055503480156200027757600080fd5b50604051620047d6380380620047d683398181016040528101906200029d919062000846565b33600360006101000a81548173ffffffffffffffffffffffffffffffffffffffff021916908373ffffffffffffffffffffffffffffffffffffffff16021790555062000311600360009054906101000a900473ffffffffffffffffffffffffffffffffffffffff166200046360201b60201c565b62000322826200055160201b60201c565b601760009054906101000a900473ffffffffffffffffffffffffffffffffffffffff1673ffffffffffffffffffffffffffffffffffffffff1663095ea7b3601860009054906101000a900473ffffffffffffffffffffffffffffffffffffffff167fffffffffffffffffffffffffffffffffffffffffffffffffffffffffffffffff6040518363ffffffff1660e01b8152600401620003c3929190620009e4565b602060405180830381600087803b158015620003de57600080fd5b505af1158015620003f3573d6000803e3d6000fd5b505050506040513d601f19601f8201168201806040525081019062000419919062000887565b5080600460006101000a81548173ffffffffffffffffffffffffffffffffffffffff021916908373ffffffffffffffffffffffffffffffffffffffff160217905550505062000b20565b600360009054906101000a900473ffffffffffffffffffffffffffffffffffffffff1673ffffffffffffffffffffffffffffffffffffffff163373ffffffffffffffffffffffffffffffffffffffff1614620004f6576040517f08c379a0000000000000000000000000000000000000000000000000000000008152600401620004ed9062000a55565b60405180910390fd5b6001601960008373ffffffffffffffffffffffffffffffffffffffff1673ffffffffffffffffffffffffffffffffffffffff16815260200190815260200160002060006101000a81548160ff02191690831515021790555050565b600360009054906101000a900473ffffffffffffffffffffffffffffffffffffffff1673ffffffffffffffffffffffffffffffffffffffff163373ffffffffffffffffffffffffffffffffffffffff1614620005e4576040517f08c379a0000000000000000000000000000000000000000000000000000000008152600401620005db9062000a55565b60405180910390fd5b600073ffffffffffffffffffffffffffffffffffffffff168173ffffffffffffffffffffffffffffffffffffffff16141562000657576040517f08c379a00000000000000000000000000000000000000000000000000000000081526004016200064e9062000a11565b60405180910390fd5b60008173ffffffffffffffffffffffffffffffffffffffff166370a0823160006040518263ffffffff1660e01b8152600401620006959190620009c7565b60206040518083038186803b158015620006ae57600080fd5b505afa158015620006c3573d6000803e3d6000fd5b505050506040513d601f19601f82011682018060405250810190620006e99190620008b3565b146200072c576040517f08c379a0000000000000000000000000000000000000000000000000000000008152600401620007239062000a33565b60405180910390fd5b806000806101000a81548173ffffffffffffffffffffffffffffffffffffffff021916908373ffffffffffffffffffffffffffffffffffffffff16021790555060008054906101000a900473ffffffffffffffffffffffffffffffffffffffff16601760006101000a81548173ffffffffffffffffffffffffffffffffffffffff021916908373ffffffffffffffffffffffffffffffffffffffff160217905550620007fe60008054906101000a900473ffffffffffffffffffffffffffffffffffffffff166200046360201b60201c565b50565b600081519050620008128162000ad2565b92915050565b600081519050620008298162000aec565b92915050565b600081519050620008408162000b06565b92915050565b600080604083850312156200085a57600080fd5b60006200086a8582860162000801565b92505060206200087d8582860162000801565b9150509250929050565b6000602082840312156200089a57600080fd5b6000620008aa8482850162000818565b91505092915050565b600060208284031215620008c657600080fd5b6000620008d6848285016200082f565b91505092915050565b620008ea8162000a88565b82525050565b6000620008ff60198362000a77565b91507f53686f756c64206e6f74206265206120302061646472657373000000000000006000830152602082019050919050565b60006200094160108362000a77565b91507f4e6f742076616c696420726f75746572000000000000000000000000000000006000830152602082019050919050565b60006200098360068362000a77565b91507f214f574e455200000000000000000000000000000000000000000000000000006000830152602082019050919050565b620009c18162000ac8565b82525050565b6000602082019050620009de6000830184620008df565b92915050565b6000604082019050620009fb6000830185620008df565b62000a0a6020830184620009b6565b9392505050565b6000602082019050818103600083015262000a2c81620008f0565b9050919050565b6000602082019050818103600083015262000a4e8162000932565b9050919050565b6000602082019050818103600083015262000a708162000974565b9050919050565b600082825260208201905092915050565b600062000a958262000aa8565b9050919050565b60008115159050919050565b600073ffffffffffffffffffffffffffffffffffffffff82169050919050565b6000819050919050565b62000add8162000a88565b811462000ae957600080fd5b50565b62000af78162000a9c565b811462000b0357600080fd5b50565b62000b118162000ac8565b811462000b1d57600080fd5b50565b613ca68062000b306000396000f3fe6080604052600436106102345760003560e01c80639051cb651161012e578063c5f956af116100ab578063d43bcb151161006f578063d43bcb15146107cf578063e7f7ca63146107f8578063f0b37c0414610821578063f2fde38b1461084a578063fef68c3c1461087357610258565b8063c5f956af146106f8578063cb78799b14610723578063cc9968991461074e578063cd9a1b6314610779578063d3bb8e14146107a457610258565b8063a6f353f0116100f2578063a6f353f014610627578063aa5c3ab414610650578063b6a5d7de1461067b578063ba857c93146106a4578063c58bda31146106cf57610258565b80639051cb651461055657806392b46390146105815780639e5fbbfe146105aa578063a0add0d7146105d3578063a31cd822146105fc57610258565b8063313dab20116101bc57806343e9618c1161018057806343e9618c146104895780634d2aab9a146104b25780637503d78a146104db57806378de511a146105045780637d5618ad1461052d57610258565b8063313dab20146103b457806333a069e3146103df578063349516921461040a5780633601388f146104335780633f79ba521461045e57610258565b80631c65ac3e116102035780631c65ac3e146102f35780631c7e19271461031e5780631fbe1979146103475780632633cc501461035e5780632de34c301461038957610258565b80630445b6671461025d57806304db6e68146102885780630c8b9745146102b15780631a39150c146102dc57610258565b3661025857600460149054906101000a900460ff166102565761025561089c565b5b005b600080fd5b34801561026957600080fd5b50610272610a3a565b60405161027f9190613976565b60405180910390f35b34801561029457600080fd5b506102af60048036038101906102aa919061333e565b610a40565b005b3480156102bd57600080fd5b506102c6610c64565b6040516102d39190613976565b60405180910390f35b3480156102e857600080fd5b506102f1610c6a565b005b3480156102ff57600080fd5b50610308610dec565b6040516103159190613976565b60405180910390f35b34801561032a57600080fd5b50610345600480360381019061034091906133e2565b610df2565b005b34801561035357600080fd5b5061035c610ed7565b005b34801561036a57600080fd5b5061037361116b565b6040516103809190613976565b60405180910390f35b34801561039557600080fd5b5061039e611171565b6040516103ab9190613976565b60405180910390f35b3480156103c057600080fd5b506103c9611177565b6040516103d69190613976565b60405180910390f35b3480156103eb57600080fd5b506103f461117d565b604051610401919061376a565b60405180910390f35b34801561041657600080fd5b50610431600480360381019061042c91906133e2565b6111a3565b005b34801561043f57600080fd5b50610448611281565b6040516104559190613976565b60405180910390f35b34801561046a57600080fd5b50610473611287565b604051610480919061376a565b60405180910390f35b34801561049557600080fd5b506104b060048036038101906104ab91906133e2565b6112ad565b005b3480156104be57600080fd5b506104d960048036038101906104d4919061333e565b6113f0565b005b3480156104e757600080fd5b5061050260048036038101906104fd919061333e565b6114c4565b005b34801561051057600080fd5b5061052b600480360381019061052691906133e2565b61175d565b005b34801561053957600080fd5b50610554600480360381019061054f91906133e2565b61183b565b005b34801561056257600080fd5b5061056b611919565b6040516105789190613976565b60405180910390f35b34801561058d57600080fd5b506105a860048036038101906105a3919061333e565b61191f565b005b3480156105b657600080fd5b506105d160048036038101906105cc91906133e2565b6119f3565b005b3480156105df57600080fd5b506105fa60048036038101906105f591906133e2565b611ad1565b005b34801561060857600080fd5b50610611611baf565b60405161061e9190613976565b60405180910390f35b34801561063357600080fd5b5061064e6004803603810190610649919061333e565b611bb5565b005b34801561065c57600080fd5b50610665611c89565b6040516106729190613976565b60405180910390f35b34801561068757600080fd5b506106a2600480360381019061069d919061333e565b611c8f565b005b3480156106b057600080fd5b506106b9611d7a565b6040516106c69190613976565b60405180910390f35b3480156106db57600080fd5b506106f660048036038101906106f191906133e2565b611d80565b005b34801561070457600080fd5b5061070d611e5e565b60405161071a919061376a565b60405180910390f35b34801561072f57600080fd5b50610738611e84565b6040516107459190613976565b60405180910390f35b34801561075a57600080fd5b50610763611e8a565b604051610770919061380f565b60405180910390f35b34801561078557600080fd5b5061078e611ea1565b60405161079b9190613976565b60405180910390f35b3480156107b057600080fd5b506107b9611ea7565b6040516107c6919061380f565b60405180910390f35b3480156107db57600080fd5b506107f660048036038101906107f191906133e2565b611eb0565b005b34801561080457600080fd5b5061081f600480360381019061081a91906133e2565b611f8e565b005b34801561082d57600080fd5b506108486004803603810190610843919061333e565b61206c565b005b34801561085657600080fd5b50610871600480360381019061086c9190613390565b612157565b005b34801561087f57600080fd5b5061089a6004803603810190610895919061333e565b612315565b005b600034905060006108bf6108ba60028461245990919063ffffffff16565b61246f565b905060006108e26108da60028461289d90919063ffffffff16565b600c546128b3565b905060006109056108fd60028561289d90919063ffffffff16565b600d546128b3565b9050600061091585600e546128b3565b9050600061092586600f546128b3565b905083601060008282546109399190613a35565b92505081905550601760009054906101000a900473ffffffffffffffffffffffffffffffffffffffff1673ffffffffffffffffffffffffffffffffffffffff1663a9059cbb601660009054906101000a900473ffffffffffffffffffffffffffffffffffffffff16856040518363ffffffff1660e01b81526004016109bf929190613785565b602060405180830381600087803b1580156109d957600080fd5b505af11580156109ed573d6000803e3d6000fd5b505050506040513d601f19601f82011682018060405250810190610a1191906133b9565b50610a1c82826128e3565b610a246129cd565b15610a3257610a31612a67565b5b505050505050565b60075481565b600360009054906101000a900473ffffffffffffffffffffffffffffffffffffffff1673ffffffffffffffffffffffffffffffffffffffff163373ffffffffffffffffffffffffffffffffffffffff1614610ad0576040517f08c379a0000000000000000000000000000000000000000000000000000000008152600401610ac7906138f6565b60405180910390fd5b600073ffffffffffffffffffffffffffffffffffffffff168173ffffffffffffffffffffffffffffffffffffffff1663ad5c46486040518163ffffffff1660e01b815260040160206040518083038186803b158015610b2e57600080fd5b505afa158015610b42573d6000803e3d6000fd5b505050506040513d601f19601f82011682018060405250810190610b669190613367565b73ffffffffffffffffffffffffffffffffffffffff161415610bbd576040517f08c379a0000000000000000000000000000000000000000000000000000000008152600401610bb490613936565b60405180910390fd5b80600160006101000a81548173ffffffffffffffffffffffffffffffffffffffff021916908373ffffffffffffffffffffffffffffffffffffffff160217905550600160009054906101000a900473ffffffffffffffffffffffffffffffffffffffff16601860006101000a81548173ffffffffffffffffffffffffffffffffffffffff021916908373ffffffffffffffffffffffffffffffffffffffff16021790555050565b600b5481565b60008054906101000a900473ffffffffffffffffffffffffffffffffffffffff1673ffffffffffffffffffffffffffffffffffffffff163373ffffffffffffffffffffffffffffffffffffffff1614610cf8576040517f08c379a0000000000000000000000000000000000000000000000000000000008152600401610cef906138d6565b60405180910390fd5b601760009054906101000a900473ffffffffffffffffffffffffffffffffffffffff1673ffffffffffffffffffffffffffffffffffffffff1663a9059cbb601660009054906101000a900473ffffffffffffffffffffffffffffffffffffffff166013546040518363ffffffff1660e01b8152600401610d79929190613785565b602060405180830381600087803b158015610d9357600080fd5b505af1158015610da7573d6000803e3d6000fd5b505050506040513d601f19601f82011682018060405250810190610dcb91906133b9565b506000601381905550610ddc6129cd565b15610dea57610de9612a67565b5b565b600d5481565b600360009054906101000a900473ffffffffffffffffffffffffffffffffffffffff1673ffffffffffffffffffffffffffffffffffffffff163373ffffffffffffffffffffffffffffffffffffffff1614610e82576040517f08c379a0000000000000000000000000000000000000000000000000000000008152600401610e79906138f6565b60405180910390fd5b670de0b6b3a7640000811015610ecd576040517f08c379a0000000000000000000000000000000000000000000000000000000008152600401610ec490613956565b60405180910390fd5b8060078190555050565b600360009054906101000a900473ffffffffffffffffffffffffffffffffffffffff1673ffffffffffffffffffffffffffffffffffffffff163373ffffffffffffffffffffffffffffffffffffffff1614610f67576040517f08c379a0000000000000000000000000000000000000000000000000000000008152600401610f5e906138f6565b60405180910390fd5b6000601760009054906101000a900473ffffffffffffffffffffffffffffffffffffffff1673ffffffffffffffffffffffffffffffffffffffff166370a08231306040518263ffffffff1660e01b8152600401610fc4919061376a565b60206040518083038186803b158015610fdc57600080fd5b505afa158015610ff0573d6000803e3d6000fd5b505050506040513d601f19601f82011682018060405250810190611014919061340b565b9050601760009054906101000a900473ffffffffffffffffffffffffffffffffffffffff1673ffffffffffffffffffffffffffffffffffffffff1663a9059cbb600360009054906101000a900473ffffffffffffffffffffffffffffffffffffffff16836040518363ffffffff1660e01b8152600401611095929190613785565b602060405180830381600087803b1580156110af57600080fd5b505af11580156110c3573d6000803e3d6000fd5b505050506040513d601f19601f820116820180604052508101906110e791906133b9565b50600360009054906101000a900473ffffffffffffffffffffffffffffffffffffffff1673ffffffffffffffffffffffffffffffffffffffff166108fc3073ffffffffffffffffffffffffffffffffffffffff16319081150290604051600060405180830381858888f19350505050158015611167573d6000803e3d6000fd5b5050565b60095481565b600c5481565b60135481565b601560009054906101000a900473ffffffffffffffffffffffffffffffffffffffff1681565b600360009054906101000a900473ffffffffffffffffffffffffffffffffffffffff1673ffffffffffffffffffffffffffffffffffffffff163373ffffffffffffffffffffffffffffffffffffffff1614611233576040517f08c379a000000000000000000000000000000000000000000000000000000000815260040161122a906138f6565b60405180910390fd5b6064811115611277576040517f08c379a000000000000000000000000000000000000000000000000000000000815260040161126e906138b6565b60405180910390fd5b8060098190555050565b600a5481565b601460009054906101000a900473ffffffffffffffffffffffffffffffffffffffff1681565b60008054906101000a900473ffffffffffffffffffffffffffffffffffffffff1673ffffffffffffffffffffffffffffffffffffffff163373ffffffffffffffffffffffffffffffffffffffff161461133b576040517f08c379a0000000000000000000000000000000000000000000000000000000008152600401611332906138d6565b60405180910390fd5b60008111156113ed576000611352826008546128b3565b9050600061136283600a546128b3565b9050600061137284600b546128b3565b90506000611382856009546128b3565b905083601060008282546113969190613a35565b9250508190555082601160008282546113af9190613a35565b9250508190555081601260008282546113c89190613a35565b9250508190555080601360008282546113e19190613a35565b92505081905550505050505b50565b600360009054906101000a900473ffffffffffffffffffffffffffffffffffffffff1673ffffffffffffffffffffffffffffffffffffffff163373ffffffffffffffffffffffffffffffffffffffff1614611480576040517f08c379a0000000000000000000000000000000000000000000000000000000008152600401611477906138f6565b60405180910390fd5b80601460006101000a81548173ffffffffffffffffffffffffffffffffffffffff021916908373ffffffffffffffffffffffffffffffffffffffff16021790555050565b600360009054906101000a900473ffffffffffffffffffffffffffffffffffffffff1673ffffffffffffffffffffffffffffffffffffffff163373ffffffffffffffffffffffffffffffffffffffff1614611554576040517f08c379a000000000000000000000000000000000000000000000000000000000815260040161154b906138f6565b60405180910390fd5b600073ffffffffffffffffffffffffffffffffffffffff168173ffffffffffffffffffffffffffffffffffffffff1614156115c4576040517f08c379a00000000000000000000000000000000000000000000000000000000081526004016115bb90613876565b60405180910390fd5b60008173ffffffffffffffffffffffffffffffffffffffff166370a0823160006040518263ffffffff1660e01b8152600401611600919061376a565b60206040518083038186803b15801561161857600080fd5b505afa15801561162c573d6000803e3d6000fd5b505050506040513d601f19601f82011682018060405250810190611650919061340b565b14611690576040517f08c379a000000000000000000000000000000000000000000000000000000000815260040161168790613896565b60405180910390fd5b806000806101000a81548173ffffffffffffffffffffffffffffffffffffffff021916908373ffffffffffffffffffffffffffffffffffffffff16021790555060008054906101000a900473ffffffffffffffffffffffffffffffffffffffff16601760006101000a81548173ffffffffffffffffffffffffffffffffffffffff021916908373ffffffffffffffffffffffffffffffffffffffff16021790555061175a60008054906101000a900473ffffffffffffffffffffffffffffffffffffffff16611c8f565b50565b600360009054906101000a900473ffffffffffffffffffffffffffffffffffffffff1673ffffffffffffffffffffffffffffffffffffffff163373ffffffffffffffffffffffffffffffffffffffff16146117ed576040517f08c379a00000000000000000000000000000000000000000000000000000000081526004016117e4906138f6565b60405180910390fd5b6064811115611831576040517f08c379a0000000000000000000000000000000000000000000000000000000008152600401611828906138b6565b60405180910390fd5b80600d8190555050565b600360009054906101000a900473ffffffffffffffffffffffffffffffffffffffff1673ffffffffffffffffffffffffffffffffffffffff163373ffffffffffffffffffffffffffffffffffffffff16146118cb576040517f08c379a00000000000000000000000000000000000000000000000000000000081526004016118c2906138f6565b60405180910390fd5b606481111561190f576040517f08c379a0000000000000000000000000000000000000000000000000000000008152600401611906906138b6565b60405180910390fd5b80600f8190555050565b60105481565b600360009054906101000a900473ffffffffffffffffffffffffffffffffffffffff1673ffffffffffffffffffffffffffffffffffffffff163373ffffffffffffffffffffffffffffffffffffffff16146119af576040517f08c379a00000000000000000000000000000000000000000000000000000000081526004016119a6906138f6565b60405180910390fd5b80601560006101000a81548173ffffffffffffffffffffffffffffffffffffffff021916908373ffffffffffffffffffffffffffffffffffffffff16021790555050565b600360009054906101000a900473ffffffffffffffffffffffffffffffffffffffff1673ffffffffffffffffffffffffffffffffffffffff163373ffffffffffffffffffffffffffffffffffffffff1614611a83576040517f08c379a0000000000000000000000000000000000000000000000000000000008152600401611a7a906138f6565b60405180910390fd5b6064811115611ac7576040517f08c379a0000000000000000000000000000000000000000000000000000000008152600401611abe906138b6565b60405180910390fd5b80600a8190555050565b600360009054906101000a900473ffffffffffffffffffffffffffffffffffffffff1673ffffffffffffffffffffffffffffffffffffffff163373ffffffffffffffffffffffffffffffffffffffff1614611b61576040517f08c379a0000000000000000000000000000000000000000000000000000000008152600401611b58906138f6565b60405180910390fd5b6064811115611ba5576040517f08c379a0000000000000000000000000000000000000000000000000000000008152600401611b9c906138b6565b60405180910390fd5b8060088190555050565b600f5481565b600360009054906101000a900473ffffffffffffffffffffffffffffffffffffffff1673ffffffffffffffffffffffffffffffffffffffff163373ffffffffffffffffffffffffffffffffffffffff1614611c45576040517f08c379a0000000000000000000000000000000000000000000000000000000008152600401611c3c906138f6565b60405180910390fd5b80601660006101000a81548173ffffffffffffffffffffffffffffffffffffffff021916908373ffffffffffffffffffffffffffffffffffffffff16021790555050565b60115481565b600360009054906101000a900473ffffffffffffffffffffffffffffffffffffffff1673ffffffffffffffffffffffffffffffffffffffff163373ffffffffffffffffffffffffffffffffffffffff1614611d1f576040517f08c379a0000000000000000000000000000000000000000000000000000000008152600401611d16906138f6565b60405180910390fd5b6001601960008373ffffffffffffffffffffffffffffffffffffffff1673ffffffffffffffffffffffffffffffffffffffff16815260200190815260200160002060006101000a81548160ff02191690831515021790555050565b60085481565b600360009054906101000a900473ffffffffffffffffffffffffffffffffffffffff1673ffffffffffffffffffffffffffffffffffffffff163373ffffffffffffffffffffffffffffffffffffffff1614611e10576040517f08c379a0000000000000000000000000000000000000000000000000000000008152600401611e07906138f6565b60405180910390fd5b6064811115611e54576040517f08c379a0000000000000000000000000000000000000000000000000000000008152600401611e4b906138b6565b60405180910390fd5b80600e8190555050565b601660009054906101000a900473ffffffffffffffffffffffffffffffffffffffff1681565b600e5481565b6000600460149054906101000a900460ff16905090565b60125481565b60006001905090565b600360009054906101000a900473ffffffffffffffffffffffffffffffffffffffff1673ffffffffffffffffffffffffffffffffffffffff163373ffffffffffffffffffffffffffffffffffffffff1614611f40576040517f08c379a0000000000000000000000000000000000000000000000000000000008152600401611f37906138f6565b60405180910390fd5b6064811115611f84576040517f08c379a0000000000000000000000000000000000000000000000000000000008152600401611f7b906138b6565b60405180910390fd5b80600c8190555050565b600360009054906101000a900473ffffffffffffffffffffffffffffffffffffffff1673ffffffffffffffffffffffffffffffffffffffff163373ffffffffffffffffffffffffffffffffffffffff161461201e576040517f08c379a0000000000000000000000000000000000000000000000000000000008152600401612015906138f6565b60405180910390fd5b6064811115612062576040517f08c379a0000000000000000000000000000000000000000000000000000000008152600401612059906138b6565b60405180910390fd5b80600b8190555050565b600360009054906101000a900473ffffffffffffffffffffffffffffffffffffffff1673ffffffffffffffffffffffffffffffffffffffff163373ffffffffffffffffffffffffffffffffffffffff16146120fc576040517f08c379a00000000000000000000000000000000000000000000000000000000081526004016120f3906138f6565b60405180910390fd5b6000601960008373ffffffffffffffffffffffffffffffffffffffff1673ffffffffffffffffffffffffffffffffffffffff16815260200190815260200160002060006101000a81548160ff02191690831515021790555050565b600360009054906101000a900473ffffffffffffffffffffffffffffffffffffffff1673ffffffffffffffffffffffffffffffffffffffff163373ffffffffffffffffffffffffffffffffffffffff16146121e7576040517f08c379a00000000000000000000000000000000000000000000000000000000081526004016121de906138f6565b60405180910390fd5b600073ffffffffffffffffffffffffffffffffffffffff168173ffffffffffffffffffffffffffffffffffffffff161415612257576040517f08c379a000000000000000000000000000000000000000000000000000000000815260040161224e90613876565b60405180910390fd5b80600360006101000a81548173ffffffffffffffffffffffffffffffffffffffff021916908373ffffffffffffffffffffffffffffffffffffffff160217905550600160196000600360009054906101000a900473ffffffffffffffffffffffffffffffffffffffff1673ffffffffffffffffffffffffffffffffffffffff1673ffffffffffffffffffffffffffffffffffffffff16815260200190815260200160002060006101000a81548160ff02191690831515021790555050565b600360009054906101000a900473ffffffffffffffffffffffffffffffffffffffff1673ffffffffffffffffffffffffffffffffffffffff163373ffffffffffffffffffffffffffffffffffffffff16146123a5576040517f08c379a000000000000000000000000000000000000000000000000000000000815260040161239c906138f6565b60405180910390fd5b600073ffffffffffffffffffffffffffffffffffffffff168173ffffffffffffffffffffffffffffffffffffffff161415612415576040517f08c379a000000000000000000000000000000000000000000000000000000000815260040161240c90613916565b60405180910390fd5b80600260006101000a81548173ffffffffffffffffffffffffffffffffffffffff021916908373ffffffffffffffffffffffffffffffffffffffff16021790555050565b600081836124679190613a8b565b905092915050565b600080601760009054906101000a900473ffffffffffffffffffffffffffffffffffffffff1673ffffffffffffffffffffffffffffffffffffffff166370a08231306040518263ffffffff1660e01b81526004016124cd919061376a565b60206040518083038186803b1580156124e557600080fd5b505afa1580156124f9573d6000803e3d6000fd5b505050506040513d601f19601f8201168201806040525081019061251d919061340b565b90506000600267ffffffffffffffff811115612562577f4e487b7100000000000000000000000000000000000000000000000000000000600052604160045260246000fd5b6040519080825280602002602001820160405280156125905781602001602082028036833780820191505090505b509050601860009054906101000a900473ffffffffffffffffffffffffffffffffffffffff1673ffffffffffffffffffffffffffffffffffffffff1663ad5c46486040518163ffffffff1660e01b815260040160206040518083038186803b1580156125fb57600080fd5b505afa15801561260f573d6000803e3d6000fd5b505050506040513d601f19601f820116820180604052508101906126339190613367565b8160008151811061266d577f4e487b7100000000000000000000000000000000000000000000000000000000600052603260045260246000fd5b602002602001019073ffffffffffffffffffffffffffffffffffffffff16908173ffffffffffffffffffffffffffffffffffffffff168152505060008054906101000a900473ffffffffffffffffffffffffffffffffffffffff1681600181518110612702577f4e487b7100000000000000000000000000000000000000000000000000000000600052603260045260246000fd5b602002602001019073ffffffffffffffffffffffffffffffffffffffff16908173ffffffffffffffffffffffffffffffffffffffff1681525050601860009054906101000a900473ffffffffffffffffffffffffffffffffffffffff1673ffffffffffffffffffffffffffffffffffffffff1663b6f9de958560008430426040518663ffffffff1660e01b815260040161279f949392919061382a565b6000604051808303818588803b1580156127b857600080fd5b505af11580156127cc573d6000803e3d6000fd5b5050505050600061289083601760009054906101000a900473ffffffffffffffffffffffffffffffffffffffff1673ffffffffffffffffffffffffffffffffffffffff166370a08231306040518263ffffffff1660e01b8152600401612832919061376a565b60206040518083038186803b15801561284a57600080fd5b505afa15801561285e573d6000803e3d6000fd5b505050506040513d601f19601f82011682018060405250810190612882919061340b565b612cc990919063ffffffff16565b9050809350505050919050565b600081836128ab9190613abc565b905092915050565b60006128db60646128cd848661289d90919063ffffffff16565b61245990919063ffffffff16565b905092915050565b600082111561295657601460009054906101000a900473ffffffffffffffffffffffffffffffffffffffff1673ffffffffffffffffffffffffffffffffffffffff166108fc839081150290604051600060405180830381858888f19350505050158015612954573d6000803e3d6000fd5b505b60008111156129c957601560009054906101000a900473ffffffffffffffffffffffffffffffffffffffff1673ffffffffffffffffffffffffffffffffffffffff166108fc829081150290604051600060405180830381858888f193505050501580156129c7573d6000803e3d6000fd5b505b5050565b6000600754601054101580156129ef5750600460159054906101000a900460ff165b8015612a495750600460009054906101000a900473ffffffffffffffffffffffffffffffffffffffff1673ffffffffffffffffffffffffffffffffffffffff163373ffffffffffffffffffffffffffffffffffffffff1614155b8015612a625750600460149054906101000a900460ff16155b905090565b6001600460146101000a81548160ff0219169083151502179055506000612a8c612cdf565b612aab57612aa6600260075461245990919063ffffffff16565b612aaf565b6007545b90506000612ade601054612ad060075460115461289d90919063ffffffff16565b61245990919063ffffffff16565b90506000612b0d601054612aff60075460125461289d90919063ffffffff16565b61245990919063ffffffff16565b90506000612b3682612b288587612cf290919063ffffffff16565b612cf290919063ffffffff16565b90506000612b448230612d08565b90506000612b6d83612b5f888561289d90919063ffffffff16565b61245990919063ffffffff16565b90506000612b9684612b88888661289d90919063ffffffff16565b61245990919063ffffffff16565b90506000612bbf85612bb1888761289d90919063ffffffff16565b61245990919063ffffffff16565b9050612bc9612cdf565b15612c3c57601460009054906101000a900473ffffffffffffffffffffffffffffffffffffffff1673ffffffffffffffffffffffffffffffffffffffff166108fc849081150290604051600060405180830381858888f19350505050158015612c36573d6000803e3d6000fd5b50612c47565b612c468884613012565b5b612c5182826128e3565b612c68600754601054612cc990919063ffffffff16565b601081905550612c8387601154612cc990919063ffffffff16565b601181905550612c9e86601254612cc990919063ffffffff16565b60128190555050505050505050506000600460146101000a81548160ff021916908315150217905550565b60008183612cd79190613b16565b905092915050565b6000600654612cec613114565b11905090565b60008183612d009190613a35565b905092915050565b6000803073ffffffffffffffffffffffffffffffffffffffff163190506000600267ffffffffffffffff811115612d68577f4e487b7100000000000000000000000000000000000000000000000000000000600052604160045260246000fd5b604051908082528060200260200182016040528015612d965781602001602082028036833780820191505090505b50905060008054906101000a900473ffffffffffffffffffffffffffffffffffffffff1681600081518110612df4577f4e487b7100000000000000000000000000000000000000000000000000000000600052603260045260246000fd5b602002602001019073ffffffffffffffffffffffffffffffffffffffff16908173ffffffffffffffffffffffffffffffffffffffff1681525050601860009054906101000a900473ffffffffffffffffffffffffffffffffffffffff1673ffffffffffffffffffffffffffffffffffffffff1663ad5c46486040518163ffffffff1660e01b815260040160206040518083038186803b158015612e9657600080fd5b505afa158015612eaa573d6000803e3d6000fd5b505050506040513d601f19601f82011682018060405250810190612ece9190613367565b81600181518110612f08577f4e487b7100000000000000000000000000000000000000000000000000000000600052603260045260246000fd5b602002602001019073ffffffffffffffffffffffffffffffffffffffff16908173ffffffffffffffffffffffffffffffffffffffff1681525050601860009054906101000a900473ffffffffffffffffffffffffffffffffffffffff1673ffffffffffffffffffffffffffffffffffffffff1663791ac9478660008488426040518663ffffffff1660e01b8152600401612fa6959493929190613991565b600060405180830381600087803b158015612fc057600080fd5b505af1158015612fd4573d6000803e3d6000fd5b505050506000613004833073ffffffffffffffffffffffffffffffffffffffff1631612cc990919063ffffffff16565b905080935050505092915050565b601860009054906101000a900473ffffffffffffffffffffffffffffffffffffffff1673ffffffffffffffffffffffffffffffffffffffff1663f305d7198260008054906101000a900473ffffffffffffffffffffffffffffffffffffffff1685600080600260009054906101000a900473ffffffffffffffffffffffffffffffffffffffff16426040518863ffffffff1660e01b81526004016130bb969594939291906137ae565b6060604051808303818588803b1580156130d457600080fd5b505af11580156130e8573d6000803e3d6000fd5b50505050506040513d601f19601f8201168201806040525081019061310d9190613434565b5050505050565b60006132bb601760009054906101000a900473ffffffffffffffffffffffffffffffffffffffff1673ffffffffffffffffffffffffffffffffffffffff166318160ddd6040518163ffffffff1660e01b815260040160206040518083038186803b15801561318157600080fd5b505afa158015613195573d6000803e3d6000fd5b505050506040513d601f19601f820116820180604052508101906131b9919061340b565b6132ad61329c6002601760009054906101000a900473ffffffffffffffffffffffffffffffffffffffff1673ffffffffffffffffffffffffffffffffffffffff166370a08231600460009054906101000a900473ffffffffffffffffffffffffffffffffffffffff166040518263ffffffff1660e01b815260040161323e919061376a565b60206040518083038186803b15801561325657600080fd5b505afa15801561326a573d6000803e3d6000fd5b505050506040513d601f19601f8201168201806040525081019061328e919061340b565b61289d90919063ffffffff16565b60055461289d90919063ffffffff16565b61245990919063ffffffff16565b905090565b6000813590506132cf81613c14565b92915050565b6000815190506132e481613c14565b92915050565b6000813590506132f981613c2b565b92915050565b60008151905061330e81613c42565b92915050565b60008135905061332381613c59565b92915050565b60008151905061333881613c59565b92915050565b60006020828403121561335057600080fd5b600061335e848285016132c0565b91505092915050565b60006020828403121561337957600080fd5b6000613387848285016132d5565b91505092915050565b6000602082840312156133a257600080fd5b60006133b0848285016132ea565b91505092915050565b6000602082840312156133cb57600080fd5b60006133d9848285016132ff565b91505092915050565b6000602082840312156133f457600080fd5b600061340284828501613314565b91505092915050565b60006020828403121561341d57600080fd5b600061342b84828501613329565b91505092915050565b60008060006060848603121561344957600080fd5b600061345786828701613329565b935050602061346886828701613329565b925050604061347986828701613329565b9150509250925092565b600061348f838361349b565b60208301905092915050565b6134a481613b4a565b82525050565b6134b381613b4a565b82525050565b60006134c4826139fb565b6134ce8185613a13565b93506134d9836139eb565b8060005b8381101561350a5781516134f18882613483565b97506134fc83613a06565b9250506001810190506134dd565b5085935050505092915050565b61352081613b6e565b82525050565b61352f81613ba4565b82525050565b6000613542601983613a24565b91507f53686f756c64206e6f74206265206120302061646472657373000000000000006000830152602082019050919050565b6000613582601083613a24565b91507f4e6f742076616c696420726f75746572000000000000000000000000000000006000830152602082019050919050565b60006135c2601783613a24565b91507f63616e6e6f74206265206d6f7265207468616e203130300000000000000000006000830152602082019050919050565b6000613602600383613a24565b91507f21414900000000000000000000000000000000000000000000000000000000006000830152602082019050919050565b6000613642600683613a24565b91507f214f574e455200000000000000000000000000000000000000000000000000006000830152602082019050919050565b6000613682601783613a24565b91507f73686f756c64206e6f74206265203020616464726573730000000000000000006000830152602082019050919050565b60006136c2601c83613a24565b91507f70726f766964652076616c696420726f757465722061646472657373000000006000830152602082019050919050565b6000613702602983613a24565b91507f737761705468726573686f6c642063616e6e6f74206265206c6573732074686560008301527f6e203120746f6b656e00000000000000000000000000000000000000000000006020830152604082019050919050565b61376481613b9a565b82525050565b600060208201905061377f60008301846134aa565b92915050565b600060408201905061379a60008301856134aa565b6137a7602083018461375b565b9392505050565b600060c0820190506137c360008301896134aa565b6137d0602083018861375b565b6137dd6040830187613526565b6137ea6060830186613526565b6137f760808301856134aa565b61380460a083018461375b565b979650505050505050565b60006020820190506138246000830184613517565b92915050565b600060808201905061383f6000830187613526565b818103602083015261385181866134b9565b905061386060408301856134aa565b61386d606083018461375b565b95945050505050565b6000602082019050818103600083015261388f81613535565b9050919050565b600060208201905081810360008301526138af81613575565b9050919050565b600060208201905081810360008301526138cf816135b5565b9050919050565b600060208201905081810360008301526138ef816135f5565b9050919050565b6000602082019050818103600083015261390f81613635565b9050919050565b6000602082019050818103600083015261392f81613675565b9050919050565b6000602082019050818103600083015261394f816136b5565b9050919050565b6000602082019050818103600083015261396f816136f5565b9050919050565b600060208201905061398b600083018461375b565b92915050565b600060a0820190506139a6600083018861375b565b6139b36020830187613526565b81810360408301526139c581866134b9565b90506139d460608301856134aa565b6139e1608083018461375b565b9695505050505050565b6000819050602082019050919050565b600081519050919050565b6000602082019050919050565b600082825260208201905092915050565b600082825260208201905092915050565b6000613a4082613b9a565b9150613a4b83613b9a565b9250827fffffffffffffffffffffffffffffffffffffffffffffffffffffffffffffffff03821115613a8057613a7f613bb6565b5b828201905092915050565b6000613a9682613b9a565b9150613aa183613b9a565b925082613ab157613ab0613be5565b5b828204905092915050565b6000613ac782613b9a565b9150613ad283613b9a565b9250817fffffffffffffffffffffffffffffffffffffffffffffffffffffffffffffffff0483118215151615613b0b57613b0a613bb6565b5b828202905092915050565b6000613b2182613b9a565b9150613b2c83613b9a565b925082821015613b3f57613b3e613bb6565b5b828203905092915050565b6000613b5582613b7a565b9050919050565b6000613b6782613b7a565b9050919050565b60008115159050919050565b600073ffffffffffffffffffffffffffffffffffffffff82169050919050565b6000819050919050565b6000613baf82613b9a565b9050919050565b7f4e487b7100000000000000000000000000000000000000000000000000000000600052601160045260246000fd5b7f4e487b7100000000000000000000000000000000000000000000000000000000600052601260045260246000fd5b613c1d81613b4a565b8114613c2857600080fd5b50565b613c3481613b5c565b8114613c3f57600080fd5b50565b613c4b81613b6e565b8114613c5657600080fd5b50565b613c6281613b9a565b8114613c6d57600080fd5b5056fea26469706673582212204a32fa8d394fe19b3ebb523be52699740529e7a90c92c2fffeb5d20fa8acb19d64736f6c63430008000033",
  "immutableReferences": {},
  "source": "// SPDX-License-Identifier: MIT\n\npragma solidity ^0.8.0;\n\nimport \"./IDexRouter.sol\";\nimport \"./IBEP20.sol\";\nimport \"./SafeMath.sol\";\n\ncontract AIRouter {\n  using SafeMath for uint256;\n\n  address private _aiTokenAddress;\n  address private _routerAddress = 0x3380aE82e39E42Ca34EbEd69aF67fAa0683Bb5c1;\n  address private _lpLockAddress = address(this);\n  address private contractOwner;\n  address private pair;\n\n  bool private inSwap;\n  bool private swapEnabled = true;\n\n  uint256 private accuracy = 100;\n  uint256 private target = 30;\n  uint256 public swapThreshold = 500 * (10 ** 18); // 500 TOKENS\n  \n  uint256 public liqTaxShare = 50;\n  uint256 public treasuryTaxShare = 20;\n  uint256 public rewardTaxShare = 20;\n  uint256 public devTaxShare = 10;\n\n  uint256 public liqRoyaltyShare = 20;\n  uint256 public treasuryRoyaltyShare = 30;\n  uint256 public rewardRoyaltyShare = 40;\n  uint256 public devRoyaltyShare = 10;\n\n  uint256 public liqBalance = 0;\n  uint256 public rewardBalance = 0;\n  uint256 public devBalance = 0;\n  uint256 public treasuryBalance = 0;\n\n  address public rewardsBNBPool = 0x9423BbAb02a50541C3ecF9F4c659ED6EA332AF42;\n  address public devBNBPool = 0x9423BbAb02a50541C3ecF9F4c659ED6EA332AF42;\n  address public treasuryAddress = 0x5F55507507c8754b80c08A9791C46FfC15482F99;\n\n  IBEP20 private aiContract;\n  IDexRouter private router = IDexRouter(_routerAddress);\n\n  mapping (address => bool) internal authorizations;\n\n  constructor(address ai, address _pair) {\n    contractOwner = msg.sender;\n    authorize(contractOwner);\n    changeAiAddress(ai);\n\n    aiContract.approve(address(router), type(uint256).max);\n    pair = _pair;\n  }\n\n  receive() external payable {\n    if (!inSwap) {\n      _distributeRoyalties(); \n    }\n  }\n  \n  /**\n  * Function modifier to require caller to be authorized\n  */\n  modifier authorized() {\n      require(authorizations[msg.sender], \"!AUTHORIZED\"); _;\n  }\n\n  /**\n  * Function modifier to require caller to be contract owner\n  */\n  modifier onlyOwner() {\n    require(msg.sender == contractOwner, \"!OWNER\"); _;\n  }\n\n  /**\n  * Function modifier to require caller to be AI contract\n  */\n  modifier onlyAi() {\n    require(msg.sender == _aiTokenAddress, \"!AI\"); _;\n  }\n\n  /**\n  * Function modifier to set inSwap to true while swapping\n  */\n  modifier swapping() {\n\t\tinSwap = true;\n\t\t_;\n\t  inSwap = false;\n\t}\n\n  function isInSwap() external view returns (bool) {\n    return inSwap;\n  }\n\n  function supportsDistribureFunction() external pure returns (bool) {\n    return true;\n  }\n\n  function _shouldSwapBack() private view returns (bool) {\n    return liqBalance >= swapThreshold\n      && swapEnabled\n      && msg.sender != pair\n      && !inSwap;\n  }\n\n  function addLiquidity(uint256 AI, uint256 BNB) private {\n    router.addLiquidityETH{value: BNB}(\n\t\t\t_aiTokenAddress,\n\t\t\tAI,\n\t\t\t0,\n\t\t\t0,\n\t\t\t_lpLockAddress,\n\t\t\tblock.timestamp\n\t\t);\n  }\n\n  function _swapAI(uint256 swapAmount, address sendBnbTo) private returns (uint256) {\n    uint256 balanceBeforeSwap = address(this).balance;\n    \n    address[] memory path = new address[](2);\n    path[0] = _aiTokenAddress;\n    path[1] = router.WETH();\n    \n    router.swapExactTokensForETHSupportingFeeOnTransferTokens(\n        swapAmount,\n        0,\n        path,\n        sendBnbTo,\n        block.timestamp\n    );\n\n    uint256 bnbReceived = address(this).balance.sub(balanceBeforeSwap);\n    return bnbReceived;\n  }\n\n  function _swapBNB(uint256 swapAmount) private returns (uint256) {\n    uint256 balanceBeforeSwap = aiContract.balanceOf(address(this));\n    \n    address[] memory path = new address[](2);\n    path[0] = router.WETH();\n    path[1] = _aiTokenAddress;\n    router.swapExactETHForTokensSupportingFeeOnTransferTokens{value: swapAmount}(0, path, address(this), block.timestamp);\n\n    uint256 aiReceived = aiContract.balanceOf(address(this)).sub(balanceBeforeSwap);\n    return aiReceived;\n  }\n\n  function _distributeFees(uint256 shareA, uint256 shareB) internal {\n    if (shareA > 0) { payable(rewardsBNBPool).transfer(shareA); }\n    if (shareB > 0) { payable(devBNBPool).transfer(shareB); }\n  }\n\n  function liquify() internal swapping {\n    uint256 aiForLiqToSwap = isOverLiquified() ? swapThreshold : swapThreshold.div(2);\n    uint256 rewardToSwap = rewardBalance.mul(swapThreshold).div(liqBalance);\n    uint256 devToSwap = devBalance.mul(swapThreshold).div(liqBalance);\n    uint256 aiToSwap = aiForLiqToSwap.add(rewardToSwap).add(devToSwap);\n\n    uint256 bnbReceived = _swapAI(aiToSwap, address(this));\n    uint256 bnbForLiq = bnbReceived.mul(aiForLiqToSwap).div(aiToSwap);\n    uint256 bnbForRewards = bnbReceived.mul(rewardToSwap).div(aiToSwap);\n    uint256 bnbForDev = bnbReceived.mul(devToSwap).div(aiToSwap);\n\n    if (isOverLiquified()) {\n      payable(rewardsBNBPool).transfer(bnbForLiq);\n    } else {\n      addLiquidity(aiForLiqToSwap, bnbForLiq);\n    }\n\n    _distributeFees(\n      bnbForRewards,\n      bnbForDev\n    );\n    \n    liqBalance = liqBalance.sub(swapThreshold);\n    rewardBalance = rewardBalance.sub(rewardToSwap);\n    devBalance = devBalance.sub(devToSwap);\n  }\n\n  function _distributeRoyalties() internal {\n    uint256 receivedAmount = msg.value;\n    uint256 aiReceived = _swapBNB(receivedAmount.div(2));\n\n    uint256 aiForLiq = _calculateShare(aiReceived.mul(2), liqRoyaltyShare);\n    uint256 toAiTreasury = _calculateShare(aiReceived.mul(2), treasuryRoyaltyShare);\n    uint256 bnbToReward = _calculateShare(receivedAmount, rewardRoyaltyShare);\n    uint256 bnbToDev = _calculateShare(receivedAmount, devRoyaltyShare);\n\n    liqBalance += aiForLiq;\n    aiContract.transfer(treasuryAddress, toAiTreasury);\n\n    _distributeFees(bnbToReward, bnbToDev);\n\n    if (_shouldSwapBack()) { liquify(); }\n  }\n  \n  // not finalised, waiting for the final calculations schema\n  function distributeTax(uint256 amount) external onlyAi {\n    if (amount > 0) {\n      uint256 aiForLiq = _calculateShare(amount, liqTaxShare);\n      uint256 aiForRewards = _calculateShare(amount, rewardTaxShare);\n      uint256 aiForDev = _calculateShare(amount, devTaxShare);\n      uint256 toAiTreasury = _calculateShare(amount, treasuryTaxShare);\n\n      liqBalance += aiForLiq;\n      rewardBalance += aiForRewards;\n      devBalance += aiForDev;\n      treasuryBalance += toAiTreasury;\n    }\n  }\n  \n  function liquifyBack() external onlyAi {\n    aiContract.transfer(treasuryAddress, treasuryBalance);\n    treasuryBalance = 0;\n      \n    if (_shouldSwapBack()) { liquify(); }\n  }\n\n  function getLiquidityBacking() private view returns (uint256) {\n    return accuracy.mul(aiContract.balanceOf(pair).mul(2)).div(aiContract.totalSupply());\n  }\n  function isOverLiquified() private view returns (bool) {\n    return getLiquidityBacking() > target;\n  }\n\n  function _calculateShare(uint256 amount, uint256 share) private pure returns (uint256) {\n    return amount.mul(share).div(100);\n  }\n\n  function _validateShares(uint256[] memory shares) private pure {\n    uint256 shareSum = 0;\n    for (uint256 i = 0; i < shares.length; i++) {\n      shareSum += shares[i];\n    }\n    require(shareSum == 100, \"Total shares amount should be 100\");\n  }\n\n  function changeLiqTaxShare(uint256 share) public onlyOwner {\n    require(share <= 100, 'cannot be more than 100');\n    liqTaxShare = share;\n  }\n  function changeTreasuryTaxShare(uint256 share) public onlyOwner {\n    require(share <= 100, 'cannot be more than 100');\n    treasuryTaxShare = share;\n  }\n  function changeRewardTaxShare(uint256 share) public onlyOwner {\n    require(share <= 100, 'cannot be more than 100');\n    rewardTaxShare = share;\n  }\n  function changeDevTaxShare(uint256 share) public onlyOwner {\n    require(share <= 100, 'cannot be more than 100');\n    devTaxShare = share;\n  }\n\n  function changeLiqRoyaltyShare(uint256 share) public onlyOwner {\n    require(share <= 100, 'cannot be more than 100');\n    liqRoyaltyShare = share;\n  }\n  function changeTreasuryRoyaltyShare(uint256 share) public onlyOwner {\n    require(share <= 100, 'cannot be more than 100');\n    treasuryRoyaltyShare = share;\n  }\n  function changeRewardRoyaltyShare(uint256 share) public onlyOwner {\n    require(share <= 100, 'cannot be more than 100');\n    rewardRoyaltyShare = share;\n  }\n  function changeDevRoyaltyShare(uint256 share) public onlyOwner {\n    require(share <= 100, 'cannot be more than 100');\n    devRoyaltyShare = share;\n  }\n\n  function changeRewardAddress(address addr) public onlyOwner {\n    rewardsBNBPool = addr;\n  }\n\n  function changeDevAddress(address addr) public onlyOwner {\n    devBNBPool = addr;\n  }\n\n  function changeTreasuryAddress(address addr) public onlyOwner {\n    treasuryAddress = addr;\n  }\n\n  function changeSwapThresholdAmount(uint256 newValue) public onlyOwner {\n    require(newValue >= 1 * 10**18, 'swapThreshold cannot be less then 1 token');\n    swapThreshold = newValue;\n  }\n\n  function changeRouterAddress(address newRouterAddress) public onlyOwner {\n    require(IDexRouter(newRouterAddress).WETH() != address(0), 'provide valid router address');\n    _routerAddress = newRouterAddress;\n    router = IDexRouter(_routerAddress);\n  }\n\n  function changeLpLockAddress(address newLpAddress) public onlyOwner {\n    require(newLpAddress != address(0), 'should not be 0 address');\n    _lpLockAddress = newLpAddress;\n  }\n\n  /**\n  * @dev Only owner can call this function. Activates tax collection.\n  */\n  function changeAiAddress(address ai) public onlyOwner {\n    require(ai != address(0), 'Should not be a 0 address');\n    require(IBEP20(ai).balanceOf(address(0)) == 0, 'Not valid router'); // check the balanceOf method\n\n    _aiTokenAddress = ai;\n    aiContract = IBEP20(_aiTokenAddress);\n    authorize(_aiTokenAddress);\n  }\n\n  /**\n  * @dev Only owner can call this function. Transfer ownership to new address. Caller must be owner.\n  */\n  function transferOwnership(address payable adr) public onlyOwner {\n      require(adr != address(0), 'Should not be a 0 address');\n      contractOwner = adr;\n      authorizations[contractOwner] = true;\n  }\n  /**\n    * Authorize address. Owner only\n  */\n  function authorize(address adr) public onlyOwner {\n      authorizations[adr] = true;\n  }\n  \n  /**\n    * Remove address' authorization. Owner only\n    */\n  function unauthorize(address adr) public onlyOwner {\n      authorizations[adr] = false;\n  }\n\n\t// Recover any BNB and AI sent to the contract is case of migration.\n\tfunction rescue() external onlyOwner {\n    uint256 aiBalance = aiContract.balanceOf(address(this));\n    aiContract.transfer(contractOwner, aiBalance);\n    payable(contractOwner).transfer(address(this).balance);\n  }\n}",
  "sourcePath": "/Users/viktor/Documents/Projects/solidity/hibiki/src/contracts/AIRouter.sol",
  "compiler": {
    "name": "solc",
    "version": "0.8.0+commit.c7dfd78e.Emscripten.clang"
  },
  "schemaVersion": "3.4.1",
  "updatedAt": "2021-10-16T12:35:40.633Z",
  "networkType": "ethereum",
  "devdoc": {
    "kind": "dev",
    "methods": {
      "changeAiAddress(address)": {
        "details": "Only owner can call this function. Activates tax collection."
      },
      "transferOwnership(address)": {
        "details": "Only owner can call this function. Transfer ownership to new address. Caller must be owner."
      }
    },
    "version": 1
  },
  "userdoc": {
    "kind": "user",
    "methods": {
      "authorize(address)": {
        "notice": "Authorize address. Owner only"
      },
      "unauthorize(address)": {
        "notice": "Remove address' authorization. Owner only"
      }
    },
    "version": 1
  }
}