{
  "contractName": "Hibiki",
  "abi": [
    {
      "inputs": [],
      "stateMutability": "nonpayable",
      "type": "constructor"
    },
    {
      "anonymous": false,
      "inputs": [
        {
          "indexed": true,
          "internalType": "address",
          "name": "owner",
          "type": "address"
        },
        {
          "indexed": true,
          "internalType": "address",
          "name": "spender",
          "type": "address"
        },
        {
          "indexed": false,
          "internalType": "uint256",
          "name": "value",
          "type": "uint256"
        }
      ],
      "name": "Approval",
      "type": "event"
    },
    {
      "anonymous": false,
      "inputs": [
        {
          "indexed": false,
          "internalType": "uint256",
          "name": "amountBNB",
          "type": "uint256"
        },
        {
          "indexed": false,
          "internalType": "uint256",
          "name": "autoBuybackAmount",
          "type": "uint256"
        }
      ],
      "name": "AutoLiquify",
      "type": "event"
    },
    {
      "anonymous": false,
      "inputs": [
        {
          "indexed": false,
          "internalType": "bool",
          "name": "enabledOrNot",
          "type": "bool"
        }
      ],
      "name": "AutoLiquifyEnabled",
      "type": "event"
    },
    {
      "anonymous": false,
      "inputs": [
        {
          "indexed": false,
          "internalType": "bool",
          "name": "active",
          "type": "bool"
        }
      ],
      "name": "NFTStakingRewards",
      "type": "event"
    },
    {
      "anonymous": false,
      "inputs": [
        {
          "indexed": false,
          "internalType": "address",
          "name": "owner",
          "type": "address"
        }
      ],
      "name": "OwnershipTransferred",
      "type": "event"
    },
    {
      "anonymous": false,
      "inputs": [
        {
          "indexed": false,
          "internalType": "bool",
          "name": "activate",
          "type": "bool"
        }
      ],
      "name": "StakingRewards",
      "type": "event"
    },
    {
      "anonymous": false,
      "inputs": [
        {
          "indexed": true,
          "internalType": "address",
          "name": "from",
          "type": "address"
        },
        {
          "indexed": true,
          "internalType": "address",
          "name": "to",
          "type": "address"
        },
        {
          "indexed": false,
          "internalType": "uint256",
          "name": "value",
          "type": "uint256"
        }
      ],
      "name": "Transfer",
      "type": "event"
    },
    {
      "inputs": [],
      "name": "_maxTxAmount",
      "outputs": [
        {
          "internalType": "uint256",
          "name": "",
          "type": "uint256"
        }
      ],
      "stateMutability": "view",
      "type": "function",
      "constant": true
    },
    {
      "inputs": [],
      "name": "_maxWalletAmount",
      "outputs": [
        {
          "internalType": "uint256",
          "name": "",
          "type": "uint256"
        }
      ],
      "stateMutability": "view",
      "type": "function",
      "constant": true
    },
    {
      "inputs": [
        {
          "internalType": "address",
          "name": "adr",
          "type": "address"
        }
      ],
      "name": "authorize",
      "outputs": [],
      "stateMutability": "nonpayable",
      "type": "function"
    },
    {
      "inputs": [],
      "name": "autoLiquidityReceiver",
      "outputs": [
        {
          "internalType": "address",
          "name": "",
          "type": "address"
        }
      ],
      "stateMutability": "view",
      "type": "function",
      "constant": true
    },
    {
      "inputs": [],
      "name": "feeOnNonTrade",
      "outputs": [
        {
          "internalType": "bool",
          "name": "",
          "type": "bool"
        }
      ],
      "stateMutability": "view",
      "type": "function",
      "constant": true
    },
    {
      "inputs": [
        {
          "internalType": "address",
          "name": "adr",
          "type": "address"
        }
      ],
      "name": "isAuthorized",
      "outputs": [
        {
          "internalType": "bool",
          "name": "",
          "type": "bool"
        }
      ],
      "stateMutability": "view",
      "type": "function",
      "constant": true
    },
    {
      "inputs": [
        {
          "internalType": "address",
          "name": "account",
          "type": "address"
        }
      ],
      "name": "isOwner",
      "outputs": [
        {
          "internalType": "bool",
          "name": "",
          "type": "bool"
        }
      ],
      "stateMutability": "view",
      "type": "function",
      "constant": true
    },
    {
      "inputs": [],
      "name": "launchedAt",
      "outputs": [
        {
          "internalType": "uint256",
          "name": "",
          "type": "uint256"
        }
      ],
      "stateMutability": "view",
      "type": "function",
      "constant": true
    },
    {
      "inputs": [],
      "name": "nftStakingPrizePool",
      "outputs": [
        {
          "internalType": "uint256",
          "name": "",
          "type": "uint256"
        }
      ],
      "stateMutability": "view",
      "type": "function",
      "constant": true
    },
    {
      "inputs": [],
      "name": "nftStakingRewardsActive",
      "outputs": [
        {
          "internalType": "bool",
          "name": "",
          "type": "bool"
        }
      ],
      "stateMutability": "view",
      "type": "function",
      "constant": true
    },
    {
      "inputs": [],
      "name": "nftStakingRewardsContract",
      "outputs": [
        {
          "internalType": "address",
          "name": "",
          "type": "address"
        }
      ],
      "stateMutability": "view",
      "type": "function",
      "constant": true
    },
    {
      "inputs": [
        {
          "internalType": "uint256",
          "name": "",
          "type": "uint256"
        }
      ],
      "name": "pairs",
      "outputs": [
        {
          "internalType": "address",
          "name": "",
          "type": "address"
        }
      ],
      "stateMutability": "view",
      "type": "function",
      "constant": true
    },
    {
      "inputs": [],
      "name": "router",
      "outputs": [
        {
          "internalType": "contract IDexRouter",
          "name": "",
          "type": "address"
        }
      ],
      "stateMutability": "view",
      "type": "function",
      "constant": true
    },
    {
      "inputs": [],
      "name": "stakingPrizePool",
      "outputs": [
        {
          "internalType": "uint256",
          "name": "",
          "type": "uint256"
        }
      ],
      "stateMutability": "view",
      "type": "function",
      "constant": true
    },
    {
      "inputs": [],
      "name": "stakingRewardsActive",
      "outputs": [
        {
          "internalType": "bool",
          "name": "",
          "type": "bool"
        }
      ],
      "stateMutability": "view",
      "type": "function",
      "constant": true
    },
    {
      "inputs": [],
      "name": "stakingRewardsContract",
      "outputs": [
        {
          "internalType": "address",
          "name": "",
          "type": "address"
        }
      ],
      "stateMutability": "view",
      "type": "function",
      "constant": true
    },
    {
      "inputs": [],
      "name": "swapEnabled",
      "outputs": [
        {
          "internalType": "bool",
          "name": "",
          "type": "bool"
        }
      ],
      "stateMutability": "view",
      "type": "function",
      "constant": true
    },
    {
      "inputs": [],
      "name": "swapThreshold",
      "outputs": [
        {
          "internalType": "uint256",
          "name": "",
          "type": "uint256"
        }
      ],
      "stateMutability": "view",
      "type": "function",
      "constant": true
    },
    {
      "inputs": [
        {
          "internalType": "address payable",
          "name": "adr",
          "type": "address"
        }
      ],
      "name": "transferOwnership",
      "outputs": [],
      "stateMutability": "nonpayable",
      "type": "function"
    },
    {
      "inputs": [
        {
          "internalType": "address",
          "name": "adr",
          "type": "address"
        }
      ],
      "name": "unauthorize",
      "outputs": [],
      "stateMutability": "nonpayable",
      "type": "function"
    },
    {
      "stateMutability": "payable",
      "type": "receive",
      "payable": true
    },
    {
      "inputs": [],
      "name": "totalSupply",
      "outputs": [
        {
          "internalType": "uint256",
          "name": "",
          "type": "uint256"
        }
      ],
      "stateMutability": "view",
      "type": "function",
      "constant": true
    },
    {
      "inputs": [],
      "name": "decimals",
      "outputs": [
        {
          "internalType": "uint8",
          "name": "",
          "type": "uint8"
        }
      ],
      "stateMutability": "pure",
      "type": "function",
      "constant": true
    },
    {
      "inputs": [],
      "name": "symbol",
      "outputs": [
        {
          "internalType": "string",
          "name": "",
          "type": "string"
        }
      ],
      "stateMutability": "pure",
      "type": "function",
      "constant": true
    },
    {
      "inputs": [],
      "name": "name",
      "outputs": [
        {
          "internalType": "string",
          "name": "",
          "type": "string"
        }
      ],
      "stateMutability": "pure",
      "type": "function",
      "constant": true
    },
    {
      "inputs": [],
      "name": "getOwner",
      "outputs": [
        {
          "internalType": "address",
          "name": "",
          "type": "address"
        }
      ],
      "stateMutability": "view",
      "type": "function",
      "constant": true
    },
    {
      "inputs": [
        {
          "internalType": "address",
          "name": "account",
          "type": "address"
        }
      ],
      "name": "balanceOf",
      "outputs": [
        {
          "internalType": "uint256",
          "name": "",
          "type": "uint256"
        }
      ],
      "stateMutability": "view",
      "type": "function",
      "constant": true
    },
    {
      "inputs": [
        {
          "internalType": "uint256",
          "name": "burnQuantity",
          "type": "uint256"
        }
      ],
      "name": "burn",
      "outputs": [
        {
          "internalType": "bool",
          "name": "",
          "type": "bool"
        }
      ],
      "stateMutability": "nonpayable",
      "type": "function"
    },
    {
      "inputs": [
        {
          "internalType": "address",
          "name": "holder",
          "type": "address"
        },
        {
          "internalType": "address",
          "name": "spender",
          "type": "address"
        }
      ],
      "name": "allowance",
      "outputs": [
        {
          "internalType": "uint256",
          "name": "",
          "type": "uint256"
        }
      ],
      "stateMutability": "view",
      "type": "function",
      "constant": true
    },
    {
      "inputs": [
        {
          "internalType": "address",
          "name": "spender",
          "type": "address"
        },
        {
          "internalType": "uint256",
          "name": "amount",
          "type": "uint256"
        }
      ],
      "name": "approve",
      "outputs": [
        {
          "internalType": "bool",
          "name": "",
          "type": "bool"
        }
      ],
      "stateMutability": "nonpayable",
      "type": "function"
    },
    {
      "inputs": [
        {
          "internalType": "address",
          "name": "spender",
          "type": "address"
        }
      ],
      "name": "approveMax",
      "outputs": [
        {
          "internalType": "bool",
          "name": "",
          "type": "bool"
        }
      ],
      "stateMutability": "nonpayable",
      "type": "function"
    },
    {
      "inputs": [
        {
          "internalType": "address",
          "name": "recipient",
          "type": "address"
        },
        {
          "internalType": "uint256",
          "name": "amount",
          "type": "uint256"
        }
      ],
      "name": "transfer",
      "outputs": [
        {
          "internalType": "bool",
          "name": "",
          "type": "bool"
        }
      ],
      "stateMutability": "nonpayable",
      "type": "function"
    },
    {
      "inputs": [
        {
          "internalType": "address",
          "name": "sender",
          "type": "address"
        },
        {
          "internalType": "address",
          "name": "recipient",
          "type": "address"
        },
        {
          "internalType": "uint256",
          "name": "amount",
          "type": "uint256"
        }
      ],
      "name": "transferFrom",
      "outputs": [
        {
          "internalType": "bool",
          "name": "",
          "type": "bool"
        }
      ],
      "stateMutability": "nonpayable",
      "type": "function"
    },
    {
      "inputs": [
        {
          "internalType": "bool",
          "name": "set",
          "type": "bool"
        }
      ],
      "name": "setSwapEnabled",
      "outputs": [],
      "stateMutability": "nonpayable",
      "type": "function"
    },
    {
      "inputs": [
        {
          "internalType": "address",
          "name": "holder",
          "type": "address"
        },
        {
          "internalType": "bool",
          "name": "exempt",
          "type": "bool"
        }
      ],
      "name": "setIsFeeExempt",
      "outputs": [],
      "stateMutability": "nonpayable",
      "type": "function"
    },
    {
      "inputs": [
        {
          "internalType": "uint256",
          "name": "_liquidityFee",
          "type": "uint256"
        },
        {
          "internalType": "uint256",
          "name": "_burnFee",
          "type": "uint256"
        },
        {
          "internalType": "uint256",
          "name": "_stakingFee",
          "type": "uint256"
        },
        {
          "internalType": "uint256",
          "name": "_nftStakingFee",
          "type": "uint256"
        },
        {
          "internalType": "uint256",
          "name": "_feeDenominator",
          "type": "uint256"
        }
      ],
      "name": "setFees",
      "outputs": [],
      "stateMutability": "nonpayable",
      "type": "function"
    },
    {
      "inputs": [
        {
          "internalType": "address",
          "name": "_autoLiquidityReceiver",
          "type": "address"
        }
      ],
      "name": "setLiquidityReceiver",
      "outputs": [],
      "stateMutability": "nonpayable",
      "type": "function"
    },
    {
      "inputs": [],
      "name": "rescue",
      "outputs": [],
      "stateMutability": "nonpayable",
      "type": "function"
    },
    {
      "inputs": [
        {
          "internalType": "address",
          "name": "pair",
          "type": "address"
        }
      ],
      "name": "addPair",
      "outputs": [],
      "stateMutability": "nonpayable",
      "type": "function"
    },
    {
      "inputs": [],
      "name": "removeLastPair",
      "outputs": [],
      "stateMutability": "nonpayable",
      "type": "function"
    }
  ],
  "bytecode": "0x60806040526012600a62000014919062000860565b629896806200002491906200099d565b6002556064600254620000389190620007cd565b60035560646002546200004c9190620007cd565b600455601e6009556000600a556014600b556000600c556103e8600d556000600e60006101000a81548160ff0219169083151502179055506000600f556000601060006101000a81548160ff02191690831515021790555060006011556000601260006101000a81548160ff0219169083151502179055506001601760006101000a81548160ff0219169083151502179055506801158e460913d000006018556000601a556003601b556406fc23ac00601c556001601d60006101000a81548160ff0219169083151502179055503480156200012757600080fd5b5033806000806101000a81548173ffffffffffffffffffffffffffffffffffffffff021916908373ffffffffffffffffffffffffffffffffffffffff16021790555060018060008373ffffffffffffffffffffffffffffffffffffffff1673ffffffffffffffffffffffffffffffffffffffff16815260200190815260200160002060006101000a81548160ff02191690831515021790555050733380ae82e39e42ca34ebed69af67faa0683bb5c1601460006101000a81548173ffffffffffffffffffffffffffffffffffffffff021916908373ffffffffffffffffffffffffffffffffffffffff160217905550601460009054906101000a900473ffffffffffffffffffffffffffffffffffffffff1673ffffffffffffffffffffffffffffffffffffffff1663c45a01556040518163ffffffff1660e01b815260040160206040518083038186803b1580156200027f57600080fd5b505afa15801562000294573d6000803e3d6000fd5b505050506040513d601f19601f82011682018060405250810190620002ba919062000735565b73ffffffffffffffffffffffffffffffffffffffff1663c9c65396601460009054906101000a900473ffffffffffffffffffffffffffffffffffffffff1673ffffffffffffffffffffffffffffffffffffffff1663ad5c46486040518163ffffffff1660e01b815260040160206040518083038186803b1580156200033e57600080fd5b505afa15801562000353573d6000803e3d6000fd5b505050506040513d601f19601f8201168201806040525081019062000379919062000735565b306040518363ffffffff1660e01b81526004016200039992919062000783565b602060405180830381600087803b158015620003b457600080fd5b505af1158015620003c9573d6000803e3d6000fd5b505050506040513d601f19601f82011682018060405250810190620003ef919062000735565b601560006101000a81548173ffffffffffffffffffffffffffffffffffffffff021916908373ffffffffffffffffffffffffffffffffffffffff1602179055507fffffffffffffffffffffffffffffffffffffffffffffffffffffffffffffffff600660003073ffffffffffffffffffffffffffffffffffffffff1673ffffffffffffffffffffffffffffffffffffffff1681526020019081526020016000206000601460009054906101000a900473ffffffffffffffffffffffffffffffffffffffff1673ffffffffffffffffffffffffffffffffffffffff1673ffffffffffffffffffffffffffffffffffffffff168152602001908152602001600020819055506001600760003373ffffffffffffffffffffffffffffffffffffffff1673ffffffffffffffffffffffffffffffffffffffff16815260200190815260200160002060006101000a81548160ff0219169083151502179055506001600760003073ffffffffffffffffffffffffffffffffffffffff1673ffffffffffffffffffffffffffffffffffffffff16815260200190815260200160002060006101000a81548160ff02191690831515021790555033601360006101000a81548173ffffffffffffffffffffffffffffffffffffffff021916908373ffffffffffffffffffffffffffffffffffffffff1602179055506016601560009054906101000a900473ffffffffffffffffffffffffffffffffffffffff169080600181540180825580915050600190039060005260206000200160009091909190916101000a81548173ffffffffffffffffffffffffffffffffffffffff021916908373ffffffffffffffffffffffffffffffffffffffff160217905550600254600560003373ffffffffffffffffffffffffffffffffffffffff1673ffffffffffffffffffffffffffffffffffffffff168152602001908152602001600020819055503373ffffffffffffffffffffffffffffffffffffffff16600073ffffffffffffffffffffffffffffffffffffffff167fddf252ad1be2c89b69c2b068fc378daa952ba7f163c4a11628f55a4df523b3ef600254604051620007109190620007b0565b60405180910390a362000ace565b6000815190506200072f8162000ab4565b92915050565b6000602082840312156200074857600080fd5b600062000758848285016200071e565b91505092915050565b6200076c81620009fe565b82525050565b6200077d8162000a32565b82525050565b60006040820190506200079a600083018562000761565b620007a9602083018462000761565b9392505050565b6000602082019050620007c7600083018462000772565b92915050565b6000620007da8262000a32565b9150620007e78362000a32565b925082620007fa57620007f962000a78565b5b828204905092915050565b6000808291508390505b600185111562000857578086048111156200082f576200082e62000a49565b5b60018516156200083f5780820291505b80810290506200084f8562000aa7565b94506200080f565b94509492505050565b60006200086d8262000a32565b91506200087a8362000a3c565b9250620008a97fffffffffffffffffffffffffffffffffffffffffffffffffffffffffffffffff8484620008b1565b905092915050565b600082620008c3576001905062000996565b81620008d3576000905062000996565b8160018114620008ec5760028114620008f7576200092d565b600191505062000996565b60ff8411156200090c576200090b62000a49565b5b8360020a91508482111562000926576200092562000a49565b5b5062000996565b5060208310610133831016604e8410600b8410161715620009675782820a90508381111562000961576200096062000a49565b5b62000996565b62000976848484600162000805565b9250905081840481111562000990576200098f62000a49565b5b81810290505b9392505050565b6000620009aa8262000a32565b9150620009b78362000a32565b9250817fffffffffffffffffffffffffffffffffffffffffffffffffffffffffffffffff0483118215151615620009f357620009f262000a49565b5b828202905092915050565b600062000a0b8262000a12565b9050919050565b600073ffffffffffffffffffffffffffffffffffffffff82169050919050565b6000819050919050565b600060ff82169050919050565b7f4e487b7100000000000000000000000000000000000000000000000000000000600052601160045260246000fd5b7f4e487b7100000000000000000000000000000000000000000000000000000000600052601260045260246000fd5b60008160011c9050919050565b62000abf81620009fe565b811462000acb57600080fd5b50565b6130208062000ade6000396000f3fe6080604052600436106102335760003560e01c80636ddd17131161012e578063bf56b371116100ab578063f0b37c041161006f578063f0b37c0414610863578063f2fde38b1461088c578063f887ea40146108b5578063f8bc7e2f146108e0578063fe9fbb801461090b5761023a565b8063bf56b3711461077e578063c2b7bbb6146107a9578063ca33e64c146107d2578063dd62ed3e146107fd578063e01af92c1461083a5761023a565b8063a9059cbb116100f2578063a9059cbb14610687578063b08b9b46146106c4578063b57e3682146106ef578063b6a5d7de14610718578063b91ac788146107415761023a565b80636ddd17131461059e57806370a08231146105c95780637d1db4a514610606578063893d20e81461063157806395d89b411461065c5761023a565b80632f54bf6e116101bc57806342966c681161018057806342966c68146104a55780634e9a9695146104e2578063571ac8b01461050d578063658d4b7f1461054a5780636c0a24eb146105735761023a565b80632f54bf6e146103bc57806330a3ff40146103f9578063313ce56714610424578063336237941461044f578063404485911461047a5761023a565b8063095ea7b311610203578063095ea7b3146102d557806318160ddd146103125780631bed98fd1461033d5780631fbe19791461036857806323b872dd1461037f5761023a565b806293dc141461023f5780630445b6671461025657806304a66b481461028157806306fdde03146102aa5761023a565b3661023a57005b600080fd5b34801561024b57600080fd5b50610254610948565b005b34801561026257600080fd5b5061026b6109ff565b6040516102789190612bad565b60405180910390f35b34801561028d57600080fd5b506102a860048036038101906102a391906126f5565b610a05565b005b3480156102b657600080fd5b506102bf610aee565b6040516102cc9190612acb565b60405180910390f35b3480156102e157600080fd5b506102fc60048036038101906102f79190612667565b610b2b565b6040516103099190612a95565b60405180910390f35b34801561031e57600080fd5b50610327610c1d565b6040516103349190612bad565b60405180910390f35b34801561034957600080fd5b50610352610c27565b60405161035f9190612bad565b60405180910390f35b34801561037457600080fd5b5061037d610c2d565b005b34801561038b57600080fd5b506103a660048036038101906103a191906125dc565b610cad565b6040516103b39190612a95565b60405180910390f35b3480156103c857600080fd5b506103e360048036038101906103de9190612525565b610eb9565b6040516103f09190612a95565b60405180910390f35b34801561040557600080fd5b5061040e610f12565b60405161041b9190612a5f565b60405180910390f35b34801561043057600080fd5b50610439610f38565b6040516104469190612c4b565b60405180910390f35b34801561045b57600080fd5b50610464610f41565b6040516104719190612a5f565b60405180910390f35b34801561048657600080fd5b5061048f610f67565b60405161049c9190612a95565b60405180910390f35b3480156104b157600080fd5b506104cc60048036038101906104c791906126cc565b610f7a565b6040516104d99190612a95565b60405180910390f35b3480156104ee57600080fd5b506104f761108d565b6040516105049190612a95565b60405180910390f35b34801561051957600080fd5b50610534600480360381019061052f9190612525565b6110a0565b6040516105419190612a95565b60405180910390f35b34801561055657600080fd5b50610571600480360381019061056c919061262b565b6110d3565b005b34801561057f57600080fd5b50610588611176565b6040516105959190612bad565b60405180910390f35b3480156105aa57600080fd5b506105b361117c565b6040516105c09190612a95565b60405180910390f35b3480156105d557600080fd5b506105f060048036038101906105eb9190612525565b61118f565b6040516105fd9190612bad565b60405180910390f35b34801561061257600080fd5b5061061b6111d8565b6040516106289190612bad565b60405180910390f35b34801561063d57600080fd5b506106466111de565b6040516106539190612a5f565b60405180910390f35b34801561066857600080fd5b50610671611207565b60405161067e9190612acb565b60405180910390f35b34801561069357600080fd5b506106ae60048036038101906106a99190612667565b611244565b6040516106bb9190612a95565b60405180910390f35b3480156106d057600080fd5b506106d9611259565b6040516106e69190612a95565b60405180910390f35b3480156106fb57600080fd5b5061071660048036038101906107119190612525565b61126c565b005b34801561072457600080fd5b5061073f600480360381019061073a9190612525565b6112f8565b005b34801561074d57600080fd5b50610768600480360381019061076391906126cc565b61139a565b6040516107759190612a5f565b60405180910390f35b34801561078a57600080fd5b506107936113d9565b6040516107a09190612bad565b60405180910390f35b3480156107b557600080fd5b506107d060048036038101906107cb9190612525565b6113df565b005b3480156107de57600080fd5b506107e761148d565b6040516107f49190612a5f565b60405180910390f35b34801561080957600080fd5b50610824600480360381019061081f91906125a0565b6114b3565b6040516108319190612bad565b60405180910390f35b34801561084657600080fd5b50610861600480360381019061085c91906126a3565b61153a565b005b34801561086f57600080fd5b5061088a60048036038101906108859190612525565b6115d6565b005b34801561089857600080fd5b506108b360048036038101906108ae9190612577565b611679565b005b3480156108c157600080fd5b506108ca611792565b6040516108d79190612ab0565b60405180910390f35b3480156108ec57600080fd5b506108f56117b8565b6040516109029190612bad565b60405180910390f35b34801561091757600080fd5b50610932600480360381019061092d9190612525565b6117be565b60405161093f9190612a95565b60405180910390f35b610951336117be565b610990576040517f08c379a000000000000000000000000000000000000000000000000000000000815260040161098790612b8d565b60405180910390fd5b60168054806109c8577f4e487b7100000000000000000000000000000000000000000000000000000000600052603160045260246000fd5b6001900381819060005260206000200160006101000a81549073ffffffffffffffffffffffffffffffffffffffff02191690559055565b60185481565b610a0e336117be565b610a4d576040517f08c379a0000000000000000000000000000000000000000000000000000000008152600401610a4490612b8d565b60405180910390fd5b8460098190555083600a8190555082600b8190555081600c8190555080600d81905550600082848688610a809190612cbb565b610a8a9190612cbb565b610a949190612cbb565b90506005600d54610aa59190612d11565b8110610ae6576040517f08c379a0000000000000000000000000000000000000000000000000000000008152600401610add90612b6d565b60405180910390fd5b505050505050565b60606040518060400160405280600e81526020017f486962696b692e66696e616e6365000000000000000000000000000000000000815250905090565b600081600660003373ffffffffffffffffffffffffffffffffffffffff1673ffffffffffffffffffffffffffffffffffffffff16815260200190815260200160002060008573ffffffffffffffffffffffffffffffffffffffff1673ffffffffffffffffffffffffffffffffffffffff168152602001908152602001600020819055508273ffffffffffffffffffffffffffffffffffffffff163373ffffffffffffffffffffffffffffffffffffffff167f8c5be1e5ebec7d5bd14f71427d1e84f3dd0314c0f7b2291e5b200ac8c7c3b92584604051610c0b9190612bad565b60405180910390a36001905092915050565b6000600254905090565b60115481565b60008054906101000a900473ffffffffffffffffffffffffffffffffffffffff1673ffffffffffffffffffffffffffffffffffffffff166108fc3073ffffffffffffffffffffffffffffffffffffffff16319081150290604051600060405180830381858888f19350505050158015610caa573d6000803e3d6000fd5b50565b60007fffffffffffffffffffffffffffffffffffffffffffffffffffffffffffffffff600660008673ffffffffffffffffffffffffffffffffffffffff1673ffffffffffffffffffffffffffffffffffffffff16815260200190815260200160002060003373ffffffffffffffffffffffffffffffffffffffff1673ffffffffffffffffffffffffffffffffffffffff1681526020019081526020016000205414610ea55781600660008673ffffffffffffffffffffffffffffffffffffffff1673ffffffffffffffffffffffffffffffffffffffff16815260200190815260200160002060003373ffffffffffffffffffffffffffffffffffffffff1673ffffffffffffffffffffffffffffffffffffffff168152602001908152602001600020541015610e11576040517f08c379a0000000000000000000000000000000000000000000000000000000008152600401610e0890612aed565b60405180910390fd5b81600660008673ffffffffffffffffffffffffffffffffffffffff1673ffffffffffffffffffffffffffffffffffffffff16815260200190815260200160002060003373ffffffffffffffffffffffffffffffffffffffff1673ffffffffffffffffffffffffffffffffffffffff1681526020019081526020016000206000828254610e9d9190612d9c565b925050819055505b610eb0848484611814565b90509392505050565b60008060009054906101000a900473ffffffffffffffffffffffffffffffffffffffff1673ffffffffffffffffffffffffffffffffffffffff168273ffffffffffffffffffffffffffffffffffffffff16149050919050565b601260019054906101000a900473ffffffffffffffffffffffffffffffffffffffff1681565b60006012905090565b601060019054906101000a900473ffffffffffffffffffffffffffffffffffffffff1681565b601260009054906101000a900460ff1681565b600081600560003373ffffffffffffffffffffffffffffffffffffffff1673ffffffffffffffffffffffffffffffffffffffff16815260200190815260200160002054610fc79190612d9c565b600560003373ffffffffffffffffffffffffffffffffffffffff1673ffffffffffffffffffffffffffffffffffffffff16815260200190815260200160002081905550816002546110189190612d9c565b600281905550600073ffffffffffffffffffffffffffffffffffffffff163373ffffffffffffffffffffffffffffffffffffffff167fddf252ad1be2c89b69c2b068fc378daa952ba7f163c4a11628f55a4df523b3ef8460405161107c9190612bad565b60405180910390a360019050919050565b601060009054906101000a900460ff1681565b60006110cc827fffffffffffffffffffffffffffffffffffffffffffffffffffffffffffffffff610b2b565b9050919050565b6110dc336117be565b61111b576040517f08c379a000000000000000000000000000000000000000000000000000000000815260040161111290612b8d565b60405180910390fd5b80600760008473ffffffffffffffffffffffffffffffffffffffff1673ffffffffffffffffffffffffffffffffffffffff16815260200190815260200160002060006101000a81548160ff0219169083151502179055505050565b60045481565b601760009054906101000a900460ff1681565b6000600560008373ffffffffffffffffffffffffffffffffffffffff1673ffffffffffffffffffffffffffffffffffffffff168152602001908152602001600020549050919050565b60035481565b60008060009054906101000a900473ffffffffffffffffffffffffffffffffffffffff16905090565b60606040518060400160405280600681526020017f484942494b490000000000000000000000000000000000000000000000000000815250905090565b6000611251338484611814565b905092915050565b600e60009054906101000a900460ff1681565b611275336117be565b6112b4576040517f08c379a00000000000000000000000000000000000000000000000000000000081526004016112ab90612b8d565b60405180910390fd5b80601360006101000a81548173ffffffffffffffffffffffffffffffffffffffff021916908373ffffffffffffffffffffffffffffffffffffffff16021790555050565b61130133610eb9565b611340576040517f08c379a000000000000000000000000000000000000000000000000000000000815260040161133790612b4d565b60405180910390fd5b60018060008373ffffffffffffffffffffffffffffffffffffffff1673ffffffffffffffffffffffffffffffffffffffff16815260200190815260200160002060006101000a81548160ff02191690831515021790555050565b601681815481106113aa57600080fd5b906000526020600020016000915054906101000a900473ffffffffffffffffffffffffffffffffffffffff1681565b601a5481565b6113e8336117be565b611427576040517f08c379a000000000000000000000000000000000000000000000000000000000815260040161141e90612b8d565b60405180910390fd5b6016819080600181540180825580915050600190039060005260206000200160009091909190916101000a81548173ffffffffffffffffffffffffffffffffffffffff021916908373ffffffffffffffffffffffffffffffffffffffff16021790555050565b601360009054906101000a900473ffffffffffffffffffffffffffffffffffffffff1681565b6000600660008473ffffffffffffffffffffffffffffffffffffffff1673ffffffffffffffffffffffffffffffffffffffff16815260200190815260200160002060008373ffffffffffffffffffffffffffffffffffffffff1673ffffffffffffffffffffffffffffffffffffffff16815260200190815260200160002054905092915050565b611543336117be565b611582576040517f08c379a000000000000000000000000000000000000000000000000000000000815260040161157990612b8d565b60405180910390fd5b80601760006101000a81548160ff0219169083151502179055507fdea63b4248e33990c8e14391c5e9e66041e4e9953b1d7d1c75871eb7779bbb79816040516115cb9190612a95565b60405180910390a150565b6115df33610eb9565b61161e576040517f08c379a000000000000000000000000000000000000000000000000000000000815260040161161590612b4d565b60405180910390fd5b6000600160008373ffffffffffffffffffffffffffffffffffffffff1673ffffffffffffffffffffffffffffffffffffffff16815260200190815260200160002060006101000a81548160ff02191690831515021790555050565b61168233610eb9565b6116c1576040517f08c379a00000000000000000000000000000000000000000000000000000000081526004016116b890612b4d565b60405180910390fd5b806000806101000a81548173ffffffffffffffffffffffffffffffffffffffff021916908373ffffffffffffffffffffffffffffffffffffffff16021790555060018060008373ffffffffffffffffffffffffffffffffffffffff1673ffffffffffffffffffffffffffffffffffffffff16815260200190815260200160002060006101000a81548160ff0219169083151502179055507f04dba622d284ed0014ee4b9a6a68386be1a4c08a4913ae272de89199cc686163816040516117879190612a7a565b60405180910390a150565b601460009054906101000a900473ffffffffffffffffffffffffffffffffffffffff1681565b600f5481565b6000600160008373ffffffffffffffffffffffffffffffffffffffff1673ffffffffffffffffffffffffffffffffffffffff16815260200190815260200160002060009054906101000a900460ff169050919050565b600080821161182257600080fd5b601960009054906101000a900460ff161561184957611842848484611b6c565b9050611b65565b611851611d0c565b1561185f5761185e611df3565b5b61186761211a565b1580156118c15750601560009054906101000a900473ffffffffffffffffffffffffffffffffffffffff1673ffffffffffffffffffffffffffffffffffffffff168373ffffffffffffffffffffffffffffffffffffffff16145b156119a9576000600560008673ffffffffffffffffffffffffffffffffffffffff1673ffffffffffffffffffffffffffffffffffffffff168152602001908152602001600020541161191257600080fd5b60008054906101000a900473ffffffffffffffffffffffffffffffffffffffff1673ffffffffffffffffffffffffffffffffffffffff168473ffffffffffffffffffffffffffffffffffffffff16146119a0576040517f08c379a000000000000000000000000000000000000000000000000000000000815260040161199790612b0d565b60405180910390fd5b6119a8612127565b5b600560008573ffffffffffffffffffffffffffffffffffffffff1673ffffffffffffffffffffffffffffffffffffffff16815260200190815260200160002054821115611a2b576040517f08c379a0000000000000000000000000000000000000000000000000000000008152600401611a2290612b2d565b60405180910390fd5b81600560008673ffffffffffffffffffffffffffffffffffffffff1673ffffffffffffffffffffffffffffffffffffffff1681526020019081526020016000206000828254611a7a9190612d9c565b925050819055506000611a8d8585612130565b611a975782611aa2565b611aa185846123ab565b5b905080600560008673ffffffffffffffffffffffffffffffffffffffff1673ffffffffffffffffffffffffffffffffffffffff1681526020019081526020016000206000828254611af39190612cbb565b925050819055508373ffffffffffffffffffffffffffffffffffffffff168573ffffffffffffffffffffffffffffffffffffffff167fddf252ad1be2c89b69c2b068fc378daa952ba7f163c4a11628f55a4df523b3ef83604051611b579190612bad565b60405180910390a360019150505b9392505050565b6000600560008573ffffffffffffffffffffffffffffffffffffffff1673ffffffffffffffffffffffffffffffffffffffff16815260200190815260200160002054821115611bf0576040517f08c379a0000000000000000000000000000000000000000000000000000000008152600401611be790612b2d565b60405180910390fd5b81600560008673ffffffffffffffffffffffffffffffffffffffff1673ffffffffffffffffffffffffffffffffffffffff1681526020019081526020016000206000828254611c3f9190612d9c565b9250508190555081600560008573ffffffffffffffffffffffffffffffffffffffff1673ffffffffffffffffffffffffffffffffffffffff1681526020019081526020016000206000828254611c959190612cbb565b925050819055508273ffffffffffffffffffffffffffffffffffffffff168473ffffffffffffffffffffffffffffffffffffffff167fddf252ad1be2c89b69c2b068fc378daa952ba7f163c4a11628f55a4df523b3ef84604051611cf99190612bad565b60405180910390a3600190509392505050565b6000611d1661211a565b8015611d705750601560009054906101000a900473ffffffffffffffffffffffffffffffffffffffff1673ffffffffffffffffffffffffffffffffffffffff163373ffffffffffffffffffffffffffffffffffffffff1614155b8015611d895750601960009054906101000a900460ff16155b8015611da15750601760009054906101000a900460ff165b8015611dee5750601854600560003073ffffffffffffffffffffffffffffffffffffffff1673ffffffffffffffffffffffffffffffffffffffff1681526020019081526020016000205410155b905090565b6001601960006101000a81548160ff02191690831515021790555060006002611e1b3061118f565b611e259190612d11565b90506000600267ffffffffffffffff811115611e6a577f4e487b7100000000000000000000000000000000000000000000000000000000600052604160045260246000fd5b604051908082528060200260200182016040528015611e985781602001602082028036833780820191505090505b5090503081600081518110611ed6577f4e487b7100000000000000000000000000000000000000000000000000000000600052603260045260246000fd5b602002602001019073ffffffffffffffffffffffffffffffffffffffff16908173ffffffffffffffffffffffffffffffffffffffff1681525050601460009054906101000a900473ffffffffffffffffffffffffffffffffffffffff1673ffffffffffffffffffffffffffffffffffffffff1663ad5c46486040518163ffffffff1660e01b815260040160206040518083038186803b158015611f7857600080fd5b505afa158015611f8c573d6000803e3d6000fd5b505050506040513d601f19601f82011682018060405250810190611fb0919061254e565b81600181518110611fea577f4e487b7100000000000000000000000000000000000000000000000000000000600052603260045260246000fd5b602002602001019073ffffffffffffffffffffffffffffffffffffffff16908173ffffffffffffffffffffffffffffffffffffffff1681525050601460009054906101000a900473ffffffffffffffffffffffffffffffffffffffff1673ffffffffffffffffffffffffffffffffffffffff1663791ac9478360008430426040518663ffffffff1660e01b8152600401612088959493929190612bc8565b600060405180830381600087803b1580156120a257600080fd5b505af11580156120b6573d6000803e3d6000fd5b505050507f424db2872186fa7e7afa7a5e902ed3b49a2ef19c2f5431e672462495dd6b45066120e43061118f565b836040516120f3929190612c22565b60405180910390a150506000601960006101000a81548160ff021916908315150217905550565b600080601a541415905090565b43601a81905550565b6000600760008473ffffffffffffffffffffffffffffffffffffffff1673ffffffffffffffffffffffffffffffffffffffff16815260200190815260200160002060009054906101000a900460ff16806121d35750600760008373ffffffffffffffffffffffffffffffffffffffff1673ffffffffffffffffffffffffffffffffffffffff16815260200190815260200160002060009054906101000a900460ff165b806121e357506121e161211a565b155b156121f157600090506123a5565b6000601680548060200260200160405190810160405280929190818152602001828054801561227557602002820191906000526020600020905b8160009054906101000a900473ffffffffffffffffffffffffffffffffffffffff1673ffffffffffffffffffffffffffffffffffffffff168152602001906001019080831161222b575b5050505050905060005b8151811015612390578181815181106122c1577f4e487b7100000000000000000000000000000000000000000000000000000000600052603260045260246000fd5b602002602001015173ffffffffffffffffffffffffffffffffffffffff168573ffffffffffffffffffffffffffffffffffffffff16148061236d5750818181518110612336577f4e487b7100000000000000000000000000000000000000000000000000000000600052603260045260246000fd5b602002602001015173ffffffffffffffffffffffffffffffffffffffff168473ffffffffffffffffffffffffffffffffffffffff16145b1561237d576001925050506123a5565b808061238890612ed6565b91505061227f565b50600e60009054906101000a900460ff169150505b92915050565b60006123b561211a565b6123c1578190506124b6565b60008060095411156124a657600d54600954846123de9190612d42565b6123e89190612d11565b905080600560003073ffffffffffffffffffffffffffffffffffffffff1673ffffffffffffffffffffffffffffffffffffffff16815260200190815260200160002060008282546124399190612cbb565b925050819055503073ffffffffffffffffffffffffffffffffffffffff168473ffffffffffffffffffffffffffffffffffffffff167fddf252ad1be2c89b69c2b068fc378daa952ba7f163c4a11628f55a4df523b3ef8360405161249d9190612bad565b60405180910390a35b80836124b29190612d9c565b9150505b92915050565b6000813590506124cb81612f8e565b92915050565b6000815190506124e081612f8e565b92915050565b6000813590506124f581612fa5565b92915050565b60008135905061250a81612fbc565b92915050565b60008135905061251f81612fd3565b92915050565b60006020828403121561253757600080fd5b6000612545848285016124bc565b91505092915050565b60006020828403121561256057600080fd5b600061256e848285016124d1565b91505092915050565b60006020828403121561258957600080fd5b6000612597848285016124e6565b91505092915050565b600080604083850312156125b357600080fd5b60006125c1858286016124bc565b92505060206125d2858286016124bc565b9150509250929050565b6000806000606084860312156125f157600080fd5b60006125ff868287016124bc565b9350506020612610868287016124bc565b925050604061262186828701612510565b9150509250925092565b6000806040838503121561263e57600080fd5b600061264c858286016124bc565b925050602061265d858286016124fb565b9150509250929050565b6000806040838503121561267a57600080fd5b6000612688858286016124bc565b925050602061269985828601612510565b9150509250929050565b6000602082840312156126b557600080fd5b60006126c3848285016124fb565b91505092915050565b6000602082840312156126de57600080fd5b60006126ec84828501612510565b91505092915050565b600080600080600060a0868803121561270d57600080fd5b600061271b88828901612510565b955050602061272c88828901612510565b945050604061273d88828901612510565b935050606061274e88828901612510565b925050608061275f88828901612510565b9150509295509295909350565b60006127788383612793565b60208301905092915050565b61278d81612e37565b82525050565b61279c81612dd0565b82525050565b6127ab81612dd0565b82525050565b60006127bc82612c76565b6127c68185612c99565b93506127d183612c66565b8060005b838110156128025781516127e9888261276c565b97506127f483612c8c565b9250506001810190506127d5565b5085935050505092915050565b61281881612df4565b82525050565b61282781612e49565b82525050565b61283681612e6d565b82525050565b600061284782612c81565b6128518185612caa565b9350612861818560208601612ea3565b61286a81612f7d565b840191505092915050565b6000612882601683612caa565b91507f496e73756666696369656e7420416c6c6f77616e6365000000000000000000006000830152602082019050919050565b60006128c2603183612caa565b91507f4f6e6c7920746865206f776e65722063616e206265207468652066697273742060008301527f746f20616464206c69717569646974792e0000000000000000000000000000006020830152604082019050919050565b6000612928601483612caa565b91507f496e73756666696369656e742042616c616e63650000000000000000000000006000830152602082019050919050565b6000612968600683612caa565b91507f214f574e455200000000000000000000000000000000000000000000000000006000830152602082019050919050565b60006129a8603183612caa565b91507f4d6178696d756d20616c6c6f776564207461786174696f6e206f6e207468697360008301527f20636f6e7472616374206973203230252e0000000000000000000000000000006020830152604082019050919050565b6000612a0e600b83612caa565b91507f21415554484f52495a45440000000000000000000000000000000000000000006000830152602082019050919050565b612a4a81612e20565b82525050565b612a5981612e2a565b82525050565b6000602082019050612a7460008301846127a2565b92915050565b6000602082019050612a8f6000830184612784565b92915050565b6000602082019050612aaa600083018461280f565b92915050565b6000602082019050612ac5600083018461281e565b92915050565b60006020820190508181036000830152612ae5818461283c565b905092915050565b60006020820190508181036000830152612b0681612875565b9050919050565b60006020820190508181036000830152612b26816128b5565b9050919050565b60006020820190508181036000830152612b468161291b565b9050919050565b60006020820190508181036000830152612b668161295b565b9050919050565b60006020820190508181036000830152612b868161299b565b9050919050565b60006020820190508181036000830152612ba681612a01565b9050919050565b6000602082019050612bc26000830184612a41565b92915050565b600060a082019050612bdd6000830188612a41565b612bea602083018761282d565b8181036040830152612bfc81866127b1565b9050612c0b60608301856127a2565b612c186080830184612a41565b9695505050505050565b6000604082019050612c376000830185612a41565b612c446020830184612a41565b9392505050565b6000602082019050612c606000830184612a50565b92915050565b6000819050602082019050919050565b600081519050919050565b600081519050919050565b6000602082019050919050565b600082825260208201905092915050565b600082825260208201905092915050565b6000612cc682612e20565b9150612cd183612e20565b9250827fffffffffffffffffffffffffffffffffffffffffffffffffffffffffffffffff03821115612d0657612d05612f1f565b5b828201905092915050565b6000612d1c82612e20565b9150612d2783612e20565b925082612d3757612d36612f4e565b5b828204905092915050565b6000612d4d82612e20565b9150612d5883612e20565b9250817fffffffffffffffffffffffffffffffffffffffffffffffffffffffffffffffff0483118215151615612d9157612d90612f1f565b5b828202905092915050565b6000612da782612e20565b9150612db283612e20565b925082821015612dc557612dc4612f1f565b5b828203905092915050565b6000612ddb82612e00565b9050919050565b6000612ded82612e00565b9050919050565b60008115159050919050565b600073ffffffffffffffffffffffffffffffffffffffff82169050919050565b6000819050919050565b600060ff82169050919050565b6000612e4282612e7f565b9050919050565b6000612e5482612e5b565b9050919050565b6000612e6682612e00565b9050919050565b6000612e7882612e20565b9050919050565b6000612e8a82612e91565b9050919050565b6000612e9c82612e00565b9050919050565b60005b83811015612ec1578082015181840152602081019050612ea6565b83811115612ed0576000848401525b50505050565b6000612ee182612e20565b91507fffffffffffffffffffffffffffffffffffffffffffffffffffffffffffffffff821415612f1457612f13612f1f565b5b600182019050919050565b7f4e487b7100000000000000000000000000000000000000000000000000000000600052601160045260246000fd5b7f4e487b7100000000000000000000000000000000000000000000000000000000600052601260045260246000fd5b6000601f19601f8301169050919050565b612f9781612dd0565b8114612fa257600080fd5b50565b612fae81612de2565b8114612fb957600080fd5b50565b612fc581612df4565b8114612fd057600080fd5b50565b612fdc81612e20565b8114612fe757600080fd5b5056fea26469706673582212208e9d2f59811829f1919936bdaa5dbfe28cee663bfc28bf948de7516648a557fb64736f6c63430008000033",
  "immutableReferences": {},
  "source": "// SPDX-License-Identifier: MIT\npragma solidity >=0.8.0 <0.9.0;\n\nimport \"./Auth.sol\";\nimport \"./IBEP20.sol\";\nimport \"./IDexRouter.sol\";\nimport \"./IDexFactory.sol\";\n\ncontract Hibiki is IBEP20, Auth {\n\n\tstring constant _name = \"Hibiki.finance\";\n  string constant _symbol = \"HIBIKI\";\n  uint8 constant _decimals = 18;\n\n  uint256 _totalSupply = 10_000_000 * (10 ** _decimals);\n  uint256 public _maxTxAmount = _totalSupply / 100;\n\tuint256 public _maxWalletAmount = _totalSupply / 100;\n\n\tmapping (address => uint256) _balances;\n  mapping (address => mapping (address => uint256)) _allowances;\n  mapping (address => bool) isFeeExempt;\n  mapping (address => bool) isTxLimitExempt;\n\n  // Fees. Some may be completely inactive at all times.\n  uint256 liquidityFee = 30;\n  uint256 burnFee = 0;\n  uint256 stakingFee = 20;\n  uint256 nftStakingFee = 0;\n  uint256 feeDenominator = 1000;\n  bool public feeOnNonTrade = false;\n\n  uint256 public stakingPrizePool = 0;\n  bool public stakingRewardsActive = false;\n  address public stakingRewardsContract;\n  uint256 public nftStakingPrizePool = 0;\n  bool public nftStakingRewardsActive = false;\n  address public nftStakingRewardsContract;\n\n  address public autoLiquidityReceiver;\n\n  IDexRouter public router;\n  address pcs2BNBPair;\n  address[] public pairs;\n\n  bool public swapEnabled = true;\n  uint256 public swapThreshold = 20000000000000000000; // < 500\n  bool inSwap;\n  modifier swapping() {\n    inSwap = true;\n    _;\n    inSwap = false;\n  }\n\n    uint256 public launchedAt = 0;\n    uint256 private antiSniperBlocks = 3;\n    uint256 private antiSniperGasLimit = 30 gwei;\n    bool private gasLimitActive = true;\n\n    event AutoLiquifyEnabled(bool enabledOrNot);\n    event AutoLiquify(uint256 amountBNB, uint256 autoBuybackAmount);\n    event StakingRewards(bool activate);\n    event NFTStakingRewards(bool active);\n\n\tconstructor() Auth(msg.sender) {\n\t\trouter = IDexRouter(0x3380aE82e39E42Ca34EbEd69aF67fAa0683Bb5c1);\n    pcs2BNBPair = IDexFactory(router.factory()).createPair(router.WETH(), address(this));\n    _allowances[address(this)][address(router)] = type(uint256).max;\n\n    isFeeExempt[msg.sender] = true;\n    isFeeExempt[address(this)] = true;\n\n\t\tautoLiquidityReceiver = msg.sender;\n\t\tpairs.push(pcs2BNBPair);\n\t\t_balances[msg.sender] = _totalSupply;\n\n\t\temit Transfer(address(0), msg.sender, _totalSupply);\n\t}\n\n\treceive() external payable {}\n\n  function totalSupply() external view override returns (uint256) { return _totalSupply; }\n  function decimals() external pure override returns (uint8) { return _decimals; }\n  function symbol() external pure override returns (string memory) { return _symbol; }\n  function name() external pure override returns (string memory) { return _name; }\n  function getOwner() external view override returns (address) { return owner; }\n  function balanceOf(address account) public view override returns (uint256) { return _balances[account]; }\n  function burn(uint256 burnQuantity) public override returns (bool) {\n      _balances[msg.sender] = _balances[msg.sender] - burnQuantity;\n      _totalSupply = _totalSupply - burnQuantity;\n      emit Transfer(msg.sender, address(0), burnQuantity);\n      return true;\n  }\n  function allowance(address holder, address spender) external view override returns (uint256) { return _allowances[holder][spender]; }\n  function approve(address spender, uint256 amount) public override returns (bool) {\n      _allowances[msg.sender][spender] = amount;\n      emit Approval(msg.sender, spender, amount);\n      return true;\n  }\n  function approveMax(address spender) external returns (bool) { return approve(spender, type(uint256).max); }\n\n\n  function transfer(address recipient, uint256 amount) external override returns (bool) { return _transferFrom(msg.sender, recipient, amount); }\n\n\tfunction transferFrom(address sender, address recipient, uint256 amount) external override returns (bool) {\n    if (_allowances[sender][msg.sender] != type(uint256).max) {\n      require(_allowances[sender][msg.sender] >= amount, \"Insufficient Allowance\");\n      _allowances[sender][msg.sender] -= amount;\n    }\n\n    return _transferFrom(sender, recipient, amount);\n  }\n\n\tfunction _transferFrom(address sender, address recipient, uint256 amount) internal returns (bool) {\n\t\trequire(amount > 0);\n\n    if (inSwap) {\n        return _basicTransfer(sender, recipient, amount);\n    }\n\n    // checks whether there is enouth tokens on balance to liquify the pair\n    if (shouldSwapBack()) {\n        liquify();\n    }\n\n    // activates the liquidity on DEX\n    if (!launched() && recipient == pcs2BNBPair) {\n        require(_balances[sender] > 0);\n        require(sender == owner, \"Only the owner can be the first to add liquidity.\");\n        launch();\n    }\n\n\t\trequire(amount <= _balances[sender], \"Insufficient Balance\");\n    _balances[sender] -= amount;\n\n    // checks whether it needs to take a fee and takes it before transferring to the \n    uint256 amountReceived = shouldTakeFee(sender, recipient) ? takeFee(sender, amount) : amount;\n    _balances[recipient] += amountReceived;\n    \n    emit Transfer(sender, recipient, amountReceived);\n    return true;\n    }\n\n\tfunction _basicTransfer(address sender, address recipient, uint256 amount) internal returns (bool) {\n\t\trequire(amount <= _balances[sender], \"Insufficient Balance\");\n        _balances[sender] -= amount;\n        _balances[recipient] += amount;\n        emit Transfer(sender, recipient, amount);\n        return true;\n  }\n\n\t// Decides whether this trade should take a fee.\n\t// Trades with pairs are always taxed, unless sender or receiver is exempted.\n\t// Non trades, like wallet to wallet, are configured, untaxed by default.\n\tfunction shouldTakeFee(address sender, address recipient) internal view returns (bool) {\n        if (isFeeExempt[sender] || isFeeExempt[recipient] || !launched()) {\n\t\t\treturn false;\n\t\t}\n\n        address[] memory liqPairs = pairs;\n        for (uint256 i = 0; i < liqPairs.length; i++) {\n            if (sender == liqPairs[i] || recipient == liqPairs[i]) {\n\t\t\t\treturn true;\n\t\t\t}\n        }\n\n        return feeOnNonTrade;\n    }\n\n\tfunction takeFee(address sender, uint256 amount) internal returns (uint256) {\n\t\tif (!launched()) { return amount; }\n\n\t\tuint256 liqFee = 0;\n    \n    // If there is a liquidity tax active for autoliq, the contract keeps it.\n    if (liquidityFee > 0) {\n      liqFee = amount * liquidityFee / feeDenominator;\n      _balances[address(this)] += liqFee;\n      emit Transfer(sender, address(this), liqFee);\n    }\n\n    return amount - liqFee;\n  }\n\n  function shouldSwapBack() internal view returns (bool) {\n      return launched()\n    && msg.sender != pcs2BNBPair\n          && !inSwap\n          && swapEnabled\n          && _balances[address(this)] >= swapThreshold;\n  }\n\n\tfunction setSwapEnabled(bool set) external authorized {\n\t\tswapEnabled = set;\n\t\temit AutoLiquifyEnabled(set);\n\t}\n\n\tfunction liquify() internal swapping {\n    // 500\n    uint256 amountToLiquify = balanceOf(address(this)) / 2;  // 250\n\t\t// uint256 balanceBefore = address(this).balance; // X BNB == 0\n\n    address[] memory path = new address[](2);\n    path[0] = address(this);\n    path[1] = router.WETH();\n\n    router.swapExactTokensForETHSupportingFeeOnTransferTokens(\n        amountToLiquify,\n        0,\n        path,\n        address(this),\n        block.timestamp\n    );\n\n\t\temit AutoLiquify(balanceOf(address(this)), amountToLiquify);\n  }\n\n\tfunction launched() internal view returns (bool) {\n        return launchedAt != 0;\n    }\n\n    function launch() internal {\n        launchedAt = block.number;\n    }\n\n    function setIsFeeExempt(address holder, bool exempt) external authorized {\n        isFeeExempt[holder] = exempt;\n    }\n\n    function setFees(uint256 _liquidityFee, uint256 _burnFee, uint256 _stakingFee, uint256 _nftStakingFee, uint256 _feeDenominator) external authorized {\n      liquidityFee = _liquidityFee;\n      burnFee = _burnFee;\n      stakingFee = _stakingFee;\n      nftStakingFee = _nftStakingFee;\n      feeDenominator = _feeDenominator;\n      uint256 totalFee = _liquidityFee + _burnFee + _stakingFee + _nftStakingFee;\n      require(totalFee < feeDenominator / 5, \"Maximum allowed taxation on this contract is 20%.\");\n    }\n\n    function setLiquidityReceiver(address _autoLiquidityReceiver) external authorized {\n        autoLiquidityReceiver = _autoLiquidityReceiver;\n    }\n\n\t// Recover any BNB sent to the contract by mistake.\n\tfunction rescue() external {\n        payable(owner).transfer(address(this).balance);\n    }\n\n\tfunction addPair(address pair) external authorized {\n        pairs.push(pair);\n    }\n    \n    function removeLastPair() external authorized {\n        pairs.pop();\n    }\n}\n",
  "sourcePath": "/Users/viktor/Documents/Projects/solidity/hibiki/src/contracts/Hibiki.sol",
  "compiler": {
    "name": "solc",
    "version": "0.8.0+commit.c7dfd78e.Emscripten.clang"
  },
  "schemaVersion": "3.4.1",
  "updatedAt": "2021-10-03T18:09:03.374Z",
  "networkType": "ethereum",
  "devdoc": {
    "kind": "dev",
    "methods": {
      "approve(address,uint256)": {
        "details": "Sets `amount` as the allowance of `spender` over the caller's tokens. Returns a boolean value indicating whether the operation succeeded. IMPORTANT: Beware that changing an allowance with this method brings the risk that someone may use both the old and the new allowance by unfortunate transaction ordering. One possible solution to mitigate this race condition is to first reduce the spender's allowance to 0 and set the desired value afterwards: https://github.com/ethereum/EIPs/issues/20#issuecomment-263524729 Emits an {Approval} event."
      },
      "balanceOf(address)": {
        "details": "Returns the amount of tokens owned by `account`."
      },
      "decimals()": {
        "details": "Returns the token decimals."
      },
      "getOwner()": {
        "details": "Returns the bep token owner."
      },
      "name()": {
        "details": "Returns the token name."
      },
      "symbol()": {
        "details": "Returns the token symbol."
      },
      "totalSupply()": {
        "details": "Returns the amount of tokens in existence."
      },
      "transfer(address,uint256)": {
        "details": "Moves `amount` tokens from the caller's account to `recipient`. Returns a boolean value indicating whether the operation succeeded. Emits a {Transfer} event."
      },
      "transferFrom(address,address,uint256)": {
        "details": "Moves `amount` tokens from `sender` to `recipient` using the allowance mechanism. `amount` is then deducted from the caller's allowance. Returns a boolean value indicating whether the operation succeeded. Emits a {Transfer} event."
      }
    },
    "version": 1
  },
  "userdoc": {
    "kind": "user",
    "methods": {
      "authorize(address)": {
        "notice": "Authorize address. Owner only"
      },
      "isAuthorized(address)": {
        "notice": "Return address' authorization status"
      },
      "isOwner(address)": {
        "notice": "Check if address is owner"
      },
      "transferOwnership(address)": {
        "notice": "Transfer ownership to new address. Caller must be owner. Leaves old owner authorized"
      },
      "unauthorize(address)": {
        "notice": "Remove address' authorization. Owner only"
      }
    },
    "version": 1
  }
}