{
  "contractName": "Hibiki",
  "abi": [
    {
      "inputs": [],
      "stateMutability": "nonpayable",
      "type": "constructor"
    },
    {
      "anonymous": false,
      "inputs": [
        {
          "indexed": true,
          "internalType": "address",
          "name": "owner",
          "type": "address"
        },
        {
          "indexed": true,
          "internalType": "address",
          "name": "spender",
          "type": "address"
        },
        {
          "indexed": false,
          "internalType": "uint256",
          "name": "value",
          "type": "uint256"
        }
      ],
      "name": "Approval",
      "type": "event"
    },
    {
      "anonymous": false,
      "inputs": [
        {
          "indexed": false,
          "internalType": "uint256",
          "name": "amountBNB",
          "type": "uint256"
        },
        {
          "indexed": false,
          "internalType": "uint256",
          "name": "autoBuybackAmount",
          "type": "uint256"
        }
      ],
      "name": "AutoLiquify",
      "type": "event"
    },
    {
      "anonymous": false,
      "inputs": [
        {
          "indexed": false,
          "internalType": "bool",
          "name": "enabledOrNot",
          "type": "bool"
        }
      ],
      "name": "AutoLiquifyEnabled",
      "type": "event"
    },
    {
      "anonymous": false,
      "inputs": [
        {
          "indexed": false,
          "internalType": "bool",
          "name": "active",
          "type": "bool"
        }
      ],
      "name": "NFTStakingRewards",
      "type": "event"
    },
    {
      "anonymous": false,
      "inputs": [
        {
          "indexed": false,
          "internalType": "address",
          "name": "owner",
          "type": "address"
        }
      ],
      "name": "OwnershipTransferred",
      "type": "event"
    },
    {
      "anonymous": false,
      "inputs": [
        {
          "indexed": false,
          "internalType": "bool",
          "name": "activate",
          "type": "bool"
        }
      ],
      "name": "StakingRewards",
      "type": "event"
    },
    {
      "anonymous": false,
      "inputs": [
        {
          "indexed": true,
          "internalType": "address",
          "name": "from",
          "type": "address"
        },
        {
          "indexed": true,
          "internalType": "address",
          "name": "to",
          "type": "address"
        },
        {
          "indexed": false,
          "internalType": "uint256",
          "name": "value",
          "type": "uint256"
        }
      ],
      "name": "Transfer",
      "type": "event"
    },
    {
      "inputs": [],
      "name": "_maxTxAmount",
      "outputs": [
        {
          "internalType": "uint256",
          "name": "",
          "type": "uint256"
        }
      ],
      "stateMutability": "view",
      "type": "function",
      "constant": true
    },
    {
      "inputs": [],
      "name": "_maxWalletAmount",
      "outputs": [
        {
          "internalType": "uint256",
          "name": "",
          "type": "uint256"
        }
      ],
      "stateMutability": "view",
      "type": "function",
      "constant": true
    },
    {
      "inputs": [
        {
          "internalType": "address",
          "name": "adr",
          "type": "address"
        }
      ],
      "name": "authorize",
      "outputs": [],
      "stateMutability": "nonpayable",
      "type": "function"
    },
    {
      "inputs": [],
      "name": "autoLiquidityReceiver",
      "outputs": [
        {
          "internalType": "address",
          "name": "",
          "type": "address"
        }
      ],
      "stateMutability": "view",
      "type": "function",
      "constant": true
    },
    {
      "inputs": [],
      "name": "feeOnNonTrade",
      "outputs": [
        {
          "internalType": "bool",
          "name": "",
          "type": "bool"
        }
      ],
      "stateMutability": "view",
      "type": "function",
      "constant": true
    },
    {
      "inputs": [
        {
          "internalType": "address",
          "name": "adr",
          "type": "address"
        }
      ],
      "name": "isAuthorized",
      "outputs": [
        {
          "internalType": "bool",
          "name": "",
          "type": "bool"
        }
      ],
      "stateMutability": "view",
      "type": "function",
      "constant": true
    },
    {
      "inputs": [
        {
          "internalType": "address",
          "name": "account",
          "type": "address"
        }
      ],
      "name": "isOwner",
      "outputs": [
        {
          "internalType": "bool",
          "name": "",
          "type": "bool"
        }
      ],
      "stateMutability": "view",
      "type": "function",
      "constant": true
    },
    {
      "inputs": [],
      "name": "launchedAt",
      "outputs": [
        {
          "internalType": "uint256",
          "name": "",
          "type": "uint256"
        }
      ],
      "stateMutability": "view",
      "type": "function",
      "constant": true
    },
    {
      "inputs": [],
      "name": "nftStakingPrizePool",
      "outputs": [
        {
          "internalType": "uint256",
          "name": "",
          "type": "uint256"
        }
      ],
      "stateMutability": "view",
      "type": "function",
      "constant": true
    },
    {
      "inputs": [],
      "name": "nftStakingRewardsActive",
      "outputs": [
        {
          "internalType": "bool",
          "name": "",
          "type": "bool"
        }
      ],
      "stateMutability": "view",
      "type": "function",
      "constant": true
    },
    {
      "inputs": [],
      "name": "nftStakingRewardsContract",
      "outputs": [
        {
          "internalType": "address",
          "name": "",
          "type": "address"
        }
      ],
      "stateMutability": "view",
      "type": "function",
      "constant": true
    },
    {
      "inputs": [
        {
          "internalType": "uint256",
          "name": "",
          "type": "uint256"
        }
      ],
      "name": "pairs",
      "outputs": [
        {
          "internalType": "address",
          "name": "",
          "type": "address"
        }
      ],
      "stateMutability": "view",
      "type": "function",
      "constant": true
    },
    {
      "inputs": [],
      "name": "router",
      "outputs": [
        {
          "internalType": "contract IDexRouter",
          "name": "",
          "type": "address"
        }
      ],
      "stateMutability": "view",
      "type": "function",
      "constant": true
    },
    {
      "inputs": [],
      "name": "stakingPrizePool",
      "outputs": [
        {
          "internalType": "uint256",
          "name": "",
          "type": "uint256"
        }
      ],
      "stateMutability": "view",
      "type": "function",
      "constant": true
    },
    {
      "inputs": [],
      "name": "stakingRewardsActive",
      "outputs": [
        {
          "internalType": "bool",
          "name": "",
          "type": "bool"
        }
      ],
      "stateMutability": "view",
      "type": "function",
      "constant": true
    },
    {
      "inputs": [],
      "name": "stakingRewardsContract",
      "outputs": [
        {
          "internalType": "address",
          "name": "",
          "type": "address"
        }
      ],
      "stateMutability": "view",
      "type": "function",
      "constant": true
    },
    {
      "inputs": [],
      "name": "swapEnabled",
      "outputs": [
        {
          "internalType": "bool",
          "name": "",
          "type": "bool"
        }
      ],
      "stateMutability": "view",
      "type": "function",
      "constant": true
    },
    {
      "inputs": [],
      "name": "swapThreshold",
      "outputs": [
        {
          "internalType": "uint256",
          "name": "",
          "type": "uint256"
        }
      ],
      "stateMutability": "view",
      "type": "function",
      "constant": true
    },
    {
      "inputs": [
        {
          "internalType": "address payable",
          "name": "adr",
          "type": "address"
        }
      ],
      "name": "transferOwnership",
      "outputs": [],
      "stateMutability": "nonpayable",
      "type": "function"
    },
    {
      "inputs": [
        {
          "internalType": "address",
          "name": "adr",
          "type": "address"
        }
      ],
      "name": "unauthorize",
      "outputs": [],
      "stateMutability": "nonpayable",
      "type": "function"
    },
    {
      "stateMutability": "payable",
      "type": "receive",
      "payable": true
    },
    {
      "inputs": [],
      "name": "totalSupply",
      "outputs": [
        {
          "internalType": "uint256",
          "name": "",
          "type": "uint256"
        }
      ],
      "stateMutability": "view",
      "type": "function",
      "constant": true
    },
    {
      "inputs": [],
      "name": "decimals",
      "outputs": [
        {
          "internalType": "uint8",
          "name": "",
          "type": "uint8"
        }
      ],
      "stateMutability": "pure",
      "type": "function",
      "constant": true
    },
    {
      "inputs": [],
      "name": "symbol",
      "outputs": [
        {
          "internalType": "string",
          "name": "",
          "type": "string"
        }
      ],
      "stateMutability": "pure",
      "type": "function",
      "constant": true
    },
    {
      "inputs": [],
      "name": "name",
      "outputs": [
        {
          "internalType": "string",
          "name": "",
          "type": "string"
        }
      ],
      "stateMutability": "pure",
      "type": "function",
      "constant": true
    },
    {
      "inputs": [],
      "name": "getOwner",
      "outputs": [
        {
          "internalType": "address",
          "name": "",
          "type": "address"
        }
      ],
      "stateMutability": "view",
      "type": "function",
      "constant": true
    },
    {
      "inputs": [
        {
          "internalType": "address",
          "name": "account",
          "type": "address"
        }
      ],
      "name": "balanceOf",
      "outputs": [
        {
          "internalType": "uint256",
          "name": "",
          "type": "uint256"
        }
      ],
      "stateMutability": "view",
      "type": "function",
      "constant": true
    },
    {
      "inputs": [
        {
          "internalType": "uint256",
          "name": "burnQuantity",
          "type": "uint256"
        }
      ],
      "name": "burn",
      "outputs": [
        {
          "internalType": "bool",
          "name": "",
          "type": "bool"
        }
      ],
      "stateMutability": "nonpayable",
      "type": "function"
    },
    {
      "inputs": [
        {
          "internalType": "address",
          "name": "holder",
          "type": "address"
        },
        {
          "internalType": "address",
          "name": "spender",
          "type": "address"
        }
      ],
      "name": "allowance",
      "outputs": [
        {
          "internalType": "uint256",
          "name": "",
          "type": "uint256"
        }
      ],
      "stateMutability": "view",
      "type": "function",
      "constant": true
    },
    {
      "inputs": [
        {
          "internalType": "address",
          "name": "spender",
          "type": "address"
        },
        {
          "internalType": "uint256",
          "name": "amount",
          "type": "uint256"
        }
      ],
      "name": "approve",
      "outputs": [
        {
          "internalType": "bool",
          "name": "",
          "type": "bool"
        }
      ],
      "stateMutability": "nonpayable",
      "type": "function"
    },
    {
      "inputs": [
        {
          "internalType": "address",
          "name": "spender",
          "type": "address"
        }
      ],
      "name": "approveMax",
      "outputs": [
        {
          "internalType": "bool",
          "name": "",
          "type": "bool"
        }
      ],
      "stateMutability": "nonpayable",
      "type": "function"
    },
    {
      "inputs": [
        {
          "internalType": "address",
          "name": "recipient",
          "type": "address"
        },
        {
          "internalType": "uint256",
          "name": "amount",
          "type": "uint256"
        }
      ],
      "name": "transfer",
      "outputs": [
        {
          "internalType": "bool",
          "name": "",
          "type": "bool"
        }
      ],
      "stateMutability": "nonpayable",
      "type": "function"
    },
    {
      "inputs": [
        {
          "internalType": "address",
          "name": "sender",
          "type": "address"
        },
        {
          "internalType": "address",
          "name": "recipient",
          "type": "address"
        },
        {
          "internalType": "uint256",
          "name": "amount",
          "type": "uint256"
        }
      ],
      "name": "transferFrom",
      "outputs": [
        {
          "internalType": "bool",
          "name": "",
          "type": "bool"
        }
      ],
      "stateMutability": "nonpayable",
      "type": "function"
    },
    {
      "inputs": [
        {
          "internalType": "uint256",
          "name": "blocks",
          "type": "uint256"
        }
      ],
      "name": "setAntisniperBlocks",
      "outputs": [],
      "stateMutability": "nonpayable",
      "type": "function"
    },
    {
      "inputs": [
        {
          "internalType": "bool",
          "name": "active",
          "type": "bool"
        },
        {
          "internalType": "uint256",
          "name": "quantity",
          "type": "uint256"
        }
      ],
      "name": "setAntisniperGas",
      "outputs": [],
      "stateMutability": "nonpayable",
      "type": "function"
    },
    {
      "inputs": [
        {
          "internalType": "address",
          "name": "addy",
          "type": "address"
        }
      ],
      "name": "setStakingRewardsAddress",
      "outputs": [],
      "stateMutability": "nonpayable",
      "type": "function"
    },
    {
      "inputs": [
        {
          "internalType": "address",
          "name": "addy",
          "type": "address"
        }
      ],
      "name": "setNftStakingRewardsAddress",
      "outputs": [],
      "stateMutability": "nonpayable",
      "type": "function"
    },
    {
      "inputs": [
        {
          "internalType": "bool",
          "name": "set",
          "type": "bool"
        }
      ],
      "name": "setSwapEnabled",
      "outputs": [],
      "stateMutability": "nonpayable",
      "type": "function"
    },
    {
      "inputs": [
        {
          "internalType": "uint256",
          "name": "amount",
          "type": "uint256"
        }
      ],
      "name": "setTxLimit",
      "outputs": [],
      "stateMutability": "nonpayable",
      "type": "function"
    },
    {
      "inputs": [
        {
          "internalType": "uint256",
          "name": "amount",
          "type": "uint256"
        }
      ],
      "name": "setMaxWallet",
      "outputs": [],
      "stateMutability": "nonpayable",
      "type": "function"
    },
    {
      "inputs": [
        {
          "internalType": "address",
          "name": "holder",
          "type": "address"
        },
        {
          "internalType": "bool",
          "name": "exempt",
          "type": "bool"
        }
      ],
      "name": "setIsFeeExempt",
      "outputs": [],
      "stateMutability": "nonpayable",
      "type": "function"
    },
    {
      "inputs": [
        {
          "internalType": "address",
          "name": "holder",
          "type": "address"
        },
        {
          "internalType": "bool",
          "name": "exempt",
          "type": "bool"
        }
      ],
      "name": "setIsTxLimitExempt",
      "outputs": [],
      "stateMutability": "nonpayable",
      "type": "function"
    },
    {
      "inputs": [
        {
          "internalType": "uint256",
          "name": "_liquidityFee",
          "type": "uint256"
        },
        {
          "internalType": "uint256",
          "name": "_burnFee",
          "type": "uint256"
        },
        {
          "internalType": "uint256",
          "name": "_stakingFee",
          "type": "uint256"
        },
        {
          "internalType": "uint256",
          "name": "_nftStakingFee",
          "type": "uint256"
        },
        {
          "internalType": "uint256",
          "name": "_feeDenominator",
          "type": "uint256"
        }
      ],
      "name": "setFees",
      "outputs": [],
      "stateMutability": "nonpayable",
      "type": "function"
    },
    {
      "inputs": [
        {
          "internalType": "address",
          "name": "_autoLiquidityReceiver",
          "type": "address"
        }
      ],
      "name": "setLiquidityReceiver",
      "outputs": [],
      "stateMutability": "nonpayable",
      "type": "function"
    },
    {
      "inputs": [],
      "name": "getCirculatingSupply",
      "outputs": [
        {
          "internalType": "uint256",
          "name": "",
          "type": "uint256"
        }
      ],
      "stateMutability": "view",
      "type": "function",
      "constant": true
    },
    {
      "inputs": [],
      "name": "rescue",
      "outputs": [],
      "stateMutability": "nonpayable",
      "type": "function"
    },
    {
      "inputs": [
        {
          "internalType": "bool",
          "name": "active",
          "type": "bool"
        }
      ],
      "name": "setStakingRewardsActive",
      "outputs": [],
      "stateMutability": "nonpayable",
      "type": "function"
    },
    {
      "inputs": [
        {
          "internalType": "bool",
          "name": "active",
          "type": "bool"
        }
      ],
      "name": "setNftStakingRewardsActive",
      "outputs": [],
      "stateMutability": "nonpayable",
      "type": "function"
    },
    {
      "inputs": [
        {
          "internalType": "address",
          "name": "pair",
          "type": "address"
        }
      ],
      "name": "addPair",
      "outputs": [],
      "stateMutability": "nonpayable",
      "type": "function"
    },
    {
      "inputs": [],
      "name": "removeLastPair",
      "outputs": [],
      "stateMutability": "nonpayable",
      "type": "function"
    }
  ],
  "bytecode": "0x608060405261dead600260006101000a81548173ffffffffffffffffffffffffffffffffffffffff021916908373ffffffffffffffffffffffffffffffffffffffff1602179055506000600360006101000a81548173ffffffffffffffffffffffffffffffffffffffff021916908373ffffffffffffffffffffffffffffffffffffffff1602179055506012600a62000099919062000a89565b62989680620000a9919062000bc6565b6004556064600454620000bd9190620009f6565b6005556064600454620000d19190620009f6565b600655601e600b556000600c556014600d556000600e556103e8600f556000601060006101000a81548160ff02191690831515021790555060006011556000601260006101000a81548160ff02191690831515021790555060006013556000601460006101000a81548160ff0219169083151502179055506001601960006101000a81548160ff0219169083151502179055506801158e460913d00000601a556000601c556003601d556406fc23ac00601e556001601f60006101000a81548160ff021916908315150217905550348015620001ac57600080fd5b5033806000806101000a81548173ffffffffffffffffffffffffffffffffffffffff021916908373ffffffffffffffffffffffffffffffffffffffff16021790555060018060008373ffffffffffffffffffffffffffffffffffffffff1673ffffffffffffffffffffffffffffffffffffffff16815260200190815260200160002060006101000a81548160ff02191690831515021790555050733380ae82e39e42ca34ebed69af67faa0683bb5c1601660006101000a81548173ffffffffffffffffffffffffffffffffffffffff021916908373ffffffffffffffffffffffffffffffffffffffff160217905550601660009054906101000a900473ffffffffffffffffffffffffffffffffffffffff1673ffffffffffffffffffffffffffffffffffffffff1663c45a01556040518163ffffffff1660e01b815260040160206040518083038186803b1580156200030457600080fd5b505afa15801562000319573d6000803e3d6000fd5b505050506040513d601f19601f820116820180604052508101906200033f91906200095e565b73ffffffffffffffffffffffffffffffffffffffff1663c9c65396601660009054906101000a900473ffffffffffffffffffffffffffffffffffffffff1673ffffffffffffffffffffffffffffffffffffffff1663ad5c46486040518163ffffffff1660e01b815260040160206040518083038186803b158015620003c357600080fd5b505afa158015620003d8573d6000803e3d6000fd5b505050506040513d601f19601f82011682018060405250810190620003fe91906200095e565b306040518363ffffffff1660e01b81526004016200041e929190620009ac565b602060405180830381600087803b1580156200043957600080fd5b505af11580156200044e573d6000803e3d6000fd5b505050506040513d601f19601f820116820180604052508101906200047491906200095e565b601760006101000a81548173ffffffffffffffffffffffffffffffffffffffff021916908373ffffffffffffffffffffffffffffffffffffffff1602179055507fffffffffffffffffffffffffffffffffffffffffffffffffffffffffffffffff600860003073ffffffffffffffffffffffffffffffffffffffff1673ffffffffffffffffffffffffffffffffffffffff1681526020019081526020016000206000601660009054906101000a900473ffffffffffffffffffffffffffffffffffffffff1673ffffffffffffffffffffffffffffffffffffffff1673ffffffffffffffffffffffffffffffffffffffff168152602001908152602001600020819055506001600960003373ffffffffffffffffffffffffffffffffffffffff1673ffffffffffffffffffffffffffffffffffffffff16815260200190815260200160002060006101000a81548160ff0219169083151502179055506001600960003073ffffffffffffffffffffffffffffffffffffffff1673ffffffffffffffffffffffffffffffffffffffff16815260200190815260200160002060006101000a81548160ff0219169083151502179055506001600a60003373ffffffffffffffffffffffffffffffffffffffff1673ffffffffffffffffffffffffffffffffffffffff16815260200190815260200160002060006101000a81548160ff0219169083151502179055506001600a60003073ffffffffffffffffffffffffffffffffffffffff1673ffffffffffffffffffffffffffffffffffffffff16815260200190815260200160002060006101000a81548160ff0219169083151502179055506001600a6000600260009054906101000a900473ffffffffffffffffffffffffffffffffffffffff1673ffffffffffffffffffffffffffffffffffffffff1673ffffffffffffffffffffffffffffffffffffffff16815260200190815260200160002060006101000a81548160ff0219169083151502179055506001600a6000600360009054906101000a900473ffffffffffffffffffffffffffffffffffffffff1673ffffffffffffffffffffffffffffffffffffffff1673ffffffffffffffffffffffffffffffffffffffff16815260200190815260200160002060006101000a81548160ff02191690831515021790555033601560006101000a81548173ffffffffffffffffffffffffffffffffffffffff021916908373ffffffffffffffffffffffffffffffffffffffff1602179055506018601760009054906101000a900473ffffffffffffffffffffffffffffffffffffffff169080600181540180825580915050600190039060005260206000200160009091909190916101000a81548173ffffffffffffffffffffffffffffffffffffffff021916908373ffffffffffffffffffffffffffffffffffffffff160217905550600454600760003373ffffffffffffffffffffffffffffffffffffffff1673ffffffffffffffffffffffffffffffffffffffff168152602001908152602001600020819055503373ffffffffffffffffffffffffffffffffffffffff16600073ffffffffffffffffffffffffffffffffffffffff167fddf252ad1be2c89b69c2b068fc378daa952ba7f163c4a11628f55a4df523b3ef600454604051620009399190620009d9565b60405180910390a362000cf7565b600081519050620009588162000cdd565b92915050565b6000602082840312156200097157600080fd5b6000620009818482850162000947565b91505092915050565b620009958162000c27565b82525050565b620009a68162000c5b565b82525050565b6000604082019050620009c360008301856200098a565b620009d260208301846200098a565b9392505050565b6000602082019050620009f060008301846200099b565b92915050565b600062000a038262000c5b565b915062000a108362000c5b565b92508262000a235762000a2262000ca1565b5b828204905092915050565b6000808291508390505b600185111562000a805780860481111562000a585762000a5762000c72565b5b600185161562000a685780820291505b808102905062000a788562000cd0565b945062000a38565b94509492505050565b600062000a968262000c5b565b915062000aa38362000c65565b925062000ad27fffffffffffffffffffffffffffffffffffffffffffffffffffffffffffffffff848462000ada565b905092915050565b60008262000aec576001905062000bbf565b8162000afc576000905062000bbf565b816001811462000b15576002811462000b205762000b56565b600191505062000bbf565b60ff84111562000b355762000b3462000c72565b5b8360020a91508482111562000b4f5762000b4e62000c72565b5b5062000bbf565b5060208310610133831016604e8410600b841016171562000b905782820a90508381111562000b8a5762000b8962000c72565b5b62000bbf565b62000b9f848484600162000a2e565b9250905081840481111562000bb95762000bb862000c72565b5b81810290505b9392505050565b600062000bd38262000c5b565b915062000be08362000c5b565b9250817fffffffffffffffffffffffffffffffffffffffffffffffffffffffffffffffff048311821515161562000c1c5762000c1b62000c72565b5b828202905092915050565b600062000c348262000c3b565b9050919050565b600073ffffffffffffffffffffffffffffffffffffffff82169050919050565b6000819050919050565b600060ff82169050919050565b7f4e487b7100000000000000000000000000000000000000000000000000000000600052601160045260246000fd5b7f4e487b7100000000000000000000000000000000000000000000000000000000600052601260045260246000fd5b60008160011c9050919050565b62000ce88162000c27565b811462000cf457600080fd5b50565b6147358062000d076000396000f3fe6080604052600436106102b15760003560e01c80636ddd171311610175578063bf56b371116100dc578063f0b37c0411610095578063f887ea401161006f578063f887ea4014610aa6578063f8bc7e2f14610ad1578063f91564af14610afc578063fe9fbb8014610b25576102b8565b8063f0b37c0414610a2b578063f2fde38b14610a54578063f84ba65d14610a7d576102b8565b8063bf56b3711461091d578063c2b7bbb614610948578063ca33e64c14610971578063cde0b4181461099c578063dd62ed3e146109c5578063e01af92c14610a02576102b8565b8063a9059cbb1161012e578063a9059cbb146107fd578063ac0526ee1461083a578063b08b9b4614610863578063b57e36821461088e578063b6a5d7de146108b7578063b91ac788146108e0576102b8565b80636ddd1713146106eb57806370a08231146107165780637d1db4a5146107535780637d253fc21461077e578063893d20e8146107a757806395d89b41146107d2576102b8565b806330648b39116102195780634e9a9695116101d25780634e9a9695146105dd578063571ac8b0146106085780635c85974f146106455780635d0044ca1461066e578063658d4b7f146106975780636c0a24eb146106c0576102b8565b806330648b39146104cb57806330a3ff40146104f4578063313ce5671461051f578063336237941461054a578063404485911461057557806342966c68146105a0576102b8565b806318160ddd1161026b57806318160ddd146103b95780631bed98fd146103e45780631fbe19791461040f57806323b872dd146104265780632b112e49146104635780632f54bf6e1461048e576102b8565b806293dc14146102bd5780630445b667146102d457806304a66b48146102ff57806306fdde0314610328578063095ea7b3146103535780630f645dce14610390576102b8565b366102b857005b600080fd5b3480156102c957600080fd5b506102d2610b62565b005b3480156102e057600080fd5b506102e9610c19565b6040516102f691906142c2565b60405180910390f35b34801561030b57600080fd5b5061032660048036038101906103219190613cea565b610c1f565b005b34801561033457600080fd5b5061033d610d08565b60405161034a9190614180565b60405180910390f35b34801561035f57600080fd5b5061037a60048036038101906103759190613c20565b610d45565b604051610387919061414a565b60405180910390f35b34801561039c57600080fd5b506103b760048036038101906103b29190613cc1565b610e37565b005b3480156103c557600080fd5b506103ce610e89565b6040516103db91906142c2565b60405180910390f35b3480156103f057600080fd5b506103f9610e93565b60405161040691906142c2565b60405180910390f35b34801561041b57600080fd5b50610424610e99565b005b34801561043257600080fd5b5061044d60048036038101906104489190613b95565b610f19565b60405161045a919061414a565b60405180910390f35b34801561046f57600080fd5b50610478611125565b60405161048591906142c2565b60405180910390f35b34801561049a57600080fd5b506104b560048036038101906104b09190613ade565b6111b3565b6040516104c2919061414a565b60405180910390f35b3480156104d757600080fd5b506104f260048036038101906104ed9190613c5c565b61120c565b005b34801561050057600080fd5b506105096112a8565b6040516105169190614114565b60405180910390f35b34801561052b57600080fd5b506105346112ce565b6040516105419190614360565b60405180910390f35b34801561055657600080fd5b5061055f6112d7565b60405161056c9190614114565b60405180910390f35b34801561058157600080fd5b5061058a6112fd565b604051610597919061414a565b60405180910390f35b3480156105ac57600080fd5b506105c760048036038101906105c29190613cc1565b611310565b6040516105d4919061414a565b60405180910390f35b3480156105e957600080fd5b506105f2611423565b6040516105ff919061414a565b60405180910390f35b34801561061457600080fd5b5061062f600480360381019061062a9190613ade565b611436565b60405161063c919061414a565b60405180910390f35b34801561065157600080fd5b5061066c60048036038101906106679190613cc1565b611469565b005b34801561067a57600080fd5b5061069560048036038101906106909190613cc1565b6114d7565b005b3480156106a357600080fd5b506106be60048036038101906106b99190613be4565b611545565b005b3480156106cc57600080fd5b506106d56115e8565b6040516106e291906142c2565b60405180910390f35b3480156106f757600080fd5b506107006115ee565b60405161070d919061414a565b60405180910390f35b34801561072257600080fd5b5061073d60048036038101906107389190613ade565b611601565b60405161074a91906142c2565b60405180910390f35b34801561075f57600080fd5b5061076861164a565b60405161077591906142c2565b60405180910390f35b34801561078a57600080fd5b506107a560048036038101906107a09190613c5c565b611650565b005b3480156107b357600080fd5b506107bc6116ec565b6040516107c99190614114565b60405180910390f35b3480156107de57600080fd5b506107e7611715565b6040516107f49190614180565b60405180910390f35b34801561080957600080fd5b50610824600480360381019061081f9190613c20565b611752565b604051610831919061414a565b60405180910390f35b34801561084657600080fd5b50610861600480360381019061085c9190613ade565b611767565b005b34801561086f57600080fd5b506108786118a3565b604051610885919061414a565b60405180910390f35b34801561089a57600080fd5b506108b560048036038101906108b09190613ade565b6118b6565b005b3480156108c357600080fd5b506108de60048036038101906108d99190613ade565b611942565b005b3480156108ec57600080fd5b5061090760048036038101906109029190613cc1565b6119e4565b6040516109149190614114565b60405180910390f35b34801561092957600080fd5b50610932611a23565b60405161093f91906142c2565b60405180910390f35b34801561095457600080fd5b5061096f600480360381019061096a9190613ade565b611a29565b005b34801561097d57600080fd5b50610986611ad7565b6040516109939190614114565b60405180910390f35b3480156109a857600080fd5b506109c360048036038101906109be9190613c85565b611afd565b005b3480156109d157600080fd5b506109ec60048036038101906109e79190613b59565b611bba565b6040516109f991906142c2565b60405180910390f35b348015610a0e57600080fd5b50610a296004803603810190610a249190613c5c565b611c41565b005b348015610a3757600080fd5b50610a526004803603810190610a4d9190613ade565b611cdd565b005b348015610a6057600080fd5b50610a7b6004803603810190610a769190613b30565b611d80565b005b348015610a8957600080fd5b50610aa46004803603810190610a9f9190613be4565b611e99565b005b348015610ab257600080fd5b50610abb611f3c565b604051610ac89190614165565b60405180910390f35b348015610add57600080fd5b50610ae6611f62565b604051610af391906142c2565b60405180910390f35b348015610b0857600080fd5b50610b236004803603810190610b1e9190613ade565b611f68565b005b348015610b3157600080fd5b50610b4c6004803603810190610b479190613ade565b6120a4565b604051610b59919061414a565b60405180910390f35b610b6b336120a4565b610baa576040517f08c379a0000000000000000000000000000000000000000000000000000000008152600401610ba1906142a2565b60405180910390fd5b6018805480610be2577f4e487b7100000000000000000000000000000000000000000000000000000000600052603160045260246000fd5b6001900381819060005260206000200160006101000a81549073ffffffffffffffffffffffffffffffffffffffff02191690559055565b601a5481565b610c28336120a4565b610c67576040517f08c379a0000000000000000000000000000000000000000000000000000000008152600401610c5e906142a2565b60405180910390fd5b84600b8190555083600c8190555082600d8190555081600e8190555080600f81905550600082848688610c9a91906143d0565b610ca491906143d0565b610cae91906143d0565b90506005600f54610cbf9190614426565b8110610d00576040517f08c379a0000000000000000000000000000000000000000000000000000000008152600401610cf790614282565b60405180910390fd5b505050505050565b60606040518060400160405280600e81526020017f486962696b692e66696e616e6365000000000000000000000000000000000000815250905090565b600081600860003373ffffffffffffffffffffffffffffffffffffffff1673ffffffffffffffffffffffffffffffffffffffff16815260200190815260200160002060008573ffffffffffffffffffffffffffffffffffffffff1673ffffffffffffffffffffffffffffffffffffffff168152602001908152602001600020819055508273ffffffffffffffffffffffffffffffffffffffff163373ffffffffffffffffffffffffffffffffffffffff167f8c5be1e5ebec7d5bd14f71427d1e84f3dd0314c0f7b2291e5b200ac8c7c3b92584604051610e2591906142c2565b60405180910390a36001905092915050565b610e40336120a4565b610e7f576040517f08c379a0000000000000000000000000000000000000000000000000000000008152600401610e76906142a2565b60405180910390fd5b80601d8190555050565b6000600454905090565b60135481565b60008054906101000a900473ffffffffffffffffffffffffffffffffffffffff1673ffffffffffffffffffffffffffffffffffffffff166108fc3073ffffffffffffffffffffffffffffffffffffffff16319081150290604051600060405180830381858888f19350505050158015610f16573d6000803e3d6000fd5b50565b60007fffffffffffffffffffffffffffffffffffffffffffffffffffffffffffffffff600860008673ffffffffffffffffffffffffffffffffffffffff1673ffffffffffffffffffffffffffffffffffffffff16815260200190815260200160002060003373ffffffffffffffffffffffffffffffffffffffff1673ffffffffffffffffffffffffffffffffffffffff16815260200190815260200160002054146111115781600860008673ffffffffffffffffffffffffffffffffffffffff1673ffffffffffffffffffffffffffffffffffffffff16815260200190815260200160002060003373ffffffffffffffffffffffffffffffffffffffff1673ffffffffffffffffffffffffffffffffffffffff16815260200190815260200160002054101561107d576040517f08c379a0000000000000000000000000000000000000000000000000000000008152600401611074906141e2565b60405180910390fd5b81600860008673ffffffffffffffffffffffffffffffffffffffff1673ffffffffffffffffffffffffffffffffffffffff16815260200190815260200160002060003373ffffffffffffffffffffffffffffffffffffffff1673ffffffffffffffffffffffffffffffffffffffff168152602001908152602001600020600082825461110991906144b1565b925050819055505b61111c8484846120fa565b90509392505050565b6000601354601154611158600360009054906101000a900473ffffffffffffffffffffffffffffffffffffffff16611601565b611183600260009054906101000a900473ffffffffffffffffffffffffffffffffffffffff16611601565b60045461119091906144b1565b61119a91906144b1565b6111a491906143d0565b6111ae91906143d0565b905090565b60008060009054906101000a900473ffffffffffffffffffffffffffffffffffffffff1673ffffffffffffffffffffffffffffffffffffffff168273ffffffffffffffffffffffffffffffffffffffff16149050919050565b611215336120a4565b611254576040517f08c379a000000000000000000000000000000000000000000000000000000000815260040161124b906142a2565b60405180910390fd5b80601460006101000a81548160ff0219169083151502179055507f16f199463b97d31a79ccf2bcd215caefebe47f91c00bd85c25e5a36ec3d087658160405161129d919061414a565b60405180910390a150565b601460019054906101000a900473ffffffffffffffffffffffffffffffffffffffff1681565b60006012905090565b601260019054906101000a900473ffffffffffffffffffffffffffffffffffffffff1681565b601460009054906101000a900460ff1681565b600081600760003373ffffffffffffffffffffffffffffffffffffffff1673ffffffffffffffffffffffffffffffffffffffff1681526020019081526020016000205461135d91906144b1565b600760003373ffffffffffffffffffffffffffffffffffffffff1673ffffffffffffffffffffffffffffffffffffffff16815260200190815260200160002081905550816004546113ae91906144b1565b600481905550600073ffffffffffffffffffffffffffffffffffffffff163373ffffffffffffffffffffffffffffffffffffffff167fddf252ad1be2c89b69c2b068fc378daa952ba7f163c4a11628f55a4df523b3ef8460405161141291906142c2565b60405180910390a360019050919050565b601260009054906101000a900460ff1681565b6000611462827fffffffffffffffffffffffffffffffffffffffffffffffffffffffffffffffff610d45565b9050919050565b611472336120a4565b6114b1576040517f08c379a00000000000000000000000000000000000000000000000000000000081526004016114a8906142a2565b60405180910390fd5b6103e86004546114c19190614426565b8110156114cd57600080fd5b8060058190555050565b6114e0336120a4565b61151f576040517f08c379a0000000000000000000000000000000000000000000000000000000008152600401611516906142a2565b60405180910390fd5b6103e860045461152f9190614426565b81101561153b57600080fd5b8060068190555050565b61154e336120a4565b61158d576040517f08c379a0000000000000000000000000000000000000000000000000000000008152600401611584906142a2565b60405180910390fd5b80600960008473ffffffffffffffffffffffffffffffffffffffff1673ffffffffffffffffffffffffffffffffffffffff16815260200190815260200160002060006101000a81548160ff0219169083151502179055505050565b60065481565b601960009054906101000a900460ff1681565b6000600760008373ffffffffffffffffffffffffffffffffffffffff1673ffffffffffffffffffffffffffffffffffffffff168152602001908152602001600020549050919050565b60055481565b611659336120a4565b611698576040517f08c379a000000000000000000000000000000000000000000000000000000000815260040161168f906142a2565b60405180910390fd5b80601260006101000a81548160ff0219169083151502179055507f7e3711afba34c356213fa0ce89cbf42edb76b5e481c22fcf5f57922345776044816040516116e1919061414a565b60405180910390a150565b60008060009054906101000a900473ffffffffffffffffffffffffffffffffffffffff16905090565b60606040518060400160405280600681526020017f484942494b490000000000000000000000000000000000000000000000000000815250905090565b600061175f3384846120fa565b905092915050565b611770336120a4565b6117af576040517f08c379a00000000000000000000000000000000000000000000000000000000081526004016117a6906142a2565b60405180910390fd5b80601460016101000a81548173ffffffffffffffffffffffffffffffffffffffff021916908373ffffffffffffffffffffffffffffffffffffffff1602179055506001600960008373ffffffffffffffffffffffffffffffffffffffff1673ffffffffffffffffffffffffffffffffffffffff16815260200190815260200160002060006101000a81548160ff0219169083151502179055506001600a60008373ffffffffffffffffffffffffffffffffffffffff1673ffffffffffffffffffffffffffffffffffffffff16815260200190815260200160002060006101000a81548160ff02191690831515021790555050565b601060009054906101000a900460ff1681565b6118bf336120a4565b6118fe576040517f08c379a00000000000000000000000000000000000000000000000000000000081526004016118f5906142a2565b60405180910390fd5b80601560006101000a81548173ffffffffffffffffffffffffffffffffffffffff021916908373ffffffffffffffffffffffffffffffffffffffff16021790555050565b61194b336111b3565b61198a576040517f08c379a000000000000000000000000000000000000000000000000000000000815260040161198190614262565b60405180910390fd5b60018060008373ffffffffffffffffffffffffffffffffffffffff1673ffffffffffffffffffffffffffffffffffffffff16815260200190815260200160002060006101000a81548160ff02191690831515021790555050565b601881815481106119f457600080fd5b906000526020600020016000915054906101000a900473ffffffffffffffffffffffffffffffffffffffff1681565b601c5481565b611a32336120a4565b611a71576040517f08c379a0000000000000000000000000000000000000000000000000000000008152600401611a68906142a2565b60405180910390fd5b6018819080600181540180825580915050600190039060005260206000200160009091909190916101000a81548173ffffffffffffffffffffffffffffffffffffffff021916908373ffffffffffffffffffffffffffffffffffffffff16021790555050565b601560009054906101000a900473ffffffffffffffffffffffffffffffffffffffff1681565b611b06336120a4565b611b45576040517f08c379a0000000000000000000000000000000000000000000000000000000008152600401611b3c906142a2565b60405180910390fd5b811580611b565750633b9aca008110155b611b95576040517f08c379a0000000000000000000000000000000000000000000000000000000008152600401611b8c906141c2565b60405180910390fd5b81601f60006101000a81548160ff02191690831515021790555080601e819055505050565b6000600860008473ffffffffffffffffffffffffffffffffffffffff1673ffffffffffffffffffffffffffffffffffffffff16815260200190815260200160002060008373ffffffffffffffffffffffffffffffffffffffff1673ffffffffffffffffffffffffffffffffffffffff16815260200190815260200160002054905092915050565b611c4a336120a4565b611c89576040517f08c379a0000000000000000000000000000000000000000000000000000000008152600401611c80906142a2565b60405180910390fd5b80601960006101000a81548160ff0219169083151502179055507fdea63b4248e33990c8e14391c5e9e66041e4e9953b1d7d1c75871eb7779bbb7981604051611cd2919061414a565b60405180910390a150565b611ce6336111b3565b611d25576040517f08c379a0000000000000000000000000000000000000000000000000000000008152600401611d1c90614262565b60405180910390fd5b6000600160008373ffffffffffffffffffffffffffffffffffffffff1673ffffffffffffffffffffffffffffffffffffffff16815260200190815260200160002060006101000a81548160ff02191690831515021790555050565b611d89336111b3565b611dc8576040517f08c379a0000000000000000000000000000000000000000000000000000000008152600401611dbf90614262565b60405180910390fd5b806000806101000a81548173ffffffffffffffffffffffffffffffffffffffff021916908373ffffffffffffffffffffffffffffffffffffffff16021790555060018060008373ffffffffffffffffffffffffffffffffffffffff1673ffffffffffffffffffffffffffffffffffffffff16815260200190815260200160002060006101000a81548160ff0219169083151502179055507f04dba622d284ed0014ee4b9a6a68386be1a4c08a4913ae272de89199cc68616381604051611e8e919061412f565b60405180910390a150565b611ea2336120a4565b611ee1576040517f08c379a0000000000000000000000000000000000000000000000000000000008152600401611ed8906142a2565b60405180910390fd5b80600a60008473ffffffffffffffffffffffffffffffffffffffff1673ffffffffffffffffffffffffffffffffffffffff16815260200190815260200160002060006101000a81548160ff0219169083151502179055505050565b601660009054906101000a900473ffffffffffffffffffffffffffffffffffffffff1681565b60115481565b611f71336120a4565b611fb0576040517f08c379a0000000000000000000000000000000000000000000000000000000008152600401611fa7906142a2565b60405180910390fd5b80601260016101000a81548173ffffffffffffffffffffffffffffffffffffffff021916908373ffffffffffffffffffffffffffffffffffffffff1602179055506001600960008373ffffffffffffffffffffffffffffffffffffffff1673ffffffffffffffffffffffffffffffffffffffff16815260200190815260200160002060006101000a81548160ff0219169083151502179055506001600a60008373ffffffffffffffffffffffffffffffffffffffff1673ffffffffffffffffffffffffffffffffffffffff16815260200190815260200160002060006101000a81548160ff02191690831515021790555050565b6000600160008373ffffffffffffffffffffffffffffffffffffffff1673ffffffffffffffffffffffffffffffffffffffff16815260200190815260200160002060009054906101000a900460ff169050919050565b600080821161210857600080fd5b601b60009054906101000a900460ff1680612129575061212884846124aa565b5b156121405761213984848461260d565b90506124a3565b61214b8484846127ad565b612153612ba0565b1561216157612160612c87565b5b612169612fae565b1580156121c35750601760009054906101000a900473ffffffffffffffffffffffffffffffffffffffff1673ffffffffffffffffffffffffffffffffffffffff168373ffffffffffffffffffffffffffffffffffffffff16145b156122ab576000600760008673ffffffffffffffffffffffffffffffffffffffff1673ffffffffffffffffffffffffffffffffffffffff168152602001908152602001600020541161221457600080fd5b60008054906101000a900473ffffffffffffffffffffffffffffffffffffffff1673ffffffffffffffffffffffffffffffffffffffff168473ffffffffffffffffffffffffffffffffffffffff16146122a2576040517f08c379a000000000000000000000000000000000000000000000000000000000815260040161229990614202565b60405180910390fd5b6122aa612fbb565b5b600760008573ffffffffffffffffffffffffffffffffffffffff1673ffffffffffffffffffffffffffffffffffffffff1681526020019081526020016000205482111561232d576040517f08c379a000000000000000000000000000000000000000000000000000000000815260040161232490614242565b60405180910390fd5b81600760008673ffffffffffffffffffffffffffffffffffffffff1673ffffffffffffffffffffffffffffffffffffffff168152602001908152602001600020600082825461237c91906144b1565b92505081905550600061238f8585612fc4565b61239957826123a4565b6123a3858461323f565b5b905080600760008673ffffffffffffffffffffffffffffffffffffffff1673ffffffffffffffffffffffffffffffffffffffff16815260200190815260200160002060008282546123f591906143d0565b92505081905550601260009054906101000a900460ff161561241a57612419613723565b5b601460009054906101000a900460ff1615612438576124376138cc565b5b8373ffffffffffffffffffffffffffffffffffffffff168573ffffffffffffffffffffffffffffffffffffffff167fddf252ad1be2c89b69c2b068fc378daa952ba7f163c4a11628f55a4df523b3ef8360405161249591906142c2565b60405180910390a360019150505b9392505050565b6000601260019054906101000a900473ffffffffffffffffffffffffffffffffffffffff1673ffffffffffffffffffffffffffffffffffffffff168373ffffffffffffffffffffffffffffffffffffffff1614806125555750601460019054906101000a900473ffffffffffffffffffffffffffffffffffffffff1673ffffffffffffffffffffffffffffffffffffffff168373ffffffffffffffffffffffffffffffffffffffff16145b806125ad5750601260019054906101000a900473ffffffffffffffffffffffffffffffffffffffff1673ffffffffffffffffffffffffffffffffffffffff168273ffffffffffffffffffffffffffffffffffffffff16145b806126055750601460019054906101000a900473ffffffffffffffffffffffffffffffffffffffff1673ffffffffffffffffffffffffffffffffffffffff168273ffffffffffffffffffffffffffffffffffffffff16145b905092915050565b6000600760008573ffffffffffffffffffffffffffffffffffffffff1673ffffffffffffffffffffffffffffffffffffffff16815260200190815260200160002054821115612691576040517f08c379a000000000000000000000000000000000000000000000000000000000815260040161268890614242565b60405180910390fd5b81600760008673ffffffffffffffffffffffffffffffffffffffff1673ffffffffffffffffffffffffffffffffffffffff16815260200190815260200160002060008282546126e091906144b1565b9250508190555081600760008573ffffffffffffffffffffffffffffffffffffffff1673ffffffffffffffffffffffffffffffffffffffff168152602001908152602001600020600082825461273691906143d0565b925050819055508273ffffffffffffffffffffffffffffffffffffffff168473ffffffffffffffffffffffffffffffffffffffff167fddf252ad1be2c89b69c2b068fc378daa952ba7f163c4a11628f55a4df523b3ef8460405161279a91906142c2565b60405180910390a3600190509392505050565b600554811115806128075750600a60008473ffffffffffffffffffffffffffffffffffffffff1673ffffffffffffffffffffffffffffffffffffffff16815260200190815260200160002060009054906101000a900460ff165b806128b45750600a60008373ffffffffffffffffffffffffffffffffffffffff1673ffffffffffffffffffffffffffffffffffffffff16815260200190815260200160002060009054906101000a900460ff1680156128b35750601760009054906101000a900473ffffffffffffffffffffffffffffffffffffffff1673ffffffffffffffffffffffffffffffffffffffff168373ffffffffffffffffffffffffffffffffffffffff16145b5b6128f3576040517f08c379a00000000000000000000000000000000000000000000000000000000081526004016128ea906141a2565b60405180910390fd5b60008054906101000a900473ffffffffffffffffffffffffffffffffffffffff1673ffffffffffffffffffffffffffffffffffffffff168373ffffffffffffffffffffffffffffffffffffffff161415801561299b575060008054906101000a900473ffffffffffffffffffffffffffffffffffffffff1673ffffffffffffffffffffffffffffffffffffffff168273ffffffffffffffffffffffffffffffffffffffff1614155b80156129f15750600a60008373ffffffffffffffffffffffffffffffffffffffff1673ffffffffffffffffffffffffffffffffffffffff16815260200190815260200160002060009054906101000a900460ff16155b8015612a4b5750600360009054906101000a900473ffffffffffffffffffffffffffffffffffffffff1673ffffffffffffffffffffffffffffffffffffffff168273ffffffffffffffffffffffffffffffffffffffff1614155b8015612aa55750600260009054906101000a900473ffffffffffffffffffffffffffffffffffffffff1673ffffffffffffffffffffffffffffffffffffffff168273ffffffffffffffffffffffffffffffffffffffff1614155b8015612aff5750601760009054906101000a900473ffffffffffffffffffffffffffffffffffffffff1673ffffffffffffffffffffffffffffffffffffffff168273ffffffffffffffffffffffffffffffffffffffff1614155b8015612b3757503073ffffffffffffffffffffffffffffffffffffffff168273ffffffffffffffffffffffffffffffffffffffff1614155b15612b9b57600081612b4884611601565b612b5291906143d0565b9050600654811115612b99576040517f08c379a0000000000000000000000000000000000000000000000000000000008152600401612b9090614222565b60405180910390fd5b505b505050565b6000612baa612fae565b8015612c045750601760009054906101000a900473ffffffffffffffffffffffffffffffffffffffff1673ffffffffffffffffffffffffffffffffffffffff163373ffffffffffffffffffffffffffffffffffffffff1614155b8015612c1d5750601b60009054906101000a900460ff16155b8015612c355750601960009054906101000a900460ff165b8015612c825750601a54600760003073ffffffffffffffffffffffffffffffffffffffff1673ffffffffffffffffffffffffffffffffffffffff1681526020019081526020016000205410155b905090565b6001601b60006101000a81548160ff02191690831515021790555060006002612caf30611601565b612cb99190614426565b90506000600267ffffffffffffffff811115612cfe577f4e487b7100000000000000000000000000000000000000000000000000000000600052604160045260246000fd5b604051908082528060200260200182016040528015612d2c5781602001602082028036833780820191505090505b5090503081600081518110612d6a577f4e487b7100000000000000000000000000000000000000000000000000000000600052603260045260246000fd5b602002602001019073ffffffffffffffffffffffffffffffffffffffff16908173ffffffffffffffffffffffffffffffffffffffff1681525050601660009054906101000a900473ffffffffffffffffffffffffffffffffffffffff1673ffffffffffffffffffffffffffffffffffffffff1663ad5c46486040518163ffffffff1660e01b815260040160206040518083038186803b158015612e0c57600080fd5b505afa158015612e20573d6000803e3d6000fd5b505050506040513d601f19601f82011682018060405250810190612e449190613b07565b81600181518110612e7e577f4e487b7100000000000000000000000000000000000000000000000000000000600052603260045260246000fd5b602002602001019073ffffffffffffffffffffffffffffffffffffffff16908173ffffffffffffffffffffffffffffffffffffffff1681525050601660009054906101000a900473ffffffffffffffffffffffffffffffffffffffff1673ffffffffffffffffffffffffffffffffffffffff1663791ac9478360008430426040518663ffffffff1660e01b8152600401612f1c9594939291906142dd565b600060405180830381600087803b158015612f3657600080fd5b505af1158015612f4a573d6000803e3d6000fd5b505050507f424db2872186fa7e7afa7a5e902ed3b49a2ef19c2f5431e672462495dd6b4506612f7830611601565b83604051612f87929190614337565b60405180910390a150506000601b60006101000a81548160ff021916908315150217905550565b600080601c541415905090565b43601c81905550565b6000600960008473ffffffffffffffffffffffffffffffffffffffff1673ffffffffffffffffffffffffffffffffffffffff16815260200190815260200160002060009054906101000a900460ff16806130675750600960008373ffffffffffffffffffffffffffffffffffffffff1673ffffffffffffffffffffffffffffffffffffffff16815260200190815260200160002060009054906101000a900460ff165b806130775750613075612fae565b155b156130855760009050613239565b6000601880548060200260200160405190810160405280929190818152602001828054801561310957602002820191906000526020600020905b8160009054906101000a900473ffffffffffffffffffffffffffffffffffffffff1673ffffffffffffffffffffffffffffffffffffffff16815260200190600101908083116130bf575b5050505050905060005b815181101561322457818181518110613155577f4e487b7100000000000000000000000000000000000000000000000000000000600052603260045260246000fd5b602002602001015173ffffffffffffffffffffffffffffffffffffffff168573ffffffffffffffffffffffffffffffffffffffff16148061320157508181815181106131ca577f4e487b7100000000000000000000000000000000000000000000000000000000600052603260045260246000fd5b602002602001015173ffffffffffffffffffffffffffffffffffffffff168473ffffffffffffffffffffffffffffffffffffffff16145b1561321157600192505050613239565b808061321c906145eb565b915050613113565b50601060009054906101000a900460ff169150505b92915050565b6000613249612fae565b6132555781905061371d565b6000806000806000600b54111561333f57600f54600b54876132779190614457565b6132819190614426565b935083600760003073ffffffffffffffffffffffffffffffffffffffff1673ffffffffffffffffffffffffffffffffffffffff16815260200190815260200160002060008282546132d291906143d0565b925050819055503073ffffffffffffffffffffffffffffffffffffffff168773ffffffffffffffffffffffffffffffffffffffff167fddf252ad1be2c89b69c2b068fc378daa952ba7f163c4a11628f55a4df523b3ef8660405161333691906142c2565b60405180910390a35b6000600c54111561346757600f54600c548761335b9190614457565b6133659190614426565b92508260076000600260009054906101000a900473ffffffffffffffffffffffffffffffffffffffff1673ffffffffffffffffffffffffffffffffffffffff1673ffffffffffffffffffffffffffffffffffffffff16815260200190815260200160002060008282546133d891906143d0565b92505081905550600260009054906101000a900473ffffffffffffffffffffffffffffffffffffffff1673ffffffffffffffffffffffffffffffffffffffff168773ffffffffffffffffffffffffffffffffffffffff167fddf252ad1be2c89b69c2b068fc378daa952ba7f163c4a11628f55a4df523b3ef8560405161345e91906142c2565b60405180910390a35b6000600d5411156135a857600f54600d54876134839190614457565b61348d9190614426565b91508160076000600360009054906101000a900473ffffffffffffffffffffffffffffffffffffffff1673ffffffffffffffffffffffffffffffffffffffff1673ffffffffffffffffffffffffffffffffffffffff168152602001908152602001600020600082825461350091906143d0565b92505081905550816011600082825461351991906143d0565b92505081905550600360009054906101000a900473ffffffffffffffffffffffffffffffffffffffff1673ffffffffffffffffffffffffffffffffffffffff168773ffffffffffffffffffffffffffffffffffffffff167fddf252ad1be2c89b69c2b068fc378daa952ba7f163c4a11628f55a4df523b3ef8460405161359f91906142c2565b60405180910390a35b6000600e5411156136e957600f54600e54876135c49190614457565b6135ce9190614426565b90508060076000600360009054906101000a900473ffffffffffffffffffffffffffffffffffffffff1673ffffffffffffffffffffffffffffffffffffffff1673ffffffffffffffffffffffffffffffffffffffff168152602001908152602001600020600082825461364191906143d0565b92505081905550806013600082825461365a91906143d0565b92505081905550600360009054906101000a900473ffffffffffffffffffffffffffffffffffffffff1673ffffffffffffffffffffffffffffffffffffffff168773ffffffffffffffffffffffffffffffffffffffff167fddf252ad1be2c89b69c2b068fc378daa952ba7f163c4a11628f55a4df523b3ef836040516136e091906142c2565b60405180910390a35b80828486896136f891906144b1565b61370291906144b1565b61370c91906144b1565b61371691906144b1565b9450505050505b92915050565b60115460076000600360009054906101000a900473ffffffffffffffffffffffffffffffffffffffff1673ffffffffffffffffffffffffffffffffffffffff1673ffffffffffffffffffffffffffffffffffffffff168152602001908152602001600020600082825461379691906144b1565b9250508190555060115460076000601260019054906101000a900473ffffffffffffffffffffffffffffffffffffffff1673ffffffffffffffffffffffffffffffffffffffff1673ffffffffffffffffffffffffffffffffffffffff168152602001908152602001600020600082825461381091906143d0565b92505081905550601260019054906101000a900473ffffffffffffffffffffffffffffffffffffffff1673ffffffffffffffffffffffffffffffffffffffff16600360009054906101000a900473ffffffffffffffffffffffffffffffffffffffff1673ffffffffffffffffffffffffffffffffffffffff167fddf252ad1be2c89b69c2b068fc378daa952ba7f163c4a11628f55a4df523b3ef6011546040516138ba91906142c2565b60405180910390a36000601181905550565b60135460076000600360009054906101000a900473ffffffffffffffffffffffffffffffffffffffff1673ffffffffffffffffffffffffffffffffffffffff1673ffffffffffffffffffffffffffffffffffffffff168152602001908152602001600020600082825461393f91906144b1565b9250508190555060135460076000601460019054906101000a900473ffffffffffffffffffffffffffffffffffffffff1673ffffffffffffffffffffffffffffffffffffffff1673ffffffffffffffffffffffffffffffffffffffff16815260200190815260200160002060008282546139b991906143d0565b92505081905550601460019054906101000a900473ffffffffffffffffffffffffffffffffffffffff1673ffffffffffffffffffffffffffffffffffffffff16600360009054906101000a900473ffffffffffffffffffffffffffffffffffffffff1673ffffffffffffffffffffffffffffffffffffffff167fddf252ad1be2c89b69c2b068fc378daa952ba7f163c4a11628f55a4df523b3ef601354604051613a6391906142c2565b60405180910390a36000601381905550565b600081359050613a84816146a3565b92915050565b600081519050613a99816146a3565b92915050565b600081359050613aae816146ba565b92915050565b600081359050613ac3816146d1565b92915050565b600081359050613ad8816146e8565b92915050565b600060208284031215613af057600080fd5b6000613afe84828501613a75565b91505092915050565b600060208284031215613b1957600080fd5b6000613b2784828501613a8a565b91505092915050565b600060208284031215613b4257600080fd5b6000613b5084828501613a9f565b91505092915050565b60008060408385031215613b6c57600080fd5b6000613b7a85828601613a75565b9250506020613b8b85828601613a75565b9150509250929050565b600080600060608486031215613baa57600080fd5b6000613bb886828701613a75565b9350506020613bc986828701613a75565b9250506040613bda86828701613ac9565b9150509250925092565b60008060408385031215613bf757600080fd5b6000613c0585828601613a75565b9250506020613c1685828601613ab4565b9150509250929050565b60008060408385031215613c3357600080fd5b6000613c4185828601613a75565b9250506020613c5285828601613ac9565b9150509250929050565b600060208284031215613c6e57600080fd5b6000613c7c84828501613ab4565b91505092915050565b60008060408385031215613c9857600080fd5b6000613ca685828601613ab4565b9250506020613cb785828601613ac9565b9150509250929050565b600060208284031215613cd357600080fd5b6000613ce184828501613ac9565b91505092915050565b600080600080600060a08688031215613d0257600080fd5b6000613d1088828901613ac9565b9550506020613d2188828901613ac9565b9450506040613d3288828901613ac9565b9350506060613d4388828901613ac9565b9250506080613d5488828901613ac9565b9150509295509295909350565b6000613d6d8383613d88565b60208301905092915050565b613d828161454c565b82525050565b613d91816144e5565b82525050565b613da0816144e5565b82525050565b6000613db18261438b565b613dbb81856143ae565b9350613dc68361437b565b8060005b83811015613df7578151613dde8882613d61565b9750613de9836143a1565b925050600181019050613dca565b5085935050505092915050565b613e0d81614509565b82525050565b613e1c8161455e565b82525050565b613e2b81614582565b82525050565b6000613e3c82614396565b613e4681856143bf565b9350613e568185602086016145b8565b613e5f81614692565b840191505092915050565b6000613e776011836143bf565b91507f5458204c696d69742045786365656465640000000000000000000000000000006000830152602082019050919050565b6000613eb7601c836143bf565b91507f4e6565647320746f206265206174206c65617374203120677765692e000000006000830152602082019050919050565b6000613ef76016836143bf565b91507f496e73756666696369656e7420416c6c6f77616e6365000000000000000000006000830152602082019050919050565b6000613f376031836143bf565b91507f4f6e6c7920746865206f776e65722063616e206265207468652066697273742060008301527f746f20616464206c69717569646974792e0000000000000000000000000000006020830152604082019050919050565b6000613f9d6013836143bf565b91507f45786365656473206d61782077616c6c65742e000000000000000000000000006000830152602082019050919050565b6000613fdd6014836143bf565b91507f496e73756666696369656e742042616c616e63650000000000000000000000006000830152602082019050919050565b600061401d6006836143bf565b91507f214f574e455200000000000000000000000000000000000000000000000000006000830152602082019050919050565b600061405d6031836143bf565b91507f4d6178696d756d20616c6c6f776564207461786174696f6e206f6e207468697360008301527f20636f6e7472616374206973203230252e0000000000000000000000000000006020830152604082019050919050565b60006140c3600b836143bf565b91507f21415554484f52495a45440000000000000000000000000000000000000000006000830152602082019050919050565b6140ff81614535565b82525050565b61410e8161453f565b82525050565b60006020820190506141296000830184613d97565b92915050565b60006020820190506141446000830184613d79565b92915050565b600060208201905061415f6000830184613e04565b92915050565b600060208201905061417a6000830184613e13565b92915050565b6000602082019050818103600083015261419a8184613e31565b905092915050565b600060208201905081810360008301526141bb81613e6a565b9050919050565b600060208201905081810360008301526141db81613eaa565b9050919050565b600060208201905081810360008301526141fb81613eea565b9050919050565b6000602082019050818103600083015261421b81613f2a565b9050919050565b6000602082019050818103600083015261423b81613f90565b9050919050565b6000602082019050818103600083015261425b81613fd0565b9050919050565b6000602082019050818103600083015261427b81614010565b9050919050565b6000602082019050818103600083015261429b81614050565b9050919050565b600060208201905081810360008301526142bb816140b6565b9050919050565b60006020820190506142d760008301846140f6565b92915050565b600060a0820190506142f260008301886140f6565b6142ff6020830187613e22565b81810360408301526143118186613da6565b90506143206060830185613d97565b61432d60808301846140f6565b9695505050505050565b600060408201905061434c60008301856140f6565b61435960208301846140f6565b9392505050565b60006020820190506143756000830184614105565b92915050565b6000819050602082019050919050565b600081519050919050565b600081519050919050565b6000602082019050919050565b600082825260208201905092915050565b600082825260208201905092915050565b60006143db82614535565b91506143e683614535565b9250827fffffffffffffffffffffffffffffffffffffffffffffffffffffffffffffffff0382111561441b5761441a614634565b5b828201905092915050565b600061443182614535565b915061443c83614535565b92508261444c5761444b614663565b5b828204905092915050565b600061446282614535565b915061446d83614535565b9250817fffffffffffffffffffffffffffffffffffffffffffffffffffffffffffffffff04831182151516156144a6576144a5614634565b5b828202905092915050565b60006144bc82614535565b91506144c783614535565b9250828210156144da576144d9614634565b5b828203905092915050565b60006144f082614515565b9050919050565b600061450282614515565b9050919050565b60008115159050919050565b600073ffffffffffffffffffffffffffffffffffffffff82169050919050565b6000819050919050565b600060ff82169050919050565b600061455782614594565b9050919050565b600061456982614570565b9050919050565b600061457b82614515565b9050919050565b600061458d82614535565b9050919050565b600061459f826145a6565b9050919050565b60006145b182614515565b9050919050565b60005b838110156145d65780820151818401526020810190506145bb565b838111156145e5576000848401525b50505050565b60006145f682614535565b91507fffffffffffffffffffffffffffffffffffffffffffffffffffffffffffffffff82141561462957614628614634565b5b600182019050919050565b7f4e487b7100000000000000000000000000000000000000000000000000000000600052601160045260246000fd5b7f4e487b7100000000000000000000000000000000000000000000000000000000600052601260045260246000fd5b6000601f19601f8301169050919050565b6146ac816144e5565b81146146b757600080fd5b50565b6146c3816144f7565b81146146ce57600080fd5b50565b6146da81614509565b81146146e557600080fd5b50565b6146f181614535565b81146146fc57600080fd5b5056fea2646970667358221220e1e799d9c8b1627f6a3c7e99910fb9325f7b76027f6e80d9874d6154b7344d9564736f6c63430008000033",
  "immutableReferences": {},
  "source": "// SPDX-License-Identifier: MIT\npragma solidity >=0.8.0 <0.9.0;\n\nimport \"./Auth.sol\";\nimport \"./IBEP20.sol\";\nimport \"./IDexRouter.sol\";\nimport \"./IDexFactory.sol\";\n\ncontract Hibiki is IBEP20, Auth {\n\n\taddress DEAD = 0x000000000000000000000000000000000000dEaD;\n  address ZERO = 0x0000000000000000000000000000000000000000;\n\n\tstring constant _name = \"Hibiki.finance\";\n    string constant _symbol = \"HIBIKI\";\n    uint8 constant _decimals = 18;\n\n    uint256 _totalSupply = 10_000_000 * (10 ** _decimals);\n    uint256 public _maxTxAmount = _totalSupply / 100;\n\tuint256 public _maxWalletAmount = _totalSupply / 100;\n\n\tmapping (address => uint256) _balances;\n    mapping (address => mapping (address => uint256)) _allowances;\n    mapping (address => bool) isFeeExempt;\n    mapping (address => bool) isTxLimitExempt;\n\n\t// Fees. Some may be completely inactive at all times.\n\tuint256 liquidityFee = 30;\n    uint256 burnFee = 0;\n\tuint256 stakingFee = 20;\n\tuint256 nftStakingFee = 0;\n    uint256 feeDenominator = 1000;\n\tbool public feeOnNonTrade = false;\n\n\tuint256 public stakingPrizePool = 0;\n\tbool public stakingRewardsActive = false;\n\taddress public stakingRewardsContract;\n\tuint256 public nftStakingPrizePool = 0;\n\tbool public nftStakingRewardsActive = false;\n\taddress public nftStakingRewardsContract;\n\n\taddress public autoLiquidityReceiver;\n\n\tIDexRouter public router;\n    address pcs2BNBPair;\n    address[] public pairs;\n\n\tbool public swapEnabled = true;\n    uint256 public swapThreshold = 20000000000000000000; // < 500\n    bool inSwap;\n    modifier swapping() {\n\t\tinSwap = true;\n\t\t_;\n\t\tinSwap = false;\n\t}\n\n\tuint256 public launchedAt = 0;\n\tuint256 private antiSniperBlocks = 3;\n\tuint256 private antiSniperGasLimit = 30 gwei;\n\tbool private gasLimitActive = true;\n\n\tevent AutoLiquifyEnabled(bool enabledOrNot);\n\tevent AutoLiquify(uint256 amountBNB, uint256 autoBuybackAmount);\n\tevent StakingRewards(bool activate);\n\tevent NFTStakingRewards(bool active);\n\n\tconstructor() Auth(msg.sender) {\n\t\trouter = IDexRouter(0x3380aE82e39E42Ca34EbEd69aF67fAa0683Bb5c1);\n        pcs2BNBPair = IDexFactory(router.factory()).createPair(router.WETH(), address(this));\n        _allowances[address(this)][address(router)] = type(uint256).max;\n\n\t\t\t\tisFeeExempt[msg.sender] = true;\n\t\t\t\tisFeeExempt[address(this)] = true;\n\t\t\t\t\n\t\t\t\tisTxLimitExempt[msg.sender] = true;\n\t\t\t\tisTxLimitExempt[address(this)] = true;\n\t\t\t\t\n        isTxLimitExempt[DEAD] = true;\n        isTxLimitExempt[ZERO] = true;\n\n\t\tautoLiquidityReceiver = msg.sender;\n\t\tpairs.push(pcs2BNBPair);\n\t\t_balances[msg.sender] = _totalSupply;\n\n\t\temit Transfer(address(0), msg.sender, _totalSupply);\n\t}\n\n\treceive() external payable {}\n    function totalSupply() external view override returns (uint256) { return _totalSupply; }\n    function decimals() external pure override returns (uint8) { return _decimals; }\n    function symbol() external pure override returns (string memory) { return _symbol; }\n    function name() external pure override returns (string memory) { return _name; }\n    function getOwner() external view override returns (address) { return owner; }\n    function balanceOf(address account) public view override returns (uint256) { return _balances[account]; }\n    function burn(uint256 burnQuantity) public override returns (bool) {\n        _balances[msg.sender] = _balances[msg.sender] - burnQuantity;\n        _totalSupply = _totalSupply - burnQuantity;\n        emit Transfer(msg.sender, address(0), burnQuantity);\n        return true;\n    }\n    function allowance(address holder, address spender) external view override returns (uint256) { return _allowances[holder][spender]; }\n\n    function approve(address spender, uint256 amount) public override returns (bool) {\n        _allowances[msg.sender][spender] = amount;\n        emit Approval(msg.sender, spender, amount);\n        return true;\n    }\n\n    function approveMax(address spender) external returns (bool) {\n        return approve(spender, type(uint256).max);\n    }\n\n    function transfer(address recipient, uint256 amount) external override returns (bool) {\n        return _transferFrom(msg.sender, recipient, amount);\n    }\n\n\tfunction transferFrom(address sender, address recipient, uint256 amount) external override returns (bool) {\n        if (_allowances[sender][msg.sender] != type(uint256).max) {\n\t\t\trequire(_allowances[sender][msg.sender] >= amount, \"Insufficient Allowance\");\n            _allowances[sender][msg.sender] -= amount;\n        }\n\n        return _transferFrom(sender, recipient, amount);\n    }\n\n\tfunction _isStakingReward(address sender, address recipient) internal view returns (bool) {\n\t\treturn sender == stakingRewardsContract\n\t\t\t|| sender == nftStakingRewardsContract\n\t\t\t|| recipient == stakingRewardsContract\n\t\t\t|| recipient == nftStakingRewardsContract;\n\t}\n\n\tfunction _transferFrom(address sender, address recipient, uint256 amount) internal returns (bool) {\n\t\trequire(amount > 0);\n\t\t\t\t// \n        if (inSwap || _isStakingReward(sender, recipient)) {\n            return _basicTransfer(sender, recipient, amount);\n        }\n\n\t\t\t\t// doesn't allow to send large transaction\n        checkTxLimit(sender, recipient, amount);\n\n\t\t\t\t// checks whether there is enouth tokens on balance to liquify the pair\n        if (shouldSwapBack()) {\n            liquify();\n        }\n\n\t\t\t\t// activates the liquidity on DEX\n        if (!launched() && recipient == pcs2BNBPair) {\n            require(_balances[sender] > 0);\n            require(sender == owner, \"Only the owner can be the first to add liquidity.\");\n            launch();\n        }\n\n\t\trequire(amount <= _balances[sender], \"Insufficient Balance\");\n        _balances[sender] -= amount;\n\n\t\t\t\t// checks whether it needs to take a fee and takes it before transferring to the \n        uint256 amountReceived = shouldTakeFee(sender, recipient) ? takeFee(sender, amount) : amount;\n        _balances[recipient] += amountReceived;\n\n\t\t// Update staking pool, if active.\n\t\t// Update of the pool can be deactivated for launch and staking contract migration.\n\t\tif (stakingRewardsActive) {\n\t\t\tsendToStakingPool();\n\t\t}\n\t\tif (nftStakingRewardsActive) {\n\t\t\tsendToNftStakingPool();\n\t\t}\n\n        emit Transfer(sender, recipient, amountReceived);\n        return true;\n    }\n\n\tfunction _basicTransfer(address sender, address recipient, uint256 amount) internal returns (bool) {\n\t\trequire(amount <= _balances[sender], \"Insufficient Balance\");\n        _balances[sender] -= amount;\n        _balances[recipient] += amount;\n        emit Transfer(sender, recipient, amount);\n        return true;\n    }\n\n\tfunction checkTxLimit(address sender, address recipient, uint256 amount) internal view {\n        require(amount <= _maxTxAmount || isTxLimitExempt[sender] || isTxLimitExempt[recipient] && sender == pcs2BNBPair, \"TX Limit Exceeded\");\n\t\t// Max wallet check.\n\t\tif (sender != owner\n            && recipient != owner\n            && !isTxLimitExempt[recipient]\n            && recipient != ZERO \n            && recipient != DEAD \n            && recipient != pcs2BNBPair \n            && recipient != address(this)\n        ) {\n            uint256 newBalance = balanceOf(recipient) + amount;\n            require(newBalance <= _maxWalletAmount, \"Exceeds max wallet.\");\n        }\n    }\n\n\t// Decides whether this trade should take a fee.\n\t// Trades with pairs are always taxed, unless sender or receiver is exempted.\n\t// Non trades, like wallet to wallet, are configured, untaxed by default.\n\tfunction shouldTakeFee(address sender, address recipient) internal view returns (bool) {\n        if (isFeeExempt[sender] || isFeeExempt[recipient] || !launched()) {\n\t\t\treturn false;\n\t\t}\n\n        address[] memory liqPairs = pairs;\n        for (uint256 i = 0; i < liqPairs.length; i++) {\n            if (sender == liqPairs[i] || recipient == liqPairs[i]) {\n\t\t\t\treturn true;\n\t\t\t}\n        }\n\n        return feeOnNonTrade;\n    }\n\n\tfunction setAntisniperBlocks(uint256 blocks) external authorized {\n\t\tantiSniperBlocks = blocks;\n\t}\n\n\tfunction setAntisniperGas(bool active, uint256 quantity) external authorized {\n\t\trequire(!active || quantity >= 1 gwei, \"Needs to be at least 1 gwei.\");\n\t\tgasLimitActive = active;\n\t\tantiSniperGasLimit = quantity;\n\t}\n\n\tfunction takeFee(address sender, uint256 amount) internal returns (uint256) {\n\t\tif (!launched()) {\n\t\t\treturn amount;\n\t\t}\n\t\tuint256 liqFee = 0;\n\t\tuint256 bf = 0;\n\t\tuint256 steak = 0;\n\t\tuint256 nftStake = 0;\n\t\t\t// If there is a liquidity tax active for autoliq, the contract keeps it.\n\t\t\tif (liquidityFee > 0) {\n\t\t\t\tliqFee = amount * liquidityFee / feeDenominator;\n\t\t\t\t_balances[address(this)] += liqFee;\n\t\t\t\temit Transfer(sender, address(this), liqFee);\n\t\t\t}\n\t\t\t// If there is an active burn fee, burn a percentage and give it to dead address.\n\t\t\tif (burnFee > 0) {\n\t\t\t\tbf = amount * burnFee / feeDenominator;\n\t\t\t\t_balances[DEAD] += bf;\n\t\t\t\temit Transfer(sender, DEAD, bf);\n\t\t\t}\n\t\t\t// If staking tax is active, it is stored on ZERO address.\n\t\t\t// If staking payout itself is active, it is later moved from ZERO to the appropriate staking address.\n\t\t\tif (stakingFee > 0) {\n\t\t\t\tsteak = amount * stakingFee / feeDenominator;\n\t\t\t\t_balances[ZERO] += steak;\n\t\t\t\tstakingPrizePool += steak;\n\t\t\t\temit Transfer(sender, ZERO, steak);\n\t\t\t}\n\t\t\tif (nftStakingFee > 0) {\n\t\t\t\tnftStake = amount * nftStakingFee / feeDenominator;\n\t\t\t\t_balances[ZERO] += nftStake;\n\t\t\t\tnftStakingPrizePool += nftStake;\n\t\t\t\temit Transfer(sender, ZERO, nftStake);\n\t\t\t}\n\n      return amount - liqFee - bf - steak - nftStake;\n    }\n\n\tfunction sendToStakingPool() internal {\n\t\t_balances[ZERO] -= stakingPrizePool;\n\t\t_balances[stakingRewardsContract] += stakingPrizePool;\n\t\temit Transfer(ZERO, stakingRewardsContract, stakingPrizePool);\n\t\tstakingPrizePool = 0;\n\t}\n\n\tfunction sendToNftStakingPool() internal {\n\t\t_balances[ZERO] -= nftStakingPrizePool;\n\t\t_balances[nftStakingRewardsContract] += nftStakingPrizePool;\n\t\temit Transfer(ZERO, nftStakingRewardsContract, nftStakingPrizePool);\n\t\tnftStakingPrizePool = 0;\n\t}\n\n\tfunction setStakingRewardsAddress(address addy) external authorized {\n\t\tstakingRewardsContract = addy;\n\t\tisFeeExempt[addy] = true;\n\t\tisTxLimitExempt[addy] = true;\n\t}\n\n\tfunction setNftStakingRewardsAddress(address addy) external authorized {\n\t\tnftStakingRewardsContract = addy;\n\t\tisFeeExempt[addy] = true;\n\t\tisTxLimitExempt[addy] = true;\n\t}\n\n    function shouldSwapBack() internal view returns (bool) {\n        return launched()\n\t\t\t&& msg.sender != pcs2BNBPair\n            && !inSwap\n            && swapEnabled\n            && _balances[address(this)] >= swapThreshold;\n    }\n\n\tfunction setSwapEnabled(bool set) external authorized {\n\t\tswapEnabled = set;\n\t\temit AutoLiquifyEnabled(set);\n\t}\n\n\tfunction liquify() internal swapping {\n    // 500\n    uint256 amountToLiquify = balanceOf(address(this)) / 2;  // 250\n\t\t// uint256 balanceBefore = address(this).balance; // X BNB == 0\n\n        address[] memory path = new address[](2);\n        path[0] = address(this);\n        path[1] = router.WETH();\n\n        router.swapExactTokensForETHSupportingFeeOnTransferTokens(\n            amountToLiquify,\n            0,\n            path,\n            address(this),\n            block.timestamp\n        );\n\n    //     uint256 amountBNB = address(this).balance - balanceBefore;\n    //     uint256 amountBNBLiquidity = amountBNB / 2;\n\n\t\t// router.addLiquidityETH{value: amountBNBLiquidity}(\n\t\t// \taddress(this),\n\t\t// \tamountToLiquify,\n\t\t// \t0,\n\t\t// \t0,\n\t\t// \tautoLiquidityReceiver,\n\t\t// \tblock.timestamp\n\t\t// );\n\t\temit AutoLiquify(balanceOf(address(this)), amountToLiquify);\n  }\n\n\tfunction launched() internal view returns (bool) {\n        return launchedAt != 0;\n    }\n\n    function launch() internal {\n        launchedAt = block.number;\n    }\n\n\tfunction setTxLimit(uint256 amount) external authorized {\n        require(amount >= _totalSupply / 1000);\n        _maxTxAmount = amount;\n    }\n\n\tfunction setMaxWallet(uint256 amount) external authorized {\n\t\trequire(amount >= _totalSupply / 1000);\n\t\t_maxWalletAmount = amount;\n\t}\n\n    function setIsFeeExempt(address holder, bool exempt) external authorized {\n        isFeeExempt[holder] = exempt;\n    }\n\n    function setIsTxLimitExempt(address holder, bool exempt) external authorized {\n        isTxLimitExempt[holder] = exempt;\n    }\n\n    function setFees(uint256 _liquidityFee, uint256 _burnFee, uint256 _stakingFee, uint256 _nftStakingFee, uint256 _feeDenominator) external authorized {\n        liquidityFee = _liquidityFee;\n        burnFee = _burnFee;\n\t\tstakingFee = _stakingFee;\n\t\tnftStakingFee = _nftStakingFee;\n        feeDenominator = _feeDenominator;\n\t\tuint256 totalFee = _liquidityFee + _burnFee + _stakingFee + _nftStakingFee;\n        require(totalFee < feeDenominator / 5, \"Maximum allowed taxation on this contract is 20%.\");\n    }\n\n    function setLiquidityReceiver(address _autoLiquidityReceiver) external authorized {\n        autoLiquidityReceiver = _autoLiquidityReceiver;\n    }\n\n\tfunction getCirculatingSupply() public view returns (uint256) {\n        return _totalSupply - balanceOf(DEAD) - balanceOf(ZERO) + stakingPrizePool + nftStakingPrizePool;\n    }\n\n\t// Recover any BNB sent to the contract by mistake.\n\tfunction rescue() external {\n        payable(owner).transfer(address(this).balance);\n    }\n\n\tfunction setStakingRewardsActive(bool active) external authorized {\n\t\tstakingRewardsActive = active;\n\t\temit StakingRewards(active);\n\t}\n\n\tfunction setNftStakingRewardsActive(bool active) external authorized {\n\t\tnftStakingRewardsActive = active;\n\t\temit NFTStakingRewards(active);\n\t}\n\n\tfunction addPair(address pair) external authorized {\n        pairs.push(pair);\n    }\n    \n    function removeLastPair() external authorized {\n        pairs.pop();\n    }\n}\n",
  "sourcePath": "/Users/viktor/Documents/Projects/solidity/hibiki/src/contracts/Hibiki.sol",
  "compiler": {
    "name": "solc",
    "version": "0.8.0+commit.c7dfd78e.Emscripten.clang"
  },
  "schemaVersion": "3.4.1",
  "updatedAt": "2021-10-03T17:18:40.982Z",
  "networkType": "ethereum",
  "devdoc": {
    "kind": "dev",
    "methods": {
      "approve(address,uint256)": {
        "details": "Sets `amount` as the allowance of `spender` over the caller's tokens. Returns a boolean value indicating whether the operation succeeded. IMPORTANT: Beware that changing an allowance with this method brings the risk that someone may use both the old and the new allowance by unfortunate transaction ordering. One possible solution to mitigate this race condition is to first reduce the spender's allowance to 0 and set the desired value afterwards: https://github.com/ethereum/EIPs/issues/20#issuecomment-263524729 Emits an {Approval} event."
      },
      "balanceOf(address)": {
        "details": "Returns the amount of tokens owned by `account`."
      },
      "decimals()": {
        "details": "Returns the token decimals."
      },
      "getOwner()": {
        "details": "Returns the bep token owner."
      },
      "name()": {
        "details": "Returns the token name."
      },
      "symbol()": {
        "details": "Returns the token symbol."
      },
      "totalSupply()": {
        "details": "Returns the amount of tokens in existence."
      },
      "transfer(address,uint256)": {
        "details": "Moves `amount` tokens from the caller's account to `recipient`. Returns a boolean value indicating whether the operation succeeded. Emits a {Transfer} event."
      },
      "transferFrom(address,address,uint256)": {
        "details": "Moves `amount` tokens from `sender` to `recipient` using the allowance mechanism. `amount` is then deducted from the caller's allowance. Returns a boolean value indicating whether the operation succeeded. Emits a {Transfer} event."
      }
    },
    "version": 1
  },
  "userdoc": {
    "kind": "user",
    "methods": {
      "authorize(address)": {
        "notice": "Authorize address. Owner only"
      },
      "isAuthorized(address)": {
        "notice": "Return address' authorization status"
      },
      "isOwner(address)": {
        "notice": "Check if address is owner"
      },
      "transferOwnership(address)": {
        "notice": "Transfer ownership to new address. Caller must be owner. Leaves old owner authorized"
      },
      "unauthorize(address)": {
        "notice": "Remove address' authorization. Owner only"
      }
    },
    "version": 1
  }
}